{
	"contracts/traceability.sol": {
		"TraceabilityContract": {
			"abi": [
				{
					"anonymous": false,
					"inputs": [
						{
							"indexed": true,
							"internalType": "bytes32",
							"name": "hashKey",
							"type": "bytes32"
						}
					],
					"name": "ProductAdded",
					"type": "event"
				},
				{
					"inputs": [
						{
							"internalType": "string",
							"name": "_contractID",
							"type": "string"
						},
						{
							"internalType": "string",
							"name": "_productName",
							"type": "string"
						},
						{
							"internalType": "string",
							"name": "_quantity",
							"type": "string"
						},
						{
							"internalType": "string",
							"name": "_quality",
							"type": "string"
						},
						{
							"internalType": "string",
							"name": "_farmerId",
							"type": "string"
						},
						{
							"internalType": "string",
							"name": "_farmerName",
							"type": "string"
						},
						{
							"internalType": "string",
							"name": "_pickupLocation",
							"type": "string"
						},
						{
							"internalType": "string",
							"name": "_offTakerID",
							"type": "string"
						},
						{
							"internalType": "string",
							"name": "_logisticID",
							"type": "string"
						},
						{
							"internalType": "string[]",
							"name": "_bagNumbers",
							"type": "string[]"
						},
						{
							"internalType": "string[]",
							"name": "_bagQuantities",
							"type": "string[]"
						}
					],
					"name": "addProduct",
					"outputs": [
						{
							"internalType": "bytes32",
							"name": "",
							"type": "bytes32"
						}
					],
					"stateMutability": "nonpayable",
					"type": "function"
				},
				{
					"inputs": [
						{
							"internalType": "bytes32",
							"name": "hashKey",
							"type": "bytes32"
						}
					],
					"name": "getProductDetails",
					"outputs": [
						{
							"components": [
								{
									"internalType": "string",
									"name": "contractID",
									"type": "string"
								},
								{
									"internalType": "string",
									"name": "productName",
									"type": "string"
								},
								{
									"internalType": "string",
									"name": "quantity",
									"type": "string"
								},
								{
									"internalType": "string",
									"name": "quality",
									"type": "string"
								},
								{
									"components": [
										{
											"internalType": "string",
											"name": "farmerId",
											"type": "string"
										},
										{
											"internalType": "string",
											"name": "farmerName",
											"type": "string"
										},
										{
											"internalType": "string",
											"name": "pickupLocation",
											"type": "string"
										}
									],
									"internalType": "struct TraceabilityContract.FarmerDetails",
									"name": "farmerDetails",
									"type": "tuple"
								},
								{
									"internalType": "string",
									"name": "offTakerID",
									"type": "string"
								},
								{
									"internalType": "string",
									"name": "logisticID",
									"type": "string"
								},
								{
									"internalType": "string[]",
									"name": "bagNumbers",
									"type": "string[]"
								},
								{
									"internalType": "string[]",
									"name": "bagQuantities",
									"type": "string[]"
								}
							],
							"internalType": "struct TraceabilityContract.ProductDetails",
							"name": "",
							"type": "tuple"
						}
					],
					"stateMutability": "view",
					"type": "function"
				},
				{
					"inputs": [
						{
							"internalType": "bytes32",
							"name": "_oldHashKey",
							"type": "bytes32"
						},
						{
							"internalType": "string",
							"name": "_contractID",
							"type": "string"
						},
						{
							"internalType": "string",
							"name": "_newQuality",
							"type": "string"
						},
						{
							"internalType": "string",
							"name": "_newQuantity",
							"type": "string"
						}
					],
					"name": "updateProductDetails",
					"outputs": [
						{
							"internalType": "bytes32",
							"name": "",
							"type": "bytes32"
						}
					],
					"stateMutability": "nonpayable",
					"type": "function"
				}
			],
			"devdoc": {
				"kind": "dev",
				"methods": {},
				"version": 1
			},
			"evm": {
				"assembly": "    /* \"contracts/traceability.sol\":57:4237  contract TraceabilityContract {... */\n  mstore(0x40, 0x80)\n  callvalue\n  dup1\n  iszero\n  tag_1\n  jumpi\n  0x00\n  dup1\n  revert\ntag_1:\n  pop\n  dataSize(sub_0)\n  dup1\n  dataOffset(sub_0)\n  0x00\n  codecopy\n  0x00\n  return\nstop\n\nsub_0: assembly {\n        /* \"contracts/traceability.sol\":57:4237  contract TraceabilityContract {... */\n      mstore(0x40, 0x80)\n      callvalue\n      dup1\n      iszero\n      tag_1\n      jumpi\n      0x00\n      dup1\n      revert\n    tag_1:\n      pop\n      jumpi(tag_2, lt(calldatasize, 0x04))\n      shr(0xe0, calldataload(0x00))\n      dup1\n      0x92b0b6bf\n      eq\n      tag_3\n      jumpi\n      dup1\n      0xa5d8ad9f\n      eq\n      tag_4\n      jumpi\n      dup1\n      0xb74d3fb5\n      eq\n      tag_5\n      jumpi\n    tag_2:\n      0x00\n      dup1\n      revert\n        /* \"contracts/traceability.sol\":652:1971  function addProduct(... */\n    tag_3:\n      tag_6\n      0x04\n      dup1\n      calldatasize\n      sub\n      dup2\n      add\n      swap1\n      tag_7\n      swap2\n      swap1\n      tag_8\n      jump\t// in\n    tag_7:\n      tag_9\n      jump\t// in\n    tag_6:\n      mload(0x40)\n      tag_10\n      swap2\n      swap1\n      tag_11\n      jump\t// in\n    tag_10:\n      mload(0x40)\n      dup1\n      swap2\n      sub\n      swap1\n      return\n        /* \"contracts/traceability.sol\":2013:4042  function updateProductDetails(... */\n    tag_4:\n      tag_12\n      0x04\n      dup1\n      calldatasize\n      sub\n      dup2\n      add\n      swap1\n      tag_13\n      swap2\n      swap1\n      tag_14\n      jump\t// in\n    tag_13:\n      tag_15\n      jump\t// in\n    tag_12:\n      mload(0x40)\n      tag_16\n      swap2\n      swap1\n      tag_11\n      jump\t// in\n    tag_16:\n      mload(0x40)\n      dup1\n      swap2\n      sub\n      swap1\n      return\n        /* \"contracts/traceability.sol\":4078:4235  function getProductDetails(bytes32 hashKey)... */\n    tag_5:\n      tag_17\n      0x04\n      dup1\n      calldatasize\n      sub\n      dup2\n      add\n      swap1\n      tag_18\n      swap2\n      swap1\n      tag_19\n      jump\t// in\n    tag_18:\n      tag_20\n      jump\t// in\n    tag_17:\n      mload(0x40)\n      tag_21\n      swap2\n      swap1\n      tag_22\n      jump\t// in\n    tag_21:\n      mload(0x40)\n      dup1\n      swap2\n      sub\n      swap1\n      return\n        /* \"contracts/traceability.sol\":652:1971  function addProduct(... */\n    tag_9:\n        /* \"contracts/traceability.sol\":1084:1091  bytes32 */\n      0x00\n        /* \"contracts/traceability.sol\":1103:1118  bytes32 hashKey */\n      dup1\n        /* \"contracts/traceability.sol\":1178:1189  _contractID */\n      dup13\n        /* \"contracts/traceability.sol\":1207:1219  _productName */\n      dup13\n        /* \"contracts/traceability.sol\":1237:1246  _quantity */\n      dup13\n        /* \"contracts/traceability.sol\":1264:1272  _quality */\n      dup13\n        /* \"contracts/traceability.sol\":1290:1299  _farmerId */\n      dup13\n        /* \"contracts/traceability.sol\":1317:1328  _farmerName */\n      dup13\n        /* \"contracts/traceability.sol\":1346:1361  _pickupLocation */\n      dup13\n        /* \"contracts/traceability.sol\":1379:1390  _offTakerID */\n      dup13\n        /* \"contracts/traceability.sol\":1144:1404  abi.encodePacked(... */\n      add(0x20, mload(0x40))\n      tag_24\n      swap9\n      swap8\n      swap7\n      swap6\n      swap5\n      swap4\n      swap3\n      swap2\n      swap1\n      tag_25\n      jump\t// in\n    tag_24:\n      mload(0x40)\n      0x20\n      dup2\n      dup4\n      sub\n      sub\n      dup2\n      mstore\n      swap1\n      0x40\n      mstore\n        /* \"contracts/traceability.sol\":1121:1414  keccak256(... */\n      dup1\n      mload\n      swap1\n      0x20\n      add\n      keccak256\n        /* \"contracts/traceability.sol\":1103:1414  bytes32 hashKey = keccak256(... */\n      swap1\n      pop\n        /* \"contracts/traceability.sol\":1474:1475  0 */\n      0x00\n        /* \"contracts/traceability.sol\":1434:1442  products */\n      dup1\n        /* \"contracts/traceability.sol\":1434:1451  products[hashKey] */\n      0x00\n        /* \"contracts/traceability.sol\":1443:1450  hashKey */\n      dup4\n        /* \"contracts/traceability.sol\":1434:1451  products[hashKey] */\n      dup2\n      mstore\n      0x20\n      add\n      swap1\n      dup2\n      mstore\n      0x20\n      add\n      0x00\n      keccak256\n        /* \"contracts/traceability.sol\":1434:1462  products[hashKey].contractID */\n      0x00\n      add\n        /* \"contracts/traceability.sol\":1428:1470  bytes(products[hashKey].contractID).length */\n      dup1\n      sload\n      tag_26\n      swap1\n      tag_27\n      jump\t// in\n    tag_26:\n      swap1\n      pop\n        /* \"contracts/traceability.sol\":1428:1475  bytes(products[hashKey].contractID).length != 0 */\n      eq\n        /* \"contracts/traceability.sol\":1424:1583  if (bytes(products[hashKey].contractID).length != 0) {... */\n      tag_28\n      jumpi\n        /* \"contracts/traceability.sol\":1565:1572  hashKey */\n      dup1\n        /* \"contracts/traceability.sol\":1558:1572  return hashKey */\n      swap2\n      pop\n      pop\n      jump(tag_23)\n        /* \"contracts/traceability.sol\":1424:1583  if (bytes(products[hashKey].contractID).length != 0) {... */\n    tag_28:\n        /* \"contracts/traceability.sol\":1612:1903  ProductDetails(... */\n      mload(0x40)\n      dup1\n      0x0120\n      add\n      0x40\n      mstore\n      dup1\n        /* \"contracts/traceability.sol\":1640:1651  _contractID */\n      dup15\n        /* \"contracts/traceability.sol\":1612:1903  ProductDetails(... */\n      dup2\n      mstore\n      0x20\n      add\n        /* \"contracts/traceability.sol\":1665:1677  _productName */\n      dup14\n        /* \"contracts/traceability.sol\":1612:1903  ProductDetails(... */\n      dup2\n      mstore\n      0x20\n      add\n        /* \"contracts/traceability.sol\":1691:1700  _quantity */\n      dup13\n        /* \"contracts/traceability.sol\":1612:1903  ProductDetails(... */\n      dup2\n      mstore\n      0x20\n      add\n        /* \"contracts/traceability.sol\":1714:1722  _quality */\n      dup12\n        /* \"contracts/traceability.sol\":1612:1903  ProductDetails(... */\n      dup2\n      mstore\n      0x20\n      add\n        /* \"contracts/traceability.sol\":1736:1790  FarmerDetails(_farmerId, _farmerName, _pickupLocation) */\n      mload(0x40)\n      dup1\n      0x60\n      add\n      0x40\n      mstore\n      dup1\n        /* \"contracts/traceability.sol\":1750:1759  _farmerId */\n      dup13\n        /* \"contracts/traceability.sol\":1736:1790  FarmerDetails(_farmerId, _farmerName, _pickupLocation) */\n      dup2\n      mstore\n      0x20\n      add\n        /* \"contracts/traceability.sol\":1761:1772  _farmerName */\n      dup12\n        /* \"contracts/traceability.sol\":1736:1790  FarmerDetails(_farmerId, _farmerName, _pickupLocation) */\n      dup2\n      mstore\n      0x20\n      add\n        /* \"contracts/traceability.sol\":1774:1789  _pickupLocation */\n      dup11\n        /* \"contracts/traceability.sol\":1736:1790  FarmerDetails(_farmerId, _farmerName, _pickupLocation) */\n      dup2\n      mstore\n      pop\n        /* \"contracts/traceability.sol\":1612:1903  ProductDetails(... */\n      dup2\n      mstore\n      0x20\n      add\n        /* \"contracts/traceability.sol\":1804:1815  _offTakerID */\n      dup8\n        /* \"contracts/traceability.sol\":1612:1903  ProductDetails(... */\n      dup2\n      mstore\n      0x20\n      add\n        /* \"contracts/traceability.sol\":1829:1840  _logisticID */\n      dup7\n        /* \"contracts/traceability.sol\":1612:1903  ProductDetails(... */\n      dup2\n      mstore\n      0x20\n      add\n        /* \"contracts/traceability.sol\":1854:1865  _bagNumbers */\n      dup6\n        /* \"contracts/traceability.sol\":1612:1903  ProductDetails(... */\n      dup2\n      mstore\n      0x20\n      add\n        /* \"contracts/traceability.sol\":1879:1893  _bagQuantities */\n      dup5\n        /* \"contracts/traceability.sol\":1612:1903  ProductDetails(... */\n      dup2\n      mstore\n      pop\n        /* \"contracts/traceability.sol\":1592:1600  products */\n      0x00\n        /* \"contracts/traceability.sol\":1592:1609  products[hashKey] */\n      dup1\n        /* \"contracts/traceability.sol\":1601:1608  hashKey */\n      dup4\n        /* \"contracts/traceability.sol\":1592:1609  products[hashKey] */\n      dup2\n      mstore\n      0x20\n      add\n      swap1\n      dup2\n      mstore\n      0x20\n      add\n      0x00\n      keccak256\n        /* \"contracts/traceability.sol\":1592:1903  products[hashKey] = ProductDetails(... */\n      0x00\n      dup3\n      add\n      mload\n      dup2\n      0x00\n      add\n      swap1\n      dup2\n      tag_29\n      swap2\n      swap1\n      tag_30\n      jump\t// in\n    tag_29:\n      pop\n      0x20\n      dup3\n      add\n      mload\n      dup2\n      0x01\n      add\n      swap1\n      dup2\n      tag_31\n      swap2\n      swap1\n      tag_30\n      jump\t// in\n    tag_31:\n      pop\n      0x40\n      dup3\n      add\n      mload\n      dup2\n      0x02\n      add\n      swap1\n      dup2\n      tag_32\n      swap2\n      swap1\n      tag_30\n      jump\t// in\n    tag_32:\n      pop\n      0x60\n      dup3\n      add\n      mload\n      dup2\n      0x03\n      add\n      swap1\n      dup2\n      tag_33\n      swap2\n      swap1\n      tag_30\n      jump\t// in\n    tag_33:\n      pop\n      0x80\n      dup3\n      add\n      mload\n      dup2\n      0x04\n      add\n      0x00\n      dup3\n      add\n      mload\n      dup2\n      0x00\n      add\n      swap1\n      dup2\n      tag_34\n      swap2\n      swap1\n      tag_30\n      jump\t// in\n    tag_34:\n      pop\n      0x20\n      dup3\n      add\n      mload\n      dup2\n      0x01\n      add\n      swap1\n      dup2\n      tag_35\n      swap2\n      swap1\n      tag_30\n      jump\t// in\n    tag_35:\n      pop\n      0x40\n      dup3\n      add\n      mload\n      dup2\n      0x02\n      add\n      swap1\n      dup2\n      tag_36\n      swap2\n      swap1\n      tag_30\n      jump\t// in\n    tag_36:\n      pop\n      pop\n      pop\n      0xa0\n      dup3\n      add\n      mload\n      dup2\n      0x07\n      add\n      swap1\n      dup2\n      tag_37\n      swap2\n      swap1\n      tag_30\n      jump\t// in\n    tag_37:\n      pop\n      0xc0\n      dup3\n      add\n      mload\n      dup2\n      0x08\n      add\n      swap1\n      dup2\n      tag_38\n      swap2\n      swap1\n      tag_30\n      jump\t// in\n    tag_38:\n      pop\n      0xe0\n      dup3\n      add\n      mload\n      dup2\n      0x09\n      add\n      swap1\n      dup1\n      mload\n      swap1\n      0x20\n      add\n      swap1\n      tag_39\n      swap3\n      swap2\n      swap1\n      tag_40\n      jump\t// in\n    tag_39:\n      pop\n      0x0100\n      dup3\n      add\n      mload\n      dup2\n      0x0a\n      add\n      swap1\n      dup1\n      mload\n      swap1\n      0x20\n      add\n      swap1\n      tag_41\n      swap3\n      swap2\n      swap1\n      tag_40\n      jump\t// in\n    tag_41:\n      pop\n      swap1\n      pop\n      pop\n        /* \"contracts/traceability.sol\":1932:1939  hashKey */\n      dup1\n        /* \"contracts/traceability.sol\":1919:1940  ProductAdded(hashKey) */\n      0x6c2de183f2a2faf4876f357e3c75bf6e6e7aa4dd120e8b5e1bdb2901e085f69c\n      mload(0x40)\n      mload(0x40)\n      dup1\n      swap2\n      sub\n      swap1\n      log2\n        /* \"contracts/traceability.sol\":1957:1964  hashKey */\n      dup1\n        /* \"contracts/traceability.sol\":1950:1964  return hashKey */\n      swap2\n      pop\n      pop\n        /* \"contracts/traceability.sol\":652:1971  function addProduct(... */\n    tag_23:\n      swap12\n      swap11\n      pop\n      pop\n      pop\n      pop\n      pop\n      pop\n      pop\n      pop\n      pop\n      pop\n      pop\n      jump\t// out\n        /* \"contracts/traceability.sol\":2013:4042  function updateProductDetails(... */\n    tag_15:\n        /* \"contracts/traceability.sol\":2200:2207  bytes32 */\n      0x00\n        /* \"contracts/traceability.sol\":2219:2249  ProductDetails storage product */\n      dup1\n        /* \"contracts/traceability.sol\":2252:2260  products */\n      0x00\n        /* \"contracts/traceability.sol\":2252:2273  products[_oldHashKey] */\n      dup1\n        /* \"contracts/traceability.sol\":2261:2272  _oldHashKey */\n      dup8\n        /* \"contracts/traceability.sol\":2252:2273  products[_oldHashKey] */\n      dup2\n      mstore\n      0x20\n      add\n      swap1\n      dup2\n      mstore\n      0x20\n      add\n      0x00\n      keccak256\n        /* \"contracts/traceability.sol\":2219:2273  ProductDetails storage product = products[_oldHashKey] */\n      swap1\n      pop\n        /* \"contracts/traceability.sol\":2340:2341  0 */\n      0x00\n        /* \"contracts/traceability.sol\":2310:2317  product */\n      dup2\n        /* \"contracts/traceability.sol\":2310:2328  product.contractID */\n      0x00\n      add\n        /* \"contracts/traceability.sol\":2304:2336  bytes(product.contractID).length */\n      dup1\n      sload\n      tag_43\n      swap1\n      tag_27\n      jump\t// in\n    tag_43:\n      swap1\n      pop\n        /* \"contracts/traceability.sol\":2304:2341  bytes(product.contractID).length != 0 */\n      sub\n        /* \"contracts/traceability.sol\":2283:2389  require(... */\n      tag_44\n      jumpi\n      mload(0x40)\n      0x08c379a000000000000000000000000000000000000000000000000000000000\n      dup2\n      mstore\n      0x04\n      add\n      tag_45\n      swap1\n      tag_46\n      jump\t// in\n    tag_45:\n      mload(0x40)\n      dup1\n      swap2\n      sub\n      swap1\n      revert\n    tag_44:\n        /* \"contracts/traceability.sol\":2400:2418  bytes32 newHashKey */\n      0x00\n        /* \"contracts/traceability.sol\":2460:2461  0 */\n      dup1\n        /* \"contracts/traceability.sol\":2438:2449  _newQuality */\n      dup6\n        /* \"contracts/traceability.sol\":2432:2457  bytes(_newQuality).length */\n      mload\n        /* \"contracts/traceability.sol\":2432:2461  bytes(_newQuality).length > 0 */\n      gt\n        /* \"contracts/traceability.sol\":2432:2495  bytes(_newQuality).length > 0 && bytes(_newQuantity).length > 0 */\n      dup1\n      iszero\n      tag_47\n      jumpi\n      pop\n        /* \"contracts/traceability.sol\":2494:2495  0 */\n      0x00\n        /* \"contracts/traceability.sol\":2471:2483  _newQuantity */\n      dup5\n        /* \"contracts/traceability.sol\":2465:2491  bytes(_newQuantity).length */\n      mload\n        /* \"contracts/traceability.sol\":2465:2495  bytes(_newQuantity).length > 0 */\n      gt\n        /* \"contracts/traceability.sol\":2432:2495  bytes(_newQuality).length > 0 && bytes(_newQuantity).length > 0 */\n    tag_47:\n        /* \"contracts/traceability.sol\":2428:3180  if (bytes(_newQuality).length > 0 && bytes(_newQuantity).length > 0) {... */\n      iszero\n      tag_48\n      jumpi\n        /* \"contracts/traceability.sol\":2589:2600  _contractID */\n      dup6\n        /* \"contracts/traceability.sol\":2622:2633  _oldHashKey */\n      dup8\n        /* \"contracts/traceability.sol\":2655:2667  _newQuantity */\n      dup6\n        /* \"contracts/traceability.sol\":2689:2700  _newQuality */\n      dup8\n        /* \"contracts/traceability.sol\":2551:2718  abi.encodePacked(... */\n      add(0x20, mload(0x40))\n      tag_49\n      swap5\n      swap4\n      swap3\n      swap2\n      swap1\n      tag_50\n      jump\t// in\n    tag_49:\n      mload(0x40)\n      0x20\n      dup2\n      dup4\n      sub\n      sub\n      dup2\n      mstore\n      swap1\n      0x40\n      mstore\n        /* \"contracts/traceability.sol\":2524:2732  keccak256(... */\n      dup1\n      mload\n      swap1\n      0x20\n      add\n      keccak256\n        /* \"contracts/traceability.sol\":2511:2732  newHashKey = keccak256(... */\n      swap1\n      pop\n        /* \"contracts/traceability.sol\":2428:3180  if (bytes(_newQuality).length > 0 && bytes(_newQuantity).length > 0) {... */\n      jump(tag_51)\n    tag_48:\n        /* \"contracts/traceability.sol\":2781:2782  0 */\n      0x00\n        /* \"contracts/traceability.sol\":2759:2770  _newQuality */\n      dup6\n        /* \"contracts/traceability.sol\":2753:2778  bytes(_newQuality).length */\n      mload\n        /* \"contracts/traceability.sol\":2753:2782  bytes(_newQuality).length > 0 */\n      gt\n        /* \"contracts/traceability.sol\":2749:3180  if (bytes(_newQuality).length > 0) {... */\n      iszero\n      tag_52\n      jumpi\n        /* \"contracts/traceability.sol\":2855:2866  _contractID */\n      dup6\n        /* \"contracts/traceability.sol\":2868:2879  _oldHashKey */\n      dup8\n        /* \"contracts/traceability.sol\":2881:2892  _newQuality */\n      dup7\n        /* \"contracts/traceability.sol\":2838:2893  abi.encodePacked(_contractID, _oldHashKey, _newQuality) */\n      add(0x20, mload(0x40))\n      tag_53\n      swap4\n      swap3\n      swap2\n      swap1\n      tag_54\n      jump\t// in\n    tag_53:\n      mload(0x40)\n      0x20\n      dup2\n      dup4\n      sub\n      sub\n      dup2\n      mstore\n      swap1\n      0x40\n      mstore\n        /* \"contracts/traceability.sol\":2811:2907  keccak256(... */\n      dup1\n      mload\n      swap1\n      0x20\n      add\n      keccak256\n        /* \"contracts/traceability.sol\":2798:2907  newHashKey = keccak256(... */\n      swap1\n      pop\n        /* \"contracts/traceability.sol\":2749:3180  if (bytes(_newQuality).length > 0) {... */\n      jump(tag_55)\n    tag_52:\n        /* \"contracts/traceability.sol\":2957:2958  0 */\n      0x00\n        /* \"contracts/traceability.sol\":2934:2946  _newQuantity */\n      dup5\n        /* \"contracts/traceability.sol\":2928:2954  bytes(_newQuantity).length */\n      mload\n        /* \"contracts/traceability.sol\":2928:2958  bytes(_newQuantity).length > 0 */\n      gt\n        /* \"contracts/traceability.sol\":2924:3180  if (bytes(_newQuantity).length > 0) {... */\n      iszero\n      tag_56\n      jumpi\n        /* \"contracts/traceability.sol\":3031:3042  _contractID */\n      dup6\n        /* \"contracts/traceability.sol\":3044:3055  _oldHashKey */\n      dup8\n        /* \"contracts/traceability.sol\":3057:3069  _newQuantity */\n      dup6\n        /* \"contracts/traceability.sol\":3014:3070  abi.encodePacked(_contractID, _oldHashKey, _newQuantity) */\n      add(0x20, mload(0x40))\n      tag_57\n      swap4\n      swap3\n      swap2\n      swap1\n      tag_54\n      jump\t// in\n    tag_57:\n      mload(0x40)\n      0x20\n      dup2\n      dup4\n      sub\n      sub\n      dup2\n      mstore\n      swap1\n      0x40\n      mstore\n        /* \"contracts/traceability.sol\":2987:3084  keccak256(... */\n      dup1\n      mload\n      swap1\n      0x20\n      add\n      keccak256\n        /* \"contracts/traceability.sol\":2974:3084  newHashKey = keccak256(... */\n      swap1\n      pop\n        /* \"contracts/traceability.sol\":2924:3180  if (bytes(_newQuantity).length > 0) {... */\n      jump(tag_58)\n    tag_56:\n        /* \"contracts/traceability.sol\":3115:3169  revert(\"Either quality or quantity should be updated\") */\n      mload(0x40)\n      0x08c379a000000000000000000000000000000000000000000000000000000000\n      dup2\n      mstore\n      0x04\n      add\n      tag_59\n      swap1\n      tag_60\n      jump\t// in\n    tag_59:\n      mload(0x40)\n      dup1\n      swap2\n      sub\n      swap1\n      revert\n        /* \"contracts/traceability.sol\":2924:3180  if (bytes(_newQuantity).length > 0) {... */\n    tag_58:\n        /* \"contracts/traceability.sol\":2749:3180  if (bytes(_newQuality).length > 0) {... */\n    tag_55:\n        /* \"contracts/traceability.sol\":2428:3180  if (bytes(_newQuality).length > 0 && bytes(_newQuantity).length > 0) {... */\n    tag_51:\n        /* \"contracts/traceability.sol\":3260:3261  0 */\n      0x00\n        /* \"contracts/traceability.sol\":3217:3225  products */\n      dup1\n        /* \"contracts/traceability.sol\":3217:3237  products[newHashKey] */\n      0x00\n        /* \"contracts/traceability.sol\":3226:3236  newHashKey */\n      dup4\n        /* \"contracts/traceability.sol\":3217:3237  products[newHashKey] */\n      dup2\n      mstore\n      0x20\n      add\n      swap1\n      dup2\n      mstore\n      0x20\n      add\n      0x00\n      keccak256\n        /* \"contracts/traceability.sol\":3217:3248  products[newHashKey].contractID */\n      0x00\n      add\n        /* \"contracts/traceability.sol\":3211:3256  bytes(products[newHashKey].contractID).length */\n      dup1\n      sload\n      tag_61\n      swap1\n      tag_27\n      jump\t// in\n    tag_61:\n      swap1\n      pop\n        /* \"contracts/traceability.sol\":3211:3261  bytes(products[newHashKey].contractID).length == 0 */\n      eq\n        /* \"contracts/traceability.sol\":3190:3339  require(... */\n      tag_62\n      jumpi\n      mload(0x40)\n      0x08c379a000000000000000000000000000000000000000000000000000000000\n      dup2\n      mstore\n      0x04\n      add\n      tag_63\n      swap1\n      tag_64\n      jump\t// in\n    tag_63:\n      mload(0x40)\n      dup1\n      swap2\n      sub\n      swap1\n      revert\n    tag_62:\n        /* \"contracts/traceability.sol\":3350:3383  ProductDetails storage newProduct */\n      0x00\n        /* \"contracts/traceability.sol\":3386:3394  products */\n      dup1\n        /* \"contracts/traceability.sol\":3386:3406  products[newHashKey] */\n      0x00\n        /* \"contracts/traceability.sol\":3395:3405  newHashKey */\n      dup4\n        /* \"contracts/traceability.sol\":3386:3406  products[newHashKey] */\n      dup2\n      mstore\n      0x20\n      add\n      swap1\n      dup2\n      mstore\n      0x20\n      add\n      0x00\n      keccak256\n        /* \"contracts/traceability.sol\":3350:3406  ProductDetails storage newProduct = products[newHashKey] */\n      swap1\n      pop\n        /* \"contracts/traceability.sol\":3440:3447  product */\n      dup3\n        /* \"contracts/traceability.sol\":3440:3458  product.contractID */\n      0x00\n      add\n        /* \"contracts/traceability.sol\":3416:3426  newProduct */\n      dup2\n        /* \"contracts/traceability.sol\":3416:3437  newProduct.contractID */\n      0x00\n      add\n        /* \"contracts/traceability.sol\":3416:3458  newProduct.contractID = product.contractID */\n      swap1\n      dup2\n      tag_65\n      swap2\n      swap1\n      tag_66\n      jump\t// in\n    tag_65:\n      pop\n        /* \"contracts/traceability.sol\":3493:3500  product */\n      dup3\n        /* \"contracts/traceability.sol\":3493:3512  product.productName */\n      0x01\n      add\n        /* \"contracts/traceability.sol\":3468:3478  newProduct */\n      dup2\n        /* \"contracts/traceability.sol\":3468:3490  newProduct.productName */\n      0x01\n      add\n        /* \"contracts/traceability.sol\":3468:3512  newProduct.productName = product.productName */\n      swap1\n      dup2\n      tag_67\n      swap2\n      swap1\n      tag_66\n      jump\t// in\n    tag_67:\n      pop\n        /* \"contracts/traceability.sol\":3573:3574  0 */\n      0x00\n        /* \"contracts/traceability.sol\":3550:3562  _newQuantity */\n      dup6\n        /* \"contracts/traceability.sol\":3544:3570  bytes(_newQuantity).length */\n      mload\n        /* \"contracts/traceability.sol\":3544:3574  bytes(_newQuantity).length > 0 */\n      gt\n        /* \"contracts/traceability.sol\":3544:3632  bytes(_newQuantity).length > 0... */\n      tag_68\n      jumpi\n        /* \"contracts/traceability.sol\":3616:3623  product */\n      dup3\n        /* \"contracts/traceability.sol\":3616:3632  product.quantity */\n      0x02\n      add\n        /* \"contracts/traceability.sol\":3544:3632  bytes(_newQuantity).length > 0... */\n      dup1\n      sload\n      tag_69\n      swap1\n      tag_27\n      jump\t// in\n    tag_69:\n      dup1\n      0x1f\n      add\n      0x20\n      dup1\n      swap2\n      div\n      mul\n      0x20\n      add\n      mload(0x40)\n      swap1\n      dup2\n      add\n      0x40\n      mstore\n      dup1\n      swap3\n      swap2\n      swap1\n      dup2\n      dup2\n      mstore\n      0x20\n      add\n      dup3\n      dup1\n      sload\n      tag_70\n      swap1\n      tag_27\n      jump\t// in\n    tag_70:\n      dup1\n      iszero\n      tag_71\n      jumpi\n      dup1\n      0x1f\n      lt\n      tag_72\n      jumpi\n      0x0100\n      dup1\n      dup4\n      sload\n      div\n      mul\n      dup4\n      mstore\n      swap2\n      0x20\n      add\n      swap2\n      jump(tag_71)\n    tag_72:\n      dup3\n      add\n      swap2\n      swap1\n      0x00\n      mstore\n      keccak256(0x00, 0x20)\n      swap1\n    tag_73:\n      dup2\n      sload\n      dup2\n      mstore\n      swap1\n      0x01\n      add\n      swap1\n      0x20\n      add\n      dup1\n      dup4\n      gt\n      tag_73\n      jumpi\n      dup3\n      swap1\n      sub\n      0x1f\n      and\n      dup3\n      add\n      swap2\n    tag_71:\n      pop\n      pop\n      pop\n      pop\n      pop\n      jump(tag_74)\n    tag_68:\n        /* \"contracts/traceability.sol\":3589:3601  _newQuantity */\n      dup5\n        /* \"contracts/traceability.sol\":3544:3632  bytes(_newQuantity).length > 0... */\n    tag_74:\n        /* \"contracts/traceability.sol\":3522:3532  newProduct */\n      dup2\n        /* \"contracts/traceability.sol\":3522:3541  newProduct.quantity */\n      0x02\n      add\n        /* \"contracts/traceability.sol\":3522:3632  newProduct.quantity = bytes(_newQuantity).length > 0... */\n      swap1\n      dup2\n      tag_75\n      swap2\n      swap1\n      tag_30\n      jump\t// in\n    tag_75:\n      pop\n        /* \"contracts/traceability.sol\":3691:3692  0 */\n      0x00\n        /* \"contracts/traceability.sol\":3669:3680  _newQuality */\n      dup7\n        /* \"contracts/traceability.sol\":3663:3688  bytes(_newQuality).length */\n      mload\n        /* \"contracts/traceability.sol\":3663:3692  bytes(_newQuality).length > 0 */\n      gt\n        /* \"contracts/traceability.sol\":3663:3748  bytes(_newQuality).length > 0... */\n      tag_76\n      jumpi\n        /* \"contracts/traceability.sol\":3733:3740  product */\n      dup3\n        /* \"contracts/traceability.sol\":3733:3748  product.quality */\n      0x03\n      add\n        /* \"contracts/traceability.sol\":3663:3748  bytes(_newQuality).length > 0... */\n      dup1\n      sload\n      tag_77\n      swap1\n      tag_27\n      jump\t// in\n    tag_77:\n      dup1\n      0x1f\n      add\n      0x20\n      dup1\n      swap2\n      div\n      mul\n      0x20\n      add\n      mload(0x40)\n      swap1\n      dup2\n      add\n      0x40\n      mstore\n      dup1\n      swap3\n      swap2\n      swap1\n      dup2\n      dup2\n      mstore\n      0x20\n      add\n      dup3\n      dup1\n      sload\n      tag_78\n      swap1\n      tag_27\n      jump\t// in\n    tag_78:\n      dup1\n      iszero\n      tag_79\n      jumpi\n      dup1\n      0x1f\n      lt\n      tag_80\n      jumpi\n      0x0100\n      dup1\n      dup4\n      sload\n      div\n      mul\n      dup4\n      mstore\n      swap2\n      0x20\n      add\n      swap2\n      jump(tag_79)\n    tag_80:\n      dup3\n      add\n      swap2\n      swap1\n      0x00\n      mstore\n      keccak256(0x00, 0x20)\n      swap1\n    tag_81:\n      dup2\n      sload\n      dup2\n      mstore\n      swap1\n      0x01\n      add\n      swap1\n      0x20\n      add\n      dup1\n      dup4\n      gt\n      tag_81\n      jumpi\n      dup3\n      swap1\n      sub\n      0x1f\n      and\n      dup3\n      add\n      swap2\n    tag_79:\n      pop\n      pop\n      pop\n      pop\n      pop\n      jump(tag_82)\n    tag_76:\n        /* \"contracts/traceability.sol\":3707:3718  _newQuality */\n      dup6\n        /* \"contracts/traceability.sol\":3663:3748  bytes(_newQuality).length > 0... */\n    tag_82:\n        /* \"contracts/traceability.sol\":3642:3652  newProduct */\n      dup2\n        /* \"contracts/traceability.sol\":3642:3660  newProduct.quality */\n      0x03\n      add\n        /* \"contracts/traceability.sol\":3642:3748  newProduct.quality = bytes(_newQuality).length > 0... */\n      swap1\n      dup2\n      tag_83\n      swap2\n      swap1\n      tag_30\n      jump\t// in\n    tag_83:\n      pop\n        /* \"contracts/traceability.sol\":3785:3792  product */\n      dup3\n        /* \"contracts/traceability.sol\":3785:3806  product.farmerDetails */\n      0x04\n      add\n        /* \"contracts/traceability.sol\":3758:3768  newProduct */\n      dup2\n        /* \"contracts/traceability.sol\":3758:3782  newProduct.farmerDetails */\n      0x04\n      add\n        /* \"contracts/traceability.sol\":3758:3806  newProduct.farmerDetails = product.farmerDetails */\n      0x00\n      dup3\n      add\n      dup2\n      0x00\n      add\n      swap1\n      dup2\n      tag_84\n      swap2\n      swap1\n      tag_85\n      jump\t// in\n    tag_84:\n      pop\n      0x01\n      dup3\n      add\n      dup2\n      0x01\n      add\n      swap1\n      dup2\n      tag_86\n      swap2\n      swap1\n      tag_85\n      jump\t// in\n    tag_86:\n      pop\n      0x02\n      dup3\n      add\n      dup2\n      0x02\n      add\n      swap1\n      dup2\n      tag_87\n      swap2\n      swap1\n      tag_85\n      jump\t// in\n    tag_87:\n      pop\n      swap1\n      pop\n      pop\n        /* \"contracts/traceability.sol\":3840:3847  product */\n      dup3\n        /* \"contracts/traceability.sol\":3840:3858  product.offTakerID */\n      0x07\n      add\n        /* \"contracts/traceability.sol\":3816:3826  newProduct */\n      dup2\n        /* \"contracts/traceability.sol\":3816:3837  newProduct.offTakerID */\n      0x07\n      add\n        /* \"contracts/traceability.sol\":3816:3858  newProduct.offTakerID = product.offTakerID */\n      swap1\n      dup2\n      tag_88\n      swap2\n      swap1\n      tag_66\n      jump\t// in\n    tag_88:\n      pop\n        /* \"contracts/traceability.sol\":3892:3899  product */\n      dup3\n        /* \"contracts/traceability.sol\":3892:3910  product.bagNumbers */\n      0x09\n      add\n        /* \"contracts/traceability.sol\":3868:3878  newProduct */\n      dup2\n        /* \"contracts/traceability.sol\":3868:3889  newProduct.bagNumbers */\n      0x09\n      add\n        /* \"contracts/traceability.sol\":3868:3910  newProduct.bagNumbers = product.bagNumbers */\n      swap1\n      dup1\n      sload\n      tag_89\n      swap3\n      swap2\n      swap1\n      tag_90\n      jump\t// in\n    tag_89:\n      pop\n        /* \"contracts/traceability.sol\":3947:3954  product */\n      dup3\n        /* \"contracts/traceability.sol\":3947:3968  product.bagQuantities */\n      0x0a\n      add\n        /* \"contracts/traceability.sol\":3920:3930  newProduct */\n      dup2\n        /* \"contracts/traceability.sol\":3920:3944  newProduct.bagQuantities */\n      0x0a\n      add\n        /* \"contracts/traceability.sol\":3920:3968  newProduct.bagQuantities = product.bagQuantities */\n      swap1\n      dup1\n      sload\n      tag_91\n      swap3\n      swap2\n      swap1\n      tag_90\n      jump\t// in\n    tag_91:\n      pop\n        /* \"contracts/traceability.sol\":3997:4007  newHashKey */\n      dup2\n        /* \"contracts/traceability.sol\":3984:4008  ProductAdded(newHashKey) */\n      0x6c2de183f2a2faf4876f357e3c75bf6e6e7aa4dd120e8b5e1bdb2901e085f69c\n      mload(0x40)\n      mload(0x40)\n      dup1\n      swap2\n      sub\n      swap1\n      log2\n        /* \"contracts/traceability.sol\":4025:4035  newHashKey */\n      dup2\n        /* \"contracts/traceability.sol\":4018:4035  return newHashKey */\n      swap4\n      pop\n      pop\n      pop\n      pop\n        /* \"contracts/traceability.sol\":2013:4042  function updateProductDetails(... */\n      swap5\n      swap4\n      pop\n      pop\n      pop\n      pop\n      jump\t// out\n        /* \"contracts/traceability.sol\":4078:4235  function getProductDetails(bytes32 hashKey)... */\n    tag_20:\n        /* \"contracts/traceability.sol\":4167:4188  ProductDetails memory */\n      tag_92\n      tag_93\n      jump\t// in\n    tag_92:\n        /* \"contracts/traceability.sol\":4211:4219  products */\n      0x00\n        /* \"contracts/traceability.sol\":4211:4228  products[hashKey] */\n      dup1\n        /* \"contracts/traceability.sol\":4220:4227  hashKey */\n      dup4\n        /* \"contracts/traceability.sol\":4211:4228  products[hashKey] */\n      dup2\n      mstore\n      0x20\n      add\n      swap1\n      dup2\n      mstore\n      0x20\n      add\n      0x00\n      keccak256\n        /* \"contracts/traceability.sol\":4204:4228  return products[hashKey] */\n      mload(0x40)\n      dup1\n      0x0120\n      add\n      0x40\n      mstore\n      swap1\n      dup2\n      0x00\n      dup3\n      add\n      dup1\n      sload\n      tag_95\n      swap1\n      tag_27\n      jump\t// in\n    tag_95:\n      dup1\n      0x1f\n      add\n      0x20\n      dup1\n      swap2\n      div\n      mul\n      0x20\n      add\n      mload(0x40)\n      swap1\n      dup2\n      add\n      0x40\n      mstore\n      dup1\n      swap3\n      swap2\n      swap1\n      dup2\n      dup2\n      mstore\n      0x20\n      add\n      dup3\n      dup1\n      sload\n      tag_96\n      swap1\n      tag_27\n      jump\t// in\n    tag_96:\n      dup1\n      iszero\n      tag_97\n      jumpi\n      dup1\n      0x1f\n      lt\n      tag_98\n      jumpi\n      0x0100\n      dup1\n      dup4\n      sload\n      div\n      mul\n      dup4\n      mstore\n      swap2\n      0x20\n      add\n      swap2\n      jump(tag_97)\n    tag_98:\n      dup3\n      add\n      swap2\n      swap1\n      0x00\n      mstore\n      keccak256(0x00, 0x20)\n      swap1\n    tag_99:\n      dup2\n      sload\n      dup2\n      mstore\n      swap1\n      0x01\n      add\n      swap1\n      0x20\n      add\n      dup1\n      dup4\n      gt\n      tag_99\n      jumpi\n      dup3\n      swap1\n      sub\n      0x1f\n      and\n      dup3\n      add\n      swap2\n    tag_97:\n      pop\n      pop\n      pop\n      pop\n      pop\n      dup2\n      mstore\n      0x20\n      add\n      0x01\n      dup3\n      add\n      dup1\n      sload\n      tag_100\n      swap1\n      tag_27\n      jump\t// in\n    tag_100:\n      dup1\n      0x1f\n      add\n      0x20\n      dup1\n      swap2\n      div\n      mul\n      0x20\n      add\n      mload(0x40)\n      swap1\n      dup2\n      add\n      0x40\n      mstore\n      dup1\n      swap3\n      swap2\n      swap1\n      dup2\n      dup2\n      mstore\n      0x20\n      add\n      dup3\n      dup1\n      sload\n      tag_101\n      swap1\n      tag_27\n      jump\t// in\n    tag_101:\n      dup1\n      iszero\n      tag_102\n      jumpi\n      dup1\n      0x1f\n      lt\n      tag_103\n      jumpi\n      0x0100\n      dup1\n      dup4\n      sload\n      div\n      mul\n      dup4\n      mstore\n      swap2\n      0x20\n      add\n      swap2\n      jump(tag_102)\n    tag_103:\n      dup3\n      add\n      swap2\n      swap1\n      0x00\n      mstore\n      keccak256(0x00, 0x20)\n      swap1\n    tag_104:\n      dup2\n      sload\n      dup2\n      mstore\n      swap1\n      0x01\n      add\n      swap1\n      0x20\n      add\n      dup1\n      dup4\n      gt\n      tag_104\n      jumpi\n      dup3\n      swap1\n      sub\n      0x1f\n      and\n      dup3\n      add\n      swap2\n    tag_102:\n      pop\n      pop\n      pop\n      pop\n      pop\n      dup2\n      mstore\n      0x20\n      add\n      0x02\n      dup3\n      add\n      dup1\n      sload\n      tag_105\n      swap1\n      tag_27\n      jump\t// in\n    tag_105:\n      dup1\n      0x1f\n      add\n      0x20\n      dup1\n      swap2\n      div\n      mul\n      0x20\n      add\n      mload(0x40)\n      swap1\n      dup2\n      add\n      0x40\n      mstore\n      dup1\n      swap3\n      swap2\n      swap1\n      dup2\n      dup2\n      mstore\n      0x20\n      add\n      dup3\n      dup1\n      sload\n      tag_106\n      swap1\n      tag_27\n      jump\t// in\n    tag_106:\n      dup1\n      iszero\n      tag_107\n      jumpi\n      dup1\n      0x1f\n      lt\n      tag_108\n      jumpi\n      0x0100\n      dup1\n      dup4\n      sload\n      div\n      mul\n      dup4\n      mstore\n      swap2\n      0x20\n      add\n      swap2\n      jump(tag_107)\n    tag_108:\n      dup3\n      add\n      swap2\n      swap1\n      0x00\n      mstore\n      keccak256(0x00, 0x20)\n      swap1\n    tag_109:\n      dup2\n      sload\n      dup2\n      mstore\n      swap1\n      0x01\n      add\n      swap1\n      0x20\n      add\n      dup1\n      dup4\n      gt\n      tag_109\n      jumpi\n      dup3\n      swap1\n      sub\n      0x1f\n      and\n      dup3\n      add\n      swap2\n    tag_107:\n      pop\n      pop\n      pop\n      pop\n      pop\n      dup2\n      mstore\n      0x20\n      add\n      0x03\n      dup3\n      add\n      dup1\n      sload\n      tag_110\n      swap1\n      tag_27\n      jump\t// in\n    tag_110:\n      dup1\n      0x1f\n      add\n      0x20\n      dup1\n      swap2\n      div\n      mul\n      0x20\n      add\n      mload(0x40)\n      swap1\n      dup2\n      add\n      0x40\n      mstore\n      dup1\n      swap3\n      swap2\n      swap1\n      dup2\n      dup2\n      mstore\n      0x20\n      add\n      dup3\n      dup1\n      sload\n      tag_111\n      swap1\n      tag_27\n      jump\t// in\n    tag_111:\n      dup1\n      iszero\n      tag_112\n      jumpi\n      dup1\n      0x1f\n      lt\n      tag_113\n      jumpi\n      0x0100\n      dup1\n      dup4\n      sload\n      div\n      mul\n      dup4\n      mstore\n      swap2\n      0x20\n      add\n      swap2\n      jump(tag_112)\n    tag_113:\n      dup3\n      add\n      swap2\n      swap1\n      0x00\n      mstore\n      keccak256(0x00, 0x20)\n      swap1\n    tag_114:\n      dup2\n      sload\n      dup2\n      mstore\n      swap1\n      0x01\n      add\n      swap1\n      0x20\n      add\n      dup1\n      dup4\n      gt\n      tag_114\n      jumpi\n      dup3\n      swap1\n      sub\n      0x1f\n      and\n      dup3\n      add\n      swap2\n    tag_112:\n      pop\n      pop\n      pop\n      pop\n      pop\n      dup2\n      mstore\n      0x20\n      add\n      0x04\n      dup3\n      add\n      mload(0x40)\n      dup1\n      0x60\n      add\n      0x40\n      mstore\n      swap1\n      dup2\n      0x00\n      dup3\n      add\n      dup1\n      sload\n      tag_115\n      swap1\n      tag_27\n      jump\t// in\n    tag_115:\n      dup1\n      0x1f\n      add\n      0x20\n      dup1\n      swap2\n      div\n      mul\n      0x20\n      add\n      mload(0x40)\n      swap1\n      dup2\n      add\n      0x40\n      mstore\n      dup1\n      swap3\n      swap2\n      swap1\n      dup2\n      dup2\n      mstore\n      0x20\n      add\n      dup3\n      dup1\n      sload\n      tag_116\n      swap1\n      tag_27\n      jump\t// in\n    tag_116:\n      dup1\n      iszero\n      tag_117\n      jumpi\n      dup1\n      0x1f\n      lt\n      tag_118\n      jumpi\n      0x0100\n      dup1\n      dup4\n      sload\n      div\n      mul\n      dup4\n      mstore\n      swap2\n      0x20\n      add\n      swap2\n      jump(tag_117)\n    tag_118:\n      dup3\n      add\n      swap2\n      swap1\n      0x00\n      mstore\n      keccak256(0x00, 0x20)\n      swap1\n    tag_119:\n      dup2\n      sload\n      dup2\n      mstore\n      swap1\n      0x01\n      add\n      swap1\n      0x20\n      add\n      dup1\n      dup4\n      gt\n      tag_119\n      jumpi\n      dup3\n      swap1\n      sub\n      0x1f\n      and\n      dup3\n      add\n      swap2\n    tag_117:\n      pop\n      pop\n      pop\n      pop\n      pop\n      dup2\n      mstore\n      0x20\n      add\n      0x01\n      dup3\n      add\n      dup1\n      sload\n      tag_120\n      swap1\n      tag_27\n      jump\t// in\n    tag_120:\n      dup1\n      0x1f\n      add\n      0x20\n      dup1\n      swap2\n      div\n      mul\n      0x20\n      add\n      mload(0x40)\n      swap1\n      dup2\n      add\n      0x40\n      mstore\n      dup1\n      swap3\n      swap2\n      swap1\n      dup2\n      dup2\n      mstore\n      0x20\n      add\n      dup3\n      dup1\n      sload\n      tag_121\n      swap1\n      tag_27\n      jump\t// in\n    tag_121:\n      dup1\n      iszero\n      tag_122\n      jumpi\n      dup1\n      0x1f\n      lt\n      tag_123\n      jumpi\n      0x0100\n      dup1\n      dup4\n      sload\n      div\n      mul\n      dup4\n      mstore\n      swap2\n      0x20\n      add\n      swap2\n      jump(tag_122)\n    tag_123:\n      dup3\n      add\n      swap2\n      swap1\n      0x00\n      mstore\n      keccak256(0x00, 0x20)\n      swap1\n    tag_124:\n      dup2\n      sload\n      dup2\n      mstore\n      swap1\n      0x01\n      add\n      swap1\n      0x20\n      add\n      dup1\n      dup4\n      gt\n      tag_124\n      jumpi\n      dup3\n      swap1\n      sub\n      0x1f\n      and\n      dup3\n      add\n      swap2\n    tag_122:\n      pop\n      pop\n      pop\n      pop\n      pop\n      dup2\n      mstore\n      0x20\n      add\n      0x02\n      dup3\n      add\n      dup1\n      sload\n      tag_125\n      swap1\n      tag_27\n      jump\t// in\n    tag_125:\n      dup1\n      0x1f\n      add\n      0x20\n      dup1\n      swap2\n      div\n      mul\n      0x20\n      add\n      mload(0x40)\n      swap1\n      dup2\n      add\n      0x40\n      mstore\n      dup1\n      swap3\n      swap2\n      swap1\n      dup2\n      dup2\n      mstore\n      0x20\n      add\n      dup3\n      dup1\n      sload\n      tag_126\n      swap1\n      tag_27\n      jump\t// in\n    tag_126:\n      dup1\n      iszero\n      tag_127\n      jumpi\n      dup1\n      0x1f\n      lt\n      tag_128\n      jumpi\n      0x0100\n      dup1\n      dup4\n      sload\n      div\n      mul\n      dup4\n      mstore\n      swap2\n      0x20\n      add\n      swap2\n      jump(tag_127)\n    tag_128:\n      dup3\n      add\n      swap2\n      swap1\n      0x00\n      mstore\n      keccak256(0x00, 0x20)\n      swap1\n    tag_129:\n      dup2\n      sload\n      dup2\n      mstore\n      swap1\n      0x01\n      add\n      swap1\n      0x20\n      add\n      dup1\n      dup4\n      gt\n      tag_129\n      jumpi\n      dup3\n      swap1\n      sub\n      0x1f\n      and\n      dup3\n      add\n      swap2\n    tag_127:\n      pop\n      pop\n      pop\n      pop\n      pop\n      dup2\n      mstore\n      pop\n      pop\n      dup2\n      mstore\n      0x20\n      add\n      0x07\n      dup3\n      add\n      dup1\n      sload\n      tag_130\n      swap1\n      tag_27\n      jump\t// in\n    tag_130:\n      dup1\n      0x1f\n      add\n      0x20\n      dup1\n      swap2\n      div\n      mul\n      0x20\n      add\n      mload(0x40)\n      swap1\n      dup2\n      add\n      0x40\n      mstore\n      dup1\n      swap3\n      swap2\n      swap1\n      dup2\n      dup2\n      mstore\n      0x20\n      add\n      dup3\n      dup1\n      sload\n      tag_131\n      swap1\n      tag_27\n      jump\t// in\n    tag_131:\n      dup1\n      iszero\n      tag_132\n      jumpi\n      dup1\n      0x1f\n      lt\n      tag_133\n      jumpi\n      0x0100\n      dup1\n      dup4\n      sload\n      div\n      mul\n      dup4\n      mstore\n      swap2\n      0x20\n      add\n      swap2\n      jump(tag_132)\n    tag_133:\n      dup3\n      add\n      swap2\n      swap1\n      0x00\n      mstore\n      keccak256(0x00, 0x20)\n      swap1\n    tag_134:\n      dup2\n      sload\n      dup2\n      mstore\n      swap1\n      0x01\n      add\n      swap1\n      0x20\n      add\n      dup1\n      dup4\n      gt\n      tag_134\n      jumpi\n      dup3\n      swap1\n      sub\n      0x1f\n      and\n      dup3\n      add\n      swap2\n    tag_132:\n      pop\n      pop\n      pop\n      pop\n      pop\n      dup2\n      mstore\n      0x20\n      add\n      0x08\n      dup3\n      add\n      dup1\n      sload\n      tag_135\n      swap1\n      tag_27\n      jump\t// in\n    tag_135:\n      dup1\n      0x1f\n      add\n      0x20\n      dup1\n      swap2\n      div\n      mul\n      0x20\n      add\n      mload(0x40)\n      swap1\n      dup2\n      add\n      0x40\n      mstore\n      dup1\n      swap3\n      swap2\n      swap1\n      dup2\n      dup2\n      mstore\n      0x20\n      add\n      dup3\n      dup1\n      sload\n      tag_136\n      swap1\n      tag_27\n      jump\t// in\n    tag_136:\n      dup1\n      iszero\n      tag_137\n      jumpi\n      dup1\n      0x1f\n      lt\n      tag_138\n      jumpi\n      0x0100\n      dup1\n      dup4\n      sload\n      div\n      mul\n      dup4\n      mstore\n      swap2\n      0x20\n      add\n      swap2\n      jump(tag_137)\n    tag_138:\n      dup3\n      add\n      swap2\n      swap1\n      0x00\n      mstore\n      keccak256(0x00, 0x20)\n      swap1\n    tag_139:\n      dup2\n      sload\n      dup2\n      mstore\n      swap1\n      0x01\n      add\n      swap1\n      0x20\n      add\n      dup1\n      dup4\n      gt\n      tag_139\n      jumpi\n      dup3\n      swap1\n      sub\n      0x1f\n      and\n      dup3\n      add\n      swap2\n    tag_137:\n      pop\n      pop\n      pop\n      pop\n      pop\n      dup2\n      mstore\n      0x20\n      add\n      0x09\n      dup3\n      add\n      dup1\n      sload\n      dup1\n      0x20\n      mul\n      0x20\n      add\n      mload(0x40)\n      swap1\n      dup2\n      add\n      0x40\n      mstore\n      dup1\n      swap3\n      swap2\n      swap1\n      dup2\n      dup2\n      mstore\n      0x20\n      add\n      0x00\n      swap1\n    tag_140:\n      dup3\n      dup3\n      lt\n      iszero\n      tag_141\n      jumpi\n      dup4\n      dup3\n      swap1\n      0x00\n      mstore\n      keccak256(0x00, 0x20)\n      add\n      dup1\n      sload\n      tag_143\n      swap1\n      tag_27\n      jump\t// in\n    tag_143:\n      dup1\n      0x1f\n      add\n      0x20\n      dup1\n      swap2\n      div\n      mul\n      0x20\n      add\n      mload(0x40)\n      swap1\n      dup2\n      add\n      0x40\n      mstore\n      dup1\n      swap3\n      swap2\n      swap1\n      dup2\n      dup2\n      mstore\n      0x20\n      add\n      dup3\n      dup1\n      sload\n      tag_144\n      swap1\n      tag_27\n      jump\t// in\n    tag_144:\n      dup1\n      iszero\n      tag_145\n      jumpi\n      dup1\n      0x1f\n      lt\n      tag_146\n      jumpi\n      0x0100\n      dup1\n      dup4\n      sload\n      div\n      mul\n      dup4\n      mstore\n      swap2\n      0x20\n      add\n      swap2\n      jump(tag_145)\n    tag_146:\n      dup3\n      add\n      swap2\n      swap1\n      0x00\n      mstore\n      keccak256(0x00, 0x20)\n      swap1\n    tag_147:\n      dup2\n      sload\n      dup2\n      mstore\n      swap1\n      0x01\n      add\n      swap1\n      0x20\n      add\n      dup1\n      dup4\n      gt\n      tag_147\n      jumpi\n      dup3\n      swap1\n      sub\n      0x1f\n      and\n      dup3\n      add\n      swap2\n    tag_145:\n      pop\n      pop\n      pop\n      pop\n      pop\n      dup2\n      mstore\n      0x20\n      add\n      swap1\n      0x01\n      add\n      swap1\n      jump(tag_140)\n    tag_141:\n      pop\n      pop\n      pop\n      pop\n      dup2\n      mstore\n      0x20\n      add\n      0x0a\n      dup3\n      add\n      dup1\n      sload\n      dup1\n      0x20\n      mul\n      0x20\n      add\n      mload(0x40)\n      swap1\n      dup2\n      add\n      0x40\n      mstore\n      dup1\n      swap3\n      swap2\n      swap1\n      dup2\n      dup2\n      mstore\n      0x20\n      add\n      0x00\n      swap1\n    tag_148:\n      dup3\n      dup3\n      lt\n      iszero\n      tag_149\n      jumpi\n      dup4\n      dup3\n      swap1\n      0x00\n      mstore\n      keccak256(0x00, 0x20)\n      add\n      dup1\n      sload\n      tag_151\n      swap1\n      tag_27\n      jump\t// in\n    tag_151:\n      dup1\n      0x1f\n      add\n      0x20\n      dup1\n      swap2\n      div\n      mul\n      0x20\n      add\n      mload(0x40)\n      swap1\n      dup2\n      add\n      0x40\n      mstore\n      dup1\n      swap3\n      swap2\n      swap1\n      dup2\n      dup2\n      mstore\n      0x20\n      add\n      dup3\n      dup1\n      sload\n      tag_152\n      swap1\n      tag_27\n      jump\t// in\n    tag_152:\n      dup1\n      iszero\n      tag_153\n      jumpi\n      dup1\n      0x1f\n      lt\n      tag_154\n      jumpi\n      0x0100\n      dup1\n      dup4\n      sload\n      div\n      mul\n      dup4\n      mstore\n      swap2\n      0x20\n      add\n      swap2\n      jump(tag_153)\n    tag_154:\n      dup3\n      add\n      swap2\n      swap1\n      0x00\n      mstore\n      keccak256(0x00, 0x20)\n      swap1\n    tag_155:\n      dup2\n      sload\n      dup2\n      mstore\n      swap1\n      0x01\n      add\n      swap1\n      0x20\n      add\n      dup1\n      dup4\n      gt\n      tag_155\n      jumpi\n      dup3\n      swap1\n      sub\n      0x1f\n      and\n      dup3\n      add\n      swap2\n    tag_153:\n      pop\n      pop\n      pop\n      pop\n      pop\n      dup2\n      mstore\n      0x20\n      add\n      swap1\n      0x01\n      add\n      swap1\n      jump(tag_148)\n    tag_149:\n      pop\n      pop\n      pop\n      pop\n      dup2\n      mstore\n      pop\n      pop\n      swap1\n      pop\n        /* \"contracts/traceability.sol\":4078:4235  function getProductDetails(bytes32 hashKey)... */\n      swap2\n      swap1\n      pop\n      jump\t// out\n    tag_40:\n      dup3\n      dup1\n      sload\n      dup3\n      dup3\n      sstore\n      swap1\n      0x00\n      mstore\n      keccak256(0x00, 0x20)\n      swap1\n      dup2\n      add\n      swap3\n      dup3\n      iszero\n      tag_156\n      jumpi\n      swap2\n      0x20\n      mul\n      dup3\n      add\n    tag_157:\n      dup3\n      dup2\n      gt\n      iszero\n      tag_158\n      jumpi\n      dup3\n      mload\n      dup3\n      swap1\n      dup2\n      tag_159\n      swap2\n      swap1\n      tag_30\n      jump\t// in\n    tag_159:\n      pop\n      swap2\n      0x20\n      add\n      swap2\n      swap1\n      0x01\n      add\n      swap1\n      jump(tag_157)\n    tag_158:\n    tag_156:\n      pop\n      swap1\n      pop\n      tag_160\n      swap2\n      swap1\n      tag_161\n      jump\t// in\n    tag_160:\n      pop\n      swap1\n      jump\t// out\n    tag_90:\n      dup3\n      dup1\n      sload\n      dup3\n      dup3\n      sstore\n      swap1\n      0x00\n      mstore\n      keccak256(0x00, 0x20)\n      swap1\n      dup2\n      add\n      swap3\n      dup3\n      iszero\n      tag_162\n      jumpi\n      0x00\n      mstore\n      keccak256(0x00, 0x20)\n      swap2\n      dup3\n      add\n    tag_163:\n      dup3\n      dup2\n      gt\n      iszero\n      tag_164\n      jumpi\n      dup3\n      dup3\n      swap1\n      dup2\n      tag_165\n      swap2\n      swap1\n      tag_85\n      jump\t// in\n    tag_165:\n      pop\n      swap2\n      0x01\n      add\n      swap2\n      swap1\n      0x01\n      add\n      swap1\n      jump(tag_163)\n    tag_164:\n    tag_162:\n      pop\n      swap1\n      pop\n      tag_166\n      swap2\n      swap1\n      tag_161\n      jump\t// in\n    tag_166:\n      pop\n      swap1\n      jump\t// out\n    tag_93:\n      mload(0x40)\n      dup1\n      0x0120\n      add\n      0x40\n      mstore\n      dup1\n      0x60\n      dup2\n      mstore\n      0x20\n      add\n      0x60\n      dup2\n      mstore\n      0x20\n      add\n      0x60\n      dup2\n      mstore\n      0x20\n      add\n      0x60\n      dup2\n      mstore\n      0x20\n      add\n      tag_167\n      tag_168\n      jump\t// in\n    tag_167:\n      dup2\n      mstore\n      0x20\n      add\n      0x60\n      dup2\n      mstore\n      0x20\n      add\n      0x60\n      dup2\n      mstore\n      0x20\n      add\n      0x60\n      dup2\n      mstore\n      0x20\n      add\n      0x60\n      dup2\n      mstore\n      pop\n      swap1\n      jump\t// out\n    tag_161:\n    tag_169:\n      dup1\n      dup3\n      gt\n      iszero\n      tag_170\n      jumpi\n      0x00\n      dup2\n      dup2\n      tag_171\n      swap2\n      swap1\n      tag_172\n      jump\t// in\n    tag_171:\n      pop\n      0x01\n      add\n      jump(tag_169)\n    tag_170:\n      pop\n      swap1\n      jump\t// out\n    tag_168:\n      mload(0x40)\n      dup1\n      0x60\n      add\n      0x40\n      mstore\n      dup1\n      0x60\n      dup2\n      mstore\n      0x20\n      add\n      0x60\n      dup2\n      mstore\n      0x20\n      add\n      0x60\n      dup2\n      mstore\n      pop\n      swap1\n      jump\t// out\n    tag_172:\n      pop\n      dup1\n      sload\n      tag_173\n      swap1\n      tag_27\n      jump\t// in\n    tag_173:\n      0x00\n      dup3\n      sstore\n      dup1\n      0x1f\n      lt\n      tag_175\n      jumpi\n      pop\n      jump(tag_174)\n    tag_175:\n      0x1f\n      add\n      0x20\n      swap1\n      div\n      swap1\n      0x00\n      mstore\n      keccak256(0x00, 0x20)\n      swap1\n      dup2\n      add\n      swap1\n      tag_176\n      swap2\n      swap1\n      tag_177\n      jump\t// in\n    tag_176:\n    tag_174:\n      pop\n      jump\t// out\n    tag_177:\n    tag_178:\n      dup1\n      dup3\n      gt\n      iszero\n      tag_179\n      jumpi\n      0x00\n      dup2\n      0x00\n      swap1\n      sstore\n      pop\n      0x01\n      add\n      jump(tag_178)\n    tag_179:\n      pop\n      swap1\n      jump\t// out\n        /* \"#utility.yul\":7:82   */\n    tag_180:\n        /* \"#utility.yul\":40:46   */\n      0x00\n        /* \"#utility.yul\":73:75   */\n      0x40\n        /* \"#utility.yul\":67:76   */\n      mload\n        /* \"#utility.yul\":57:76   */\n      swap1\n      pop\n        /* \"#utility.yul\":7:82   */\n      swap1\n      jump\t// out\n        /* \"#utility.yul\":88:205   */\n    tag_181:\n        /* \"#utility.yul\":197:198   */\n      0x00\n        /* \"#utility.yul\":194:195   */\n      dup1\n        /* \"#utility.yul\":187:199   */\n      revert\n        /* \"#utility.yul\":211:328   */\n    tag_182:\n        /* \"#utility.yul\":320:321   */\n      0x00\n        /* \"#utility.yul\":317:318   */\n      dup1\n        /* \"#utility.yul\":310:322   */\n      revert\n        /* \"#utility.yul\":334:451   */\n    tag_183:\n        /* \"#utility.yul\":443:444   */\n      0x00\n        /* \"#utility.yul\":440:441   */\n      dup1\n        /* \"#utility.yul\":433:445   */\n      revert\n        /* \"#utility.yul\":457:574   */\n    tag_184:\n        /* \"#utility.yul\":566:567   */\n      0x00\n        /* \"#utility.yul\":563:564   */\n      dup1\n        /* \"#utility.yul\":556:568   */\n      revert\n        /* \"#utility.yul\":580:682   */\n    tag_185:\n        /* \"#utility.yul\":621:627   */\n      0x00\n        /* \"#utility.yul\":672:674   */\n      0x1f\n        /* \"#utility.yul\":668:675   */\n      not\n        /* \"#utility.yul\":663:665   */\n      0x1f\n        /* \"#utility.yul\":656:661   */\n      dup4\n        /* \"#utility.yul\":652:666   */\n      add\n        /* \"#utility.yul\":648:676   */\n      and\n        /* \"#utility.yul\":638:676   */\n      swap1\n      pop\n        /* \"#utility.yul\":580:682   */\n      swap2\n      swap1\n      pop\n      jump\t// out\n        /* \"#utility.yul\":688:868   */\n    tag_186:\n        /* \"#utility.yul\":736:813   */\n      0x4e487b7100000000000000000000000000000000000000000000000000000000\n        /* \"#utility.yul\":733:734   */\n      0x00\n        /* \"#utility.yul\":726:814   */\n      mstore\n        /* \"#utility.yul\":833:837   */\n      0x41\n        /* \"#utility.yul\":830:831   */\n      0x04\n        /* \"#utility.yul\":823:838   */\n      mstore\n        /* \"#utility.yul\":857:861   */\n      0x24\n        /* \"#utility.yul\":854:855   */\n      0x00\n        /* \"#utility.yul\":847:862   */\n      revert\n        /* \"#utility.yul\":874:1155   */\n    tag_187:\n        /* \"#utility.yul\":957:984   */\n      tag_253\n        /* \"#utility.yul\":979:983   */\n      dup3\n        /* \"#utility.yul\":957:984   */\n      tag_185\n      jump\t// in\n    tag_253:\n        /* \"#utility.yul\":949:955   */\n      dup2\n        /* \"#utility.yul\":945:985   */\n      add\n        /* \"#utility.yul\":1087:1093   */\n      dup2\n        /* \"#utility.yul\":1075:1085   */\n      dup2\n        /* \"#utility.yul\":1072:1094   */\n      lt\n        /* \"#utility.yul\":1051:1069   */\n      0xffffffffffffffff\n        /* \"#utility.yul\":1039:1049   */\n      dup3\n        /* \"#utility.yul\":1036:1070   */\n      gt\n        /* \"#utility.yul\":1033:1095   */\n      or\n        /* \"#utility.yul\":1030:1118   */\n      iszero\n      tag_254\n      jumpi\n        /* \"#utility.yul\":1098:1116   */\n      tag_255\n      tag_186\n      jump\t// in\n    tag_255:\n        /* \"#utility.yul\":1030:1118   */\n    tag_254:\n        /* \"#utility.yul\":1138:1148   */\n      dup1\n        /* \"#utility.yul\":1134:1136   */\n      0x40\n        /* \"#utility.yul\":1127:1149   */\n      mstore\n        /* \"#utility.yul\":917:1155   */\n      pop\n        /* \"#utility.yul\":874:1155   */\n      pop\n      pop\n      jump\t// out\n        /* \"#utility.yul\":1161:1290   */\n    tag_188:\n        /* \"#utility.yul\":1195:1201   */\n      0x00\n        /* \"#utility.yul\":1222:1242   */\n      tag_257\n      tag_180\n      jump\t// in\n    tag_257:\n        /* \"#utility.yul\":1212:1242   */\n      swap1\n      pop\n        /* \"#utility.yul\":1251:1284   */\n      tag_258\n        /* \"#utility.yul\":1279:1283   */\n      dup3\n        /* \"#utility.yul\":1271:1277   */\n      dup3\n        /* \"#utility.yul\":1251:1284   */\n      tag_187\n      jump\t// in\n    tag_258:\n        /* \"#utility.yul\":1161:1290   */\n      swap2\n      swap1\n      pop\n      jump\t// out\n        /* \"#utility.yul\":1296:1604   */\n    tag_189:\n        /* \"#utility.yul\":1358:1362   */\n      0x00\n        /* \"#utility.yul\":1448:1466   */\n      0xffffffffffffffff\n        /* \"#utility.yul\":1440:1446   */\n      dup3\n        /* \"#utility.yul\":1437:1467   */\n      gt\n        /* \"#utility.yul\":1434:1490   */\n      iszero\n      tag_260\n      jumpi\n        /* \"#utility.yul\":1470:1488   */\n      tag_261\n      tag_186\n      jump\t// in\n    tag_261:\n        /* \"#utility.yul\":1434:1490   */\n    tag_260:\n        /* \"#utility.yul\":1508:1537   */\n      tag_262\n        /* \"#utility.yul\":1530:1536   */\n      dup3\n        /* \"#utility.yul\":1508:1537   */\n      tag_185\n      jump\t// in\n    tag_262:\n        /* \"#utility.yul\":1500:1537   */\n      swap1\n      pop\n        /* \"#utility.yul\":1592:1596   */\n      0x20\n        /* \"#utility.yul\":1586:1590   */\n      dup2\n        /* \"#utility.yul\":1582:1597   */\n      add\n        /* \"#utility.yul\":1574:1597   */\n      swap1\n      pop\n        /* \"#utility.yul\":1296:1604   */\n      swap2\n      swap1\n      pop\n      jump\t// out\n        /* \"#utility.yul\":1610:1756   */\n    tag_190:\n        /* \"#utility.yul\":1707:1713   */\n      dup3\n        /* \"#utility.yul\":1702:1705   */\n      dup2\n        /* \"#utility.yul\":1697:1700   */\n      dup4\n        /* \"#utility.yul\":1684:1714   */\n      calldatacopy\n        /* \"#utility.yul\":1748:1749   */\n      0x00\n        /* \"#utility.yul\":1739:1745   */\n      dup4\n        /* \"#utility.yul\":1734:1737   */\n      dup4\n        /* \"#utility.yul\":1730:1746   */\n      add\n        /* \"#utility.yul\":1723:1750   */\n      mstore\n        /* \"#utility.yul\":1610:1756   */\n      pop\n      pop\n      pop\n      jump\t// out\n        /* \"#utility.yul\":1762:2187   */\n    tag_191:\n        /* \"#utility.yul\":1840:1845   */\n      0x00\n        /* \"#utility.yul\":1865:1931   */\n      tag_265\n        /* \"#utility.yul\":1881:1930   */\n      tag_266\n        /* \"#utility.yul\":1923:1929   */\n      dup5\n        /* \"#utility.yul\":1881:1930   */\n      tag_189\n      jump\t// in\n    tag_266:\n        /* \"#utility.yul\":1865:1931   */\n      tag_188\n      jump\t// in\n    tag_265:\n        /* \"#utility.yul\":1856:1931   */\n      swap1\n      pop\n        /* \"#utility.yul\":1954:1960   */\n      dup3\n        /* \"#utility.yul\":1947:1952   */\n      dup2\n        /* \"#utility.yul\":1940:1961   */\n      mstore\n        /* \"#utility.yul\":1992:1996   */\n      0x20\n        /* \"#utility.yul\":1985:1990   */\n      dup2\n        /* \"#utility.yul\":1981:1997   */\n      add\n        /* \"#utility.yul\":2030:2033   */\n      dup5\n        /* \"#utility.yul\":2021:2027   */\n      dup5\n        /* \"#utility.yul\":2016:2019   */\n      dup5\n        /* \"#utility.yul\":2012:2028   */\n      add\n        /* \"#utility.yul\":2009:2034   */\n      gt\n        /* \"#utility.yul\":2006:2118   */\n      iszero\n      tag_267\n      jumpi\n        /* \"#utility.yul\":2037:2116   */\n      tag_268\n      tag_184\n      jump\t// in\n    tag_268:\n        /* \"#utility.yul\":2006:2118   */\n    tag_267:\n        /* \"#utility.yul\":2127:2181   */\n      tag_269\n        /* \"#utility.yul\":2174:2180   */\n      dup5\n        /* \"#utility.yul\":2169:2172   */\n      dup3\n        /* \"#utility.yul\":2164:2167   */\n      dup6\n        /* \"#utility.yul\":2127:2181   */\n      tag_190\n      jump\t// in\n    tag_269:\n        /* \"#utility.yul\":1846:2187   */\n      pop\n        /* \"#utility.yul\":1762:2187   */\n      swap4\n      swap3\n      pop\n      pop\n      pop\n      jump\t// out\n        /* \"#utility.yul\":2207:2547   */\n    tag_192:\n        /* \"#utility.yul\":2263:2268   */\n      0x00\n        /* \"#utility.yul\":2312:2315   */\n      dup3\n        /* \"#utility.yul\":2305:2309   */\n      0x1f\n        /* \"#utility.yul\":2297:2303   */\n      dup4\n        /* \"#utility.yul\":2293:2310   */\n      add\n        /* \"#utility.yul\":2289:2316   */\n      slt\n        /* \"#utility.yul\":2279:2401   */\n      tag_271\n      jumpi\n        /* \"#utility.yul\":2320:2399   */\n      tag_272\n      tag_183\n      jump\t// in\n    tag_272:\n        /* \"#utility.yul\":2279:2401   */\n    tag_271:\n        /* \"#utility.yul\":2437:2443   */\n      dup2\n        /* \"#utility.yul\":2424:2444   */\n      calldataload\n        /* \"#utility.yul\":2462:2541   */\n      tag_273\n        /* \"#utility.yul\":2537:2540   */\n      dup5\n        /* \"#utility.yul\":2529:2535   */\n      dup3\n        /* \"#utility.yul\":2522:2526   */\n      0x20\n        /* \"#utility.yul\":2514:2520   */\n      dup7\n        /* \"#utility.yul\":2510:2527   */\n      add\n        /* \"#utility.yul\":2462:2541   */\n      tag_191\n      jump\t// in\n    tag_273:\n        /* \"#utility.yul\":2453:2541   */\n      swap2\n      pop\n        /* \"#utility.yul\":2269:2547   */\n      pop\n        /* \"#utility.yul\":2207:2547   */\n      swap3\n      swap2\n      pop\n      pop\n      jump\t// out\n        /* \"#utility.yul\":2553:2874   */\n    tag_193:\n        /* \"#utility.yul\":2640:2644   */\n      0x00\n        /* \"#utility.yul\":2730:2748   */\n      0xffffffffffffffff\n        /* \"#utility.yul\":2722:2728   */\n      dup3\n        /* \"#utility.yul\":2719:2749   */\n      gt\n        /* \"#utility.yul\":2716:2772   */\n      iszero\n      tag_275\n      jumpi\n        /* \"#utility.yul\":2752:2770   */\n      tag_276\n      tag_186\n      jump\t// in\n    tag_276:\n        /* \"#utility.yul\":2716:2772   */\n    tag_275:\n        /* \"#utility.yul\":2802:2806   */\n      0x20\n        /* \"#utility.yul\":2794:2800   */\n      dup3\n        /* \"#utility.yul\":2790:2807   */\n      mul\n        /* \"#utility.yul\":2782:2807   */\n      swap1\n      pop\n        /* \"#utility.yul\":2862:2866   */\n      0x20\n        /* \"#utility.yul\":2856:2860   */\n      dup2\n        /* \"#utility.yul\":2852:2867   */\n      add\n        /* \"#utility.yul\":2844:2867   */\n      swap1\n      pop\n        /* \"#utility.yul\":2553:2874   */\n      swap2\n      swap1\n      pop\n      jump\t// out\n        /* \"#utility.yul\":2880:2997   */\n    tag_194:\n        /* \"#utility.yul\":2989:2990   */\n      0x00\n        /* \"#utility.yul\":2986:2987   */\n      dup1\n        /* \"#utility.yul\":2979:2991   */\n      revert\n        /* \"#utility.yul\":3019:3964   */\n    tag_195:\n        /* \"#utility.yul\":3125:3130   */\n      0x00\n        /* \"#utility.yul\":3150:3241   */\n      tag_279\n        /* \"#utility.yul\":3166:3240   */\n      tag_280\n        /* \"#utility.yul\":3233:3239   */\n      dup5\n        /* \"#utility.yul\":3166:3240   */\n      tag_193\n      jump\t// in\n    tag_280:\n        /* \"#utility.yul\":3150:3241   */\n      tag_188\n      jump\t// in\n    tag_279:\n        /* \"#utility.yul\":3141:3241   */\n      swap1\n      pop\n        /* \"#utility.yul\":3261:3266   */\n      dup1\n        /* \"#utility.yul\":3290:3296   */\n      dup4\n        /* \"#utility.yul\":3283:3288   */\n      dup3\n        /* \"#utility.yul\":3276:3297   */\n      mstore\n        /* \"#utility.yul\":3324:3328   */\n      0x20\n        /* \"#utility.yul\":3317:3322   */\n      dup3\n        /* \"#utility.yul\":3313:3329   */\n      add\n        /* \"#utility.yul\":3306:3329   */\n      swap1\n      pop\n        /* \"#utility.yul\":3377:3381   */\n      0x20\n        /* \"#utility.yul\":3369:3375   */\n      dup5\n        /* \"#utility.yul\":3365:3382   */\n      mul\n        /* \"#utility.yul\":3357:3363   */\n      dup4\n        /* \"#utility.yul\":3353:3383   */\n      add\n        /* \"#utility.yul\":3406:3409   */\n      dup6\n        /* \"#utility.yul\":3398:3404   */\n      dup2\n        /* \"#utility.yul\":3395:3410   */\n      gt\n        /* \"#utility.yul\":3392:3514   */\n      iszero\n      tag_281\n      jumpi\n        /* \"#utility.yul\":3425:3504   */\n      tag_282\n      tag_194\n      jump\t// in\n    tag_282:\n        /* \"#utility.yul\":3392:3514   */\n    tag_281:\n        /* \"#utility.yul\":3540:3546   */\n      dup4\n        /* \"#utility.yul\":3523:3958   */\n    tag_283:\n        /* \"#utility.yul\":3557:3563   */\n      dup2\n        /* \"#utility.yul\":3552:3555   */\n      dup2\n        /* \"#utility.yul\":3549:3564   */\n      lt\n        /* \"#utility.yul\":3523:3958   */\n      iszero\n      tag_285\n      jumpi\n        /* \"#utility.yul\":3646:3649   */\n      dup1\n        /* \"#utility.yul\":3633:3650   */\n      calldataload\n        /* \"#utility.yul\":3682:3700   */\n      0xffffffffffffffff\n        /* \"#utility.yul\":3669:3680   */\n      dup2\n        /* \"#utility.yul\":3666:3701   */\n      gt\n        /* \"#utility.yul\":3663:3785   */\n      iszero\n      tag_286\n      jumpi\n        /* \"#utility.yul\":3704:3783   */\n      tag_287\n      tag_183\n      jump\t// in\n    tag_287:\n        /* \"#utility.yul\":3663:3785   */\n    tag_286:\n        /* \"#utility.yul\":3828:3839   */\n      dup1\n        /* \"#utility.yul\":3820:3826   */\n      dup7\n        /* \"#utility.yul\":3816:3840   */\n      add\n        /* \"#utility.yul\":3866:3913   */\n      tag_288\n        /* \"#utility.yul\":3909:3912   */\n      dup10\n        /* \"#utility.yul\":3897:3907   */\n      dup3\n        /* \"#utility.yul\":3866:3913   */\n      tag_192\n      jump\t// in\n    tag_288:\n        /* \"#utility.yul\":3861:3864   */\n      dup6\n        /* \"#utility.yul\":3854:3914   */\n      mstore\n        /* \"#utility.yul\":3943:3947   */\n      0x20\n        /* \"#utility.yul\":3938:3941   */\n      dup6\n        /* \"#utility.yul\":3934:3948   */\n      add\n        /* \"#utility.yul\":3927:3948   */\n      swap5\n      pop\n        /* \"#utility.yul\":3599:3958   */\n      pop\n      pop\n        /* \"#utility.yul\":3583:3587   */\n      0x20\n        /* \"#utility.yul\":3578:3581   */\n      dup2\n        /* \"#utility.yul\":3574:3588   */\n      add\n        /* \"#utility.yul\":3567:3588   */\n      swap1\n      pop\n        /* \"#utility.yul\":3523:3958   */\n      jump(tag_283)\n    tag_285:\n        /* \"#utility.yul\":3527:3548   */\n      pop\n        /* \"#utility.yul\":3131:3964   */\n      pop\n      pop\n        /* \"#utility.yul\":3019:3964   */\n      swap4\n      swap3\n      pop\n      pop\n      pop\n      jump\t// out\n        /* \"#utility.yul\":3986:4376   */\n    tag_196:\n        /* \"#utility.yul\":4067:4072   */\n      0x00\n        /* \"#utility.yul\":4116:4119   */\n      dup3\n        /* \"#utility.yul\":4109:4113   */\n      0x1f\n        /* \"#utility.yul\":4101:4107   */\n      dup4\n        /* \"#utility.yul\":4097:4114   */\n      add\n        /* \"#utility.yul\":4093:4120   */\n      slt\n        /* \"#utility.yul\":4083:4205   */\n      tag_290\n      jumpi\n        /* \"#utility.yul\":4124:4203   */\n      tag_291\n      tag_183\n      jump\t// in\n    tag_291:\n        /* \"#utility.yul\":4083:4205   */\n    tag_290:\n        /* \"#utility.yul\":4241:4247   */\n      dup2\n        /* \"#utility.yul\":4228:4248   */\n      calldataload\n        /* \"#utility.yul\":4266:4370   */\n      tag_292\n        /* \"#utility.yul\":4366:4369   */\n      dup5\n        /* \"#utility.yul\":4358:4364   */\n      dup3\n        /* \"#utility.yul\":4351:4355   */\n      0x20\n        /* \"#utility.yul\":4343:4349   */\n      dup7\n        /* \"#utility.yul\":4339:4356   */\n      add\n        /* \"#utility.yul\":4266:4370   */\n      tag_195\n      jump\t// in\n    tag_292:\n        /* \"#utility.yul\":4257:4370   */\n      swap2\n      pop\n        /* \"#utility.yul\":4073:4376   */\n      pop\n        /* \"#utility.yul\":3986:4376   */\n      swap3\n      swap2\n      pop\n      pop\n      jump\t// out\n        /* \"#utility.yul\":4382:8251   */\n    tag_8:\n        /* \"#utility.yul\":4691:4697   */\n      0x00\n        /* \"#utility.yul\":4699:4705   */\n      dup1\n        /* \"#utility.yul\":4707:4713   */\n      0x00\n        /* \"#utility.yul\":4715:4721   */\n      dup1\n        /* \"#utility.yul\":4723:4729   */\n      0x00\n        /* \"#utility.yul\":4731:4737   */\n      dup1\n        /* \"#utility.yul\":4739:4745   */\n      0x00\n        /* \"#utility.yul\":4747:4753   */\n      dup1\n        /* \"#utility.yul\":4755:4761   */\n      0x00\n        /* \"#utility.yul\":4763:4769   */\n      dup1\n        /* \"#utility.yul\":4771:4778   */\n      0x00\n        /* \"#utility.yul\":4821:4824   */\n      0x0160\n        /* \"#utility.yul\":4809:4818   */\n      dup13\n        /* \"#utility.yul\":4800:4807   */\n      dup15\n        /* \"#utility.yul\":4796:4819   */\n      sub\n        /* \"#utility.yul\":4792:4825   */\n      slt\n        /* \"#utility.yul\":4789:4909   */\n      iszero\n      tag_294\n      jumpi\n        /* \"#utility.yul\":4828:4907   */\n      tag_295\n      tag_181\n      jump\t// in\n    tag_295:\n        /* \"#utility.yul\":4789:4909   */\n    tag_294:\n        /* \"#utility.yul\":4976:4977   */\n      0x00\n        /* \"#utility.yul\":4965:4974   */\n      dup13\n        /* \"#utility.yul\":4961:4978   */\n      add\n        /* \"#utility.yul\":4948:4979   */\n      calldataload\n        /* \"#utility.yul\":5006:5024   */\n      0xffffffffffffffff\n        /* \"#utility.yul\":4998:5004   */\n      dup2\n        /* \"#utility.yul\":4995:5025   */\n      gt\n        /* \"#utility.yul\":4992:5109   */\n      iszero\n      tag_296\n      jumpi\n        /* \"#utility.yul\":5028:5107   */\n      tag_297\n      tag_182\n      jump\t// in\n    tag_297:\n        /* \"#utility.yul\":4992:5109   */\n    tag_296:\n        /* \"#utility.yul\":5133:5196   */\n      tag_298\n        /* \"#utility.yul\":5188:5195   */\n      dup15\n        /* \"#utility.yul\":5179:5185   */\n      dup3\n        /* \"#utility.yul\":5168:5177   */\n      dup16\n        /* \"#utility.yul\":5164:5186   */\n      add\n        /* \"#utility.yul\":5133:5196   */\n      tag_192\n      jump\t// in\n    tag_298:\n        /* \"#utility.yul\":5123:5196   */\n      swap12\n      pop\n        /* \"#utility.yul\":4919:5206   */\n      pop\n        /* \"#utility.yul\":5273:5275   */\n      0x20\n        /* \"#utility.yul\":5262:5271   */\n      dup13\n        /* \"#utility.yul\":5258:5276   */\n      add\n        /* \"#utility.yul\":5245:5277   */\n      calldataload\n        /* \"#utility.yul\":5304:5322   */\n      0xffffffffffffffff\n        /* \"#utility.yul\":5296:5302   */\n      dup2\n        /* \"#utility.yul\":5293:5323   */\n      gt\n        /* \"#utility.yul\":5290:5407   */\n      iszero\n      tag_299\n      jumpi\n        /* \"#utility.yul\":5326:5405   */\n      tag_300\n      tag_182\n      jump\t// in\n    tag_300:\n        /* \"#utility.yul\":5290:5407   */\n    tag_299:\n        /* \"#utility.yul\":5431:5494   */\n      tag_301\n        /* \"#utility.yul\":5486:5493   */\n      dup15\n        /* \"#utility.yul\":5477:5483   */\n      dup3\n        /* \"#utility.yul\":5466:5475   */\n      dup16\n        /* \"#utility.yul\":5462:5484   */\n      add\n        /* \"#utility.yul\":5431:5494   */\n      tag_192\n      jump\t// in\n    tag_301:\n        /* \"#utility.yul\":5421:5494   */\n      swap11\n      pop\n        /* \"#utility.yul\":5216:5504   */\n      pop\n        /* \"#utility.yul\":5571:5573   */\n      0x40\n        /* \"#utility.yul\":5560:5569   */\n      dup13\n        /* \"#utility.yul\":5556:5574   */\n      add\n        /* \"#utility.yul\":5543:5575   */\n      calldataload\n        /* \"#utility.yul\":5602:5620   */\n      0xffffffffffffffff\n        /* \"#utility.yul\":5594:5600   */\n      dup2\n        /* \"#utility.yul\":5591:5621   */\n      gt\n        /* \"#utility.yul\":5588:5705   */\n      iszero\n      tag_302\n      jumpi\n        /* \"#utility.yul\":5624:5703   */\n      tag_303\n      tag_182\n      jump\t// in\n    tag_303:\n        /* \"#utility.yul\":5588:5705   */\n    tag_302:\n        /* \"#utility.yul\":5729:5792   */\n      tag_304\n        /* \"#utility.yul\":5784:5791   */\n      dup15\n        /* \"#utility.yul\":5775:5781   */\n      dup3\n        /* \"#utility.yul\":5764:5773   */\n      dup16\n        /* \"#utility.yul\":5760:5782   */\n      add\n        /* \"#utility.yul\":5729:5792   */\n      tag_192\n      jump\t// in\n    tag_304:\n        /* \"#utility.yul\":5719:5792   */\n      swap10\n      pop\n        /* \"#utility.yul\":5514:5802   */\n      pop\n        /* \"#utility.yul\":5869:5871   */\n      0x60\n        /* \"#utility.yul\":5858:5867   */\n      dup13\n        /* \"#utility.yul\":5854:5872   */\n      add\n        /* \"#utility.yul\":5841:5873   */\n      calldataload\n        /* \"#utility.yul\":5900:5918   */\n      0xffffffffffffffff\n        /* \"#utility.yul\":5892:5898   */\n      dup2\n        /* \"#utility.yul\":5889:5919   */\n      gt\n        /* \"#utility.yul\":5886:6003   */\n      iszero\n      tag_305\n      jumpi\n        /* \"#utility.yul\":5922:6001   */\n      tag_306\n      tag_182\n      jump\t// in\n    tag_306:\n        /* \"#utility.yul\":5886:6003   */\n    tag_305:\n        /* \"#utility.yul\":6027:6090   */\n      tag_307\n        /* \"#utility.yul\":6082:6089   */\n      dup15\n        /* \"#utility.yul\":6073:6079   */\n      dup3\n        /* \"#utility.yul\":6062:6071   */\n      dup16\n        /* \"#utility.yul\":6058:6080   */\n      add\n        /* \"#utility.yul\":6027:6090   */\n      tag_192\n      jump\t// in\n    tag_307:\n        /* \"#utility.yul\":6017:6090   */\n      swap9\n      pop\n        /* \"#utility.yul\":5812:6100   */\n      pop\n        /* \"#utility.yul\":6167:6170   */\n      0x80\n        /* \"#utility.yul\":6156:6165   */\n      dup13\n        /* \"#utility.yul\":6152:6171   */\n      add\n        /* \"#utility.yul\":6139:6172   */\n      calldataload\n        /* \"#utility.yul\":6199:6217   */\n      0xffffffffffffffff\n        /* \"#utility.yul\":6191:6197   */\n      dup2\n        /* \"#utility.yul\":6188:6218   */\n      gt\n        /* \"#utility.yul\":6185:6302   */\n      iszero\n      tag_308\n      jumpi\n        /* \"#utility.yul\":6221:6300   */\n      tag_309\n      tag_182\n      jump\t// in\n    tag_309:\n        /* \"#utility.yul\":6185:6302   */\n    tag_308:\n        /* \"#utility.yul\":6326:6389   */\n      tag_310\n        /* \"#utility.yul\":6381:6388   */\n      dup15\n        /* \"#utility.yul\":6372:6378   */\n      dup3\n        /* \"#utility.yul\":6361:6370   */\n      dup16\n        /* \"#utility.yul\":6357:6379   */\n      add\n        /* \"#utility.yul\":6326:6389   */\n      tag_192\n      jump\t// in\n    tag_310:\n        /* \"#utility.yul\":6316:6389   */\n      swap8\n      pop\n        /* \"#utility.yul\":6110:6399   */\n      pop\n        /* \"#utility.yul\":6466:6469   */\n      0xa0\n        /* \"#utility.yul\":6455:6464   */\n      dup13\n        /* \"#utility.yul\":6451:6470   */\n      add\n        /* \"#utility.yul\":6438:6471   */\n      calldataload\n        /* \"#utility.yul\":6498:6516   */\n      0xffffffffffffffff\n        /* \"#utility.yul\":6490:6496   */\n      dup2\n        /* \"#utility.yul\":6487:6517   */\n      gt\n        /* \"#utility.yul\":6484:6601   */\n      iszero\n      tag_311\n      jumpi\n        /* \"#utility.yul\":6520:6599   */\n      tag_312\n      tag_182\n      jump\t// in\n    tag_312:\n        /* \"#utility.yul\":6484:6601   */\n    tag_311:\n        /* \"#utility.yul\":6625:6688   */\n      tag_313\n        /* \"#utility.yul\":6680:6687   */\n      dup15\n        /* \"#utility.yul\":6671:6677   */\n      dup3\n        /* \"#utility.yul\":6660:6669   */\n      dup16\n        /* \"#utility.yul\":6656:6678   */\n      add\n        /* \"#utility.yul\":6625:6688   */\n      tag_192\n      jump\t// in\n    tag_313:\n        /* \"#utility.yul\":6615:6688   */\n      swap7\n      pop\n        /* \"#utility.yul\":6409:6698   */\n      pop\n        /* \"#utility.yul\":6765:6768   */\n      0xc0\n        /* \"#utility.yul\":6754:6763   */\n      dup13\n        /* \"#utility.yul\":6750:6769   */\n      add\n        /* \"#utility.yul\":6737:6770   */\n      calldataload\n        /* \"#utility.yul\":6797:6815   */\n      0xffffffffffffffff\n        /* \"#utility.yul\":6789:6795   */\n      dup2\n        /* \"#utility.yul\":6786:6816   */\n      gt\n        /* \"#utility.yul\":6783:6900   */\n      iszero\n      tag_314\n      jumpi\n        /* \"#utility.yul\":6819:6898   */\n      tag_315\n      tag_182\n      jump\t// in\n    tag_315:\n        /* \"#utility.yul\":6783:6900   */\n    tag_314:\n        /* \"#utility.yul\":6924:6987   */\n      tag_316\n        /* \"#utility.yul\":6979:6986   */\n      dup15\n        /* \"#utility.yul\":6970:6976   */\n      dup3\n        /* \"#utility.yul\":6959:6968   */\n      dup16\n        /* \"#utility.yul\":6955:6977   */\n      add\n        /* \"#utility.yul\":6924:6987   */\n      tag_192\n      jump\t// in\n    tag_316:\n        /* \"#utility.yul\":6914:6987   */\n      swap6\n      pop\n        /* \"#utility.yul\":6708:6997   */\n      pop\n        /* \"#utility.yul\":7064:7067   */\n      0xe0\n        /* \"#utility.yul\":7053:7062   */\n      dup13\n        /* \"#utility.yul\":7049:7068   */\n      add\n        /* \"#utility.yul\":7036:7069   */\n      calldataload\n        /* \"#utility.yul\":7096:7114   */\n      0xffffffffffffffff\n        /* \"#utility.yul\":7088:7094   */\n      dup2\n        /* \"#utility.yul\":7085:7115   */\n      gt\n        /* \"#utility.yul\":7082:7199   */\n      iszero\n      tag_317\n      jumpi\n        /* \"#utility.yul\":7118:7197   */\n      tag_318\n      tag_182\n      jump\t// in\n    tag_318:\n        /* \"#utility.yul\":7082:7199   */\n    tag_317:\n        /* \"#utility.yul\":7223:7286   */\n      tag_319\n        /* \"#utility.yul\":7278:7285   */\n      dup15\n        /* \"#utility.yul\":7269:7275   */\n      dup3\n        /* \"#utility.yul\":7258:7267   */\n      dup16\n        /* \"#utility.yul\":7254:7276   */\n      add\n        /* \"#utility.yul\":7223:7286   */\n      tag_192\n      jump\t// in\n    tag_319:\n        /* \"#utility.yul\":7213:7286   */\n      swap5\n      pop\n        /* \"#utility.yul\":7007:7296   */\n      pop\n        /* \"#utility.yul\":7363:7366   */\n      0x0100\n        /* \"#utility.yul\":7352:7361   */\n      dup13\n        /* \"#utility.yul\":7348:7367   */\n      add\n        /* \"#utility.yul\":7335:7368   */\n      calldataload\n        /* \"#utility.yul\":7395:7413   */\n      0xffffffffffffffff\n        /* \"#utility.yul\":7387:7393   */\n      dup2\n        /* \"#utility.yul\":7384:7414   */\n      gt\n        /* \"#utility.yul\":7381:7498   */\n      iszero\n      tag_320\n      jumpi\n        /* \"#utility.yul\":7417:7496   */\n      tag_321\n      tag_182\n      jump\t// in\n    tag_321:\n        /* \"#utility.yul\":7381:7498   */\n    tag_320:\n        /* \"#utility.yul\":7522:7585   */\n      tag_322\n        /* \"#utility.yul\":7577:7584   */\n      dup15\n        /* \"#utility.yul\":7568:7574   */\n      dup3\n        /* \"#utility.yul\":7557:7566   */\n      dup16\n        /* \"#utility.yul\":7553:7575   */\n      add\n        /* \"#utility.yul\":7522:7585   */\n      tag_192\n      jump\t// in\n    tag_322:\n        /* \"#utility.yul\":7512:7585   */\n      swap4\n      pop\n        /* \"#utility.yul\":7306:7595   */\n      pop\n        /* \"#utility.yul\":7662:7665   */\n      0x0120\n        /* \"#utility.yul\":7651:7660   */\n      dup13\n        /* \"#utility.yul\":7647:7666   */\n      add\n        /* \"#utility.yul\":7634:7667   */\n      calldataload\n        /* \"#utility.yul\":7694:7712   */\n      0xffffffffffffffff\n        /* \"#utility.yul\":7686:7692   */\n      dup2\n        /* \"#utility.yul\":7683:7713   */\n      gt\n        /* \"#utility.yul\":7680:7797   */\n      iszero\n      tag_323\n      jumpi\n        /* \"#utility.yul\":7716:7795   */\n      tag_324\n      tag_182\n      jump\t// in\n    tag_324:\n        /* \"#utility.yul\":7680:7797   */\n    tag_323:\n        /* \"#utility.yul\":7821:7909   */\n      tag_325\n        /* \"#utility.yul\":7901:7908   */\n      dup15\n        /* \"#utility.yul\":7892:7898   */\n      dup3\n        /* \"#utility.yul\":7881:7890   */\n      dup16\n        /* \"#utility.yul\":7877:7899   */\n      add\n        /* \"#utility.yul\":7821:7909   */\n      tag_196\n      jump\t// in\n    tag_325:\n        /* \"#utility.yul\":7811:7909   */\n      swap3\n      pop\n        /* \"#utility.yul\":7605:7919   */\n      pop\n        /* \"#utility.yul\":7986:7989   */\n      0x0140\n        /* \"#utility.yul\":7975:7984   */\n      dup13\n        /* \"#utility.yul\":7971:7990   */\n      add\n        /* \"#utility.yul\":7958:7991   */\n      calldataload\n        /* \"#utility.yul\":8018:8036   */\n      0xffffffffffffffff\n        /* \"#utility.yul\":8010:8016   */\n      dup2\n        /* \"#utility.yul\":8007:8037   */\n      gt\n        /* \"#utility.yul\":8004:8121   */\n      iszero\n      tag_326\n      jumpi\n        /* \"#utility.yul\":8040:8119   */\n      tag_327\n      tag_182\n      jump\t// in\n    tag_327:\n        /* \"#utility.yul\":8004:8121   */\n    tag_326:\n        /* \"#utility.yul\":8146:8234   */\n      tag_328\n        /* \"#utility.yul\":8226:8233   */\n      dup15\n        /* \"#utility.yul\":8217:8223   */\n      dup3\n        /* \"#utility.yul\":8206:8215   */\n      dup16\n        /* \"#utility.yul\":8202:8224   */\n      add\n        /* \"#utility.yul\":8146:8234   */\n      tag_196\n      jump\t// in\n    tag_328:\n        /* \"#utility.yul\":8135:8234   */\n      swap2\n      pop\n        /* \"#utility.yul\":7929:8244   */\n      pop\n        /* \"#utility.yul\":4382:8251   */\n      swap3\n      swap6\n      swap9\n      swap12\n      pop\n      swap3\n      swap6\n      swap9\n      swap12\n      swap1\n      swap4\n      swap7\n      swap10\n      pop\n      jump\t// out\n        /* \"#utility.yul\":8257:8334   */\n    tag_197:\n        /* \"#utility.yul\":8294:8301   */\n      0x00\n        /* \"#utility.yul\":8323:8328   */\n      dup2\n        /* \"#utility.yul\":8312:8328   */\n      swap1\n      pop\n        /* \"#utility.yul\":8257:8334   */\n      swap2\n      swap1\n      pop\n      jump\t// out\n        /* \"#utility.yul\":8340:8458   */\n    tag_198:\n        /* \"#utility.yul\":8427:8451   */\n      tag_331\n        /* \"#utility.yul\":8445:8450   */\n      dup2\n        /* \"#utility.yul\":8427:8451   */\n      tag_197\n      jump\t// in\n    tag_331:\n        /* \"#utility.yul\":8422:8425   */\n      dup3\n        /* \"#utility.yul\":8415:8452   */\n      mstore\n        /* \"#utility.yul\":8340:8458   */\n      pop\n      pop\n      jump\t// out\n        /* \"#utility.yul\":8464:8686   */\n    tag_11:\n        /* \"#utility.yul\":8557:8561   */\n      0x00\n        /* \"#utility.yul\":8595:8597   */\n      0x20\n        /* \"#utility.yul\":8584:8593   */\n      dup3\n        /* \"#utility.yul\":8580:8598   */\n      add\n        /* \"#utility.yul\":8572:8598   */\n      swap1\n      pop\n        /* \"#utility.yul\":8608:8679   */\n      tag_333\n        /* \"#utility.yul\":8676:8677   */\n      0x00\n        /* \"#utility.yul\":8665:8674   */\n      dup4\n        /* \"#utility.yul\":8661:8678   */\n      add\n        /* \"#utility.yul\":8652:8658   */\n      dup5\n        /* \"#utility.yul\":8608:8679   */\n      tag_198\n      jump\t// in\n    tag_333:\n        /* \"#utility.yul\":8464:8686   */\n      swap3\n      swap2\n      pop\n      pop\n      jump\t// out\n        /* \"#utility.yul\":8692:8814   */\n    tag_199:\n        /* \"#utility.yul\":8765:8789   */\n      tag_335\n        /* \"#utility.yul\":8783:8788   */\n      dup2\n        /* \"#utility.yul\":8765:8789   */\n      tag_197\n      jump\t// in\n    tag_335:\n        /* \"#utility.yul\":8758:8763   */\n      dup2\n        /* \"#utility.yul\":8755:8790   */\n      eq\n        /* \"#utility.yul\":8745:8808   */\n      tag_336\n      jumpi\n        /* \"#utility.yul\":8804:8805   */\n      0x00\n        /* \"#utility.yul\":8801:8802   */\n      dup1\n        /* \"#utility.yul\":8794:8806   */\n      revert\n        /* \"#utility.yul\":8745:8808   */\n    tag_336:\n        /* \"#utility.yul\":8692:8814   */\n      pop\n      jump\t// out\n        /* \"#utility.yul\":8820:8959   */\n    tag_200:\n        /* \"#utility.yul\":8866:8871   */\n      0x00\n        /* \"#utility.yul\":8904:8910   */\n      dup2\n        /* \"#utility.yul\":8891:8911   */\n      calldataload\n        /* \"#utility.yul\":8882:8911   */\n      swap1\n      pop\n        /* \"#utility.yul\":8920:8953   */\n      tag_338\n        /* \"#utility.yul\":8947:8952   */\n      dup2\n        /* \"#utility.yul\":8920:8953   */\n      tag_199\n      jump\t// in\n    tag_338:\n        /* \"#utility.yul\":8820:8959   */\n      swap3\n      swap2\n      pop\n      pop\n      jump\t// out\n        /* \"#utility.yul\":8965:10270   */\n    tag_14:\n        /* \"#utility.yul\":9081:9087   */\n      0x00\n        /* \"#utility.yul\":9089:9095   */\n      dup1\n        /* \"#utility.yul\":9097:9103   */\n      0x00\n        /* \"#utility.yul\":9105:9111   */\n      dup1\n        /* \"#utility.yul\":9154:9157   */\n      0x80\n        /* \"#utility.yul\":9142:9151   */\n      dup6\n        /* \"#utility.yul\":9133:9140   */\n      dup8\n        /* \"#utility.yul\":9129:9152   */\n      sub\n        /* \"#utility.yul\":9125:9158   */\n      slt\n        /* \"#utility.yul\":9122:9242   */\n      iszero\n      tag_340\n      jumpi\n        /* \"#utility.yul\":9161:9240   */\n      tag_341\n      tag_181\n      jump\t// in\n    tag_341:\n        /* \"#utility.yul\":9122:9242   */\n    tag_340:\n        /* \"#utility.yul\":9281:9282   */\n      0x00\n        /* \"#utility.yul\":9306:9359   */\n      tag_342\n        /* \"#utility.yul\":9351:9358   */\n      dup8\n        /* \"#utility.yul\":9342:9348   */\n      dup3\n        /* \"#utility.yul\":9331:9340   */\n      dup9\n        /* \"#utility.yul\":9327:9349   */\n      add\n        /* \"#utility.yul\":9306:9359   */\n      tag_200\n      jump\t// in\n    tag_342:\n        /* \"#utility.yul\":9296:9359   */\n      swap5\n      pop\n        /* \"#utility.yul\":9252:9369   */\n      pop\n        /* \"#utility.yul\":9436:9438   */\n      0x20\n        /* \"#utility.yul\":9425:9434   */\n      dup6\n        /* \"#utility.yul\":9421:9439   */\n      add\n        /* \"#utility.yul\":9408:9440   */\n      calldataload\n        /* \"#utility.yul\":9467:9485   */\n      0xffffffffffffffff\n        /* \"#utility.yul\":9459:9465   */\n      dup2\n        /* \"#utility.yul\":9456:9486   */\n      gt\n        /* \"#utility.yul\":9453:9570   */\n      iszero\n      tag_343\n      jumpi\n        /* \"#utility.yul\":9489:9568   */\n      tag_344\n      tag_182\n      jump\t// in\n    tag_344:\n        /* \"#utility.yul\":9453:9570   */\n    tag_343:\n        /* \"#utility.yul\":9594:9657   */\n      tag_345\n        /* \"#utility.yul\":9649:9656   */\n      dup8\n        /* \"#utility.yul\":9640:9646   */\n      dup3\n        /* \"#utility.yul\":9629:9638   */\n      dup9\n        /* \"#utility.yul\":9625:9647   */\n      add\n        /* \"#utility.yul\":9594:9657   */\n      tag_192\n      jump\t// in\n    tag_345:\n        /* \"#utility.yul\":9584:9657   */\n      swap4\n      pop\n        /* \"#utility.yul\":9379:9667   */\n      pop\n        /* \"#utility.yul\":9734:9736   */\n      0x40\n        /* \"#utility.yul\":9723:9732   */\n      dup6\n        /* \"#utility.yul\":9719:9737   */\n      add\n        /* \"#utility.yul\":9706:9738   */\n      calldataload\n        /* \"#utility.yul\":9765:9783   */\n      0xffffffffffffffff\n        /* \"#utility.yul\":9757:9763   */\n      dup2\n        /* \"#utility.yul\":9754:9784   */\n      gt\n        /* \"#utility.yul\":9751:9868   */\n      iszero\n      tag_346\n      jumpi\n        /* \"#utility.yul\":9787:9866   */\n      tag_347\n      tag_182\n      jump\t// in\n    tag_347:\n        /* \"#utility.yul\":9751:9868   */\n    tag_346:\n        /* \"#utility.yul\":9892:9955   */\n      tag_348\n        /* \"#utility.yul\":9947:9954   */\n      dup8\n        /* \"#utility.yul\":9938:9944   */\n      dup3\n        /* \"#utility.yul\":9927:9936   */\n      dup9\n        /* \"#utility.yul\":9923:9945   */\n      add\n        /* \"#utility.yul\":9892:9955   */\n      tag_192\n      jump\t// in\n    tag_348:\n        /* \"#utility.yul\":9882:9955   */\n      swap3\n      pop\n        /* \"#utility.yul\":9677:9965   */\n      pop\n        /* \"#utility.yul\":10032:10034   */\n      0x60\n        /* \"#utility.yul\":10021:10030   */\n      dup6\n        /* \"#utility.yul\":10017:10035   */\n      add\n        /* \"#utility.yul\":10004:10036   */\n      calldataload\n        /* \"#utility.yul\":10063:10081   */\n      0xffffffffffffffff\n        /* \"#utility.yul\":10055:10061   */\n      dup2\n        /* \"#utility.yul\":10052:10082   */\n      gt\n        /* \"#utility.yul\":10049:10166   */\n      iszero\n      tag_349\n      jumpi\n        /* \"#utility.yul\":10085:10164   */\n      tag_350\n      tag_182\n      jump\t// in\n    tag_350:\n        /* \"#utility.yul\":10049:10166   */\n    tag_349:\n        /* \"#utility.yul\":10190:10253   */\n      tag_351\n        /* \"#utility.yul\":10245:10252   */\n      dup8\n        /* \"#utility.yul\":10236:10242   */\n      dup3\n        /* \"#utility.yul\":10225:10234   */\n      dup9\n        /* \"#utility.yul\":10221:10243   */\n      add\n        /* \"#utility.yul\":10190:10253   */\n      tag_192\n      jump\t// in\n    tag_351:\n        /* \"#utility.yul\":10180:10253   */\n      swap2\n      pop\n        /* \"#utility.yul\":9975:10263   */\n      pop\n        /* \"#utility.yul\":8965:10270   */\n      swap3\n      swap6\n      swap2\n      swap5\n      pop\n      swap3\n      pop\n      jump\t// out\n        /* \"#utility.yul\":10276:10605   */\n    tag_19:\n        /* \"#utility.yul\":10335:10341   */\n      0x00\n        /* \"#utility.yul\":10384:10386   */\n      0x20\n        /* \"#utility.yul\":10372:10381   */\n      dup3\n        /* \"#utility.yul\":10363:10370   */\n      dup5\n        /* \"#utility.yul\":10359:10382   */\n      sub\n        /* \"#utility.yul\":10355:10387   */\n      slt\n        /* \"#utility.yul\":10352:10471   */\n      iszero\n      tag_353\n      jumpi\n        /* \"#utility.yul\":10390:10469   */\n      tag_354\n      tag_181\n      jump\t// in\n    tag_354:\n        /* \"#utility.yul\":10352:10471   */\n    tag_353:\n        /* \"#utility.yul\":10510:10511   */\n      0x00\n        /* \"#utility.yul\":10535:10588   */\n      tag_355\n        /* \"#utility.yul\":10580:10587   */\n      dup5\n        /* \"#utility.yul\":10571:10577   */\n      dup3\n        /* \"#utility.yul\":10560:10569   */\n      dup6\n        /* \"#utility.yul\":10556:10578   */\n      add\n        /* \"#utility.yul\":10535:10588   */\n      tag_200\n      jump\t// in\n    tag_355:\n        /* \"#utility.yul\":10525:10588   */\n      swap2\n      pop\n        /* \"#utility.yul\":10481:10598   */\n      pop\n        /* \"#utility.yul\":10276:10605   */\n      swap3\n      swap2\n      pop\n      pop\n      jump\t// out\n        /* \"#utility.yul\":10611:10710   */\n    tag_201:\n        /* \"#utility.yul\":10663:10669   */\n      0x00\n        /* \"#utility.yul\":10697:10702   */\n      dup2\n        /* \"#utility.yul\":10691:10703   */\n      mload\n        /* \"#utility.yul\":10681:10703   */\n      swap1\n      pop\n        /* \"#utility.yul\":10611:10710   */\n      swap2\n      swap1\n      pop\n      jump\t// out\n        /* \"#utility.yul\":10716:10875   */\n    tag_202:\n        /* \"#utility.yul\":10790:10801   */\n      0x00\n        /* \"#utility.yul\":10824:10830   */\n      dup3\n        /* \"#utility.yul\":10819:10822   */\n      dup3\n        /* \"#utility.yul\":10812:10831   */\n      mstore\n        /* \"#utility.yul\":10864:10868   */\n      0x20\n        /* \"#utility.yul\":10859:10862   */\n      dup3\n        /* \"#utility.yul\":10855:10869   */\n      add\n        /* \"#utility.yul\":10840:10869   */\n      swap1\n      pop\n        /* \"#utility.yul\":10716:10875   */\n      swap3\n      swap2\n      pop\n      pop\n      jump\t// out\n        /* \"#utility.yul\":10881:11127   */\n    tag_203:\n        /* \"#utility.yul\":10962:10963   */\n      0x00\n        /* \"#utility.yul\":10972:11085   */\n    tag_359:\n        /* \"#utility.yul\":10986:10992   */\n      dup4\n        /* \"#utility.yul\":10983:10984   */\n      dup2\n        /* \"#utility.yul\":10980:10993   */\n      lt\n        /* \"#utility.yul\":10972:11085   */\n      iszero\n      tag_361\n      jumpi\n        /* \"#utility.yul\":11071:11072   */\n      dup1\n        /* \"#utility.yul\":11066:11069   */\n      dup3\n        /* \"#utility.yul\":11062:11073   */\n      add\n        /* \"#utility.yul\":11056:11074   */\n      mload\n        /* \"#utility.yul\":11052:11053   */\n      dup2\n        /* \"#utility.yul\":11047:11050   */\n      dup5\n        /* \"#utility.yul\":11043:11054   */\n      add\n        /* \"#utility.yul\":11036:11075   */\n      mstore\n        /* \"#utility.yul\":11008:11010   */\n      0x20\n        /* \"#utility.yul\":11005:11006   */\n      dup2\n        /* \"#utility.yul\":11001:11011   */\n      add\n        /* \"#utility.yul\":10996:11011   */\n      swap1\n      pop\n        /* \"#utility.yul\":10972:11085   */\n      jump(tag_359)\n    tag_361:\n        /* \"#utility.yul\":11119:11120   */\n      0x00\n        /* \"#utility.yul\":11110:11116   */\n      dup5\n        /* \"#utility.yul\":11105:11108   */\n      dup5\n        /* \"#utility.yul\":11101:11117   */\n      add\n        /* \"#utility.yul\":11094:11121   */\n      mstore\n        /* \"#utility.yul\":10943:11127   */\n      pop\n        /* \"#utility.yul\":10881:11127   */\n      pop\n      pop\n      pop\n      jump\t// out\n        /* \"#utility.yul\":11133:11490   */\n    tag_204:\n        /* \"#utility.yul\":11211:11214   */\n      0x00\n        /* \"#utility.yul\":11239:11278   */\n      tag_363\n        /* \"#utility.yul\":11272:11277   */\n      dup3\n        /* \"#utility.yul\":11239:11278   */\n      tag_201\n      jump\t// in\n    tag_363:\n        /* \"#utility.yul\":11294:11355   */\n      tag_364\n        /* \"#utility.yul\":11348:11354   */\n      dup2\n        /* \"#utility.yul\":11343:11346   */\n      dup6\n        /* \"#utility.yul\":11294:11355   */\n      tag_202\n      jump\t// in\n    tag_364:\n        /* \"#utility.yul\":11287:11355   */\n      swap4\n      pop\n        /* \"#utility.yul\":11364:11429   */\n      tag_365\n        /* \"#utility.yul\":11422:11428   */\n      dup2\n        /* \"#utility.yul\":11417:11420   */\n      dup6\n        /* \"#utility.yul\":11410:11414   */\n      0x20\n        /* \"#utility.yul\":11403:11408   */\n      dup7\n        /* \"#utility.yul\":11399:11415   */\n      add\n        /* \"#utility.yul\":11364:11429   */\n      tag_203\n      jump\t// in\n    tag_365:\n        /* \"#utility.yul\":11454:11483   */\n      tag_366\n        /* \"#utility.yul\":11476:11482   */\n      dup2\n        /* \"#utility.yul\":11454:11483   */\n      tag_185\n      jump\t// in\n    tag_366:\n        /* \"#utility.yul\":11449:11452   */\n      dup5\n        /* \"#utility.yul\":11445:11484   */\n      add\n        /* \"#utility.yul\":11438:11484   */\n      swap2\n      pop\n        /* \"#utility.yul\":11215:11490   */\n      pop\n        /* \"#utility.yul\":11133:11490   */\n      swap3\n      swap2\n      pop\n      pop\n      jump\t// out\n        /* \"#utility.yul\":11590:12528   */\n    tag_205:\n        /* \"#utility.yul\":11705:11708   */\n      0x00\n        /* \"#utility.yul\":11741:11745   */\n      0x60\n        /* \"#utility.yul\":11736:11739   */\n      dup4\n        /* \"#utility.yul\":11732:11746   */\n      add\n        /* \"#utility.yul\":11832:11836   */\n      0x00\n        /* \"#utility.yul\":11825:11830   */\n      dup4\n        /* \"#utility.yul\":11821:11837   */\n      add\n        /* \"#utility.yul\":11815:11838   */\n      mload\n        /* \"#utility.yul\":11885:11888   */\n      dup5\n        /* \"#utility.yul\":11879:11883   */\n      dup3\n        /* \"#utility.yul\":11875:11889   */\n      sub\n        /* \"#utility.yul\":11868:11872   */\n      0x00\n        /* \"#utility.yul\":11863:11866   */\n      dup7\n        /* \"#utility.yul\":11859:11873   */\n      add\n        /* \"#utility.yul\":11852:11890   */\n      mstore\n        /* \"#utility.yul\":11911:11984   */\n      tag_368\n        /* \"#utility.yul\":11979:11983   */\n      dup3\n        /* \"#utility.yul\":11965:11977   */\n      dup3\n        /* \"#utility.yul\":11911:11984   */\n      tag_204\n      jump\t// in\n    tag_368:\n        /* \"#utility.yul\":11903:11984   */\n      swap2\n      pop\n        /* \"#utility.yul\":11756:11995   */\n      pop\n        /* \"#utility.yul\":12083:12087   */\n      0x20\n        /* \"#utility.yul\":12076:12081   */\n      dup4\n        /* \"#utility.yul\":12072:12088   */\n      add\n        /* \"#utility.yul\":12066:12089   */\n      mload\n        /* \"#utility.yul\":12136:12139   */\n      dup5\n        /* \"#utility.yul\":12130:12134   */\n      dup3\n        /* \"#utility.yul\":12126:12140   */\n      sub\n        /* \"#utility.yul\":12119:12123   */\n      0x20\n        /* \"#utility.yul\":12114:12117   */\n      dup7\n        /* \"#utility.yul\":12110:12124   */\n      add\n        /* \"#utility.yul\":12103:12141   */\n      mstore\n        /* \"#utility.yul\":12162:12235   */\n      tag_369\n        /* \"#utility.yul\":12230:12234   */\n      dup3\n        /* \"#utility.yul\":12216:12228   */\n      dup3\n        /* \"#utility.yul\":12162:12235   */\n      tag_204\n      jump\t// in\n    tag_369:\n        /* \"#utility.yul\":12154:12235   */\n      swap2\n      pop\n        /* \"#utility.yul\":12005:12246   */\n      pop\n        /* \"#utility.yul\":12338:12342   */\n      0x40\n        /* \"#utility.yul\":12331:12336   */\n      dup4\n        /* \"#utility.yul\":12327:12343   */\n      add\n        /* \"#utility.yul\":12321:12344   */\n      mload\n        /* \"#utility.yul\":12391:12394   */\n      dup5\n        /* \"#utility.yul\":12385:12389   */\n      dup3\n        /* \"#utility.yul\":12381:12395   */\n      sub\n        /* \"#utility.yul\":12374:12378   */\n      0x40\n        /* \"#utility.yul\":12369:12372   */\n      dup7\n        /* \"#utility.yul\":12365:12379   */\n      add\n        /* \"#utility.yul\":12358:12396   */\n      mstore\n        /* \"#utility.yul\":12417:12490   */\n      tag_370\n        /* \"#utility.yul\":12485:12489   */\n      dup3\n        /* \"#utility.yul\":12471:12483   */\n      dup3\n        /* \"#utility.yul\":12417:12490   */\n      tag_204\n      jump\t// in\n    tag_370:\n        /* \"#utility.yul\":12409:12490   */\n      swap2\n      pop\n        /* \"#utility.yul\":12256:12501   */\n      pop\n        /* \"#utility.yul\":12518:12522   */\n      dup1\n        /* \"#utility.yul\":12511:12522   */\n      swap2\n      pop\n        /* \"#utility.yul\":11710:12528   */\n      pop\n        /* \"#utility.yul\":11590:12528   */\n      swap3\n      swap2\n      pop\n      pop\n      jump\t// out\n        /* \"#utility.yul\":12534:12658   */\n    tag_206:\n        /* \"#utility.yul\":12611:12617   */\n      0x00\n        /* \"#utility.yul\":12645:12650   */\n      dup2\n        /* \"#utility.yul\":12639:12651   */\n      mload\n        /* \"#utility.yul\":12629:12651   */\n      swap1\n      pop\n        /* \"#utility.yul\":12534:12658   */\n      swap2\n      swap1\n      pop\n      jump\t// out\n        /* \"#utility.yul\":12664:12848   */\n    tag_207:\n        /* \"#utility.yul\":12763:12774   */\n      0x00\n        /* \"#utility.yul\":12797:12803   */\n      dup3\n        /* \"#utility.yul\":12792:12795   */\n      dup3\n        /* \"#utility.yul\":12785:12804   */\n      mstore\n        /* \"#utility.yul\":12837:12841   */\n      0x20\n        /* \"#utility.yul\":12832:12835   */\n      dup3\n        /* \"#utility.yul\":12828:12842   */\n      add\n        /* \"#utility.yul\":12813:12842   */\n      swap1\n      pop\n        /* \"#utility.yul\":12664:12848   */\n      swap3\n      swap2\n      pop\n      pop\n      jump\t// out\n        /* \"#utility.yul\":12854:12996   */\n    tag_208:\n        /* \"#utility.yul\":12931:12935   */\n      0x00\n        /* \"#utility.yul\":12954:12957   */\n      dup2\n        /* \"#utility.yul\":12946:12957   */\n      swap1\n      pop\n        /* \"#utility.yul\":12984:12988   */\n      0x20\n        /* \"#utility.yul\":12979:12982   */\n      dup3\n        /* \"#utility.yul\":12975:12989   */\n      add\n        /* \"#utility.yul\":12967:12989   */\n      swap1\n      pop\n        /* \"#utility.yul\":12854:12996   */\n      swap2\n      swap1\n      pop\n      jump\t// out\n        /* \"#utility.yul\":13002:13198   */\n    tag_209:\n        /* \"#utility.yul\":13091:13101   */\n      0x00\n        /* \"#utility.yul\":13126:13192   */\n      tag_375\n        /* \"#utility.yul\":13188:13191   */\n      dup4\n        /* \"#utility.yul\":13180:13186   */\n      dup4\n        /* \"#utility.yul\":13126:13192   */\n      tag_204\n      jump\t// in\n    tag_375:\n        /* \"#utility.yul\":13112:13192   */\n      swap1\n      pop\n        /* \"#utility.yul\":13002:13198   */\n      swap3\n      swap2\n      pop\n      pop\n      jump\t// out\n        /* \"#utility.yul\":13204:13327   */\n    tag_210:\n        /* \"#utility.yul\":13284:13288   */\n      0x00\n        /* \"#utility.yul\":13316:13320   */\n      0x20\n        /* \"#utility.yul\":13311:13314   */\n      dup3\n        /* \"#utility.yul\":13307:13321   */\n      add\n        /* \"#utility.yul\":13299:13321   */\n      swap1\n      pop\n        /* \"#utility.yul\":13204:13327   */\n      swap2\n      swap1\n      pop\n      jump\t// out\n        /* \"#utility.yul\":13361:14332   */\n    tag_211:\n        /* \"#utility.yul\":13490:13493   */\n      0x00\n        /* \"#utility.yul\":13519:13583   */\n      tag_378\n        /* \"#utility.yul\":13577:13582   */\n      dup3\n        /* \"#utility.yul\":13519:13583   */\n      tag_206\n      jump\t// in\n    tag_378:\n        /* \"#utility.yul\":13599:13685   */\n      tag_379\n        /* \"#utility.yul\":13678:13684   */\n      dup2\n        /* \"#utility.yul\":13673:13676   */\n      dup6\n        /* \"#utility.yul\":13599:13685   */\n      tag_207\n      jump\t// in\n    tag_379:\n        /* \"#utility.yul\":13592:13685   */\n      swap4\n      pop\n        /* \"#utility.yul\":13711:13714   */\n      dup4\n        /* \"#utility.yul\":13756:13760   */\n      0x20\n        /* \"#utility.yul\":13748:13754   */\n      dup3\n        /* \"#utility.yul\":13744:13761   */\n      mul\n        /* \"#utility.yul\":13739:13742   */\n      dup6\n        /* \"#utility.yul\":13735:13762   */\n      add\n        /* \"#utility.yul\":13786:13852   */\n      tag_380\n        /* \"#utility.yul\":13846:13851   */\n      dup6\n        /* \"#utility.yul\":13786:13852   */\n      tag_208\n      jump\t// in\n    tag_380:\n        /* \"#utility.yul\":13875:13882   */\n      dup1\n        /* \"#utility.yul\":13906:13907   */\n      0x00\n        /* \"#utility.yul\":13891:14287   */\n    tag_381:\n        /* \"#utility.yul\":13916:13922   */\n      dup6\n        /* \"#utility.yul\":13913:13914   */\n      dup2\n        /* \"#utility.yul\":13910:13923   */\n      lt\n        /* \"#utility.yul\":13891:14287   */\n      iszero\n      tag_383\n      jumpi\n        /* \"#utility.yul\":13987:13996   */\n      dup5\n        /* \"#utility.yul\":13981:13985   */\n      dup5\n        /* \"#utility.yul\":13977:13997   */\n      sub\n        /* \"#utility.yul\":13972:13975   */\n      dup10\n        /* \"#utility.yul\":13965:13998   */\n      mstore\n        /* \"#utility.yul\":14038:14044   */\n      dup2\n        /* \"#utility.yul\":14032:14045   */\n      mload\n        /* \"#utility.yul\":14066:14150   */\n      tag_384\n        /* \"#utility.yul\":14145:14149   */\n      dup6\n        /* \"#utility.yul\":14130:14143   */\n      dup3\n        /* \"#utility.yul\":14066:14150   */\n      tag_209\n      jump\t// in\n    tag_384:\n        /* \"#utility.yul\":14058:14150   */\n      swap5\n      pop\n        /* \"#utility.yul\":14173:14243   */\n      tag_385\n        /* \"#utility.yul\":14236:14242   */\n      dup4\n        /* \"#utility.yul\":14173:14243   */\n      tag_210\n      jump\t// in\n    tag_385:\n        /* \"#utility.yul\":14163:14243   */\n      swap3\n      pop\n        /* \"#utility.yul\":14272:14276   */\n      0x20\n        /* \"#utility.yul\":14267:14270   */\n      dup11\n        /* \"#utility.yul\":14263:14277   */\n      add\n        /* \"#utility.yul\":14256:14277   */\n      swap10\n      pop\n        /* \"#utility.yul\":13951:14287   */\n      pop\n        /* \"#utility.yul\":13938:13939   */\n      0x01\n        /* \"#utility.yul\":13935:13936   */\n      dup2\n        /* \"#utility.yul\":13931:13940   */\n      add\n        /* \"#utility.yul\":13926:13940   */\n      swap1\n      pop\n        /* \"#utility.yul\":13891:14287   */\n      jump(tag_381)\n    tag_383:\n        /* \"#utility.yul\":13895:13909   */\n      pop\n        /* \"#utility.yul\":14303:14307   */\n      dup3\n        /* \"#utility.yul\":14296:14307   */\n      swap8\n      pop\n        /* \"#utility.yul\":14323:14326   */\n      dup8\n        /* \"#utility.yul\":14316:14326   */\n      swap6\n      pop\n        /* \"#utility.yul\":13495:14332   */\n      pop\n      pop\n      pop\n      pop\n      pop\n        /* \"#utility.yul\":13361:14332   */\n      swap3\n      swap2\n      pop\n      pop\n      jump\t// out\n        /* \"#utility.yul\":14434:17034   */\n    tag_212:\n        /* \"#utility.yul\":14563:14566   */\n      0x00\n        /* \"#utility.yul\":14599:14605   */\n      0x0120\n        /* \"#utility.yul\":14594:14597   */\n      dup4\n        /* \"#utility.yul\":14590:14606   */\n      add\n        /* \"#utility.yul\":14694:14698   */\n      0x00\n        /* \"#utility.yul\":14687:14692   */\n      dup4\n        /* \"#utility.yul\":14683:14699   */\n      add\n        /* \"#utility.yul\":14677:14700   */\n      mload\n        /* \"#utility.yul\":14747:14750   */\n      dup5\n        /* \"#utility.yul\":14741:14745   */\n      dup3\n        /* \"#utility.yul\":14737:14751   */\n      sub\n        /* \"#utility.yul\":14730:14734   */\n      0x00\n        /* \"#utility.yul\":14725:14728   */\n      dup7\n        /* \"#utility.yul\":14721:14735   */\n      add\n        /* \"#utility.yul\":14714:14752   */\n      mstore\n        /* \"#utility.yul\":14773:14846   */\n      tag_387\n        /* \"#utility.yul\":14841:14845   */\n      dup3\n        /* \"#utility.yul\":14827:14839   */\n      dup3\n        /* \"#utility.yul\":14773:14846   */\n      tag_204\n      jump\t// in\n    tag_387:\n        /* \"#utility.yul\":14765:14846   */\n      swap2\n      pop\n        /* \"#utility.yul\":14616:14857   */\n      pop\n        /* \"#utility.yul\":14946:14950   */\n      0x20\n        /* \"#utility.yul\":14939:14944   */\n      dup4\n        /* \"#utility.yul\":14935:14951   */\n      add\n        /* \"#utility.yul\":14929:14952   */\n      mload\n        /* \"#utility.yul\":14999:15002   */\n      dup5\n        /* \"#utility.yul\":14993:14997   */\n      dup3\n        /* \"#utility.yul\":14989:15003   */\n      sub\n        /* \"#utility.yul\":14982:14986   */\n      0x20\n        /* \"#utility.yul\":14977:14980   */\n      dup7\n        /* \"#utility.yul\":14973:14987   */\n      add\n        /* \"#utility.yul\":14966:15004   */\n      mstore\n        /* \"#utility.yul\":15025:15098   */\n      tag_388\n        /* \"#utility.yul\":15093:15097   */\n      dup3\n        /* \"#utility.yul\":15079:15091   */\n      dup3\n        /* \"#utility.yul\":15025:15098   */\n      tag_204\n      jump\t// in\n    tag_388:\n        /* \"#utility.yul\":15017:15098   */\n      swap2\n      pop\n        /* \"#utility.yul\":14867:15109   */\n      pop\n        /* \"#utility.yul\":15195:15199   */\n      0x40\n        /* \"#utility.yul\":15188:15193   */\n      dup4\n        /* \"#utility.yul\":15184:15200   */\n      add\n        /* \"#utility.yul\":15178:15201   */\n      mload\n        /* \"#utility.yul\":15248:15251   */\n      dup5\n        /* \"#utility.yul\":15242:15246   */\n      dup3\n        /* \"#utility.yul\":15238:15252   */\n      sub\n        /* \"#utility.yul\":15231:15235   */\n      0x40\n        /* \"#utility.yul\":15226:15229   */\n      dup7\n        /* \"#utility.yul\":15222:15236   */\n      add\n        /* \"#utility.yul\":15215:15253   */\n      mstore\n        /* \"#utility.yul\":15274:15347   */\n      tag_389\n        /* \"#utility.yul\":15342:15346   */\n      dup3\n        /* \"#utility.yul\":15328:15340   */\n      dup3\n        /* \"#utility.yul\":15274:15347   */\n      tag_204\n      jump\t// in\n    tag_389:\n        /* \"#utility.yul\":15266:15347   */\n      swap2\n      pop\n        /* \"#utility.yul\":15119:15358   */\n      pop\n        /* \"#utility.yul\":15443:15447   */\n      0x60\n        /* \"#utility.yul\":15436:15441   */\n      dup4\n        /* \"#utility.yul\":15432:15448   */\n      add\n        /* \"#utility.yul\":15426:15449   */\n      mload\n        /* \"#utility.yul\":15496:15499   */\n      dup5\n        /* \"#utility.yul\":15490:15494   */\n      dup3\n        /* \"#utility.yul\":15486:15500   */\n      sub\n        /* \"#utility.yul\":15479:15483   */\n      0x60\n        /* \"#utility.yul\":15474:15477   */\n      dup7\n        /* \"#utility.yul\":15470:15484   */\n      add\n        /* \"#utility.yul\":15463:15501   */\n      mstore\n        /* \"#utility.yul\":15522:15595   */\n      tag_390\n        /* \"#utility.yul\":15590:15594   */\n      dup3\n        /* \"#utility.yul\":15576:15588   */\n      dup3\n        /* \"#utility.yul\":15522:15595   */\n      tag_204\n      jump\t// in\n    tag_390:\n        /* \"#utility.yul\":15514:15595   */\n      swap2\n      pop\n        /* \"#utility.yul\":15368:15606   */\n      pop\n        /* \"#utility.yul\":15697:15701   */\n      0x80\n        /* \"#utility.yul\":15690:15695   */\n      dup4\n        /* \"#utility.yul\":15686:15702   */\n      add\n        /* \"#utility.yul\":15680:15703   */\n      mload\n        /* \"#utility.yul\":15750:15753   */\n      dup5\n        /* \"#utility.yul\":15744:15748   */\n      dup3\n        /* \"#utility.yul\":15740:15754   */\n      sub\n        /* \"#utility.yul\":15733:15737   */\n      0x80\n        /* \"#utility.yul\":15728:15731   */\n      dup7\n        /* \"#utility.yul\":15724:15738   */\n      add\n        /* \"#utility.yul\":15717:15755   */\n      mstore\n        /* \"#utility.yul\":15776:15885   */\n      tag_391\n        /* \"#utility.yul\":15880:15884   */\n      dup3\n        /* \"#utility.yul\":15866:15878   */\n      dup3\n        /* \"#utility.yul\":15776:15885   */\n      tag_205\n      jump\t// in\n    tag_391:\n        /* \"#utility.yul\":15768:15885   */\n      swap2\n      pop\n        /* \"#utility.yul\":15616:15896   */\n      pop\n        /* \"#utility.yul\":15984:15988   */\n      0xa0\n        /* \"#utility.yul\":15977:15982   */\n      dup4\n        /* \"#utility.yul\":15973:15989   */\n      add\n        /* \"#utility.yul\":15967:15990   */\n      mload\n        /* \"#utility.yul\":16037:16040   */\n      dup5\n        /* \"#utility.yul\":16031:16035   */\n      dup3\n        /* \"#utility.yul\":16027:16041   */\n      sub\n        /* \"#utility.yul\":16020:16024   */\n      0xa0\n        /* \"#utility.yul\":16015:16018   */\n      dup7\n        /* \"#utility.yul\":16011:16025   */\n      add\n        /* \"#utility.yul\":16004:16042   */\n      mstore\n        /* \"#utility.yul\":16063:16136   */\n      tag_392\n        /* \"#utility.yul\":16131:16135   */\n      dup3\n        /* \"#utility.yul\":16117:16129   */\n      dup3\n        /* \"#utility.yul\":16063:16136   */\n      tag_204\n      jump\t// in\n    tag_392:\n        /* \"#utility.yul\":16055:16136   */\n      swap2\n      pop\n        /* \"#utility.yul\":15906:16147   */\n      pop\n        /* \"#utility.yul\":16235:16239   */\n      0xc0\n        /* \"#utility.yul\":16228:16233   */\n      dup4\n        /* \"#utility.yul\":16224:16240   */\n      add\n        /* \"#utility.yul\":16218:16241   */\n      mload\n        /* \"#utility.yul\":16288:16291   */\n      dup5\n        /* \"#utility.yul\":16282:16286   */\n      dup3\n        /* \"#utility.yul\":16278:16292   */\n      sub\n        /* \"#utility.yul\":16271:16275   */\n      0xc0\n        /* \"#utility.yul\":16266:16269   */\n      dup7\n        /* \"#utility.yul\":16262:16276   */\n      add\n        /* \"#utility.yul\":16255:16293   */\n      mstore\n        /* \"#utility.yul\":16314:16387   */\n      tag_393\n        /* \"#utility.yul\":16382:16386   */\n      dup3\n        /* \"#utility.yul\":16368:16380   */\n      dup3\n        /* \"#utility.yul\":16314:16387   */\n      tag_204\n      jump\t// in\n    tag_393:\n        /* \"#utility.yul\":16306:16387   */\n      swap2\n      pop\n        /* \"#utility.yul\":16157:16398   */\n      pop\n        /* \"#utility.yul\":16486:16490   */\n      0xe0\n        /* \"#utility.yul\":16479:16484   */\n      dup4\n        /* \"#utility.yul\":16475:16491   */\n      add\n        /* \"#utility.yul\":16469:16492   */\n      mload\n        /* \"#utility.yul\":16539:16542   */\n      dup5\n        /* \"#utility.yul\":16533:16537   */\n      dup3\n        /* \"#utility.yul\":16529:16543   */\n      sub\n        /* \"#utility.yul\":16522:16526   */\n      0xe0\n        /* \"#utility.yul\":16517:16520   */\n      dup7\n        /* \"#utility.yul\":16513:16527   */\n      add\n        /* \"#utility.yul\":16506:16544   */\n      mstore\n        /* \"#utility.yul\":16565:16688   */\n      tag_394\n        /* \"#utility.yul\":16683:16687   */\n      dup3\n        /* \"#utility.yul\":16669:16681   */\n      dup3\n        /* \"#utility.yul\":16565:16688   */\n      tag_211\n      jump\t// in\n    tag_394:\n        /* \"#utility.yul\":16557:16688   */\n      swap2\n      pop\n        /* \"#utility.yul\":16408:16699   */\n      pop\n        /* \"#utility.yul\":16790:16796   */\n      0x0100\n        /* \"#utility.yul\":16783:16788   */\n      dup4\n        /* \"#utility.yul\":16779:16797   */\n      add\n        /* \"#utility.yul\":16773:16798   */\n      mload\n        /* \"#utility.yul\":16847:16850   */\n      dup5\n        /* \"#utility.yul\":16841:16845   */\n      dup3\n        /* \"#utility.yul\":16837:16851   */\n      sub\n        /* \"#utility.yul\":16828:16834   */\n      0x0100\n        /* \"#utility.yul\":16823:16826   */\n      dup7\n        /* \"#utility.yul\":16819:16835   */\n      add\n        /* \"#utility.yul\":16812:16852   */\n      mstore\n        /* \"#utility.yul\":16873:16996   */\n      tag_395\n        /* \"#utility.yul\":16991:16995   */\n      dup3\n        /* \"#utility.yul\":16977:16989   */\n      dup3\n        /* \"#utility.yul\":16873:16996   */\n      tag_211\n      jump\t// in\n    tag_395:\n        /* \"#utility.yul\":16865:16996   */\n      swap2\n      pop\n        /* \"#utility.yul\":16709:17007   */\n      pop\n        /* \"#utility.yul\":17024:17028   */\n      dup1\n        /* \"#utility.yul\":17017:17028   */\n      swap2\n      pop\n        /* \"#utility.yul\":14568:17034   */\n      pop\n        /* \"#utility.yul\":14434:17034   */\n      swap3\n      swap2\n      pop\n      pop\n      jump\t// out\n        /* \"#utility.yul\":17040:17433   */\n    tag_22:\n        /* \"#utility.yul\":17193:17197   */\n      0x00\n        /* \"#utility.yul\":17231:17233   */\n      0x20\n        /* \"#utility.yul\":17220:17229   */\n      dup3\n        /* \"#utility.yul\":17216:17234   */\n      add\n        /* \"#utility.yul\":17208:17234   */\n      swap1\n      pop\n        /* \"#utility.yul\":17280:17289   */\n      dup2\n        /* \"#utility.yul\":17274:17278   */\n      dup2\n        /* \"#utility.yul\":17270:17290   */\n      sub\n        /* \"#utility.yul\":17266:17267   */\n      0x00\n        /* \"#utility.yul\":17255:17264   */\n      dup4\n        /* \"#utility.yul\":17251:17268   */\n      add\n        /* \"#utility.yul\":17244:17291   */\n      mstore\n        /* \"#utility.yul\":17308:17426   */\n      tag_397\n        /* \"#utility.yul\":17421:17425   */\n      dup2\n        /* \"#utility.yul\":17412:17418   */\n      dup5\n        /* \"#utility.yul\":17308:17426   */\n      tag_212\n      jump\t// in\n    tag_397:\n        /* \"#utility.yul\":17300:17426   */\n      swap1\n      pop\n        /* \"#utility.yul\":17040:17433   */\n      swap3\n      swap2\n      pop\n      pop\n      jump\t// out\n        /* \"#utility.yul\":17439:17587   */\n    tag_213:\n        /* \"#utility.yul\":17541:17552   */\n      0x00\n        /* \"#utility.yul\":17578:17581   */\n      dup2\n        /* \"#utility.yul\":17563:17581   */\n      swap1\n      pop\n        /* \"#utility.yul\":17439:17587   */\n      swap3\n      swap2\n      pop\n      pop\n      jump\t// out\n        /* \"#utility.yul\":17593:17983   */\n    tag_214:\n        /* \"#utility.yul\":17699:17702   */\n      0x00\n        /* \"#utility.yul\":17727:17766   */\n      tag_400\n        /* \"#utility.yul\":17760:17765   */\n      dup3\n        /* \"#utility.yul\":17727:17766   */\n      tag_201\n      jump\t// in\n    tag_400:\n        /* \"#utility.yul\":17782:17871   */\n      tag_401\n        /* \"#utility.yul\":17864:17870   */\n      dup2\n        /* \"#utility.yul\":17859:17862   */\n      dup6\n        /* \"#utility.yul\":17782:17871   */\n      tag_213\n      jump\t// in\n    tag_401:\n        /* \"#utility.yul\":17775:17871   */\n      swap4\n      pop\n        /* \"#utility.yul\":17880:17945   */\n      tag_402\n        /* \"#utility.yul\":17938:17944   */\n      dup2\n        /* \"#utility.yul\":17933:17936   */\n      dup6\n        /* \"#utility.yul\":17926:17930   */\n      0x20\n        /* \"#utility.yul\":17919:17924   */\n      dup7\n        /* \"#utility.yul\":17915:17931   */\n      add\n        /* \"#utility.yul\":17880:17945   */\n      tag_203\n      jump\t// in\n    tag_402:\n        /* \"#utility.yul\":17970:17976   */\n      dup1\n        /* \"#utility.yul\":17965:17968   */\n      dup5\n        /* \"#utility.yul\":17961:17977   */\n      add\n        /* \"#utility.yul\":17954:17977   */\n      swap2\n      pop\n        /* \"#utility.yul\":17703:17983   */\n      pop\n        /* \"#utility.yul\":17593:17983   */\n      swap3\n      swap2\n      pop\n      pop\n      jump\t// out\n        /* \"#utility.yul\":17989:19384   */\n    tag_25:\n        /* \"#utility.yul\":18457:18460   */\n      0x00\n        /* \"#utility.yul\":18479:18574   */\n      tag_404\n        /* \"#utility.yul\":18570:18573   */\n      dup3\n        /* \"#utility.yul\":18561:18567   */\n      dup12\n        /* \"#utility.yul\":18479:18574   */\n      tag_214\n      jump\t// in\n    tag_404:\n        /* \"#utility.yul\":18472:18574   */\n      swap2\n      pop\n        /* \"#utility.yul\":18591:18686   */\n      tag_405\n        /* \"#utility.yul\":18682:18685   */\n      dup3\n        /* \"#utility.yul\":18673:18679   */\n      dup11\n        /* \"#utility.yul\":18591:18686   */\n      tag_214\n      jump\t// in\n    tag_405:\n        /* \"#utility.yul\":18584:18686   */\n      swap2\n      pop\n        /* \"#utility.yul\":18703:18798   */\n      tag_406\n        /* \"#utility.yul\":18794:18797   */\n      dup3\n        /* \"#utility.yul\":18785:18791   */\n      dup10\n        /* \"#utility.yul\":18703:18798   */\n      tag_214\n      jump\t// in\n    tag_406:\n        /* \"#utility.yul\":18696:18798   */\n      swap2\n      pop\n        /* \"#utility.yul\":18815:18910   */\n      tag_407\n        /* \"#utility.yul\":18906:18909   */\n      dup3\n        /* \"#utility.yul\":18897:18903   */\n      dup9\n        /* \"#utility.yul\":18815:18910   */\n      tag_214\n      jump\t// in\n    tag_407:\n        /* \"#utility.yul\":18808:18910   */\n      swap2\n      pop\n        /* \"#utility.yul\":18927:19022   */\n      tag_408\n        /* \"#utility.yul\":19018:19021   */\n      dup3\n        /* \"#utility.yul\":19009:19015   */\n      dup8\n        /* \"#utility.yul\":18927:19022   */\n      tag_214\n      jump\t// in\n    tag_408:\n        /* \"#utility.yul\":18920:19022   */\n      swap2\n      pop\n        /* \"#utility.yul\":19039:19134   */\n      tag_409\n        /* \"#utility.yul\":19130:19133   */\n      dup3\n        /* \"#utility.yul\":19121:19127   */\n      dup7\n        /* \"#utility.yul\":19039:19134   */\n      tag_214\n      jump\t// in\n    tag_409:\n        /* \"#utility.yul\":19032:19134   */\n      swap2\n      pop\n        /* \"#utility.yul\":19151:19246   */\n      tag_410\n        /* \"#utility.yul\":19242:19245   */\n      dup3\n        /* \"#utility.yul\":19233:19239   */\n      dup6\n        /* \"#utility.yul\":19151:19246   */\n      tag_214\n      jump\t// in\n    tag_410:\n        /* \"#utility.yul\":19144:19246   */\n      swap2\n      pop\n        /* \"#utility.yul\":19263:19358   */\n      tag_411\n        /* \"#utility.yul\":19354:19357   */\n      dup3\n        /* \"#utility.yul\":19345:19351   */\n      dup5\n        /* \"#utility.yul\":19263:19358   */\n      tag_214\n      jump\t// in\n    tag_411:\n        /* \"#utility.yul\":19256:19358   */\n      swap2\n      pop\n        /* \"#utility.yul\":19375:19378   */\n      dup2\n        /* \"#utility.yul\":19368:19378   */\n      swap1\n      pop\n        /* \"#utility.yul\":17989:19384   */\n      swap10\n      swap9\n      pop\n      pop\n      pop\n      pop\n      pop\n      pop\n      pop\n      pop\n      pop\n      jump\t// out\n        /* \"#utility.yul\":19390:19570   */\n    tag_215:\n        /* \"#utility.yul\":19438:19515   */\n      0x4e487b7100000000000000000000000000000000000000000000000000000000\n        /* \"#utility.yul\":19435:19436   */\n      0x00\n        /* \"#utility.yul\":19428:19516   */\n      mstore\n        /* \"#utility.yul\":19535:19539   */\n      0x22\n        /* \"#utility.yul\":19532:19533   */\n      0x04\n        /* \"#utility.yul\":19525:19540   */\n      mstore\n        /* \"#utility.yul\":19559:19563   */\n      0x24\n        /* \"#utility.yul\":19556:19557   */\n      0x00\n        /* \"#utility.yul\":19549:19564   */\n      revert\n        /* \"#utility.yul\":19576:19896   */\n    tag_27:\n        /* \"#utility.yul\":19620:19626   */\n      0x00\n        /* \"#utility.yul\":19657:19658   */\n      0x02\n        /* \"#utility.yul\":19651:19655   */\n      dup3\n        /* \"#utility.yul\":19647:19659   */\n      div\n        /* \"#utility.yul\":19637:19659   */\n      swap1\n      pop\n        /* \"#utility.yul\":19704:19705   */\n      0x01\n        /* \"#utility.yul\":19698:19702   */\n      dup3\n        /* \"#utility.yul\":19694:19706   */\n      and\n        /* \"#utility.yul\":19725:19743   */\n      dup1\n        /* \"#utility.yul\":19715:19796   */\n      tag_414\n      jumpi\n        /* \"#utility.yul\":19781:19785   */\n      0x7f\n        /* \"#utility.yul\":19773:19779   */\n      dup3\n        /* \"#utility.yul\":19769:19786   */\n      and\n        /* \"#utility.yul\":19759:19786   */\n      swap2\n      pop\n        /* \"#utility.yul\":19715:19796   */\n    tag_414:\n        /* \"#utility.yul\":19843:19845   */\n      0x20\n        /* \"#utility.yul\":19835:19841   */\n      dup3\n        /* \"#utility.yul\":19832:19846   */\n      lt\n        /* \"#utility.yul\":19812:19830   */\n      dup2\n        /* \"#utility.yul\":19809:19847   */\n      sub\n        /* \"#utility.yul\":19806:19890   */\n      tag_415\n      jumpi\n        /* \"#utility.yul\":19862:19880   */\n      tag_416\n      tag_215\n      jump\t// in\n    tag_416:\n        /* \"#utility.yul\":19806:19890   */\n    tag_415:\n        /* \"#utility.yul\":19627:19896   */\n      pop\n        /* \"#utility.yul\":19576:19896   */\n      swap2\n      swap1\n      pop\n      jump\t// out\n        /* \"#utility.yul\":19902:20043   */\n    tag_216:\n        /* \"#utility.yul\":19951:19955   */\n      0x00\n        /* \"#utility.yul\":19974:19977   */\n      dup2\n        /* \"#utility.yul\":19966:19977   */\n      swap1\n      pop\n        /* \"#utility.yul\":19997:20000   */\n      dup2\n        /* \"#utility.yul\":19994:19995   */\n      0x00\n        /* \"#utility.yul\":19987:20001   */\n      mstore\n        /* \"#utility.yul\":20031:20035   */\n      0x20\n        /* \"#utility.yul\":20028:20029   */\n      0x00\n        /* \"#utility.yul\":20018:20036   */\n      keccak256\n        /* \"#utility.yul\":20010:20036   */\n      swap1\n      pop\n        /* \"#utility.yul\":19902:20043   */\n      swap2\n      swap1\n      pop\n      jump\t// out\n        /* \"#utility.yul\":20049:20142   */\n    tag_217:\n        /* \"#utility.yul\":20086:20092   */\n      0x00\n        /* \"#utility.yul\":20133:20135   */\n      0x20\n        /* \"#utility.yul\":20128:20130   */\n      0x1f\n        /* \"#utility.yul\":20121:20126   */\n      dup4\n        /* \"#utility.yul\":20117:20131   */\n      add\n        /* \"#utility.yul\":20113:20136   */\n      div\n        /* \"#utility.yul\":20103:20136   */\n      swap1\n      pop\n        /* \"#utility.yul\":20049:20142   */\n      swap2\n      swap1\n      pop\n      jump\t// out\n        /* \"#utility.yul\":20148:20255   */\n    tag_218:\n        /* \"#utility.yul\":20192:20200   */\n      0x00\n        /* \"#utility.yul\":20242:20247   */\n      dup3\n        /* \"#utility.yul\":20236:20240   */\n      dup3\n        /* \"#utility.yul\":20232:20248   */\n      shl\n        /* \"#utility.yul\":20211:20248   */\n      swap1\n      pop\n        /* \"#utility.yul\":20148:20255   */\n      swap3\n      swap2\n      pop\n      pop\n      jump\t// out\n        /* \"#utility.yul\":20261:20654   */\n    tag_219:\n        /* \"#utility.yul\":20330:20336   */\n      0x00\n        /* \"#utility.yul\":20380:20381   */\n      0x08\n        /* \"#utility.yul\":20368:20378   */\n      dup4\n        /* \"#utility.yul\":20364:20382   */\n      mul\n        /* \"#utility.yul\":20403:20500   */\n      tag_421\n        /* \"#utility.yul\":20433:20499   */\n      0xffffffffffffffffffffffffffffffffffffffffffffffffffffffffffffffff\n        /* \"#utility.yul\":20422:20431   */\n      dup3\n        /* \"#utility.yul\":20403:20500   */\n      tag_218\n      jump\t// in\n    tag_421:\n        /* \"#utility.yul\":20521:20560   */\n      tag_422\n        /* \"#utility.yul\":20551:20559   */\n      dup7\n        /* \"#utility.yul\":20540:20549   */\n      dup4\n        /* \"#utility.yul\":20521:20560   */\n      tag_218\n      jump\t// in\n    tag_422:\n        /* \"#utility.yul\":20509:20560   */\n      swap6\n      pop\n        /* \"#utility.yul\":20593:20597   */\n      dup1\n        /* \"#utility.yul\":20589:20598   */\n      not\n        /* \"#utility.yul\":20582:20587   */\n      dup5\n        /* \"#utility.yul\":20578:20599   */\n      and\n        /* \"#utility.yul\":20569:20599   */\n      swap4\n      pop\n        /* \"#utility.yul\":20642:20646   */\n      dup1\n        /* \"#utility.yul\":20632:20640   */\n      dup7\n        /* \"#utility.yul\":20628:20647   */\n      and\n        /* \"#utility.yul\":20621:20626   */\n      dup5\n        /* \"#utility.yul\":20618:20648   */\n      or\n        /* \"#utility.yul\":20608:20648   */\n      swap3\n      pop\n        /* \"#utility.yul\":20337:20654   */\n      pop\n      pop\n        /* \"#utility.yul\":20261:20654   */\n      swap4\n      swap3\n      pop\n      pop\n      pop\n      jump\t// out\n        /* \"#utility.yul\":20660:20737   */\n    tag_220:\n        /* \"#utility.yul\":20697:20704   */\n      0x00\n        /* \"#utility.yul\":20726:20731   */\n      dup2\n        /* \"#utility.yul\":20715:20731   */\n      swap1\n      pop\n        /* \"#utility.yul\":20660:20737   */\n      swap2\n      swap1\n      pop\n      jump\t// out\n        /* \"#utility.yul\":20743:20803   */\n    tag_221:\n        /* \"#utility.yul\":20771:20774   */\n      0x00\n        /* \"#utility.yul\":20792:20797   */\n      dup2\n        /* \"#utility.yul\":20785:20797   */\n      swap1\n      pop\n        /* \"#utility.yul\":20743:20803   */\n      swap2\n      swap1\n      pop\n      jump\t// out\n        /* \"#utility.yul\":20809:20951   */\n    tag_222:\n        /* \"#utility.yul\":20859:20868   */\n      0x00\n        /* \"#utility.yul\":20892:20945   */\n      tag_426\n        /* \"#utility.yul\":20910:20944   */\n      tag_427\n        /* \"#utility.yul\":20919:20943   */\n      tag_428\n        /* \"#utility.yul\":20937:20942   */\n      dup5\n        /* \"#utility.yul\":20919:20943   */\n      tag_220\n      jump\t// in\n    tag_428:\n        /* \"#utility.yul\":20910:20944   */\n      tag_221\n      jump\t// in\n    tag_427:\n        /* \"#utility.yul\":20892:20945   */\n      tag_220\n      jump\t// in\n    tag_426:\n        /* \"#utility.yul\":20879:20945   */\n      swap1\n      pop\n        /* \"#utility.yul\":20809:20951   */\n      swap2\n      swap1\n      pop\n      jump\t// out\n        /* \"#utility.yul\":20957:21032   */\n    tag_223:\n        /* \"#utility.yul\":21000:21003   */\n      0x00\n        /* \"#utility.yul\":21021:21026   */\n      dup2\n        /* \"#utility.yul\":21014:21026   */\n      swap1\n      pop\n        /* \"#utility.yul\":20957:21032   */\n      swap2\n      swap1\n      pop\n      jump\t// out\n        /* \"#utility.yul\":21038:21307   */\n    tag_224:\n        /* \"#utility.yul\":21148:21187   */\n      tag_431\n        /* \"#utility.yul\":21179:21186   */\n      dup4\n        /* \"#utility.yul\":21148:21187   */\n      tag_222\n      jump\t// in\n    tag_431:\n        /* \"#utility.yul\":21209:21300   */\n      tag_432\n        /* \"#utility.yul\":21258:21299   */\n      tag_433\n        /* \"#utility.yul\":21282:21298   */\n      dup3\n        /* \"#utility.yul\":21258:21299   */\n      tag_223\n      jump\t// in\n    tag_433:\n        /* \"#utility.yul\":21250:21256   */\n      dup5\n        /* \"#utility.yul\":21243:21247   */\n      dup5\n        /* \"#utility.yul\":21237:21248   */\n      sload\n        /* \"#utility.yul\":21209:21300   */\n      tag_219\n      jump\t// in\n    tag_432:\n        /* \"#utility.yul\":21203:21207   */\n      dup3\n        /* \"#utility.yul\":21196:21301   */\n      sstore\n        /* \"#utility.yul\":21114:21307   */\n      pop\n        /* \"#utility.yul\":21038:21307   */\n      pop\n      pop\n      pop\n      jump\t// out\n        /* \"#utility.yul\":21313:21386   */\n    tag_225:\n        /* \"#utility.yul\":21358:21361   */\n      0x00\n        /* \"#utility.yul\":21313:21386   */\n      swap1\n      jump\t// out\n        /* \"#utility.yul\":21392:21581   */\n    tag_226:\n        /* \"#utility.yul\":21469:21501   */\n      tag_436\n      tag_225\n      jump\t// in\n    tag_436:\n        /* \"#utility.yul\":21510:21575   */\n      tag_437\n        /* \"#utility.yul\":21568:21574   */\n      dup2\n        /* \"#utility.yul\":21560:21566   */\n      dup5\n        /* \"#utility.yul\":21554:21558   */\n      dup5\n        /* \"#utility.yul\":21510:21575   */\n      tag_224\n      jump\t// in\n    tag_437:\n        /* \"#utility.yul\":21445:21581   */\n      pop\n        /* \"#utility.yul\":21392:21581   */\n      pop\n      pop\n      jump\t// out\n        /* \"#utility.yul\":21587:21773   */\n    tag_227:\n        /* \"#utility.yul\":21647:21767   */\n    tag_439:\n        /* \"#utility.yul\":21664:21667   */\n      dup2\n        /* \"#utility.yul\":21657:21662   */\n      dup2\n        /* \"#utility.yul\":21654:21668   */\n      lt\n        /* \"#utility.yul\":21647:21767   */\n      iszero\n      tag_441\n      jumpi\n        /* \"#utility.yul\":21718:21757   */\n      tag_442\n        /* \"#utility.yul\":21755:21756   */\n      0x00\n        /* \"#utility.yul\":21748:21753   */\n      dup3\n        /* \"#utility.yul\":21718:21757   */\n      tag_226\n      jump\t// in\n    tag_442:\n        /* \"#utility.yul\":21691:21692   */\n      0x01\n        /* \"#utility.yul\":21684:21689   */\n      dup2\n        /* \"#utility.yul\":21680:21693   */\n      add\n        /* \"#utility.yul\":21671:21693   */\n      swap1\n      pop\n        /* \"#utility.yul\":21647:21767   */\n      jump(tag_439)\n    tag_441:\n        /* \"#utility.yul\":21587:21773   */\n      pop\n      pop\n      jump\t// out\n        /* \"#utility.yul\":21779:22322   */\n    tag_228:\n        /* \"#utility.yul\":21880:21882   */\n      0x1f\n        /* \"#utility.yul\":21875:21878   */\n      dup3\n        /* \"#utility.yul\":21872:21883   */\n      gt\n        /* \"#utility.yul\":21869:22315   */\n      iszero\n      tag_444\n      jumpi\n        /* \"#utility.yul\":21914:21952   */\n      tag_445\n        /* \"#utility.yul\":21946:21951   */\n      dup2\n        /* \"#utility.yul\":21914:21952   */\n      tag_216\n      jump\t// in\n    tag_445:\n        /* \"#utility.yul\":21998:22027   */\n      tag_446\n        /* \"#utility.yul\":22016:22026   */\n      dup5\n        /* \"#utility.yul\":21998:22027   */\n      tag_217\n      jump\t// in\n    tag_446:\n        /* \"#utility.yul\":21988:21996   */\n      dup2\n        /* \"#utility.yul\":21984:22028   */\n      add\n        /* \"#utility.yul\":22181:22183   */\n      0x20\n        /* \"#utility.yul\":22169:22179   */\n      dup6\n        /* \"#utility.yul\":22166:22184   */\n      lt\n        /* \"#utility.yul\":22163:22212   */\n      iszero\n      tag_447\n      jumpi\n        /* \"#utility.yul\":22202:22210   */\n      dup2\n        /* \"#utility.yul\":22187:22210   */\n      swap1\n      pop\n        /* \"#utility.yul\":22163:22212   */\n    tag_447:\n        /* \"#utility.yul\":22225:22305   */\n      tag_448\n        /* \"#utility.yul\":22281:22303   */\n      tag_449\n        /* \"#utility.yul\":22299:22302   */\n      dup6\n        /* \"#utility.yul\":22281:22303   */\n      tag_217\n      jump\t// in\n    tag_449:\n        /* \"#utility.yul\":22271:22279   */\n      dup4\n        /* \"#utility.yul\":22267:22304   */\n      add\n        /* \"#utility.yul\":22254:22265   */\n      dup3\n        /* \"#utility.yul\":22225:22305   */\n      tag_227\n      jump\t// in\n    tag_448:\n        /* \"#utility.yul\":21884:22315   */\n      pop\n      pop\n        /* \"#utility.yul\":21869:22315   */\n    tag_444:\n        /* \"#utility.yul\":21779:22322   */\n      pop\n      pop\n      pop\n      jump\t// out\n        /* \"#utility.yul\":22328:22445   */\n    tag_229:\n        /* \"#utility.yul\":22382:22390   */\n      0x00\n        /* \"#utility.yul\":22432:22437   */\n      dup3\n        /* \"#utility.yul\":22426:22430   */\n      dup3\n        /* \"#utility.yul\":22422:22438   */\n      shr\n        /* \"#utility.yul\":22401:22438   */\n      swap1\n      pop\n        /* \"#utility.yul\":22328:22445   */\n      swap3\n      swap2\n      pop\n      pop\n      jump\t// out\n        /* \"#utility.yul\":22451:22620   */\n    tag_230:\n        /* \"#utility.yul\":22495:22501   */\n      0x00\n        /* \"#utility.yul\":22528:22579   */\n      tag_452\n        /* \"#utility.yul\":22576:22577   */\n      0x00\n        /* \"#utility.yul\":22572:22578   */\n      not\n        /* \"#utility.yul\":22564:22569   */\n      dup5\n        /* \"#utility.yul\":22561:22562   */\n      0x08\n        /* \"#utility.yul\":22557:22570   */\n      mul\n        /* \"#utility.yul\":22528:22579   */\n      tag_229\n      jump\t// in\n    tag_452:\n        /* \"#utility.yul\":22524:22580   */\n      not\n        /* \"#utility.yul\":22609:22613   */\n      dup1\n        /* \"#utility.yul\":22603:22607   */\n      dup4\n        /* \"#utility.yul\":22599:22614   */\n      and\n        /* \"#utility.yul\":22589:22614   */\n      swap2\n      pop\n        /* \"#utility.yul\":22502:22620   */\n      pop\n        /* \"#utility.yul\":22451:22620   */\n      swap3\n      swap2\n      pop\n      pop\n      jump\t// out\n        /* \"#utility.yul\":22625:22920   */\n    tag_231:\n        /* \"#utility.yul\":22701:22705   */\n      0x00\n        /* \"#utility.yul\":22847:22876   */\n      tag_454\n        /* \"#utility.yul\":22872:22875   */\n      dup4\n        /* \"#utility.yul\":22866:22870   */\n      dup4\n        /* \"#utility.yul\":22847:22876   */\n      tag_230\n      jump\t// in\n    tag_454:\n        /* \"#utility.yul\":22839:22876   */\n      swap2\n      pop\n        /* \"#utility.yul\":22909:22912   */\n      dup3\n        /* \"#utility.yul\":22906:22907   */\n      0x02\n        /* \"#utility.yul\":22902:22913   */\n      mul\n        /* \"#utility.yul\":22896:22900   */\n      dup3\n        /* \"#utility.yul\":22893:22914   */\n      or\n        /* \"#utility.yul\":22885:22914   */\n      swap1\n      pop\n        /* \"#utility.yul\":22625:22920   */\n      swap3\n      swap2\n      pop\n      pop\n      jump\t// out\n        /* \"#utility.yul\":22925:24320   */\n    tag_30:\n        /* \"#utility.yul\":23042:23079   */\n      tag_456\n        /* \"#utility.yul\":23075:23078   */\n      dup3\n        /* \"#utility.yul\":23042:23079   */\n      tag_201\n      jump\t// in\n    tag_456:\n        /* \"#utility.yul\":23144:23162   */\n      0xffffffffffffffff\n        /* \"#utility.yul\":23136:23142   */\n      dup2\n        /* \"#utility.yul\":23133:23163   */\n      gt\n        /* \"#utility.yul\":23130:23186   */\n      iszero\n      tag_457\n      jumpi\n        /* \"#utility.yul\":23166:23184   */\n      tag_458\n      tag_186\n      jump\t// in\n    tag_458:\n        /* \"#utility.yul\":23130:23186   */\n    tag_457:\n        /* \"#utility.yul\":23210:23248   */\n      tag_459\n        /* \"#utility.yul\":23242:23246   */\n      dup3\n        /* \"#utility.yul\":23236:23247   */\n      sload\n        /* \"#utility.yul\":23210:23248   */\n      tag_27\n      jump\t// in\n    tag_459:\n        /* \"#utility.yul\":23295:23362   */\n      tag_460\n        /* \"#utility.yul\":23355:23361   */\n      dup3\n        /* \"#utility.yul\":23347:23353   */\n      dup3\n        /* \"#utility.yul\":23341:23345   */\n      dup6\n        /* \"#utility.yul\":23295:23362   */\n      tag_228\n      jump\t// in\n    tag_460:\n        /* \"#utility.yul\":23389:23390   */\n      0x00\n        /* \"#utility.yul\":23413:23417   */\n      0x20\n        /* \"#utility.yul\":23400:23417   */\n      swap1\n      pop\n        /* \"#utility.yul\":23445:23447   */\n      0x1f\n        /* \"#utility.yul\":23437:23443   */\n      dup4\n        /* \"#utility.yul\":23434:23448   */\n      gt\n        /* \"#utility.yul\":23462:23463   */\n      0x01\n        /* \"#utility.yul\":23457:24075   */\n      dup2\n      eq\n      tag_462\n      jumpi\n        /* \"#utility.yul\":24119:24120   */\n      0x00\n        /* \"#utility.yul\":24136:24142   */\n      dup5\n        /* \"#utility.yul\":24133:24210   */\n      iszero\n      tag_463\n      jumpi\n        /* \"#utility.yul\":24185:24194   */\n      dup3\n        /* \"#utility.yul\":24180:24183   */\n      dup8\n        /* \"#utility.yul\":24176:24195   */\n      add\n        /* \"#utility.yul\":24170:24196   */\n      mload\n        /* \"#utility.yul\":24161:24196   */\n      swap1\n      pop\n        /* \"#utility.yul\":24133:24210   */\n    tag_463:\n        /* \"#utility.yul\":24236:24303   */\n      tag_464\n        /* \"#utility.yul\":24296:24302   */\n      dup6\n        /* \"#utility.yul\":24289:24294   */\n      dup3\n        /* \"#utility.yul\":24236:24303   */\n      tag_231\n      jump\t// in\n    tag_464:\n        /* \"#utility.yul\":24230:24234   */\n      dup7\n        /* \"#utility.yul\":24223:24304   */\n      sstore\n        /* \"#utility.yul\":24092:24314   */\n      pop\n        /* \"#utility.yul\":23427:24314   */\n      jump(tag_461)\n        /* \"#utility.yul\":23457:24075   */\n    tag_462:\n        /* \"#utility.yul\":23509:23513   */\n      0x1f\n        /* \"#utility.yul\":23505:23514   */\n      not\n        /* \"#utility.yul\":23497:23503   */\n      dup5\n        /* \"#utility.yul\":23493:23515   */\n      and\n        /* \"#utility.yul\":23543:23580   */\n      tag_465\n        /* \"#utility.yul\":23575:23579   */\n      dup7\n        /* \"#utility.yul\":23543:23580   */\n      tag_216\n      jump\t// in\n    tag_465:\n        /* \"#utility.yul\":23602:23603   */\n      0x00\n        /* \"#utility.yul\":23616:23824   */\n    tag_466:\n        /* \"#utility.yul\":23630:23637   */\n      dup3\n        /* \"#utility.yul\":23627:23628   */\n      dup2\n        /* \"#utility.yul\":23624:23638   */\n      lt\n        /* \"#utility.yul\":23616:23824   */\n      iszero\n      tag_468\n      jumpi\n        /* \"#utility.yul\":23709:23718   */\n      dup5\n        /* \"#utility.yul\":23704:23707   */\n      dup10\n        /* \"#utility.yul\":23700:23719   */\n      add\n        /* \"#utility.yul\":23694:23720   */\n      mload\n        /* \"#utility.yul\":23686:23692   */\n      dup3\n        /* \"#utility.yul\":23679:23721   */\n      sstore\n        /* \"#utility.yul\":23760:23761   */\n      0x01\n        /* \"#utility.yul\":23752:23758   */\n      dup3\n        /* \"#utility.yul\":23748:23762   */\n      add\n        /* \"#utility.yul\":23738:23762   */\n      swap2\n      pop\n        /* \"#utility.yul\":23807:23809   */\n      0x20\n        /* \"#utility.yul\":23796:23805   */\n      dup6\n        /* \"#utility.yul\":23792:23810   */\n      add\n        /* \"#utility.yul\":23779:23810   */\n      swap5\n      pop\n        /* \"#utility.yul\":23653:23657   */\n      0x20\n        /* \"#utility.yul\":23650:23651   */\n      dup2\n        /* \"#utility.yul\":23646:23658   */\n      add\n        /* \"#utility.yul\":23641:23658   */\n      swap1\n      pop\n        /* \"#utility.yul\":23616:23824   */\n      jump(tag_466)\n    tag_468:\n        /* \"#utility.yul\":23852:23858   */\n      dup7\n        /* \"#utility.yul\":23843:23850   */\n      dup4\n        /* \"#utility.yul\":23840:23859   */\n      lt\n        /* \"#utility.yul\":23837:24016   */\n      iszero\n      tag_469\n      jumpi\n        /* \"#utility.yul\":23910:23919   */\n      dup5\n        /* \"#utility.yul\":23905:23908   */\n      dup10\n        /* \"#utility.yul\":23901:23920   */\n      add\n        /* \"#utility.yul\":23895:23921   */\n      mload\n        /* \"#utility.yul\":23953:24001   */\n      tag_470\n        /* \"#utility.yul\":23995:23999   */\n      0x1f\n        /* \"#utility.yul\":23987:23993   */\n      dup10\n        /* \"#utility.yul\":23983:24000   */\n      and\n        /* \"#utility.yul\":23972:23981   */\n      dup3\n        /* \"#utility.yul\":23953:24001   */\n      tag_230\n      jump\t// in\n    tag_470:\n        /* \"#utility.yul\":23945:23951   */\n      dup4\n        /* \"#utility.yul\":23938:24002   */\n      sstore\n        /* \"#utility.yul\":23860:24016   */\n      pop\n        /* \"#utility.yul\":23837:24016   */\n    tag_469:\n        /* \"#utility.yul\":24062:24063   */\n      0x01\n        /* \"#utility.yul\":24058:24059   */\n      0x02\n        /* \"#utility.yul\":24050:24056   */\n      dup9\n        /* \"#utility.yul\":24046:24060   */\n      mul\n        /* \"#utility.yul\":24042:24064   */\n      add\n        /* \"#utility.yul\":24036:24040   */\n      dup9\n        /* \"#utility.yul\":24029:24065   */\n      sstore\n        /* \"#utility.yul\":23464:24075   */\n      pop\n      pop\n      pop\n        /* \"#utility.yul\":23427:24314   */\n    tag_461:\n      pop\n        /* \"#utility.yul\":23017:24320   */\n      pop\n      pop\n      pop\n        /* \"#utility.yul\":22925:24320   */\n      pop\n      pop\n      jump\t// out\n        /* \"#utility.yul\":24326:24495   */\n    tag_232:\n        /* \"#utility.yul\":24410:24421   */\n      0x00\n        /* \"#utility.yul\":24444:24450   */\n      dup3\n        /* \"#utility.yul\":24439:24442   */\n      dup3\n        /* \"#utility.yul\":24432:24451   */\n      mstore\n        /* \"#utility.yul\":24484:24488   */\n      0x20\n        /* \"#utility.yul\":24479:24482   */\n      dup3\n        /* \"#utility.yul\":24475:24489   */\n      add\n        /* \"#utility.yul\":24460:24489   */\n      swap1\n      pop\n        /* \"#utility.yul\":24326:24495   */\n      swap3\n      swap2\n      pop\n      pop\n      jump\t// out\n        /* \"#utility.yul\":24501:24673   */\n    tag_233:\n        /* \"#utility.yul\":24641:24665   */\n      0x50726f6475637420646f6573206e6f7420657869737400000000000000000000\n        /* \"#utility.yul\":24637:24638   */\n      0x00\n        /* \"#utility.yul\":24629:24635   */\n      dup3\n        /* \"#utility.yul\":24625:24639   */\n      add\n        /* \"#utility.yul\":24618:24666   */\n      mstore\n        /* \"#utility.yul\":24501:24673   */\n      pop\n      jump\t// out\n        /* \"#utility.yul\":24679:25045   */\n    tag_234:\n        /* \"#utility.yul\":24821:24824   */\n      0x00\n        /* \"#utility.yul\":24842:24909   */\n      tag_474\n        /* \"#utility.yul\":24906:24908   */\n      0x16\n        /* \"#utility.yul\":24901:24904   */\n      dup4\n        /* \"#utility.yul\":24842:24909   */\n      tag_232\n      jump\t// in\n    tag_474:\n        /* \"#utility.yul\":24835:24909   */\n      swap2\n      pop\n        /* \"#utility.yul\":24918:25011   */\n      tag_475\n        /* \"#utility.yul\":25007:25010   */\n      dup3\n        /* \"#utility.yul\":24918:25011   */\n      tag_233\n      jump\t// in\n    tag_475:\n        /* \"#utility.yul\":25036:25038   */\n      0x20\n        /* \"#utility.yul\":25031:25034   */\n      dup3\n        /* \"#utility.yul\":25027:25039   */\n      add\n        /* \"#utility.yul\":25020:25039   */\n      swap1\n      pop\n        /* \"#utility.yul\":24679:25045   */\n      swap2\n      swap1\n      pop\n      jump\t// out\n        /* \"#utility.yul\":25051:25470   */\n    tag_46:\n        /* \"#utility.yul\":25217:25221   */\n      0x00\n        /* \"#utility.yul\":25255:25257   */\n      0x20\n        /* \"#utility.yul\":25244:25253   */\n      dup3\n        /* \"#utility.yul\":25240:25258   */\n      add\n        /* \"#utility.yul\":25232:25258   */\n      swap1\n      pop\n        /* \"#utility.yul\":25304:25313   */\n      dup2\n        /* \"#utility.yul\":25298:25302   */\n      dup2\n        /* \"#utility.yul\":25294:25314   */\n      sub\n        /* \"#utility.yul\":25290:25291   */\n      0x00\n        /* \"#utility.yul\":25279:25288   */\n      dup4\n        /* \"#utility.yul\":25275:25292   */\n      add\n        /* \"#utility.yul\":25268:25315   */\n      mstore\n        /* \"#utility.yul\":25332:25463   */\n      tag_477\n        /* \"#utility.yul\":25458:25462   */\n      dup2\n        /* \"#utility.yul\":25332:25463   */\n      tag_234\n      jump\t// in\n    tag_477:\n        /* \"#utility.yul\":25324:25463   */\n      swap1\n      pop\n        /* \"#utility.yul\":25051:25470   */\n      swap2\n      swap1\n      pop\n      jump\t// out\n        /* \"#utility.yul\":25476:25555   */\n    tag_235:\n        /* \"#utility.yul\":25515:25522   */\n      0x00\n        /* \"#utility.yul\":25544:25549   */\n      dup2\n        /* \"#utility.yul\":25533:25549   */\n      swap1\n      pop\n        /* \"#utility.yul\":25476:25555   */\n      swap2\n      swap1\n      pop\n      jump\t// out\n        /* \"#utility.yul\":25561:25718   */\n    tag_236:\n        /* \"#utility.yul\":25666:25711   */\n      tag_480\n        /* \"#utility.yul\":25686:25710   */\n      tag_481\n        /* \"#utility.yul\":25704:25709   */\n      dup3\n        /* \"#utility.yul\":25686:25710   */\n      tag_197\n      jump\t// in\n    tag_481:\n        /* \"#utility.yul\":25666:25711   */\n      tag_235\n      jump\t// in\n    tag_480:\n        /* \"#utility.yul\":25661:25664   */\n      dup3\n        /* \"#utility.yul\":25654:25712   */\n      mstore\n        /* \"#utility.yul\":25561:25718   */\n      pop\n      pop\n      jump\t// out\n        /* \"#utility.yul\":25724:26460   */\n    tag_50:\n        /* \"#utility.yul\":25980:25983   */\n      0x00\n        /* \"#utility.yul\":26002:26097   */\n      tag_483\n        /* \"#utility.yul\":26093:26096   */\n      dup3\n        /* \"#utility.yul\":26084:26090   */\n      dup8\n        /* \"#utility.yul\":26002:26097   */\n      tag_214\n      jump\t// in\n    tag_483:\n        /* \"#utility.yul\":25995:26097   */\n      swap2\n      pop\n        /* \"#utility.yul\":26107:26182   */\n      tag_484\n        /* \"#utility.yul\":26178:26181   */\n      dup3\n        /* \"#utility.yul\":26169:26175   */\n      dup7\n        /* \"#utility.yul\":26107:26182   */\n      tag_236\n      jump\t// in\n    tag_484:\n        /* \"#utility.yul\":26207:26209   */\n      0x20\n        /* \"#utility.yul\":26202:26205   */\n      dup3\n        /* \"#utility.yul\":26198:26210   */\n      add\n        /* \"#utility.yul\":26191:26210   */\n      swap2\n      pop\n        /* \"#utility.yul\":26227:26322   */\n      tag_485\n        /* \"#utility.yul\":26318:26321   */\n      dup3\n        /* \"#utility.yul\":26309:26315   */\n      dup6\n        /* \"#utility.yul\":26227:26322   */\n      tag_214\n      jump\t// in\n    tag_485:\n        /* \"#utility.yul\":26220:26322   */\n      swap2\n      pop\n        /* \"#utility.yul\":26339:26434   */\n      tag_486\n        /* \"#utility.yul\":26430:26433   */\n      dup3\n        /* \"#utility.yul\":26421:26427   */\n      dup5\n        /* \"#utility.yul\":26339:26434   */\n      tag_214\n      jump\t// in\n    tag_486:\n        /* \"#utility.yul\":26332:26434   */\n      swap2\n      pop\n        /* \"#utility.yul\":26451:26454   */\n      dup2\n        /* \"#utility.yul\":26444:26454   */\n      swap1\n      pop\n        /* \"#utility.yul\":25724:26460   */\n      swap6\n      swap5\n      pop\n      pop\n      pop\n      pop\n      pop\n      jump\t// out\n        /* \"#utility.yul\":26466:27042   */\n    tag_54:\n        /* \"#utility.yul\":26674:26677   */\n      0x00\n        /* \"#utility.yul\":26696:26791   */\n      tag_488\n        /* \"#utility.yul\":26787:26790   */\n      dup3\n        /* \"#utility.yul\":26778:26784   */\n      dup7\n        /* \"#utility.yul\":26696:26791   */\n      tag_214\n      jump\t// in\n    tag_488:\n        /* \"#utility.yul\":26689:26791   */\n      swap2\n      pop\n        /* \"#utility.yul\":26801:26876   */\n      tag_489\n        /* \"#utility.yul\":26872:26875   */\n      dup3\n        /* \"#utility.yul\":26863:26869   */\n      dup6\n        /* \"#utility.yul\":26801:26876   */\n      tag_236\n      jump\t// in\n    tag_489:\n        /* \"#utility.yul\":26901:26903   */\n      0x20\n        /* \"#utility.yul\":26896:26899   */\n      dup3\n        /* \"#utility.yul\":26892:26904   */\n      add\n        /* \"#utility.yul\":26885:26904   */\n      swap2\n      pop\n        /* \"#utility.yul\":26921:27016   */\n      tag_490\n        /* \"#utility.yul\":27012:27015   */\n      dup3\n        /* \"#utility.yul\":27003:27009   */\n      dup5\n        /* \"#utility.yul\":26921:27016   */\n      tag_214\n      jump\t// in\n    tag_490:\n        /* \"#utility.yul\":26914:27016   */\n      swap2\n      pop\n        /* \"#utility.yul\":27033:27036   */\n      dup2\n        /* \"#utility.yul\":27026:27036   */\n      swap1\n      pop\n        /* \"#utility.yul\":26466:27042   */\n      swap5\n      swap4\n      pop\n      pop\n      pop\n      pop\n      jump\t// out\n        /* \"#utility.yul\":27048:27279   */\n    tag_237:\n        /* \"#utility.yul\":27188:27222   */\n      0x456974686572207175616c697479206f72207175616e746974792073686f756c\n        /* \"#utility.yul\":27184:27185   */\n      0x00\n        /* \"#utility.yul\":27176:27182   */\n      dup3\n        /* \"#utility.yul\":27172:27186   */\n      add\n        /* \"#utility.yul\":27165:27223   */\n      mstore\n        /* \"#utility.yul\":27257:27271   */\n      0x6420626520757064617465640000000000000000000000000000000000000000\n        /* \"#utility.yul\":27252:27254   */\n      0x20\n        /* \"#utility.yul\":27244:27250   */\n      dup3\n        /* \"#utility.yul\":27240:27255   */\n      add\n        /* \"#utility.yul\":27233:27272   */\n      mstore\n        /* \"#utility.yul\":27048:27279   */\n      pop\n      jump\t// out\n        /* \"#utility.yul\":27285:27651   */\n    tag_238:\n        /* \"#utility.yul\":27427:27430   */\n      0x00\n        /* \"#utility.yul\":27448:27515   */\n      tag_493\n        /* \"#utility.yul\":27512:27514   */\n      0x2c\n        /* \"#utility.yul\":27507:27510   */\n      dup4\n        /* \"#utility.yul\":27448:27515   */\n      tag_232\n      jump\t// in\n    tag_493:\n        /* \"#utility.yul\":27441:27515   */\n      swap2\n      pop\n        /* \"#utility.yul\":27524:27617   */\n      tag_494\n        /* \"#utility.yul\":27613:27616   */\n      dup3\n        /* \"#utility.yul\":27524:27617   */\n      tag_237\n      jump\t// in\n    tag_494:\n        /* \"#utility.yul\":27642:27644   */\n      0x40\n        /* \"#utility.yul\":27637:27640   */\n      dup3\n        /* \"#utility.yul\":27633:27645   */\n      add\n        /* \"#utility.yul\":27626:27645   */\n      swap1\n      pop\n        /* \"#utility.yul\":27285:27651   */\n      swap2\n      swap1\n      pop\n      jump\t// out\n        /* \"#utility.yul\":27657:28076   */\n    tag_60:\n        /* \"#utility.yul\":27823:27827   */\n      0x00\n        /* \"#utility.yul\":27861:27863   */\n      0x20\n        /* \"#utility.yul\":27850:27859   */\n      dup3\n        /* \"#utility.yul\":27846:27864   */\n      add\n        /* \"#utility.yul\":27838:27864   */\n      swap1\n      pop\n        /* \"#utility.yul\":27910:27919   */\n      dup2\n        /* \"#utility.yul\":27904:27908   */\n      dup2\n        /* \"#utility.yul\":27900:27920   */\n      sub\n        /* \"#utility.yul\":27896:27897   */\n      0x00\n        /* \"#utility.yul\":27885:27894   */\n      dup4\n        /* \"#utility.yul\":27881:27898   */\n      add\n        /* \"#utility.yul\":27874:27921   */\n      mstore\n        /* \"#utility.yul\":27938:28069   */\n      tag_496\n        /* \"#utility.yul\":28064:28068   */\n      dup2\n        /* \"#utility.yul\":27938:28069   */\n      tag_238\n      jump\t// in\n    tag_496:\n        /* \"#utility.yul\":27930:28069   */\n      swap1\n      pop\n        /* \"#utility.yul\":27657:28076   */\n      swap2\n      swap1\n      pop\n      jump\t// out\n        /* \"#utility.yul\":28082:28321   */\n    tag_239:\n        /* \"#utility.yul\":28222:28256   */\n      0x50726f647563742077697468206e6577207175616c69747920616e6420717561\n        /* \"#utility.yul\":28218:28219   */\n      0x00\n        /* \"#utility.yul\":28210:28216   */\n      dup3\n        /* \"#utility.yul\":28206:28220   */\n      add\n        /* \"#utility.yul\":28199:28257   */\n      mstore\n        /* \"#utility.yul\":28291:28313   */\n      0x6e7469747920616c726561647920657869737473000000000000000000000000\n        /* \"#utility.yul\":28286:28288   */\n      0x20\n        /* \"#utility.yul\":28278:28284   */\n      dup3\n        /* \"#utility.yul\":28274:28289   */\n      add\n        /* \"#utility.yul\":28267:28314   */\n      mstore\n        /* \"#utility.yul\":28082:28321   */\n      pop\n      jump\t// out\n        /* \"#utility.yul\":28327:28693   */\n    tag_240:\n        /* \"#utility.yul\":28469:28472   */\n      0x00\n        /* \"#utility.yul\":28490:28557   */\n      tag_499\n        /* \"#utility.yul\":28554:28556   */\n      0x34\n        /* \"#utility.yul\":28549:28552   */\n      dup4\n        /* \"#utility.yul\":28490:28557   */\n      tag_232\n      jump\t// in\n    tag_499:\n        /* \"#utility.yul\":28483:28557   */\n      swap2\n      pop\n        /* \"#utility.yul\":28566:28659   */\n      tag_500\n        /* \"#utility.yul\":28655:28658   */\n      dup3\n        /* \"#utility.yul\":28566:28659   */\n      tag_239\n      jump\t// in\n    tag_500:\n        /* \"#utility.yul\":28684:28686   */\n      0x40\n        /* \"#utility.yul\":28679:28682   */\n      dup3\n        /* \"#utility.yul\":28675:28687   */\n      add\n        /* \"#utility.yul\":28668:28687   */\n      swap1\n      pop\n        /* \"#utility.yul\":28327:28693   */\n      swap2\n      swap1\n      pop\n      jump\t// out\n        /* \"#utility.yul\":28699:29118   */\n    tag_64:\n        /* \"#utility.yul\":28865:28869   */\n      0x00\n        /* \"#utility.yul\":28903:28905   */\n      0x20\n        /* \"#utility.yul\":28892:28901   */\n      dup3\n        /* \"#utility.yul\":28888:28906   */\n      add\n        /* \"#utility.yul\":28880:28906   */\n      swap1\n      pop\n        /* \"#utility.yul\":28952:28961   */\n      dup2\n        /* \"#utility.yul\":28946:28950   */\n      dup2\n        /* \"#utility.yul\":28942:28962   */\n      sub\n        /* \"#utility.yul\":28938:28939   */\n      0x00\n        /* \"#utility.yul\":28927:28936   */\n      dup4\n        /* \"#utility.yul\":28923:28940   */\n      add\n        /* \"#utility.yul\":28916:28963   */\n      mstore\n        /* \"#utility.yul\":28980:29111   */\n      tag_502\n        /* \"#utility.yul\":29106:29110   */\n      dup2\n        /* \"#utility.yul\":28980:29111   */\n      tag_240\n      jump\t// in\n    tag_502:\n        /* \"#utility.yul\":28972:29111   */\n      swap1\n      pop\n        /* \"#utility.yul\":28699:29118   */\n      swap2\n      swap1\n      pop\n      jump\t// out\n        /* \"#utility.yul\":29124:29277   */\n    tag_241:\n        /* \"#utility.yul\":29177:29183   */\n      0x00\n        /* \"#utility.yul\":29211:29216   */\n      dup2\n        /* \"#utility.yul\":29205:29217   */\n      sload\n        /* \"#utility.yul\":29195:29217   */\n      swap1\n      pop\n        /* \"#utility.yul\":29237:29270   */\n      tag_504\n        /* \"#utility.yul\":29263:29269   */\n      dup2\n        /* \"#utility.yul\":29237:29270   */\n      tag_27\n      jump\t// in\n    tag_504:\n        /* \"#utility.yul\":29227:29270   */\n      swap1\n      pop\n        /* \"#utility.yul\":29124:29277   */\n      swap2\n      swap1\n      pop\n      jump\t// out\n        /* \"#utility.yul\":29283:29428   */\n    tag_242:\n        /* \"#utility.yul\":29336:29340   */\n      0x00\n        /* \"#utility.yul\":29359:29362   */\n      dup2\n        /* \"#utility.yul\":29351:29362   */\n      swap1\n      pop\n        /* \"#utility.yul\":29382:29385   */\n      dup2\n        /* \"#utility.yul\":29379:29380   */\n      0x00\n        /* \"#utility.yul\":29372:29386   */\n      mstore\n        /* \"#utility.yul\":29416:29420   */\n      0x20\n        /* \"#utility.yul\":29413:29414   */\n      0x00\n        /* \"#utility.yul\":29403:29421   */\n      keccak256\n        /* \"#utility.yul\":29395:29421   */\n      swap1\n      pop\n        /* \"#utility.yul\":29283:29428   */\n      swap2\n      swap1\n      pop\n      jump\t// out\n        /* \"#utility.yul\":29434:30897   */\n    tag_66:\n        /* \"#utility.yul\":29549:29552   */\n      dup2\n        /* \"#utility.yul\":29543:29547   */\n      dup2\n        /* \"#utility.yul\":29540:29553   */\n      sub\n        /* \"#utility.yul\":29537:29563   */\n      tag_507\n      jumpi\n        /* \"#utility.yul\":29556:29561   */\n      pop\n      pop\n      jump(tag_506)\n        /* \"#utility.yul\":29537:29563   */\n    tag_507:\n        /* \"#utility.yul\":29587:29625   */\n      tag_508\n        /* \"#utility.yul\":29621:29624   */\n      dup3\n        /* \"#utility.yul\":29587:29625   */\n      tag_241\n      jump\t// in\n    tag_508:\n        /* \"#utility.yul\":29690:29708   */\n      0xffffffffffffffff\n        /* \"#utility.yul\":29682:29688   */\n      dup2\n        /* \"#utility.yul\":29679:29709   */\n      gt\n        /* \"#utility.yul\":29676:29732   */\n      iszero\n      tag_509\n      jumpi\n        /* \"#utility.yul\":29712:29730   */\n      tag_510\n      tag_186\n      jump\t// in\n    tag_510:\n        /* \"#utility.yul\":29676:29732   */\n    tag_509:\n        /* \"#utility.yul\":29756:29794   */\n      tag_511\n        /* \"#utility.yul\":29788:29792   */\n      dup3\n        /* \"#utility.yul\":29782:29793   */\n      sload\n        /* \"#utility.yul\":29756:29794   */\n      tag_27\n      jump\t// in\n    tag_511:\n        /* \"#utility.yul\":29841:29908   */\n      tag_512\n        /* \"#utility.yul\":29901:29907   */\n      dup3\n        /* \"#utility.yul\":29893:29899   */\n      dup3\n        /* \"#utility.yul\":29887:29891   */\n      dup6\n        /* \"#utility.yul\":29841:29908   */\n      tag_228\n      jump\t// in\n    tag_512:\n        /* \"#utility.yul\":29935:29936   */\n      0x00\n        /* \"#utility.yul\":29964:29966   */\n      0x1f\n        /* \"#utility.yul\":29956:29962   */\n      dup4\n        /* \"#utility.yul\":29953:29967   */\n      gt\n        /* \"#utility.yul\":29981:29982   */\n      0x01\n        /* \"#utility.yul\":29976:30652   */\n      dup2\n      eq\n      tag_514\n      jumpi\n        /* \"#utility.yul\":30696:30697   */\n      0x00\n        /* \"#utility.yul\":30713:30719   */\n      dup5\n        /* \"#utility.yul\":30710:30787   */\n      iszero\n      tag_515\n      jumpi\n        /* \"#utility.yul\":30762:30771   */\n      dup3\n        /* \"#utility.yul\":30757:30760   */\n      dup8\n        /* \"#utility.yul\":30753:30772   */\n      add\n        /* \"#utility.yul\":30747:30773   */\n      sload\n        /* \"#utility.yul\":30738:30773   */\n      swap1\n      pop\n        /* \"#utility.yul\":30710:30787   */\n    tag_515:\n        /* \"#utility.yul\":30813:30880   */\n      tag_516\n        /* \"#utility.yul\":30873:30879   */\n      dup6\n        /* \"#utility.yul\":30866:30871   */\n      dup3\n        /* \"#utility.yul\":30813:30880   */\n      tag_231\n      jump\t// in\n    tag_516:\n        /* \"#utility.yul\":30807:30811   */\n      dup7\n        /* \"#utility.yul\":30800:30881   */\n      sstore\n        /* \"#utility.yul\":30669:30891   */\n      pop\n        /* \"#utility.yul\":29946:30891   */\n      jump(tag_513)\n        /* \"#utility.yul\":29976:30652   */\n    tag_514:\n        /* \"#utility.yul\":30028:30032   */\n      0x1f\n        /* \"#utility.yul\":30024:30033   */\n      not\n        /* \"#utility.yul\":30016:30022   */\n      dup5\n        /* \"#utility.yul\":30012:30034   */\n      and\n        /* \"#utility.yul\":30054:30094   */\n      tag_517\n        /* \"#utility.yul\":30090:30093   */\n      dup8\n        /* \"#utility.yul\":30054:30094   */\n      tag_242\n      jump\t// in\n    tag_517:\n        /* \"#utility.yul\":30047:30094   */\n      swap7\n      pop\n        /* \"#utility.yul\":30121:30158   */\n      tag_518\n        /* \"#utility.yul\":30153:30157   */\n      dup7\n        /* \"#utility.yul\":30121:30158   */\n      tag_216\n      jump\t// in\n    tag_518:\n        /* \"#utility.yul\":30180:30181   */\n      0x00\n        /* \"#utility.yul\":30194:30401   */\n    tag_519:\n        /* \"#utility.yul\":30208:30215   */\n      dup3\n        /* \"#utility.yul\":30205:30206   */\n      dup2\n        /* \"#utility.yul\":30202:30216   */\n      lt\n        /* \"#utility.yul\":30194:30401   */\n      iszero\n      tag_521\n      jumpi\n        /* \"#utility.yul\":30287:30296   */\n      dup5\n        /* \"#utility.yul\":30282:30285   */\n      dup10\n        /* \"#utility.yul\":30278:30297   */\n      add\n        /* \"#utility.yul\":30272:30298   */\n      sload\n        /* \"#utility.yul\":30264:30270   */\n      dup3\n        /* \"#utility.yul\":30257:30299   */\n      sstore\n        /* \"#utility.yul\":30338:30339   */\n      0x01\n        /* \"#utility.yul\":30330:30336   */\n      dup3\n        /* \"#utility.yul\":30326:30340   */\n      add\n        /* \"#utility.yul\":30316:30340   */\n      swap2\n      pop\n        /* \"#utility.yul\":30385:30386   */\n      0x01\n        /* \"#utility.yul\":30374:30383   */\n      dup6\n        /* \"#utility.yul\":30370:30387   */\n      add\n        /* \"#utility.yul\":30357:30387   */\n      swap5\n      pop\n        /* \"#utility.yul\":30231:30235   */\n      0x20\n        /* \"#utility.yul\":30228:30229   */\n      dup2\n        /* \"#utility.yul\":30224:30236   */\n      add\n        /* \"#utility.yul\":30219:30236   */\n      swap1\n      pop\n        /* \"#utility.yul\":30194:30401   */\n      jump(tag_519)\n    tag_521:\n        /* \"#utility.yul\":30429:30435   */\n      dup7\n        /* \"#utility.yul\":30420:30427   */\n      dup4\n        /* \"#utility.yul\":30417:30436   */\n      lt\n        /* \"#utility.yul\":30414:30593   */\n      iszero\n      tag_522\n      jumpi\n        /* \"#utility.yul\":30487:30496   */\n      dup5\n        /* \"#utility.yul\":30482:30485   */\n      dup10\n        /* \"#utility.yul\":30478:30497   */\n      add\n        /* \"#utility.yul\":30472:30498   */\n      sload\n        /* \"#utility.yul\":30530:30578   */\n      tag_523\n        /* \"#utility.yul\":30572:30576   */\n      0x1f\n        /* \"#utility.yul\":30564:30570   */\n      dup10\n        /* \"#utility.yul\":30560:30577   */\n      and\n        /* \"#utility.yul\":30549:30558   */\n      dup3\n        /* \"#utility.yul\":30530:30578   */\n      tag_230\n      jump\t// in\n    tag_523:\n        /* \"#utility.yul\":30522:30528   */\n      dup4\n        /* \"#utility.yul\":30515:30579   */\n      sstore\n        /* \"#utility.yul\":30437:30593   */\n      pop\n        /* \"#utility.yul\":30414:30593   */\n    tag_522:\n        /* \"#utility.yul\":30639:30640   */\n      0x01\n        /* \"#utility.yul\":30635:30636   */\n      0x02\n        /* \"#utility.yul\":30627:30633   */\n      dup9\n        /* \"#utility.yul\":30623:30637   */\n      mul\n        /* \"#utility.yul\":30619:30641   */\n      add\n        /* \"#utility.yul\":30613:30617   */\n      dup9\n        /* \"#utility.yul\":30606:30642   */\n      sstore\n        /* \"#utility.yul\":29983:30652   */\n      pop\n      pop\n      pop\n        /* \"#utility.yul\":29946:30891   */\n    tag_513:\n      pop\n        /* \"#utility.yul\":29527:30897   */\n      pop\n      pop\n      pop\n        /* \"#utility.yul\":29434:30897   */\n      pop\n      pop\n    tag_506:\n      jump\t// out\n        /* \"#utility.yul\":30903:31052   */\n    tag_243:\n        /* \"#utility.yul\":30952:30958   */\n      0x00\n        /* \"#utility.yul\":30986:30991   */\n      dup2\n        /* \"#utility.yul\":30980:30992   */\n      sload\n        /* \"#utility.yul\":30970:30992   */\n      swap1\n      pop\n        /* \"#utility.yul\":31012:31045   */\n      tag_525\n        /* \"#utility.yul\":31038:31044   */\n      dup2\n        /* \"#utility.yul\":31012:31045   */\n      tag_27\n      jump\t// in\n    tag_525:\n        /* \"#utility.yul\":31002:31045   */\n      swap1\n      pop\n        /* \"#utility.yul\":30903:31052   */\n      swap2\n      swap1\n      pop\n      jump\t// out\n        /* \"#utility.yul\":31058:32509   */\n    tag_85:\n        /* \"#utility.yul\":31169:31172   */\n      dup2\n        /* \"#utility.yul\":31163:31167   */\n      dup2\n        /* \"#utility.yul\":31160:31173   */\n      sub\n        /* \"#utility.yul\":31157:31183   */\n      tag_527\n      jumpi\n        /* \"#utility.yul\":31176:31181   */\n      pop\n      pop\n      jump(tag_526)\n        /* \"#utility.yul\":31157:31183   */\n    tag_527:\n        /* \"#utility.yul\":31207:31241   */\n      tag_528\n        /* \"#utility.yul\":31237:31240   */\n      dup3\n        /* \"#utility.yul\":31207:31241   */\n      tag_243\n      jump\t// in\n    tag_528:\n        /* \"#utility.yul\":31306:31324   */\n      0xffffffffffffffff\n        /* \"#utility.yul\":31298:31304   */\n      dup2\n        /* \"#utility.yul\":31295:31325   */\n      gt\n        /* \"#utility.yul\":31292:31348   */\n      iszero\n      tag_529\n      jumpi\n        /* \"#utility.yul\":31328:31346   */\n      tag_530\n      tag_186\n      jump\t// in\n    tag_530:\n        /* \"#utility.yul\":31292:31348   */\n    tag_529:\n        /* \"#utility.yul\":31372:31410   */\n      tag_531\n        /* \"#utility.yul\":31404:31408   */\n      dup3\n        /* \"#utility.yul\":31398:31409   */\n      sload\n        /* \"#utility.yul\":31372:31410   */\n      tag_27\n      jump\t// in\n    tag_531:\n        /* \"#utility.yul\":31457:31524   */\n      tag_532\n        /* \"#utility.yul\":31517:31523   */\n      dup3\n        /* \"#utility.yul\":31509:31515   */\n      dup3\n        /* \"#utility.yul\":31503:31507   */\n      dup6\n        /* \"#utility.yul\":31457:31524   */\n      tag_228\n      jump\t// in\n    tag_532:\n        /* \"#utility.yul\":31551:31552   */\n      0x00\n        /* \"#utility.yul\":31580:31582   */\n      0x1f\n        /* \"#utility.yul\":31572:31578   */\n      dup4\n        /* \"#utility.yul\":31569:31583   */\n      gt\n        /* \"#utility.yul\":31597:31598   */\n      0x01\n        /* \"#utility.yul\":31592:32264   */\n      dup2\n      eq\n      tag_534\n      jumpi\n        /* \"#utility.yul\":32308:32309   */\n      0x00\n        /* \"#utility.yul\":32325:32331   */\n      dup5\n        /* \"#utility.yul\":32322:32399   */\n      iszero\n      tag_535\n      jumpi\n        /* \"#utility.yul\":32374:32383   */\n      dup3\n        /* \"#utility.yul\":32369:32372   */\n      dup8\n        /* \"#utility.yul\":32365:32384   */\n      add\n        /* \"#utility.yul\":32359:32385   */\n      sload\n        /* \"#utility.yul\":32350:32385   */\n      swap1\n      pop\n        /* \"#utility.yul\":32322:32399   */\n    tag_535:\n        /* \"#utility.yul\":32425:32492   */\n      tag_536\n        /* \"#utility.yul\":32485:32491   */\n      dup6\n        /* \"#utility.yul\":32478:32483   */\n      dup3\n        /* \"#utility.yul\":32425:32492   */\n      tag_231\n      jump\t// in\n    tag_536:\n        /* \"#utility.yul\":32419:32423   */\n      dup7\n        /* \"#utility.yul\":32412:32493   */\n      sstore\n        /* \"#utility.yul\":32281:32503   */\n      pop\n        /* \"#utility.yul\":31562:32503   */\n      jump(tag_533)\n        /* \"#utility.yul\":31592:32264   */\n    tag_534:\n        /* \"#utility.yul\":31644:31648   */\n      0x1f\n        /* \"#utility.yul\":31640:31649   */\n      not\n        /* \"#utility.yul\":31632:31638   */\n      dup5\n        /* \"#utility.yul\":31628:31650   */\n      and\n        /* \"#utility.yul\":31670:31706   */\n      tag_537\n        /* \"#utility.yul\":31702:31705   */\n      dup8\n        /* \"#utility.yul\":31670:31706   */\n      tag_216\n      jump\t// in\n    tag_537:\n        /* \"#utility.yul\":31663:31706   */\n      swap7\n      pop\n        /* \"#utility.yul\":31733:31770   */\n      tag_538\n        /* \"#utility.yul\":31765:31769   */\n      dup7\n        /* \"#utility.yul\":31733:31770   */\n      tag_216\n      jump\t// in\n    tag_538:\n        /* \"#utility.yul\":31792:31793   */\n      0x00\n        /* \"#utility.yul\":31806:32013   */\n    tag_539:\n        /* \"#utility.yul\":31820:31827   */\n      dup3\n        /* \"#utility.yul\":31817:31818   */\n      dup2\n        /* \"#utility.yul\":31814:31828   */\n      lt\n        /* \"#utility.yul\":31806:32013   */\n      iszero\n      tag_541\n      jumpi\n        /* \"#utility.yul\":31899:31908   */\n      dup5\n        /* \"#utility.yul\":31894:31897   */\n      dup10\n        /* \"#utility.yul\":31890:31909   */\n      add\n        /* \"#utility.yul\":31884:31910   */\n      sload\n        /* \"#utility.yul\":31876:31882   */\n      dup3\n        /* \"#utility.yul\":31869:31911   */\n      sstore\n        /* \"#utility.yul\":31950:31951   */\n      0x01\n        /* \"#utility.yul\":31942:31948   */\n      dup3\n        /* \"#utility.yul\":31938:31952   */\n      add\n        /* \"#utility.yul\":31928:31952   */\n      swap2\n      pop\n        /* \"#utility.yul\":31997:31998   */\n      0x01\n        /* \"#utility.yul\":31986:31995   */\n      dup6\n        /* \"#utility.yul\":31982:31999   */\n      add\n        /* \"#utility.yul\":31969:31999   */\n      swap5\n      pop\n        /* \"#utility.yul\":31843:31847   */\n      0x20\n        /* \"#utility.yul\":31840:31841   */\n      dup2\n        /* \"#utility.yul\":31836:31848   */\n      add\n        /* \"#utility.yul\":31831:31848   */\n      swap1\n      pop\n        /* \"#utility.yul\":31806:32013   */\n      jump(tag_539)\n    tag_541:\n        /* \"#utility.yul\":32041:32047   */\n      dup7\n        /* \"#utility.yul\":32032:32039   */\n      dup4\n        /* \"#utility.yul\":32029:32048   */\n      lt\n        /* \"#utility.yul\":32026:32205   */\n      iszero\n      tag_542\n      jumpi\n        /* \"#utility.yul\":32099:32108   */\n      dup5\n        /* \"#utility.yul\":32094:32097   */\n      dup10\n        /* \"#utility.yul\":32090:32109   */\n      add\n        /* \"#utility.yul\":32084:32110   */\n      sload\n        /* \"#utility.yul\":32142:32190   */\n      tag_543\n        /* \"#utility.yul\":32184:32188   */\n      0x1f\n        /* \"#utility.yul\":32176:32182   */\n      dup10\n        /* \"#utility.yul\":32172:32189   */\n      and\n        /* \"#utility.yul\":32161:32170   */\n      dup3\n        /* \"#utility.yul\":32142:32190   */\n      tag_230\n      jump\t// in\n    tag_543:\n        /* \"#utility.yul\":32134:32140   */\n      dup4\n        /* \"#utility.yul\":32127:32191   */\n      sstore\n        /* \"#utility.yul\":32049:32205   */\n      pop\n        /* \"#utility.yul\":32026:32205   */\n    tag_542:\n        /* \"#utility.yul\":32251:32252   */\n      0x01\n        /* \"#utility.yul\":32247:32248   */\n      0x02\n        /* \"#utility.yul\":32239:32245   */\n      dup9\n        /* \"#utility.yul\":32235:32249   */\n      mul\n        /* \"#utility.yul\":32231:32253   */\n      add\n        /* \"#utility.yul\":32225:32229   */\n      dup9\n        /* \"#utility.yul\":32218:32254   */\n      sstore\n        /* \"#utility.yul\":31599:32264   */\n      pop\n      pop\n      pop\n        /* \"#utility.yul\":31562:32503   */\n    tag_533:\n      pop\n        /* \"#utility.yul\":31147:32509   */\n      pop\n      pop\n      pop\n        /* \"#utility.yul\":31058:32509   */\n      pop\n      pop\n    tag_526:\n      jump\t// out\n\n    auxdata: 0xa2646970667358221220945c7d457c5ba8c192de01a4627409086ee60006aa536bb47b4ad37dbec87e3864736f6c63430008120033\n}\n",
				"bytecode": {
					"linkReferences": {},
					"object": "608060405234801561001057600080fd5b50612074806100206000396000f3fe608060405234801561001057600080fd5b50600436106100415760003560e01c806392b0b6bf14610046578063a5d8ad9f14610076578063b74d3fb5146100a6575b600080fd5b610060600480360381019061005b9190611230565b6100d6565b60405161006d9190611471565b60405180910390f35b610090600480360381019061008b91906114b8565b6102fe565b60405161009d9190611471565b60405180910390f35b6100c060048036038101906100bb9190611573565b610731565b6040516100cd919061183c565b60405180910390f35b6000808c8c8c8c8c8c8c8c6040516020016100f898979695949392919061189a565b604051602081830303815290604052805190602001209050600080600083815260200190815260200160002060000180546101329061193b565b90501461014257809150506102ef565b6040518061012001604052808e81526020018d81526020018c81526020018b815260200160405180606001604052808c81526020018b81526020018a81525081526020018781526020018681526020018581526020018481525060008083815260200190815260200160002060008201518160000190816101c39190611b22565b5060208201518160010190816101d99190611b22565b5060408201518160020190816101ef9190611b22565b5060608201518160030190816102059190611b22565b5060808201518160040160008201518160000190816102249190611b22565b50602082015181600101908161023a9190611b22565b5060408201518160020190816102509190611b22565b50505060a08201518160070190816102689190611b22565b5060c082015181600801908161027e9190611b22565b5060e082015181600901908051906020019061029b929190610e46565b5061010082015181600a0190805190602001906102b9929190610e46565b50905050807f6c2de183f2a2faf4876f357e3c75bf6e6e7aa4dd120e8b5e1bdb2901e085f69c60405160405180910390a2809150505b9b9a5050505050505050505050565b600080600080878152602001908152602001600020905060008160000180546103269061193b565b905003610368576040517f08c379a000000000000000000000000000000000000000000000000000000000815260040161035f90611c51565b60405180910390fd5b600080855111801561037b575060008451115b156103b457858785876040516020016103979493929190611c92565b604051602081830303815290604052805190602001209050610469565b6000855111156103f0578587866040516020016103d393929190611cd4565b604051602081830303815290604052805190602001209050610468565b60008451111561042c5785878560405160200161040f93929190611cd4565b604051602081830303815290604052805190602001209050610467565b6040517f08c379a000000000000000000000000000000000000000000000000000000000815260040161045e90611d7b565b60405180910390fd5b5b5b6000806000838152602001908152602001600020600001805461048b9061193b565b9050146104cd576040517f08c379a00000000000000000000000000000000000000000000000000000000081526004016104c490611e0d565b60405180910390fd5b60008060008381526020019081526020016000209050826000018160000190816104f79190611e58565b508260010181600101908161050c9190611e58565b5060008551116105a8578260020180546105259061193b565b80601f01602080910402602001604051908101604052809291908181526020018280546105519061193b565b801561059e5780601f106105735761010080835404028352916020019161059e565b820191906000526020600020905b81548152906001019060200180831161058157829003601f168201915b50505050506105aa565b845b8160020190816105ba9190611b22565b506000865111610656578260030180546105d39061193b565b80601f01602080910402602001604051908101604052809291908181526020018280546105ff9061193b565b801561064c5780601f106106215761010080835404028352916020019161064c565b820191906000526020600020905b81548152906001019060200180831161062f57829003601f168201915b5050505050610658565b855b8160030190816106689190611b22565b508260040181600401600082018160000190816106859190611f56565b506001820181600101908161069a9190611f56565b50600282018160020190816106af9190611f56565b50905050826007018160070190816106c79190611e58565b5082600901816009019080546106de929190610e9f565b5082600a0181600a019080546106f5929190610e9f565b50817f6c2de183f2a2faf4876f357e3c75bf6e6e7aa4dd120e8b5e1bdb2901e085f69c60405160405180910390a2819350505050949350505050565b610739610efc565b600080838152602001908152602001600020604051806101200160405290816000820180546107679061193b565b80601f01602080910402602001604051908101604052809291908181526020018280546107939061193b565b80156107e05780601f106107b5576101008083540402835291602001916107e0565b820191906000526020600020905b8154815290600101906020018083116107c357829003601f168201915b505050505081526020016001820180546107f99061193b565b80601f01602080910402602001604051908101604052809291908181526020018280546108259061193b565b80156108725780601f1061084757610100808354040283529160200191610872565b820191906000526020600020905b81548152906001019060200180831161085557829003601f168201915b5050505050815260200160028201805461088b9061193b565b80601f01602080910402602001604051908101604052809291908181526020018280546108b79061193b565b80156109045780601f106108d957610100808354040283529160200191610904565b820191906000526020600020905b8154815290600101906020018083116108e757829003601f168201915b5050505050815260200160038201805461091d9061193b565b80601f01602080910402602001604051908101604052809291908181526020018280546109499061193b565b80156109965780601f1061096b57610100808354040283529160200191610996565b820191906000526020600020905b81548152906001019060200180831161097957829003601f168201915b50505050508152602001600482016040518060600160405290816000820180546109bf9061193b565b80601f01602080910402602001604051908101604052809291908181526020018280546109eb9061193b565b8015610a385780601f10610a0d57610100808354040283529160200191610a38565b820191906000526020600020905b815481529060010190602001808311610a1b57829003601f168201915b50505050508152602001600182018054610a519061193b565b80601f0160208091040260200160405190810160405280929190818152602001828054610a7d9061193b565b8015610aca5780601f10610a9f57610100808354040283529160200191610aca565b820191906000526020600020905b815481529060010190602001808311610aad57829003601f168201915b50505050508152602001600282018054610ae39061193b565b80601f0160208091040260200160405190810160405280929190818152602001828054610b0f9061193b565b8015610b5c5780601f10610b3157610100808354040283529160200191610b5c565b820191906000526020600020905b815481529060010190602001808311610b3f57829003601f168201915b5050505050815250508152602001600782018054610b799061193b565b80601f0160208091040260200160405190810160405280929190818152602001828054610ba59061193b565b8015610bf25780601f10610bc757610100808354040283529160200191610bf2565b820191906000526020600020905b815481529060010190602001808311610bd557829003601f168201915b50505050508152602001600882018054610c0b9061193b565b80601f0160208091040260200160405190810160405280929190818152602001828054610c379061193b565b8015610c845780601f10610c5957610100808354040283529160200191610c84565b820191906000526020600020905b815481529060010190602001808311610c6757829003601f168201915b5050505050815260200160098201805480602002602001604051908101604052809291908181526020016000905b82821015610d5e578382906000526020600020018054610cd19061193b565b80601f0160208091040260200160405190810160405280929190818152602001828054610cfd9061193b565b8015610d4a5780601f10610d1f57610100808354040283529160200191610d4a565b820191906000526020600020905b815481529060010190602001808311610d2d57829003601f168201915b505050505081526020019060010190610cb2565b505050508152602001600a8201805480602002602001604051908101604052809291908181526020016000905b82821015610e37578382906000526020600020018054610daa9061193b565b80601f0160208091040260200160405190810160405280929190818152602001828054610dd69061193b565b8015610e235780601f10610df857610100808354040283529160200191610e23565b820191906000526020600020905b815481529060010190602001808311610e0657829003601f168201915b505050505081526020019060010190610d8b565b50505050815250509050919050565b828054828255906000526020600020908101928215610e8e579160200282015b82811115610e8d578251829081610e7d9190611b22565b5091602001919060010190610e66565b5b509050610e9b9190610f4e565b5090565b828054828255906000526020600020908101928215610eeb5760005260206000209182015b82811115610eea5782829081610eda9190611f56565b5091600101919060010190610ec4565b5b509050610ef89190610f4e565b5090565b60405180610120016040528060608152602001606081526020016060815260200160608152602001610f2c610f72565b8152602001606081526020016060815260200160608152602001606081525090565b5b80821115610f6e5760008181610f659190610f93565b50600101610f4f565b5090565b60405180606001604052806060815260200160608152602001606081525090565b508054610f9f9061193b565b6000825580601f10610fb15750610fd0565b601f016020900490600052602060002090810190610fcf9190610fd3565b5b50565b5b80821115610fec576000816000905550600101610fd4565b5090565b6000604051905090565b600080fd5b600080fd5b600080fd5b600080fd5b6000601f19601f8301169050919050565b7f4e487b7100000000000000000000000000000000000000000000000000000000600052604160045260246000fd5b6110578261100e565b810181811067ffffffffffffffff821117156110765761107561101f565b5b80604052505050565b6000611089610ff0565b9050611095828261104e565b919050565b600067ffffffffffffffff8211156110b5576110b461101f565b5b6110be8261100e565b9050602081019050919050565b82818337600083830152505050565b60006110ed6110e88461109a565b61107f565b90508281526020810184848401111561110957611108611009565b5b6111148482856110cb565b509392505050565b600082601f83011261113157611130611004565b5b81356111418482602086016110da565b91505092915050565b600067ffffffffffffffff8211156111655761116461101f565b5b602082029050602081019050919050565b600080fd5b600061118e6111898461114a565b61107f565b905080838252602082019050602084028301858111156111b1576111b0611176565b5b835b818110156111f857803567ffffffffffffffff8111156111d6576111d5611004565b5b8086016111e3898261111c565b855260208501945050506020810190506111b3565b5050509392505050565b600082601f83011261121757611216611004565b5b813561122784826020860161117b565b91505092915050565b60008060008060008060008060008060006101608c8e03121561125657611255610ffa565b5b60008c013567ffffffffffffffff81111561127457611273610fff565b5b6112808e828f0161111c565b9b505060208c013567ffffffffffffffff8111156112a1576112a0610fff565b5b6112ad8e828f0161111c565b9a505060408c013567ffffffffffffffff8111156112ce576112cd610fff565b5b6112da8e828f0161111c565b99505060608c013567ffffffffffffffff8111156112fb576112fa610fff565b5b6113078e828f0161111c565b98505060808c013567ffffffffffffffff81111561132857611327610fff565b5b6113348e828f0161111c565b97505060a08c013567ffffffffffffffff81111561135557611354610fff565b5b6113618e828f0161111c565b96505060c08c013567ffffffffffffffff81111561138257611381610fff565b5b61138e8e828f0161111c565b95505060e08c013567ffffffffffffffff8111156113af576113ae610fff565b5b6113bb8e828f0161111c565b9450506101008c013567ffffffffffffffff8111156113dd576113dc610fff565b5b6113e98e828f0161111c565b9350506101208c013567ffffffffffffffff81111561140b5761140a610fff565b5b6114178e828f01611202565b9250506101408c013567ffffffffffffffff81111561143957611438610fff565b5b6114458e828f01611202565b9150509295989b509295989b9093969950565b6000819050919050565b61146b81611458565b82525050565b60006020820190506114866000830184611462565b92915050565b61149581611458565b81146114a057600080fd5b50565b6000813590506114b28161148c565b92915050565b600080600080608085870312156114d2576114d1610ffa565b5b60006114e0878288016114a3565b945050602085013567ffffffffffffffff81111561150157611500610fff565b5b61150d8782880161111c565b935050604085013567ffffffffffffffff81111561152e5761152d610fff565b5b61153a8782880161111c565b925050606085013567ffffffffffffffff81111561155b5761155a610fff565b5b6115678782880161111c565b91505092959194509250565b60006020828403121561158957611588610ffa565b5b6000611597848285016114a3565b91505092915050565b600081519050919050565b600082825260208201905092915050565b60005b838110156115da5780820151818401526020810190506115bf565b60008484015250505050565b60006115f1826115a0565b6115fb81856115ab565b935061160b8185602086016115bc565b6116148161100e565b840191505092915050565b6000606083016000830151848203600086015261163c82826115e6565b9150506020830151848203602086015261165682826115e6565b9150506040830151848203604086015261167082826115e6565b9150508091505092915050565b600081519050919050565b600082825260208201905092915050565b6000819050602082019050919050565b60006116b583836115e6565b905092915050565b6000602082019050919050565b60006116d58261167d565b6116df8185611688565b9350836020820285016116f185611699565b8060005b8581101561172d578484038952815161170e85826116a9565b9450611719836116bd565b925060208a019950506001810190506116f5565b50829750879550505050505092915050565b600061012083016000830151848203600086015261175d82826115e6565b9150506020830151848203602086015261177782826115e6565b9150506040830151848203604086015261179182826115e6565b915050606083015184820360608601526117ab82826115e6565b915050608083015184820360808601526117c5828261161f565b91505060a083015184820360a08601526117df82826115e6565b91505060c083015184820360c08601526117f982826115e6565b91505060e083015184820360e086015261181382826116ca565b91505061010083015184820361010086015261182f82826116ca565b9150508091505092915050565b60006020820190508181036000830152611856818461173f565b905092915050565b600081905092915050565b6000611874826115a0565b61187e818561185e565b935061188e8185602086016115bc565b80840191505092915050565b60006118a6828b611869565b91506118b2828a611869565b91506118be8289611869565b91506118ca8288611869565b91506118d68287611869565b91506118e28286611869565b91506118ee8285611869565b91506118fa8284611869565b91508190509998505050505050505050565b7f4e487b7100000000000000000000000000000000000000000000000000000000600052602260045260246000fd5b6000600282049050600182168061195357607f821691505b6020821081036119665761196561190c565b5b50919050565b60008190508160005260206000209050919050565b60006020601f8301049050919050565b600082821b905092915050565b6000600883026119ce7fffffffffffffffffffffffffffffffffffffffffffffffffffffffffffffffff82611991565b6119d88683611991565b95508019841693508086168417925050509392505050565b6000819050919050565b6000819050919050565b6000611a1f611a1a611a15846119f0565b6119fa565b6119f0565b9050919050565b6000819050919050565b611a3983611a04565b611a4d611a4582611a26565b84845461199e565b825550505050565b600090565b611a62611a55565b611a6d818484611a30565b505050565b5b81811015611a9157611a86600082611a5a565b600181019050611a73565b5050565b601f821115611ad657611aa78161196c565b611ab084611981565b81016020851015611abf578190505b611ad3611acb85611981565b830182611a72565b50505b505050565b600082821c905092915050565b6000611af960001984600802611adb565b1980831691505092915050565b6000611b128383611ae8565b9150826002028217905092915050565b611b2b826115a0565b67ffffffffffffffff811115611b4457611b4361101f565b5b611b4e825461193b565b611b59828285611a95565b600060209050601f831160018114611b8c5760008415611b7a578287015190505b611b848582611b06565b865550611bec565b601f198416611b9a8661196c565b60005b82811015611bc257848901518255600182019150602085019450602081019050611b9d565b86831015611bdf5784890151611bdb601f891682611ae8565b8355505b6001600288020188555050505b505050505050565b600082825260208201905092915050565b7f50726f6475637420646f6573206e6f7420657869737400000000000000000000600082015250565b6000611c3b601683611bf4565b9150611c4682611c05565b602082019050919050565b60006020820190508181036000830152611c6a81611c2e565b9050919050565b6000819050919050565b611c8c611c8782611458565b611c71565b82525050565b6000611c9e8287611869565b9150611caa8286611c7b565b602082019150611cba8285611869565b9150611cc68284611869565b915081905095945050505050565b6000611ce08286611869565b9150611cec8285611c7b565b602082019150611cfc8284611869565b9150819050949350505050565b7f456974686572207175616c697479206f72207175616e746974792073686f756c60008201527f6420626520757064617465640000000000000000000000000000000000000000602082015250565b6000611d65602c83611bf4565b9150611d7082611d09565b604082019050919050565b60006020820190508181036000830152611d9481611d58565b9050919050565b7f50726f647563742077697468206e6577207175616c69747920616e642071756160008201527f6e7469747920616c726561647920657869737473000000000000000000000000602082015250565b6000611df7603483611bf4565b9150611e0282611d9b565b604082019050919050565b60006020820190508181036000830152611e2681611dea565b9050919050565b600081549050611e3c8161193b565b9050919050565b60008190508160005260206000209050919050565b818103611e66575050611f3e565b611e6f82611e2d565b67ffffffffffffffff811115611e8857611e8761101f565b5b611e92825461193b565b611e9d828285611a95565b6000601f831160018114611ecc5760008415611eba578287015490505b611ec48582611b06565b865550611f37565b601f198416611eda87611e43565b9650611ee58661196c565b60005b82811015611f0d57848901548255600182019150600185019450602081019050611ee8565b86831015611f2a5784890154611f26601f891682611ae8565b8355505b6001600288020188555050505b5050505050505b565b600081549050611f4f8161193b565b9050919050565b818103611f6457505061203c565b611f6d82611f40565b67ffffffffffffffff811115611f8657611f8561101f565b5b611f90825461193b565b611f9b828285611a95565b6000601f831160018114611fca5760008415611fb8578287015490505b611fc28582611b06565b865550612035565b601f198416611fd88761196c565b9650611fe38661196c565b60005b8281101561200b57848901548255600182019150600185019450602081019050611fe6565b868310156120285784890154612024601f891682611ae8565b8355505b6001600288020188555050505b5050505050505b56fea2646970667358221220945c7d457c5ba8c192de01a4627409086ee60006aa536bb47b4ad37dbec87e3864736f6c63430008120033",
					"opcodes": "PUSH1 0x80 PUSH1 0x40 MSTORE CALLVALUE DUP1 ISZERO PUSH2 0x10 JUMPI PUSH1 0x0 DUP1 REVERT JUMPDEST POP PUSH2 0x2074 DUP1 PUSH2 0x20 PUSH1 0x0 CODECOPY PUSH1 0x0 RETURN INVALID PUSH1 0x80 PUSH1 0x40 MSTORE CALLVALUE DUP1 ISZERO PUSH2 0x10 JUMPI PUSH1 0x0 DUP1 REVERT JUMPDEST POP PUSH1 0x4 CALLDATASIZE LT PUSH2 0x41 JUMPI PUSH1 0x0 CALLDATALOAD PUSH1 0xE0 SHR DUP1 PUSH4 0x92B0B6BF EQ PUSH2 0x46 JUMPI DUP1 PUSH4 0xA5D8AD9F EQ PUSH2 0x76 JUMPI DUP1 PUSH4 0xB74D3FB5 EQ PUSH2 0xA6 JUMPI JUMPDEST PUSH1 0x0 DUP1 REVERT JUMPDEST PUSH2 0x60 PUSH1 0x4 DUP1 CALLDATASIZE SUB DUP2 ADD SWAP1 PUSH2 0x5B SWAP2 SWAP1 PUSH2 0x1230 JUMP JUMPDEST PUSH2 0xD6 JUMP JUMPDEST PUSH1 0x40 MLOAD PUSH2 0x6D SWAP2 SWAP1 PUSH2 0x1471 JUMP JUMPDEST PUSH1 0x40 MLOAD DUP1 SWAP2 SUB SWAP1 RETURN JUMPDEST PUSH2 0x90 PUSH1 0x4 DUP1 CALLDATASIZE SUB DUP2 ADD SWAP1 PUSH2 0x8B SWAP2 SWAP1 PUSH2 0x14B8 JUMP JUMPDEST PUSH2 0x2FE JUMP JUMPDEST PUSH1 0x40 MLOAD PUSH2 0x9D SWAP2 SWAP1 PUSH2 0x1471 JUMP JUMPDEST PUSH1 0x40 MLOAD DUP1 SWAP2 SUB SWAP1 RETURN JUMPDEST PUSH2 0xC0 PUSH1 0x4 DUP1 CALLDATASIZE SUB DUP2 ADD SWAP1 PUSH2 0xBB SWAP2 SWAP1 PUSH2 0x1573 JUMP JUMPDEST PUSH2 0x731 JUMP JUMPDEST PUSH1 0x40 MLOAD PUSH2 0xCD SWAP2 SWAP1 PUSH2 0x183C JUMP JUMPDEST PUSH1 0x40 MLOAD DUP1 SWAP2 SUB SWAP1 RETURN JUMPDEST PUSH1 0x0 DUP1 DUP13 DUP13 DUP13 DUP13 DUP13 DUP13 DUP13 DUP13 PUSH1 0x40 MLOAD PUSH1 0x20 ADD PUSH2 0xF8 SWAP9 SWAP8 SWAP7 SWAP6 SWAP5 SWAP4 SWAP3 SWAP2 SWAP1 PUSH2 0x189A JUMP JUMPDEST PUSH1 0x40 MLOAD PUSH1 0x20 DUP2 DUP4 SUB SUB DUP2 MSTORE SWAP1 PUSH1 0x40 MSTORE DUP1 MLOAD SWAP1 PUSH1 0x20 ADD KECCAK256 SWAP1 POP PUSH1 0x0 DUP1 PUSH1 0x0 DUP4 DUP2 MSTORE PUSH1 0x20 ADD SWAP1 DUP2 MSTORE PUSH1 0x20 ADD PUSH1 0x0 KECCAK256 PUSH1 0x0 ADD DUP1 SLOAD PUSH2 0x132 SWAP1 PUSH2 0x193B JUMP JUMPDEST SWAP1 POP EQ PUSH2 0x142 JUMPI DUP1 SWAP2 POP POP PUSH2 0x2EF JUMP JUMPDEST PUSH1 0x40 MLOAD DUP1 PUSH2 0x120 ADD PUSH1 0x40 MSTORE DUP1 DUP15 DUP2 MSTORE PUSH1 0x20 ADD DUP14 DUP2 MSTORE PUSH1 0x20 ADD DUP13 DUP2 MSTORE PUSH1 0x20 ADD DUP12 DUP2 MSTORE PUSH1 0x20 ADD PUSH1 0x40 MLOAD DUP1 PUSH1 0x60 ADD PUSH1 0x40 MSTORE DUP1 DUP13 DUP2 MSTORE PUSH1 0x20 ADD DUP12 DUP2 MSTORE PUSH1 0x20 ADD DUP11 DUP2 MSTORE POP DUP2 MSTORE PUSH1 0x20 ADD DUP8 DUP2 MSTORE PUSH1 0x20 ADD DUP7 DUP2 MSTORE PUSH1 0x20 ADD DUP6 DUP2 MSTORE PUSH1 0x20 ADD DUP5 DUP2 MSTORE POP PUSH1 0x0 DUP1 DUP4 DUP2 MSTORE PUSH1 0x20 ADD SWAP1 DUP2 MSTORE PUSH1 0x20 ADD PUSH1 0x0 KECCAK256 PUSH1 0x0 DUP3 ADD MLOAD DUP2 PUSH1 0x0 ADD SWAP1 DUP2 PUSH2 0x1C3 SWAP2 SWAP1 PUSH2 0x1B22 JUMP JUMPDEST POP PUSH1 0x20 DUP3 ADD MLOAD DUP2 PUSH1 0x1 ADD SWAP1 DUP2 PUSH2 0x1D9 SWAP2 SWAP1 PUSH2 0x1B22 JUMP JUMPDEST POP PUSH1 0x40 DUP3 ADD MLOAD DUP2 PUSH1 0x2 ADD SWAP1 DUP2 PUSH2 0x1EF SWAP2 SWAP1 PUSH2 0x1B22 JUMP JUMPDEST POP PUSH1 0x60 DUP3 ADD MLOAD DUP2 PUSH1 0x3 ADD SWAP1 DUP2 PUSH2 0x205 SWAP2 SWAP1 PUSH2 0x1B22 JUMP JUMPDEST POP PUSH1 0x80 DUP3 ADD MLOAD DUP2 PUSH1 0x4 ADD PUSH1 0x0 DUP3 ADD MLOAD DUP2 PUSH1 0x0 ADD SWAP1 DUP2 PUSH2 0x224 SWAP2 SWAP1 PUSH2 0x1B22 JUMP JUMPDEST POP PUSH1 0x20 DUP3 ADD MLOAD DUP2 PUSH1 0x1 ADD SWAP1 DUP2 PUSH2 0x23A SWAP2 SWAP1 PUSH2 0x1B22 JUMP JUMPDEST POP PUSH1 0x40 DUP3 ADD MLOAD DUP2 PUSH1 0x2 ADD SWAP1 DUP2 PUSH2 0x250 SWAP2 SWAP1 PUSH2 0x1B22 JUMP JUMPDEST POP POP POP PUSH1 0xA0 DUP3 ADD MLOAD DUP2 PUSH1 0x7 ADD SWAP1 DUP2 PUSH2 0x268 SWAP2 SWAP1 PUSH2 0x1B22 JUMP JUMPDEST POP PUSH1 0xC0 DUP3 ADD MLOAD DUP2 PUSH1 0x8 ADD SWAP1 DUP2 PUSH2 0x27E SWAP2 SWAP1 PUSH2 0x1B22 JUMP JUMPDEST POP PUSH1 0xE0 DUP3 ADD MLOAD DUP2 PUSH1 0x9 ADD SWAP1 DUP1 MLOAD SWAP1 PUSH1 0x20 ADD SWAP1 PUSH2 0x29B SWAP3 SWAP2 SWAP1 PUSH2 0xE46 JUMP JUMPDEST POP PUSH2 0x100 DUP3 ADD MLOAD DUP2 PUSH1 0xA ADD SWAP1 DUP1 MLOAD SWAP1 PUSH1 0x20 ADD SWAP1 PUSH2 0x2B9 SWAP3 SWAP2 SWAP1 PUSH2 0xE46 JUMP JUMPDEST POP SWAP1 POP POP DUP1 PUSH32 0x6C2DE183F2A2FAF4876F357E3C75BF6E6E7AA4DD120E8B5E1BDB2901E085F69C PUSH1 0x40 MLOAD PUSH1 0x40 MLOAD DUP1 SWAP2 SUB SWAP1 LOG2 DUP1 SWAP2 POP POP JUMPDEST SWAP12 SWAP11 POP POP POP POP POP POP POP POP POP POP POP JUMP JUMPDEST PUSH1 0x0 DUP1 PUSH1 0x0 DUP1 DUP8 DUP2 MSTORE PUSH1 0x20 ADD SWAP1 DUP2 MSTORE PUSH1 0x20 ADD PUSH1 0x0 KECCAK256 SWAP1 POP PUSH1 0x0 DUP2 PUSH1 0x0 ADD DUP1 SLOAD PUSH2 0x326 SWAP1 PUSH2 0x193B JUMP JUMPDEST SWAP1 POP SUB PUSH2 0x368 JUMPI PUSH1 0x40 MLOAD PUSH32 0x8C379A000000000000000000000000000000000000000000000000000000000 DUP2 MSTORE PUSH1 0x4 ADD PUSH2 0x35F SWAP1 PUSH2 0x1C51 JUMP JUMPDEST PUSH1 0x40 MLOAD DUP1 SWAP2 SUB SWAP1 REVERT JUMPDEST PUSH1 0x0 DUP1 DUP6 MLOAD GT DUP1 ISZERO PUSH2 0x37B JUMPI POP PUSH1 0x0 DUP5 MLOAD GT JUMPDEST ISZERO PUSH2 0x3B4 JUMPI DUP6 DUP8 DUP6 DUP8 PUSH1 0x40 MLOAD PUSH1 0x20 ADD PUSH2 0x397 SWAP5 SWAP4 SWAP3 SWAP2 SWAP1 PUSH2 0x1C92 JUMP JUMPDEST PUSH1 0x40 MLOAD PUSH1 0x20 DUP2 DUP4 SUB SUB DUP2 MSTORE SWAP1 PUSH1 0x40 MSTORE DUP1 MLOAD SWAP1 PUSH1 0x20 ADD KECCAK256 SWAP1 POP PUSH2 0x469 JUMP JUMPDEST PUSH1 0x0 DUP6 MLOAD GT ISZERO PUSH2 0x3F0 JUMPI DUP6 DUP8 DUP7 PUSH1 0x40 MLOAD PUSH1 0x20 ADD PUSH2 0x3D3 SWAP4 SWAP3 SWAP2 SWAP1 PUSH2 0x1CD4 JUMP JUMPDEST PUSH1 0x40 MLOAD PUSH1 0x20 DUP2 DUP4 SUB SUB DUP2 MSTORE SWAP1 PUSH1 0x40 MSTORE DUP1 MLOAD SWAP1 PUSH1 0x20 ADD KECCAK256 SWAP1 POP PUSH2 0x468 JUMP JUMPDEST PUSH1 0x0 DUP5 MLOAD GT ISZERO PUSH2 0x42C JUMPI DUP6 DUP8 DUP6 PUSH1 0x40 MLOAD PUSH1 0x20 ADD PUSH2 0x40F SWAP4 SWAP3 SWAP2 SWAP1 PUSH2 0x1CD4 JUMP JUMPDEST PUSH1 0x40 MLOAD PUSH1 0x20 DUP2 DUP4 SUB SUB DUP2 MSTORE SWAP1 PUSH1 0x40 MSTORE DUP1 MLOAD SWAP1 PUSH1 0x20 ADD KECCAK256 SWAP1 POP PUSH2 0x467 JUMP JUMPDEST PUSH1 0x40 MLOAD PUSH32 0x8C379A000000000000000000000000000000000000000000000000000000000 DUP2 MSTORE PUSH1 0x4 ADD PUSH2 0x45E SWAP1 PUSH2 0x1D7B JUMP JUMPDEST PUSH1 0x40 MLOAD DUP1 SWAP2 SUB SWAP1 REVERT JUMPDEST JUMPDEST JUMPDEST PUSH1 0x0 DUP1 PUSH1 0x0 DUP4 DUP2 MSTORE PUSH1 0x20 ADD SWAP1 DUP2 MSTORE PUSH1 0x20 ADD PUSH1 0x0 KECCAK256 PUSH1 0x0 ADD DUP1 SLOAD PUSH2 0x48B SWAP1 PUSH2 0x193B JUMP JUMPDEST SWAP1 POP EQ PUSH2 0x4CD JUMPI PUSH1 0x40 MLOAD PUSH32 0x8C379A000000000000000000000000000000000000000000000000000000000 DUP2 MSTORE PUSH1 0x4 ADD PUSH2 0x4C4 SWAP1 PUSH2 0x1E0D JUMP JUMPDEST PUSH1 0x40 MLOAD DUP1 SWAP2 SUB SWAP1 REVERT JUMPDEST PUSH1 0x0 DUP1 PUSH1 0x0 DUP4 DUP2 MSTORE PUSH1 0x20 ADD SWAP1 DUP2 MSTORE PUSH1 0x20 ADD PUSH1 0x0 KECCAK256 SWAP1 POP DUP3 PUSH1 0x0 ADD DUP2 PUSH1 0x0 ADD SWAP1 DUP2 PUSH2 0x4F7 SWAP2 SWAP1 PUSH2 0x1E58 JUMP JUMPDEST POP DUP3 PUSH1 0x1 ADD DUP2 PUSH1 0x1 ADD SWAP1 DUP2 PUSH2 0x50C SWAP2 SWAP1 PUSH2 0x1E58 JUMP JUMPDEST POP PUSH1 0x0 DUP6 MLOAD GT PUSH2 0x5A8 JUMPI DUP3 PUSH1 0x2 ADD DUP1 SLOAD PUSH2 0x525 SWAP1 PUSH2 0x193B JUMP JUMPDEST DUP1 PUSH1 0x1F ADD PUSH1 0x20 DUP1 SWAP2 DIV MUL PUSH1 0x20 ADD PUSH1 0x40 MLOAD SWAP1 DUP2 ADD PUSH1 0x40 MSTORE DUP1 SWAP3 SWAP2 SWAP1 DUP2 DUP2 MSTORE PUSH1 0x20 ADD DUP3 DUP1 SLOAD PUSH2 0x551 SWAP1 PUSH2 0x193B JUMP JUMPDEST DUP1 ISZERO PUSH2 0x59E JUMPI DUP1 PUSH1 0x1F LT PUSH2 0x573 JUMPI PUSH2 0x100 DUP1 DUP4 SLOAD DIV MUL DUP4 MSTORE SWAP2 PUSH1 0x20 ADD SWAP2 PUSH2 0x59E JUMP JUMPDEST DUP3 ADD SWAP2 SWAP1 PUSH1 0x0 MSTORE PUSH1 0x20 PUSH1 0x0 KECCAK256 SWAP1 JUMPDEST DUP2 SLOAD DUP2 MSTORE SWAP1 PUSH1 0x1 ADD SWAP1 PUSH1 0x20 ADD DUP1 DUP4 GT PUSH2 0x581 JUMPI DUP3 SWAP1 SUB PUSH1 0x1F AND DUP3 ADD SWAP2 JUMPDEST POP POP POP POP POP PUSH2 0x5AA JUMP JUMPDEST DUP5 JUMPDEST DUP2 PUSH1 0x2 ADD SWAP1 DUP2 PUSH2 0x5BA SWAP2 SWAP1 PUSH2 0x1B22 JUMP JUMPDEST POP PUSH1 0x0 DUP7 MLOAD GT PUSH2 0x656 JUMPI DUP3 PUSH1 0x3 ADD DUP1 SLOAD PUSH2 0x5D3 SWAP1 PUSH2 0x193B JUMP JUMPDEST DUP1 PUSH1 0x1F ADD PUSH1 0x20 DUP1 SWAP2 DIV MUL PUSH1 0x20 ADD PUSH1 0x40 MLOAD SWAP1 DUP2 ADD PUSH1 0x40 MSTORE DUP1 SWAP3 SWAP2 SWAP1 DUP2 DUP2 MSTORE PUSH1 0x20 ADD DUP3 DUP1 SLOAD PUSH2 0x5FF SWAP1 PUSH2 0x193B JUMP JUMPDEST DUP1 ISZERO PUSH2 0x64C JUMPI DUP1 PUSH1 0x1F LT PUSH2 0x621 JUMPI PUSH2 0x100 DUP1 DUP4 SLOAD DIV MUL DUP4 MSTORE SWAP2 PUSH1 0x20 ADD SWAP2 PUSH2 0x64C JUMP JUMPDEST DUP3 ADD SWAP2 SWAP1 PUSH1 0x0 MSTORE PUSH1 0x20 PUSH1 0x0 KECCAK256 SWAP1 JUMPDEST DUP2 SLOAD DUP2 MSTORE SWAP1 PUSH1 0x1 ADD SWAP1 PUSH1 0x20 ADD DUP1 DUP4 GT PUSH2 0x62F JUMPI DUP3 SWAP1 SUB PUSH1 0x1F AND DUP3 ADD SWAP2 JUMPDEST POP POP POP POP POP PUSH2 0x658 JUMP JUMPDEST DUP6 JUMPDEST DUP2 PUSH1 0x3 ADD SWAP1 DUP2 PUSH2 0x668 SWAP2 SWAP1 PUSH2 0x1B22 JUMP JUMPDEST POP DUP3 PUSH1 0x4 ADD DUP2 PUSH1 0x4 ADD PUSH1 0x0 DUP3 ADD DUP2 PUSH1 0x0 ADD SWAP1 DUP2 PUSH2 0x685 SWAP2 SWAP1 PUSH2 0x1F56 JUMP JUMPDEST POP PUSH1 0x1 DUP3 ADD DUP2 PUSH1 0x1 ADD SWAP1 DUP2 PUSH2 0x69A SWAP2 SWAP1 PUSH2 0x1F56 JUMP JUMPDEST POP PUSH1 0x2 DUP3 ADD DUP2 PUSH1 0x2 ADD SWAP1 DUP2 PUSH2 0x6AF SWAP2 SWAP1 PUSH2 0x1F56 JUMP JUMPDEST POP SWAP1 POP POP DUP3 PUSH1 0x7 ADD DUP2 PUSH1 0x7 ADD SWAP1 DUP2 PUSH2 0x6C7 SWAP2 SWAP1 PUSH2 0x1E58 JUMP JUMPDEST POP DUP3 PUSH1 0x9 ADD DUP2 PUSH1 0x9 ADD SWAP1 DUP1 SLOAD PUSH2 0x6DE SWAP3 SWAP2 SWAP1 PUSH2 0xE9F JUMP JUMPDEST POP DUP3 PUSH1 0xA ADD DUP2 PUSH1 0xA ADD SWAP1 DUP1 SLOAD PUSH2 0x6F5 SWAP3 SWAP2 SWAP1 PUSH2 0xE9F JUMP JUMPDEST POP DUP2 PUSH32 0x6C2DE183F2A2FAF4876F357E3C75BF6E6E7AA4DD120E8B5E1BDB2901E085F69C PUSH1 0x40 MLOAD PUSH1 0x40 MLOAD DUP1 SWAP2 SUB SWAP1 LOG2 DUP2 SWAP4 POP POP POP POP SWAP5 SWAP4 POP POP POP POP JUMP JUMPDEST PUSH2 0x739 PUSH2 0xEFC JUMP JUMPDEST PUSH1 0x0 DUP1 DUP4 DUP2 MSTORE PUSH1 0x20 ADD SWAP1 DUP2 MSTORE PUSH1 0x20 ADD PUSH1 0x0 KECCAK256 PUSH1 0x40 MLOAD DUP1 PUSH2 0x120 ADD PUSH1 0x40 MSTORE SWAP1 DUP2 PUSH1 0x0 DUP3 ADD DUP1 SLOAD PUSH2 0x767 SWAP1 PUSH2 0x193B JUMP JUMPDEST DUP1 PUSH1 0x1F ADD PUSH1 0x20 DUP1 SWAP2 DIV MUL PUSH1 0x20 ADD PUSH1 0x40 MLOAD SWAP1 DUP2 ADD PUSH1 0x40 MSTORE DUP1 SWAP3 SWAP2 SWAP1 DUP2 DUP2 MSTORE PUSH1 0x20 ADD DUP3 DUP1 SLOAD PUSH2 0x793 SWAP1 PUSH2 0x193B JUMP JUMPDEST DUP1 ISZERO PUSH2 0x7E0 JUMPI DUP1 PUSH1 0x1F LT PUSH2 0x7B5 JUMPI PUSH2 0x100 DUP1 DUP4 SLOAD DIV MUL DUP4 MSTORE SWAP2 PUSH1 0x20 ADD SWAP2 PUSH2 0x7E0 JUMP JUMPDEST DUP3 ADD SWAP2 SWAP1 PUSH1 0x0 MSTORE PUSH1 0x20 PUSH1 0x0 KECCAK256 SWAP1 JUMPDEST DUP2 SLOAD DUP2 MSTORE SWAP1 PUSH1 0x1 ADD SWAP1 PUSH1 0x20 ADD DUP1 DUP4 GT PUSH2 0x7C3 JUMPI DUP3 SWAP1 SUB PUSH1 0x1F AND DUP3 ADD SWAP2 JUMPDEST POP POP POP POP POP DUP2 MSTORE PUSH1 0x20 ADD PUSH1 0x1 DUP3 ADD DUP1 SLOAD PUSH2 0x7F9 SWAP1 PUSH2 0x193B JUMP JUMPDEST DUP1 PUSH1 0x1F ADD PUSH1 0x20 DUP1 SWAP2 DIV MUL PUSH1 0x20 ADD PUSH1 0x40 MLOAD SWAP1 DUP2 ADD PUSH1 0x40 MSTORE DUP1 SWAP3 SWAP2 SWAP1 DUP2 DUP2 MSTORE PUSH1 0x20 ADD DUP3 DUP1 SLOAD PUSH2 0x825 SWAP1 PUSH2 0x193B JUMP JUMPDEST DUP1 ISZERO PUSH2 0x872 JUMPI DUP1 PUSH1 0x1F LT PUSH2 0x847 JUMPI PUSH2 0x100 DUP1 DUP4 SLOAD DIV MUL DUP4 MSTORE SWAP2 PUSH1 0x20 ADD SWAP2 PUSH2 0x872 JUMP JUMPDEST DUP3 ADD SWAP2 SWAP1 PUSH1 0x0 MSTORE PUSH1 0x20 PUSH1 0x0 KECCAK256 SWAP1 JUMPDEST DUP2 SLOAD DUP2 MSTORE SWAP1 PUSH1 0x1 ADD SWAP1 PUSH1 0x20 ADD DUP1 DUP4 GT PUSH2 0x855 JUMPI DUP3 SWAP1 SUB PUSH1 0x1F AND DUP3 ADD SWAP2 JUMPDEST POP POP POP POP POP DUP2 MSTORE PUSH1 0x20 ADD PUSH1 0x2 DUP3 ADD DUP1 SLOAD PUSH2 0x88B SWAP1 PUSH2 0x193B JUMP JUMPDEST DUP1 PUSH1 0x1F ADD PUSH1 0x20 DUP1 SWAP2 DIV MUL PUSH1 0x20 ADD PUSH1 0x40 MLOAD SWAP1 DUP2 ADD PUSH1 0x40 MSTORE DUP1 SWAP3 SWAP2 SWAP1 DUP2 DUP2 MSTORE PUSH1 0x20 ADD DUP3 DUP1 SLOAD PUSH2 0x8B7 SWAP1 PUSH2 0x193B JUMP JUMPDEST DUP1 ISZERO PUSH2 0x904 JUMPI DUP1 PUSH1 0x1F LT PUSH2 0x8D9 JUMPI PUSH2 0x100 DUP1 DUP4 SLOAD DIV MUL DUP4 MSTORE SWAP2 PUSH1 0x20 ADD SWAP2 PUSH2 0x904 JUMP JUMPDEST DUP3 ADD SWAP2 SWAP1 PUSH1 0x0 MSTORE PUSH1 0x20 PUSH1 0x0 KECCAK256 SWAP1 JUMPDEST DUP2 SLOAD DUP2 MSTORE SWAP1 PUSH1 0x1 ADD SWAP1 PUSH1 0x20 ADD DUP1 DUP4 GT PUSH2 0x8E7 JUMPI DUP3 SWAP1 SUB PUSH1 0x1F AND DUP3 ADD SWAP2 JUMPDEST POP POP POP POP POP DUP2 MSTORE PUSH1 0x20 ADD PUSH1 0x3 DUP3 ADD DUP1 SLOAD PUSH2 0x91D SWAP1 PUSH2 0x193B JUMP JUMPDEST DUP1 PUSH1 0x1F ADD PUSH1 0x20 DUP1 SWAP2 DIV MUL PUSH1 0x20 ADD PUSH1 0x40 MLOAD SWAP1 DUP2 ADD PUSH1 0x40 MSTORE DUP1 SWAP3 SWAP2 SWAP1 DUP2 DUP2 MSTORE PUSH1 0x20 ADD DUP3 DUP1 SLOAD PUSH2 0x949 SWAP1 PUSH2 0x193B JUMP JUMPDEST DUP1 ISZERO PUSH2 0x996 JUMPI DUP1 PUSH1 0x1F LT PUSH2 0x96B JUMPI PUSH2 0x100 DUP1 DUP4 SLOAD DIV MUL DUP4 MSTORE SWAP2 PUSH1 0x20 ADD SWAP2 PUSH2 0x996 JUMP JUMPDEST DUP3 ADD SWAP2 SWAP1 PUSH1 0x0 MSTORE PUSH1 0x20 PUSH1 0x0 KECCAK256 SWAP1 JUMPDEST DUP2 SLOAD DUP2 MSTORE SWAP1 PUSH1 0x1 ADD SWAP1 PUSH1 0x20 ADD DUP1 DUP4 GT PUSH2 0x979 JUMPI DUP3 SWAP1 SUB PUSH1 0x1F AND DUP3 ADD SWAP2 JUMPDEST POP POP POP POP POP DUP2 MSTORE PUSH1 0x20 ADD PUSH1 0x4 DUP3 ADD PUSH1 0x40 MLOAD DUP1 PUSH1 0x60 ADD PUSH1 0x40 MSTORE SWAP1 DUP2 PUSH1 0x0 DUP3 ADD DUP1 SLOAD PUSH2 0x9BF SWAP1 PUSH2 0x193B JUMP JUMPDEST DUP1 PUSH1 0x1F ADD PUSH1 0x20 DUP1 SWAP2 DIV MUL PUSH1 0x20 ADD PUSH1 0x40 MLOAD SWAP1 DUP2 ADD PUSH1 0x40 MSTORE DUP1 SWAP3 SWAP2 SWAP1 DUP2 DUP2 MSTORE PUSH1 0x20 ADD DUP3 DUP1 SLOAD PUSH2 0x9EB SWAP1 PUSH2 0x193B JUMP JUMPDEST DUP1 ISZERO PUSH2 0xA38 JUMPI DUP1 PUSH1 0x1F LT PUSH2 0xA0D JUMPI PUSH2 0x100 DUP1 DUP4 SLOAD DIV MUL DUP4 MSTORE SWAP2 PUSH1 0x20 ADD SWAP2 PUSH2 0xA38 JUMP JUMPDEST DUP3 ADD SWAP2 SWAP1 PUSH1 0x0 MSTORE PUSH1 0x20 PUSH1 0x0 KECCAK256 SWAP1 JUMPDEST DUP2 SLOAD DUP2 MSTORE SWAP1 PUSH1 0x1 ADD SWAP1 PUSH1 0x20 ADD DUP1 DUP4 GT PUSH2 0xA1B JUMPI DUP3 SWAP1 SUB PUSH1 0x1F AND DUP3 ADD SWAP2 JUMPDEST POP POP POP POP POP DUP2 MSTORE PUSH1 0x20 ADD PUSH1 0x1 DUP3 ADD DUP1 SLOAD PUSH2 0xA51 SWAP1 PUSH2 0x193B JUMP JUMPDEST DUP1 PUSH1 0x1F ADD PUSH1 0x20 DUP1 SWAP2 DIV MUL PUSH1 0x20 ADD PUSH1 0x40 MLOAD SWAP1 DUP2 ADD PUSH1 0x40 MSTORE DUP1 SWAP3 SWAP2 SWAP1 DUP2 DUP2 MSTORE PUSH1 0x20 ADD DUP3 DUP1 SLOAD PUSH2 0xA7D SWAP1 PUSH2 0x193B JUMP JUMPDEST DUP1 ISZERO PUSH2 0xACA JUMPI DUP1 PUSH1 0x1F LT PUSH2 0xA9F JUMPI PUSH2 0x100 DUP1 DUP4 SLOAD DIV MUL DUP4 MSTORE SWAP2 PUSH1 0x20 ADD SWAP2 PUSH2 0xACA JUMP JUMPDEST DUP3 ADD SWAP2 SWAP1 PUSH1 0x0 MSTORE PUSH1 0x20 PUSH1 0x0 KECCAK256 SWAP1 JUMPDEST DUP2 SLOAD DUP2 MSTORE SWAP1 PUSH1 0x1 ADD SWAP1 PUSH1 0x20 ADD DUP1 DUP4 GT PUSH2 0xAAD JUMPI DUP3 SWAP1 SUB PUSH1 0x1F AND DUP3 ADD SWAP2 JUMPDEST POP POP POP POP POP DUP2 MSTORE PUSH1 0x20 ADD PUSH1 0x2 DUP3 ADD DUP1 SLOAD PUSH2 0xAE3 SWAP1 PUSH2 0x193B JUMP JUMPDEST DUP1 PUSH1 0x1F ADD PUSH1 0x20 DUP1 SWAP2 DIV MUL PUSH1 0x20 ADD PUSH1 0x40 MLOAD SWAP1 DUP2 ADD PUSH1 0x40 MSTORE DUP1 SWAP3 SWAP2 SWAP1 DUP2 DUP2 MSTORE PUSH1 0x20 ADD DUP3 DUP1 SLOAD PUSH2 0xB0F SWAP1 PUSH2 0x193B JUMP JUMPDEST DUP1 ISZERO PUSH2 0xB5C JUMPI DUP1 PUSH1 0x1F LT PUSH2 0xB31 JUMPI PUSH2 0x100 DUP1 DUP4 SLOAD DIV MUL DUP4 MSTORE SWAP2 PUSH1 0x20 ADD SWAP2 PUSH2 0xB5C JUMP JUMPDEST DUP3 ADD SWAP2 SWAP1 PUSH1 0x0 MSTORE PUSH1 0x20 PUSH1 0x0 KECCAK256 SWAP1 JUMPDEST DUP2 SLOAD DUP2 MSTORE SWAP1 PUSH1 0x1 ADD SWAP1 PUSH1 0x20 ADD DUP1 DUP4 GT PUSH2 0xB3F JUMPI DUP3 SWAP1 SUB PUSH1 0x1F AND DUP3 ADD SWAP2 JUMPDEST POP POP POP POP POP DUP2 MSTORE POP POP DUP2 MSTORE PUSH1 0x20 ADD PUSH1 0x7 DUP3 ADD DUP1 SLOAD PUSH2 0xB79 SWAP1 PUSH2 0x193B JUMP JUMPDEST DUP1 PUSH1 0x1F ADD PUSH1 0x20 DUP1 SWAP2 DIV MUL PUSH1 0x20 ADD PUSH1 0x40 MLOAD SWAP1 DUP2 ADD PUSH1 0x40 MSTORE DUP1 SWAP3 SWAP2 SWAP1 DUP2 DUP2 MSTORE PUSH1 0x20 ADD DUP3 DUP1 SLOAD PUSH2 0xBA5 SWAP1 PUSH2 0x193B JUMP JUMPDEST DUP1 ISZERO PUSH2 0xBF2 JUMPI DUP1 PUSH1 0x1F LT PUSH2 0xBC7 JUMPI PUSH2 0x100 DUP1 DUP4 SLOAD DIV MUL DUP4 MSTORE SWAP2 PUSH1 0x20 ADD SWAP2 PUSH2 0xBF2 JUMP JUMPDEST DUP3 ADD SWAP2 SWAP1 PUSH1 0x0 MSTORE PUSH1 0x20 PUSH1 0x0 KECCAK256 SWAP1 JUMPDEST DUP2 SLOAD DUP2 MSTORE SWAP1 PUSH1 0x1 ADD SWAP1 PUSH1 0x20 ADD DUP1 DUP4 GT PUSH2 0xBD5 JUMPI DUP3 SWAP1 SUB PUSH1 0x1F AND DUP3 ADD SWAP2 JUMPDEST POP POP POP POP POP DUP2 MSTORE PUSH1 0x20 ADD PUSH1 0x8 DUP3 ADD DUP1 SLOAD PUSH2 0xC0B SWAP1 PUSH2 0x193B JUMP JUMPDEST DUP1 PUSH1 0x1F ADD PUSH1 0x20 DUP1 SWAP2 DIV MUL PUSH1 0x20 ADD PUSH1 0x40 MLOAD SWAP1 DUP2 ADD PUSH1 0x40 MSTORE DUP1 SWAP3 SWAP2 SWAP1 DUP2 DUP2 MSTORE PUSH1 0x20 ADD DUP3 DUP1 SLOAD PUSH2 0xC37 SWAP1 PUSH2 0x193B JUMP JUMPDEST DUP1 ISZERO PUSH2 0xC84 JUMPI DUP1 PUSH1 0x1F LT PUSH2 0xC59 JUMPI PUSH2 0x100 DUP1 DUP4 SLOAD DIV MUL DUP4 MSTORE SWAP2 PUSH1 0x20 ADD SWAP2 PUSH2 0xC84 JUMP JUMPDEST DUP3 ADD SWAP2 SWAP1 PUSH1 0x0 MSTORE PUSH1 0x20 PUSH1 0x0 KECCAK256 SWAP1 JUMPDEST DUP2 SLOAD DUP2 MSTORE SWAP1 PUSH1 0x1 ADD SWAP1 PUSH1 0x20 ADD DUP1 DUP4 GT PUSH2 0xC67 JUMPI DUP3 SWAP1 SUB PUSH1 0x1F AND DUP3 ADD SWAP2 JUMPDEST POP POP POP POP POP DUP2 MSTORE PUSH1 0x20 ADD PUSH1 0x9 DUP3 ADD DUP1 SLOAD DUP1 PUSH1 0x20 MUL PUSH1 0x20 ADD PUSH1 0x40 MLOAD SWAP1 DUP2 ADD PUSH1 0x40 MSTORE DUP1 SWAP3 SWAP2 SWAP1 DUP2 DUP2 MSTORE PUSH1 0x20 ADD PUSH1 0x0 SWAP1 JUMPDEST DUP3 DUP3 LT ISZERO PUSH2 0xD5E JUMPI DUP4 DUP3 SWAP1 PUSH1 0x0 MSTORE PUSH1 0x20 PUSH1 0x0 KECCAK256 ADD DUP1 SLOAD PUSH2 0xCD1 SWAP1 PUSH2 0x193B JUMP JUMPDEST DUP1 PUSH1 0x1F ADD PUSH1 0x20 DUP1 SWAP2 DIV MUL PUSH1 0x20 ADD PUSH1 0x40 MLOAD SWAP1 DUP2 ADD PUSH1 0x40 MSTORE DUP1 SWAP3 SWAP2 SWAP1 DUP2 DUP2 MSTORE PUSH1 0x20 ADD DUP3 DUP1 SLOAD PUSH2 0xCFD SWAP1 PUSH2 0x193B JUMP JUMPDEST DUP1 ISZERO PUSH2 0xD4A JUMPI DUP1 PUSH1 0x1F LT PUSH2 0xD1F JUMPI PUSH2 0x100 DUP1 DUP4 SLOAD DIV MUL DUP4 MSTORE SWAP2 PUSH1 0x20 ADD SWAP2 PUSH2 0xD4A JUMP JUMPDEST DUP3 ADD SWAP2 SWAP1 PUSH1 0x0 MSTORE PUSH1 0x20 PUSH1 0x0 KECCAK256 SWAP1 JUMPDEST DUP2 SLOAD DUP2 MSTORE SWAP1 PUSH1 0x1 ADD SWAP1 PUSH1 0x20 ADD DUP1 DUP4 GT PUSH2 0xD2D JUMPI DUP3 SWAP1 SUB PUSH1 0x1F AND DUP3 ADD SWAP2 JUMPDEST POP POP POP POP POP DUP2 MSTORE PUSH1 0x20 ADD SWAP1 PUSH1 0x1 ADD SWAP1 PUSH2 0xCB2 JUMP JUMPDEST POP POP POP POP DUP2 MSTORE PUSH1 0x20 ADD PUSH1 0xA DUP3 ADD DUP1 SLOAD DUP1 PUSH1 0x20 MUL PUSH1 0x20 ADD PUSH1 0x40 MLOAD SWAP1 DUP2 ADD PUSH1 0x40 MSTORE DUP1 SWAP3 SWAP2 SWAP1 DUP2 DUP2 MSTORE PUSH1 0x20 ADD PUSH1 0x0 SWAP1 JUMPDEST DUP3 DUP3 LT ISZERO PUSH2 0xE37 JUMPI DUP4 DUP3 SWAP1 PUSH1 0x0 MSTORE PUSH1 0x20 PUSH1 0x0 KECCAK256 ADD DUP1 SLOAD PUSH2 0xDAA SWAP1 PUSH2 0x193B JUMP JUMPDEST DUP1 PUSH1 0x1F ADD PUSH1 0x20 DUP1 SWAP2 DIV MUL PUSH1 0x20 ADD PUSH1 0x40 MLOAD SWAP1 DUP2 ADD PUSH1 0x40 MSTORE DUP1 SWAP3 SWAP2 SWAP1 DUP2 DUP2 MSTORE PUSH1 0x20 ADD DUP3 DUP1 SLOAD PUSH2 0xDD6 SWAP1 PUSH2 0x193B JUMP JUMPDEST DUP1 ISZERO PUSH2 0xE23 JUMPI DUP1 PUSH1 0x1F LT PUSH2 0xDF8 JUMPI PUSH2 0x100 DUP1 DUP4 SLOAD DIV MUL DUP4 MSTORE SWAP2 PUSH1 0x20 ADD SWAP2 PUSH2 0xE23 JUMP JUMPDEST DUP3 ADD SWAP2 SWAP1 PUSH1 0x0 MSTORE PUSH1 0x20 PUSH1 0x0 KECCAK256 SWAP1 JUMPDEST DUP2 SLOAD DUP2 MSTORE SWAP1 PUSH1 0x1 ADD SWAP1 PUSH1 0x20 ADD DUP1 DUP4 GT PUSH2 0xE06 JUMPI DUP3 SWAP1 SUB PUSH1 0x1F AND DUP3 ADD SWAP2 JUMPDEST POP POP POP POP POP DUP2 MSTORE PUSH1 0x20 ADD SWAP1 PUSH1 0x1 ADD SWAP1 PUSH2 0xD8B JUMP JUMPDEST POP POP POP POP DUP2 MSTORE POP POP SWAP1 POP SWAP2 SWAP1 POP JUMP JUMPDEST DUP3 DUP1 SLOAD DUP3 DUP3 SSTORE SWAP1 PUSH1 0x0 MSTORE PUSH1 0x20 PUSH1 0x0 KECCAK256 SWAP1 DUP2 ADD SWAP3 DUP3 ISZERO PUSH2 0xE8E JUMPI SWAP2 PUSH1 0x20 MUL DUP3 ADD JUMPDEST DUP3 DUP2 GT ISZERO PUSH2 0xE8D JUMPI DUP3 MLOAD DUP3 SWAP1 DUP2 PUSH2 0xE7D SWAP2 SWAP1 PUSH2 0x1B22 JUMP JUMPDEST POP SWAP2 PUSH1 0x20 ADD SWAP2 SWAP1 PUSH1 0x1 ADD SWAP1 PUSH2 0xE66 JUMP JUMPDEST JUMPDEST POP SWAP1 POP PUSH2 0xE9B SWAP2 SWAP1 PUSH2 0xF4E JUMP JUMPDEST POP SWAP1 JUMP JUMPDEST DUP3 DUP1 SLOAD DUP3 DUP3 SSTORE SWAP1 PUSH1 0x0 MSTORE PUSH1 0x20 PUSH1 0x0 KECCAK256 SWAP1 DUP2 ADD SWAP3 DUP3 ISZERO PUSH2 0xEEB JUMPI PUSH1 0x0 MSTORE PUSH1 0x20 PUSH1 0x0 KECCAK256 SWAP2 DUP3 ADD JUMPDEST DUP3 DUP2 GT ISZERO PUSH2 0xEEA JUMPI DUP3 DUP3 SWAP1 DUP2 PUSH2 0xEDA SWAP2 SWAP1 PUSH2 0x1F56 JUMP JUMPDEST POP SWAP2 PUSH1 0x1 ADD SWAP2 SWAP1 PUSH1 0x1 ADD SWAP1 PUSH2 0xEC4 JUMP JUMPDEST JUMPDEST POP SWAP1 POP PUSH2 0xEF8 SWAP2 SWAP1 PUSH2 0xF4E JUMP JUMPDEST POP SWAP1 JUMP JUMPDEST PUSH1 0x40 MLOAD DUP1 PUSH2 0x120 ADD PUSH1 0x40 MSTORE DUP1 PUSH1 0x60 DUP2 MSTORE PUSH1 0x20 ADD PUSH1 0x60 DUP2 MSTORE PUSH1 0x20 ADD PUSH1 0x60 DUP2 MSTORE PUSH1 0x20 ADD PUSH1 0x60 DUP2 MSTORE PUSH1 0x20 ADD PUSH2 0xF2C PUSH2 0xF72 JUMP JUMPDEST DUP2 MSTORE PUSH1 0x20 ADD PUSH1 0x60 DUP2 MSTORE PUSH1 0x20 ADD PUSH1 0x60 DUP2 MSTORE PUSH1 0x20 ADD PUSH1 0x60 DUP2 MSTORE PUSH1 0x20 ADD PUSH1 0x60 DUP2 MSTORE POP SWAP1 JUMP JUMPDEST JUMPDEST DUP1 DUP3 GT ISZERO PUSH2 0xF6E JUMPI PUSH1 0x0 DUP2 DUP2 PUSH2 0xF65 SWAP2 SWAP1 PUSH2 0xF93 JUMP JUMPDEST POP PUSH1 0x1 ADD PUSH2 0xF4F JUMP JUMPDEST POP SWAP1 JUMP JUMPDEST PUSH1 0x40 MLOAD DUP1 PUSH1 0x60 ADD PUSH1 0x40 MSTORE DUP1 PUSH1 0x60 DUP2 MSTORE PUSH1 0x20 ADD PUSH1 0x60 DUP2 MSTORE PUSH1 0x20 ADD PUSH1 0x60 DUP2 MSTORE POP SWAP1 JUMP JUMPDEST POP DUP1 SLOAD PUSH2 0xF9F SWAP1 PUSH2 0x193B JUMP JUMPDEST PUSH1 0x0 DUP3 SSTORE DUP1 PUSH1 0x1F LT PUSH2 0xFB1 JUMPI POP PUSH2 0xFD0 JUMP JUMPDEST PUSH1 0x1F ADD PUSH1 0x20 SWAP1 DIV SWAP1 PUSH1 0x0 MSTORE PUSH1 0x20 PUSH1 0x0 KECCAK256 SWAP1 DUP2 ADD SWAP1 PUSH2 0xFCF SWAP2 SWAP1 PUSH2 0xFD3 JUMP JUMPDEST JUMPDEST POP JUMP JUMPDEST JUMPDEST DUP1 DUP3 GT ISZERO PUSH2 0xFEC JUMPI PUSH1 0x0 DUP2 PUSH1 0x0 SWAP1 SSTORE POP PUSH1 0x1 ADD PUSH2 0xFD4 JUMP JUMPDEST POP SWAP1 JUMP JUMPDEST PUSH1 0x0 PUSH1 0x40 MLOAD SWAP1 POP SWAP1 JUMP JUMPDEST PUSH1 0x0 DUP1 REVERT JUMPDEST PUSH1 0x0 DUP1 REVERT JUMPDEST PUSH1 0x0 DUP1 REVERT JUMPDEST PUSH1 0x0 DUP1 REVERT JUMPDEST PUSH1 0x0 PUSH1 0x1F NOT PUSH1 0x1F DUP4 ADD AND SWAP1 POP SWAP2 SWAP1 POP JUMP JUMPDEST PUSH32 0x4E487B7100000000000000000000000000000000000000000000000000000000 PUSH1 0x0 MSTORE PUSH1 0x41 PUSH1 0x4 MSTORE PUSH1 0x24 PUSH1 0x0 REVERT JUMPDEST PUSH2 0x1057 DUP3 PUSH2 0x100E JUMP JUMPDEST DUP2 ADD DUP2 DUP2 LT PUSH8 0xFFFFFFFFFFFFFFFF DUP3 GT OR ISZERO PUSH2 0x1076 JUMPI PUSH2 0x1075 PUSH2 0x101F JUMP JUMPDEST JUMPDEST DUP1 PUSH1 0x40 MSTORE POP POP POP JUMP JUMPDEST PUSH1 0x0 PUSH2 0x1089 PUSH2 0xFF0 JUMP JUMPDEST SWAP1 POP PUSH2 0x1095 DUP3 DUP3 PUSH2 0x104E JUMP JUMPDEST SWAP2 SWAP1 POP JUMP JUMPDEST PUSH1 0x0 PUSH8 0xFFFFFFFFFFFFFFFF DUP3 GT ISZERO PUSH2 0x10B5 JUMPI PUSH2 0x10B4 PUSH2 0x101F JUMP JUMPDEST JUMPDEST PUSH2 0x10BE DUP3 PUSH2 0x100E JUMP JUMPDEST SWAP1 POP PUSH1 0x20 DUP2 ADD SWAP1 POP SWAP2 SWAP1 POP JUMP JUMPDEST DUP3 DUP2 DUP4 CALLDATACOPY PUSH1 0x0 DUP4 DUP4 ADD MSTORE POP POP POP JUMP JUMPDEST PUSH1 0x0 PUSH2 0x10ED PUSH2 0x10E8 DUP5 PUSH2 0x109A JUMP JUMPDEST PUSH2 0x107F JUMP JUMPDEST SWAP1 POP DUP3 DUP2 MSTORE PUSH1 0x20 DUP2 ADD DUP5 DUP5 DUP5 ADD GT ISZERO PUSH2 0x1109 JUMPI PUSH2 0x1108 PUSH2 0x1009 JUMP JUMPDEST JUMPDEST PUSH2 0x1114 DUP5 DUP3 DUP6 PUSH2 0x10CB JUMP JUMPDEST POP SWAP4 SWAP3 POP POP POP JUMP JUMPDEST PUSH1 0x0 DUP3 PUSH1 0x1F DUP4 ADD SLT PUSH2 0x1131 JUMPI PUSH2 0x1130 PUSH2 0x1004 JUMP JUMPDEST JUMPDEST DUP2 CALLDATALOAD PUSH2 0x1141 DUP5 DUP3 PUSH1 0x20 DUP7 ADD PUSH2 0x10DA JUMP JUMPDEST SWAP2 POP POP SWAP3 SWAP2 POP POP JUMP JUMPDEST PUSH1 0x0 PUSH8 0xFFFFFFFFFFFFFFFF DUP3 GT ISZERO PUSH2 0x1165 JUMPI PUSH2 0x1164 PUSH2 0x101F JUMP JUMPDEST JUMPDEST PUSH1 0x20 DUP3 MUL SWAP1 POP PUSH1 0x20 DUP2 ADD SWAP1 POP SWAP2 SWAP1 POP JUMP JUMPDEST PUSH1 0x0 DUP1 REVERT JUMPDEST PUSH1 0x0 PUSH2 0x118E PUSH2 0x1189 DUP5 PUSH2 0x114A JUMP JUMPDEST PUSH2 0x107F JUMP JUMPDEST SWAP1 POP DUP1 DUP4 DUP3 MSTORE PUSH1 0x20 DUP3 ADD SWAP1 POP PUSH1 0x20 DUP5 MUL DUP4 ADD DUP6 DUP2 GT ISZERO PUSH2 0x11B1 JUMPI PUSH2 0x11B0 PUSH2 0x1176 JUMP JUMPDEST JUMPDEST DUP4 JUMPDEST DUP2 DUP2 LT ISZERO PUSH2 0x11F8 JUMPI DUP1 CALLDATALOAD PUSH8 0xFFFFFFFFFFFFFFFF DUP2 GT ISZERO PUSH2 0x11D6 JUMPI PUSH2 0x11D5 PUSH2 0x1004 JUMP JUMPDEST JUMPDEST DUP1 DUP7 ADD PUSH2 0x11E3 DUP10 DUP3 PUSH2 0x111C JUMP JUMPDEST DUP6 MSTORE PUSH1 0x20 DUP6 ADD SWAP5 POP POP POP PUSH1 0x20 DUP2 ADD SWAP1 POP PUSH2 0x11B3 JUMP JUMPDEST POP POP POP SWAP4 SWAP3 POP POP POP JUMP JUMPDEST PUSH1 0x0 DUP3 PUSH1 0x1F DUP4 ADD SLT PUSH2 0x1217 JUMPI PUSH2 0x1216 PUSH2 0x1004 JUMP JUMPDEST JUMPDEST DUP2 CALLDATALOAD PUSH2 0x1227 DUP5 DUP3 PUSH1 0x20 DUP7 ADD PUSH2 0x117B JUMP JUMPDEST SWAP2 POP POP SWAP3 SWAP2 POP POP JUMP JUMPDEST PUSH1 0x0 DUP1 PUSH1 0x0 DUP1 PUSH1 0x0 DUP1 PUSH1 0x0 DUP1 PUSH1 0x0 DUP1 PUSH1 0x0 PUSH2 0x160 DUP13 DUP15 SUB SLT ISZERO PUSH2 0x1256 JUMPI PUSH2 0x1255 PUSH2 0xFFA JUMP JUMPDEST JUMPDEST PUSH1 0x0 DUP13 ADD CALLDATALOAD PUSH8 0xFFFFFFFFFFFFFFFF DUP2 GT ISZERO PUSH2 0x1274 JUMPI PUSH2 0x1273 PUSH2 0xFFF JUMP JUMPDEST JUMPDEST PUSH2 0x1280 DUP15 DUP3 DUP16 ADD PUSH2 0x111C JUMP JUMPDEST SWAP12 POP POP PUSH1 0x20 DUP13 ADD CALLDATALOAD PUSH8 0xFFFFFFFFFFFFFFFF DUP2 GT ISZERO PUSH2 0x12A1 JUMPI PUSH2 0x12A0 PUSH2 0xFFF JUMP JUMPDEST JUMPDEST PUSH2 0x12AD DUP15 DUP3 DUP16 ADD PUSH2 0x111C JUMP JUMPDEST SWAP11 POP POP PUSH1 0x40 DUP13 ADD CALLDATALOAD PUSH8 0xFFFFFFFFFFFFFFFF DUP2 GT ISZERO PUSH2 0x12CE JUMPI PUSH2 0x12CD PUSH2 0xFFF JUMP JUMPDEST JUMPDEST PUSH2 0x12DA DUP15 DUP3 DUP16 ADD PUSH2 0x111C JUMP JUMPDEST SWAP10 POP POP PUSH1 0x60 DUP13 ADD CALLDATALOAD PUSH8 0xFFFFFFFFFFFFFFFF DUP2 GT ISZERO PUSH2 0x12FB JUMPI PUSH2 0x12FA PUSH2 0xFFF JUMP JUMPDEST JUMPDEST PUSH2 0x1307 DUP15 DUP3 DUP16 ADD PUSH2 0x111C JUMP JUMPDEST SWAP9 POP POP PUSH1 0x80 DUP13 ADD CALLDATALOAD PUSH8 0xFFFFFFFFFFFFFFFF DUP2 GT ISZERO PUSH2 0x1328 JUMPI PUSH2 0x1327 PUSH2 0xFFF JUMP JUMPDEST JUMPDEST PUSH2 0x1334 DUP15 DUP3 DUP16 ADD PUSH2 0x111C JUMP JUMPDEST SWAP8 POP POP PUSH1 0xA0 DUP13 ADD CALLDATALOAD PUSH8 0xFFFFFFFFFFFFFFFF DUP2 GT ISZERO PUSH2 0x1355 JUMPI PUSH2 0x1354 PUSH2 0xFFF JUMP JUMPDEST JUMPDEST PUSH2 0x1361 DUP15 DUP3 DUP16 ADD PUSH2 0x111C JUMP JUMPDEST SWAP7 POP POP PUSH1 0xC0 DUP13 ADD CALLDATALOAD PUSH8 0xFFFFFFFFFFFFFFFF DUP2 GT ISZERO PUSH2 0x1382 JUMPI PUSH2 0x1381 PUSH2 0xFFF JUMP JUMPDEST JUMPDEST PUSH2 0x138E DUP15 DUP3 DUP16 ADD PUSH2 0x111C JUMP JUMPDEST SWAP6 POP POP PUSH1 0xE0 DUP13 ADD CALLDATALOAD PUSH8 0xFFFFFFFFFFFFFFFF DUP2 GT ISZERO PUSH2 0x13AF JUMPI PUSH2 0x13AE PUSH2 0xFFF JUMP JUMPDEST JUMPDEST PUSH2 0x13BB DUP15 DUP3 DUP16 ADD PUSH2 0x111C JUMP JUMPDEST SWAP5 POP POP PUSH2 0x100 DUP13 ADD CALLDATALOAD PUSH8 0xFFFFFFFFFFFFFFFF DUP2 GT ISZERO PUSH2 0x13DD JUMPI PUSH2 0x13DC PUSH2 0xFFF JUMP JUMPDEST JUMPDEST PUSH2 0x13E9 DUP15 DUP3 DUP16 ADD PUSH2 0x111C JUMP JUMPDEST SWAP4 POP POP PUSH2 0x120 DUP13 ADD CALLDATALOAD PUSH8 0xFFFFFFFFFFFFFFFF DUP2 GT ISZERO PUSH2 0x140B JUMPI PUSH2 0x140A PUSH2 0xFFF JUMP JUMPDEST JUMPDEST PUSH2 0x1417 DUP15 DUP3 DUP16 ADD PUSH2 0x1202 JUMP JUMPDEST SWAP3 POP POP PUSH2 0x140 DUP13 ADD CALLDATALOAD PUSH8 0xFFFFFFFFFFFFFFFF DUP2 GT ISZERO PUSH2 0x1439 JUMPI PUSH2 0x1438 PUSH2 0xFFF JUMP JUMPDEST JUMPDEST PUSH2 0x1445 DUP15 DUP3 DUP16 ADD PUSH2 0x1202 JUMP JUMPDEST SWAP2 POP POP SWAP3 SWAP6 SWAP9 SWAP12 POP SWAP3 SWAP6 SWAP9 SWAP12 SWAP1 SWAP4 SWAP7 SWAP10 POP JUMP JUMPDEST PUSH1 0x0 DUP2 SWAP1 POP SWAP2 SWAP1 POP JUMP JUMPDEST PUSH2 0x146B DUP2 PUSH2 0x1458 JUMP JUMPDEST DUP3 MSTORE POP POP JUMP JUMPDEST PUSH1 0x0 PUSH1 0x20 DUP3 ADD SWAP1 POP PUSH2 0x1486 PUSH1 0x0 DUP4 ADD DUP5 PUSH2 0x1462 JUMP JUMPDEST SWAP3 SWAP2 POP POP JUMP JUMPDEST PUSH2 0x1495 DUP2 PUSH2 0x1458 JUMP JUMPDEST DUP2 EQ PUSH2 0x14A0 JUMPI PUSH1 0x0 DUP1 REVERT JUMPDEST POP JUMP JUMPDEST PUSH1 0x0 DUP2 CALLDATALOAD SWAP1 POP PUSH2 0x14B2 DUP2 PUSH2 0x148C JUMP JUMPDEST SWAP3 SWAP2 POP POP JUMP JUMPDEST PUSH1 0x0 DUP1 PUSH1 0x0 DUP1 PUSH1 0x80 DUP6 DUP8 SUB SLT ISZERO PUSH2 0x14D2 JUMPI PUSH2 0x14D1 PUSH2 0xFFA JUMP JUMPDEST JUMPDEST PUSH1 0x0 PUSH2 0x14E0 DUP8 DUP3 DUP9 ADD PUSH2 0x14A3 JUMP JUMPDEST SWAP5 POP POP PUSH1 0x20 DUP6 ADD CALLDATALOAD PUSH8 0xFFFFFFFFFFFFFFFF DUP2 GT ISZERO PUSH2 0x1501 JUMPI PUSH2 0x1500 PUSH2 0xFFF JUMP JUMPDEST JUMPDEST PUSH2 0x150D DUP8 DUP3 DUP9 ADD PUSH2 0x111C JUMP JUMPDEST SWAP4 POP POP PUSH1 0x40 DUP6 ADD CALLDATALOAD PUSH8 0xFFFFFFFFFFFFFFFF DUP2 GT ISZERO PUSH2 0x152E JUMPI PUSH2 0x152D PUSH2 0xFFF JUMP JUMPDEST JUMPDEST PUSH2 0x153A DUP8 DUP3 DUP9 ADD PUSH2 0x111C JUMP JUMPDEST SWAP3 POP POP PUSH1 0x60 DUP6 ADD CALLDATALOAD PUSH8 0xFFFFFFFFFFFFFFFF DUP2 GT ISZERO PUSH2 0x155B JUMPI PUSH2 0x155A PUSH2 0xFFF JUMP JUMPDEST JUMPDEST PUSH2 0x1567 DUP8 DUP3 DUP9 ADD PUSH2 0x111C JUMP JUMPDEST SWAP2 POP POP SWAP3 SWAP6 SWAP2 SWAP5 POP SWAP3 POP JUMP JUMPDEST PUSH1 0x0 PUSH1 0x20 DUP3 DUP5 SUB SLT ISZERO PUSH2 0x1589 JUMPI PUSH2 0x1588 PUSH2 0xFFA JUMP JUMPDEST JUMPDEST PUSH1 0x0 PUSH2 0x1597 DUP5 DUP3 DUP6 ADD PUSH2 0x14A3 JUMP JUMPDEST SWAP2 POP POP SWAP3 SWAP2 POP POP JUMP JUMPDEST PUSH1 0x0 DUP2 MLOAD SWAP1 POP SWAP2 SWAP1 POP JUMP JUMPDEST PUSH1 0x0 DUP3 DUP3 MSTORE PUSH1 0x20 DUP3 ADD SWAP1 POP SWAP3 SWAP2 POP POP JUMP JUMPDEST PUSH1 0x0 JUMPDEST DUP4 DUP2 LT ISZERO PUSH2 0x15DA JUMPI DUP1 DUP3 ADD MLOAD DUP2 DUP5 ADD MSTORE PUSH1 0x20 DUP2 ADD SWAP1 POP PUSH2 0x15BF JUMP JUMPDEST PUSH1 0x0 DUP5 DUP5 ADD MSTORE POP POP POP POP JUMP JUMPDEST PUSH1 0x0 PUSH2 0x15F1 DUP3 PUSH2 0x15A0 JUMP JUMPDEST PUSH2 0x15FB DUP2 DUP6 PUSH2 0x15AB JUMP JUMPDEST SWAP4 POP PUSH2 0x160B DUP2 DUP6 PUSH1 0x20 DUP7 ADD PUSH2 0x15BC JUMP JUMPDEST PUSH2 0x1614 DUP2 PUSH2 0x100E JUMP JUMPDEST DUP5 ADD SWAP2 POP POP SWAP3 SWAP2 POP POP JUMP JUMPDEST PUSH1 0x0 PUSH1 0x60 DUP4 ADD PUSH1 0x0 DUP4 ADD MLOAD DUP5 DUP3 SUB PUSH1 0x0 DUP7 ADD MSTORE PUSH2 0x163C DUP3 DUP3 PUSH2 0x15E6 JUMP JUMPDEST SWAP2 POP POP PUSH1 0x20 DUP4 ADD MLOAD DUP5 DUP3 SUB PUSH1 0x20 DUP7 ADD MSTORE PUSH2 0x1656 DUP3 DUP3 PUSH2 0x15E6 JUMP JUMPDEST SWAP2 POP POP PUSH1 0x40 DUP4 ADD MLOAD DUP5 DUP3 SUB PUSH1 0x40 DUP7 ADD MSTORE PUSH2 0x1670 DUP3 DUP3 PUSH2 0x15E6 JUMP JUMPDEST SWAP2 POP POP DUP1 SWAP2 POP POP SWAP3 SWAP2 POP POP JUMP JUMPDEST PUSH1 0x0 DUP2 MLOAD SWAP1 POP SWAP2 SWAP1 POP JUMP JUMPDEST PUSH1 0x0 DUP3 DUP3 MSTORE PUSH1 0x20 DUP3 ADD SWAP1 POP SWAP3 SWAP2 POP POP JUMP JUMPDEST PUSH1 0x0 DUP2 SWAP1 POP PUSH1 0x20 DUP3 ADD SWAP1 POP SWAP2 SWAP1 POP JUMP JUMPDEST PUSH1 0x0 PUSH2 0x16B5 DUP4 DUP4 PUSH2 0x15E6 JUMP JUMPDEST SWAP1 POP SWAP3 SWAP2 POP POP JUMP JUMPDEST PUSH1 0x0 PUSH1 0x20 DUP3 ADD SWAP1 POP SWAP2 SWAP1 POP JUMP JUMPDEST PUSH1 0x0 PUSH2 0x16D5 DUP3 PUSH2 0x167D JUMP JUMPDEST PUSH2 0x16DF DUP2 DUP6 PUSH2 0x1688 JUMP JUMPDEST SWAP4 POP DUP4 PUSH1 0x20 DUP3 MUL DUP6 ADD PUSH2 0x16F1 DUP6 PUSH2 0x1699 JUMP JUMPDEST DUP1 PUSH1 0x0 JUMPDEST DUP6 DUP2 LT ISZERO PUSH2 0x172D JUMPI DUP5 DUP5 SUB DUP10 MSTORE DUP2 MLOAD PUSH2 0x170E DUP6 DUP3 PUSH2 0x16A9 JUMP JUMPDEST SWAP5 POP PUSH2 0x1719 DUP4 PUSH2 0x16BD JUMP JUMPDEST SWAP3 POP PUSH1 0x20 DUP11 ADD SWAP10 POP POP PUSH1 0x1 DUP2 ADD SWAP1 POP PUSH2 0x16F5 JUMP JUMPDEST POP DUP3 SWAP8 POP DUP8 SWAP6 POP POP POP POP POP POP SWAP3 SWAP2 POP POP JUMP JUMPDEST PUSH1 0x0 PUSH2 0x120 DUP4 ADD PUSH1 0x0 DUP4 ADD MLOAD DUP5 DUP3 SUB PUSH1 0x0 DUP7 ADD MSTORE PUSH2 0x175D DUP3 DUP3 PUSH2 0x15E6 JUMP JUMPDEST SWAP2 POP POP PUSH1 0x20 DUP4 ADD MLOAD DUP5 DUP3 SUB PUSH1 0x20 DUP7 ADD MSTORE PUSH2 0x1777 DUP3 DUP3 PUSH2 0x15E6 JUMP JUMPDEST SWAP2 POP POP PUSH1 0x40 DUP4 ADD MLOAD DUP5 DUP3 SUB PUSH1 0x40 DUP7 ADD MSTORE PUSH2 0x1791 DUP3 DUP3 PUSH2 0x15E6 JUMP JUMPDEST SWAP2 POP POP PUSH1 0x60 DUP4 ADD MLOAD DUP5 DUP3 SUB PUSH1 0x60 DUP7 ADD MSTORE PUSH2 0x17AB DUP3 DUP3 PUSH2 0x15E6 JUMP JUMPDEST SWAP2 POP POP PUSH1 0x80 DUP4 ADD MLOAD DUP5 DUP3 SUB PUSH1 0x80 DUP7 ADD MSTORE PUSH2 0x17C5 DUP3 DUP3 PUSH2 0x161F JUMP JUMPDEST SWAP2 POP POP PUSH1 0xA0 DUP4 ADD MLOAD DUP5 DUP3 SUB PUSH1 0xA0 DUP7 ADD MSTORE PUSH2 0x17DF DUP3 DUP3 PUSH2 0x15E6 JUMP JUMPDEST SWAP2 POP POP PUSH1 0xC0 DUP4 ADD MLOAD DUP5 DUP3 SUB PUSH1 0xC0 DUP7 ADD MSTORE PUSH2 0x17F9 DUP3 DUP3 PUSH2 0x15E6 JUMP JUMPDEST SWAP2 POP POP PUSH1 0xE0 DUP4 ADD MLOAD DUP5 DUP3 SUB PUSH1 0xE0 DUP7 ADD MSTORE PUSH2 0x1813 DUP3 DUP3 PUSH2 0x16CA JUMP JUMPDEST SWAP2 POP POP PUSH2 0x100 DUP4 ADD MLOAD DUP5 DUP3 SUB PUSH2 0x100 DUP7 ADD MSTORE PUSH2 0x182F DUP3 DUP3 PUSH2 0x16CA JUMP JUMPDEST SWAP2 POP POP DUP1 SWAP2 POP POP SWAP3 SWAP2 POP POP JUMP JUMPDEST PUSH1 0x0 PUSH1 0x20 DUP3 ADD SWAP1 POP DUP2 DUP2 SUB PUSH1 0x0 DUP4 ADD MSTORE PUSH2 0x1856 DUP2 DUP5 PUSH2 0x173F JUMP JUMPDEST SWAP1 POP SWAP3 SWAP2 POP POP JUMP JUMPDEST PUSH1 0x0 DUP2 SWAP1 POP SWAP3 SWAP2 POP POP JUMP JUMPDEST PUSH1 0x0 PUSH2 0x1874 DUP3 PUSH2 0x15A0 JUMP JUMPDEST PUSH2 0x187E DUP2 DUP6 PUSH2 0x185E JUMP JUMPDEST SWAP4 POP PUSH2 0x188E DUP2 DUP6 PUSH1 0x20 DUP7 ADD PUSH2 0x15BC JUMP JUMPDEST DUP1 DUP5 ADD SWAP2 POP POP SWAP3 SWAP2 POP POP JUMP JUMPDEST PUSH1 0x0 PUSH2 0x18A6 DUP3 DUP12 PUSH2 0x1869 JUMP JUMPDEST SWAP2 POP PUSH2 0x18B2 DUP3 DUP11 PUSH2 0x1869 JUMP JUMPDEST SWAP2 POP PUSH2 0x18BE DUP3 DUP10 PUSH2 0x1869 JUMP JUMPDEST SWAP2 POP PUSH2 0x18CA DUP3 DUP9 PUSH2 0x1869 JUMP JUMPDEST SWAP2 POP PUSH2 0x18D6 DUP3 DUP8 PUSH2 0x1869 JUMP JUMPDEST SWAP2 POP PUSH2 0x18E2 DUP3 DUP7 PUSH2 0x1869 JUMP JUMPDEST SWAP2 POP PUSH2 0x18EE DUP3 DUP6 PUSH2 0x1869 JUMP JUMPDEST SWAP2 POP PUSH2 0x18FA DUP3 DUP5 PUSH2 0x1869 JUMP JUMPDEST SWAP2 POP DUP2 SWAP1 POP SWAP10 SWAP9 POP POP POP POP POP POP POP POP POP JUMP JUMPDEST PUSH32 0x4E487B7100000000000000000000000000000000000000000000000000000000 PUSH1 0x0 MSTORE PUSH1 0x22 PUSH1 0x4 MSTORE PUSH1 0x24 PUSH1 0x0 REVERT JUMPDEST PUSH1 0x0 PUSH1 0x2 DUP3 DIV SWAP1 POP PUSH1 0x1 DUP3 AND DUP1 PUSH2 0x1953 JUMPI PUSH1 0x7F DUP3 AND SWAP2 POP JUMPDEST PUSH1 0x20 DUP3 LT DUP2 SUB PUSH2 0x1966 JUMPI PUSH2 0x1965 PUSH2 0x190C JUMP JUMPDEST JUMPDEST POP SWAP2 SWAP1 POP JUMP JUMPDEST PUSH1 0x0 DUP2 SWAP1 POP DUP2 PUSH1 0x0 MSTORE PUSH1 0x20 PUSH1 0x0 KECCAK256 SWAP1 POP SWAP2 SWAP1 POP JUMP JUMPDEST PUSH1 0x0 PUSH1 0x20 PUSH1 0x1F DUP4 ADD DIV SWAP1 POP SWAP2 SWAP1 POP JUMP JUMPDEST PUSH1 0x0 DUP3 DUP3 SHL SWAP1 POP SWAP3 SWAP2 POP POP JUMP JUMPDEST PUSH1 0x0 PUSH1 0x8 DUP4 MUL PUSH2 0x19CE PUSH32 0xFFFFFFFFFFFFFFFFFFFFFFFFFFFFFFFFFFFFFFFFFFFFFFFFFFFFFFFFFFFFFFFF DUP3 PUSH2 0x1991 JUMP JUMPDEST PUSH2 0x19D8 DUP7 DUP4 PUSH2 0x1991 JUMP JUMPDEST SWAP6 POP DUP1 NOT DUP5 AND SWAP4 POP DUP1 DUP7 AND DUP5 OR SWAP3 POP POP POP SWAP4 SWAP3 POP POP POP JUMP JUMPDEST PUSH1 0x0 DUP2 SWAP1 POP SWAP2 SWAP1 POP JUMP JUMPDEST PUSH1 0x0 DUP2 SWAP1 POP SWAP2 SWAP1 POP JUMP JUMPDEST PUSH1 0x0 PUSH2 0x1A1F PUSH2 0x1A1A PUSH2 0x1A15 DUP5 PUSH2 0x19F0 JUMP JUMPDEST PUSH2 0x19FA JUMP JUMPDEST PUSH2 0x19F0 JUMP JUMPDEST SWAP1 POP SWAP2 SWAP1 POP JUMP JUMPDEST PUSH1 0x0 DUP2 SWAP1 POP SWAP2 SWAP1 POP JUMP JUMPDEST PUSH2 0x1A39 DUP4 PUSH2 0x1A04 JUMP JUMPDEST PUSH2 0x1A4D PUSH2 0x1A45 DUP3 PUSH2 0x1A26 JUMP JUMPDEST DUP5 DUP5 SLOAD PUSH2 0x199E JUMP JUMPDEST DUP3 SSTORE POP POP POP POP JUMP JUMPDEST PUSH1 0x0 SWAP1 JUMP JUMPDEST PUSH2 0x1A62 PUSH2 0x1A55 JUMP JUMPDEST PUSH2 0x1A6D DUP2 DUP5 DUP5 PUSH2 0x1A30 JUMP JUMPDEST POP POP POP JUMP JUMPDEST JUMPDEST DUP2 DUP2 LT ISZERO PUSH2 0x1A91 JUMPI PUSH2 0x1A86 PUSH1 0x0 DUP3 PUSH2 0x1A5A JUMP JUMPDEST PUSH1 0x1 DUP2 ADD SWAP1 POP PUSH2 0x1A73 JUMP JUMPDEST POP POP JUMP JUMPDEST PUSH1 0x1F DUP3 GT ISZERO PUSH2 0x1AD6 JUMPI PUSH2 0x1AA7 DUP2 PUSH2 0x196C JUMP JUMPDEST PUSH2 0x1AB0 DUP5 PUSH2 0x1981 JUMP JUMPDEST DUP2 ADD PUSH1 0x20 DUP6 LT ISZERO PUSH2 0x1ABF JUMPI DUP2 SWAP1 POP JUMPDEST PUSH2 0x1AD3 PUSH2 0x1ACB DUP6 PUSH2 0x1981 JUMP JUMPDEST DUP4 ADD DUP3 PUSH2 0x1A72 JUMP JUMPDEST POP POP JUMPDEST POP POP POP JUMP JUMPDEST PUSH1 0x0 DUP3 DUP3 SHR SWAP1 POP SWAP3 SWAP2 POP POP JUMP JUMPDEST PUSH1 0x0 PUSH2 0x1AF9 PUSH1 0x0 NOT DUP5 PUSH1 0x8 MUL PUSH2 0x1ADB JUMP JUMPDEST NOT DUP1 DUP4 AND SWAP2 POP POP SWAP3 SWAP2 POP POP JUMP JUMPDEST PUSH1 0x0 PUSH2 0x1B12 DUP4 DUP4 PUSH2 0x1AE8 JUMP JUMPDEST SWAP2 POP DUP3 PUSH1 0x2 MUL DUP3 OR SWAP1 POP SWAP3 SWAP2 POP POP JUMP JUMPDEST PUSH2 0x1B2B DUP3 PUSH2 0x15A0 JUMP JUMPDEST PUSH8 0xFFFFFFFFFFFFFFFF DUP2 GT ISZERO PUSH2 0x1B44 JUMPI PUSH2 0x1B43 PUSH2 0x101F JUMP JUMPDEST JUMPDEST PUSH2 0x1B4E DUP3 SLOAD PUSH2 0x193B JUMP JUMPDEST PUSH2 0x1B59 DUP3 DUP3 DUP6 PUSH2 0x1A95 JUMP JUMPDEST PUSH1 0x0 PUSH1 0x20 SWAP1 POP PUSH1 0x1F DUP4 GT PUSH1 0x1 DUP2 EQ PUSH2 0x1B8C JUMPI PUSH1 0x0 DUP5 ISZERO PUSH2 0x1B7A JUMPI DUP3 DUP8 ADD MLOAD SWAP1 POP JUMPDEST PUSH2 0x1B84 DUP6 DUP3 PUSH2 0x1B06 JUMP JUMPDEST DUP7 SSTORE POP PUSH2 0x1BEC JUMP JUMPDEST PUSH1 0x1F NOT DUP5 AND PUSH2 0x1B9A DUP7 PUSH2 0x196C JUMP JUMPDEST PUSH1 0x0 JUMPDEST DUP3 DUP2 LT ISZERO PUSH2 0x1BC2 JUMPI DUP5 DUP10 ADD MLOAD DUP3 SSTORE PUSH1 0x1 DUP3 ADD SWAP2 POP PUSH1 0x20 DUP6 ADD SWAP5 POP PUSH1 0x20 DUP2 ADD SWAP1 POP PUSH2 0x1B9D JUMP JUMPDEST DUP7 DUP4 LT ISZERO PUSH2 0x1BDF JUMPI DUP5 DUP10 ADD MLOAD PUSH2 0x1BDB PUSH1 0x1F DUP10 AND DUP3 PUSH2 0x1AE8 JUMP JUMPDEST DUP4 SSTORE POP JUMPDEST PUSH1 0x1 PUSH1 0x2 DUP9 MUL ADD DUP9 SSTORE POP POP POP JUMPDEST POP POP POP POP POP POP JUMP JUMPDEST PUSH1 0x0 DUP3 DUP3 MSTORE PUSH1 0x20 DUP3 ADD SWAP1 POP SWAP3 SWAP2 POP POP JUMP JUMPDEST PUSH32 0x50726F6475637420646F6573206E6F7420657869737400000000000000000000 PUSH1 0x0 DUP3 ADD MSTORE POP JUMP JUMPDEST PUSH1 0x0 PUSH2 0x1C3B PUSH1 0x16 DUP4 PUSH2 0x1BF4 JUMP JUMPDEST SWAP2 POP PUSH2 0x1C46 DUP3 PUSH2 0x1C05 JUMP JUMPDEST PUSH1 0x20 DUP3 ADD SWAP1 POP SWAP2 SWAP1 POP JUMP JUMPDEST PUSH1 0x0 PUSH1 0x20 DUP3 ADD SWAP1 POP DUP2 DUP2 SUB PUSH1 0x0 DUP4 ADD MSTORE PUSH2 0x1C6A DUP2 PUSH2 0x1C2E JUMP JUMPDEST SWAP1 POP SWAP2 SWAP1 POP JUMP JUMPDEST PUSH1 0x0 DUP2 SWAP1 POP SWAP2 SWAP1 POP JUMP JUMPDEST PUSH2 0x1C8C PUSH2 0x1C87 DUP3 PUSH2 0x1458 JUMP JUMPDEST PUSH2 0x1C71 JUMP JUMPDEST DUP3 MSTORE POP POP JUMP JUMPDEST PUSH1 0x0 PUSH2 0x1C9E DUP3 DUP8 PUSH2 0x1869 JUMP JUMPDEST SWAP2 POP PUSH2 0x1CAA DUP3 DUP7 PUSH2 0x1C7B JUMP JUMPDEST PUSH1 0x20 DUP3 ADD SWAP2 POP PUSH2 0x1CBA DUP3 DUP6 PUSH2 0x1869 JUMP JUMPDEST SWAP2 POP PUSH2 0x1CC6 DUP3 DUP5 PUSH2 0x1869 JUMP JUMPDEST SWAP2 POP DUP2 SWAP1 POP SWAP6 SWAP5 POP POP POP POP POP JUMP JUMPDEST PUSH1 0x0 PUSH2 0x1CE0 DUP3 DUP7 PUSH2 0x1869 JUMP JUMPDEST SWAP2 POP PUSH2 0x1CEC DUP3 DUP6 PUSH2 0x1C7B JUMP JUMPDEST PUSH1 0x20 DUP3 ADD SWAP2 POP PUSH2 0x1CFC DUP3 DUP5 PUSH2 0x1869 JUMP JUMPDEST SWAP2 POP DUP2 SWAP1 POP SWAP5 SWAP4 POP POP POP POP JUMP JUMPDEST PUSH32 0x456974686572207175616C697479206F72207175616E746974792073686F756C PUSH1 0x0 DUP3 ADD MSTORE PUSH32 0x6420626520757064617465640000000000000000000000000000000000000000 PUSH1 0x20 DUP3 ADD MSTORE POP JUMP JUMPDEST PUSH1 0x0 PUSH2 0x1D65 PUSH1 0x2C DUP4 PUSH2 0x1BF4 JUMP JUMPDEST SWAP2 POP PUSH2 0x1D70 DUP3 PUSH2 0x1D09 JUMP JUMPDEST PUSH1 0x40 DUP3 ADD SWAP1 POP SWAP2 SWAP1 POP JUMP JUMPDEST PUSH1 0x0 PUSH1 0x20 DUP3 ADD SWAP1 POP DUP2 DUP2 SUB PUSH1 0x0 DUP4 ADD MSTORE PUSH2 0x1D94 DUP2 PUSH2 0x1D58 JUMP JUMPDEST SWAP1 POP SWAP2 SWAP1 POP JUMP JUMPDEST PUSH32 0x50726F647563742077697468206E6577207175616C69747920616E6420717561 PUSH1 0x0 DUP3 ADD MSTORE PUSH32 0x6E7469747920616C726561647920657869737473000000000000000000000000 PUSH1 0x20 DUP3 ADD MSTORE POP JUMP JUMPDEST PUSH1 0x0 PUSH2 0x1DF7 PUSH1 0x34 DUP4 PUSH2 0x1BF4 JUMP JUMPDEST SWAP2 POP PUSH2 0x1E02 DUP3 PUSH2 0x1D9B JUMP JUMPDEST PUSH1 0x40 DUP3 ADD SWAP1 POP SWAP2 SWAP1 POP JUMP JUMPDEST PUSH1 0x0 PUSH1 0x20 DUP3 ADD SWAP1 POP DUP2 DUP2 SUB PUSH1 0x0 DUP4 ADD MSTORE PUSH2 0x1E26 DUP2 PUSH2 0x1DEA JUMP JUMPDEST SWAP1 POP SWAP2 SWAP1 POP JUMP JUMPDEST PUSH1 0x0 DUP2 SLOAD SWAP1 POP PUSH2 0x1E3C DUP2 PUSH2 0x193B JUMP JUMPDEST SWAP1 POP SWAP2 SWAP1 POP JUMP JUMPDEST PUSH1 0x0 DUP2 SWAP1 POP DUP2 PUSH1 0x0 MSTORE PUSH1 0x20 PUSH1 0x0 KECCAK256 SWAP1 POP SWAP2 SWAP1 POP JUMP JUMPDEST DUP2 DUP2 SUB PUSH2 0x1E66 JUMPI POP POP PUSH2 0x1F3E JUMP JUMPDEST PUSH2 0x1E6F DUP3 PUSH2 0x1E2D JUMP JUMPDEST PUSH8 0xFFFFFFFFFFFFFFFF DUP2 GT ISZERO PUSH2 0x1E88 JUMPI PUSH2 0x1E87 PUSH2 0x101F JUMP JUMPDEST JUMPDEST PUSH2 0x1E92 DUP3 SLOAD PUSH2 0x193B JUMP JUMPDEST PUSH2 0x1E9D DUP3 DUP3 DUP6 PUSH2 0x1A95 JUMP JUMPDEST PUSH1 0x0 PUSH1 0x1F DUP4 GT PUSH1 0x1 DUP2 EQ PUSH2 0x1ECC JUMPI PUSH1 0x0 DUP5 ISZERO PUSH2 0x1EBA JUMPI DUP3 DUP8 ADD SLOAD SWAP1 POP JUMPDEST PUSH2 0x1EC4 DUP6 DUP3 PUSH2 0x1B06 JUMP JUMPDEST DUP7 SSTORE POP PUSH2 0x1F37 JUMP JUMPDEST PUSH1 0x1F NOT DUP5 AND PUSH2 0x1EDA DUP8 PUSH2 0x1E43 JUMP JUMPDEST SWAP7 POP PUSH2 0x1EE5 DUP7 PUSH2 0x196C JUMP JUMPDEST PUSH1 0x0 JUMPDEST DUP3 DUP2 LT ISZERO PUSH2 0x1F0D JUMPI DUP5 DUP10 ADD SLOAD DUP3 SSTORE PUSH1 0x1 DUP3 ADD SWAP2 POP PUSH1 0x1 DUP6 ADD SWAP5 POP PUSH1 0x20 DUP2 ADD SWAP1 POP PUSH2 0x1EE8 JUMP JUMPDEST DUP7 DUP4 LT ISZERO PUSH2 0x1F2A JUMPI DUP5 DUP10 ADD SLOAD PUSH2 0x1F26 PUSH1 0x1F DUP10 AND DUP3 PUSH2 0x1AE8 JUMP JUMPDEST DUP4 SSTORE POP JUMPDEST PUSH1 0x1 PUSH1 0x2 DUP9 MUL ADD DUP9 SSTORE POP POP POP JUMPDEST POP POP POP POP POP POP JUMPDEST JUMP JUMPDEST PUSH1 0x0 DUP2 SLOAD SWAP1 POP PUSH2 0x1F4F DUP2 PUSH2 0x193B JUMP JUMPDEST SWAP1 POP SWAP2 SWAP1 POP JUMP JUMPDEST DUP2 DUP2 SUB PUSH2 0x1F64 JUMPI POP POP PUSH2 0x203C JUMP JUMPDEST PUSH2 0x1F6D DUP3 PUSH2 0x1F40 JUMP JUMPDEST PUSH8 0xFFFFFFFFFFFFFFFF DUP2 GT ISZERO PUSH2 0x1F86 JUMPI PUSH2 0x1F85 PUSH2 0x101F JUMP JUMPDEST JUMPDEST PUSH2 0x1F90 DUP3 SLOAD PUSH2 0x193B JUMP JUMPDEST PUSH2 0x1F9B DUP3 DUP3 DUP6 PUSH2 0x1A95 JUMP JUMPDEST PUSH1 0x0 PUSH1 0x1F DUP4 GT PUSH1 0x1 DUP2 EQ PUSH2 0x1FCA JUMPI PUSH1 0x0 DUP5 ISZERO PUSH2 0x1FB8 JUMPI DUP3 DUP8 ADD SLOAD SWAP1 POP JUMPDEST PUSH2 0x1FC2 DUP6 DUP3 PUSH2 0x1B06 JUMP JUMPDEST DUP7 SSTORE POP PUSH2 0x2035 JUMP JUMPDEST PUSH1 0x1F NOT DUP5 AND PUSH2 0x1FD8 DUP8 PUSH2 0x196C JUMP JUMPDEST SWAP7 POP PUSH2 0x1FE3 DUP7 PUSH2 0x196C JUMP JUMPDEST PUSH1 0x0 JUMPDEST DUP3 DUP2 LT ISZERO PUSH2 0x200B JUMPI DUP5 DUP10 ADD SLOAD DUP3 SSTORE PUSH1 0x1 DUP3 ADD SWAP2 POP PUSH1 0x1 DUP6 ADD SWAP5 POP PUSH1 0x20 DUP2 ADD SWAP1 POP PUSH2 0x1FE6 JUMP JUMPDEST DUP7 DUP4 LT ISZERO PUSH2 0x2028 JUMPI DUP5 DUP10 ADD SLOAD PUSH2 0x2024 PUSH1 0x1F DUP10 AND DUP3 PUSH2 0x1AE8 JUMP JUMPDEST DUP4 SSTORE POP JUMPDEST PUSH1 0x1 PUSH1 0x2 DUP9 MUL ADD DUP9 SSTORE POP POP POP JUMPDEST POP POP POP POP POP POP JUMPDEST JUMP INVALID LOG2 PUSH5 0x6970667358 0x22 SLT KECCAK256 SWAP5 0x5C PUSH30 0x457C5BA8C192DE01A4627409086EE60006AA536BB47B4AD37DBEC87E3864 PUSH20 0x6F6C634300081200330000000000000000000000 "
				},
				"gasEstimates": {
					"creation": {
						"codeDepositCost": "1661600",
						"executionCost": "1743",
						"totalCost": "1663343"
					},
					"external": {
						"addProduct(string,string,string,string,string,string,string,string,string,string[],string[])": "infinite",
						"getProductDetails(bytes32)": "infinite",
						"updateProductDetails(bytes32,string,string,string)": "infinite"
					}
				},
				"methodIdentifiers": {
					"addProduct(string,string,string,string,string,string,string,string,string,string[],string[])": "92b0b6bf",
					"getProductDetails(bytes32)": "b74d3fb5",
					"updateProductDetails(bytes32,string,string,string)": "a5d8ad9f"
				}
			},
			"storageLayout": {
				"storage": [
					{
						"astId": 35,
						"contract": "contracts/traceability.sol:TraceabilityContract",
						"label": "products",
						"offset": 0,
						"slot": "0",
						"type": "t_mapping(t_bytes32,t_struct(ProductDetails)30_storage)"
					}
				],
				"types": {
					"t_array(t_string_storage)dyn_storage": {
						"base": "t_string_storage",
						"encoding": "dynamic_array",
						"label": "string[]",
						"numberOfBytes": "32"
					},
					"t_bytes32": {
						"encoding": "inplace",
						"label": "bytes32",
						"numberOfBytes": "32"
					},
					"t_mapping(t_bytes32,t_struct(ProductDetails)30_storage)": {
						"encoding": "mapping",
						"key": "t_bytes32",
						"label": "mapping(bytes32 => struct TraceabilityContract.ProductDetails)",
						"numberOfBytes": "32",
						"value": "t_struct(ProductDetails)30_storage"
					},
					"t_string_storage": {
						"encoding": "bytes",
						"label": "string",
						"numberOfBytes": "32"
					},
					"t_struct(FarmerDetails)8_storage": {
						"encoding": "inplace",
						"label": "struct TraceabilityContract.FarmerDetails",
						"members": [
							{
								"astId": 3,
								"contract": "contracts/traceability.sol:TraceabilityContract",
								"label": "farmerId",
								"offset": 0,
								"slot": "0",
								"type": "t_string_storage"
							},
							{
								"astId": 5,
								"contract": "contracts/traceability.sol:TraceabilityContract",
								"label": "farmerName",
								"offset": 0,
								"slot": "1",
								"type": "t_string_storage"
							},
							{
								"astId": 7,
								"contract": "contracts/traceability.sol:TraceabilityContract",
								"label": "pickupLocation",
								"offset": 0,
								"slot": "2",
								"type": "t_string_storage"
							}
						],
						"numberOfBytes": "96"
					},
					"t_struct(ProductDetails)30_storage": {
						"encoding": "inplace",
						"label": "struct TraceabilityContract.ProductDetails",
						"members": [
							{
								"astId": 10,
								"contract": "contracts/traceability.sol:TraceabilityContract",
								"label": "contractID",
								"offset": 0,
								"slot": "0",
								"type": "t_string_storage"
							},
							{
								"astId": 12,
								"contract": "contracts/traceability.sol:TraceabilityContract",
								"label": "productName",
								"offset": 0,
								"slot": "1",
								"type": "t_string_storage"
							},
							{
								"astId": 14,
								"contract": "contracts/traceability.sol:TraceabilityContract",
								"label": "quantity",
								"offset": 0,
								"slot": "2",
								"type": "t_string_storage"
							},
							{
								"astId": 16,
								"contract": "contracts/traceability.sol:TraceabilityContract",
								"label": "quality",
								"offset": 0,
								"slot": "3",
								"type": "t_string_storage"
							},
							{
								"astId": 19,
								"contract": "contracts/traceability.sol:TraceabilityContract",
								"label": "farmerDetails",
								"offset": 0,
								"slot": "4",
								"type": "t_struct(FarmerDetails)8_storage"
							},
							{
								"astId": 21,
								"contract": "contracts/traceability.sol:TraceabilityContract",
								"label": "offTakerID",
								"offset": 0,
								"slot": "7",
								"type": "t_string_storage"
							},
							{
								"astId": 23,
								"contract": "contracts/traceability.sol:TraceabilityContract",
								"label": "logisticID",
								"offset": 0,
								"slot": "8",
								"type": "t_string_storage"
							},
							{
								"astId": 26,
								"contract": "contracts/traceability.sol:TraceabilityContract",
								"label": "bagNumbers",
								"offset": 0,
								"slot": "9",
								"type": "t_array(t_string_storage)dyn_storage"
							},
							{
								"astId": 29,
								"contract": "contracts/traceability.sol:TraceabilityContract",
								"label": "bagQuantities",
								"offset": 0,
								"slot": "10",
								"type": "t_array(t_string_storage)dyn_storage"
							}
						],
						"numberOfBytes": "352"
					}
				}
			},
			"userdoc": {
				"kind": "user",
				"methods": {},
				"version": 1
			}
		}
	}
}