{
	"contracts/traceability.sol": {
		"TraceabilityContract": {
			"abi": [
				{
					"anonymous": false,
					"inputs": [
						{
							"indexed": true,
							"internalType": "bytes32",
							"name": "hashKey",
							"type": "bytes32"
						}
					],
					"name": "ProductAdded",
					"type": "event"
				},
				{
					"inputs": [
						{
							"internalType": "uint256",
							"name": "_contractID",
							"type": "uint256"
						},
						{
							"internalType": "string",
							"name": "_productName",
							"type": "string"
						},
						{
							"internalType": "string",
							"name": "_quantity",
							"type": "string"
						},
						{
							"internalType": "string",
							"name": "_quality",
							"type": "string"
						},
						{
							"internalType": "uint256",
							"name": "_farmerId",
							"type": "uint256"
						},
						{
							"internalType": "string",
							"name": "_farmerName",
							"type": "string"
						},
						{
							"internalType": "string",
							"name": "_pickupLocation",
							"type": "string"
						},
						{
							"internalType": "string",
							"name": "_deliveryAddress",
							"type": "string"
						},
						{
							"internalType": "string",
							"name": "_offTakerName",
							"type": "string"
						},
						{
							"internalType": "string[]",
							"name": "_bagNumbers",
							"type": "string[]"
						},
						{
							"internalType": "string[]",
							"name": "_bagQuantities",
							"type": "string[]"
						}
					],
					"name": "addProduct",
					"outputs": [
						{
							"internalType": "bytes32",
							"name": "",
							"type": "bytes32"
						}
					],
					"stateMutability": "nonpayable",
					"type": "function"
				},
				{
					"inputs": [
						{
							"internalType": "bytes32",
							"name": "hashKey",
							"type": "bytes32"
						}
					],
					"name": "getProductDetails",
					"outputs": [
						{
							"components": [
								{
									"internalType": "uint256",
									"name": "contractID",
									"type": "uint256"
								},
								{
									"internalType": "string",
									"name": "productName",
									"type": "string"
								},
								{
									"internalType": "string",
									"name": "quantity",
									"type": "string"
								},
								{
									"internalType": "string",
									"name": "quality",
									"type": "string"
								},
								{
									"internalType": "uint256",
									"name": "farmerId",
									"type": "uint256"
								},
								{
									"internalType": "string",
									"name": "farmerName",
									"type": "string"
								},
								{
									"internalType": "string",
									"name": "pickupLocation",
									"type": "string"
								},
								{
									"internalType": "string",
									"name": "deliveryAddress",
									"type": "string"
								},
								{
									"internalType": "string",
									"name": "offTakerName",
									"type": "string"
								},
								{
									"internalType": "string[]",
									"name": "bagNumbers",
									"type": "string[]"
								},
								{
									"internalType": "string[]",
									"name": "bagQuantities",
									"type": "string[]"
								}
							],
							"internalType": "struct TraceabilityContract.ProductDetails",
							"name": "",
							"type": "tuple"
						}
					],
					"stateMutability": "view",
					"type": "function"
				},
				{
					"inputs": [
						{
							"internalType": "bytes32",
							"name": "_oldHashKey",
							"type": "bytes32"
						},
						{
							"internalType": "uint256",
							"name": "_contractID",
							"type": "uint256"
						},
						{
							"internalType": "string",
							"name": "_newQuality",
							"type": "string"
						},
						{
							"internalType": "string",
							"name": "_newQuantity",
							"type": "string"
						}
					],
					"name": "updateProductDetails",
					"outputs": [
						{
							"internalType": "bytes32",
							"name": "",
							"type": "bytes32"
						}
					],
					"stateMutability": "nonpayable",
					"type": "function"
				}
			],
			"devdoc": {
				"kind": "dev",
				"methods": {},
				"version": 1
			},
			"evm": {
				"assembly": "    /* \"contracts/traceability.sol\":60:3916  contract TraceabilityContract {... */\n  mstore(0x40, 0x80)\n  callvalue\n  dup1\n  iszero\n  tag_1\n  jumpi\n  0x00\n  dup1\n  revert\ntag_1:\n  pop\n  dataSize(sub_0)\n  dup1\n  dataOffset(sub_0)\n  0x00\n  codecopy\n  0x00\n  return\nstop\n\nsub_0: assembly {\n        /* \"contracts/traceability.sol\":60:3916  contract TraceabilityContract {... */\n      mstore(0x40, 0x80)\n      callvalue\n      dup1\n      iszero\n      tag_1\n      jumpi\n      0x00\n      dup1\n      revert\n    tag_1:\n      pop\n      jumpi(tag_2, lt(calldatasize, 0x04))\n      shr(0xe0, calldataload(0x00))\n      dup1\n      0x2c24e37d\n      eq\n      tag_3\n      jumpi\n      dup1\n      0xb74d3fb5\n      eq\n      tag_4\n      jumpi\n      dup1\n      0xdbda06f9\n      eq\n      tag_5\n      jumpi\n    tag_2:\n      0x00\n      dup1\n      revert\n        /* \"contracts/traceability.sol\":1781:3743  function updateProductDetails(    ... */\n    tag_3:\n      tag_6\n      0x04\n      dup1\n      calldatasize\n      sub\n      dup2\n      add\n      swap1\n      tag_7\n      swap2\n      swap1\n      tag_8\n      jump\t// in\n    tag_7:\n      tag_9\n      jump\t// in\n    tag_6:\n      mload(0x40)\n      tag_10\n      swap2\n      swap1\n      tag_11\n      jump\t// in\n    tag_10:\n      mload(0x40)\n      dup1\n      swap2\n      sub\n      swap1\n      return\n        /* \"contracts/traceability.sol\":3782:3913  function getProductDetails(bytes32 hashKey) public view returns (ProductDetails memory) {... */\n    tag_4:\n      tag_12\n      0x04\n      dup1\n      calldatasize\n      sub\n      dup2\n      add\n      swap1\n      tag_13\n      swap2\n      swap1\n      tag_14\n      jump\t// in\n    tag_13:\n      tag_15\n      jump\t// in\n    tag_12:\n      mload(0x40)\n      tag_16\n      swap2\n      swap1\n      tag_17\n      jump\t// in\n    tag_16:\n      mload(0x40)\n      dup1\n      swap2\n      sub\n      swap1\n      return\n        /* \"contracts/traceability.sol\":611:1740  function addProduct(... */\n    tag_5:\n      tag_18\n      0x04\n      dup1\n      calldatasize\n      sub\n      dup2\n      add\n      swap1\n      tag_19\n      swap2\n      swap1\n      tag_20\n      jump\t// in\n    tag_19:\n      tag_21\n      jump\t// in\n    tag_18:\n      mload(0x40)\n      tag_22\n      swap2\n      swap1\n      tag_11\n      jump\t// in\n    tag_22:\n      mload(0x40)\n      dup1\n      swap2\n      sub\n      swap1\n      return\n        /* \"contracts/traceability.sol\":1781:3743  function updateProductDetails(    ... */\n    tag_9:\n        /* \"contracts/traceability.sol\":1951:1958  bytes32 */\n      0x00\n        /* \"contracts/traceability.sol\":1967:1997  ProductDetails storage product */\n      dup1\n        /* \"contracts/traceability.sol\":2000:2008  products */\n      0x00\n        /* \"contracts/traceability.sol\":2000:2021  products[_oldHashKey] */\n      dup1\n        /* \"contracts/traceability.sol\":2009:2020  _oldHashKey */\n      dup8\n        /* \"contracts/traceability.sol\":2000:2021  products[_oldHashKey] */\n      dup2\n      mstore\n      0x20\n      add\n      swap1\n      dup2\n      mstore\n      0x20\n      add\n      0x00\n      keccak256\n        /* \"contracts/traceability.sol\":1967:2021  ProductDetails storage product = products[_oldHashKey] */\n      swap1\n      pop\n        /* \"contracts/traceability.sol\":2058:2059  0 */\n      0x00\n        /* \"contracts/traceability.sol\":2036:2043  product */\n      dup2\n        /* \"contracts/traceability.sol\":2036:2054  product.contractID */\n      0x00\n      add\n      sload\n        /* \"contracts/traceability.sol\":2036:2059  product.contractID != 0 */\n      sub\n        /* \"contracts/traceability.sol\":2028:2086  require(product.contractID != 0, \"Product does not exist\") */\n      tag_24\n      jumpi\n      mload(0x40)\n      0x08c379a000000000000000000000000000000000000000000000000000000000\n      dup2\n      mstore\n      0x04\n      add\n      tag_25\n      swap1\n      tag_26\n      jump\t// in\n    tag_25:\n      mload(0x40)\n      dup1\n      swap2\n      sub\n      swap1\n      revert\n    tag_24:\n        /* \"contracts/traceability.sol\":2101:2119  bytes32 newHashKey */\n      0x00\n        /* \"contracts/traceability.sol\":2158:2159  0 */\n      dup1\n        /* \"contracts/traceability.sol\":2136:2147  _newQuality */\n      dup6\n        /* \"contracts/traceability.sol\":2130:2155  bytes(_newQuality).length */\n      mload\n        /* \"contracts/traceability.sol\":2130:2159  bytes(_newQuality).length > 0 */\n      gt\n        /* \"contracts/traceability.sol\":2130:2193  bytes(_newQuality).length > 0 && bytes(_newQuantity).length > 0 */\n      dup1\n      iszero\n      tag_27\n      jumpi\n      pop\n        /* \"contracts/traceability.sol\":2192:2193  0 */\n      0x00\n        /* \"contracts/traceability.sol\":2169:2181  _newQuantity */\n      dup5\n        /* \"contracts/traceability.sol\":2163:2189  bytes(_newQuantity).length */\n      mload\n        /* \"contracts/traceability.sol\":2163:2193  bytes(_newQuantity).length > 0 */\n      gt\n        /* \"contracts/traceability.sol\":2130:2193  bytes(_newQuality).length > 0 && bytes(_newQuantity).length > 0 */\n    tag_27:\n        /* \"contracts/traceability.sol\":2126:2829  if (bytes(_newQuality).length > 0 && bytes(_newQuantity).length > 0) {... */\n      iszero\n      tag_28\n      jumpi\n        /* \"contracts/traceability.sol\":2260:2271  _contractID */\n      dup6\n        /* \"contracts/traceability.sol\":2286:2297  _oldHashKey */\n      dup8\n        /* \"contracts/traceability.sol\":2312:2324  _newQuantity */\n      dup6\n        /* \"contracts/traceability.sol\":2339:2350  _newQuality */\n      dup8\n        /* \"contracts/traceability.sol\":2229:2361  abi.encodePacked(... */\n      add(0x20, mload(0x40))\n      tag_29\n      swap5\n      swap4\n      swap3\n      swap2\n      swap1\n      tag_30\n      jump\t// in\n    tag_29:\n      mload(0x40)\n      0x20\n      dup2\n      dup4\n      sub\n      sub\n      dup2\n      mstore\n      swap1\n      0x40\n      mstore\n        /* \"contracts/traceability.sol\":2219:2362  keccak256(abi.encodePacked(... */\n      dup1\n      mload\n      swap1\n      0x20\n      add\n      keccak256\n        /* \"contracts/traceability.sol\":2206:2362  newHashKey = keccak256(abi.encodePacked(... */\n      swap1\n      pop\n        /* \"contracts/traceability.sol\":2126:2829  if (bytes(_newQuality).length > 0 && bytes(_newQuantity).length > 0) {... */\n      jump(tag_31)\n    tag_28:\n        /* \"contracts/traceability.sol\":2408:2409  0 */\n      0x00\n        /* \"contracts/traceability.sol\":2386:2397  _newQuality */\n      dup6\n        /* \"contracts/traceability.sol\":2380:2405  bytes(_newQuality).length */\n      mload\n        /* \"contracts/traceability.sol\":2380:2409  bytes(_newQuality).length > 0 */\n      gt\n        /* \"contracts/traceability.sol\":2376:2829  if (bytes(_newQuality).length > 0) {... */\n      iszero\n      tag_32\n      jumpi\n        /* \"contracts/traceability.sol\":2476:2487  _contractID */\n      dup6\n        /* \"contracts/traceability.sol\":2502:2513  _oldHashKey */\n      dup8\n        /* \"contracts/traceability.sol\":2528:2539  _newQuality */\n      dup7\n        /* \"contracts/traceability.sol\":2445:2550  abi.encodePacked(... */\n      add(0x20, mload(0x40))\n      tag_33\n      swap4\n      swap3\n      swap2\n      swap1\n      tag_34\n      jump\t// in\n    tag_33:\n      mload(0x40)\n      0x20\n      dup2\n      dup4\n      sub\n      sub\n      dup2\n      mstore\n      swap1\n      0x40\n      mstore\n        /* \"contracts/traceability.sol\":2435:2551  keccak256(abi.encodePacked(... */\n      dup1\n      mload\n      swap1\n      0x20\n      add\n      keccak256\n        /* \"contracts/traceability.sol\":2422:2551  newHashKey = keccak256(abi.encodePacked(... */\n      swap1\n      pop\n        /* \"contracts/traceability.sol\":2376:2829  if (bytes(_newQuality).length > 0) {... */\n      jump(tag_35)\n    tag_32:\n        /* \"contracts/traceability.sol\":2598:2599  0 */\n      0x00\n        /* \"contracts/traceability.sol\":2575:2587  _newQuantity */\n      dup5\n        /* \"contracts/traceability.sol\":2569:2595  bytes(_newQuantity).length */\n      mload\n        /* \"contracts/traceability.sol\":2569:2599  bytes(_newQuantity).length > 0 */\n      gt\n        /* \"contracts/traceability.sol\":2565:2829  if (bytes(_newQuantity).length > 0) {... */\n      iszero\n      tag_36\n      jumpi\n        /* \"contracts/traceability.sol\":2666:2677  _contractID */\n      dup6\n        /* \"contracts/traceability.sol\":2692:2703  _oldHashKey */\n      dup8\n        /* \"contracts/traceability.sol\":2718:2730  _newQuantity */\n      dup6\n        /* \"contracts/traceability.sol\":2635:2741  abi.encodePacked(... */\n      add(0x20, mload(0x40))\n      tag_37\n      swap4\n      swap3\n      swap2\n      swap1\n      tag_34\n      jump\t// in\n    tag_37:\n      mload(0x40)\n      0x20\n      dup2\n      dup4\n      sub\n      sub\n      dup2\n      mstore\n      swap1\n      0x40\n      mstore\n        /* \"contracts/traceability.sol\":2625:2742  keccak256(abi.encodePacked(... */\n      dup1\n      mload\n      swap1\n      0x20\n      add\n      keccak256\n        /* \"contracts/traceability.sol\":2612:2742  newHashKey = keccak256(abi.encodePacked(... */\n      swap1\n      pop\n        /* \"contracts/traceability.sol\":2565:2829  if (bytes(_newQuantity).length > 0) {... */\n      jump(tag_38)\n    tag_36:\n        /* \"contracts/traceability.sol\":2767:2821  revert(\"Either quality or quantity should be updated\") */\n      mload(0x40)\n      0x08c379a000000000000000000000000000000000000000000000000000000000\n      dup2\n      mstore\n      0x04\n      add\n      tag_39\n      swap1\n      tag_40\n      jump\t// in\n    tag_39:\n      mload(0x40)\n      dup1\n      swap2\n      sub\n      swap1\n      revert\n        /* \"contracts/traceability.sol\":2565:2829  if (bytes(_newQuantity).length > 0) {... */\n    tag_38:\n        /* \"contracts/traceability.sol\":2376:2829  if (bytes(_newQuality).length > 0) {... */\n    tag_35:\n        /* \"contracts/traceability.sol\":2126:2829  if (bytes(_newQuality).length > 0 && bytes(_newQuantity).length > 0) {... */\n    tag_31:\n        /* \"contracts/traceability.sol\":2890:2891  0 */\n      0x00\n        /* \"contracts/traceability.sol\":2855:2863  products */\n      dup1\n        /* \"contracts/traceability.sol\":2855:2875  products[newHashKey] */\n      0x00\n        /* \"contracts/traceability.sol\":2864:2874  newHashKey */\n      dup4\n        /* \"contracts/traceability.sol\":2855:2875  products[newHashKey] */\n      dup2\n      mstore\n      0x20\n      add\n      swap1\n      dup2\n      mstore\n      0x20\n      add\n      0x00\n      keccak256\n        /* \"contracts/traceability.sol\":2855:2886  products[newHashKey].contractID */\n      0x00\n      add\n      sload\n        /* \"contracts/traceability.sol\":2855:2891  products[newHashKey].contractID == 0 */\n      eq\n        /* \"contracts/traceability.sol\":2837:2963  require(... */\n      tag_41\n      jumpi\n      mload(0x40)\n      0x08c379a000000000000000000000000000000000000000000000000000000000\n      dup2\n      mstore\n      0x04\n      add\n      tag_42\n      swap1\n      tag_43\n      jump\t// in\n    tag_42:\n      mload(0x40)\n      dup1\n      swap2\n      sub\n      swap1\n      revert\n    tag_41:\n        /* \"contracts/traceability.sol\":2972:3005  ProductDetails storage newProduct */\n      0x00\n        /* \"contracts/traceability.sol\":3008:3016  products */\n      dup1\n        /* \"contracts/traceability.sol\":3008:3028  products[newHashKey] */\n      0x00\n        /* \"contracts/traceability.sol\":3017:3027  newHashKey */\n      dup4\n        /* \"contracts/traceability.sol\":3008:3028  products[newHashKey] */\n      dup2\n      mstore\n      0x20\n      add\n      swap1\n      dup2\n      mstore\n      0x20\n      add\n      0x00\n      keccak256\n        /* \"contracts/traceability.sol\":2972:3028  ProductDetails storage newProduct = products[newHashKey] */\n      swap1\n      pop\n        /* \"contracts/traceability.sol\":3059:3066  product */\n      dup3\n        /* \"contracts/traceability.sol\":3059:3077  product.contractID */\n      0x00\n      add\n      sload\n        /* \"contracts/traceability.sol\":3035:3045  newProduct */\n      dup2\n        /* \"contracts/traceability.sol\":3035:3056  newProduct.contractID */\n      0x00\n      add\n        /* \"contracts/traceability.sol\":3035:3077  newProduct.contractID = product.contractID */\n      dup2\n      swap1\n      sstore\n      pop\n        /* \"contracts/traceability.sol\":3109:3116  product */\n      dup3\n        /* \"contracts/traceability.sol\":3109:3128  product.productName */\n      0x01\n      add\n        /* \"contracts/traceability.sol\":3084:3094  newProduct */\n      dup2\n        /* \"contracts/traceability.sol\":3084:3106  newProduct.productName */\n      0x01\n      add\n        /* \"contracts/traceability.sol\":3084:3128  newProduct.productName = product.productName */\n      swap1\n      dup2\n      tag_44\n      swap2\n      swap1\n      tag_45\n      jump\t// in\n    tag_44:\n      pop\n        /* \"contracts/traceability.sol\":3186:3187  0 */\n      0x00\n        /* \"contracts/traceability.sol\":3163:3175  _newQuantity */\n      dup6\n        /* \"contracts/traceability.sol\":3157:3183  bytes(_newQuantity).length */\n      mload\n        /* \"contracts/traceability.sol\":3157:3187  bytes(_newQuantity).length > 0 */\n      gt\n        /* \"contracts/traceability.sol\":3157:3221  bytes(_newQuantity).length > 0 ? _newQuantity : product.quantity */\n      tag_46\n      jumpi\n        /* \"contracts/traceability.sol\":3205:3212  product */\n      dup3\n        /* \"contracts/traceability.sol\":3205:3221  product.quantity */\n      0x02\n      add\n        /* \"contracts/traceability.sol\":3157:3221  bytes(_newQuantity).length > 0 ? _newQuantity : product.quantity */\n      dup1\n      sload\n      tag_47\n      swap1\n      tag_48\n      jump\t// in\n    tag_47:\n      dup1\n      0x1f\n      add\n      0x20\n      dup1\n      swap2\n      div\n      mul\n      0x20\n      add\n      mload(0x40)\n      swap1\n      dup2\n      add\n      0x40\n      mstore\n      dup1\n      swap3\n      swap2\n      swap1\n      dup2\n      dup2\n      mstore\n      0x20\n      add\n      dup3\n      dup1\n      sload\n      tag_49\n      swap1\n      tag_48\n      jump\t// in\n    tag_49:\n      dup1\n      iszero\n      tag_50\n      jumpi\n      dup1\n      0x1f\n      lt\n      tag_51\n      jumpi\n      0x0100\n      dup1\n      dup4\n      sload\n      div\n      mul\n      dup4\n      mstore\n      swap2\n      0x20\n      add\n      swap2\n      jump(tag_50)\n    tag_51:\n      dup3\n      add\n      swap2\n      swap1\n      0x00\n      mstore\n      keccak256(0x00, 0x20)\n      swap1\n    tag_52:\n      dup2\n      sload\n      dup2\n      mstore\n      swap1\n      0x01\n      add\n      swap1\n      0x20\n      add\n      dup1\n      dup4\n      gt\n      tag_52\n      jumpi\n      dup3\n      swap1\n      sub\n      0x1f\n      and\n      dup3\n      add\n      swap2\n    tag_50:\n      pop\n      pop\n      pop\n      pop\n      pop\n      jump(tag_53)\n    tag_46:\n        /* \"contracts/traceability.sol\":3190:3202  _newQuantity */\n      dup5\n        /* \"contracts/traceability.sol\":3157:3221  bytes(_newQuantity).length > 0 ? _newQuantity : product.quantity */\n    tag_53:\n        /* \"contracts/traceability.sol\":3135:3145  newProduct */\n      dup2\n        /* \"contracts/traceability.sol\":3135:3154  newProduct.quantity */\n      0x02\n      add\n        /* \"contracts/traceability.sol\":3135:3221  newProduct.quantity = bytes(_newQuantity).length > 0 ? _newQuantity : product.quantity */\n      swap1\n      dup2\n      tag_54\n      swap2\n      swap1\n      tag_55\n      jump\t// in\n    tag_54:\n      pop\n        /* \"contracts/traceability.sol\":3277:3278  0 */\n      0x00\n        /* \"contracts/traceability.sol\":3255:3266  _newQuality */\n      dup7\n        /* \"contracts/traceability.sol\":3249:3274  bytes(_newQuality).length */\n      mload\n        /* \"contracts/traceability.sol\":3249:3278  bytes(_newQuality).length > 0 */\n      gt\n        /* \"contracts/traceability.sol\":3249:3310  bytes(_newQuality).length > 0 ? _newQuality : product.quality */\n      tag_56\n      jumpi\n        /* \"contracts/traceability.sol\":3295:3302  product */\n      dup3\n        /* \"contracts/traceability.sol\":3295:3310  product.quality */\n      0x03\n      add\n        /* \"contracts/traceability.sol\":3249:3310  bytes(_newQuality).length > 0 ? _newQuality : product.quality */\n      dup1\n      sload\n      tag_57\n      swap1\n      tag_48\n      jump\t// in\n    tag_57:\n      dup1\n      0x1f\n      add\n      0x20\n      dup1\n      swap2\n      div\n      mul\n      0x20\n      add\n      mload(0x40)\n      swap1\n      dup2\n      add\n      0x40\n      mstore\n      dup1\n      swap3\n      swap2\n      swap1\n      dup2\n      dup2\n      mstore\n      0x20\n      add\n      dup3\n      dup1\n      sload\n      tag_58\n      swap1\n      tag_48\n      jump\t// in\n    tag_58:\n      dup1\n      iszero\n      tag_59\n      jumpi\n      dup1\n      0x1f\n      lt\n      tag_60\n      jumpi\n      0x0100\n      dup1\n      dup4\n      sload\n      div\n      mul\n      dup4\n      mstore\n      swap2\n      0x20\n      add\n      swap2\n      jump(tag_59)\n    tag_60:\n      dup3\n      add\n      swap2\n      swap1\n      0x00\n      mstore\n      keccak256(0x00, 0x20)\n      swap1\n    tag_61:\n      dup2\n      sload\n      dup2\n      mstore\n      swap1\n      0x01\n      add\n      swap1\n      0x20\n      add\n      dup1\n      dup4\n      gt\n      tag_61\n      jumpi\n      dup3\n      swap1\n      sub\n      0x1f\n      and\n      dup3\n      add\n      swap2\n    tag_59:\n      pop\n      pop\n      pop\n      pop\n      pop\n      jump(tag_62)\n    tag_56:\n        /* \"contracts/traceability.sol\":3281:3292  _newQuality */\n      dup6\n        /* \"contracts/traceability.sol\":3249:3310  bytes(_newQuality).length > 0 ? _newQuality : product.quality */\n    tag_62:\n        /* \"contracts/traceability.sol\":3228:3238  newProduct */\n      dup2\n        /* \"contracts/traceability.sol\":3228:3246  newProduct.quality */\n      0x03\n      add\n        /* \"contracts/traceability.sol\":3228:3310  newProduct.quality = bytes(_newQuality).length > 0 ? _newQuality : product.quality */\n      swap1\n      dup2\n      tag_63\n      swap2\n      swap1\n      tag_55\n      jump\t// in\n    tag_63:\n      pop\n        /* \"contracts/traceability.sol\":3339:3346  product */\n      dup3\n        /* \"contracts/traceability.sol\":3339:3355  product.farmerId */\n      0x04\n      add\n      sload\n        /* \"contracts/traceability.sol\":3317:3327  newProduct */\n      dup2\n        /* \"contracts/traceability.sol\":3317:3336  newProduct.farmerId */\n      0x04\n      add\n        /* \"contracts/traceability.sol\":3317:3355  newProduct.farmerId = product.farmerId */\n      dup2\n      swap1\n      sstore\n      pop\n        /* \"contracts/traceability.sol\":3386:3393  product */\n      dup3\n        /* \"contracts/traceability.sol\":3386:3404  product.farmerName */\n      0x05\n      add\n        /* \"contracts/traceability.sol\":3362:3372  newProduct */\n      dup2\n        /* \"contracts/traceability.sol\":3362:3383  newProduct.farmerName */\n      0x05\n      add\n        /* \"contracts/traceability.sol\":3362:3404  newProduct.farmerName = product.farmerName */\n      swap1\n      dup2\n      tag_64\n      swap2\n      swap1\n      tag_45\n      jump\t// in\n    tag_64:\n      pop\n        /* \"contracts/traceability.sol\":3437:3444  product */\n      dup3\n        /* \"contracts/traceability.sol\":3437:3457  product.offTakerName */\n      0x08\n      add\n        /* \"contracts/traceability.sol\":3411:3421  newProduct */\n      dup2\n        /* \"contracts/traceability.sol\":3411:3434  newProduct.offTakerName */\n      0x08\n      add\n        /* \"contracts/traceability.sol\":3411:3457  newProduct.offTakerName = product.offTakerName */\n      swap1\n      dup2\n      tag_65\n      swap2\n      swap1\n      tag_45\n      jump\t// in\n    tag_65:\n      pop\n        /* \"contracts/traceability.sol\":3492:3499  product */\n      dup3\n        /* \"contracts/traceability.sol\":3492:3514  product.pickupLocation */\n      0x06\n      add\n        /* \"contracts/traceability.sol\":3464:3474  newProduct */\n      dup2\n        /* \"contracts/traceability.sol\":3464:3489  newProduct.pickupLocation */\n      0x06\n      add\n        /* \"contracts/traceability.sol\":3464:3514  newProduct.pickupLocation = product.pickupLocation */\n      swap1\n      dup2\n      tag_66\n      swap2\n      swap1\n      tag_45\n      jump\t// in\n    tag_66:\n      pop\n        /* \"contracts/traceability.sol\":3550:3557  product */\n      dup3\n        /* \"contracts/traceability.sol\":3550:3573  product.deliveryAddress */\n      0x07\n      add\n        /* \"contracts/traceability.sol\":3521:3531  newProduct */\n      dup2\n        /* \"contracts/traceability.sol\":3521:3547  newProduct.deliveryAddress */\n      0x07\n      add\n        /* \"contracts/traceability.sol\":3521:3573  newProduct.deliveryAddress = product.deliveryAddress */\n      swap1\n      dup2\n      tag_67\n      swap2\n      swap1\n      tag_45\n      jump\t// in\n    tag_67:\n      pop\n        /* \"contracts/traceability.sol\":3604:3611  product */\n      dup3\n        /* \"contracts/traceability.sol\":3604:3622  product.bagNumbers */\n      0x09\n      add\n        /* \"contracts/traceability.sol\":3580:3590  newProduct */\n      dup2\n        /* \"contracts/traceability.sol\":3580:3601  newProduct.bagNumbers */\n      0x09\n      add\n        /* \"contracts/traceability.sol\":3580:3622  newProduct.bagNumbers = product.bagNumbers */\n      swap1\n      dup1\n      sload\n      tag_68\n      swap3\n      swap2\n      swap1\n      tag_69\n      jump\t// in\n    tag_68:\n      pop\n        /* \"contracts/traceability.sol\":3656:3663  product */\n      dup3\n        /* \"contracts/traceability.sol\":3656:3677  product.bagQuantities */\n      0x0a\n      add\n        /* \"contracts/traceability.sol\":3629:3639  newProduct */\n      dup2\n        /* \"contracts/traceability.sol\":3629:3653  newProduct.bagQuantities */\n      0x0a\n      add\n        /* \"contracts/traceability.sol\":3629:3677  newProduct.bagQuantities = product.bagQuantities */\n      swap1\n      dup1\n      sload\n      tag_70\n      swap3\n      swap2\n      swap1\n      tag_69\n      jump\t// in\n    tag_70:\n      pop\n        /* \"contracts/traceability.sol\":3704:3714  newHashKey */\n      dup2\n        /* \"contracts/traceability.sol\":3691:3715  ProductAdded(newHashKey) */\n      0x6c2de183f2a2faf4876f357e3c75bf6e6e7aa4dd120e8b5e1bdb2901e085f69c\n      mload(0x40)\n      mload(0x40)\n      dup1\n      swap2\n      sub\n      swap1\n      log2\n        /* \"contracts/traceability.sol\":3729:3739  newHashKey */\n      dup2\n        /* \"contracts/traceability.sol\":3722:3739  return newHashKey */\n      swap4\n      pop\n      pop\n      pop\n      pop\n        /* \"contracts/traceability.sol\":1781:3743  function updateProductDetails(    ... */\n      swap5\n      swap4\n      pop\n      pop\n      pop\n      pop\n      jump\t// out\n        /* \"contracts/traceability.sol\":3782:3913  function getProductDetails(bytes32 hashKey) public view returns (ProductDetails memory) {... */\n    tag_15:\n        /* \"contracts/traceability.sol\":3847:3868  ProductDetails memory */\n      tag_71\n      tag_72\n      jump\t// in\n    tag_71:\n        /* \"contracts/traceability.sol\":3888:3896  products */\n      0x00\n        /* \"contracts/traceability.sol\":3888:3905  products[hashKey] */\n      dup1\n        /* \"contracts/traceability.sol\":3897:3904  hashKey */\n      dup4\n        /* \"contracts/traceability.sol\":3888:3905  products[hashKey] */\n      dup2\n      mstore\n      0x20\n      add\n      swap1\n      dup2\n      mstore\n      0x20\n      add\n      0x00\n      keccak256\n        /* \"contracts/traceability.sol\":3881:3905  return products[hashKey] */\n      mload(0x40)\n      dup1\n      0x0160\n      add\n      0x40\n      mstore\n      swap1\n      dup2\n      0x00\n      dup3\n      add\n      sload\n      dup2\n      mstore\n      0x20\n      add\n      0x01\n      dup3\n      add\n      dup1\n      sload\n      tag_74\n      swap1\n      tag_48\n      jump\t// in\n    tag_74:\n      dup1\n      0x1f\n      add\n      0x20\n      dup1\n      swap2\n      div\n      mul\n      0x20\n      add\n      mload(0x40)\n      swap1\n      dup2\n      add\n      0x40\n      mstore\n      dup1\n      swap3\n      swap2\n      swap1\n      dup2\n      dup2\n      mstore\n      0x20\n      add\n      dup3\n      dup1\n      sload\n      tag_75\n      swap1\n      tag_48\n      jump\t// in\n    tag_75:\n      dup1\n      iszero\n      tag_76\n      jumpi\n      dup1\n      0x1f\n      lt\n      tag_77\n      jumpi\n      0x0100\n      dup1\n      dup4\n      sload\n      div\n      mul\n      dup4\n      mstore\n      swap2\n      0x20\n      add\n      swap2\n      jump(tag_76)\n    tag_77:\n      dup3\n      add\n      swap2\n      swap1\n      0x00\n      mstore\n      keccak256(0x00, 0x20)\n      swap1\n    tag_78:\n      dup2\n      sload\n      dup2\n      mstore\n      swap1\n      0x01\n      add\n      swap1\n      0x20\n      add\n      dup1\n      dup4\n      gt\n      tag_78\n      jumpi\n      dup3\n      swap1\n      sub\n      0x1f\n      and\n      dup3\n      add\n      swap2\n    tag_76:\n      pop\n      pop\n      pop\n      pop\n      pop\n      dup2\n      mstore\n      0x20\n      add\n      0x02\n      dup3\n      add\n      dup1\n      sload\n      tag_79\n      swap1\n      tag_48\n      jump\t// in\n    tag_79:\n      dup1\n      0x1f\n      add\n      0x20\n      dup1\n      swap2\n      div\n      mul\n      0x20\n      add\n      mload(0x40)\n      swap1\n      dup2\n      add\n      0x40\n      mstore\n      dup1\n      swap3\n      swap2\n      swap1\n      dup2\n      dup2\n      mstore\n      0x20\n      add\n      dup3\n      dup1\n      sload\n      tag_80\n      swap1\n      tag_48\n      jump\t// in\n    tag_80:\n      dup1\n      iszero\n      tag_81\n      jumpi\n      dup1\n      0x1f\n      lt\n      tag_82\n      jumpi\n      0x0100\n      dup1\n      dup4\n      sload\n      div\n      mul\n      dup4\n      mstore\n      swap2\n      0x20\n      add\n      swap2\n      jump(tag_81)\n    tag_82:\n      dup3\n      add\n      swap2\n      swap1\n      0x00\n      mstore\n      keccak256(0x00, 0x20)\n      swap1\n    tag_83:\n      dup2\n      sload\n      dup2\n      mstore\n      swap1\n      0x01\n      add\n      swap1\n      0x20\n      add\n      dup1\n      dup4\n      gt\n      tag_83\n      jumpi\n      dup3\n      swap1\n      sub\n      0x1f\n      and\n      dup3\n      add\n      swap2\n    tag_81:\n      pop\n      pop\n      pop\n      pop\n      pop\n      dup2\n      mstore\n      0x20\n      add\n      0x03\n      dup3\n      add\n      dup1\n      sload\n      tag_84\n      swap1\n      tag_48\n      jump\t// in\n    tag_84:\n      dup1\n      0x1f\n      add\n      0x20\n      dup1\n      swap2\n      div\n      mul\n      0x20\n      add\n      mload(0x40)\n      swap1\n      dup2\n      add\n      0x40\n      mstore\n      dup1\n      swap3\n      swap2\n      swap1\n      dup2\n      dup2\n      mstore\n      0x20\n      add\n      dup3\n      dup1\n      sload\n      tag_85\n      swap1\n      tag_48\n      jump\t// in\n    tag_85:\n      dup1\n      iszero\n      tag_86\n      jumpi\n      dup1\n      0x1f\n      lt\n      tag_87\n      jumpi\n      0x0100\n      dup1\n      dup4\n      sload\n      div\n      mul\n      dup4\n      mstore\n      swap2\n      0x20\n      add\n      swap2\n      jump(tag_86)\n    tag_87:\n      dup3\n      add\n      swap2\n      swap1\n      0x00\n      mstore\n      keccak256(0x00, 0x20)\n      swap1\n    tag_88:\n      dup2\n      sload\n      dup2\n      mstore\n      swap1\n      0x01\n      add\n      swap1\n      0x20\n      add\n      dup1\n      dup4\n      gt\n      tag_88\n      jumpi\n      dup3\n      swap1\n      sub\n      0x1f\n      and\n      dup3\n      add\n      swap2\n    tag_86:\n      pop\n      pop\n      pop\n      pop\n      pop\n      dup2\n      mstore\n      0x20\n      add\n      0x04\n      dup3\n      add\n      sload\n      dup2\n      mstore\n      0x20\n      add\n      0x05\n      dup3\n      add\n      dup1\n      sload\n      tag_89\n      swap1\n      tag_48\n      jump\t// in\n    tag_89:\n      dup1\n      0x1f\n      add\n      0x20\n      dup1\n      swap2\n      div\n      mul\n      0x20\n      add\n      mload(0x40)\n      swap1\n      dup2\n      add\n      0x40\n      mstore\n      dup1\n      swap3\n      swap2\n      swap1\n      dup2\n      dup2\n      mstore\n      0x20\n      add\n      dup3\n      dup1\n      sload\n      tag_90\n      swap1\n      tag_48\n      jump\t// in\n    tag_90:\n      dup1\n      iszero\n      tag_91\n      jumpi\n      dup1\n      0x1f\n      lt\n      tag_92\n      jumpi\n      0x0100\n      dup1\n      dup4\n      sload\n      div\n      mul\n      dup4\n      mstore\n      swap2\n      0x20\n      add\n      swap2\n      jump(tag_91)\n    tag_92:\n      dup3\n      add\n      swap2\n      swap1\n      0x00\n      mstore\n      keccak256(0x00, 0x20)\n      swap1\n    tag_93:\n      dup2\n      sload\n      dup2\n      mstore\n      swap1\n      0x01\n      add\n      swap1\n      0x20\n      add\n      dup1\n      dup4\n      gt\n      tag_93\n      jumpi\n      dup3\n      swap1\n      sub\n      0x1f\n      and\n      dup3\n      add\n      swap2\n    tag_91:\n      pop\n      pop\n      pop\n      pop\n      pop\n      dup2\n      mstore\n      0x20\n      add\n      0x06\n      dup3\n      add\n      dup1\n      sload\n      tag_94\n      swap1\n      tag_48\n      jump\t// in\n    tag_94:\n      dup1\n      0x1f\n      add\n      0x20\n      dup1\n      swap2\n      div\n      mul\n      0x20\n      add\n      mload(0x40)\n      swap1\n      dup2\n      add\n      0x40\n      mstore\n      dup1\n      swap3\n      swap2\n      swap1\n      dup2\n      dup2\n      mstore\n      0x20\n      add\n      dup3\n      dup1\n      sload\n      tag_95\n      swap1\n      tag_48\n      jump\t// in\n    tag_95:\n      dup1\n      iszero\n      tag_96\n      jumpi\n      dup1\n      0x1f\n      lt\n      tag_97\n      jumpi\n      0x0100\n      dup1\n      dup4\n      sload\n      div\n      mul\n      dup4\n      mstore\n      swap2\n      0x20\n      add\n      swap2\n      jump(tag_96)\n    tag_97:\n      dup3\n      add\n      swap2\n      swap1\n      0x00\n      mstore\n      keccak256(0x00, 0x20)\n      swap1\n    tag_98:\n      dup2\n      sload\n      dup2\n      mstore\n      swap1\n      0x01\n      add\n      swap1\n      0x20\n      add\n      dup1\n      dup4\n      gt\n      tag_98\n      jumpi\n      dup3\n      swap1\n      sub\n      0x1f\n      and\n      dup3\n      add\n      swap2\n    tag_96:\n      pop\n      pop\n      pop\n      pop\n      pop\n      dup2\n      mstore\n      0x20\n      add\n      0x07\n      dup3\n      add\n      dup1\n      sload\n      tag_99\n      swap1\n      tag_48\n      jump\t// in\n    tag_99:\n      dup1\n      0x1f\n      add\n      0x20\n      dup1\n      swap2\n      div\n      mul\n      0x20\n      add\n      mload(0x40)\n      swap1\n      dup2\n      add\n      0x40\n      mstore\n      dup1\n      swap3\n      swap2\n      swap1\n      dup2\n      dup2\n      mstore\n      0x20\n      add\n      dup3\n      dup1\n      sload\n      tag_100\n      swap1\n      tag_48\n      jump\t// in\n    tag_100:\n      dup1\n      iszero\n      tag_101\n      jumpi\n      dup1\n      0x1f\n      lt\n      tag_102\n      jumpi\n      0x0100\n      dup1\n      dup4\n      sload\n      div\n      mul\n      dup4\n      mstore\n      swap2\n      0x20\n      add\n      swap2\n      jump(tag_101)\n    tag_102:\n      dup3\n      add\n      swap2\n      swap1\n      0x00\n      mstore\n      keccak256(0x00, 0x20)\n      swap1\n    tag_103:\n      dup2\n      sload\n      dup2\n      mstore\n      swap1\n      0x01\n      add\n      swap1\n      0x20\n      add\n      dup1\n      dup4\n      gt\n      tag_103\n      jumpi\n      dup3\n      swap1\n      sub\n      0x1f\n      and\n      dup3\n      add\n      swap2\n    tag_101:\n      pop\n      pop\n      pop\n      pop\n      pop\n      dup2\n      mstore\n      0x20\n      add\n      0x08\n      dup3\n      add\n      dup1\n      sload\n      tag_104\n      swap1\n      tag_48\n      jump\t// in\n    tag_104:\n      dup1\n      0x1f\n      add\n      0x20\n      dup1\n      swap2\n      div\n      mul\n      0x20\n      add\n      mload(0x40)\n      swap1\n      dup2\n      add\n      0x40\n      mstore\n      dup1\n      swap3\n      swap2\n      swap1\n      dup2\n      dup2\n      mstore\n      0x20\n      add\n      dup3\n      dup1\n      sload\n      tag_105\n      swap1\n      tag_48\n      jump\t// in\n    tag_105:\n      dup1\n      iszero\n      tag_106\n      jumpi\n      dup1\n      0x1f\n      lt\n      tag_107\n      jumpi\n      0x0100\n      dup1\n      dup4\n      sload\n      div\n      mul\n      dup4\n      mstore\n      swap2\n      0x20\n      add\n      swap2\n      jump(tag_106)\n    tag_107:\n      dup3\n      add\n      swap2\n      swap1\n      0x00\n      mstore\n      keccak256(0x00, 0x20)\n      swap1\n    tag_108:\n      dup2\n      sload\n      dup2\n      mstore\n      swap1\n      0x01\n      add\n      swap1\n      0x20\n      add\n      dup1\n      dup4\n      gt\n      tag_108\n      jumpi\n      dup3\n      swap1\n      sub\n      0x1f\n      and\n      dup3\n      add\n      swap2\n    tag_106:\n      pop\n      pop\n      pop\n      pop\n      pop\n      dup2\n      mstore\n      0x20\n      add\n      0x09\n      dup3\n      add\n      dup1\n      sload\n      dup1\n      0x20\n      mul\n      0x20\n      add\n      mload(0x40)\n      swap1\n      dup2\n      add\n      0x40\n      mstore\n      dup1\n      swap3\n      swap2\n      swap1\n      dup2\n      dup2\n      mstore\n      0x20\n      add\n      0x00\n      swap1\n    tag_109:\n      dup3\n      dup3\n      lt\n      iszero\n      tag_110\n      jumpi\n      dup4\n      dup3\n      swap1\n      0x00\n      mstore\n      keccak256(0x00, 0x20)\n      add\n      dup1\n      sload\n      tag_112\n      swap1\n      tag_48\n      jump\t// in\n    tag_112:\n      dup1\n      0x1f\n      add\n      0x20\n      dup1\n      swap2\n      div\n      mul\n      0x20\n      add\n      mload(0x40)\n      swap1\n      dup2\n      add\n      0x40\n      mstore\n      dup1\n      swap3\n      swap2\n      swap1\n      dup2\n      dup2\n      mstore\n      0x20\n      add\n      dup3\n      dup1\n      sload\n      tag_113\n      swap1\n      tag_48\n      jump\t// in\n    tag_113:\n      dup1\n      iszero\n      tag_114\n      jumpi\n      dup1\n      0x1f\n      lt\n      tag_115\n      jumpi\n      0x0100\n      dup1\n      dup4\n      sload\n      div\n      mul\n      dup4\n      mstore\n      swap2\n      0x20\n      add\n      swap2\n      jump(tag_114)\n    tag_115:\n      dup3\n      add\n      swap2\n      swap1\n      0x00\n      mstore\n      keccak256(0x00, 0x20)\n      swap1\n    tag_116:\n      dup2\n      sload\n      dup2\n      mstore\n      swap1\n      0x01\n      add\n      swap1\n      0x20\n      add\n      dup1\n      dup4\n      gt\n      tag_116\n      jumpi\n      dup3\n      swap1\n      sub\n      0x1f\n      and\n      dup3\n      add\n      swap2\n    tag_114:\n      pop\n      pop\n      pop\n      pop\n      pop\n      dup2\n      mstore\n      0x20\n      add\n      swap1\n      0x01\n      add\n      swap1\n      jump(tag_109)\n    tag_110:\n      pop\n      pop\n      pop\n      pop\n      dup2\n      mstore\n      0x20\n      add\n      0x0a\n      dup3\n      add\n      dup1\n      sload\n      dup1\n      0x20\n      mul\n      0x20\n      add\n      mload(0x40)\n      swap1\n      dup2\n      add\n      0x40\n      mstore\n      dup1\n      swap3\n      swap2\n      swap1\n      dup2\n      dup2\n      mstore\n      0x20\n      add\n      0x00\n      swap1\n    tag_117:\n      dup3\n      dup3\n      lt\n      iszero\n      tag_118\n      jumpi\n      dup4\n      dup3\n      swap1\n      0x00\n      mstore\n      keccak256(0x00, 0x20)\n      add\n      dup1\n      sload\n      tag_120\n      swap1\n      tag_48\n      jump\t// in\n    tag_120:\n      dup1\n      0x1f\n      add\n      0x20\n      dup1\n      swap2\n      div\n      mul\n      0x20\n      add\n      mload(0x40)\n      swap1\n      dup2\n      add\n      0x40\n      mstore\n      dup1\n      swap3\n      swap2\n      swap1\n      dup2\n      dup2\n      mstore\n      0x20\n      add\n      dup3\n      dup1\n      sload\n      tag_121\n      swap1\n      tag_48\n      jump\t// in\n    tag_121:\n      dup1\n      iszero\n      tag_122\n      jumpi\n      dup1\n      0x1f\n      lt\n      tag_123\n      jumpi\n      0x0100\n      dup1\n      dup4\n      sload\n      div\n      mul\n      dup4\n      mstore\n      swap2\n      0x20\n      add\n      swap2\n      jump(tag_122)\n    tag_123:\n      dup3\n      add\n      swap2\n      swap1\n      0x00\n      mstore\n      keccak256(0x00, 0x20)\n      swap1\n    tag_124:\n      dup2\n      sload\n      dup2\n      mstore\n      swap1\n      0x01\n      add\n      swap1\n      0x20\n      add\n      dup1\n      dup4\n      gt\n      tag_124\n      jumpi\n      dup3\n      swap1\n      sub\n      0x1f\n      and\n      dup3\n      add\n      swap2\n    tag_122:\n      pop\n      pop\n      pop\n      pop\n      pop\n      dup2\n      mstore\n      0x20\n      add\n      swap1\n      0x01\n      add\n      swap1\n      jump(tag_117)\n    tag_118:\n      pop\n      pop\n      pop\n      pop\n      dup2\n      mstore\n      pop\n      pop\n      swap1\n      pop\n        /* \"contracts/traceability.sol\":3782:3913  function getProductDetails(bytes32 hashKey) public view returns (ProductDetails memory) {... */\n      swap2\n      swap1\n      pop\n      jump\t// out\n        /* \"contracts/traceability.sol\":611:1740  function addProduct(... */\n    tag_21:\n        /* \"contracts/traceability.sol\":1050:1057  bytes32 */\n      0x00\n        /* \"contracts/traceability.sol\":1070:1085  bytes32 hashKey */\n      dup1\n        /* \"contracts/traceability.sol\":1115:1126  _contractID */\n      dup13\n        /* \"contracts/traceability.sol\":1128:1140  _productName */\n      dup13\n        /* \"contracts/traceability.sol\":1142:1151  _quantity */\n      dup13\n        /* \"contracts/traceability.sol\":1153:1161  _quality */\n      dup13\n        /* \"contracts/traceability.sol\":1163:1172  _farmerId */\n      dup13\n        /* \"contracts/traceability.sol\":1174:1185  _farmerName */\n      dup13\n        /* \"contracts/traceability.sol\":1187:1202  _pickupLocation */\n      dup13\n        /* \"contracts/traceability.sol\":1204:1220  _deliveryAddress */\n      dup13\n        /* \"contracts/traceability.sol\":1222:1235  _offTakerName */\n      dup13\n        /* \"contracts/traceability.sol\":1098:1236  abi.encodePacked(_contractID, _productName, _quantity, _quality, _farmerId, _farmerName, _pickupLocation, _deliveryAddress, _offTakerName) */\n      add(0x20, mload(0x40))\n      tag_126\n      swap10\n      swap9\n      swap8\n      swap7\n      swap6\n      swap5\n      swap4\n      swap3\n      swap2\n      swap1\n      tag_127\n      jump\t// in\n    tag_126:\n      mload(0x40)\n      0x20\n      dup2\n      dup4\n      sub\n      sub\n      dup2\n      mstore\n      swap1\n      0x40\n      mstore\n        /* \"contracts/traceability.sol\":1088:1237  keccak256(abi.encodePacked(_contractID, _productName, _quantity, _quality, _farmerId, _farmerName, _pickupLocation, _deliveryAddress, _offTakerName)) */\n      dup1\n      mload\n      swap1\n      0x20\n      add\n      keccak256\n        /* \"contracts/traceability.sol\":1070:1237  bytes32 hashKey = keccak256(abi.encodePacked(_contractID, _productName, _quantity, _quality, _farmerId, _farmerName, _pickupLocation, _deliveryAddress, _offTakerName)) */\n      swap1\n      pop\n        /* \"contracts/traceability.sol\":1288:1289  0 */\n      0x00\n        /* \"contracts/traceability.sol\":1256:1264  products */\n      dup1\n        /* \"contracts/traceability.sol\":1256:1273  products[hashKey] */\n      0x00\n        /* \"contracts/traceability.sol\":1265:1272  hashKey */\n      dup4\n        /* \"contracts/traceability.sol\":1256:1273  products[hashKey] */\n      dup2\n      mstore\n      0x20\n      add\n      swap1\n      dup2\n      mstore\n      0x20\n      add\n      0x00\n      keccak256\n        /* \"contracts/traceability.sol\":1256:1284  products[hashKey].contractID */\n      0x00\n      add\n      sload\n        /* \"contracts/traceability.sol\":1256:1289  products[hashKey].contractID == 0 */\n      eq\n        /* \"contracts/traceability.sol\":1248:1316  require(products[hashKey].contractID == 0, \"Product already exists\") */\n      tag_128\n      jumpi\n      mload(0x40)\n      0x08c379a000000000000000000000000000000000000000000000000000000000\n      dup2\n      mstore\n      0x04\n      add\n      tag_129\n      swap1\n      tag_130\n      jump\t// in\n    tag_129:\n      mload(0x40)\n      dup1\n      swap2\n      sub\n      swap1\n      revert\n    tag_128:\n        /* \"contracts/traceability.sol\":1349:1668  ProductDetails(... */\n      mload(0x40)\n      dup1\n      0x0160\n      add\n      0x40\n      mstore\n      dup1\n        /* \"contracts/traceability.sol\":1378:1389  _contractID */\n      dup15\n        /* \"contracts/traceability.sol\":1349:1668  ProductDetails(... */\n      dup2\n      mstore\n      0x20\n      add\n        /* \"contracts/traceability.sol\":1404:1416  _productName */\n      dup14\n        /* \"contracts/traceability.sol\":1349:1668  ProductDetails(... */\n      dup2\n      mstore\n      0x20\n      add\n        /* \"contracts/traceability.sol\":1431:1440  _quantity */\n      dup13\n        /* \"contracts/traceability.sol\":1349:1668  ProductDetails(... */\n      dup2\n      mstore\n      0x20\n      add\n        /* \"contracts/traceability.sol\":1455:1463  _quality */\n      dup12\n        /* \"contracts/traceability.sol\":1349:1668  ProductDetails(... */\n      dup2\n      mstore\n      0x20\n      add\n        /* \"contracts/traceability.sol\":1478:1487  _farmerId */\n      dup11\n        /* \"contracts/traceability.sol\":1349:1668  ProductDetails(... */\n      dup2\n      mstore\n      0x20\n      add\n        /* \"contracts/traceability.sol\":1502:1513  _farmerName */\n      dup10\n        /* \"contracts/traceability.sol\":1349:1668  ProductDetails(... */\n      dup2\n      mstore\n      0x20\n      add\n        /* \"contracts/traceability.sol\":1528:1543  _pickupLocation */\n      dup9\n        /* \"contracts/traceability.sol\":1349:1668  ProductDetails(... */\n      dup2\n      mstore\n      0x20\n      add\n        /* \"contracts/traceability.sol\":1558:1574  _deliveryAddress */\n      dup8\n        /* \"contracts/traceability.sol\":1349:1668  ProductDetails(... */\n      dup2\n      mstore\n      0x20\n      add\n        /* \"contracts/traceability.sol\":1589:1602  _offTakerName */\n      dup7\n        /* \"contracts/traceability.sol\":1349:1668  ProductDetails(... */\n      dup2\n      mstore\n      0x20\n      add\n        /* \"contracts/traceability.sol\":1617:1628  _bagNumbers */\n      dup6\n        /* \"contracts/traceability.sol\":1349:1668  ProductDetails(... */\n      dup2\n      mstore\n      0x20\n      add\n        /* \"contracts/traceability.sol\":1643:1657  _bagQuantities */\n      dup5\n        /* \"contracts/traceability.sol\":1349:1668  ProductDetails(... */\n      dup2\n      mstore\n      pop\n        /* \"contracts/traceability.sol\":1329:1337  products */\n      0x00\n        /* \"contracts/traceability.sol\":1329:1346  products[hashKey] */\n      dup1\n        /* \"contracts/traceability.sol\":1338:1345  hashKey */\n      dup4\n        /* \"contracts/traceability.sol\":1329:1346  products[hashKey] */\n      dup2\n      mstore\n      0x20\n      add\n      swap1\n      dup2\n      mstore\n      0x20\n      add\n      0x00\n      keccak256\n        /* \"contracts/traceability.sol\":1329:1668  products[hashKey] = ProductDetails(... */\n      0x00\n      dup3\n      add\n      mload\n      dup2\n      0x00\n      add\n      sstore\n      0x20\n      dup3\n      add\n      mload\n      dup2\n      0x01\n      add\n      swap1\n      dup2\n      tag_131\n      swap2\n      swap1\n      tag_55\n      jump\t// in\n    tag_131:\n      pop\n      0x40\n      dup3\n      add\n      mload\n      dup2\n      0x02\n      add\n      swap1\n      dup2\n      tag_132\n      swap2\n      swap1\n      tag_55\n      jump\t// in\n    tag_132:\n      pop\n      0x60\n      dup3\n      add\n      mload\n      dup2\n      0x03\n      add\n      swap1\n      dup2\n      tag_133\n      swap2\n      swap1\n      tag_55\n      jump\t// in\n    tag_133:\n      pop\n      0x80\n      dup3\n      add\n      mload\n      dup2\n      0x04\n      add\n      sstore\n      0xa0\n      dup3\n      add\n      mload\n      dup2\n      0x05\n      add\n      swap1\n      dup2\n      tag_134\n      swap2\n      swap1\n      tag_55\n      jump\t// in\n    tag_134:\n      pop\n      0xc0\n      dup3\n      add\n      mload\n      dup2\n      0x06\n      add\n      swap1\n      dup2\n      tag_135\n      swap2\n      swap1\n      tag_55\n      jump\t// in\n    tag_135:\n      pop\n      0xe0\n      dup3\n      add\n      mload\n      dup2\n      0x07\n      add\n      swap1\n      dup2\n      tag_136\n      swap2\n      swap1\n      tag_55\n      jump\t// in\n    tag_136:\n      pop\n      0x0100\n      dup3\n      add\n      mload\n      dup2\n      0x08\n      add\n      swap1\n      dup2\n      tag_137\n      swap2\n      swap1\n      tag_55\n      jump\t// in\n    tag_137:\n      pop\n      0x0120\n      dup3\n      add\n      mload\n      dup2\n      0x09\n      add\n      swap1\n      dup1\n      mload\n      swap1\n      0x20\n      add\n      swap1\n      tag_138\n      swap3\n      swap2\n      swap1\n      tag_139\n      jump\t// in\n    tag_138:\n      pop\n      0x0140\n      dup3\n      add\n      mload\n      dup2\n      0x0a\n      add\n      swap1\n      dup1\n      mload\n      swap1\n      0x20\n      add\n      swap1\n      tag_140\n      swap3\n      swap2\n      swap1\n      tag_139\n      jump\t// in\n    tag_140:\n      pop\n      swap1\n      pop\n      pop\n        /* \"contracts/traceability.sol\":1699:1706  hashKey */\n      dup1\n        /* \"contracts/traceability.sol\":1686:1707  ProductAdded(hashKey) */\n      0x6c2de183f2a2faf4876f357e3c75bf6e6e7aa4dd120e8b5e1bdb2901e085f69c\n      mload(0x40)\n      mload(0x40)\n      dup1\n      swap2\n      sub\n      swap1\n      log2\n        /* \"contracts/traceability.sol\":1725:1732  hashKey */\n      dup1\n        /* \"contracts/traceability.sol\":1718:1732  return hashKey */\n      swap2\n      pop\n      pop\n        /* \"contracts/traceability.sol\":611:1740  function addProduct(... */\n      swap12\n      swap11\n      pop\n      pop\n      pop\n      pop\n      pop\n      pop\n      pop\n      pop\n      pop\n      pop\n      pop\n      jump\t// out\n    tag_69:\n      dup3\n      dup1\n      sload\n      dup3\n      dup3\n      sstore\n      swap1\n      0x00\n      mstore\n      keccak256(0x00, 0x20)\n      swap1\n      dup2\n      add\n      swap3\n      dup3\n      iszero\n      tag_141\n      jumpi\n      0x00\n      mstore\n      keccak256(0x00, 0x20)\n      swap2\n      dup3\n      add\n    tag_142:\n      dup3\n      dup2\n      gt\n      iszero\n      tag_143\n      jumpi\n      dup3\n      dup3\n      swap1\n      dup2\n      tag_144\n      swap2\n      swap1\n      tag_145\n      jump\t// in\n    tag_144:\n      pop\n      swap2\n      0x01\n      add\n      swap2\n      swap1\n      0x01\n      add\n      swap1\n      jump(tag_142)\n    tag_143:\n    tag_141:\n      pop\n      swap1\n      pop\n      tag_146\n      swap2\n      swap1\n      tag_147\n      jump\t// in\n    tag_146:\n      pop\n      swap1\n      jump\t// out\n    tag_72:\n      mload(0x40)\n      dup1\n      0x0160\n      add\n      0x40\n      mstore\n      dup1\n      0x00\n      dup2\n      mstore\n      0x20\n      add\n      0x60\n      dup2\n      mstore\n      0x20\n      add\n      0x60\n      dup2\n      mstore\n      0x20\n      add\n      0x60\n      dup2\n      mstore\n      0x20\n      add\n      0x00\n      dup2\n      mstore\n      0x20\n      add\n      0x60\n      dup2\n      mstore\n      0x20\n      add\n      0x60\n      dup2\n      mstore\n      0x20\n      add\n      0x60\n      dup2\n      mstore\n      0x20\n      add\n      0x60\n      dup2\n      mstore\n      0x20\n      add\n      0x60\n      dup2\n      mstore\n      0x20\n      add\n      0x60\n      dup2\n      mstore\n      pop\n      swap1\n      jump\t// out\n    tag_139:\n      dup3\n      dup1\n      sload\n      dup3\n      dup3\n      sstore\n      swap1\n      0x00\n      mstore\n      keccak256(0x00, 0x20)\n      swap1\n      dup2\n      add\n      swap3\n      dup3\n      iszero\n      tag_148\n      jumpi\n      swap2\n      0x20\n      mul\n      dup3\n      add\n    tag_149:\n      dup3\n      dup2\n      gt\n      iszero\n      tag_150\n      jumpi\n      dup3\n      mload\n      dup3\n      swap1\n      dup2\n      tag_151\n      swap2\n      swap1\n      tag_55\n      jump\t// in\n    tag_151:\n      pop\n      swap2\n      0x20\n      add\n      swap2\n      swap1\n      0x01\n      add\n      swap1\n      jump(tag_149)\n    tag_150:\n    tag_148:\n      pop\n      swap1\n      pop\n      tag_152\n      swap2\n      swap1\n      tag_147\n      jump\t// in\n    tag_152:\n      pop\n      swap1\n      jump\t// out\n    tag_147:\n    tag_153:\n      dup1\n      dup3\n      gt\n      iszero\n      tag_154\n      jumpi\n      0x00\n      dup2\n      dup2\n      tag_155\n      swap2\n      swap1\n      tag_156\n      jump\t// in\n    tag_155:\n      pop\n      0x01\n      add\n      jump(tag_153)\n    tag_154:\n      pop\n      swap1\n      jump\t// out\n    tag_156:\n      pop\n      dup1\n      sload\n      tag_157\n      swap1\n      tag_48\n      jump\t// in\n    tag_157:\n      0x00\n      dup3\n      sstore\n      dup1\n      0x1f\n      lt\n      tag_159\n      jumpi\n      pop\n      jump(tag_158)\n    tag_159:\n      0x1f\n      add\n      0x20\n      swap1\n      div\n      swap1\n      0x00\n      mstore\n      keccak256(0x00, 0x20)\n      swap1\n      dup2\n      add\n      swap1\n      tag_160\n      swap2\n      swap1\n      tag_161\n      jump\t// in\n    tag_160:\n    tag_158:\n      pop\n      jump\t// out\n    tag_161:\n    tag_162:\n      dup1\n      dup3\n      gt\n      iszero\n      tag_163\n      jumpi\n      0x00\n      dup2\n      0x00\n      swap1\n      sstore\n      pop\n      0x01\n      add\n      jump(tag_162)\n    tag_163:\n      pop\n      swap1\n      jump\t// out\n        /* \"#utility.yul\":7:82   */\n    tag_164:\n        /* \"#utility.yul\":40:46   */\n      0x00\n        /* \"#utility.yul\":73:75   */\n      0x40\n        /* \"#utility.yul\":67:76   */\n      mload\n        /* \"#utility.yul\":57:76   */\n      swap1\n      pop\n        /* \"#utility.yul\":7:82   */\n      swap1\n      jump\t// out\n        /* \"#utility.yul\":88:205   */\n    tag_165:\n        /* \"#utility.yul\":197:198   */\n      0x00\n        /* \"#utility.yul\":194:195   */\n      dup1\n        /* \"#utility.yul\":187:199   */\n      revert\n        /* \"#utility.yul\":211:328   */\n    tag_166:\n        /* \"#utility.yul\":320:321   */\n      0x00\n        /* \"#utility.yul\":317:318   */\n      dup1\n        /* \"#utility.yul\":310:322   */\n      revert\n        /* \"#utility.yul\":334:411   */\n    tag_167:\n        /* \"#utility.yul\":371:378   */\n      0x00\n        /* \"#utility.yul\":400:405   */\n      dup2\n        /* \"#utility.yul\":389:405   */\n      swap1\n      pop\n        /* \"#utility.yul\":334:411   */\n      swap2\n      swap1\n      pop\n      jump\t// out\n        /* \"#utility.yul\":417:539   */\n    tag_168:\n        /* \"#utility.yul\":490:514   */\n      tag_240\n        /* \"#utility.yul\":508:513   */\n      dup2\n        /* \"#utility.yul\":490:514   */\n      tag_167\n      jump\t// in\n    tag_240:\n        /* \"#utility.yul\":483:488   */\n      dup2\n        /* \"#utility.yul\":480:515   */\n      eq\n        /* \"#utility.yul\":470:533   */\n      tag_241\n      jumpi\n        /* \"#utility.yul\":529:530   */\n      0x00\n        /* \"#utility.yul\":526:527   */\n      dup1\n        /* \"#utility.yul\":519:531   */\n      revert\n        /* \"#utility.yul\":470:533   */\n    tag_241:\n        /* \"#utility.yul\":417:539   */\n      pop\n      jump\t// out\n        /* \"#utility.yul\":545:684   */\n    tag_169:\n        /* \"#utility.yul\":591:596   */\n      0x00\n        /* \"#utility.yul\":629:635   */\n      dup2\n        /* \"#utility.yul\":616:636   */\n      calldataload\n        /* \"#utility.yul\":607:636   */\n      swap1\n      pop\n        /* \"#utility.yul\":645:678   */\n      tag_243\n        /* \"#utility.yul\":672:677   */\n      dup2\n        /* \"#utility.yul\":645:678   */\n      tag_168\n      jump\t// in\n    tag_243:\n        /* \"#utility.yul\":545:684   */\n      swap3\n      swap2\n      pop\n      pop\n      jump\t// out\n        /* \"#utility.yul\":690:767   */\n    tag_170:\n        /* \"#utility.yul\":727:734   */\n      0x00\n        /* \"#utility.yul\":756:761   */\n      dup2\n        /* \"#utility.yul\":745:761   */\n      swap1\n      pop\n        /* \"#utility.yul\":690:767   */\n      swap2\n      swap1\n      pop\n      jump\t// out\n        /* \"#utility.yul\":773:895   */\n    tag_171:\n        /* \"#utility.yul\":846:870   */\n      tag_246\n        /* \"#utility.yul\":864:869   */\n      dup2\n        /* \"#utility.yul\":846:870   */\n      tag_170\n      jump\t// in\n    tag_246:\n        /* \"#utility.yul\":839:844   */\n      dup2\n        /* \"#utility.yul\":836:871   */\n      eq\n        /* \"#utility.yul\":826:889   */\n      tag_247\n      jumpi\n        /* \"#utility.yul\":885:886   */\n      0x00\n        /* \"#utility.yul\":882:883   */\n      dup1\n        /* \"#utility.yul\":875:887   */\n      revert\n        /* \"#utility.yul\":826:889   */\n    tag_247:\n        /* \"#utility.yul\":773:895   */\n      pop\n      jump\t// out\n        /* \"#utility.yul\":901:1040   */\n    tag_172:\n        /* \"#utility.yul\":947:952   */\n      0x00\n        /* \"#utility.yul\":985:991   */\n      dup2\n        /* \"#utility.yul\":972:992   */\n      calldataload\n        /* \"#utility.yul\":963:992   */\n      swap1\n      pop\n        /* \"#utility.yul\":1001:1034   */\n      tag_249\n        /* \"#utility.yul\":1028:1033   */\n      dup2\n        /* \"#utility.yul\":1001:1034   */\n      tag_171\n      jump\t// in\n    tag_249:\n        /* \"#utility.yul\":901:1040   */\n      swap3\n      swap2\n      pop\n      pop\n      jump\t// out\n        /* \"#utility.yul\":1046:1163   */\n    tag_173:\n        /* \"#utility.yul\":1155:1156   */\n      0x00\n        /* \"#utility.yul\":1152:1153   */\n      dup1\n        /* \"#utility.yul\":1145:1157   */\n      revert\n        /* \"#utility.yul\":1169:1286   */\n    tag_174:\n        /* \"#utility.yul\":1278:1279   */\n      0x00\n        /* \"#utility.yul\":1275:1276   */\n      dup1\n        /* \"#utility.yul\":1268:1280   */\n      revert\n        /* \"#utility.yul\":1292:1394   */\n    tag_175:\n        /* \"#utility.yul\":1333:1339   */\n      0x00\n        /* \"#utility.yul\":1384:1386   */\n      0x1f\n        /* \"#utility.yul\":1380:1387   */\n      not\n        /* \"#utility.yul\":1375:1377   */\n      0x1f\n        /* \"#utility.yul\":1368:1373   */\n      dup4\n        /* \"#utility.yul\":1364:1378   */\n      add\n        /* \"#utility.yul\":1360:1388   */\n      and\n        /* \"#utility.yul\":1350:1388   */\n      swap1\n      pop\n        /* \"#utility.yul\":1292:1394   */\n      swap2\n      swap1\n      pop\n      jump\t// out\n        /* \"#utility.yul\":1400:1580   */\n    tag_176:\n        /* \"#utility.yul\":1448:1525   */\n      0x4e487b7100000000000000000000000000000000000000000000000000000000\n        /* \"#utility.yul\":1445:1446   */\n      0x00\n        /* \"#utility.yul\":1438:1526   */\n      mstore\n        /* \"#utility.yul\":1545:1549   */\n      0x41\n        /* \"#utility.yul\":1542:1543   */\n      0x04\n        /* \"#utility.yul\":1535:1550   */\n      mstore\n        /* \"#utility.yul\":1569:1573   */\n      0x24\n        /* \"#utility.yul\":1566:1567   */\n      0x00\n        /* \"#utility.yul\":1559:1574   */\n      revert\n        /* \"#utility.yul\":1586:1867   */\n    tag_177:\n        /* \"#utility.yul\":1669:1696   */\n      tag_255\n        /* \"#utility.yul\":1691:1695   */\n      dup3\n        /* \"#utility.yul\":1669:1696   */\n      tag_175\n      jump\t// in\n    tag_255:\n        /* \"#utility.yul\":1661:1667   */\n      dup2\n        /* \"#utility.yul\":1657:1697   */\n      add\n        /* \"#utility.yul\":1799:1805   */\n      dup2\n        /* \"#utility.yul\":1787:1797   */\n      dup2\n        /* \"#utility.yul\":1784:1806   */\n      lt\n        /* \"#utility.yul\":1763:1781   */\n      0xffffffffffffffff\n        /* \"#utility.yul\":1751:1761   */\n      dup3\n        /* \"#utility.yul\":1748:1782   */\n      gt\n        /* \"#utility.yul\":1745:1807   */\n      or\n        /* \"#utility.yul\":1742:1830   */\n      iszero\n      tag_256\n      jumpi\n        /* \"#utility.yul\":1810:1828   */\n      tag_257\n      tag_176\n      jump\t// in\n    tag_257:\n        /* \"#utility.yul\":1742:1830   */\n    tag_256:\n        /* \"#utility.yul\":1850:1860   */\n      dup1\n        /* \"#utility.yul\":1846:1848   */\n      0x40\n        /* \"#utility.yul\":1839:1861   */\n      mstore\n        /* \"#utility.yul\":1629:1867   */\n      pop\n        /* \"#utility.yul\":1586:1867   */\n      pop\n      pop\n      jump\t// out\n        /* \"#utility.yul\":1873:2002   */\n    tag_178:\n        /* \"#utility.yul\":1907:1913   */\n      0x00\n        /* \"#utility.yul\":1934:1954   */\n      tag_259\n      tag_164\n      jump\t// in\n    tag_259:\n        /* \"#utility.yul\":1924:1954   */\n      swap1\n      pop\n        /* \"#utility.yul\":1963:1996   */\n      tag_260\n        /* \"#utility.yul\":1991:1995   */\n      dup3\n        /* \"#utility.yul\":1983:1989   */\n      dup3\n        /* \"#utility.yul\":1963:1996   */\n      tag_177\n      jump\t// in\n    tag_260:\n        /* \"#utility.yul\":1873:2002   */\n      swap2\n      swap1\n      pop\n      jump\t// out\n        /* \"#utility.yul\":2008:2316   */\n    tag_179:\n        /* \"#utility.yul\":2070:2074   */\n      0x00\n        /* \"#utility.yul\":2160:2178   */\n      0xffffffffffffffff\n        /* \"#utility.yul\":2152:2158   */\n      dup3\n        /* \"#utility.yul\":2149:2179   */\n      gt\n        /* \"#utility.yul\":2146:2202   */\n      iszero\n      tag_262\n      jumpi\n        /* \"#utility.yul\":2182:2200   */\n      tag_263\n      tag_176\n      jump\t// in\n    tag_263:\n        /* \"#utility.yul\":2146:2202   */\n    tag_262:\n        /* \"#utility.yul\":2220:2249   */\n      tag_264\n        /* \"#utility.yul\":2242:2248   */\n      dup3\n        /* \"#utility.yul\":2220:2249   */\n      tag_175\n      jump\t// in\n    tag_264:\n        /* \"#utility.yul\":2212:2249   */\n      swap1\n      pop\n        /* \"#utility.yul\":2304:2308   */\n      0x20\n        /* \"#utility.yul\":2298:2302   */\n      dup2\n        /* \"#utility.yul\":2294:2309   */\n      add\n        /* \"#utility.yul\":2286:2309   */\n      swap1\n      pop\n        /* \"#utility.yul\":2008:2316   */\n      swap2\n      swap1\n      pop\n      jump\t// out\n        /* \"#utility.yul\":2322:2468   */\n    tag_180:\n        /* \"#utility.yul\":2419:2425   */\n      dup3\n        /* \"#utility.yul\":2414:2417   */\n      dup2\n        /* \"#utility.yul\":2409:2412   */\n      dup4\n        /* \"#utility.yul\":2396:2426   */\n      calldatacopy\n        /* \"#utility.yul\":2460:2461   */\n      0x00\n        /* \"#utility.yul\":2451:2457   */\n      dup4\n        /* \"#utility.yul\":2446:2449   */\n      dup4\n        /* \"#utility.yul\":2442:2458   */\n      add\n        /* \"#utility.yul\":2435:2462   */\n      mstore\n        /* \"#utility.yul\":2322:2468   */\n      pop\n      pop\n      pop\n      jump\t// out\n        /* \"#utility.yul\":2474:2899   */\n    tag_181:\n        /* \"#utility.yul\":2552:2557   */\n      0x00\n        /* \"#utility.yul\":2577:2643   */\n      tag_267\n        /* \"#utility.yul\":2593:2642   */\n      tag_268\n        /* \"#utility.yul\":2635:2641   */\n      dup5\n        /* \"#utility.yul\":2593:2642   */\n      tag_179\n      jump\t// in\n    tag_268:\n        /* \"#utility.yul\":2577:2643   */\n      tag_178\n      jump\t// in\n    tag_267:\n        /* \"#utility.yul\":2568:2643   */\n      swap1\n      pop\n        /* \"#utility.yul\":2666:2672   */\n      dup3\n        /* \"#utility.yul\":2659:2664   */\n      dup2\n        /* \"#utility.yul\":2652:2673   */\n      mstore\n        /* \"#utility.yul\":2704:2708   */\n      0x20\n        /* \"#utility.yul\":2697:2702   */\n      dup2\n        /* \"#utility.yul\":2693:2709   */\n      add\n        /* \"#utility.yul\":2742:2745   */\n      dup5\n        /* \"#utility.yul\":2733:2739   */\n      dup5\n        /* \"#utility.yul\":2728:2731   */\n      dup5\n        /* \"#utility.yul\":2724:2740   */\n      add\n        /* \"#utility.yul\":2721:2746   */\n      gt\n        /* \"#utility.yul\":2718:2830   */\n      iszero\n      tag_269\n      jumpi\n        /* \"#utility.yul\":2749:2828   */\n      tag_270\n      tag_174\n      jump\t// in\n    tag_270:\n        /* \"#utility.yul\":2718:2830   */\n    tag_269:\n        /* \"#utility.yul\":2839:2893   */\n      tag_271\n        /* \"#utility.yul\":2886:2892   */\n      dup5\n        /* \"#utility.yul\":2881:2884   */\n      dup3\n        /* \"#utility.yul\":2876:2879   */\n      dup6\n        /* \"#utility.yul\":2839:2893   */\n      tag_180\n      jump\t// in\n    tag_271:\n        /* \"#utility.yul\":2558:2899   */\n      pop\n        /* \"#utility.yul\":2474:2899   */\n      swap4\n      swap3\n      pop\n      pop\n      pop\n      jump\t// out\n        /* \"#utility.yul\":2919:3259   */\n    tag_182:\n        /* \"#utility.yul\":2975:2980   */\n      0x00\n        /* \"#utility.yul\":3024:3027   */\n      dup3\n        /* \"#utility.yul\":3017:3021   */\n      0x1f\n        /* \"#utility.yul\":3009:3015   */\n      dup4\n        /* \"#utility.yul\":3005:3022   */\n      add\n        /* \"#utility.yul\":3001:3028   */\n      slt\n        /* \"#utility.yul\":2991:3113   */\n      tag_273\n      jumpi\n        /* \"#utility.yul\":3032:3111   */\n      tag_274\n      tag_173\n      jump\t// in\n    tag_274:\n        /* \"#utility.yul\":2991:3113   */\n    tag_273:\n        /* \"#utility.yul\":3149:3155   */\n      dup2\n        /* \"#utility.yul\":3136:3156   */\n      calldataload\n        /* \"#utility.yul\":3174:3253   */\n      tag_275\n        /* \"#utility.yul\":3249:3252   */\n      dup5\n        /* \"#utility.yul\":3241:3247   */\n      dup3\n        /* \"#utility.yul\":3234:3238   */\n      0x20\n        /* \"#utility.yul\":3226:3232   */\n      dup7\n        /* \"#utility.yul\":3222:3239   */\n      add\n        /* \"#utility.yul\":3174:3253   */\n      tag_181\n      jump\t// in\n    tag_275:\n        /* \"#utility.yul\":3165:3253   */\n      swap2\n      pop\n        /* \"#utility.yul\":2981:3259   */\n      pop\n        /* \"#utility.yul\":2919:3259   */\n      swap3\n      swap2\n      pop\n      pop\n      jump\t// out\n        /* \"#utility.yul\":3265:4390   */\n    tag_8:\n        /* \"#utility.yul\":3371:3377   */\n      0x00\n        /* \"#utility.yul\":3379:3385   */\n      dup1\n        /* \"#utility.yul\":3387:3393   */\n      0x00\n        /* \"#utility.yul\":3395:3401   */\n      dup1\n        /* \"#utility.yul\":3444:3447   */\n      0x80\n        /* \"#utility.yul\":3432:3441   */\n      dup6\n        /* \"#utility.yul\":3423:3430   */\n      dup8\n        /* \"#utility.yul\":3419:3442   */\n      sub\n        /* \"#utility.yul\":3415:3448   */\n      slt\n        /* \"#utility.yul\":3412:3532   */\n      iszero\n      tag_277\n      jumpi\n        /* \"#utility.yul\":3451:3530   */\n      tag_278\n      tag_165\n      jump\t// in\n    tag_278:\n        /* \"#utility.yul\":3412:3532   */\n    tag_277:\n        /* \"#utility.yul\":3571:3572   */\n      0x00\n        /* \"#utility.yul\":3596:3649   */\n      tag_279\n        /* \"#utility.yul\":3641:3648   */\n      dup8\n        /* \"#utility.yul\":3632:3638   */\n      dup3\n        /* \"#utility.yul\":3621:3630   */\n      dup9\n        /* \"#utility.yul\":3617:3639   */\n      add\n        /* \"#utility.yul\":3596:3649   */\n      tag_169\n      jump\t// in\n    tag_279:\n        /* \"#utility.yul\":3586:3649   */\n      swap5\n      pop\n        /* \"#utility.yul\":3542:3659   */\n      pop\n        /* \"#utility.yul\":3698:3700   */\n      0x20\n        /* \"#utility.yul\":3724:3777   */\n      tag_280\n        /* \"#utility.yul\":3769:3776   */\n      dup8\n        /* \"#utility.yul\":3760:3766   */\n      dup3\n        /* \"#utility.yul\":3749:3758   */\n      dup9\n        /* \"#utility.yul\":3745:3767   */\n      add\n        /* \"#utility.yul\":3724:3777   */\n      tag_172\n      jump\t// in\n    tag_280:\n        /* \"#utility.yul\":3714:3777   */\n      swap4\n      pop\n        /* \"#utility.yul\":3669:3787   */\n      pop\n        /* \"#utility.yul\":3854:3856   */\n      0x40\n        /* \"#utility.yul\":3843:3852   */\n      dup6\n        /* \"#utility.yul\":3839:3857   */\n      add\n        /* \"#utility.yul\":3826:3858   */\n      calldataload\n        /* \"#utility.yul\":3885:3903   */\n      0xffffffffffffffff\n        /* \"#utility.yul\":3877:3883   */\n      dup2\n        /* \"#utility.yul\":3874:3904   */\n      gt\n        /* \"#utility.yul\":3871:3988   */\n      iszero\n      tag_281\n      jumpi\n        /* \"#utility.yul\":3907:3986   */\n      tag_282\n      tag_166\n      jump\t// in\n    tag_282:\n        /* \"#utility.yul\":3871:3988   */\n    tag_281:\n        /* \"#utility.yul\":4012:4075   */\n      tag_283\n        /* \"#utility.yul\":4067:4074   */\n      dup8\n        /* \"#utility.yul\":4058:4064   */\n      dup3\n        /* \"#utility.yul\":4047:4056   */\n      dup9\n        /* \"#utility.yul\":4043:4065   */\n      add\n        /* \"#utility.yul\":4012:4075   */\n      tag_182\n      jump\t// in\n    tag_283:\n        /* \"#utility.yul\":4002:4075   */\n      swap3\n      pop\n        /* \"#utility.yul\":3797:4085   */\n      pop\n        /* \"#utility.yul\":4152:4154   */\n      0x60\n        /* \"#utility.yul\":4141:4150   */\n      dup6\n        /* \"#utility.yul\":4137:4155   */\n      add\n        /* \"#utility.yul\":4124:4156   */\n      calldataload\n        /* \"#utility.yul\":4183:4201   */\n      0xffffffffffffffff\n        /* \"#utility.yul\":4175:4181   */\n      dup2\n        /* \"#utility.yul\":4172:4202   */\n      gt\n        /* \"#utility.yul\":4169:4286   */\n      iszero\n      tag_284\n      jumpi\n        /* \"#utility.yul\":4205:4284   */\n      tag_285\n      tag_166\n      jump\t// in\n    tag_285:\n        /* \"#utility.yul\":4169:4286   */\n    tag_284:\n        /* \"#utility.yul\":4310:4373   */\n      tag_286\n        /* \"#utility.yul\":4365:4372   */\n      dup8\n        /* \"#utility.yul\":4356:4362   */\n      dup3\n        /* \"#utility.yul\":4345:4354   */\n      dup9\n        /* \"#utility.yul\":4341:4363   */\n      add\n        /* \"#utility.yul\":4310:4373   */\n      tag_182\n      jump\t// in\n    tag_286:\n        /* \"#utility.yul\":4300:4373   */\n      swap2\n      pop\n        /* \"#utility.yul\":4095:4383   */\n      pop\n        /* \"#utility.yul\":3265:4390   */\n      swap3\n      swap6\n      swap2\n      swap5\n      pop\n      swap3\n      pop\n      jump\t// out\n        /* \"#utility.yul\":4396:4514   */\n    tag_183:\n        /* \"#utility.yul\":4483:4507   */\n      tag_288\n        /* \"#utility.yul\":4501:4506   */\n      dup2\n        /* \"#utility.yul\":4483:4507   */\n      tag_167\n      jump\t// in\n    tag_288:\n        /* \"#utility.yul\":4478:4481   */\n      dup3\n        /* \"#utility.yul\":4471:4508   */\n      mstore\n        /* \"#utility.yul\":4396:4514   */\n      pop\n      pop\n      jump\t// out\n        /* \"#utility.yul\":4520:4742   */\n    tag_11:\n        /* \"#utility.yul\":4613:4617   */\n      0x00\n        /* \"#utility.yul\":4651:4653   */\n      0x20\n        /* \"#utility.yul\":4640:4649   */\n      dup3\n        /* \"#utility.yul\":4636:4654   */\n      add\n        /* \"#utility.yul\":4628:4654   */\n      swap1\n      pop\n        /* \"#utility.yul\":4664:4735   */\n      tag_290\n        /* \"#utility.yul\":4732:4733   */\n      0x00\n        /* \"#utility.yul\":4721:4730   */\n      dup4\n        /* \"#utility.yul\":4717:4734   */\n      add\n        /* \"#utility.yul\":4708:4714   */\n      dup5\n        /* \"#utility.yul\":4664:4735   */\n      tag_183\n      jump\t// in\n    tag_290:\n        /* \"#utility.yul\":4520:4742   */\n      swap3\n      swap2\n      pop\n      pop\n      jump\t// out\n        /* \"#utility.yul\":4748:5077   */\n    tag_14:\n        /* \"#utility.yul\":4807:4813   */\n      0x00\n        /* \"#utility.yul\":4856:4858   */\n      0x20\n        /* \"#utility.yul\":4844:4853   */\n      dup3\n        /* \"#utility.yul\":4835:4842   */\n      dup5\n        /* \"#utility.yul\":4831:4854   */\n      sub\n        /* \"#utility.yul\":4827:4859   */\n      slt\n        /* \"#utility.yul\":4824:4943   */\n      iszero\n      tag_292\n      jumpi\n        /* \"#utility.yul\":4862:4941   */\n      tag_293\n      tag_165\n      jump\t// in\n    tag_293:\n        /* \"#utility.yul\":4824:4943   */\n    tag_292:\n        /* \"#utility.yul\":4982:4983   */\n      0x00\n        /* \"#utility.yul\":5007:5060   */\n      tag_294\n        /* \"#utility.yul\":5052:5059   */\n      dup5\n        /* \"#utility.yul\":5043:5049   */\n      dup3\n        /* \"#utility.yul\":5032:5041   */\n      dup6\n        /* \"#utility.yul\":5028:5050   */\n      add\n        /* \"#utility.yul\":5007:5060   */\n      tag_169\n      jump\t// in\n    tag_294:\n        /* \"#utility.yul\":4997:5060   */\n      swap2\n      pop\n        /* \"#utility.yul\":4953:5070   */\n      pop\n        /* \"#utility.yul\":4748:5077   */\n      swap3\n      swap2\n      pop\n      pop\n      jump\t// out\n        /* \"#utility.yul\":5083:5191   */\n    tag_184:\n        /* \"#utility.yul\":5160:5184   */\n      tag_296\n        /* \"#utility.yul\":5178:5183   */\n      dup2\n        /* \"#utility.yul\":5160:5184   */\n      tag_170\n      jump\t// in\n    tag_296:\n        /* \"#utility.yul\":5155:5158   */\n      dup3\n        /* \"#utility.yul\":5148:5185   */\n      mstore\n        /* \"#utility.yul\":5083:5191   */\n      pop\n      pop\n      jump\t// out\n        /* \"#utility.yul\":5197:5296   */\n    tag_185:\n        /* \"#utility.yul\":5249:5255   */\n      0x00\n        /* \"#utility.yul\":5283:5288   */\n      dup2\n        /* \"#utility.yul\":5277:5289   */\n      mload\n        /* \"#utility.yul\":5267:5289   */\n      swap1\n      pop\n        /* \"#utility.yul\":5197:5296   */\n      swap2\n      swap1\n      pop\n      jump\t// out\n        /* \"#utility.yul\":5302:5461   */\n    tag_186:\n        /* \"#utility.yul\":5376:5387   */\n      0x00\n        /* \"#utility.yul\":5410:5416   */\n      dup3\n        /* \"#utility.yul\":5405:5408   */\n      dup3\n        /* \"#utility.yul\":5398:5417   */\n      mstore\n        /* \"#utility.yul\":5450:5454   */\n      0x20\n        /* \"#utility.yul\":5445:5448   */\n      dup3\n        /* \"#utility.yul\":5441:5455   */\n      add\n        /* \"#utility.yul\":5426:5455   */\n      swap1\n      pop\n        /* \"#utility.yul\":5302:5461   */\n      swap3\n      swap2\n      pop\n      pop\n      jump\t// out\n        /* \"#utility.yul\":5467:5713   */\n    tag_187:\n        /* \"#utility.yul\":5548:5549   */\n      0x00\n        /* \"#utility.yul\":5558:5671   */\n    tag_300:\n        /* \"#utility.yul\":5572:5578   */\n      dup4\n        /* \"#utility.yul\":5569:5570   */\n      dup2\n        /* \"#utility.yul\":5566:5579   */\n      lt\n        /* \"#utility.yul\":5558:5671   */\n      iszero\n      tag_302\n      jumpi\n        /* \"#utility.yul\":5657:5658   */\n      dup1\n        /* \"#utility.yul\":5652:5655   */\n      dup3\n        /* \"#utility.yul\":5648:5659   */\n      add\n        /* \"#utility.yul\":5642:5660   */\n      mload\n        /* \"#utility.yul\":5638:5639   */\n      dup2\n        /* \"#utility.yul\":5633:5636   */\n      dup5\n        /* \"#utility.yul\":5629:5640   */\n      add\n        /* \"#utility.yul\":5622:5661   */\n      mstore\n        /* \"#utility.yul\":5594:5596   */\n      0x20\n        /* \"#utility.yul\":5591:5592   */\n      dup2\n        /* \"#utility.yul\":5587:5597   */\n      add\n        /* \"#utility.yul\":5582:5597   */\n      swap1\n      pop\n        /* \"#utility.yul\":5558:5671   */\n      jump(tag_300)\n    tag_302:\n        /* \"#utility.yul\":5705:5706   */\n      0x00\n        /* \"#utility.yul\":5696:5702   */\n      dup5\n        /* \"#utility.yul\":5691:5694   */\n      dup5\n        /* \"#utility.yul\":5687:5703   */\n      add\n        /* \"#utility.yul\":5680:5707   */\n      mstore\n        /* \"#utility.yul\":5529:5713   */\n      pop\n        /* \"#utility.yul\":5467:5713   */\n      pop\n      pop\n      pop\n      jump\t// out\n        /* \"#utility.yul\":5719:6076   */\n    tag_188:\n        /* \"#utility.yul\":5797:5800   */\n      0x00\n        /* \"#utility.yul\":5825:5864   */\n      tag_304\n        /* \"#utility.yul\":5858:5863   */\n      dup3\n        /* \"#utility.yul\":5825:5864   */\n      tag_185\n      jump\t// in\n    tag_304:\n        /* \"#utility.yul\":5880:5941   */\n      tag_305\n        /* \"#utility.yul\":5934:5940   */\n      dup2\n        /* \"#utility.yul\":5929:5932   */\n      dup6\n        /* \"#utility.yul\":5880:5941   */\n      tag_186\n      jump\t// in\n    tag_305:\n        /* \"#utility.yul\":5873:5941   */\n      swap4\n      pop\n        /* \"#utility.yul\":5950:6015   */\n      tag_306\n        /* \"#utility.yul\":6008:6014   */\n      dup2\n        /* \"#utility.yul\":6003:6006   */\n      dup6\n        /* \"#utility.yul\":5996:6000   */\n      0x20\n        /* \"#utility.yul\":5989:5994   */\n      dup7\n        /* \"#utility.yul\":5985:6001   */\n      add\n        /* \"#utility.yul\":5950:6015   */\n      tag_187\n      jump\t// in\n    tag_306:\n        /* \"#utility.yul\":6040:6069   */\n      tag_307\n        /* \"#utility.yul\":6062:6068   */\n      dup2\n        /* \"#utility.yul\":6040:6069   */\n      tag_175\n      jump\t// in\n    tag_307:\n        /* \"#utility.yul\":6035:6038   */\n      dup5\n        /* \"#utility.yul\":6031:6070   */\n      add\n        /* \"#utility.yul\":6024:6070   */\n      swap2\n      pop\n        /* \"#utility.yul\":5801:6076   */\n      pop\n        /* \"#utility.yul\":5719:6076   */\n      swap3\n      swap2\n      pop\n      pop\n      jump\t// out\n        /* \"#utility.yul\":6082:6206   */\n    tag_189:\n        /* \"#utility.yul\":6159:6165   */\n      0x00\n        /* \"#utility.yul\":6193:6198   */\n      dup2\n        /* \"#utility.yul\":6187:6199   */\n      mload\n        /* \"#utility.yul\":6177:6199   */\n      swap1\n      pop\n        /* \"#utility.yul\":6082:6206   */\n      swap2\n      swap1\n      pop\n      jump\t// out\n        /* \"#utility.yul\":6212:6396   */\n    tag_190:\n        /* \"#utility.yul\":6311:6322   */\n      0x00\n        /* \"#utility.yul\":6345:6351   */\n      dup3\n        /* \"#utility.yul\":6340:6343   */\n      dup3\n        /* \"#utility.yul\":6333:6352   */\n      mstore\n        /* \"#utility.yul\":6385:6389   */\n      0x20\n        /* \"#utility.yul\":6380:6383   */\n      dup3\n        /* \"#utility.yul\":6376:6390   */\n      add\n        /* \"#utility.yul\":6361:6390   */\n      swap1\n      pop\n        /* \"#utility.yul\":6212:6396   */\n      swap3\n      swap2\n      pop\n      pop\n      jump\t// out\n        /* \"#utility.yul\":6402:6544   */\n    tag_191:\n        /* \"#utility.yul\":6479:6483   */\n      0x00\n        /* \"#utility.yul\":6502:6505   */\n      dup2\n        /* \"#utility.yul\":6494:6505   */\n      swap1\n      pop\n        /* \"#utility.yul\":6532:6536   */\n      0x20\n        /* \"#utility.yul\":6527:6530   */\n      dup3\n        /* \"#utility.yul\":6523:6537   */\n      add\n        /* \"#utility.yul\":6515:6537   */\n      swap1\n      pop\n        /* \"#utility.yul\":6402:6544   */\n      swap2\n      swap1\n      pop\n      jump\t// out\n        /* \"#utility.yul\":6550:6746   */\n    tag_192:\n        /* \"#utility.yul\":6639:6649   */\n      0x00\n        /* \"#utility.yul\":6674:6740   */\n      tag_312\n        /* \"#utility.yul\":6736:6739   */\n      dup4\n        /* \"#utility.yul\":6728:6734   */\n      dup4\n        /* \"#utility.yul\":6674:6740   */\n      tag_188\n      jump\t// in\n    tag_312:\n        /* \"#utility.yul\":6660:6740   */\n      swap1\n      pop\n        /* \"#utility.yul\":6550:6746   */\n      swap3\n      swap2\n      pop\n      pop\n      jump\t// out\n        /* \"#utility.yul\":6752:6875   */\n    tag_193:\n        /* \"#utility.yul\":6832:6836   */\n      0x00\n        /* \"#utility.yul\":6864:6868   */\n      0x20\n        /* \"#utility.yul\":6859:6862   */\n      dup3\n        /* \"#utility.yul\":6855:6869   */\n      add\n        /* \"#utility.yul\":6847:6869   */\n      swap1\n      pop\n        /* \"#utility.yul\":6752:6875   */\n      swap2\n      swap1\n      pop\n      jump\t// out\n        /* \"#utility.yul\":6909:7880   */\n    tag_194:\n        /* \"#utility.yul\":7038:7041   */\n      0x00\n        /* \"#utility.yul\":7067:7131   */\n      tag_315\n        /* \"#utility.yul\":7125:7130   */\n      dup3\n        /* \"#utility.yul\":7067:7131   */\n      tag_189\n      jump\t// in\n    tag_315:\n        /* \"#utility.yul\":7147:7233   */\n      tag_316\n        /* \"#utility.yul\":7226:7232   */\n      dup2\n        /* \"#utility.yul\":7221:7224   */\n      dup6\n        /* \"#utility.yul\":7147:7233   */\n      tag_190\n      jump\t// in\n    tag_316:\n        /* \"#utility.yul\":7140:7233   */\n      swap4\n      pop\n        /* \"#utility.yul\":7259:7262   */\n      dup4\n        /* \"#utility.yul\":7304:7308   */\n      0x20\n        /* \"#utility.yul\":7296:7302   */\n      dup3\n        /* \"#utility.yul\":7292:7309   */\n      mul\n        /* \"#utility.yul\":7287:7290   */\n      dup6\n        /* \"#utility.yul\":7283:7310   */\n      add\n        /* \"#utility.yul\":7334:7400   */\n      tag_317\n        /* \"#utility.yul\":7394:7399   */\n      dup6\n        /* \"#utility.yul\":7334:7400   */\n      tag_191\n      jump\t// in\n    tag_317:\n        /* \"#utility.yul\":7423:7430   */\n      dup1\n        /* \"#utility.yul\":7454:7455   */\n      0x00\n        /* \"#utility.yul\":7439:7835   */\n    tag_318:\n        /* \"#utility.yul\":7464:7470   */\n      dup6\n        /* \"#utility.yul\":7461:7462   */\n      dup2\n        /* \"#utility.yul\":7458:7471   */\n      lt\n        /* \"#utility.yul\":7439:7835   */\n      iszero\n      tag_320\n      jumpi\n        /* \"#utility.yul\":7535:7544   */\n      dup5\n        /* \"#utility.yul\":7529:7533   */\n      dup5\n        /* \"#utility.yul\":7525:7545   */\n      sub\n        /* \"#utility.yul\":7520:7523   */\n      dup10\n        /* \"#utility.yul\":7513:7546   */\n      mstore\n        /* \"#utility.yul\":7586:7592   */\n      dup2\n        /* \"#utility.yul\":7580:7593   */\n      mload\n        /* \"#utility.yul\":7614:7698   */\n      tag_321\n        /* \"#utility.yul\":7693:7697   */\n      dup6\n        /* \"#utility.yul\":7678:7691   */\n      dup3\n        /* \"#utility.yul\":7614:7698   */\n      tag_192\n      jump\t// in\n    tag_321:\n        /* \"#utility.yul\":7606:7698   */\n      swap5\n      pop\n        /* \"#utility.yul\":7721:7791   */\n      tag_322\n        /* \"#utility.yul\":7784:7790   */\n      dup4\n        /* \"#utility.yul\":7721:7791   */\n      tag_193\n      jump\t// in\n    tag_322:\n        /* \"#utility.yul\":7711:7791   */\n      swap3\n      pop\n        /* \"#utility.yul\":7820:7824   */\n      0x20\n        /* \"#utility.yul\":7815:7818   */\n      dup11\n        /* \"#utility.yul\":7811:7825   */\n      add\n        /* \"#utility.yul\":7804:7825   */\n      swap10\n      pop\n        /* \"#utility.yul\":7499:7835   */\n      pop\n        /* \"#utility.yul\":7486:7487   */\n      0x01\n        /* \"#utility.yul\":7483:7484   */\n      dup2\n        /* \"#utility.yul\":7479:7488   */\n      add\n        /* \"#utility.yul\":7474:7488   */\n      swap1\n      pop\n        /* \"#utility.yul\":7439:7835   */\n      jump(tag_318)\n    tag_320:\n        /* \"#utility.yul\":7443:7457   */\n      pop\n        /* \"#utility.yul\":7851:7855   */\n      dup3\n        /* \"#utility.yul\":7844:7855   */\n      swap8\n      pop\n        /* \"#utility.yul\":7871:7874   */\n      dup8\n        /* \"#utility.yul\":7864:7874   */\n      swap6\n      pop\n        /* \"#utility.yul\":7043:7880   */\n      pop\n      pop\n      pop\n      pop\n      pop\n        /* \"#utility.yul\":6909:7880   */\n      swap3\n      swap2\n      pop\n      pop\n      jump\t// out\n        /* \"#utility.yul\":7982:10920   */\n    tag_195:\n        /* \"#utility.yul\":8111:8114   */\n      0x00\n        /* \"#utility.yul\":8147:8153   */\n      0x0160\n        /* \"#utility.yul\":8142:8145   */\n      dup4\n        /* \"#utility.yul\":8138:8154   */\n      add\n        /* \"#utility.yul\":8242:8246   */\n      0x00\n        /* \"#utility.yul\":8235:8240   */\n      dup4\n        /* \"#utility.yul\":8231:8247   */\n      add\n        /* \"#utility.yul\":8225:8248   */\n      mload\n        /* \"#utility.yul\":8261:8324   */\n      tag_324\n        /* \"#utility.yul\":8318:8322   */\n      0x00\n        /* \"#utility.yul\":8313:8316   */\n      dup7\n        /* \"#utility.yul\":8309:8323   */\n      add\n        /* \"#utility.yul\":8295:8307   */\n      dup3\n        /* \"#utility.yul\":8261:8324   */\n      tag_184\n      jump\t// in\n    tag_324:\n        /* \"#utility.yul\":8164:8334   */\n      pop\n        /* \"#utility.yul\":8423:8427   */\n      0x20\n        /* \"#utility.yul\":8416:8421   */\n      dup4\n        /* \"#utility.yul\":8412:8428   */\n      add\n        /* \"#utility.yul\":8406:8429   */\n      mload\n        /* \"#utility.yul\":8476:8479   */\n      dup5\n        /* \"#utility.yul\":8470:8474   */\n      dup3\n        /* \"#utility.yul\":8466:8480   */\n      sub\n        /* \"#utility.yul\":8459:8463   */\n      0x20\n        /* \"#utility.yul\":8454:8457   */\n      dup7\n        /* \"#utility.yul\":8450:8464   */\n      add\n        /* \"#utility.yul\":8443:8481   */\n      mstore\n        /* \"#utility.yul\":8502:8575   */\n      tag_325\n        /* \"#utility.yul\":8570:8574   */\n      dup3\n        /* \"#utility.yul\":8556:8568   */\n      dup3\n        /* \"#utility.yul\":8502:8575   */\n      tag_188\n      jump\t// in\n    tag_325:\n        /* \"#utility.yul\":8494:8575   */\n      swap2\n      pop\n        /* \"#utility.yul\":8344:8586   */\n      pop\n        /* \"#utility.yul\":8672:8676   */\n      0x40\n        /* \"#utility.yul\":8665:8670   */\n      dup4\n        /* \"#utility.yul\":8661:8677   */\n      add\n        /* \"#utility.yul\":8655:8678   */\n      mload\n        /* \"#utility.yul\":8725:8728   */\n      dup5\n        /* \"#utility.yul\":8719:8723   */\n      dup3\n        /* \"#utility.yul\":8715:8729   */\n      sub\n        /* \"#utility.yul\":8708:8712   */\n      0x40\n        /* \"#utility.yul\":8703:8706   */\n      dup7\n        /* \"#utility.yul\":8699:8713   */\n      add\n        /* \"#utility.yul\":8692:8730   */\n      mstore\n        /* \"#utility.yul\":8751:8824   */\n      tag_326\n        /* \"#utility.yul\":8819:8823   */\n      dup3\n        /* \"#utility.yul\":8805:8817   */\n      dup3\n        /* \"#utility.yul\":8751:8824   */\n      tag_188\n      jump\t// in\n    tag_326:\n        /* \"#utility.yul\":8743:8824   */\n      swap2\n      pop\n        /* \"#utility.yul\":8596:8835   */\n      pop\n        /* \"#utility.yul\":8920:8924   */\n      0x60\n        /* \"#utility.yul\":8913:8918   */\n      dup4\n        /* \"#utility.yul\":8909:8925   */\n      add\n        /* \"#utility.yul\":8903:8926   */\n      mload\n        /* \"#utility.yul\":8973:8976   */\n      dup5\n        /* \"#utility.yul\":8967:8971   */\n      dup3\n        /* \"#utility.yul\":8963:8977   */\n      sub\n        /* \"#utility.yul\":8956:8960   */\n      0x60\n        /* \"#utility.yul\":8951:8954   */\n      dup7\n        /* \"#utility.yul\":8947:8961   */\n      add\n        /* \"#utility.yul\":8940:8978   */\n      mstore\n        /* \"#utility.yul\":8999:9072   */\n      tag_327\n        /* \"#utility.yul\":9067:9071   */\n      dup3\n        /* \"#utility.yul\":9053:9065   */\n      dup3\n        /* \"#utility.yul\":8999:9072   */\n      tag_188\n      jump\t// in\n    tag_327:\n        /* \"#utility.yul\":8991:9072   */\n      swap2\n      pop\n        /* \"#utility.yul\":8845:9083   */\n      pop\n        /* \"#utility.yul\":9169:9173   */\n      0x80\n        /* \"#utility.yul\":9162:9167   */\n      dup4\n        /* \"#utility.yul\":9158:9174   */\n      add\n        /* \"#utility.yul\":9152:9175   */\n      mload\n        /* \"#utility.yul\":9188:9251   */\n      tag_328\n        /* \"#utility.yul\":9245:9249   */\n      0x80\n        /* \"#utility.yul\":9240:9243   */\n      dup7\n        /* \"#utility.yul\":9236:9250   */\n      add\n        /* \"#utility.yul\":9222:9234   */\n      dup3\n        /* \"#utility.yul\":9188:9251   */\n      tag_184\n      jump\t// in\n    tag_328:\n        /* \"#utility.yul\":9093:9261   */\n      pop\n        /* \"#utility.yul\":9349:9353   */\n      0xa0\n        /* \"#utility.yul\":9342:9347   */\n      dup4\n        /* \"#utility.yul\":9338:9354   */\n      add\n        /* \"#utility.yul\":9332:9355   */\n      mload\n        /* \"#utility.yul\":9402:9405   */\n      dup5\n        /* \"#utility.yul\":9396:9400   */\n      dup3\n        /* \"#utility.yul\":9392:9406   */\n      sub\n        /* \"#utility.yul\":9385:9389   */\n      0xa0\n        /* \"#utility.yul\":9380:9383   */\n      dup7\n        /* \"#utility.yul\":9376:9390   */\n      add\n        /* \"#utility.yul\":9369:9407   */\n      mstore\n        /* \"#utility.yul\":9428:9501   */\n      tag_329\n        /* \"#utility.yul\":9496:9500   */\n      dup3\n        /* \"#utility.yul\":9482:9494   */\n      dup3\n        /* \"#utility.yul\":9428:9501   */\n      tag_188\n      jump\t// in\n    tag_329:\n        /* \"#utility.yul\":9420:9501   */\n      swap2\n      pop\n        /* \"#utility.yul\":9271:9512   */\n      pop\n        /* \"#utility.yul\":9604:9608   */\n      0xc0\n        /* \"#utility.yul\":9597:9602   */\n      dup4\n        /* \"#utility.yul\":9593:9609   */\n      add\n        /* \"#utility.yul\":9587:9610   */\n      mload\n        /* \"#utility.yul\":9657:9660   */\n      dup5\n        /* \"#utility.yul\":9651:9655   */\n      dup3\n        /* \"#utility.yul\":9647:9661   */\n      sub\n        /* \"#utility.yul\":9640:9644   */\n      0xc0\n        /* \"#utility.yul\":9635:9638   */\n      dup7\n        /* \"#utility.yul\":9631:9645   */\n      add\n        /* \"#utility.yul\":9624:9662   */\n      mstore\n        /* \"#utility.yul\":9683:9756   */\n      tag_330\n        /* \"#utility.yul\":9751:9755   */\n      dup3\n        /* \"#utility.yul\":9737:9749   */\n      dup3\n        /* \"#utility.yul\":9683:9756   */\n      tag_188\n      jump\t// in\n    tag_330:\n        /* \"#utility.yul\":9675:9756   */\n      swap2\n      pop\n        /* \"#utility.yul\":9522:9767   */\n      pop\n        /* \"#utility.yul\":9860:9864   */\n      0xe0\n        /* \"#utility.yul\":9853:9858   */\n      dup4\n        /* \"#utility.yul\":9849:9865   */\n      add\n        /* \"#utility.yul\":9843:9866   */\n      mload\n        /* \"#utility.yul\":9913:9916   */\n      dup5\n        /* \"#utility.yul\":9907:9911   */\n      dup3\n        /* \"#utility.yul\":9903:9917   */\n      sub\n        /* \"#utility.yul\":9896:9900   */\n      0xe0\n        /* \"#utility.yul\":9891:9894   */\n      dup7\n        /* \"#utility.yul\":9887:9901   */\n      add\n        /* \"#utility.yul\":9880:9918   */\n      mstore\n        /* \"#utility.yul\":9939:10012   */\n      tag_331\n        /* \"#utility.yul\":10007:10011   */\n      dup3\n        /* \"#utility.yul\":9993:10005   */\n      dup3\n        /* \"#utility.yul\":9939:10012   */\n      tag_188\n      jump\t// in\n    tag_331:\n        /* \"#utility.yul\":9931:10012   */\n      swap2\n      pop\n        /* \"#utility.yul\":9777:10023   */\n      pop\n        /* \"#utility.yul\":10113:10119   */\n      0x0100\n        /* \"#utility.yul\":10106:10111   */\n      dup4\n        /* \"#utility.yul\":10102:10120   */\n      add\n        /* \"#utility.yul\":10096:10121   */\n      mload\n        /* \"#utility.yul\":10170:10173   */\n      dup5\n        /* \"#utility.yul\":10164:10168   */\n      dup3\n        /* \"#utility.yul\":10160:10174   */\n      sub\n        /* \"#utility.yul\":10151:10157   */\n      0x0100\n        /* \"#utility.yul\":10146:10149   */\n      dup7\n        /* \"#utility.yul\":10142:10158   */\n      add\n        /* \"#utility.yul\":10135:10175   */\n      mstore\n        /* \"#utility.yul\":10196:10269   */\n      tag_332\n        /* \"#utility.yul\":10264:10268   */\n      dup3\n        /* \"#utility.yul\":10250:10262   */\n      dup3\n        /* \"#utility.yul\":10196:10269   */\n      tag_188\n      jump\t// in\n    tag_332:\n        /* \"#utility.yul\":10188:10269   */\n      swap2\n      pop\n        /* \"#utility.yul\":10033:10280   */\n      pop\n        /* \"#utility.yul\":10368:10374   */\n      0x0120\n        /* \"#utility.yul\":10361:10366   */\n      dup4\n        /* \"#utility.yul\":10357:10375   */\n      add\n        /* \"#utility.yul\":10351:10376   */\n      mload\n        /* \"#utility.yul\":10425:10428   */\n      dup5\n        /* \"#utility.yul\":10419:10423   */\n      dup3\n        /* \"#utility.yul\":10415:10429   */\n      sub\n        /* \"#utility.yul\":10406:10412   */\n      0x0120\n        /* \"#utility.yul\":10401:10404   */\n      dup7\n        /* \"#utility.yul\":10397:10413   */\n      add\n        /* \"#utility.yul\":10390:10430   */\n      mstore\n        /* \"#utility.yul\":10451:10574   */\n      tag_333\n        /* \"#utility.yul\":10569:10573   */\n      dup3\n        /* \"#utility.yul\":10555:10567   */\n      dup3\n        /* \"#utility.yul\":10451:10574   */\n      tag_194\n      jump\t// in\n    tag_333:\n        /* \"#utility.yul\":10443:10574   */\n      swap2\n      pop\n        /* \"#utility.yul\":10290:10585   */\n      pop\n        /* \"#utility.yul\":10676:10682   */\n      0x0140\n        /* \"#utility.yul\":10669:10674   */\n      dup4\n        /* \"#utility.yul\":10665:10683   */\n      add\n        /* \"#utility.yul\":10659:10684   */\n      mload\n        /* \"#utility.yul\":10733:10736   */\n      dup5\n        /* \"#utility.yul\":10727:10731   */\n      dup3\n        /* \"#utility.yul\":10723:10737   */\n      sub\n        /* \"#utility.yul\":10714:10720   */\n      0x0140\n        /* \"#utility.yul\":10709:10712   */\n      dup7\n        /* \"#utility.yul\":10705:10721   */\n      add\n        /* \"#utility.yul\":10698:10738   */\n      mstore\n        /* \"#utility.yul\":10759:10882   */\n      tag_334\n        /* \"#utility.yul\":10877:10881   */\n      dup3\n        /* \"#utility.yul\":10863:10875   */\n      dup3\n        /* \"#utility.yul\":10759:10882   */\n      tag_194\n      jump\t// in\n    tag_334:\n        /* \"#utility.yul\":10751:10882   */\n      swap2\n      pop\n        /* \"#utility.yul\":10595:10893   */\n      pop\n        /* \"#utility.yul\":10910:10914   */\n      dup1\n        /* \"#utility.yul\":10903:10914   */\n      swap2\n      pop\n        /* \"#utility.yul\":8116:10920   */\n      pop\n        /* \"#utility.yul\":7982:10920   */\n      swap3\n      swap2\n      pop\n      pop\n      jump\t// out\n        /* \"#utility.yul\":10926:11319   */\n    tag_17:\n        /* \"#utility.yul\":11079:11083   */\n      0x00\n        /* \"#utility.yul\":11117:11119   */\n      0x20\n        /* \"#utility.yul\":11106:11115   */\n      dup3\n        /* \"#utility.yul\":11102:11120   */\n      add\n        /* \"#utility.yul\":11094:11120   */\n      swap1\n      pop\n        /* \"#utility.yul\":11166:11175   */\n      dup2\n        /* \"#utility.yul\":11160:11164   */\n      dup2\n        /* \"#utility.yul\":11156:11176   */\n      sub\n        /* \"#utility.yul\":11152:11153   */\n      0x00\n        /* \"#utility.yul\":11141:11150   */\n      dup4\n        /* \"#utility.yul\":11137:11154   */\n      add\n        /* \"#utility.yul\":11130:11177   */\n      mstore\n        /* \"#utility.yul\":11194:11312   */\n      tag_336\n        /* \"#utility.yul\":11307:11311   */\n      dup2\n        /* \"#utility.yul\":11298:11304   */\n      dup5\n        /* \"#utility.yul\":11194:11312   */\n      tag_195\n      jump\t// in\n    tag_336:\n        /* \"#utility.yul\":11186:11312   */\n      swap1\n      pop\n        /* \"#utility.yul\":10926:11319   */\n      swap3\n      swap2\n      pop\n      pop\n      jump\t// out\n        /* \"#utility.yul\":11325:11646   */\n    tag_196:\n        /* \"#utility.yul\":11412:11416   */\n      0x00\n        /* \"#utility.yul\":11502:11520   */\n      0xffffffffffffffff\n        /* \"#utility.yul\":11494:11500   */\n      dup3\n        /* \"#utility.yul\":11491:11521   */\n      gt\n        /* \"#utility.yul\":11488:11544   */\n      iszero\n      tag_338\n      jumpi\n        /* \"#utility.yul\":11524:11542   */\n      tag_339\n      tag_176\n      jump\t// in\n    tag_339:\n        /* \"#utility.yul\":11488:11544   */\n    tag_338:\n        /* \"#utility.yul\":11574:11578   */\n      0x20\n        /* \"#utility.yul\":11566:11572   */\n      dup3\n        /* \"#utility.yul\":11562:11579   */\n      mul\n        /* \"#utility.yul\":11554:11579   */\n      swap1\n      pop\n        /* \"#utility.yul\":11634:11638   */\n      0x20\n        /* \"#utility.yul\":11628:11632   */\n      dup2\n        /* \"#utility.yul\":11624:11639   */\n      add\n        /* \"#utility.yul\":11616:11639   */\n      swap1\n      pop\n        /* \"#utility.yul\":11325:11646   */\n      swap2\n      swap1\n      pop\n      jump\t// out\n        /* \"#utility.yul\":11652:11769   */\n    tag_197:\n        /* \"#utility.yul\":11761:11762   */\n      0x00\n        /* \"#utility.yul\":11758:11759   */\n      dup1\n        /* \"#utility.yul\":11751:11763   */\n      revert\n        /* \"#utility.yul\":11791:12736   */\n    tag_198:\n        /* \"#utility.yul\":11897:11902   */\n      0x00\n        /* \"#utility.yul\":11922:12013   */\n      tag_342\n        /* \"#utility.yul\":11938:12012   */\n      tag_343\n        /* \"#utility.yul\":12005:12011   */\n      dup5\n        /* \"#utility.yul\":11938:12012   */\n      tag_196\n      jump\t// in\n    tag_343:\n        /* \"#utility.yul\":11922:12013   */\n      tag_178\n      jump\t// in\n    tag_342:\n        /* \"#utility.yul\":11913:12013   */\n      swap1\n      pop\n        /* \"#utility.yul\":12033:12038   */\n      dup1\n        /* \"#utility.yul\":12062:12068   */\n      dup4\n        /* \"#utility.yul\":12055:12060   */\n      dup3\n        /* \"#utility.yul\":12048:12069   */\n      mstore\n        /* \"#utility.yul\":12096:12100   */\n      0x20\n        /* \"#utility.yul\":12089:12094   */\n      dup3\n        /* \"#utility.yul\":12085:12101   */\n      add\n        /* \"#utility.yul\":12078:12101   */\n      swap1\n      pop\n        /* \"#utility.yul\":12149:12153   */\n      0x20\n        /* \"#utility.yul\":12141:12147   */\n      dup5\n        /* \"#utility.yul\":12137:12154   */\n      mul\n        /* \"#utility.yul\":12129:12135   */\n      dup4\n        /* \"#utility.yul\":12125:12155   */\n      add\n        /* \"#utility.yul\":12178:12181   */\n      dup6\n        /* \"#utility.yul\":12170:12176   */\n      dup2\n        /* \"#utility.yul\":12167:12182   */\n      gt\n        /* \"#utility.yul\":12164:12286   */\n      iszero\n      tag_344\n      jumpi\n        /* \"#utility.yul\":12197:12276   */\n      tag_345\n      tag_197\n      jump\t// in\n    tag_345:\n        /* \"#utility.yul\":12164:12286   */\n    tag_344:\n        /* \"#utility.yul\":12312:12318   */\n      dup4\n        /* \"#utility.yul\":12295:12730   */\n    tag_346:\n        /* \"#utility.yul\":12329:12335   */\n      dup2\n        /* \"#utility.yul\":12324:12327   */\n      dup2\n        /* \"#utility.yul\":12321:12336   */\n      lt\n        /* \"#utility.yul\":12295:12730   */\n      iszero\n      tag_348\n      jumpi\n        /* \"#utility.yul\":12418:12421   */\n      dup1\n        /* \"#utility.yul\":12405:12422   */\n      calldataload\n        /* \"#utility.yul\":12454:12472   */\n      0xffffffffffffffff\n        /* \"#utility.yul\":12441:12452   */\n      dup2\n        /* \"#utility.yul\":12438:12473   */\n      gt\n        /* \"#utility.yul\":12435:12557   */\n      iszero\n      tag_349\n      jumpi\n        /* \"#utility.yul\":12476:12555   */\n      tag_350\n      tag_173\n      jump\t// in\n    tag_350:\n        /* \"#utility.yul\":12435:12557   */\n    tag_349:\n        /* \"#utility.yul\":12600:12611   */\n      dup1\n        /* \"#utility.yul\":12592:12598   */\n      dup7\n        /* \"#utility.yul\":12588:12612   */\n      add\n        /* \"#utility.yul\":12638:12685   */\n      tag_351\n        /* \"#utility.yul\":12681:12684   */\n      dup10\n        /* \"#utility.yul\":12669:12679   */\n      dup3\n        /* \"#utility.yul\":12638:12685   */\n      tag_182\n      jump\t// in\n    tag_351:\n        /* \"#utility.yul\":12633:12636   */\n      dup6\n        /* \"#utility.yul\":12626:12686   */\n      mstore\n        /* \"#utility.yul\":12715:12719   */\n      0x20\n        /* \"#utility.yul\":12710:12713   */\n      dup6\n        /* \"#utility.yul\":12706:12720   */\n      add\n        /* \"#utility.yul\":12699:12720   */\n      swap5\n      pop\n        /* \"#utility.yul\":12371:12730   */\n      pop\n      pop\n        /* \"#utility.yul\":12355:12359   */\n      0x20\n        /* \"#utility.yul\":12350:12353   */\n      dup2\n        /* \"#utility.yul\":12346:12360   */\n      add\n        /* \"#utility.yul\":12339:12360   */\n      swap1\n      pop\n        /* \"#utility.yul\":12295:12730   */\n      jump(tag_346)\n    tag_348:\n        /* \"#utility.yul\":12299:12320   */\n      pop\n        /* \"#utility.yul\":11903:12736   */\n      pop\n      pop\n        /* \"#utility.yul\":11791:12736   */\n      swap4\n      swap3\n      pop\n      pop\n      pop\n      jump\t// out\n        /* \"#utility.yul\":12758:13148   */\n    tag_199:\n        /* \"#utility.yul\":12839:12844   */\n      0x00\n        /* \"#utility.yul\":12888:12891   */\n      dup3\n        /* \"#utility.yul\":12881:12885   */\n      0x1f\n        /* \"#utility.yul\":12873:12879   */\n      dup4\n        /* \"#utility.yul\":12869:12886   */\n      add\n        /* \"#utility.yul\":12865:12892   */\n      slt\n        /* \"#utility.yul\":12855:12977   */\n      tag_353\n      jumpi\n        /* \"#utility.yul\":12896:12975   */\n      tag_354\n      tag_173\n      jump\t// in\n    tag_354:\n        /* \"#utility.yul\":12855:12977   */\n    tag_353:\n        /* \"#utility.yul\":13013:13019   */\n      dup2\n        /* \"#utility.yul\":13000:13020   */\n      calldataload\n        /* \"#utility.yul\":13038:13142   */\n      tag_355\n        /* \"#utility.yul\":13138:13141   */\n      dup5\n        /* \"#utility.yul\":13130:13136   */\n      dup3\n        /* \"#utility.yul\":13123:13127   */\n      0x20\n        /* \"#utility.yul\":13115:13121   */\n      dup7\n        /* \"#utility.yul\":13111:13128   */\n      add\n        /* \"#utility.yul\":13038:13142   */\n      tag_198\n      jump\t// in\n    tag_355:\n        /* \"#utility.yul\":13029:13142   */\n      swap2\n      pop\n        /* \"#utility.yul\":12845:13148   */\n      pop\n        /* \"#utility.yul\":12758:13148   */\n      swap3\n      swap2\n      pop\n      pop\n      jump\t// out\n        /* \"#utility.yul\":13154:16663   */\n    tag_20:\n        /* \"#utility.yul\":13443:13449   */\n      0x00\n        /* \"#utility.yul\":13451:13457   */\n      dup1\n        /* \"#utility.yul\":13459:13465   */\n      0x00\n        /* \"#utility.yul\":13467:13473   */\n      dup1\n        /* \"#utility.yul\":13475:13481   */\n      0x00\n        /* \"#utility.yul\":13483:13489   */\n      dup1\n        /* \"#utility.yul\":13491:13497   */\n      0x00\n        /* \"#utility.yul\":13499:13505   */\n      dup1\n        /* \"#utility.yul\":13507:13513   */\n      0x00\n        /* \"#utility.yul\":13515:13521   */\n      dup1\n        /* \"#utility.yul\":13523:13530   */\n      0x00\n        /* \"#utility.yul\":13573:13576   */\n      0x0160\n        /* \"#utility.yul\":13561:13570   */\n      dup13\n        /* \"#utility.yul\":13552:13559   */\n      dup15\n        /* \"#utility.yul\":13548:13571   */\n      sub\n        /* \"#utility.yul\":13544:13577   */\n      slt\n        /* \"#utility.yul\":13541:13661   */\n      iszero\n      tag_357\n      jumpi\n        /* \"#utility.yul\":13580:13659   */\n      tag_358\n      tag_165\n      jump\t// in\n    tag_358:\n        /* \"#utility.yul\":13541:13661   */\n    tag_357:\n        /* \"#utility.yul\":13700:13701   */\n      0x00\n        /* \"#utility.yul\":13725:13778   */\n      tag_359\n        /* \"#utility.yul\":13770:13777   */\n      dup15\n        /* \"#utility.yul\":13761:13767   */\n      dup3\n        /* \"#utility.yul\":13750:13759   */\n      dup16\n        /* \"#utility.yul\":13746:13768   */\n      add\n        /* \"#utility.yul\":13725:13778   */\n      tag_172\n      jump\t// in\n    tag_359:\n        /* \"#utility.yul\":13715:13778   */\n      swap12\n      pop\n        /* \"#utility.yul\":13671:13788   */\n      pop\n        /* \"#utility.yul\":13855:13857   */\n      0x20\n        /* \"#utility.yul\":13844:13853   */\n      dup13\n        /* \"#utility.yul\":13840:13858   */\n      add\n        /* \"#utility.yul\":13827:13859   */\n      calldataload\n        /* \"#utility.yul\":13886:13904   */\n      0xffffffffffffffff\n        /* \"#utility.yul\":13878:13884   */\n      dup2\n        /* \"#utility.yul\":13875:13905   */\n      gt\n        /* \"#utility.yul\":13872:13989   */\n      iszero\n      tag_360\n      jumpi\n        /* \"#utility.yul\":13908:13987   */\n      tag_361\n      tag_166\n      jump\t// in\n    tag_361:\n        /* \"#utility.yul\":13872:13989   */\n    tag_360:\n        /* \"#utility.yul\":14013:14076   */\n      tag_362\n        /* \"#utility.yul\":14068:14075   */\n      dup15\n        /* \"#utility.yul\":14059:14065   */\n      dup3\n        /* \"#utility.yul\":14048:14057   */\n      dup16\n        /* \"#utility.yul\":14044:14066   */\n      add\n        /* \"#utility.yul\":14013:14076   */\n      tag_182\n      jump\t// in\n    tag_362:\n        /* \"#utility.yul\":14003:14076   */\n      swap11\n      pop\n        /* \"#utility.yul\":13798:14086   */\n      pop\n        /* \"#utility.yul\":14153:14155   */\n      0x40\n        /* \"#utility.yul\":14142:14151   */\n      dup13\n        /* \"#utility.yul\":14138:14156   */\n      add\n        /* \"#utility.yul\":14125:14157   */\n      calldataload\n        /* \"#utility.yul\":14184:14202   */\n      0xffffffffffffffff\n        /* \"#utility.yul\":14176:14182   */\n      dup2\n        /* \"#utility.yul\":14173:14203   */\n      gt\n        /* \"#utility.yul\":14170:14287   */\n      iszero\n      tag_363\n      jumpi\n        /* \"#utility.yul\":14206:14285   */\n      tag_364\n      tag_166\n      jump\t// in\n    tag_364:\n        /* \"#utility.yul\":14170:14287   */\n    tag_363:\n        /* \"#utility.yul\":14311:14374   */\n      tag_365\n        /* \"#utility.yul\":14366:14373   */\n      dup15\n        /* \"#utility.yul\":14357:14363   */\n      dup3\n        /* \"#utility.yul\":14346:14355   */\n      dup16\n        /* \"#utility.yul\":14342:14364   */\n      add\n        /* \"#utility.yul\":14311:14374   */\n      tag_182\n      jump\t// in\n    tag_365:\n        /* \"#utility.yul\":14301:14374   */\n      swap10\n      pop\n        /* \"#utility.yul\":14096:14384   */\n      pop\n        /* \"#utility.yul\":14451:14453   */\n      0x60\n        /* \"#utility.yul\":14440:14449   */\n      dup13\n        /* \"#utility.yul\":14436:14454   */\n      add\n        /* \"#utility.yul\":14423:14455   */\n      calldataload\n        /* \"#utility.yul\":14482:14500   */\n      0xffffffffffffffff\n        /* \"#utility.yul\":14474:14480   */\n      dup2\n        /* \"#utility.yul\":14471:14501   */\n      gt\n        /* \"#utility.yul\":14468:14585   */\n      iszero\n      tag_366\n      jumpi\n        /* \"#utility.yul\":14504:14583   */\n      tag_367\n      tag_166\n      jump\t// in\n    tag_367:\n        /* \"#utility.yul\":14468:14585   */\n    tag_366:\n        /* \"#utility.yul\":14609:14672   */\n      tag_368\n        /* \"#utility.yul\":14664:14671   */\n      dup15\n        /* \"#utility.yul\":14655:14661   */\n      dup3\n        /* \"#utility.yul\":14644:14653   */\n      dup16\n        /* \"#utility.yul\":14640:14662   */\n      add\n        /* \"#utility.yul\":14609:14672   */\n      tag_182\n      jump\t// in\n    tag_368:\n        /* \"#utility.yul\":14599:14672   */\n      swap9\n      pop\n        /* \"#utility.yul\":14394:14682   */\n      pop\n        /* \"#utility.yul\":14721:14724   */\n      0x80\n        /* \"#utility.yul\":14748:14801   */\n      tag_369\n        /* \"#utility.yul\":14793:14800   */\n      dup15\n        /* \"#utility.yul\":14784:14790   */\n      dup3\n        /* \"#utility.yul\":14773:14782   */\n      dup16\n        /* \"#utility.yul\":14769:14791   */\n      add\n        /* \"#utility.yul\":14748:14801   */\n      tag_172\n      jump\t// in\n    tag_369:\n        /* \"#utility.yul\":14738:14801   */\n      swap8\n      pop\n        /* \"#utility.yul\":14692:14811   */\n      pop\n        /* \"#utility.yul\":14878:14881   */\n      0xa0\n        /* \"#utility.yul\":14867:14876   */\n      dup13\n        /* \"#utility.yul\":14863:14882   */\n      add\n        /* \"#utility.yul\":14850:14883   */\n      calldataload\n        /* \"#utility.yul\":14910:14928   */\n      0xffffffffffffffff\n        /* \"#utility.yul\":14902:14908   */\n      dup2\n        /* \"#utility.yul\":14899:14929   */\n      gt\n        /* \"#utility.yul\":14896:15013   */\n      iszero\n      tag_370\n      jumpi\n        /* \"#utility.yul\":14932:15011   */\n      tag_371\n      tag_166\n      jump\t// in\n    tag_371:\n        /* \"#utility.yul\":14896:15013   */\n    tag_370:\n        /* \"#utility.yul\":15037:15100   */\n      tag_372\n        /* \"#utility.yul\":15092:15099   */\n      dup15\n        /* \"#utility.yul\":15083:15089   */\n      dup3\n        /* \"#utility.yul\":15072:15081   */\n      dup16\n        /* \"#utility.yul\":15068:15090   */\n      add\n        /* \"#utility.yul\":15037:15100   */\n      tag_182\n      jump\t// in\n    tag_372:\n        /* \"#utility.yul\":15027:15100   */\n      swap7\n      pop\n        /* \"#utility.yul\":14821:15110   */\n      pop\n        /* \"#utility.yul\":15177:15180   */\n      0xc0\n        /* \"#utility.yul\":15166:15175   */\n      dup13\n        /* \"#utility.yul\":15162:15181   */\n      add\n        /* \"#utility.yul\":15149:15182   */\n      calldataload\n        /* \"#utility.yul\":15209:15227   */\n      0xffffffffffffffff\n        /* \"#utility.yul\":15201:15207   */\n      dup2\n        /* \"#utility.yul\":15198:15228   */\n      gt\n        /* \"#utility.yul\":15195:15312   */\n      iszero\n      tag_373\n      jumpi\n        /* \"#utility.yul\":15231:15310   */\n      tag_374\n      tag_166\n      jump\t// in\n    tag_374:\n        /* \"#utility.yul\":15195:15312   */\n    tag_373:\n        /* \"#utility.yul\":15336:15399   */\n      tag_375\n        /* \"#utility.yul\":15391:15398   */\n      dup15\n        /* \"#utility.yul\":15382:15388   */\n      dup3\n        /* \"#utility.yul\":15371:15380   */\n      dup16\n        /* \"#utility.yul\":15367:15389   */\n      add\n        /* \"#utility.yul\":15336:15399   */\n      tag_182\n      jump\t// in\n    tag_375:\n        /* \"#utility.yul\":15326:15399   */\n      swap6\n      pop\n        /* \"#utility.yul\":15120:15409   */\n      pop\n        /* \"#utility.yul\":15476:15479   */\n      0xe0\n        /* \"#utility.yul\":15465:15474   */\n      dup13\n        /* \"#utility.yul\":15461:15480   */\n      add\n        /* \"#utility.yul\":15448:15481   */\n      calldataload\n        /* \"#utility.yul\":15508:15526   */\n      0xffffffffffffffff\n        /* \"#utility.yul\":15500:15506   */\n      dup2\n        /* \"#utility.yul\":15497:15527   */\n      gt\n        /* \"#utility.yul\":15494:15611   */\n      iszero\n      tag_376\n      jumpi\n        /* \"#utility.yul\":15530:15609   */\n      tag_377\n      tag_166\n      jump\t// in\n    tag_377:\n        /* \"#utility.yul\":15494:15611   */\n    tag_376:\n        /* \"#utility.yul\":15635:15698   */\n      tag_378\n        /* \"#utility.yul\":15690:15697   */\n      dup15\n        /* \"#utility.yul\":15681:15687   */\n      dup3\n        /* \"#utility.yul\":15670:15679   */\n      dup16\n        /* \"#utility.yul\":15666:15688   */\n      add\n        /* \"#utility.yul\":15635:15698   */\n      tag_182\n      jump\t// in\n    tag_378:\n        /* \"#utility.yul\":15625:15698   */\n      swap5\n      pop\n        /* \"#utility.yul\":15419:15708   */\n      pop\n        /* \"#utility.yul\":15775:15778   */\n      0x0100\n        /* \"#utility.yul\":15764:15773   */\n      dup13\n        /* \"#utility.yul\":15760:15779   */\n      add\n        /* \"#utility.yul\":15747:15780   */\n      calldataload\n        /* \"#utility.yul\":15807:15825   */\n      0xffffffffffffffff\n        /* \"#utility.yul\":15799:15805   */\n      dup2\n        /* \"#utility.yul\":15796:15826   */\n      gt\n        /* \"#utility.yul\":15793:15910   */\n      iszero\n      tag_379\n      jumpi\n        /* \"#utility.yul\":15829:15908   */\n      tag_380\n      tag_166\n      jump\t// in\n    tag_380:\n        /* \"#utility.yul\":15793:15910   */\n    tag_379:\n        /* \"#utility.yul\":15934:15997   */\n      tag_381\n        /* \"#utility.yul\":15989:15996   */\n      dup15\n        /* \"#utility.yul\":15980:15986   */\n      dup3\n        /* \"#utility.yul\":15969:15978   */\n      dup16\n        /* \"#utility.yul\":15965:15987   */\n      add\n        /* \"#utility.yul\":15934:15997   */\n      tag_182\n      jump\t// in\n    tag_381:\n        /* \"#utility.yul\":15924:15997   */\n      swap4\n      pop\n        /* \"#utility.yul\":15718:16007   */\n      pop\n        /* \"#utility.yul\":16074:16077   */\n      0x0120\n        /* \"#utility.yul\":16063:16072   */\n      dup13\n        /* \"#utility.yul\":16059:16078   */\n      add\n        /* \"#utility.yul\":16046:16079   */\n      calldataload\n        /* \"#utility.yul\":16106:16124   */\n      0xffffffffffffffff\n        /* \"#utility.yul\":16098:16104   */\n      dup2\n        /* \"#utility.yul\":16095:16125   */\n      gt\n        /* \"#utility.yul\":16092:16209   */\n      iszero\n      tag_382\n      jumpi\n        /* \"#utility.yul\":16128:16207   */\n      tag_383\n      tag_166\n      jump\t// in\n    tag_383:\n        /* \"#utility.yul\":16092:16209   */\n    tag_382:\n        /* \"#utility.yul\":16233:16321   */\n      tag_384\n        /* \"#utility.yul\":16313:16320   */\n      dup15\n        /* \"#utility.yul\":16304:16310   */\n      dup3\n        /* \"#utility.yul\":16293:16302   */\n      dup16\n        /* \"#utility.yul\":16289:16311   */\n      add\n        /* \"#utility.yul\":16233:16321   */\n      tag_199\n      jump\t// in\n    tag_384:\n        /* \"#utility.yul\":16223:16321   */\n      swap3\n      pop\n        /* \"#utility.yul\":16017:16331   */\n      pop\n        /* \"#utility.yul\":16398:16401   */\n      0x0140\n        /* \"#utility.yul\":16387:16396   */\n      dup13\n        /* \"#utility.yul\":16383:16402   */\n      add\n        /* \"#utility.yul\":16370:16403   */\n      calldataload\n        /* \"#utility.yul\":16430:16448   */\n      0xffffffffffffffff\n        /* \"#utility.yul\":16422:16428   */\n      dup2\n        /* \"#utility.yul\":16419:16449   */\n      gt\n        /* \"#utility.yul\":16416:16533   */\n      iszero\n      tag_385\n      jumpi\n        /* \"#utility.yul\":16452:16531   */\n      tag_386\n      tag_166\n      jump\t// in\n    tag_386:\n        /* \"#utility.yul\":16416:16533   */\n    tag_385:\n        /* \"#utility.yul\":16558:16646   */\n      tag_387\n        /* \"#utility.yul\":16638:16645   */\n      dup15\n        /* \"#utility.yul\":16629:16635   */\n      dup3\n        /* \"#utility.yul\":16618:16627   */\n      dup16\n        /* \"#utility.yul\":16614:16636   */\n      add\n        /* \"#utility.yul\":16558:16646   */\n      tag_199\n      jump\t// in\n    tag_387:\n        /* \"#utility.yul\":16547:16646   */\n      swap2\n      pop\n        /* \"#utility.yul\":16341:16656   */\n      pop\n        /* \"#utility.yul\":13154:16663   */\n      swap3\n      swap6\n      swap9\n      swap12\n      pop\n      swap3\n      swap6\n      swap9\n      swap12\n      swap1\n      swap4\n      swap7\n      swap10\n      pop\n      jump\t// out\n        /* \"#utility.yul\":16669:16838   */\n    tag_200:\n        /* \"#utility.yul\":16753:16764   */\n      0x00\n        /* \"#utility.yul\":16787:16793   */\n      dup3\n        /* \"#utility.yul\":16782:16785   */\n      dup3\n        /* \"#utility.yul\":16775:16794   */\n      mstore\n        /* \"#utility.yul\":16827:16831   */\n      0x20\n        /* \"#utility.yul\":16822:16825   */\n      dup3\n        /* \"#utility.yul\":16818:16832   */\n      add\n        /* \"#utility.yul\":16803:16832   */\n      swap1\n      pop\n        /* \"#utility.yul\":16669:16838   */\n      swap3\n      swap2\n      pop\n      pop\n      jump\t// out\n        /* \"#utility.yul\":16844:17016   */\n    tag_201:\n        /* \"#utility.yul\":16984:17008   */\n      0x50726f6475637420646f6573206e6f7420657869737400000000000000000000\n        /* \"#utility.yul\":16980:16981   */\n      0x00\n        /* \"#utility.yul\":16972:16978   */\n      dup3\n        /* \"#utility.yul\":16968:16982   */\n      add\n        /* \"#utility.yul\":16961:17009   */\n      mstore\n        /* \"#utility.yul\":16844:17016   */\n      pop\n      jump\t// out\n        /* \"#utility.yul\":17022:17388   */\n    tag_202:\n        /* \"#utility.yul\":17164:17167   */\n      0x00\n        /* \"#utility.yul\":17185:17252   */\n      tag_391\n        /* \"#utility.yul\":17249:17251   */\n      0x16\n        /* \"#utility.yul\":17244:17247   */\n      dup4\n        /* \"#utility.yul\":17185:17252   */\n      tag_200\n      jump\t// in\n    tag_391:\n        /* \"#utility.yul\":17178:17252   */\n      swap2\n      pop\n        /* \"#utility.yul\":17261:17354   */\n      tag_392\n        /* \"#utility.yul\":17350:17353   */\n      dup3\n        /* \"#utility.yul\":17261:17354   */\n      tag_201\n      jump\t// in\n    tag_392:\n        /* \"#utility.yul\":17379:17381   */\n      0x20\n        /* \"#utility.yul\":17374:17377   */\n      dup3\n        /* \"#utility.yul\":17370:17382   */\n      add\n        /* \"#utility.yul\":17363:17382   */\n      swap1\n      pop\n        /* \"#utility.yul\":17022:17388   */\n      swap2\n      swap1\n      pop\n      jump\t// out\n        /* \"#utility.yul\":17394:17813   */\n    tag_26:\n        /* \"#utility.yul\":17560:17564   */\n      0x00\n        /* \"#utility.yul\":17598:17600   */\n      0x20\n        /* \"#utility.yul\":17587:17596   */\n      dup3\n        /* \"#utility.yul\":17583:17601   */\n      add\n        /* \"#utility.yul\":17575:17601   */\n      swap1\n      pop\n        /* \"#utility.yul\":17647:17656   */\n      dup2\n        /* \"#utility.yul\":17641:17645   */\n      dup2\n        /* \"#utility.yul\":17637:17657   */\n      sub\n        /* \"#utility.yul\":17633:17634   */\n      0x00\n        /* \"#utility.yul\":17622:17631   */\n      dup4\n        /* \"#utility.yul\":17618:17635   */\n      add\n        /* \"#utility.yul\":17611:17658   */\n      mstore\n        /* \"#utility.yul\":17675:17806   */\n      tag_394\n        /* \"#utility.yul\":17801:17805   */\n      dup2\n        /* \"#utility.yul\":17675:17806   */\n      tag_202\n      jump\t// in\n    tag_394:\n        /* \"#utility.yul\":17667:17806   */\n      swap1\n      pop\n        /* \"#utility.yul\":17394:17813   */\n      swap2\n      swap1\n      pop\n      jump\t// out\n        /* \"#utility.yul\":17819:17898   */\n    tag_203:\n        /* \"#utility.yul\":17858:17865   */\n      0x00\n        /* \"#utility.yul\":17887:17892   */\n      dup2\n        /* \"#utility.yul\":17876:17892   */\n      swap1\n      pop\n        /* \"#utility.yul\":17819:17898   */\n      swap2\n      swap1\n      pop\n      jump\t// out\n        /* \"#utility.yul\":17904:18061   */\n    tag_204:\n        /* \"#utility.yul\":18009:18054   */\n      tag_397\n        /* \"#utility.yul\":18029:18053   */\n      tag_398\n        /* \"#utility.yul\":18047:18052   */\n      dup3\n        /* \"#utility.yul\":18029:18053   */\n      tag_170\n      jump\t// in\n    tag_398:\n        /* \"#utility.yul\":18009:18054   */\n      tag_203\n      jump\t// in\n    tag_397:\n        /* \"#utility.yul\":18004:18007   */\n      dup3\n        /* \"#utility.yul\":17997:18055   */\n      mstore\n        /* \"#utility.yul\":17904:18061   */\n      pop\n      pop\n      jump\t// out\n        /* \"#utility.yul\":18067:18146   */\n    tag_205:\n        /* \"#utility.yul\":18106:18113   */\n      0x00\n        /* \"#utility.yul\":18135:18140   */\n      dup2\n        /* \"#utility.yul\":18124:18140   */\n      swap1\n      pop\n        /* \"#utility.yul\":18067:18146   */\n      swap2\n      swap1\n      pop\n      jump\t// out\n        /* \"#utility.yul\":18152:18309   */\n    tag_206:\n        /* \"#utility.yul\":18257:18302   */\n      tag_401\n        /* \"#utility.yul\":18277:18301   */\n      tag_402\n        /* \"#utility.yul\":18295:18300   */\n      dup3\n        /* \"#utility.yul\":18277:18301   */\n      tag_167\n      jump\t// in\n    tag_402:\n        /* \"#utility.yul\":18257:18302   */\n      tag_205\n      jump\t// in\n    tag_401:\n        /* \"#utility.yul\":18252:18255   */\n      dup3\n        /* \"#utility.yul\":18245:18303   */\n      mstore\n        /* \"#utility.yul\":18152:18309   */\n      pop\n      pop\n      jump\t// out\n        /* \"#utility.yul\":18315:18463   */\n    tag_207:\n        /* \"#utility.yul\":18417:18428   */\n      0x00\n        /* \"#utility.yul\":18454:18457   */\n      dup2\n        /* \"#utility.yul\":18439:18457   */\n      swap1\n      pop\n        /* \"#utility.yul\":18315:18463   */\n      swap3\n      swap2\n      pop\n      pop\n      jump\t// out\n        /* \"#utility.yul\":18469:18859   */\n    tag_208:\n        /* \"#utility.yul\":18575:18578   */\n      0x00\n        /* \"#utility.yul\":18603:18642   */\n      tag_405\n        /* \"#utility.yul\":18636:18641   */\n      dup3\n        /* \"#utility.yul\":18603:18642   */\n      tag_185\n      jump\t// in\n    tag_405:\n        /* \"#utility.yul\":18658:18747   */\n      tag_406\n        /* \"#utility.yul\":18740:18746   */\n      dup2\n        /* \"#utility.yul\":18735:18738   */\n      dup6\n        /* \"#utility.yul\":18658:18747   */\n      tag_207\n      jump\t// in\n    tag_406:\n        /* \"#utility.yul\":18651:18747   */\n      swap4\n      pop\n        /* \"#utility.yul\":18756:18821   */\n      tag_407\n        /* \"#utility.yul\":18814:18820   */\n      dup2\n        /* \"#utility.yul\":18809:18812   */\n      dup6\n        /* \"#utility.yul\":18802:18806   */\n      0x20\n        /* \"#utility.yul\":18795:18800   */\n      dup7\n        /* \"#utility.yul\":18791:18807   */\n      add\n        /* \"#utility.yul\":18756:18821   */\n      tag_187\n      jump\t// in\n    tag_407:\n        /* \"#utility.yul\":18846:18852   */\n      dup1\n        /* \"#utility.yul\":18841:18844   */\n      dup5\n        /* \"#utility.yul\":18837:18853   */\n      add\n        /* \"#utility.yul\":18830:18853   */\n      swap2\n      pop\n        /* \"#utility.yul\":18579:18859   */\n      pop\n        /* \"#utility.yul\":18469:18859   */\n      swap3\n      swap2\n      pop\n      pop\n      jump\t// out\n        /* \"#utility.yul\":18865:19582   */\n    tag_30:\n        /* \"#utility.yul\":19101:19104   */\n      0x00\n        /* \"#utility.yul\":19116:19191   */\n      tag_409\n        /* \"#utility.yul\":19187:19190   */\n      dup3\n        /* \"#utility.yul\":19178:19184   */\n      dup8\n        /* \"#utility.yul\":19116:19191   */\n      tag_204\n      jump\t// in\n    tag_409:\n        /* \"#utility.yul\":19216:19218   */\n      0x20\n        /* \"#utility.yul\":19211:19214   */\n      dup3\n        /* \"#utility.yul\":19207:19219   */\n      add\n        /* \"#utility.yul\":19200:19219   */\n      swap2\n      pop\n        /* \"#utility.yul\":19229:19304   */\n      tag_410\n        /* \"#utility.yul\":19300:19303   */\n      dup3\n        /* \"#utility.yul\":19291:19297   */\n      dup7\n        /* \"#utility.yul\":19229:19304   */\n      tag_206\n      jump\t// in\n    tag_410:\n        /* \"#utility.yul\":19329:19331   */\n      0x20\n        /* \"#utility.yul\":19324:19327   */\n      dup3\n        /* \"#utility.yul\":19320:19332   */\n      add\n        /* \"#utility.yul\":19313:19332   */\n      swap2\n      pop\n        /* \"#utility.yul\":19349:19444   */\n      tag_411\n        /* \"#utility.yul\":19440:19443   */\n      dup3\n        /* \"#utility.yul\":19431:19437   */\n      dup6\n        /* \"#utility.yul\":19349:19444   */\n      tag_208\n      jump\t// in\n    tag_411:\n        /* \"#utility.yul\":19342:19444   */\n      swap2\n      pop\n        /* \"#utility.yul\":19461:19556   */\n      tag_412\n        /* \"#utility.yul\":19552:19555   */\n      dup3\n        /* \"#utility.yul\":19543:19549   */\n      dup5\n        /* \"#utility.yul\":19461:19556   */\n      tag_208\n      jump\t// in\n    tag_412:\n        /* \"#utility.yul\":19454:19556   */\n      swap2\n      pop\n        /* \"#utility.yul\":19573:19576   */\n      dup2\n        /* \"#utility.yul\":19566:19576   */\n      swap1\n      pop\n        /* \"#utility.yul\":18865:19582   */\n      swap6\n      swap5\n      pop\n      pop\n      pop\n      pop\n      pop\n      jump\t// out\n        /* \"#utility.yul\":19588:20145   */\n    tag_34:\n        /* \"#utility.yul\":19776:19779   */\n      0x00\n        /* \"#utility.yul\":19791:19866   */\n      tag_414\n        /* \"#utility.yul\":19862:19865   */\n      dup3\n        /* \"#utility.yul\":19853:19859   */\n      dup7\n        /* \"#utility.yul\":19791:19866   */\n      tag_204\n      jump\t// in\n    tag_414:\n        /* \"#utility.yul\":19891:19893   */\n      0x20\n        /* \"#utility.yul\":19886:19889   */\n      dup3\n        /* \"#utility.yul\":19882:19894   */\n      add\n        /* \"#utility.yul\":19875:19894   */\n      swap2\n      pop\n        /* \"#utility.yul\":19904:19979   */\n      tag_415\n        /* \"#utility.yul\":19975:19978   */\n      dup3\n        /* \"#utility.yul\":19966:19972   */\n      dup6\n        /* \"#utility.yul\":19904:19979   */\n      tag_206\n      jump\t// in\n    tag_415:\n        /* \"#utility.yul\":20004:20006   */\n      0x20\n        /* \"#utility.yul\":19999:20002   */\n      dup3\n        /* \"#utility.yul\":19995:20007   */\n      add\n        /* \"#utility.yul\":19988:20007   */\n      swap2\n      pop\n        /* \"#utility.yul\":20024:20119   */\n      tag_416\n        /* \"#utility.yul\":20115:20118   */\n      dup3\n        /* \"#utility.yul\":20106:20112   */\n      dup5\n        /* \"#utility.yul\":20024:20119   */\n      tag_208\n      jump\t// in\n    tag_416:\n        /* \"#utility.yul\":20017:20119   */\n      swap2\n      pop\n        /* \"#utility.yul\":20136:20139   */\n      dup2\n        /* \"#utility.yul\":20129:20139   */\n      swap1\n      pop\n        /* \"#utility.yul\":19588:20145   */\n      swap5\n      swap4\n      pop\n      pop\n      pop\n      pop\n      jump\t// out\n        /* \"#utility.yul\":20151:20382   */\n    tag_209:\n        /* \"#utility.yul\":20291:20325   */\n      0x456974686572207175616c697479206f72207175616e746974792073686f756c\n        /* \"#utility.yul\":20287:20288   */\n      0x00\n        /* \"#utility.yul\":20279:20285   */\n      dup3\n        /* \"#utility.yul\":20275:20289   */\n      add\n        /* \"#utility.yul\":20268:20326   */\n      mstore\n        /* \"#utility.yul\":20360:20374   */\n      0x6420626520757064617465640000000000000000000000000000000000000000\n        /* \"#utility.yul\":20355:20357   */\n      0x20\n        /* \"#utility.yul\":20347:20353   */\n      dup3\n        /* \"#utility.yul\":20343:20358   */\n      add\n        /* \"#utility.yul\":20336:20375   */\n      mstore\n        /* \"#utility.yul\":20151:20382   */\n      pop\n      jump\t// out\n        /* \"#utility.yul\":20388:20754   */\n    tag_210:\n        /* \"#utility.yul\":20530:20533   */\n      0x00\n        /* \"#utility.yul\":20551:20618   */\n      tag_419\n        /* \"#utility.yul\":20615:20617   */\n      0x2c\n        /* \"#utility.yul\":20610:20613   */\n      dup4\n        /* \"#utility.yul\":20551:20618   */\n      tag_200\n      jump\t// in\n    tag_419:\n        /* \"#utility.yul\":20544:20618   */\n      swap2\n      pop\n        /* \"#utility.yul\":20627:20720   */\n      tag_420\n        /* \"#utility.yul\":20716:20719   */\n      dup3\n        /* \"#utility.yul\":20627:20720   */\n      tag_209\n      jump\t// in\n    tag_420:\n        /* \"#utility.yul\":20745:20747   */\n      0x40\n        /* \"#utility.yul\":20740:20743   */\n      dup3\n        /* \"#utility.yul\":20736:20748   */\n      add\n        /* \"#utility.yul\":20729:20748   */\n      swap1\n      pop\n        /* \"#utility.yul\":20388:20754   */\n      swap2\n      swap1\n      pop\n      jump\t// out\n        /* \"#utility.yul\":20760:21179   */\n    tag_40:\n        /* \"#utility.yul\":20926:20930   */\n      0x00\n        /* \"#utility.yul\":20964:20966   */\n      0x20\n        /* \"#utility.yul\":20953:20962   */\n      dup3\n        /* \"#utility.yul\":20949:20967   */\n      add\n        /* \"#utility.yul\":20941:20967   */\n      swap1\n      pop\n        /* \"#utility.yul\":21013:21022   */\n      dup2\n        /* \"#utility.yul\":21007:21011   */\n      dup2\n        /* \"#utility.yul\":21003:21023   */\n      sub\n        /* \"#utility.yul\":20999:21000   */\n      0x00\n        /* \"#utility.yul\":20988:20997   */\n      dup4\n        /* \"#utility.yul\":20984:21001   */\n      add\n        /* \"#utility.yul\":20977:21024   */\n      mstore\n        /* \"#utility.yul\":21041:21172   */\n      tag_422\n        /* \"#utility.yul\":21167:21171   */\n      dup2\n        /* \"#utility.yul\":21041:21172   */\n      tag_210\n      jump\t// in\n    tag_422:\n        /* \"#utility.yul\":21033:21172   */\n      swap1\n      pop\n        /* \"#utility.yul\":20760:21179   */\n      swap2\n      swap1\n      pop\n      jump\t// out\n        /* \"#utility.yul\":21185:21424   */\n    tag_211:\n        /* \"#utility.yul\":21325:21359   */\n      0x50726f647563742077697468206e6577207175616c69747920616e6420717561\n        /* \"#utility.yul\":21321:21322   */\n      0x00\n        /* \"#utility.yul\":21313:21319   */\n      dup3\n        /* \"#utility.yul\":21309:21323   */\n      add\n        /* \"#utility.yul\":21302:21360   */\n      mstore\n        /* \"#utility.yul\":21394:21416   */\n      0x6e7469747920616c726561647920657869737473000000000000000000000000\n        /* \"#utility.yul\":21389:21391   */\n      0x20\n        /* \"#utility.yul\":21381:21387   */\n      dup3\n        /* \"#utility.yul\":21377:21392   */\n      add\n        /* \"#utility.yul\":21370:21417   */\n      mstore\n        /* \"#utility.yul\":21185:21424   */\n      pop\n      jump\t// out\n        /* \"#utility.yul\":21430:21796   */\n    tag_212:\n        /* \"#utility.yul\":21572:21575   */\n      0x00\n        /* \"#utility.yul\":21593:21660   */\n      tag_425\n        /* \"#utility.yul\":21657:21659   */\n      0x34\n        /* \"#utility.yul\":21652:21655   */\n      dup4\n        /* \"#utility.yul\":21593:21660   */\n      tag_200\n      jump\t// in\n    tag_425:\n        /* \"#utility.yul\":21586:21660   */\n      swap2\n      pop\n        /* \"#utility.yul\":21669:21762   */\n      tag_426\n        /* \"#utility.yul\":21758:21761   */\n      dup3\n        /* \"#utility.yul\":21669:21762   */\n      tag_211\n      jump\t// in\n    tag_426:\n        /* \"#utility.yul\":21787:21789   */\n      0x40\n        /* \"#utility.yul\":21782:21785   */\n      dup3\n        /* \"#utility.yul\":21778:21790   */\n      add\n        /* \"#utility.yul\":21771:21790   */\n      swap1\n      pop\n        /* \"#utility.yul\":21430:21796   */\n      swap2\n      swap1\n      pop\n      jump\t// out\n        /* \"#utility.yul\":21802:22221   */\n    tag_43:\n        /* \"#utility.yul\":21968:21972   */\n      0x00\n        /* \"#utility.yul\":22006:22008   */\n      0x20\n        /* \"#utility.yul\":21995:22004   */\n      dup3\n        /* \"#utility.yul\":21991:22009   */\n      add\n        /* \"#utility.yul\":21983:22009   */\n      swap1\n      pop\n        /* \"#utility.yul\":22055:22064   */\n      dup2\n        /* \"#utility.yul\":22049:22053   */\n      dup2\n        /* \"#utility.yul\":22045:22065   */\n      sub\n        /* \"#utility.yul\":22041:22042   */\n      0x00\n        /* \"#utility.yul\":22030:22039   */\n      dup4\n        /* \"#utility.yul\":22026:22043   */\n      add\n        /* \"#utility.yul\":22019:22066   */\n      mstore\n        /* \"#utility.yul\":22083:22214   */\n      tag_428\n        /* \"#utility.yul\":22209:22213   */\n      dup2\n        /* \"#utility.yul\":22083:22214   */\n      tag_212\n      jump\t// in\n    tag_428:\n        /* \"#utility.yul\":22075:22214   */\n      swap1\n      pop\n        /* \"#utility.yul\":21802:22221   */\n      swap2\n      swap1\n      pop\n      jump\t// out\n        /* \"#utility.yul\":22227:22407   */\n    tag_213:\n        /* \"#utility.yul\":22275:22352   */\n      0x4e487b7100000000000000000000000000000000000000000000000000000000\n        /* \"#utility.yul\":22272:22273   */\n      0x00\n        /* \"#utility.yul\":22265:22353   */\n      mstore\n        /* \"#utility.yul\":22372:22376   */\n      0x22\n        /* \"#utility.yul\":22369:22370   */\n      0x04\n        /* \"#utility.yul\":22362:22377   */\n      mstore\n        /* \"#utility.yul\":22396:22400   */\n      0x24\n        /* \"#utility.yul\":22393:22394   */\n      0x00\n        /* \"#utility.yul\":22386:22401   */\n      revert\n        /* \"#utility.yul\":22413:22733   */\n    tag_48:\n        /* \"#utility.yul\":22457:22463   */\n      0x00\n        /* \"#utility.yul\":22494:22495   */\n      0x02\n        /* \"#utility.yul\":22488:22492   */\n      dup3\n        /* \"#utility.yul\":22484:22496   */\n      div\n        /* \"#utility.yul\":22474:22496   */\n      swap1\n      pop\n        /* \"#utility.yul\":22541:22542   */\n      0x01\n        /* \"#utility.yul\":22535:22539   */\n      dup3\n        /* \"#utility.yul\":22531:22543   */\n      and\n        /* \"#utility.yul\":22562:22580   */\n      dup1\n        /* \"#utility.yul\":22552:22633   */\n      tag_431\n      jumpi\n        /* \"#utility.yul\":22618:22622   */\n      0x7f\n        /* \"#utility.yul\":22610:22616   */\n      dup3\n        /* \"#utility.yul\":22606:22623   */\n      and\n        /* \"#utility.yul\":22596:22623   */\n      swap2\n      pop\n        /* \"#utility.yul\":22552:22633   */\n    tag_431:\n        /* \"#utility.yul\":22680:22682   */\n      0x20\n        /* \"#utility.yul\":22672:22678   */\n      dup3\n        /* \"#utility.yul\":22669:22683   */\n      lt\n        /* \"#utility.yul\":22649:22667   */\n      dup2\n        /* \"#utility.yul\":22646:22684   */\n      sub\n        /* \"#utility.yul\":22643:22727   */\n      tag_432\n      jumpi\n        /* \"#utility.yul\":22699:22717   */\n      tag_433\n      tag_213\n      jump\t// in\n    tag_433:\n        /* \"#utility.yul\":22643:22727   */\n    tag_432:\n        /* \"#utility.yul\":22464:22733   */\n      pop\n        /* \"#utility.yul\":22413:22733   */\n      swap2\n      swap1\n      pop\n      jump\t// out\n        /* \"#utility.yul\":22739:22892   */\n    tag_214:\n        /* \"#utility.yul\":22792:22798   */\n      0x00\n        /* \"#utility.yul\":22826:22831   */\n      dup2\n        /* \"#utility.yul\":22820:22832   */\n      sload\n        /* \"#utility.yul\":22810:22832   */\n      swap1\n      pop\n        /* \"#utility.yul\":22852:22885   */\n      tag_435\n        /* \"#utility.yul\":22878:22884   */\n      dup2\n        /* \"#utility.yul\":22852:22885   */\n      tag_48\n      jump\t// in\n    tag_435:\n        /* \"#utility.yul\":22842:22885   */\n      swap1\n      pop\n        /* \"#utility.yul\":22739:22892   */\n      swap2\n      swap1\n      pop\n      jump\t// out\n        /* \"#utility.yul\":22898:23039   */\n    tag_215:\n        /* \"#utility.yul\":22947:22951   */\n      0x00\n        /* \"#utility.yul\":22970:22973   */\n      dup2\n        /* \"#utility.yul\":22962:22973   */\n      swap1\n      pop\n        /* \"#utility.yul\":22993:22996   */\n      dup2\n        /* \"#utility.yul\":22990:22991   */\n      0x00\n        /* \"#utility.yul\":22983:22997   */\n      mstore\n        /* \"#utility.yul\":23027:23031   */\n      0x20\n        /* \"#utility.yul\":23024:23025   */\n      0x00\n        /* \"#utility.yul\":23014:23032   */\n      keccak256\n        /* \"#utility.yul\":23006:23032   */\n      swap1\n      pop\n        /* \"#utility.yul\":22898:23039   */\n      swap2\n      swap1\n      pop\n      jump\t// out\n        /* \"#utility.yul\":23045:23190   */\n    tag_216:\n        /* \"#utility.yul\":23098:23102   */\n      0x00\n        /* \"#utility.yul\":23121:23124   */\n      dup2\n        /* \"#utility.yul\":23113:23124   */\n      swap1\n      pop\n        /* \"#utility.yul\":23144:23147   */\n      dup2\n        /* \"#utility.yul\":23141:23142   */\n      0x00\n        /* \"#utility.yul\":23134:23148   */\n      mstore\n        /* \"#utility.yul\":23178:23182   */\n      0x20\n        /* \"#utility.yul\":23175:23176   */\n      0x00\n        /* \"#utility.yul\":23165:23183   */\n      keccak256\n        /* \"#utility.yul\":23157:23183   */\n      swap1\n      pop\n        /* \"#utility.yul\":23045:23190   */\n      swap2\n      swap1\n      pop\n      jump\t// out\n        /* \"#utility.yul\":23196:23289   */\n    tag_217:\n        /* \"#utility.yul\":23233:23239   */\n      0x00\n        /* \"#utility.yul\":23280:23282   */\n      0x20\n        /* \"#utility.yul\":23275:23277   */\n      0x1f\n        /* \"#utility.yul\":23268:23273   */\n      dup4\n        /* \"#utility.yul\":23264:23278   */\n      add\n        /* \"#utility.yul\":23260:23283   */\n      div\n        /* \"#utility.yul\":23250:23283   */\n      swap1\n      pop\n        /* \"#utility.yul\":23196:23289   */\n      swap2\n      swap1\n      pop\n      jump\t// out\n        /* \"#utility.yul\":23295:23402   */\n    tag_218:\n        /* \"#utility.yul\":23339:23347   */\n      0x00\n        /* \"#utility.yul\":23389:23394   */\n      dup3\n        /* \"#utility.yul\":23383:23387   */\n      dup3\n        /* \"#utility.yul\":23379:23395   */\n      shl\n        /* \"#utility.yul\":23358:23395   */\n      swap1\n      pop\n        /* \"#utility.yul\":23295:23402   */\n      swap3\n      swap2\n      pop\n      pop\n      jump\t// out\n        /* \"#utility.yul\":23408:23801   */\n    tag_219:\n        /* \"#utility.yul\":23477:23483   */\n      0x00\n        /* \"#utility.yul\":23527:23528   */\n      0x08\n        /* \"#utility.yul\":23515:23525   */\n      dup4\n        /* \"#utility.yul\":23511:23529   */\n      mul\n        /* \"#utility.yul\":23550:23647   */\n      tag_441\n        /* \"#utility.yul\":23580:23646   */\n      0xffffffffffffffffffffffffffffffffffffffffffffffffffffffffffffffff\n        /* \"#utility.yul\":23569:23578   */\n      dup3\n        /* \"#utility.yul\":23550:23647   */\n      tag_218\n      jump\t// in\n    tag_441:\n        /* \"#utility.yul\":23668:23707   */\n      tag_442\n        /* \"#utility.yul\":23698:23706   */\n      dup7\n        /* \"#utility.yul\":23687:23696   */\n      dup4\n        /* \"#utility.yul\":23668:23707   */\n      tag_218\n      jump\t// in\n    tag_442:\n        /* \"#utility.yul\":23656:23707   */\n      swap6\n      pop\n        /* \"#utility.yul\":23740:23744   */\n      dup1\n        /* \"#utility.yul\":23736:23745   */\n      not\n        /* \"#utility.yul\":23729:23734   */\n      dup5\n        /* \"#utility.yul\":23725:23746   */\n      and\n        /* \"#utility.yul\":23716:23746   */\n      swap4\n      pop\n        /* \"#utility.yul\":23789:23793   */\n      dup1\n        /* \"#utility.yul\":23779:23787   */\n      dup7\n        /* \"#utility.yul\":23775:23794   */\n      and\n        /* \"#utility.yul\":23768:23773   */\n      dup5\n        /* \"#utility.yul\":23765:23795   */\n      or\n        /* \"#utility.yul\":23755:23795   */\n      swap3\n      pop\n        /* \"#utility.yul\":23484:23801   */\n      pop\n      pop\n        /* \"#utility.yul\":23408:23801   */\n      swap4\n      swap3\n      pop\n      pop\n      pop\n      jump\t// out\n        /* \"#utility.yul\":23807:23867   */\n    tag_220:\n        /* \"#utility.yul\":23835:23838   */\n      0x00\n        /* \"#utility.yul\":23856:23861   */\n      dup2\n        /* \"#utility.yul\":23849:23861   */\n      swap1\n      pop\n        /* \"#utility.yul\":23807:23867   */\n      swap2\n      swap1\n      pop\n      jump\t// out\n        /* \"#utility.yul\":23873:24015   */\n    tag_221:\n        /* \"#utility.yul\":23923:23932   */\n      0x00\n        /* \"#utility.yul\":23956:24009   */\n      tag_445\n        /* \"#utility.yul\":23974:24008   */\n      tag_446\n        /* \"#utility.yul\":23983:24007   */\n      tag_447\n        /* \"#utility.yul\":24001:24006   */\n      dup5\n        /* \"#utility.yul\":23983:24007   */\n      tag_170\n      jump\t// in\n    tag_447:\n        /* \"#utility.yul\":23974:24008   */\n      tag_220\n      jump\t// in\n    tag_446:\n        /* \"#utility.yul\":23956:24009   */\n      tag_170\n      jump\t// in\n    tag_445:\n        /* \"#utility.yul\":23943:24009   */\n      swap1\n      pop\n        /* \"#utility.yul\":23873:24015   */\n      swap2\n      swap1\n      pop\n      jump\t// out\n        /* \"#utility.yul\":24021:24096   */\n    tag_222:\n        /* \"#utility.yul\":24064:24067   */\n      0x00\n        /* \"#utility.yul\":24085:24090   */\n      dup2\n        /* \"#utility.yul\":24078:24090   */\n      swap1\n      pop\n        /* \"#utility.yul\":24021:24096   */\n      swap2\n      swap1\n      pop\n      jump\t// out\n        /* \"#utility.yul\":24102:24371   */\n    tag_223:\n        /* \"#utility.yul\":24212:24251   */\n      tag_450\n        /* \"#utility.yul\":24243:24250   */\n      dup4\n        /* \"#utility.yul\":24212:24251   */\n      tag_221\n      jump\t// in\n    tag_450:\n        /* \"#utility.yul\":24273:24364   */\n      tag_451\n        /* \"#utility.yul\":24322:24363   */\n      tag_452\n        /* \"#utility.yul\":24346:24362   */\n      dup3\n        /* \"#utility.yul\":24322:24363   */\n      tag_222\n      jump\t// in\n    tag_452:\n        /* \"#utility.yul\":24314:24320   */\n      dup5\n        /* \"#utility.yul\":24307:24311   */\n      dup5\n        /* \"#utility.yul\":24301:24312   */\n      sload\n        /* \"#utility.yul\":24273:24364   */\n      tag_219\n      jump\t// in\n    tag_451:\n        /* \"#utility.yul\":24267:24271   */\n      dup3\n        /* \"#utility.yul\":24260:24365   */\n      sstore\n        /* \"#utility.yul\":24178:24371   */\n      pop\n        /* \"#utility.yul\":24102:24371   */\n      pop\n      pop\n      pop\n      jump\t// out\n        /* \"#utility.yul\":24377:24450   */\n    tag_224:\n        /* \"#utility.yul\":24422:24425   */\n      0x00\n        /* \"#utility.yul\":24377:24450   */\n      swap1\n      jump\t// out\n        /* \"#utility.yul\":24456:24645   */\n    tag_225:\n        /* \"#utility.yul\":24533:24565   */\n      tag_455\n      tag_224\n      jump\t// in\n    tag_455:\n        /* \"#utility.yul\":24574:24639   */\n      tag_456\n        /* \"#utility.yul\":24632:24638   */\n      dup2\n        /* \"#utility.yul\":24624:24630   */\n      dup5\n        /* \"#utility.yul\":24618:24622   */\n      dup5\n        /* \"#utility.yul\":24574:24639   */\n      tag_223\n      jump\t// in\n    tag_456:\n        /* \"#utility.yul\":24509:24645   */\n      pop\n        /* \"#utility.yul\":24456:24645   */\n      pop\n      pop\n      jump\t// out\n        /* \"#utility.yul\":24651:24837   */\n    tag_226:\n        /* \"#utility.yul\":24711:24831   */\n    tag_458:\n        /* \"#utility.yul\":24728:24731   */\n      dup2\n        /* \"#utility.yul\":24721:24726   */\n      dup2\n        /* \"#utility.yul\":24718:24732   */\n      lt\n        /* \"#utility.yul\":24711:24831   */\n      iszero\n      tag_460\n      jumpi\n        /* \"#utility.yul\":24782:24821   */\n      tag_461\n        /* \"#utility.yul\":24819:24820   */\n      0x00\n        /* \"#utility.yul\":24812:24817   */\n      dup3\n        /* \"#utility.yul\":24782:24821   */\n      tag_225\n      jump\t// in\n    tag_461:\n        /* \"#utility.yul\":24755:24756   */\n      0x01\n        /* \"#utility.yul\":24748:24753   */\n      dup2\n        /* \"#utility.yul\":24744:24757   */\n      add\n        /* \"#utility.yul\":24735:24757   */\n      swap1\n      pop\n        /* \"#utility.yul\":24711:24831   */\n      jump(tag_458)\n    tag_460:\n        /* \"#utility.yul\":24651:24837   */\n      pop\n      pop\n      jump\t// out\n        /* \"#utility.yul\":24843:25386   */\n    tag_227:\n        /* \"#utility.yul\":24944:24946   */\n      0x1f\n        /* \"#utility.yul\":24939:24942   */\n      dup3\n        /* \"#utility.yul\":24936:24947   */\n      gt\n        /* \"#utility.yul\":24933:25379   */\n      iszero\n      tag_463\n      jumpi\n        /* \"#utility.yul\":24978:25016   */\n      tag_464\n        /* \"#utility.yul\":25010:25015   */\n      dup2\n        /* \"#utility.yul\":24978:25016   */\n      tag_215\n      jump\t// in\n    tag_464:\n        /* \"#utility.yul\":25062:25091   */\n      tag_465\n        /* \"#utility.yul\":25080:25090   */\n      dup5\n        /* \"#utility.yul\":25062:25091   */\n      tag_217\n      jump\t// in\n    tag_465:\n        /* \"#utility.yul\":25052:25060   */\n      dup2\n        /* \"#utility.yul\":25048:25092   */\n      add\n        /* \"#utility.yul\":25245:25247   */\n      0x20\n        /* \"#utility.yul\":25233:25243   */\n      dup6\n        /* \"#utility.yul\":25230:25248   */\n      lt\n        /* \"#utility.yul\":25227:25276   */\n      iszero\n      tag_466\n      jumpi\n        /* \"#utility.yul\":25266:25274   */\n      dup2\n        /* \"#utility.yul\":25251:25274   */\n      swap1\n      pop\n        /* \"#utility.yul\":25227:25276   */\n    tag_466:\n        /* \"#utility.yul\":25289:25369   */\n      tag_467\n        /* \"#utility.yul\":25345:25367   */\n      tag_468\n        /* \"#utility.yul\":25363:25366   */\n      dup6\n        /* \"#utility.yul\":25345:25367   */\n      tag_217\n      jump\t// in\n    tag_468:\n        /* \"#utility.yul\":25335:25343   */\n      dup4\n        /* \"#utility.yul\":25331:25368   */\n      add\n        /* \"#utility.yul\":25318:25329   */\n      dup3\n        /* \"#utility.yul\":25289:25369   */\n      tag_226\n      jump\t// in\n    tag_467:\n        /* \"#utility.yul\":24948:25379   */\n      pop\n      pop\n        /* \"#utility.yul\":24933:25379   */\n    tag_463:\n        /* \"#utility.yul\":24843:25386   */\n      pop\n      pop\n      pop\n      jump\t// out\n        /* \"#utility.yul\":25392:25509   */\n    tag_228:\n        /* \"#utility.yul\":25446:25454   */\n      0x00\n        /* \"#utility.yul\":25496:25501   */\n      dup3\n        /* \"#utility.yul\":25490:25494   */\n      dup3\n        /* \"#utility.yul\":25486:25502   */\n      shr\n        /* \"#utility.yul\":25465:25502   */\n      swap1\n      pop\n        /* \"#utility.yul\":25392:25509   */\n      swap3\n      swap2\n      pop\n      pop\n      jump\t// out\n        /* \"#utility.yul\":25515:25684   */\n    tag_229:\n        /* \"#utility.yul\":25559:25565   */\n      0x00\n        /* \"#utility.yul\":25592:25643   */\n      tag_471\n        /* \"#utility.yul\":25640:25641   */\n      0x00\n        /* \"#utility.yul\":25636:25642   */\n      not\n        /* \"#utility.yul\":25628:25633   */\n      dup5\n        /* \"#utility.yul\":25625:25626   */\n      0x08\n        /* \"#utility.yul\":25621:25634   */\n      mul\n        /* \"#utility.yul\":25592:25643   */\n      tag_228\n      jump\t// in\n    tag_471:\n        /* \"#utility.yul\":25588:25644   */\n      not\n        /* \"#utility.yul\":25673:25677   */\n      dup1\n        /* \"#utility.yul\":25667:25671   */\n      dup4\n        /* \"#utility.yul\":25663:25678   */\n      and\n        /* \"#utility.yul\":25653:25678   */\n      swap2\n      pop\n        /* \"#utility.yul\":25566:25684   */\n      pop\n        /* \"#utility.yul\":25515:25684   */\n      swap3\n      swap2\n      pop\n      pop\n      jump\t// out\n        /* \"#utility.yul\":25689:25984   */\n    tag_230:\n        /* \"#utility.yul\":25765:25769   */\n      0x00\n        /* \"#utility.yul\":25911:25940   */\n      tag_473\n        /* \"#utility.yul\":25936:25939   */\n      dup4\n        /* \"#utility.yul\":25930:25934   */\n      dup4\n        /* \"#utility.yul\":25911:25940   */\n      tag_229\n      jump\t// in\n    tag_473:\n        /* \"#utility.yul\":25903:25940   */\n      swap2\n      pop\n        /* \"#utility.yul\":25973:25976   */\n      dup3\n        /* \"#utility.yul\":25970:25971   */\n      0x02\n        /* \"#utility.yul\":25966:25977   */\n      mul\n        /* \"#utility.yul\":25960:25964   */\n      dup3\n        /* \"#utility.yul\":25957:25978   */\n      or\n        /* \"#utility.yul\":25949:25978   */\n      swap1\n      pop\n        /* \"#utility.yul\":25689:25984   */\n      swap3\n      swap2\n      pop\n      pop\n      jump\t// out\n        /* \"#utility.yul\":25989:27452   */\n    tag_45:\n        /* \"#utility.yul\":26104:26107   */\n      dup2\n        /* \"#utility.yul\":26098:26102   */\n      dup2\n        /* \"#utility.yul\":26095:26108   */\n      sub\n        /* \"#utility.yul\":26092:26118   */\n      tag_475\n      jumpi\n        /* \"#utility.yul\":26111:26116   */\n      pop\n      pop\n      jump(tag_474)\n        /* \"#utility.yul\":26092:26118   */\n    tag_475:\n        /* \"#utility.yul\":26142:26180   */\n      tag_476\n        /* \"#utility.yul\":26176:26179   */\n      dup3\n        /* \"#utility.yul\":26142:26180   */\n      tag_214\n      jump\t// in\n    tag_476:\n        /* \"#utility.yul\":26245:26263   */\n      0xffffffffffffffff\n        /* \"#utility.yul\":26237:26243   */\n      dup2\n        /* \"#utility.yul\":26234:26264   */\n      gt\n        /* \"#utility.yul\":26231:26287   */\n      iszero\n      tag_477\n      jumpi\n        /* \"#utility.yul\":26267:26285   */\n      tag_478\n      tag_176\n      jump\t// in\n    tag_478:\n        /* \"#utility.yul\":26231:26287   */\n    tag_477:\n        /* \"#utility.yul\":26311:26349   */\n      tag_479\n        /* \"#utility.yul\":26343:26347   */\n      dup3\n        /* \"#utility.yul\":26337:26348   */\n      sload\n        /* \"#utility.yul\":26311:26349   */\n      tag_48\n      jump\t// in\n    tag_479:\n        /* \"#utility.yul\":26396:26463   */\n      tag_480\n        /* \"#utility.yul\":26456:26462   */\n      dup3\n        /* \"#utility.yul\":26448:26454   */\n      dup3\n        /* \"#utility.yul\":26442:26446   */\n      dup6\n        /* \"#utility.yul\":26396:26463   */\n      tag_227\n      jump\t// in\n    tag_480:\n        /* \"#utility.yul\":26490:26491   */\n      0x00\n        /* \"#utility.yul\":26519:26521   */\n      0x1f\n        /* \"#utility.yul\":26511:26517   */\n      dup4\n        /* \"#utility.yul\":26508:26522   */\n      gt\n        /* \"#utility.yul\":26536:26537   */\n      0x01\n        /* \"#utility.yul\":26531:27207   */\n      dup2\n      eq\n      tag_482\n      jumpi\n        /* \"#utility.yul\":27251:27252   */\n      0x00\n        /* \"#utility.yul\":27268:27274   */\n      dup5\n        /* \"#utility.yul\":27265:27342   */\n      iszero\n      tag_483\n      jumpi\n        /* \"#utility.yul\":27317:27326   */\n      dup3\n        /* \"#utility.yul\":27312:27315   */\n      dup8\n        /* \"#utility.yul\":27308:27327   */\n      add\n        /* \"#utility.yul\":27302:27328   */\n      sload\n        /* \"#utility.yul\":27293:27328   */\n      swap1\n      pop\n        /* \"#utility.yul\":27265:27342   */\n    tag_483:\n        /* \"#utility.yul\":27368:27435   */\n      tag_484\n        /* \"#utility.yul\":27428:27434   */\n      dup6\n        /* \"#utility.yul\":27421:27426   */\n      dup3\n        /* \"#utility.yul\":27368:27435   */\n      tag_230\n      jump\t// in\n    tag_484:\n        /* \"#utility.yul\":27362:27366   */\n      dup7\n        /* \"#utility.yul\":27355:27436   */\n      sstore\n        /* \"#utility.yul\":27224:27446   */\n      pop\n        /* \"#utility.yul\":26501:27446   */\n      jump(tag_481)\n        /* \"#utility.yul\":26531:27207   */\n    tag_482:\n        /* \"#utility.yul\":26583:26587   */\n      0x1f\n        /* \"#utility.yul\":26579:26588   */\n      not\n        /* \"#utility.yul\":26571:26577   */\n      dup5\n        /* \"#utility.yul\":26567:26589   */\n      and\n        /* \"#utility.yul\":26609:26649   */\n      tag_485\n        /* \"#utility.yul\":26645:26648   */\n      dup8\n        /* \"#utility.yul\":26609:26649   */\n      tag_216\n      jump\t// in\n    tag_485:\n        /* \"#utility.yul\":26602:26649   */\n      swap7\n      pop\n        /* \"#utility.yul\":26676:26713   */\n      tag_486\n        /* \"#utility.yul\":26708:26712   */\n      dup7\n        /* \"#utility.yul\":26676:26713   */\n      tag_215\n      jump\t// in\n    tag_486:\n        /* \"#utility.yul\":26735:26736   */\n      0x00\n        /* \"#utility.yul\":26749:26956   */\n    tag_487:\n        /* \"#utility.yul\":26763:26770   */\n      dup3\n        /* \"#utility.yul\":26760:26761   */\n      dup2\n        /* \"#utility.yul\":26757:26771   */\n      lt\n        /* \"#utility.yul\":26749:26956   */\n      iszero\n      tag_489\n      jumpi\n        /* \"#utility.yul\":26842:26851   */\n      dup5\n        /* \"#utility.yul\":26837:26840   */\n      dup10\n        /* \"#utility.yul\":26833:26852   */\n      add\n        /* \"#utility.yul\":26827:26853   */\n      sload\n        /* \"#utility.yul\":26819:26825   */\n      dup3\n        /* \"#utility.yul\":26812:26854   */\n      sstore\n        /* \"#utility.yul\":26893:26894   */\n      0x01\n        /* \"#utility.yul\":26885:26891   */\n      dup3\n        /* \"#utility.yul\":26881:26895   */\n      add\n        /* \"#utility.yul\":26871:26895   */\n      swap2\n      pop\n        /* \"#utility.yul\":26940:26941   */\n      0x01\n        /* \"#utility.yul\":26929:26938   */\n      dup6\n        /* \"#utility.yul\":26925:26942   */\n      add\n        /* \"#utility.yul\":26912:26942   */\n      swap5\n      pop\n        /* \"#utility.yul\":26786:26790   */\n      0x20\n        /* \"#utility.yul\":26783:26784   */\n      dup2\n        /* \"#utility.yul\":26779:26791   */\n      add\n        /* \"#utility.yul\":26774:26791   */\n      swap1\n      pop\n        /* \"#utility.yul\":26749:26956   */\n      jump(tag_487)\n    tag_489:\n        /* \"#utility.yul\":26984:26990   */\n      dup7\n        /* \"#utility.yul\":26975:26982   */\n      dup4\n        /* \"#utility.yul\":26972:26991   */\n      lt\n        /* \"#utility.yul\":26969:27148   */\n      iszero\n      tag_490\n      jumpi\n        /* \"#utility.yul\":27042:27051   */\n      dup5\n        /* \"#utility.yul\":27037:27040   */\n      dup10\n        /* \"#utility.yul\":27033:27052   */\n      add\n        /* \"#utility.yul\":27027:27053   */\n      sload\n        /* \"#utility.yul\":27085:27133   */\n      tag_491\n        /* \"#utility.yul\":27127:27131   */\n      0x1f\n        /* \"#utility.yul\":27119:27125   */\n      dup10\n        /* \"#utility.yul\":27115:27132   */\n      and\n        /* \"#utility.yul\":27104:27113   */\n      dup3\n        /* \"#utility.yul\":27085:27133   */\n      tag_229\n      jump\t// in\n    tag_491:\n        /* \"#utility.yul\":27077:27083   */\n      dup4\n        /* \"#utility.yul\":27070:27134   */\n      sstore\n        /* \"#utility.yul\":26992:27148   */\n      pop\n        /* \"#utility.yul\":26969:27148   */\n    tag_490:\n        /* \"#utility.yul\":27194:27195   */\n      0x01\n        /* \"#utility.yul\":27190:27191   */\n      0x02\n        /* \"#utility.yul\":27182:27188   */\n      dup9\n        /* \"#utility.yul\":27178:27192   */\n      mul\n        /* \"#utility.yul\":27174:27196   */\n      add\n        /* \"#utility.yul\":27168:27172   */\n      dup9\n        /* \"#utility.yul\":27161:27197   */\n      sstore\n        /* \"#utility.yul\":26538:27207   */\n      pop\n      pop\n      pop\n        /* \"#utility.yul\":26501:27446   */\n    tag_481:\n      pop\n        /* \"#utility.yul\":26082:27452   */\n      pop\n      pop\n      pop\n        /* \"#utility.yul\":25989:27452   */\n      pop\n      pop\n    tag_474:\n      jump\t// out\n        /* \"#utility.yul\":27458:28853   */\n    tag_55:\n        /* \"#utility.yul\":27575:27612   */\n      tag_493\n        /* \"#utility.yul\":27608:27611   */\n      dup3\n        /* \"#utility.yul\":27575:27612   */\n      tag_185\n      jump\t// in\n    tag_493:\n        /* \"#utility.yul\":27677:27695   */\n      0xffffffffffffffff\n        /* \"#utility.yul\":27669:27675   */\n      dup2\n        /* \"#utility.yul\":27666:27696   */\n      gt\n        /* \"#utility.yul\":27663:27719   */\n      iszero\n      tag_494\n      jumpi\n        /* \"#utility.yul\":27699:27717   */\n      tag_495\n      tag_176\n      jump\t// in\n    tag_495:\n        /* \"#utility.yul\":27663:27719   */\n    tag_494:\n        /* \"#utility.yul\":27743:27781   */\n      tag_496\n        /* \"#utility.yul\":27775:27779   */\n      dup3\n        /* \"#utility.yul\":27769:27780   */\n      sload\n        /* \"#utility.yul\":27743:27781   */\n      tag_48\n      jump\t// in\n    tag_496:\n        /* \"#utility.yul\":27828:27895   */\n      tag_497\n        /* \"#utility.yul\":27888:27894   */\n      dup3\n        /* \"#utility.yul\":27880:27886   */\n      dup3\n        /* \"#utility.yul\":27874:27878   */\n      dup6\n        /* \"#utility.yul\":27828:27895   */\n      tag_227\n      jump\t// in\n    tag_497:\n        /* \"#utility.yul\":27922:27923   */\n      0x00\n        /* \"#utility.yul\":27946:27950   */\n      0x20\n        /* \"#utility.yul\":27933:27950   */\n      swap1\n      pop\n        /* \"#utility.yul\":27978:27980   */\n      0x1f\n        /* \"#utility.yul\":27970:27976   */\n      dup4\n        /* \"#utility.yul\":27967:27981   */\n      gt\n        /* \"#utility.yul\":27995:27996   */\n      0x01\n        /* \"#utility.yul\":27990:28608   */\n      dup2\n      eq\n      tag_499\n      jumpi\n        /* \"#utility.yul\":28652:28653   */\n      0x00\n        /* \"#utility.yul\":28669:28675   */\n      dup5\n        /* \"#utility.yul\":28666:28743   */\n      iszero\n      tag_500\n      jumpi\n        /* \"#utility.yul\":28718:28727   */\n      dup3\n        /* \"#utility.yul\":28713:28716   */\n      dup8\n        /* \"#utility.yul\":28709:28728   */\n      add\n        /* \"#utility.yul\":28703:28729   */\n      mload\n        /* \"#utility.yul\":28694:28729   */\n      swap1\n      pop\n        /* \"#utility.yul\":28666:28743   */\n    tag_500:\n        /* \"#utility.yul\":28769:28836   */\n      tag_501\n        /* \"#utility.yul\":28829:28835   */\n      dup6\n        /* \"#utility.yul\":28822:28827   */\n      dup3\n        /* \"#utility.yul\":28769:28836   */\n      tag_230\n      jump\t// in\n    tag_501:\n        /* \"#utility.yul\":28763:28767   */\n      dup7\n        /* \"#utility.yul\":28756:28837   */\n      sstore\n        /* \"#utility.yul\":28625:28847   */\n      pop\n        /* \"#utility.yul\":27960:28847   */\n      jump(tag_498)\n        /* \"#utility.yul\":27990:28608   */\n    tag_499:\n        /* \"#utility.yul\":28042:28046   */\n      0x1f\n        /* \"#utility.yul\":28038:28047   */\n      not\n        /* \"#utility.yul\":28030:28036   */\n      dup5\n        /* \"#utility.yul\":28026:28048   */\n      and\n        /* \"#utility.yul\":28076:28113   */\n      tag_502\n        /* \"#utility.yul\":28108:28112   */\n      dup7\n        /* \"#utility.yul\":28076:28113   */\n      tag_215\n      jump\t// in\n    tag_502:\n        /* \"#utility.yul\":28135:28136   */\n      0x00\n        /* \"#utility.yul\":28149:28357   */\n    tag_503:\n        /* \"#utility.yul\":28163:28170   */\n      dup3\n        /* \"#utility.yul\":28160:28161   */\n      dup2\n        /* \"#utility.yul\":28157:28171   */\n      lt\n        /* \"#utility.yul\":28149:28357   */\n      iszero\n      tag_505\n      jumpi\n        /* \"#utility.yul\":28242:28251   */\n      dup5\n        /* \"#utility.yul\":28237:28240   */\n      dup10\n        /* \"#utility.yul\":28233:28252   */\n      add\n        /* \"#utility.yul\":28227:28253   */\n      mload\n        /* \"#utility.yul\":28219:28225   */\n      dup3\n        /* \"#utility.yul\":28212:28254   */\n      sstore\n        /* \"#utility.yul\":28293:28294   */\n      0x01\n        /* \"#utility.yul\":28285:28291   */\n      dup3\n        /* \"#utility.yul\":28281:28295   */\n      add\n        /* \"#utility.yul\":28271:28295   */\n      swap2\n      pop\n        /* \"#utility.yul\":28340:28342   */\n      0x20\n        /* \"#utility.yul\":28329:28338   */\n      dup6\n        /* \"#utility.yul\":28325:28343   */\n      add\n        /* \"#utility.yul\":28312:28343   */\n      swap5\n      pop\n        /* \"#utility.yul\":28186:28190   */\n      0x20\n        /* \"#utility.yul\":28183:28184   */\n      dup2\n        /* \"#utility.yul\":28179:28191   */\n      add\n        /* \"#utility.yul\":28174:28191   */\n      swap1\n      pop\n        /* \"#utility.yul\":28149:28357   */\n      jump(tag_503)\n    tag_505:\n        /* \"#utility.yul\":28385:28391   */\n      dup7\n        /* \"#utility.yul\":28376:28383   */\n      dup4\n        /* \"#utility.yul\":28373:28392   */\n      lt\n        /* \"#utility.yul\":28370:28549   */\n      iszero\n      tag_506\n      jumpi\n        /* \"#utility.yul\":28443:28452   */\n      dup5\n        /* \"#utility.yul\":28438:28441   */\n      dup10\n        /* \"#utility.yul\":28434:28453   */\n      add\n        /* \"#utility.yul\":28428:28454   */\n      mload\n        /* \"#utility.yul\":28486:28534   */\n      tag_507\n        /* \"#utility.yul\":28528:28532   */\n      0x1f\n        /* \"#utility.yul\":28520:28526   */\n      dup10\n        /* \"#utility.yul\":28516:28533   */\n      and\n        /* \"#utility.yul\":28505:28514   */\n      dup3\n        /* \"#utility.yul\":28486:28534   */\n      tag_229\n      jump\t// in\n    tag_507:\n        /* \"#utility.yul\":28478:28484   */\n      dup4\n        /* \"#utility.yul\":28471:28535   */\n      sstore\n        /* \"#utility.yul\":28393:28549   */\n      pop\n        /* \"#utility.yul\":28370:28549   */\n    tag_506:\n        /* \"#utility.yul\":28595:28596   */\n      0x01\n        /* \"#utility.yul\":28591:28592   */\n      0x02\n        /* \"#utility.yul\":28583:28589   */\n      dup9\n        /* \"#utility.yul\":28579:28593   */\n      mul\n        /* \"#utility.yul\":28575:28597   */\n      add\n        /* \"#utility.yul\":28569:28573   */\n      dup9\n        /* \"#utility.yul\":28562:28598   */\n      sstore\n        /* \"#utility.yul\":27997:28608   */\n      pop\n      pop\n      pop\n        /* \"#utility.yul\":27960:28847   */\n    tag_498:\n      pop\n        /* \"#utility.yul\":27550:28853   */\n      pop\n      pop\n      pop\n        /* \"#utility.yul\":27458:28853   */\n      pop\n      pop\n      jump\t// out\n        /* \"#utility.yul\":28859:30376   */\n    tag_127:\n        /* \"#utility.yul\":29335:29338   */\n      0x00\n        /* \"#utility.yul\":29350:29425   */\n      tag_509\n        /* \"#utility.yul\":29421:29424   */\n      dup3\n        /* \"#utility.yul\":29412:29418   */\n      dup13\n        /* \"#utility.yul\":29350:29425   */\n      tag_204\n      jump\t// in\n    tag_509:\n        /* \"#utility.yul\":29450:29452   */\n      0x20\n        /* \"#utility.yul\":29445:29448   */\n      dup3\n        /* \"#utility.yul\":29441:29453   */\n      add\n        /* \"#utility.yul\":29434:29453   */\n      swap2\n      pop\n        /* \"#utility.yul\":29470:29565   */\n      tag_510\n        /* \"#utility.yul\":29561:29564   */\n      dup3\n        /* \"#utility.yul\":29552:29558   */\n      dup12\n        /* \"#utility.yul\":29470:29565   */\n      tag_208\n      jump\t// in\n    tag_510:\n        /* \"#utility.yul\":29463:29565   */\n      swap2\n      pop\n        /* \"#utility.yul\":29582:29677   */\n      tag_511\n        /* \"#utility.yul\":29673:29676   */\n      dup3\n        /* \"#utility.yul\":29664:29670   */\n      dup11\n        /* \"#utility.yul\":29582:29677   */\n      tag_208\n      jump\t// in\n    tag_511:\n        /* \"#utility.yul\":29575:29677   */\n      swap2\n      pop\n        /* \"#utility.yul\":29694:29789   */\n      tag_512\n        /* \"#utility.yul\":29785:29788   */\n      dup3\n        /* \"#utility.yul\":29776:29782   */\n      dup10\n        /* \"#utility.yul\":29694:29789   */\n      tag_208\n      jump\t// in\n    tag_512:\n        /* \"#utility.yul\":29687:29789   */\n      swap2\n      pop\n        /* \"#utility.yul\":29799:29874   */\n      tag_513\n        /* \"#utility.yul\":29870:29873   */\n      dup3\n        /* \"#utility.yul\":29861:29867   */\n      dup9\n        /* \"#utility.yul\":29799:29874   */\n      tag_204\n      jump\t// in\n    tag_513:\n        /* \"#utility.yul\":29899:29901   */\n      0x20\n        /* \"#utility.yul\":29894:29897   */\n      dup3\n        /* \"#utility.yul\":29890:29902   */\n      add\n        /* \"#utility.yul\":29883:29902   */\n      swap2\n      pop\n        /* \"#utility.yul\":29919:30014   */\n      tag_514\n        /* \"#utility.yul\":30010:30013   */\n      dup3\n        /* \"#utility.yul\":30001:30007   */\n      dup8\n        /* \"#utility.yul\":29919:30014   */\n      tag_208\n      jump\t// in\n    tag_514:\n        /* \"#utility.yul\":29912:30014   */\n      swap2\n      pop\n        /* \"#utility.yul\":30031:30126   */\n      tag_515\n        /* \"#utility.yul\":30122:30125   */\n      dup3\n        /* \"#utility.yul\":30113:30119   */\n      dup7\n        /* \"#utility.yul\":30031:30126   */\n      tag_208\n      jump\t// in\n    tag_515:\n        /* \"#utility.yul\":30024:30126   */\n      swap2\n      pop\n        /* \"#utility.yul\":30143:30238   */\n      tag_516\n        /* \"#utility.yul\":30234:30237   */\n      dup3\n        /* \"#utility.yul\":30225:30231   */\n      dup6\n        /* \"#utility.yul\":30143:30238   */\n      tag_208\n      jump\t// in\n    tag_516:\n        /* \"#utility.yul\":30136:30238   */\n      swap2\n      pop\n        /* \"#utility.yul\":30255:30350   */\n      tag_517\n        /* \"#utility.yul\":30346:30349   */\n      dup3\n        /* \"#utility.yul\":30337:30343   */\n      dup5\n        /* \"#utility.yul\":30255:30350   */\n      tag_208\n      jump\t// in\n    tag_517:\n        /* \"#utility.yul\":30248:30350   */\n      swap2\n      pop\n        /* \"#utility.yul\":30367:30370   */\n      dup2\n        /* \"#utility.yul\":30360:30370   */\n      swap1\n      pop\n        /* \"#utility.yul\":28859:30376   */\n      swap11\n      swap10\n      pop\n      pop\n      pop\n      pop\n      pop\n      pop\n      pop\n      pop\n      pop\n      pop\n      jump\t// out\n        /* \"#utility.yul\":30382:30554   */\n    tag_231:\n        /* \"#utility.yul\":30522:30546   */\n      0x50726f6475637420616c72656164792065786973747300000000000000000000\n        /* \"#utility.yul\":30518:30519   */\n      0x00\n        /* \"#utility.yul\":30510:30516   */\n      dup3\n        /* \"#utility.yul\":30506:30520   */\n      add\n        /* \"#utility.yul\":30499:30547   */\n      mstore\n        /* \"#utility.yul\":30382:30554   */\n      pop\n      jump\t// out\n        /* \"#utility.yul\":30560:30926   */\n    tag_232:\n        /* \"#utility.yul\":30702:30705   */\n      0x00\n        /* \"#utility.yul\":30723:30790   */\n      tag_520\n        /* \"#utility.yul\":30787:30789   */\n      0x16\n        /* \"#utility.yul\":30782:30785   */\n      dup4\n        /* \"#utility.yul\":30723:30790   */\n      tag_200\n      jump\t// in\n    tag_520:\n        /* \"#utility.yul\":30716:30790   */\n      swap2\n      pop\n        /* \"#utility.yul\":30799:30892   */\n      tag_521\n        /* \"#utility.yul\":30888:30891   */\n      dup3\n        /* \"#utility.yul\":30799:30892   */\n      tag_231\n      jump\t// in\n    tag_521:\n        /* \"#utility.yul\":30917:30919   */\n      0x20\n        /* \"#utility.yul\":30912:30915   */\n      dup3\n        /* \"#utility.yul\":30908:30920   */\n      add\n        /* \"#utility.yul\":30901:30920   */\n      swap1\n      pop\n        /* \"#utility.yul\":30560:30926   */\n      swap2\n      swap1\n      pop\n      jump\t// out\n        /* \"#utility.yul\":30932:31351   */\n    tag_130:\n        /* \"#utility.yul\":31098:31102   */\n      0x00\n        /* \"#utility.yul\":31136:31138   */\n      0x20\n        /* \"#utility.yul\":31125:31134   */\n      dup3\n        /* \"#utility.yul\":31121:31139   */\n      add\n        /* \"#utility.yul\":31113:31139   */\n      swap1\n      pop\n        /* \"#utility.yul\":31185:31194   */\n      dup2\n        /* \"#utility.yul\":31179:31183   */\n      dup2\n        /* \"#utility.yul\":31175:31195   */\n      sub\n        /* \"#utility.yul\":31171:31172   */\n      0x00\n        /* \"#utility.yul\":31160:31169   */\n      dup4\n        /* \"#utility.yul\":31156:31173   */\n      add\n        /* \"#utility.yul\":31149:31196   */\n      mstore\n        /* \"#utility.yul\":31213:31344   */\n      tag_523\n        /* \"#utility.yul\":31339:31343   */\n      dup2\n        /* \"#utility.yul\":31213:31344   */\n      tag_232\n      jump\t// in\n    tag_523:\n        /* \"#utility.yul\":31205:31344   */\n      swap1\n      pop\n        /* \"#utility.yul\":30932:31351   */\n      swap2\n      swap1\n      pop\n      jump\t// out\n        /* \"#utility.yul\":31357:31506   */\n    tag_233:\n        /* \"#utility.yul\":31406:31412   */\n      0x00\n        /* \"#utility.yul\":31440:31445   */\n      dup2\n        /* \"#utility.yul\":31434:31446   */\n      sload\n        /* \"#utility.yul\":31424:31446   */\n      swap1\n      pop\n        /* \"#utility.yul\":31466:31499   */\n      tag_525\n        /* \"#utility.yul\":31492:31498   */\n      dup2\n        /* \"#utility.yul\":31466:31499   */\n      tag_48\n      jump\t// in\n    tag_525:\n        /* \"#utility.yul\":31456:31499   */\n      swap1\n      pop\n        /* \"#utility.yul\":31357:31506   */\n      swap2\n      swap1\n      pop\n      jump\t// out\n        /* \"#utility.yul\":31512:32963   */\n    tag_145:\n        /* \"#utility.yul\":31623:31626   */\n      dup2\n        /* \"#utility.yul\":31617:31621   */\n      dup2\n        /* \"#utility.yul\":31614:31627   */\n      sub\n        /* \"#utility.yul\":31611:31637   */\n      tag_527\n      jumpi\n        /* \"#utility.yul\":31630:31635   */\n      pop\n      pop\n      jump(tag_526)\n        /* \"#utility.yul\":31611:31637   */\n    tag_527:\n        /* \"#utility.yul\":31661:31695   */\n      tag_528\n        /* \"#utility.yul\":31691:31694   */\n      dup3\n        /* \"#utility.yul\":31661:31695   */\n      tag_233\n      jump\t// in\n    tag_528:\n        /* \"#utility.yul\":31760:31778   */\n      0xffffffffffffffff\n        /* \"#utility.yul\":31752:31758   */\n      dup2\n        /* \"#utility.yul\":31749:31779   */\n      gt\n        /* \"#utility.yul\":31746:31802   */\n      iszero\n      tag_529\n      jumpi\n        /* \"#utility.yul\":31782:31800   */\n      tag_530\n      tag_176\n      jump\t// in\n    tag_530:\n        /* \"#utility.yul\":31746:31802   */\n    tag_529:\n        /* \"#utility.yul\":31826:31864   */\n      tag_531\n        /* \"#utility.yul\":31858:31862   */\n      dup3\n        /* \"#utility.yul\":31852:31863   */\n      sload\n        /* \"#utility.yul\":31826:31864   */\n      tag_48\n      jump\t// in\n    tag_531:\n        /* \"#utility.yul\":31911:31978   */\n      tag_532\n        /* \"#utility.yul\":31971:31977   */\n      dup3\n        /* \"#utility.yul\":31963:31969   */\n      dup3\n        /* \"#utility.yul\":31957:31961   */\n      dup6\n        /* \"#utility.yul\":31911:31978   */\n      tag_227\n      jump\t// in\n    tag_532:\n        /* \"#utility.yul\":32005:32006   */\n      0x00\n        /* \"#utility.yul\":32034:32036   */\n      0x1f\n        /* \"#utility.yul\":32026:32032   */\n      dup4\n        /* \"#utility.yul\":32023:32037   */\n      gt\n        /* \"#utility.yul\":32051:32052   */\n      0x01\n        /* \"#utility.yul\":32046:32718   */\n      dup2\n      eq\n      tag_534\n      jumpi\n        /* \"#utility.yul\":32762:32763   */\n      0x00\n        /* \"#utility.yul\":32779:32785   */\n      dup5\n        /* \"#utility.yul\":32776:32853   */\n      iszero\n      tag_535\n      jumpi\n        /* \"#utility.yul\":32828:32837   */\n      dup3\n        /* \"#utility.yul\":32823:32826   */\n      dup8\n        /* \"#utility.yul\":32819:32838   */\n      add\n        /* \"#utility.yul\":32813:32839   */\n      sload\n        /* \"#utility.yul\":32804:32839   */\n      swap1\n      pop\n        /* \"#utility.yul\":32776:32853   */\n    tag_535:\n        /* \"#utility.yul\":32879:32946   */\n      tag_536\n        /* \"#utility.yul\":32939:32945   */\n      dup6\n        /* \"#utility.yul\":32932:32937   */\n      dup3\n        /* \"#utility.yul\":32879:32946   */\n      tag_230\n      jump\t// in\n    tag_536:\n        /* \"#utility.yul\":32873:32877   */\n      dup7\n        /* \"#utility.yul\":32866:32947   */\n      sstore\n        /* \"#utility.yul\":32735:32957   */\n      pop\n        /* \"#utility.yul\":32016:32957   */\n      jump(tag_533)\n        /* \"#utility.yul\":32046:32718   */\n    tag_534:\n        /* \"#utility.yul\":32098:32102   */\n      0x1f\n        /* \"#utility.yul\":32094:32103   */\n      not\n        /* \"#utility.yul\":32086:32092   */\n      dup5\n        /* \"#utility.yul\":32082:32104   */\n      and\n        /* \"#utility.yul\":32124:32160   */\n      tag_537\n        /* \"#utility.yul\":32156:32159   */\n      dup8\n        /* \"#utility.yul\":32124:32160   */\n      tag_215\n      jump\t// in\n    tag_537:\n        /* \"#utility.yul\":32117:32160   */\n      swap7\n      pop\n        /* \"#utility.yul\":32187:32224   */\n      tag_538\n        /* \"#utility.yul\":32219:32223   */\n      dup7\n        /* \"#utility.yul\":32187:32224   */\n      tag_215\n      jump\t// in\n    tag_538:\n        /* \"#utility.yul\":32246:32247   */\n      0x00\n        /* \"#utility.yul\":32260:32467   */\n    tag_539:\n        /* \"#utility.yul\":32274:32281   */\n      dup3\n        /* \"#utility.yul\":32271:32272   */\n      dup2\n        /* \"#utility.yul\":32268:32282   */\n      lt\n        /* \"#utility.yul\":32260:32467   */\n      iszero\n      tag_541\n      jumpi\n        /* \"#utility.yul\":32353:32362   */\n      dup5\n        /* \"#utility.yul\":32348:32351   */\n      dup10\n        /* \"#utility.yul\":32344:32363   */\n      add\n        /* \"#utility.yul\":32338:32364   */\n      sload\n        /* \"#utility.yul\":32330:32336   */\n      dup3\n        /* \"#utility.yul\":32323:32365   */\n      sstore\n        /* \"#utility.yul\":32404:32405   */\n      0x01\n        /* \"#utility.yul\":32396:32402   */\n      dup3\n        /* \"#utility.yul\":32392:32406   */\n      add\n        /* \"#utility.yul\":32382:32406   */\n      swap2\n      pop\n        /* \"#utility.yul\":32451:32452   */\n      0x01\n        /* \"#utility.yul\":32440:32449   */\n      dup6\n        /* \"#utility.yul\":32436:32453   */\n      add\n        /* \"#utility.yul\":32423:32453   */\n      swap5\n      pop\n        /* \"#utility.yul\":32297:32301   */\n      0x20\n        /* \"#utility.yul\":32294:32295   */\n      dup2\n        /* \"#utility.yul\":32290:32302   */\n      add\n        /* \"#utility.yul\":32285:32302   */\n      swap1\n      pop\n        /* \"#utility.yul\":32260:32467   */\n      jump(tag_539)\n    tag_541:\n        /* \"#utility.yul\":32495:32501   */\n      dup7\n        /* \"#utility.yul\":32486:32493   */\n      dup4\n        /* \"#utility.yul\":32483:32502   */\n      lt\n        /* \"#utility.yul\":32480:32659   */\n      iszero\n      tag_542\n      jumpi\n        /* \"#utility.yul\":32553:32562   */\n      dup5\n        /* \"#utility.yul\":32548:32551   */\n      dup10\n        /* \"#utility.yul\":32544:32563   */\n      add\n        /* \"#utility.yul\":32538:32564   */\n      sload\n        /* \"#utility.yul\":32596:32644   */\n      tag_543\n        /* \"#utility.yul\":32638:32642   */\n      0x1f\n        /* \"#utility.yul\":32630:32636   */\n      dup10\n        /* \"#utility.yul\":32626:32643   */\n      and\n        /* \"#utility.yul\":32615:32624   */\n      dup3\n        /* \"#utility.yul\":32596:32644   */\n      tag_229\n      jump\t// in\n    tag_543:\n        /* \"#utility.yul\":32588:32594   */\n      dup4\n        /* \"#utility.yul\":32581:32645   */\n      sstore\n        /* \"#utility.yul\":32503:32659   */\n      pop\n        /* \"#utility.yul\":32480:32659   */\n    tag_542:\n        /* \"#utility.yul\":32705:32706   */\n      0x01\n        /* \"#utility.yul\":32701:32702   */\n      0x02\n        /* \"#utility.yul\":32693:32699   */\n      dup9\n        /* \"#utility.yul\":32689:32703   */\n      mul\n        /* \"#utility.yul\":32685:32707   */\n      add\n        /* \"#utility.yul\":32679:32683   */\n      dup9\n        /* \"#utility.yul\":32672:32708   */\n      sstore\n        /* \"#utility.yul\":32053:32718   */\n      pop\n      pop\n      pop\n        /* \"#utility.yul\":32016:32957   */\n    tag_533:\n      pop\n        /* \"#utility.yul\":31601:32963   */\n      pop\n      pop\n      pop\n        /* \"#utility.yul\":31512:32963   */\n      pop\n      pop\n    tag_526:\n      jump\t// out\n\n    auxdata: 0xa2646970667358221220879bfc554b7171c8936f3e6fdd9c1ec5c26bf456c20b4622bc49753ee2a387c164736f6c63430008120033\n}\n",
				"bytecode": {
					"linkReferences": {},
					"object": "608060405234801561001057600080fd5b50611f6e806100206000396000f3fe608060405234801561001057600080fd5b50600436106100415760003560e01c80632c24e37d14610046578063b74d3fb514610076578063dbda06f9146100a6575b600080fd5b610060600480360381019061005b9190611053565b6100d6565b60405161006d9190611101565b60405180910390f35b610090600480360381019061008b919061111c565b6104eb565b60405161009d91906113c0565b60405180910390f35b6100c060048036038101906100bb91906114c8565b610adc565b6040516100cd9190611101565b60405180910390f35b60008060008087815260200190815260200160002090506000816000015403610134576040517f08c379a000000000000000000000000000000000000000000000000000000000815260040161012b90611715565b60405180910390fd5b6000808551118015610147575060008451115b15610180578587858760405160200161016394939291906117b3565b604051602081830303815290604052805190602001209050610235565b6000855111156101bc5785878660405160200161019f939291906117f9565b604051602081830303815290604052805190602001209050610234565b6000845111156101f8578587856040516020016101db939291906117f9565b604051602081830303815290604052805190602001209050610233565b6040517f08c379a000000000000000000000000000000000000000000000000000000000815260040161022a906118a4565b60405180910390fd5b5b5b6000806000838152602001908152602001600020600001541461028d576040517f08c379a000000000000000000000000000000000000000000000000000000000815260040161028490611936565b60405180910390fd5b6000806000838152602001908152602001600020905082600001548160000181905550826001018160010190816102c49190611b8d565b506000855111610360578260020180546102dd90611985565b80601f016020809104026020016040519081016040528092919081815260200182805461030990611985565b80156103565780601f1061032b57610100808354040283529160200191610356565b820191906000526020600020905b81548152906001019060200180831161033957829003601f168201915b5050505050610362565b845b8160020190816103729190611c75565b50600086511161040e5782600301805461038b90611985565b80601f01602080910402602001604051908101604052809291908181526020018280546103b790611985565b80156104045780601f106103d957610100808354040283529160200191610404565b820191906000526020600020905b8154815290600101906020018083116103e757829003601f168201915b5050505050610410565b855b8160030190816104209190611c75565b5082600401548160040181905550826005018160050190816104429190611b8d565b50826008018160080190816104579190611b8d565b508260060181600601908161046c9190611b8d565b50826007018160070190816104819190611b8d565b508260090181600901908054610498929190610cfc565b5082600a0181600a019080546104af929190610cfc565b50817f6c2de183f2a2faf4876f357e3c75bf6e6e7aa4dd120e8b5e1bdb2901e085f69c60405160405180910390a2819350505050949350505050565b6104f3610d59565b600080838152602001908152602001600020604051806101600160405290816000820154815260200160018201805461052b90611985565b80601f016020809104026020016040519081016040528092919081815260200182805461055790611985565b80156105a45780601f10610579576101008083540402835291602001916105a4565b820191906000526020600020905b81548152906001019060200180831161058757829003601f168201915b505050505081526020016002820180546105bd90611985565b80601f01602080910402602001604051908101604052809291908181526020018280546105e990611985565b80156106365780601f1061060b57610100808354040283529160200191610636565b820191906000526020600020905b81548152906001019060200180831161061957829003601f168201915b5050505050815260200160038201805461064f90611985565b80601f016020809104026020016040519081016040528092919081815260200182805461067b90611985565b80156106c85780601f1061069d576101008083540402835291602001916106c8565b820191906000526020600020905b8154815290600101906020018083116106ab57829003601f168201915b50505050508152602001600482015481526020016005820180546106eb90611985565b80601f016020809104026020016040519081016040528092919081815260200182805461071790611985565b80156107645780601f1061073957610100808354040283529160200191610764565b820191906000526020600020905b81548152906001019060200180831161074757829003601f168201915b5050505050815260200160068201805461077d90611985565b80601f01602080910402602001604051908101604052809291908181526020018280546107a990611985565b80156107f65780601f106107cb576101008083540402835291602001916107f6565b820191906000526020600020905b8154815290600101906020018083116107d957829003601f168201915b5050505050815260200160078201805461080f90611985565b80601f016020809104026020016040519081016040528092919081815260200182805461083b90611985565b80156108885780601f1061085d57610100808354040283529160200191610888565b820191906000526020600020905b81548152906001019060200180831161086b57829003601f168201915b505050505081526020016008820180546108a190611985565b80601f01602080910402602001604051908101604052809291908181526020018280546108cd90611985565b801561091a5780601f106108ef5761010080835404028352916020019161091a565b820191906000526020600020905b8154815290600101906020018083116108fd57829003601f168201915b5050505050815260200160098201805480602002602001604051908101604052809291908181526020016000905b828210156109f457838290600052602060002001805461096790611985565b80601f016020809104026020016040519081016040528092919081815260200182805461099390611985565b80156109e05780601f106109b5576101008083540402835291602001916109e0565b820191906000526020600020905b8154815290600101906020018083116109c357829003601f168201915b505050505081526020019060010190610948565b505050508152602001600a8201805480602002602001604051908101604052809291908181526020016000905b82821015610acd578382906000526020600020018054610a4090611985565b80601f0160208091040260200160405190810160405280929190818152602001828054610a6c90611985565b8015610ab95780601f10610a8e57610100808354040283529160200191610ab9565b820191906000526020600020905b815481529060010190602001808311610a9c57829003601f168201915b505050505081526020019060010190610a21565b50505050815250509050919050565b6000808c8c8c8c8c8c8c8c8c604051602001610b0099989796959493929190611d47565b60405160208183030381529060405280519060200120905060008060008381526020019081526020016000206000015414610b70576040517f08c379a0000000000000000000000000000000000000000000000000000000008152600401610b6790611e1a565b60405180910390fd5b6040518061016001604052808e81526020018d81526020018c81526020018b81526020018a815260200189815260200188815260200187815260200186815260200185815260200184815250600080838152602001908152602001600020600082015181600001556020820151816001019081610bed9190611c75565b506040820151816002019081610c039190611c75565b506060820151816003019081610c199190611c75565b506080820151816004015560a0820151816005019081610c399190611c75565b5060c0820151816006019081610c4f9190611c75565b5060e0820151816007019081610c659190611c75565b50610100820151816008019081610c7c9190611c75565b50610120820151816009019080519060200190610c9a929190610db3565b5061014082015181600a019080519060200190610cb8929190610db3565b50905050807f6c2de183f2a2faf4876f357e3c75bf6e6e7aa4dd120e8b5e1bdb2901e085f69c60405160405180910390a2809150509b9a5050505050505050505050565b828054828255906000526020600020908101928215610d485760005260206000209182015b82811115610d475782829081610d379190611e50565b5091600101919060010190610d21565b5b509050610d559190610e0c565b5090565b60405180610160016040528060008152602001606081526020016060815260200160608152602001600081526020016060815260200160608152602001606081526020016060815260200160608152602001606081525090565b828054828255906000526020600020908101928215610dfb579160200282015b82811115610dfa578251829081610dea9190611c75565b5091602001919060010190610dd3565b5b509050610e089190610e0c565b5090565b5b80821115610e2c5760008181610e239190610e30565b50600101610e0d565b5090565b508054610e3c90611985565b6000825580601f10610e4e5750610e6d565b601f016020900490600052602060002090810190610e6c9190610e70565b5b50565b5b80821115610e89576000816000905550600101610e71565b5090565b6000604051905090565b600080fd5b600080fd5b6000819050919050565b610eb481610ea1565b8114610ebf57600080fd5b50565b600081359050610ed181610eab565b92915050565b6000819050919050565b610eea81610ed7565b8114610ef557600080fd5b50565b600081359050610f0781610ee1565b92915050565b600080fd5b600080fd5b6000601f19601f8301169050919050565b7f4e487b7100000000000000000000000000000000000000000000000000000000600052604160045260246000fd5b610f6082610f17565b810181811067ffffffffffffffff82111715610f7f57610f7e610f28565b5b80604052505050565b6000610f92610e8d565b9050610f9e8282610f57565b919050565b600067ffffffffffffffff821115610fbe57610fbd610f28565b5b610fc782610f17565b9050602081019050919050565b82818337600083830152505050565b6000610ff6610ff184610fa3565b610f88565b90508281526020810184848401111561101257611011610f12565b5b61101d848285610fd4565b509392505050565b600082601f83011261103a57611039610f0d565b5b813561104a848260208601610fe3565b91505092915050565b6000806000806080858703121561106d5761106c610e97565b5b600061107b87828801610ec2565b945050602061108c87828801610ef8565b935050604085013567ffffffffffffffff8111156110ad576110ac610e9c565b5b6110b987828801611025565b925050606085013567ffffffffffffffff8111156110da576110d9610e9c565b5b6110e687828801611025565b91505092959194509250565b6110fb81610ea1565b82525050565b600060208201905061111660008301846110f2565b92915050565b60006020828403121561113257611131610e97565b5b600061114084828501610ec2565b91505092915050565b61115281610ed7565b82525050565b600081519050919050565b600082825260208201905092915050565b60005b83811015611192578082015181840152602081019050611177565b60008484015250505050565b60006111a982611158565b6111b38185611163565b93506111c3818560208601611174565b6111cc81610f17565b840191505092915050565b600081519050919050565b600082825260208201905092915050565b6000819050602082019050919050565b600061120f838361119e565b905092915050565b6000602082019050919050565b600061122f826111d7565b61123981856111e2565b93508360208202850161124b856111f3565b8060005b8581101561128757848403895281516112688582611203565b945061127383611217565b925060208a0199505060018101905061124f565b50829750879550505050505092915050565b6000610160830160008301516112b26000860182611149565b50602083015184820360208601526112ca828261119e565b915050604083015184820360408601526112e4828261119e565b915050606083015184820360608601526112fe828261119e565b91505060808301516113136080860182611149565b5060a083015184820360a086015261132b828261119e565b91505060c083015184820360c0860152611345828261119e565b91505060e083015184820360e086015261135f828261119e565b91505061010083015184820361010086015261137b828261119e565b9150506101208301518482036101208601526113978282611224565b9150506101408301518482036101408601526113b38282611224565b9150508091505092915050565b600060208201905081810360008301526113da8184611299565b905092915050565b600067ffffffffffffffff8211156113fd576113fc610f28565b5b602082029050602081019050919050565b600080fd5b6000611426611421846113e2565b610f88565b905080838252602082019050602084028301858111156114495761144861140e565b5b835b8181101561149057803567ffffffffffffffff81111561146e5761146d610f0d565b5b80860161147b8982611025565b8552602085019450505060208101905061144b565b5050509392505050565b600082601f8301126114af576114ae610f0d565b5b81356114bf848260208601611413565b91505092915050565b60008060008060008060008060008060006101608c8e0312156114ee576114ed610e97565b5b60006114fc8e828f01610ef8565b9b505060208c013567ffffffffffffffff81111561151d5761151c610e9c565b5b6115298e828f01611025565b9a505060408c013567ffffffffffffffff81111561154a57611549610e9c565b5b6115568e828f01611025565b99505060608c013567ffffffffffffffff81111561157757611576610e9c565b5b6115838e828f01611025565b98505060806115948e828f01610ef8565b97505060a08c013567ffffffffffffffff8111156115b5576115b4610e9c565b5b6115c18e828f01611025565b96505060c08c013567ffffffffffffffff8111156115e2576115e1610e9c565b5b6115ee8e828f01611025565b95505060e08c013567ffffffffffffffff81111561160f5761160e610e9c565b5b61161b8e828f01611025565b9450506101008c013567ffffffffffffffff81111561163d5761163c610e9c565b5b6116498e828f01611025565b9350506101208c013567ffffffffffffffff81111561166b5761166a610e9c565b5b6116778e828f0161149a565b9250506101408c013567ffffffffffffffff81111561169957611698610e9c565b5b6116a58e828f0161149a565b9150509295989b509295989b9093969950565b600082825260208201905092915050565b7f50726f6475637420646f6573206e6f7420657869737400000000000000000000600082015250565b60006116ff6016836116b8565b915061170a826116c9565b602082019050919050565b6000602082019050818103600083015261172e816116f2565b9050919050565b6000819050919050565b61175061174b82610ed7565b611735565b82525050565b6000819050919050565b61177161176c82610ea1565b611756565b82525050565b600081905092915050565b600061178d82611158565b6117978185611777565b93506117a7818560208601611174565b80840191505092915050565b60006117bf828761173f565b6020820191506117cf8286611760565b6020820191506117df8285611782565b91506117eb8284611782565b915081905095945050505050565b6000611805828661173f565b6020820191506118158285611760565b6020820191506118258284611782565b9150819050949350505050565b7f456974686572207175616c697479206f72207175616e746974792073686f756c60008201527f6420626520757064617465640000000000000000000000000000000000000000602082015250565b600061188e602c836116b8565b915061189982611832565b604082019050919050565b600060208201905081810360008301526118bd81611881565b9050919050565b7f50726f647563742077697468206e6577207175616c69747920616e642071756160008201527f6e7469747920616c726561647920657869737473000000000000000000000000602082015250565b60006119206034836116b8565b915061192b826118c4565b604082019050919050565b6000602082019050818103600083015261194f81611913565b9050919050565b7f4e487b7100000000000000000000000000000000000000000000000000000000600052602260045260246000fd5b6000600282049050600182168061199d57607f821691505b6020821081036119b0576119af611956565b5b50919050565b6000815490506119c581611985565b9050919050565b60008190508160005260206000209050919050565b60008190508160005260206000209050919050565b60006020601f8301049050919050565b600082821b905092915050565b600060088302611a437fffffffffffffffffffffffffffffffffffffffffffffffffffffffffffffffff82611a06565b611a4d8683611a06565b95508019841693508086168417925050509392505050565b6000819050919050565b6000611a8a611a85611a8084610ed7565b611a65565b610ed7565b9050919050565b6000819050919050565b611aa483611a6f565b611ab8611ab082611a91565b848454611a13565b825550505050565b600090565b611acd611ac0565b611ad8818484611a9b565b505050565b5b81811015611afc57611af1600082611ac5565b600181019050611ade565b5050565b601f821115611b4157611b12816119cc565b611b1b846119f6565b81016020851015611b2a578190505b611b3e611b36856119f6565b830182611add565b50505b505050565b600082821c905092915050565b6000611b6460001984600802611b46565b1980831691505092915050565b6000611b7d8383611b53565b9150826002028217905092915050565b818103611b9b575050611c73565b611ba4826119b6565b67ffffffffffffffff811115611bbd57611bbc610f28565b5b611bc78254611985565b611bd2828285611b00565b6000601f831160018114611c015760008415611bef578287015490505b611bf98582611b71565b865550611c6c565b601f198416611c0f876119e1565b9650611c1a866119cc565b60005b82811015611c4257848901548255600182019150600185019450602081019050611c1d565b86831015611c5f5784890154611c5b601f891682611b53565b8355505b6001600288020188555050505b5050505050505b565b611c7e82611158565b67ffffffffffffffff811115611c9757611c96610f28565b5b611ca18254611985565b611cac828285611b00565b600060209050601f831160018114611cdf5760008415611ccd578287015190505b611cd78582611b71565b865550611d3f565b601f198416611ced866119cc565b60005b82811015611d1557848901518255600182019150602085019450602081019050611cf0565b86831015611d325784890151611d2e601f891682611b53565b8355505b6001600288020188555050505b505050505050565b6000611d53828c61173f565b602082019150611d63828b611782565b9150611d6f828a611782565b9150611d7b8289611782565b9150611d87828861173f565b602082019150611d978287611782565b9150611da38286611782565b9150611daf8285611782565b9150611dbb8284611782565b91508190509a9950505050505050505050565b7f50726f6475637420616c72656164792065786973747300000000000000000000600082015250565b6000611e046016836116b8565b9150611e0f82611dce565b602082019050919050565b60006020820190508181036000830152611e3381611df7565b9050919050565b600081549050611e4981611985565b9050919050565b818103611e5e575050611f36565b611e6782611e3a565b67ffffffffffffffff811115611e8057611e7f610f28565b5b611e8a8254611985565b611e95828285611b00565b6000601f831160018114611ec45760008415611eb2578287015490505b611ebc8582611b71565b865550611f2f565b601f198416611ed2876119cc565b9650611edd866119cc565b60005b82811015611f0557848901548255600182019150600185019450602081019050611ee0565b86831015611f225784890154611f1e601f891682611b53565b8355505b6001600288020188555050505b5050505050505b56fea2646970667358221220879bfc554b7171c8936f3e6fdd9c1ec5c26bf456c20b4622bc49753ee2a387c164736f6c63430008120033",
					"opcodes": "PUSH1 0x80 PUSH1 0x40 MSTORE CALLVALUE DUP1 ISZERO PUSH2 0x10 JUMPI PUSH1 0x0 DUP1 REVERT JUMPDEST POP PUSH2 0x1F6E DUP1 PUSH2 0x20 PUSH1 0x0 CODECOPY PUSH1 0x0 RETURN INVALID PUSH1 0x80 PUSH1 0x40 MSTORE CALLVALUE DUP1 ISZERO PUSH2 0x10 JUMPI PUSH1 0x0 DUP1 REVERT JUMPDEST POP PUSH1 0x4 CALLDATASIZE LT PUSH2 0x41 JUMPI PUSH1 0x0 CALLDATALOAD PUSH1 0xE0 SHR DUP1 PUSH4 0x2C24E37D EQ PUSH2 0x46 JUMPI DUP1 PUSH4 0xB74D3FB5 EQ PUSH2 0x76 JUMPI DUP1 PUSH4 0xDBDA06F9 EQ PUSH2 0xA6 JUMPI JUMPDEST PUSH1 0x0 DUP1 REVERT JUMPDEST PUSH2 0x60 PUSH1 0x4 DUP1 CALLDATASIZE SUB DUP2 ADD SWAP1 PUSH2 0x5B SWAP2 SWAP1 PUSH2 0x1053 JUMP JUMPDEST PUSH2 0xD6 JUMP JUMPDEST PUSH1 0x40 MLOAD PUSH2 0x6D SWAP2 SWAP1 PUSH2 0x1101 JUMP JUMPDEST PUSH1 0x40 MLOAD DUP1 SWAP2 SUB SWAP1 RETURN JUMPDEST PUSH2 0x90 PUSH1 0x4 DUP1 CALLDATASIZE SUB DUP2 ADD SWAP1 PUSH2 0x8B SWAP2 SWAP1 PUSH2 0x111C JUMP JUMPDEST PUSH2 0x4EB JUMP JUMPDEST PUSH1 0x40 MLOAD PUSH2 0x9D SWAP2 SWAP1 PUSH2 0x13C0 JUMP JUMPDEST PUSH1 0x40 MLOAD DUP1 SWAP2 SUB SWAP1 RETURN JUMPDEST PUSH2 0xC0 PUSH1 0x4 DUP1 CALLDATASIZE SUB DUP2 ADD SWAP1 PUSH2 0xBB SWAP2 SWAP1 PUSH2 0x14C8 JUMP JUMPDEST PUSH2 0xADC JUMP JUMPDEST PUSH1 0x40 MLOAD PUSH2 0xCD SWAP2 SWAP1 PUSH2 0x1101 JUMP JUMPDEST PUSH1 0x40 MLOAD DUP1 SWAP2 SUB SWAP1 RETURN JUMPDEST PUSH1 0x0 DUP1 PUSH1 0x0 DUP1 DUP8 DUP2 MSTORE PUSH1 0x20 ADD SWAP1 DUP2 MSTORE PUSH1 0x20 ADD PUSH1 0x0 KECCAK256 SWAP1 POP PUSH1 0x0 DUP2 PUSH1 0x0 ADD SLOAD SUB PUSH2 0x134 JUMPI PUSH1 0x40 MLOAD PUSH32 0x8C379A000000000000000000000000000000000000000000000000000000000 DUP2 MSTORE PUSH1 0x4 ADD PUSH2 0x12B SWAP1 PUSH2 0x1715 JUMP JUMPDEST PUSH1 0x40 MLOAD DUP1 SWAP2 SUB SWAP1 REVERT JUMPDEST PUSH1 0x0 DUP1 DUP6 MLOAD GT DUP1 ISZERO PUSH2 0x147 JUMPI POP PUSH1 0x0 DUP5 MLOAD GT JUMPDEST ISZERO PUSH2 0x180 JUMPI DUP6 DUP8 DUP6 DUP8 PUSH1 0x40 MLOAD PUSH1 0x20 ADD PUSH2 0x163 SWAP5 SWAP4 SWAP3 SWAP2 SWAP1 PUSH2 0x17B3 JUMP JUMPDEST PUSH1 0x40 MLOAD PUSH1 0x20 DUP2 DUP4 SUB SUB DUP2 MSTORE SWAP1 PUSH1 0x40 MSTORE DUP1 MLOAD SWAP1 PUSH1 0x20 ADD KECCAK256 SWAP1 POP PUSH2 0x235 JUMP JUMPDEST PUSH1 0x0 DUP6 MLOAD GT ISZERO PUSH2 0x1BC JUMPI DUP6 DUP8 DUP7 PUSH1 0x40 MLOAD PUSH1 0x20 ADD PUSH2 0x19F SWAP4 SWAP3 SWAP2 SWAP1 PUSH2 0x17F9 JUMP JUMPDEST PUSH1 0x40 MLOAD PUSH1 0x20 DUP2 DUP4 SUB SUB DUP2 MSTORE SWAP1 PUSH1 0x40 MSTORE DUP1 MLOAD SWAP1 PUSH1 0x20 ADD KECCAK256 SWAP1 POP PUSH2 0x234 JUMP JUMPDEST PUSH1 0x0 DUP5 MLOAD GT ISZERO PUSH2 0x1F8 JUMPI DUP6 DUP8 DUP6 PUSH1 0x40 MLOAD PUSH1 0x20 ADD PUSH2 0x1DB SWAP4 SWAP3 SWAP2 SWAP1 PUSH2 0x17F9 JUMP JUMPDEST PUSH1 0x40 MLOAD PUSH1 0x20 DUP2 DUP4 SUB SUB DUP2 MSTORE SWAP1 PUSH1 0x40 MSTORE DUP1 MLOAD SWAP1 PUSH1 0x20 ADD KECCAK256 SWAP1 POP PUSH2 0x233 JUMP JUMPDEST PUSH1 0x40 MLOAD PUSH32 0x8C379A000000000000000000000000000000000000000000000000000000000 DUP2 MSTORE PUSH1 0x4 ADD PUSH2 0x22A SWAP1 PUSH2 0x18A4 JUMP JUMPDEST PUSH1 0x40 MLOAD DUP1 SWAP2 SUB SWAP1 REVERT JUMPDEST JUMPDEST JUMPDEST PUSH1 0x0 DUP1 PUSH1 0x0 DUP4 DUP2 MSTORE PUSH1 0x20 ADD SWAP1 DUP2 MSTORE PUSH1 0x20 ADD PUSH1 0x0 KECCAK256 PUSH1 0x0 ADD SLOAD EQ PUSH2 0x28D JUMPI PUSH1 0x40 MLOAD PUSH32 0x8C379A000000000000000000000000000000000000000000000000000000000 DUP2 MSTORE PUSH1 0x4 ADD PUSH2 0x284 SWAP1 PUSH2 0x1936 JUMP JUMPDEST PUSH1 0x40 MLOAD DUP1 SWAP2 SUB SWAP1 REVERT JUMPDEST PUSH1 0x0 DUP1 PUSH1 0x0 DUP4 DUP2 MSTORE PUSH1 0x20 ADD SWAP1 DUP2 MSTORE PUSH1 0x20 ADD PUSH1 0x0 KECCAK256 SWAP1 POP DUP3 PUSH1 0x0 ADD SLOAD DUP2 PUSH1 0x0 ADD DUP2 SWAP1 SSTORE POP DUP3 PUSH1 0x1 ADD DUP2 PUSH1 0x1 ADD SWAP1 DUP2 PUSH2 0x2C4 SWAP2 SWAP1 PUSH2 0x1B8D JUMP JUMPDEST POP PUSH1 0x0 DUP6 MLOAD GT PUSH2 0x360 JUMPI DUP3 PUSH1 0x2 ADD DUP1 SLOAD PUSH2 0x2DD SWAP1 PUSH2 0x1985 JUMP JUMPDEST DUP1 PUSH1 0x1F ADD PUSH1 0x20 DUP1 SWAP2 DIV MUL PUSH1 0x20 ADD PUSH1 0x40 MLOAD SWAP1 DUP2 ADD PUSH1 0x40 MSTORE DUP1 SWAP3 SWAP2 SWAP1 DUP2 DUP2 MSTORE PUSH1 0x20 ADD DUP3 DUP1 SLOAD PUSH2 0x309 SWAP1 PUSH2 0x1985 JUMP JUMPDEST DUP1 ISZERO PUSH2 0x356 JUMPI DUP1 PUSH1 0x1F LT PUSH2 0x32B JUMPI PUSH2 0x100 DUP1 DUP4 SLOAD DIV MUL DUP4 MSTORE SWAP2 PUSH1 0x20 ADD SWAP2 PUSH2 0x356 JUMP JUMPDEST DUP3 ADD SWAP2 SWAP1 PUSH1 0x0 MSTORE PUSH1 0x20 PUSH1 0x0 KECCAK256 SWAP1 JUMPDEST DUP2 SLOAD DUP2 MSTORE SWAP1 PUSH1 0x1 ADD SWAP1 PUSH1 0x20 ADD DUP1 DUP4 GT PUSH2 0x339 JUMPI DUP3 SWAP1 SUB PUSH1 0x1F AND DUP3 ADD SWAP2 JUMPDEST POP POP POP POP POP PUSH2 0x362 JUMP JUMPDEST DUP5 JUMPDEST DUP2 PUSH1 0x2 ADD SWAP1 DUP2 PUSH2 0x372 SWAP2 SWAP1 PUSH2 0x1C75 JUMP JUMPDEST POP PUSH1 0x0 DUP7 MLOAD GT PUSH2 0x40E JUMPI DUP3 PUSH1 0x3 ADD DUP1 SLOAD PUSH2 0x38B SWAP1 PUSH2 0x1985 JUMP JUMPDEST DUP1 PUSH1 0x1F ADD PUSH1 0x20 DUP1 SWAP2 DIV MUL PUSH1 0x20 ADD PUSH1 0x40 MLOAD SWAP1 DUP2 ADD PUSH1 0x40 MSTORE DUP1 SWAP3 SWAP2 SWAP1 DUP2 DUP2 MSTORE PUSH1 0x20 ADD DUP3 DUP1 SLOAD PUSH2 0x3B7 SWAP1 PUSH2 0x1985 JUMP JUMPDEST DUP1 ISZERO PUSH2 0x404 JUMPI DUP1 PUSH1 0x1F LT PUSH2 0x3D9 JUMPI PUSH2 0x100 DUP1 DUP4 SLOAD DIV MUL DUP4 MSTORE SWAP2 PUSH1 0x20 ADD SWAP2 PUSH2 0x404 JUMP JUMPDEST DUP3 ADD SWAP2 SWAP1 PUSH1 0x0 MSTORE PUSH1 0x20 PUSH1 0x0 KECCAK256 SWAP1 JUMPDEST DUP2 SLOAD DUP2 MSTORE SWAP1 PUSH1 0x1 ADD SWAP1 PUSH1 0x20 ADD DUP1 DUP4 GT PUSH2 0x3E7 JUMPI DUP3 SWAP1 SUB PUSH1 0x1F AND DUP3 ADD SWAP2 JUMPDEST POP POP POP POP POP PUSH2 0x410 JUMP JUMPDEST DUP6 JUMPDEST DUP2 PUSH1 0x3 ADD SWAP1 DUP2 PUSH2 0x420 SWAP2 SWAP1 PUSH2 0x1C75 JUMP JUMPDEST POP DUP3 PUSH1 0x4 ADD SLOAD DUP2 PUSH1 0x4 ADD DUP2 SWAP1 SSTORE POP DUP3 PUSH1 0x5 ADD DUP2 PUSH1 0x5 ADD SWAP1 DUP2 PUSH2 0x442 SWAP2 SWAP1 PUSH2 0x1B8D JUMP JUMPDEST POP DUP3 PUSH1 0x8 ADD DUP2 PUSH1 0x8 ADD SWAP1 DUP2 PUSH2 0x457 SWAP2 SWAP1 PUSH2 0x1B8D JUMP JUMPDEST POP DUP3 PUSH1 0x6 ADD DUP2 PUSH1 0x6 ADD SWAP1 DUP2 PUSH2 0x46C SWAP2 SWAP1 PUSH2 0x1B8D JUMP JUMPDEST POP DUP3 PUSH1 0x7 ADD DUP2 PUSH1 0x7 ADD SWAP1 DUP2 PUSH2 0x481 SWAP2 SWAP1 PUSH2 0x1B8D JUMP JUMPDEST POP DUP3 PUSH1 0x9 ADD DUP2 PUSH1 0x9 ADD SWAP1 DUP1 SLOAD PUSH2 0x498 SWAP3 SWAP2 SWAP1 PUSH2 0xCFC JUMP JUMPDEST POP DUP3 PUSH1 0xA ADD DUP2 PUSH1 0xA ADD SWAP1 DUP1 SLOAD PUSH2 0x4AF SWAP3 SWAP2 SWAP1 PUSH2 0xCFC JUMP JUMPDEST POP DUP2 PUSH32 0x6C2DE183F2A2FAF4876F357E3C75BF6E6E7AA4DD120E8B5E1BDB2901E085F69C PUSH1 0x40 MLOAD PUSH1 0x40 MLOAD DUP1 SWAP2 SUB SWAP1 LOG2 DUP2 SWAP4 POP POP POP POP SWAP5 SWAP4 POP POP POP POP JUMP JUMPDEST PUSH2 0x4F3 PUSH2 0xD59 JUMP JUMPDEST PUSH1 0x0 DUP1 DUP4 DUP2 MSTORE PUSH1 0x20 ADD SWAP1 DUP2 MSTORE PUSH1 0x20 ADD PUSH1 0x0 KECCAK256 PUSH1 0x40 MLOAD DUP1 PUSH2 0x160 ADD PUSH1 0x40 MSTORE SWAP1 DUP2 PUSH1 0x0 DUP3 ADD SLOAD DUP2 MSTORE PUSH1 0x20 ADD PUSH1 0x1 DUP3 ADD DUP1 SLOAD PUSH2 0x52B SWAP1 PUSH2 0x1985 JUMP JUMPDEST DUP1 PUSH1 0x1F ADD PUSH1 0x20 DUP1 SWAP2 DIV MUL PUSH1 0x20 ADD PUSH1 0x40 MLOAD SWAP1 DUP2 ADD PUSH1 0x40 MSTORE DUP1 SWAP3 SWAP2 SWAP1 DUP2 DUP2 MSTORE PUSH1 0x20 ADD DUP3 DUP1 SLOAD PUSH2 0x557 SWAP1 PUSH2 0x1985 JUMP JUMPDEST DUP1 ISZERO PUSH2 0x5A4 JUMPI DUP1 PUSH1 0x1F LT PUSH2 0x579 JUMPI PUSH2 0x100 DUP1 DUP4 SLOAD DIV MUL DUP4 MSTORE SWAP2 PUSH1 0x20 ADD SWAP2 PUSH2 0x5A4 JUMP JUMPDEST DUP3 ADD SWAP2 SWAP1 PUSH1 0x0 MSTORE PUSH1 0x20 PUSH1 0x0 KECCAK256 SWAP1 JUMPDEST DUP2 SLOAD DUP2 MSTORE SWAP1 PUSH1 0x1 ADD SWAP1 PUSH1 0x20 ADD DUP1 DUP4 GT PUSH2 0x587 JUMPI DUP3 SWAP1 SUB PUSH1 0x1F AND DUP3 ADD SWAP2 JUMPDEST POP POP POP POP POP DUP2 MSTORE PUSH1 0x20 ADD PUSH1 0x2 DUP3 ADD DUP1 SLOAD PUSH2 0x5BD SWAP1 PUSH2 0x1985 JUMP JUMPDEST DUP1 PUSH1 0x1F ADD PUSH1 0x20 DUP1 SWAP2 DIV MUL PUSH1 0x20 ADD PUSH1 0x40 MLOAD SWAP1 DUP2 ADD PUSH1 0x40 MSTORE DUP1 SWAP3 SWAP2 SWAP1 DUP2 DUP2 MSTORE PUSH1 0x20 ADD DUP3 DUP1 SLOAD PUSH2 0x5E9 SWAP1 PUSH2 0x1985 JUMP JUMPDEST DUP1 ISZERO PUSH2 0x636 JUMPI DUP1 PUSH1 0x1F LT PUSH2 0x60B JUMPI PUSH2 0x100 DUP1 DUP4 SLOAD DIV MUL DUP4 MSTORE SWAP2 PUSH1 0x20 ADD SWAP2 PUSH2 0x636 JUMP JUMPDEST DUP3 ADD SWAP2 SWAP1 PUSH1 0x0 MSTORE PUSH1 0x20 PUSH1 0x0 KECCAK256 SWAP1 JUMPDEST DUP2 SLOAD DUP2 MSTORE SWAP1 PUSH1 0x1 ADD SWAP1 PUSH1 0x20 ADD DUP1 DUP4 GT PUSH2 0x619 JUMPI DUP3 SWAP1 SUB PUSH1 0x1F AND DUP3 ADD SWAP2 JUMPDEST POP POP POP POP POP DUP2 MSTORE PUSH1 0x20 ADD PUSH1 0x3 DUP3 ADD DUP1 SLOAD PUSH2 0x64F SWAP1 PUSH2 0x1985 JUMP JUMPDEST DUP1 PUSH1 0x1F ADD PUSH1 0x20 DUP1 SWAP2 DIV MUL PUSH1 0x20 ADD PUSH1 0x40 MLOAD SWAP1 DUP2 ADD PUSH1 0x40 MSTORE DUP1 SWAP3 SWAP2 SWAP1 DUP2 DUP2 MSTORE PUSH1 0x20 ADD DUP3 DUP1 SLOAD PUSH2 0x67B SWAP1 PUSH2 0x1985 JUMP JUMPDEST DUP1 ISZERO PUSH2 0x6C8 JUMPI DUP1 PUSH1 0x1F LT PUSH2 0x69D JUMPI PUSH2 0x100 DUP1 DUP4 SLOAD DIV MUL DUP4 MSTORE SWAP2 PUSH1 0x20 ADD SWAP2 PUSH2 0x6C8 JUMP JUMPDEST DUP3 ADD SWAP2 SWAP1 PUSH1 0x0 MSTORE PUSH1 0x20 PUSH1 0x0 KECCAK256 SWAP1 JUMPDEST DUP2 SLOAD DUP2 MSTORE SWAP1 PUSH1 0x1 ADD SWAP1 PUSH1 0x20 ADD DUP1 DUP4 GT PUSH2 0x6AB JUMPI DUP3 SWAP1 SUB PUSH1 0x1F AND DUP3 ADD SWAP2 JUMPDEST POP POP POP POP POP DUP2 MSTORE PUSH1 0x20 ADD PUSH1 0x4 DUP3 ADD SLOAD DUP2 MSTORE PUSH1 0x20 ADD PUSH1 0x5 DUP3 ADD DUP1 SLOAD PUSH2 0x6EB SWAP1 PUSH2 0x1985 JUMP JUMPDEST DUP1 PUSH1 0x1F ADD PUSH1 0x20 DUP1 SWAP2 DIV MUL PUSH1 0x20 ADD PUSH1 0x40 MLOAD SWAP1 DUP2 ADD PUSH1 0x40 MSTORE DUP1 SWAP3 SWAP2 SWAP1 DUP2 DUP2 MSTORE PUSH1 0x20 ADD DUP3 DUP1 SLOAD PUSH2 0x717 SWAP1 PUSH2 0x1985 JUMP JUMPDEST DUP1 ISZERO PUSH2 0x764 JUMPI DUP1 PUSH1 0x1F LT PUSH2 0x739 JUMPI PUSH2 0x100 DUP1 DUP4 SLOAD DIV MUL DUP4 MSTORE SWAP2 PUSH1 0x20 ADD SWAP2 PUSH2 0x764 JUMP JUMPDEST DUP3 ADD SWAP2 SWAP1 PUSH1 0x0 MSTORE PUSH1 0x20 PUSH1 0x0 KECCAK256 SWAP1 JUMPDEST DUP2 SLOAD DUP2 MSTORE SWAP1 PUSH1 0x1 ADD SWAP1 PUSH1 0x20 ADD DUP1 DUP4 GT PUSH2 0x747 JUMPI DUP3 SWAP1 SUB PUSH1 0x1F AND DUP3 ADD SWAP2 JUMPDEST POP POP POP POP POP DUP2 MSTORE PUSH1 0x20 ADD PUSH1 0x6 DUP3 ADD DUP1 SLOAD PUSH2 0x77D SWAP1 PUSH2 0x1985 JUMP JUMPDEST DUP1 PUSH1 0x1F ADD PUSH1 0x20 DUP1 SWAP2 DIV MUL PUSH1 0x20 ADD PUSH1 0x40 MLOAD SWAP1 DUP2 ADD PUSH1 0x40 MSTORE DUP1 SWAP3 SWAP2 SWAP1 DUP2 DUP2 MSTORE PUSH1 0x20 ADD DUP3 DUP1 SLOAD PUSH2 0x7A9 SWAP1 PUSH2 0x1985 JUMP JUMPDEST DUP1 ISZERO PUSH2 0x7F6 JUMPI DUP1 PUSH1 0x1F LT PUSH2 0x7CB JUMPI PUSH2 0x100 DUP1 DUP4 SLOAD DIV MUL DUP4 MSTORE SWAP2 PUSH1 0x20 ADD SWAP2 PUSH2 0x7F6 JUMP JUMPDEST DUP3 ADD SWAP2 SWAP1 PUSH1 0x0 MSTORE PUSH1 0x20 PUSH1 0x0 KECCAK256 SWAP1 JUMPDEST DUP2 SLOAD DUP2 MSTORE SWAP1 PUSH1 0x1 ADD SWAP1 PUSH1 0x20 ADD DUP1 DUP4 GT PUSH2 0x7D9 JUMPI DUP3 SWAP1 SUB PUSH1 0x1F AND DUP3 ADD SWAP2 JUMPDEST POP POP POP POP POP DUP2 MSTORE PUSH1 0x20 ADD PUSH1 0x7 DUP3 ADD DUP1 SLOAD PUSH2 0x80F SWAP1 PUSH2 0x1985 JUMP JUMPDEST DUP1 PUSH1 0x1F ADD PUSH1 0x20 DUP1 SWAP2 DIV MUL PUSH1 0x20 ADD PUSH1 0x40 MLOAD SWAP1 DUP2 ADD PUSH1 0x40 MSTORE DUP1 SWAP3 SWAP2 SWAP1 DUP2 DUP2 MSTORE PUSH1 0x20 ADD DUP3 DUP1 SLOAD PUSH2 0x83B SWAP1 PUSH2 0x1985 JUMP JUMPDEST DUP1 ISZERO PUSH2 0x888 JUMPI DUP1 PUSH1 0x1F LT PUSH2 0x85D JUMPI PUSH2 0x100 DUP1 DUP4 SLOAD DIV MUL DUP4 MSTORE SWAP2 PUSH1 0x20 ADD SWAP2 PUSH2 0x888 JUMP JUMPDEST DUP3 ADD SWAP2 SWAP1 PUSH1 0x0 MSTORE PUSH1 0x20 PUSH1 0x0 KECCAK256 SWAP1 JUMPDEST DUP2 SLOAD DUP2 MSTORE SWAP1 PUSH1 0x1 ADD SWAP1 PUSH1 0x20 ADD DUP1 DUP4 GT PUSH2 0x86B JUMPI DUP3 SWAP1 SUB PUSH1 0x1F AND DUP3 ADD SWAP2 JUMPDEST POP POP POP POP POP DUP2 MSTORE PUSH1 0x20 ADD PUSH1 0x8 DUP3 ADD DUP1 SLOAD PUSH2 0x8A1 SWAP1 PUSH2 0x1985 JUMP JUMPDEST DUP1 PUSH1 0x1F ADD PUSH1 0x20 DUP1 SWAP2 DIV MUL PUSH1 0x20 ADD PUSH1 0x40 MLOAD SWAP1 DUP2 ADD PUSH1 0x40 MSTORE DUP1 SWAP3 SWAP2 SWAP1 DUP2 DUP2 MSTORE PUSH1 0x20 ADD DUP3 DUP1 SLOAD PUSH2 0x8CD SWAP1 PUSH2 0x1985 JUMP JUMPDEST DUP1 ISZERO PUSH2 0x91A JUMPI DUP1 PUSH1 0x1F LT PUSH2 0x8EF JUMPI PUSH2 0x100 DUP1 DUP4 SLOAD DIV MUL DUP4 MSTORE SWAP2 PUSH1 0x20 ADD SWAP2 PUSH2 0x91A JUMP JUMPDEST DUP3 ADD SWAP2 SWAP1 PUSH1 0x0 MSTORE PUSH1 0x20 PUSH1 0x0 KECCAK256 SWAP1 JUMPDEST DUP2 SLOAD DUP2 MSTORE SWAP1 PUSH1 0x1 ADD SWAP1 PUSH1 0x20 ADD DUP1 DUP4 GT PUSH2 0x8FD JUMPI DUP3 SWAP1 SUB PUSH1 0x1F AND DUP3 ADD SWAP2 JUMPDEST POP POP POP POP POP DUP2 MSTORE PUSH1 0x20 ADD PUSH1 0x9 DUP3 ADD DUP1 SLOAD DUP1 PUSH1 0x20 MUL PUSH1 0x20 ADD PUSH1 0x40 MLOAD SWAP1 DUP2 ADD PUSH1 0x40 MSTORE DUP1 SWAP3 SWAP2 SWAP1 DUP2 DUP2 MSTORE PUSH1 0x20 ADD PUSH1 0x0 SWAP1 JUMPDEST DUP3 DUP3 LT ISZERO PUSH2 0x9F4 JUMPI DUP4 DUP3 SWAP1 PUSH1 0x0 MSTORE PUSH1 0x20 PUSH1 0x0 KECCAK256 ADD DUP1 SLOAD PUSH2 0x967 SWAP1 PUSH2 0x1985 JUMP JUMPDEST DUP1 PUSH1 0x1F ADD PUSH1 0x20 DUP1 SWAP2 DIV MUL PUSH1 0x20 ADD PUSH1 0x40 MLOAD SWAP1 DUP2 ADD PUSH1 0x40 MSTORE DUP1 SWAP3 SWAP2 SWAP1 DUP2 DUP2 MSTORE PUSH1 0x20 ADD DUP3 DUP1 SLOAD PUSH2 0x993 SWAP1 PUSH2 0x1985 JUMP JUMPDEST DUP1 ISZERO PUSH2 0x9E0 JUMPI DUP1 PUSH1 0x1F LT PUSH2 0x9B5 JUMPI PUSH2 0x100 DUP1 DUP4 SLOAD DIV MUL DUP4 MSTORE SWAP2 PUSH1 0x20 ADD SWAP2 PUSH2 0x9E0 JUMP JUMPDEST DUP3 ADD SWAP2 SWAP1 PUSH1 0x0 MSTORE PUSH1 0x20 PUSH1 0x0 KECCAK256 SWAP1 JUMPDEST DUP2 SLOAD DUP2 MSTORE SWAP1 PUSH1 0x1 ADD SWAP1 PUSH1 0x20 ADD DUP1 DUP4 GT PUSH2 0x9C3 JUMPI DUP3 SWAP1 SUB PUSH1 0x1F AND DUP3 ADD SWAP2 JUMPDEST POP POP POP POP POP DUP2 MSTORE PUSH1 0x20 ADD SWAP1 PUSH1 0x1 ADD SWAP1 PUSH2 0x948 JUMP JUMPDEST POP POP POP POP DUP2 MSTORE PUSH1 0x20 ADD PUSH1 0xA DUP3 ADD DUP1 SLOAD DUP1 PUSH1 0x20 MUL PUSH1 0x20 ADD PUSH1 0x40 MLOAD SWAP1 DUP2 ADD PUSH1 0x40 MSTORE DUP1 SWAP3 SWAP2 SWAP1 DUP2 DUP2 MSTORE PUSH1 0x20 ADD PUSH1 0x0 SWAP1 JUMPDEST DUP3 DUP3 LT ISZERO PUSH2 0xACD JUMPI DUP4 DUP3 SWAP1 PUSH1 0x0 MSTORE PUSH1 0x20 PUSH1 0x0 KECCAK256 ADD DUP1 SLOAD PUSH2 0xA40 SWAP1 PUSH2 0x1985 JUMP JUMPDEST DUP1 PUSH1 0x1F ADD PUSH1 0x20 DUP1 SWAP2 DIV MUL PUSH1 0x20 ADD PUSH1 0x40 MLOAD SWAP1 DUP2 ADD PUSH1 0x40 MSTORE DUP1 SWAP3 SWAP2 SWAP1 DUP2 DUP2 MSTORE PUSH1 0x20 ADD DUP3 DUP1 SLOAD PUSH2 0xA6C SWAP1 PUSH2 0x1985 JUMP JUMPDEST DUP1 ISZERO PUSH2 0xAB9 JUMPI DUP1 PUSH1 0x1F LT PUSH2 0xA8E JUMPI PUSH2 0x100 DUP1 DUP4 SLOAD DIV MUL DUP4 MSTORE SWAP2 PUSH1 0x20 ADD SWAP2 PUSH2 0xAB9 JUMP JUMPDEST DUP3 ADD SWAP2 SWAP1 PUSH1 0x0 MSTORE PUSH1 0x20 PUSH1 0x0 KECCAK256 SWAP1 JUMPDEST DUP2 SLOAD DUP2 MSTORE SWAP1 PUSH1 0x1 ADD SWAP1 PUSH1 0x20 ADD DUP1 DUP4 GT PUSH2 0xA9C JUMPI DUP3 SWAP1 SUB PUSH1 0x1F AND DUP3 ADD SWAP2 JUMPDEST POP POP POP POP POP DUP2 MSTORE PUSH1 0x20 ADD SWAP1 PUSH1 0x1 ADD SWAP1 PUSH2 0xA21 JUMP JUMPDEST POP POP POP POP DUP2 MSTORE POP POP SWAP1 POP SWAP2 SWAP1 POP JUMP JUMPDEST PUSH1 0x0 DUP1 DUP13 DUP13 DUP13 DUP13 DUP13 DUP13 DUP13 DUP13 DUP13 PUSH1 0x40 MLOAD PUSH1 0x20 ADD PUSH2 0xB00 SWAP10 SWAP9 SWAP8 SWAP7 SWAP6 SWAP5 SWAP4 SWAP3 SWAP2 SWAP1 PUSH2 0x1D47 JUMP JUMPDEST PUSH1 0x40 MLOAD PUSH1 0x20 DUP2 DUP4 SUB SUB DUP2 MSTORE SWAP1 PUSH1 0x40 MSTORE DUP1 MLOAD SWAP1 PUSH1 0x20 ADD KECCAK256 SWAP1 POP PUSH1 0x0 DUP1 PUSH1 0x0 DUP4 DUP2 MSTORE PUSH1 0x20 ADD SWAP1 DUP2 MSTORE PUSH1 0x20 ADD PUSH1 0x0 KECCAK256 PUSH1 0x0 ADD SLOAD EQ PUSH2 0xB70 JUMPI PUSH1 0x40 MLOAD PUSH32 0x8C379A000000000000000000000000000000000000000000000000000000000 DUP2 MSTORE PUSH1 0x4 ADD PUSH2 0xB67 SWAP1 PUSH2 0x1E1A JUMP JUMPDEST PUSH1 0x40 MLOAD DUP1 SWAP2 SUB SWAP1 REVERT JUMPDEST PUSH1 0x40 MLOAD DUP1 PUSH2 0x160 ADD PUSH1 0x40 MSTORE DUP1 DUP15 DUP2 MSTORE PUSH1 0x20 ADD DUP14 DUP2 MSTORE PUSH1 0x20 ADD DUP13 DUP2 MSTORE PUSH1 0x20 ADD DUP12 DUP2 MSTORE PUSH1 0x20 ADD DUP11 DUP2 MSTORE PUSH1 0x20 ADD DUP10 DUP2 MSTORE PUSH1 0x20 ADD DUP9 DUP2 MSTORE PUSH1 0x20 ADD DUP8 DUP2 MSTORE PUSH1 0x20 ADD DUP7 DUP2 MSTORE PUSH1 0x20 ADD DUP6 DUP2 MSTORE PUSH1 0x20 ADD DUP5 DUP2 MSTORE POP PUSH1 0x0 DUP1 DUP4 DUP2 MSTORE PUSH1 0x20 ADD SWAP1 DUP2 MSTORE PUSH1 0x20 ADD PUSH1 0x0 KECCAK256 PUSH1 0x0 DUP3 ADD MLOAD DUP2 PUSH1 0x0 ADD SSTORE PUSH1 0x20 DUP3 ADD MLOAD DUP2 PUSH1 0x1 ADD SWAP1 DUP2 PUSH2 0xBED SWAP2 SWAP1 PUSH2 0x1C75 JUMP JUMPDEST POP PUSH1 0x40 DUP3 ADD MLOAD DUP2 PUSH1 0x2 ADD SWAP1 DUP2 PUSH2 0xC03 SWAP2 SWAP1 PUSH2 0x1C75 JUMP JUMPDEST POP PUSH1 0x60 DUP3 ADD MLOAD DUP2 PUSH1 0x3 ADD SWAP1 DUP2 PUSH2 0xC19 SWAP2 SWAP1 PUSH2 0x1C75 JUMP JUMPDEST POP PUSH1 0x80 DUP3 ADD MLOAD DUP2 PUSH1 0x4 ADD SSTORE PUSH1 0xA0 DUP3 ADD MLOAD DUP2 PUSH1 0x5 ADD SWAP1 DUP2 PUSH2 0xC39 SWAP2 SWAP1 PUSH2 0x1C75 JUMP JUMPDEST POP PUSH1 0xC0 DUP3 ADD MLOAD DUP2 PUSH1 0x6 ADD SWAP1 DUP2 PUSH2 0xC4F SWAP2 SWAP1 PUSH2 0x1C75 JUMP JUMPDEST POP PUSH1 0xE0 DUP3 ADD MLOAD DUP2 PUSH1 0x7 ADD SWAP1 DUP2 PUSH2 0xC65 SWAP2 SWAP1 PUSH2 0x1C75 JUMP JUMPDEST POP PUSH2 0x100 DUP3 ADD MLOAD DUP2 PUSH1 0x8 ADD SWAP1 DUP2 PUSH2 0xC7C SWAP2 SWAP1 PUSH2 0x1C75 JUMP JUMPDEST POP PUSH2 0x120 DUP3 ADD MLOAD DUP2 PUSH1 0x9 ADD SWAP1 DUP1 MLOAD SWAP1 PUSH1 0x20 ADD SWAP1 PUSH2 0xC9A SWAP3 SWAP2 SWAP1 PUSH2 0xDB3 JUMP JUMPDEST POP PUSH2 0x140 DUP3 ADD MLOAD DUP2 PUSH1 0xA ADD SWAP1 DUP1 MLOAD SWAP1 PUSH1 0x20 ADD SWAP1 PUSH2 0xCB8 SWAP3 SWAP2 SWAP1 PUSH2 0xDB3 JUMP JUMPDEST POP SWAP1 POP POP DUP1 PUSH32 0x6C2DE183F2A2FAF4876F357E3C75BF6E6E7AA4DD120E8B5E1BDB2901E085F69C PUSH1 0x40 MLOAD PUSH1 0x40 MLOAD DUP1 SWAP2 SUB SWAP1 LOG2 DUP1 SWAP2 POP POP SWAP12 SWAP11 POP POP POP POP POP POP POP POP POP POP POP JUMP JUMPDEST DUP3 DUP1 SLOAD DUP3 DUP3 SSTORE SWAP1 PUSH1 0x0 MSTORE PUSH1 0x20 PUSH1 0x0 KECCAK256 SWAP1 DUP2 ADD SWAP3 DUP3 ISZERO PUSH2 0xD48 JUMPI PUSH1 0x0 MSTORE PUSH1 0x20 PUSH1 0x0 KECCAK256 SWAP2 DUP3 ADD JUMPDEST DUP3 DUP2 GT ISZERO PUSH2 0xD47 JUMPI DUP3 DUP3 SWAP1 DUP2 PUSH2 0xD37 SWAP2 SWAP1 PUSH2 0x1E50 JUMP JUMPDEST POP SWAP2 PUSH1 0x1 ADD SWAP2 SWAP1 PUSH1 0x1 ADD SWAP1 PUSH2 0xD21 JUMP JUMPDEST JUMPDEST POP SWAP1 POP PUSH2 0xD55 SWAP2 SWAP1 PUSH2 0xE0C JUMP JUMPDEST POP SWAP1 JUMP JUMPDEST PUSH1 0x40 MLOAD DUP1 PUSH2 0x160 ADD PUSH1 0x40 MSTORE DUP1 PUSH1 0x0 DUP2 MSTORE PUSH1 0x20 ADD PUSH1 0x60 DUP2 MSTORE PUSH1 0x20 ADD PUSH1 0x60 DUP2 MSTORE PUSH1 0x20 ADD PUSH1 0x60 DUP2 MSTORE PUSH1 0x20 ADD PUSH1 0x0 DUP2 MSTORE PUSH1 0x20 ADD PUSH1 0x60 DUP2 MSTORE PUSH1 0x20 ADD PUSH1 0x60 DUP2 MSTORE PUSH1 0x20 ADD PUSH1 0x60 DUP2 MSTORE PUSH1 0x20 ADD PUSH1 0x60 DUP2 MSTORE PUSH1 0x20 ADD PUSH1 0x60 DUP2 MSTORE PUSH1 0x20 ADD PUSH1 0x60 DUP2 MSTORE POP SWAP1 JUMP JUMPDEST DUP3 DUP1 SLOAD DUP3 DUP3 SSTORE SWAP1 PUSH1 0x0 MSTORE PUSH1 0x20 PUSH1 0x0 KECCAK256 SWAP1 DUP2 ADD SWAP3 DUP3 ISZERO PUSH2 0xDFB JUMPI SWAP2 PUSH1 0x20 MUL DUP3 ADD JUMPDEST DUP3 DUP2 GT ISZERO PUSH2 0xDFA JUMPI DUP3 MLOAD DUP3 SWAP1 DUP2 PUSH2 0xDEA SWAP2 SWAP1 PUSH2 0x1C75 JUMP JUMPDEST POP SWAP2 PUSH1 0x20 ADD SWAP2 SWAP1 PUSH1 0x1 ADD SWAP1 PUSH2 0xDD3 JUMP JUMPDEST JUMPDEST POP SWAP1 POP PUSH2 0xE08 SWAP2 SWAP1 PUSH2 0xE0C JUMP JUMPDEST POP SWAP1 JUMP JUMPDEST JUMPDEST DUP1 DUP3 GT ISZERO PUSH2 0xE2C JUMPI PUSH1 0x0 DUP2 DUP2 PUSH2 0xE23 SWAP2 SWAP1 PUSH2 0xE30 JUMP JUMPDEST POP PUSH1 0x1 ADD PUSH2 0xE0D JUMP JUMPDEST POP SWAP1 JUMP JUMPDEST POP DUP1 SLOAD PUSH2 0xE3C SWAP1 PUSH2 0x1985 JUMP JUMPDEST PUSH1 0x0 DUP3 SSTORE DUP1 PUSH1 0x1F LT PUSH2 0xE4E JUMPI POP PUSH2 0xE6D JUMP JUMPDEST PUSH1 0x1F ADD PUSH1 0x20 SWAP1 DIV SWAP1 PUSH1 0x0 MSTORE PUSH1 0x20 PUSH1 0x0 KECCAK256 SWAP1 DUP2 ADD SWAP1 PUSH2 0xE6C SWAP2 SWAP1 PUSH2 0xE70 JUMP JUMPDEST JUMPDEST POP JUMP JUMPDEST JUMPDEST DUP1 DUP3 GT ISZERO PUSH2 0xE89 JUMPI PUSH1 0x0 DUP2 PUSH1 0x0 SWAP1 SSTORE POP PUSH1 0x1 ADD PUSH2 0xE71 JUMP JUMPDEST POP SWAP1 JUMP JUMPDEST PUSH1 0x0 PUSH1 0x40 MLOAD SWAP1 POP SWAP1 JUMP JUMPDEST PUSH1 0x0 DUP1 REVERT JUMPDEST PUSH1 0x0 DUP1 REVERT JUMPDEST PUSH1 0x0 DUP2 SWAP1 POP SWAP2 SWAP1 POP JUMP JUMPDEST PUSH2 0xEB4 DUP2 PUSH2 0xEA1 JUMP JUMPDEST DUP2 EQ PUSH2 0xEBF JUMPI PUSH1 0x0 DUP1 REVERT JUMPDEST POP JUMP JUMPDEST PUSH1 0x0 DUP2 CALLDATALOAD SWAP1 POP PUSH2 0xED1 DUP2 PUSH2 0xEAB JUMP JUMPDEST SWAP3 SWAP2 POP POP JUMP JUMPDEST PUSH1 0x0 DUP2 SWAP1 POP SWAP2 SWAP1 POP JUMP JUMPDEST PUSH2 0xEEA DUP2 PUSH2 0xED7 JUMP JUMPDEST DUP2 EQ PUSH2 0xEF5 JUMPI PUSH1 0x0 DUP1 REVERT JUMPDEST POP JUMP JUMPDEST PUSH1 0x0 DUP2 CALLDATALOAD SWAP1 POP PUSH2 0xF07 DUP2 PUSH2 0xEE1 JUMP JUMPDEST SWAP3 SWAP2 POP POP JUMP JUMPDEST PUSH1 0x0 DUP1 REVERT JUMPDEST PUSH1 0x0 DUP1 REVERT JUMPDEST PUSH1 0x0 PUSH1 0x1F NOT PUSH1 0x1F DUP4 ADD AND SWAP1 POP SWAP2 SWAP1 POP JUMP JUMPDEST PUSH32 0x4E487B7100000000000000000000000000000000000000000000000000000000 PUSH1 0x0 MSTORE PUSH1 0x41 PUSH1 0x4 MSTORE PUSH1 0x24 PUSH1 0x0 REVERT JUMPDEST PUSH2 0xF60 DUP3 PUSH2 0xF17 JUMP JUMPDEST DUP2 ADD DUP2 DUP2 LT PUSH8 0xFFFFFFFFFFFFFFFF DUP3 GT OR ISZERO PUSH2 0xF7F JUMPI PUSH2 0xF7E PUSH2 0xF28 JUMP JUMPDEST JUMPDEST DUP1 PUSH1 0x40 MSTORE POP POP POP JUMP JUMPDEST PUSH1 0x0 PUSH2 0xF92 PUSH2 0xE8D JUMP JUMPDEST SWAP1 POP PUSH2 0xF9E DUP3 DUP3 PUSH2 0xF57 JUMP JUMPDEST SWAP2 SWAP1 POP JUMP JUMPDEST PUSH1 0x0 PUSH8 0xFFFFFFFFFFFFFFFF DUP3 GT ISZERO PUSH2 0xFBE JUMPI PUSH2 0xFBD PUSH2 0xF28 JUMP JUMPDEST JUMPDEST PUSH2 0xFC7 DUP3 PUSH2 0xF17 JUMP JUMPDEST SWAP1 POP PUSH1 0x20 DUP2 ADD SWAP1 POP SWAP2 SWAP1 POP JUMP JUMPDEST DUP3 DUP2 DUP4 CALLDATACOPY PUSH1 0x0 DUP4 DUP4 ADD MSTORE POP POP POP JUMP JUMPDEST PUSH1 0x0 PUSH2 0xFF6 PUSH2 0xFF1 DUP5 PUSH2 0xFA3 JUMP JUMPDEST PUSH2 0xF88 JUMP JUMPDEST SWAP1 POP DUP3 DUP2 MSTORE PUSH1 0x20 DUP2 ADD DUP5 DUP5 DUP5 ADD GT ISZERO PUSH2 0x1012 JUMPI PUSH2 0x1011 PUSH2 0xF12 JUMP JUMPDEST JUMPDEST PUSH2 0x101D DUP5 DUP3 DUP6 PUSH2 0xFD4 JUMP JUMPDEST POP SWAP4 SWAP3 POP POP POP JUMP JUMPDEST PUSH1 0x0 DUP3 PUSH1 0x1F DUP4 ADD SLT PUSH2 0x103A JUMPI PUSH2 0x1039 PUSH2 0xF0D JUMP JUMPDEST JUMPDEST DUP2 CALLDATALOAD PUSH2 0x104A DUP5 DUP3 PUSH1 0x20 DUP7 ADD PUSH2 0xFE3 JUMP JUMPDEST SWAP2 POP POP SWAP3 SWAP2 POP POP JUMP JUMPDEST PUSH1 0x0 DUP1 PUSH1 0x0 DUP1 PUSH1 0x80 DUP6 DUP8 SUB SLT ISZERO PUSH2 0x106D JUMPI PUSH2 0x106C PUSH2 0xE97 JUMP JUMPDEST JUMPDEST PUSH1 0x0 PUSH2 0x107B DUP8 DUP3 DUP9 ADD PUSH2 0xEC2 JUMP JUMPDEST SWAP5 POP POP PUSH1 0x20 PUSH2 0x108C DUP8 DUP3 DUP9 ADD PUSH2 0xEF8 JUMP JUMPDEST SWAP4 POP POP PUSH1 0x40 DUP6 ADD CALLDATALOAD PUSH8 0xFFFFFFFFFFFFFFFF DUP2 GT ISZERO PUSH2 0x10AD JUMPI PUSH2 0x10AC PUSH2 0xE9C JUMP JUMPDEST JUMPDEST PUSH2 0x10B9 DUP8 DUP3 DUP9 ADD PUSH2 0x1025 JUMP JUMPDEST SWAP3 POP POP PUSH1 0x60 DUP6 ADD CALLDATALOAD PUSH8 0xFFFFFFFFFFFFFFFF DUP2 GT ISZERO PUSH2 0x10DA JUMPI PUSH2 0x10D9 PUSH2 0xE9C JUMP JUMPDEST JUMPDEST PUSH2 0x10E6 DUP8 DUP3 DUP9 ADD PUSH2 0x1025 JUMP JUMPDEST SWAP2 POP POP SWAP3 SWAP6 SWAP2 SWAP5 POP SWAP3 POP JUMP JUMPDEST PUSH2 0x10FB DUP2 PUSH2 0xEA1 JUMP JUMPDEST DUP3 MSTORE POP POP JUMP JUMPDEST PUSH1 0x0 PUSH1 0x20 DUP3 ADD SWAP1 POP PUSH2 0x1116 PUSH1 0x0 DUP4 ADD DUP5 PUSH2 0x10F2 JUMP JUMPDEST SWAP3 SWAP2 POP POP JUMP JUMPDEST PUSH1 0x0 PUSH1 0x20 DUP3 DUP5 SUB SLT ISZERO PUSH2 0x1132 JUMPI PUSH2 0x1131 PUSH2 0xE97 JUMP JUMPDEST JUMPDEST PUSH1 0x0 PUSH2 0x1140 DUP5 DUP3 DUP6 ADD PUSH2 0xEC2 JUMP JUMPDEST SWAP2 POP POP SWAP3 SWAP2 POP POP JUMP JUMPDEST PUSH2 0x1152 DUP2 PUSH2 0xED7 JUMP JUMPDEST DUP3 MSTORE POP POP JUMP JUMPDEST PUSH1 0x0 DUP2 MLOAD SWAP1 POP SWAP2 SWAP1 POP JUMP JUMPDEST PUSH1 0x0 DUP3 DUP3 MSTORE PUSH1 0x20 DUP3 ADD SWAP1 POP SWAP3 SWAP2 POP POP JUMP JUMPDEST PUSH1 0x0 JUMPDEST DUP4 DUP2 LT ISZERO PUSH2 0x1192 JUMPI DUP1 DUP3 ADD MLOAD DUP2 DUP5 ADD MSTORE PUSH1 0x20 DUP2 ADD SWAP1 POP PUSH2 0x1177 JUMP JUMPDEST PUSH1 0x0 DUP5 DUP5 ADD MSTORE POP POP POP POP JUMP JUMPDEST PUSH1 0x0 PUSH2 0x11A9 DUP3 PUSH2 0x1158 JUMP JUMPDEST PUSH2 0x11B3 DUP2 DUP6 PUSH2 0x1163 JUMP JUMPDEST SWAP4 POP PUSH2 0x11C3 DUP2 DUP6 PUSH1 0x20 DUP7 ADD PUSH2 0x1174 JUMP JUMPDEST PUSH2 0x11CC DUP2 PUSH2 0xF17 JUMP JUMPDEST DUP5 ADD SWAP2 POP POP SWAP3 SWAP2 POP POP JUMP JUMPDEST PUSH1 0x0 DUP2 MLOAD SWAP1 POP SWAP2 SWAP1 POP JUMP JUMPDEST PUSH1 0x0 DUP3 DUP3 MSTORE PUSH1 0x20 DUP3 ADD SWAP1 POP SWAP3 SWAP2 POP POP JUMP JUMPDEST PUSH1 0x0 DUP2 SWAP1 POP PUSH1 0x20 DUP3 ADD SWAP1 POP SWAP2 SWAP1 POP JUMP JUMPDEST PUSH1 0x0 PUSH2 0x120F DUP4 DUP4 PUSH2 0x119E JUMP JUMPDEST SWAP1 POP SWAP3 SWAP2 POP POP JUMP JUMPDEST PUSH1 0x0 PUSH1 0x20 DUP3 ADD SWAP1 POP SWAP2 SWAP1 POP JUMP JUMPDEST PUSH1 0x0 PUSH2 0x122F DUP3 PUSH2 0x11D7 JUMP JUMPDEST PUSH2 0x1239 DUP2 DUP6 PUSH2 0x11E2 JUMP JUMPDEST SWAP4 POP DUP4 PUSH1 0x20 DUP3 MUL DUP6 ADD PUSH2 0x124B DUP6 PUSH2 0x11F3 JUMP JUMPDEST DUP1 PUSH1 0x0 JUMPDEST DUP6 DUP2 LT ISZERO PUSH2 0x1287 JUMPI DUP5 DUP5 SUB DUP10 MSTORE DUP2 MLOAD PUSH2 0x1268 DUP6 DUP3 PUSH2 0x1203 JUMP JUMPDEST SWAP5 POP PUSH2 0x1273 DUP4 PUSH2 0x1217 JUMP JUMPDEST SWAP3 POP PUSH1 0x20 DUP11 ADD SWAP10 POP POP PUSH1 0x1 DUP2 ADD SWAP1 POP PUSH2 0x124F JUMP JUMPDEST POP DUP3 SWAP8 POP DUP8 SWAP6 POP POP POP POP POP POP SWAP3 SWAP2 POP POP JUMP JUMPDEST PUSH1 0x0 PUSH2 0x160 DUP4 ADD PUSH1 0x0 DUP4 ADD MLOAD PUSH2 0x12B2 PUSH1 0x0 DUP7 ADD DUP3 PUSH2 0x1149 JUMP JUMPDEST POP PUSH1 0x20 DUP4 ADD MLOAD DUP5 DUP3 SUB PUSH1 0x20 DUP7 ADD MSTORE PUSH2 0x12CA DUP3 DUP3 PUSH2 0x119E JUMP JUMPDEST SWAP2 POP POP PUSH1 0x40 DUP4 ADD MLOAD DUP5 DUP3 SUB PUSH1 0x40 DUP7 ADD MSTORE PUSH2 0x12E4 DUP3 DUP3 PUSH2 0x119E JUMP JUMPDEST SWAP2 POP POP PUSH1 0x60 DUP4 ADD MLOAD DUP5 DUP3 SUB PUSH1 0x60 DUP7 ADD MSTORE PUSH2 0x12FE DUP3 DUP3 PUSH2 0x119E JUMP JUMPDEST SWAP2 POP POP PUSH1 0x80 DUP4 ADD MLOAD PUSH2 0x1313 PUSH1 0x80 DUP7 ADD DUP3 PUSH2 0x1149 JUMP JUMPDEST POP PUSH1 0xA0 DUP4 ADD MLOAD DUP5 DUP3 SUB PUSH1 0xA0 DUP7 ADD MSTORE PUSH2 0x132B DUP3 DUP3 PUSH2 0x119E JUMP JUMPDEST SWAP2 POP POP PUSH1 0xC0 DUP4 ADD MLOAD DUP5 DUP3 SUB PUSH1 0xC0 DUP7 ADD MSTORE PUSH2 0x1345 DUP3 DUP3 PUSH2 0x119E JUMP JUMPDEST SWAP2 POP POP PUSH1 0xE0 DUP4 ADD MLOAD DUP5 DUP3 SUB PUSH1 0xE0 DUP7 ADD MSTORE PUSH2 0x135F DUP3 DUP3 PUSH2 0x119E JUMP JUMPDEST SWAP2 POP POP PUSH2 0x100 DUP4 ADD MLOAD DUP5 DUP3 SUB PUSH2 0x100 DUP7 ADD MSTORE PUSH2 0x137B DUP3 DUP3 PUSH2 0x119E JUMP JUMPDEST SWAP2 POP POP PUSH2 0x120 DUP4 ADD MLOAD DUP5 DUP3 SUB PUSH2 0x120 DUP7 ADD MSTORE PUSH2 0x1397 DUP3 DUP3 PUSH2 0x1224 JUMP JUMPDEST SWAP2 POP POP PUSH2 0x140 DUP4 ADD MLOAD DUP5 DUP3 SUB PUSH2 0x140 DUP7 ADD MSTORE PUSH2 0x13B3 DUP3 DUP3 PUSH2 0x1224 JUMP JUMPDEST SWAP2 POP POP DUP1 SWAP2 POP POP SWAP3 SWAP2 POP POP JUMP JUMPDEST PUSH1 0x0 PUSH1 0x20 DUP3 ADD SWAP1 POP DUP2 DUP2 SUB PUSH1 0x0 DUP4 ADD MSTORE PUSH2 0x13DA DUP2 DUP5 PUSH2 0x1299 JUMP JUMPDEST SWAP1 POP SWAP3 SWAP2 POP POP JUMP JUMPDEST PUSH1 0x0 PUSH8 0xFFFFFFFFFFFFFFFF DUP3 GT ISZERO PUSH2 0x13FD JUMPI PUSH2 0x13FC PUSH2 0xF28 JUMP JUMPDEST JUMPDEST PUSH1 0x20 DUP3 MUL SWAP1 POP PUSH1 0x20 DUP2 ADD SWAP1 POP SWAP2 SWAP1 POP JUMP JUMPDEST PUSH1 0x0 DUP1 REVERT JUMPDEST PUSH1 0x0 PUSH2 0x1426 PUSH2 0x1421 DUP5 PUSH2 0x13E2 JUMP JUMPDEST PUSH2 0xF88 JUMP JUMPDEST SWAP1 POP DUP1 DUP4 DUP3 MSTORE PUSH1 0x20 DUP3 ADD SWAP1 POP PUSH1 0x20 DUP5 MUL DUP4 ADD DUP6 DUP2 GT ISZERO PUSH2 0x1449 JUMPI PUSH2 0x1448 PUSH2 0x140E JUMP JUMPDEST JUMPDEST DUP4 JUMPDEST DUP2 DUP2 LT ISZERO PUSH2 0x1490 JUMPI DUP1 CALLDATALOAD PUSH8 0xFFFFFFFFFFFFFFFF DUP2 GT ISZERO PUSH2 0x146E JUMPI PUSH2 0x146D PUSH2 0xF0D JUMP JUMPDEST JUMPDEST DUP1 DUP7 ADD PUSH2 0x147B DUP10 DUP3 PUSH2 0x1025 JUMP JUMPDEST DUP6 MSTORE PUSH1 0x20 DUP6 ADD SWAP5 POP POP POP PUSH1 0x20 DUP2 ADD SWAP1 POP PUSH2 0x144B JUMP JUMPDEST POP POP POP SWAP4 SWAP3 POP POP POP JUMP JUMPDEST PUSH1 0x0 DUP3 PUSH1 0x1F DUP4 ADD SLT PUSH2 0x14AF JUMPI PUSH2 0x14AE PUSH2 0xF0D JUMP JUMPDEST JUMPDEST DUP2 CALLDATALOAD PUSH2 0x14BF DUP5 DUP3 PUSH1 0x20 DUP7 ADD PUSH2 0x1413 JUMP JUMPDEST SWAP2 POP POP SWAP3 SWAP2 POP POP JUMP JUMPDEST PUSH1 0x0 DUP1 PUSH1 0x0 DUP1 PUSH1 0x0 DUP1 PUSH1 0x0 DUP1 PUSH1 0x0 DUP1 PUSH1 0x0 PUSH2 0x160 DUP13 DUP15 SUB SLT ISZERO PUSH2 0x14EE JUMPI PUSH2 0x14ED PUSH2 0xE97 JUMP JUMPDEST JUMPDEST PUSH1 0x0 PUSH2 0x14FC DUP15 DUP3 DUP16 ADD PUSH2 0xEF8 JUMP JUMPDEST SWAP12 POP POP PUSH1 0x20 DUP13 ADD CALLDATALOAD PUSH8 0xFFFFFFFFFFFFFFFF DUP2 GT ISZERO PUSH2 0x151D JUMPI PUSH2 0x151C PUSH2 0xE9C JUMP JUMPDEST JUMPDEST PUSH2 0x1529 DUP15 DUP3 DUP16 ADD PUSH2 0x1025 JUMP JUMPDEST SWAP11 POP POP PUSH1 0x40 DUP13 ADD CALLDATALOAD PUSH8 0xFFFFFFFFFFFFFFFF DUP2 GT ISZERO PUSH2 0x154A JUMPI PUSH2 0x1549 PUSH2 0xE9C JUMP JUMPDEST JUMPDEST PUSH2 0x1556 DUP15 DUP3 DUP16 ADD PUSH2 0x1025 JUMP JUMPDEST SWAP10 POP POP PUSH1 0x60 DUP13 ADD CALLDATALOAD PUSH8 0xFFFFFFFFFFFFFFFF DUP2 GT ISZERO PUSH2 0x1577 JUMPI PUSH2 0x1576 PUSH2 0xE9C JUMP JUMPDEST JUMPDEST PUSH2 0x1583 DUP15 DUP3 DUP16 ADD PUSH2 0x1025 JUMP JUMPDEST SWAP9 POP POP PUSH1 0x80 PUSH2 0x1594 DUP15 DUP3 DUP16 ADD PUSH2 0xEF8 JUMP JUMPDEST SWAP8 POP POP PUSH1 0xA0 DUP13 ADD CALLDATALOAD PUSH8 0xFFFFFFFFFFFFFFFF DUP2 GT ISZERO PUSH2 0x15B5 JUMPI PUSH2 0x15B4 PUSH2 0xE9C JUMP JUMPDEST JUMPDEST PUSH2 0x15C1 DUP15 DUP3 DUP16 ADD PUSH2 0x1025 JUMP JUMPDEST SWAP7 POP POP PUSH1 0xC0 DUP13 ADD CALLDATALOAD PUSH8 0xFFFFFFFFFFFFFFFF DUP2 GT ISZERO PUSH2 0x15E2 JUMPI PUSH2 0x15E1 PUSH2 0xE9C JUMP JUMPDEST JUMPDEST PUSH2 0x15EE DUP15 DUP3 DUP16 ADD PUSH2 0x1025 JUMP JUMPDEST SWAP6 POP POP PUSH1 0xE0 DUP13 ADD CALLDATALOAD PUSH8 0xFFFFFFFFFFFFFFFF DUP2 GT ISZERO PUSH2 0x160F JUMPI PUSH2 0x160E PUSH2 0xE9C JUMP JUMPDEST JUMPDEST PUSH2 0x161B DUP15 DUP3 DUP16 ADD PUSH2 0x1025 JUMP JUMPDEST SWAP5 POP POP PUSH2 0x100 DUP13 ADD CALLDATALOAD PUSH8 0xFFFFFFFFFFFFFFFF DUP2 GT ISZERO PUSH2 0x163D JUMPI PUSH2 0x163C PUSH2 0xE9C JUMP JUMPDEST JUMPDEST PUSH2 0x1649 DUP15 DUP3 DUP16 ADD PUSH2 0x1025 JUMP JUMPDEST SWAP4 POP POP PUSH2 0x120 DUP13 ADD CALLDATALOAD PUSH8 0xFFFFFFFFFFFFFFFF DUP2 GT ISZERO PUSH2 0x166B JUMPI PUSH2 0x166A PUSH2 0xE9C JUMP JUMPDEST JUMPDEST PUSH2 0x1677 DUP15 DUP3 DUP16 ADD PUSH2 0x149A JUMP JUMPDEST SWAP3 POP POP PUSH2 0x140 DUP13 ADD CALLDATALOAD PUSH8 0xFFFFFFFFFFFFFFFF DUP2 GT ISZERO PUSH2 0x1699 JUMPI PUSH2 0x1698 PUSH2 0xE9C JUMP JUMPDEST JUMPDEST PUSH2 0x16A5 DUP15 DUP3 DUP16 ADD PUSH2 0x149A JUMP JUMPDEST SWAP2 POP POP SWAP3 SWAP6 SWAP9 SWAP12 POP SWAP3 SWAP6 SWAP9 SWAP12 SWAP1 SWAP4 SWAP7 SWAP10 POP JUMP JUMPDEST PUSH1 0x0 DUP3 DUP3 MSTORE PUSH1 0x20 DUP3 ADD SWAP1 POP SWAP3 SWAP2 POP POP JUMP JUMPDEST PUSH32 0x50726F6475637420646F6573206E6F7420657869737400000000000000000000 PUSH1 0x0 DUP3 ADD MSTORE POP JUMP JUMPDEST PUSH1 0x0 PUSH2 0x16FF PUSH1 0x16 DUP4 PUSH2 0x16B8 JUMP JUMPDEST SWAP2 POP PUSH2 0x170A DUP3 PUSH2 0x16C9 JUMP JUMPDEST PUSH1 0x20 DUP3 ADD SWAP1 POP SWAP2 SWAP1 POP JUMP JUMPDEST PUSH1 0x0 PUSH1 0x20 DUP3 ADD SWAP1 POP DUP2 DUP2 SUB PUSH1 0x0 DUP4 ADD MSTORE PUSH2 0x172E DUP2 PUSH2 0x16F2 JUMP JUMPDEST SWAP1 POP SWAP2 SWAP1 POP JUMP JUMPDEST PUSH1 0x0 DUP2 SWAP1 POP SWAP2 SWAP1 POP JUMP JUMPDEST PUSH2 0x1750 PUSH2 0x174B DUP3 PUSH2 0xED7 JUMP JUMPDEST PUSH2 0x1735 JUMP JUMPDEST DUP3 MSTORE POP POP JUMP JUMPDEST PUSH1 0x0 DUP2 SWAP1 POP SWAP2 SWAP1 POP JUMP JUMPDEST PUSH2 0x1771 PUSH2 0x176C DUP3 PUSH2 0xEA1 JUMP JUMPDEST PUSH2 0x1756 JUMP JUMPDEST DUP3 MSTORE POP POP JUMP JUMPDEST PUSH1 0x0 DUP2 SWAP1 POP SWAP3 SWAP2 POP POP JUMP JUMPDEST PUSH1 0x0 PUSH2 0x178D DUP3 PUSH2 0x1158 JUMP JUMPDEST PUSH2 0x1797 DUP2 DUP6 PUSH2 0x1777 JUMP JUMPDEST SWAP4 POP PUSH2 0x17A7 DUP2 DUP6 PUSH1 0x20 DUP7 ADD PUSH2 0x1174 JUMP JUMPDEST DUP1 DUP5 ADD SWAP2 POP POP SWAP3 SWAP2 POP POP JUMP JUMPDEST PUSH1 0x0 PUSH2 0x17BF DUP3 DUP8 PUSH2 0x173F JUMP JUMPDEST PUSH1 0x20 DUP3 ADD SWAP2 POP PUSH2 0x17CF DUP3 DUP7 PUSH2 0x1760 JUMP JUMPDEST PUSH1 0x20 DUP3 ADD SWAP2 POP PUSH2 0x17DF DUP3 DUP6 PUSH2 0x1782 JUMP JUMPDEST SWAP2 POP PUSH2 0x17EB DUP3 DUP5 PUSH2 0x1782 JUMP JUMPDEST SWAP2 POP DUP2 SWAP1 POP SWAP6 SWAP5 POP POP POP POP POP JUMP JUMPDEST PUSH1 0x0 PUSH2 0x1805 DUP3 DUP7 PUSH2 0x173F JUMP JUMPDEST PUSH1 0x20 DUP3 ADD SWAP2 POP PUSH2 0x1815 DUP3 DUP6 PUSH2 0x1760 JUMP JUMPDEST PUSH1 0x20 DUP3 ADD SWAP2 POP PUSH2 0x1825 DUP3 DUP5 PUSH2 0x1782 JUMP JUMPDEST SWAP2 POP DUP2 SWAP1 POP SWAP5 SWAP4 POP POP POP POP JUMP JUMPDEST PUSH32 0x456974686572207175616C697479206F72207175616E746974792073686F756C PUSH1 0x0 DUP3 ADD MSTORE PUSH32 0x6420626520757064617465640000000000000000000000000000000000000000 PUSH1 0x20 DUP3 ADD MSTORE POP JUMP JUMPDEST PUSH1 0x0 PUSH2 0x188E PUSH1 0x2C DUP4 PUSH2 0x16B8 JUMP JUMPDEST SWAP2 POP PUSH2 0x1899 DUP3 PUSH2 0x1832 JUMP JUMPDEST PUSH1 0x40 DUP3 ADD SWAP1 POP SWAP2 SWAP1 POP JUMP JUMPDEST PUSH1 0x0 PUSH1 0x20 DUP3 ADD SWAP1 POP DUP2 DUP2 SUB PUSH1 0x0 DUP4 ADD MSTORE PUSH2 0x18BD DUP2 PUSH2 0x1881 JUMP JUMPDEST SWAP1 POP SWAP2 SWAP1 POP JUMP JUMPDEST PUSH32 0x50726F647563742077697468206E6577207175616C69747920616E6420717561 PUSH1 0x0 DUP3 ADD MSTORE PUSH32 0x6E7469747920616C726561647920657869737473000000000000000000000000 PUSH1 0x20 DUP3 ADD MSTORE POP JUMP JUMPDEST PUSH1 0x0 PUSH2 0x1920 PUSH1 0x34 DUP4 PUSH2 0x16B8 JUMP JUMPDEST SWAP2 POP PUSH2 0x192B DUP3 PUSH2 0x18C4 JUMP JUMPDEST PUSH1 0x40 DUP3 ADD SWAP1 POP SWAP2 SWAP1 POP JUMP JUMPDEST PUSH1 0x0 PUSH1 0x20 DUP3 ADD SWAP1 POP DUP2 DUP2 SUB PUSH1 0x0 DUP4 ADD MSTORE PUSH2 0x194F DUP2 PUSH2 0x1913 JUMP JUMPDEST SWAP1 POP SWAP2 SWAP1 POP JUMP JUMPDEST PUSH32 0x4E487B7100000000000000000000000000000000000000000000000000000000 PUSH1 0x0 MSTORE PUSH1 0x22 PUSH1 0x4 MSTORE PUSH1 0x24 PUSH1 0x0 REVERT JUMPDEST PUSH1 0x0 PUSH1 0x2 DUP3 DIV SWAP1 POP PUSH1 0x1 DUP3 AND DUP1 PUSH2 0x199D JUMPI PUSH1 0x7F DUP3 AND SWAP2 POP JUMPDEST PUSH1 0x20 DUP3 LT DUP2 SUB PUSH2 0x19B0 JUMPI PUSH2 0x19AF PUSH2 0x1956 JUMP JUMPDEST JUMPDEST POP SWAP2 SWAP1 POP JUMP JUMPDEST PUSH1 0x0 DUP2 SLOAD SWAP1 POP PUSH2 0x19C5 DUP2 PUSH2 0x1985 JUMP JUMPDEST SWAP1 POP SWAP2 SWAP1 POP JUMP JUMPDEST PUSH1 0x0 DUP2 SWAP1 POP DUP2 PUSH1 0x0 MSTORE PUSH1 0x20 PUSH1 0x0 KECCAK256 SWAP1 POP SWAP2 SWAP1 POP JUMP JUMPDEST PUSH1 0x0 DUP2 SWAP1 POP DUP2 PUSH1 0x0 MSTORE PUSH1 0x20 PUSH1 0x0 KECCAK256 SWAP1 POP SWAP2 SWAP1 POP JUMP JUMPDEST PUSH1 0x0 PUSH1 0x20 PUSH1 0x1F DUP4 ADD DIV SWAP1 POP SWAP2 SWAP1 POP JUMP JUMPDEST PUSH1 0x0 DUP3 DUP3 SHL SWAP1 POP SWAP3 SWAP2 POP POP JUMP JUMPDEST PUSH1 0x0 PUSH1 0x8 DUP4 MUL PUSH2 0x1A43 PUSH32 0xFFFFFFFFFFFFFFFFFFFFFFFFFFFFFFFFFFFFFFFFFFFFFFFFFFFFFFFFFFFFFFFF DUP3 PUSH2 0x1A06 JUMP JUMPDEST PUSH2 0x1A4D DUP7 DUP4 PUSH2 0x1A06 JUMP JUMPDEST SWAP6 POP DUP1 NOT DUP5 AND SWAP4 POP DUP1 DUP7 AND DUP5 OR SWAP3 POP POP POP SWAP4 SWAP3 POP POP POP JUMP JUMPDEST PUSH1 0x0 DUP2 SWAP1 POP SWAP2 SWAP1 POP JUMP JUMPDEST PUSH1 0x0 PUSH2 0x1A8A PUSH2 0x1A85 PUSH2 0x1A80 DUP5 PUSH2 0xED7 JUMP JUMPDEST PUSH2 0x1A65 JUMP JUMPDEST PUSH2 0xED7 JUMP JUMPDEST SWAP1 POP SWAP2 SWAP1 POP JUMP JUMPDEST PUSH1 0x0 DUP2 SWAP1 POP SWAP2 SWAP1 POP JUMP JUMPDEST PUSH2 0x1AA4 DUP4 PUSH2 0x1A6F JUMP JUMPDEST PUSH2 0x1AB8 PUSH2 0x1AB0 DUP3 PUSH2 0x1A91 JUMP JUMPDEST DUP5 DUP5 SLOAD PUSH2 0x1A13 JUMP JUMPDEST DUP3 SSTORE POP POP POP POP JUMP JUMPDEST PUSH1 0x0 SWAP1 JUMP JUMPDEST PUSH2 0x1ACD PUSH2 0x1AC0 JUMP JUMPDEST PUSH2 0x1AD8 DUP2 DUP5 DUP5 PUSH2 0x1A9B JUMP JUMPDEST POP POP POP JUMP JUMPDEST JUMPDEST DUP2 DUP2 LT ISZERO PUSH2 0x1AFC JUMPI PUSH2 0x1AF1 PUSH1 0x0 DUP3 PUSH2 0x1AC5 JUMP JUMPDEST PUSH1 0x1 DUP2 ADD SWAP1 POP PUSH2 0x1ADE JUMP JUMPDEST POP POP JUMP JUMPDEST PUSH1 0x1F DUP3 GT ISZERO PUSH2 0x1B41 JUMPI PUSH2 0x1B12 DUP2 PUSH2 0x19CC JUMP JUMPDEST PUSH2 0x1B1B DUP5 PUSH2 0x19F6 JUMP JUMPDEST DUP2 ADD PUSH1 0x20 DUP6 LT ISZERO PUSH2 0x1B2A JUMPI DUP2 SWAP1 POP JUMPDEST PUSH2 0x1B3E PUSH2 0x1B36 DUP6 PUSH2 0x19F6 JUMP JUMPDEST DUP4 ADD DUP3 PUSH2 0x1ADD JUMP JUMPDEST POP POP JUMPDEST POP POP POP JUMP JUMPDEST PUSH1 0x0 DUP3 DUP3 SHR SWAP1 POP SWAP3 SWAP2 POP POP JUMP JUMPDEST PUSH1 0x0 PUSH2 0x1B64 PUSH1 0x0 NOT DUP5 PUSH1 0x8 MUL PUSH2 0x1B46 JUMP JUMPDEST NOT DUP1 DUP4 AND SWAP2 POP POP SWAP3 SWAP2 POP POP JUMP JUMPDEST PUSH1 0x0 PUSH2 0x1B7D DUP4 DUP4 PUSH2 0x1B53 JUMP JUMPDEST SWAP2 POP DUP3 PUSH1 0x2 MUL DUP3 OR SWAP1 POP SWAP3 SWAP2 POP POP JUMP JUMPDEST DUP2 DUP2 SUB PUSH2 0x1B9B JUMPI POP POP PUSH2 0x1C73 JUMP JUMPDEST PUSH2 0x1BA4 DUP3 PUSH2 0x19B6 JUMP JUMPDEST PUSH8 0xFFFFFFFFFFFFFFFF DUP2 GT ISZERO PUSH2 0x1BBD JUMPI PUSH2 0x1BBC PUSH2 0xF28 JUMP JUMPDEST JUMPDEST PUSH2 0x1BC7 DUP3 SLOAD PUSH2 0x1985 JUMP JUMPDEST PUSH2 0x1BD2 DUP3 DUP3 DUP6 PUSH2 0x1B00 JUMP JUMPDEST PUSH1 0x0 PUSH1 0x1F DUP4 GT PUSH1 0x1 DUP2 EQ PUSH2 0x1C01 JUMPI PUSH1 0x0 DUP5 ISZERO PUSH2 0x1BEF JUMPI DUP3 DUP8 ADD SLOAD SWAP1 POP JUMPDEST PUSH2 0x1BF9 DUP6 DUP3 PUSH2 0x1B71 JUMP JUMPDEST DUP7 SSTORE POP PUSH2 0x1C6C JUMP JUMPDEST PUSH1 0x1F NOT DUP5 AND PUSH2 0x1C0F DUP8 PUSH2 0x19E1 JUMP JUMPDEST SWAP7 POP PUSH2 0x1C1A DUP7 PUSH2 0x19CC JUMP JUMPDEST PUSH1 0x0 JUMPDEST DUP3 DUP2 LT ISZERO PUSH2 0x1C42 JUMPI DUP5 DUP10 ADD SLOAD DUP3 SSTORE PUSH1 0x1 DUP3 ADD SWAP2 POP PUSH1 0x1 DUP6 ADD SWAP5 POP PUSH1 0x20 DUP2 ADD SWAP1 POP PUSH2 0x1C1D JUMP JUMPDEST DUP7 DUP4 LT ISZERO PUSH2 0x1C5F JUMPI DUP5 DUP10 ADD SLOAD PUSH2 0x1C5B PUSH1 0x1F DUP10 AND DUP3 PUSH2 0x1B53 JUMP JUMPDEST DUP4 SSTORE POP JUMPDEST PUSH1 0x1 PUSH1 0x2 DUP9 MUL ADD DUP9 SSTORE POP POP POP JUMPDEST POP POP POP POP POP POP JUMPDEST JUMP JUMPDEST PUSH2 0x1C7E DUP3 PUSH2 0x1158 JUMP JUMPDEST PUSH8 0xFFFFFFFFFFFFFFFF DUP2 GT ISZERO PUSH2 0x1C97 JUMPI PUSH2 0x1C96 PUSH2 0xF28 JUMP JUMPDEST JUMPDEST PUSH2 0x1CA1 DUP3 SLOAD PUSH2 0x1985 JUMP JUMPDEST PUSH2 0x1CAC DUP3 DUP3 DUP6 PUSH2 0x1B00 JUMP JUMPDEST PUSH1 0x0 PUSH1 0x20 SWAP1 POP PUSH1 0x1F DUP4 GT PUSH1 0x1 DUP2 EQ PUSH2 0x1CDF JUMPI PUSH1 0x0 DUP5 ISZERO PUSH2 0x1CCD JUMPI DUP3 DUP8 ADD MLOAD SWAP1 POP JUMPDEST PUSH2 0x1CD7 DUP6 DUP3 PUSH2 0x1B71 JUMP JUMPDEST DUP7 SSTORE POP PUSH2 0x1D3F JUMP JUMPDEST PUSH1 0x1F NOT DUP5 AND PUSH2 0x1CED DUP7 PUSH2 0x19CC JUMP JUMPDEST PUSH1 0x0 JUMPDEST DUP3 DUP2 LT ISZERO PUSH2 0x1D15 JUMPI DUP5 DUP10 ADD MLOAD DUP3 SSTORE PUSH1 0x1 DUP3 ADD SWAP2 POP PUSH1 0x20 DUP6 ADD SWAP5 POP PUSH1 0x20 DUP2 ADD SWAP1 POP PUSH2 0x1CF0 JUMP JUMPDEST DUP7 DUP4 LT ISZERO PUSH2 0x1D32 JUMPI DUP5 DUP10 ADD MLOAD PUSH2 0x1D2E PUSH1 0x1F DUP10 AND DUP3 PUSH2 0x1B53 JUMP JUMPDEST DUP4 SSTORE POP JUMPDEST PUSH1 0x1 PUSH1 0x2 DUP9 MUL ADD DUP9 SSTORE POP POP POP JUMPDEST POP POP POP POP POP POP JUMP JUMPDEST PUSH1 0x0 PUSH2 0x1D53 DUP3 DUP13 PUSH2 0x173F JUMP JUMPDEST PUSH1 0x20 DUP3 ADD SWAP2 POP PUSH2 0x1D63 DUP3 DUP12 PUSH2 0x1782 JUMP JUMPDEST SWAP2 POP PUSH2 0x1D6F DUP3 DUP11 PUSH2 0x1782 JUMP JUMPDEST SWAP2 POP PUSH2 0x1D7B DUP3 DUP10 PUSH2 0x1782 JUMP JUMPDEST SWAP2 POP PUSH2 0x1D87 DUP3 DUP9 PUSH2 0x173F JUMP JUMPDEST PUSH1 0x20 DUP3 ADD SWAP2 POP PUSH2 0x1D97 DUP3 DUP8 PUSH2 0x1782 JUMP JUMPDEST SWAP2 POP PUSH2 0x1DA3 DUP3 DUP7 PUSH2 0x1782 JUMP JUMPDEST SWAP2 POP PUSH2 0x1DAF DUP3 DUP6 PUSH2 0x1782 JUMP JUMPDEST SWAP2 POP PUSH2 0x1DBB DUP3 DUP5 PUSH2 0x1782 JUMP JUMPDEST SWAP2 POP DUP2 SWAP1 POP SWAP11 SWAP10 POP POP POP POP POP POP POP POP POP POP JUMP JUMPDEST PUSH32 0x50726F6475637420616C72656164792065786973747300000000000000000000 PUSH1 0x0 DUP3 ADD MSTORE POP JUMP JUMPDEST PUSH1 0x0 PUSH2 0x1E04 PUSH1 0x16 DUP4 PUSH2 0x16B8 JUMP JUMPDEST SWAP2 POP PUSH2 0x1E0F DUP3 PUSH2 0x1DCE JUMP JUMPDEST PUSH1 0x20 DUP3 ADD SWAP1 POP SWAP2 SWAP1 POP JUMP JUMPDEST PUSH1 0x0 PUSH1 0x20 DUP3 ADD SWAP1 POP DUP2 DUP2 SUB PUSH1 0x0 DUP4 ADD MSTORE PUSH2 0x1E33 DUP2 PUSH2 0x1DF7 JUMP JUMPDEST SWAP1 POP SWAP2 SWAP1 POP JUMP JUMPDEST PUSH1 0x0 DUP2 SLOAD SWAP1 POP PUSH2 0x1E49 DUP2 PUSH2 0x1985 JUMP JUMPDEST SWAP1 POP SWAP2 SWAP1 POP JUMP JUMPDEST DUP2 DUP2 SUB PUSH2 0x1E5E JUMPI POP POP PUSH2 0x1F36 JUMP JUMPDEST PUSH2 0x1E67 DUP3 PUSH2 0x1E3A JUMP JUMPDEST PUSH8 0xFFFFFFFFFFFFFFFF DUP2 GT ISZERO PUSH2 0x1E80 JUMPI PUSH2 0x1E7F PUSH2 0xF28 JUMP JUMPDEST JUMPDEST PUSH2 0x1E8A DUP3 SLOAD PUSH2 0x1985 JUMP JUMPDEST PUSH2 0x1E95 DUP3 DUP3 DUP6 PUSH2 0x1B00 JUMP JUMPDEST PUSH1 0x0 PUSH1 0x1F DUP4 GT PUSH1 0x1 DUP2 EQ PUSH2 0x1EC4 JUMPI PUSH1 0x0 DUP5 ISZERO PUSH2 0x1EB2 JUMPI DUP3 DUP8 ADD SLOAD SWAP1 POP JUMPDEST PUSH2 0x1EBC DUP6 DUP3 PUSH2 0x1B71 JUMP JUMPDEST DUP7 SSTORE POP PUSH2 0x1F2F JUMP JUMPDEST PUSH1 0x1F NOT DUP5 AND PUSH2 0x1ED2 DUP8 PUSH2 0x19CC JUMP JUMPDEST SWAP7 POP PUSH2 0x1EDD DUP7 PUSH2 0x19CC JUMP JUMPDEST PUSH1 0x0 JUMPDEST DUP3 DUP2 LT ISZERO PUSH2 0x1F05 JUMPI DUP5 DUP10 ADD SLOAD DUP3 SSTORE PUSH1 0x1 DUP3 ADD SWAP2 POP PUSH1 0x1 DUP6 ADD SWAP5 POP PUSH1 0x20 DUP2 ADD SWAP1 POP PUSH2 0x1EE0 JUMP JUMPDEST DUP7 DUP4 LT ISZERO PUSH2 0x1F22 JUMPI DUP5 DUP10 ADD SLOAD PUSH2 0x1F1E PUSH1 0x1F DUP10 AND DUP3 PUSH2 0x1B53 JUMP JUMPDEST DUP4 SSTORE POP JUMPDEST PUSH1 0x1 PUSH1 0x2 DUP9 MUL ADD DUP9 SSTORE POP POP POP JUMPDEST POP POP POP POP POP POP JUMPDEST JUMP INVALID LOG2 PUSH5 0x6970667358 0x22 SLT KECCAK256 DUP8 SWAP12 0xFC SSTORE 0x4B PUSH18 0x71C8936F3E6FDD9C1EC5C26BF456C20B4622 0xBC 0x49 PUSH22 0x3EE2A387C164736F6C63430008120033000000000000 "
				},
				"gasEstimates": {
					"creation": {
						"codeDepositCost": "1609200",
						"executionCost": "1687",
						"totalCost": "1610887"
					},
					"external": {
						"addProduct(uint256,string,string,string,uint256,string,string,string,string,string[],string[])": "infinite",
						"getProductDetails(bytes32)": "infinite",
						"updateProductDetails(bytes32,uint256,string,string)": "infinite"
					}
				},
				"methodIdentifiers": {
					"addProduct(uint256,string,string,string,uint256,string,string,string,string,string[],string[])": "dbda06f9",
					"getProductDetails(bytes32)": "b74d3fb5",
					"updateProductDetails(bytes32,uint256,string,string)": "2c24e37d"
				}
			},
			"storageLayout": {
				"storage": [
					{
						"astId": 31,
						"contract": "contracts/traceability.sol:TraceabilityContract",
						"label": "products",
						"offset": 0,
						"slot": "0",
						"type": "t_mapping(t_bytes32,t_struct(ProductDetails)26_storage)"
					}
				],
				"types": {
					"t_array(t_string_storage)dyn_storage": {
						"base": "t_string_storage",
						"encoding": "dynamic_array",
						"label": "string[]",
						"numberOfBytes": "32"
					},
					"t_bytes32": {
						"encoding": "inplace",
						"label": "bytes32",
						"numberOfBytes": "32"
					},
					"t_mapping(t_bytes32,t_struct(ProductDetails)26_storage)": {
						"encoding": "mapping",
						"key": "t_bytes32",
						"label": "mapping(bytes32 => struct TraceabilityContract.ProductDetails)",
						"numberOfBytes": "32",
						"value": "t_struct(ProductDetails)26_storage"
					},
					"t_string_storage": {
						"encoding": "bytes",
						"label": "string",
						"numberOfBytes": "32"
					},
					"t_struct(ProductDetails)26_storage": {
						"encoding": "inplace",
						"label": "struct TraceabilityContract.ProductDetails",
						"members": [
							{
								"astId": 3,
								"contract": "contracts/traceability.sol:TraceabilityContract",
								"label": "contractID",
								"offset": 0,
								"slot": "0",
								"type": "t_uint256"
							},
							{
								"astId": 5,
								"contract": "contracts/traceability.sol:TraceabilityContract",
								"label": "productName",
								"offset": 0,
								"slot": "1",
								"type": "t_string_storage"
							},
							{
								"astId": 7,
								"contract": "contracts/traceability.sol:TraceabilityContract",
								"label": "quantity",
								"offset": 0,
								"slot": "2",
								"type": "t_string_storage"
							},
							{
								"astId": 9,
								"contract": "contracts/traceability.sol:TraceabilityContract",
								"label": "quality",
								"offset": 0,
								"slot": "3",
								"type": "t_string_storage"
							},
							{
								"astId": 11,
								"contract": "contracts/traceability.sol:TraceabilityContract",
								"label": "farmerId",
								"offset": 0,
								"slot": "4",
								"type": "t_uint256"
							},
							{
								"astId": 13,
								"contract": "contracts/traceability.sol:TraceabilityContract",
								"label": "farmerName",
								"offset": 0,
								"slot": "5",
								"type": "t_string_storage"
							},
							{
								"astId": 15,
								"contract": "contracts/traceability.sol:TraceabilityContract",
								"label": "pickupLocation",
								"offset": 0,
								"slot": "6",
								"type": "t_string_storage"
							},
							{
								"astId": 17,
								"contract": "contracts/traceability.sol:TraceabilityContract",
								"label": "deliveryAddress",
								"offset": 0,
								"slot": "7",
								"type": "t_string_storage"
							},
							{
								"astId": 19,
								"contract": "contracts/traceability.sol:TraceabilityContract",
								"label": "offTakerName",
								"offset": 0,
								"slot": "8",
								"type": "t_string_storage"
							},
							{
								"astId": 22,
								"contract": "contracts/traceability.sol:TraceabilityContract",
								"label": "bagNumbers",
								"offset": 0,
								"slot": "9",
								"type": "t_array(t_string_storage)dyn_storage"
							},
							{
								"astId": 25,
								"contract": "contracts/traceability.sol:TraceabilityContract",
								"label": "bagQuantities",
								"offset": 0,
								"slot": "10",
								"type": "t_array(t_string_storage)dyn_storage"
							}
						],
						"numberOfBytes": "352"
					},
					"t_uint256": {
						"encoding": "inplace",
						"label": "uint256",
						"numberOfBytes": "32"
					}
				}
			},
			"userdoc": {
				"kind": "user",
				"methods": {},
				"version": 1
			}
		}
	}
}