{
	"contracts/traceability.sol": {
		"TraceabilityContract": {
			"abi": [
				{
					"anonymous": false,
					"inputs": [
						{
							"indexed": true,
							"internalType": "bytes32",
							"name": "hashKey",
							"type": "bytes32"
						}
					],
					"name": "ProductAdded",
					"type": "event"
				},
				{
					"inputs": [
						{
							"internalType": "uint256",
							"name": "_contractID",
							"type": "uint256"
						},
						{
							"internalType": "string",
							"name": "_productName",
							"type": "string"
						},
						{
							"internalType": "string",
							"name": "_quantity",
							"type": "string"
						},
						{
							"internalType": "string",
							"name": "_quality",
							"type": "string"
						},
						{
							"internalType": "uint256",
							"name": "_farmerId",
							"type": "uint256"
						},
						{
							"internalType": "string",
							"name": "_farmerName",
							"type": "string"
						},
						{
							"internalType": "string",
							"name": "_pickupLocation",
							"type": "string"
						},
						{
							"internalType": "string",
							"name": "_deliveryAddress",
							"type": "string"
						},
						{
							"internalType": "string",
							"name": "_offTakerName",
							"type": "string"
						},
						{
							"internalType": "string[]",
							"name": "_bagNumbers",
							"type": "string[]"
						},
						{
							"internalType": "string[]",
							"name": "_bagQuantities",
							"type": "string[]"
						}
					],
					"name": "addProduct",
					"outputs": [
						{
							"internalType": "bytes32",
							"name": "",
							"type": "bytes32"
						}
					],
					"stateMutability": "nonpayable",
					"type": "function"
				},
				{
					"inputs": [
						{
							"internalType": "bytes32",
							"name": "hashKey",
							"type": "bytes32"
						}
					],
					"name": "getProductDetails",
					"outputs": [
						{
							"components": [
								{
									"internalType": "uint256",
									"name": "contractID",
									"type": "uint256"
								},
								{
									"internalType": "string",
									"name": "productName",
									"type": "string"
								},
								{
									"internalType": "string",
									"name": "quantity",
									"type": "string"
								},
								{
									"internalType": "string",
									"name": "quality",
									"type": "string"
								},
								{
									"internalType": "uint256",
									"name": "farmerId",
									"type": "uint256"
								},
								{
									"internalType": "string",
									"name": "farmerName",
									"type": "string"
								},
								{
									"internalType": "string",
									"name": "pickupLocation",
									"type": "string"
								},
								{
									"internalType": "string",
									"name": "deliveryAddress",
									"type": "string"
								},
								{
									"internalType": "string",
									"name": "offTakerName",
									"type": "string"
								},
								{
									"internalType": "string[]",
									"name": "bagNumbers",
									"type": "string[]"
								},
								{
									"internalType": "string[]",
									"name": "bagQuantities",
									"type": "string[]"
								}
							],
							"internalType": "struct TraceabilityContract.ProductDetails",
							"name": "",
							"type": "tuple"
						}
					],
					"stateMutability": "view",
					"type": "function"
				},
				{
					"inputs": [
						{
							"internalType": "bytes32",
							"name": "_oldHashKey",
							"type": "bytes32"
						},
						{
							"internalType": "string",
							"name": "_contractID",
							"type": "string"
						},
						{
							"internalType": "string",
							"name": "_newQuality",
							"type": "string"
						},
						{
							"internalType": "string",
							"name": "_newQuantity",
							"type": "string"
						}
					],
					"name": "updateProductDetails",
					"outputs": [
						{
							"internalType": "bytes32",
							"name": "",
							"type": "bytes32"
						}
					],
					"stateMutability": "nonpayable",
					"type": "function"
				}
			],
			"devdoc": {
				"kind": "dev",
				"methods": {},
				"version": 1
			},
			"evm": {
				"assembly": "    /* \"contracts/traceability.sol\":60:3918  contract TraceabilityContract {... */\n  mstore(0x40, 0x80)\n  callvalue\n  dup1\n  iszero\n  tag_1\n  jumpi\n  0x00\n  dup1\n  revert\ntag_1:\n  pop\n  dataSize(sub_0)\n  dup1\n  dataOffset(sub_0)\n  0x00\n  codecopy\n  0x00\n  return\nstop\n\nsub_0: assembly {\n        /* \"contracts/traceability.sol\":60:3918  contract TraceabilityContract {... */\n      mstore(0x40, 0x80)\n      callvalue\n      dup1\n      iszero\n      tag_1\n      jumpi\n      0x00\n      dup1\n      revert\n    tag_1:\n      pop\n      jumpi(tag_2, lt(calldatasize, 0x04))\n      shr(0xe0, calldataload(0x00))\n      dup1\n      0xa5d8ad9f\n      eq\n      tag_3\n      jumpi\n      dup1\n      0xb74d3fb5\n      eq\n      tag_4\n      jumpi\n      dup1\n      0xdbda06f9\n      eq\n      tag_5\n      jumpi\n    tag_2:\n      0x00\n      dup1\n      revert\n        /* \"contracts/traceability.sol\":1781:3745  function updateProductDetails(... */\n    tag_3:\n      tag_6\n      0x04\n      dup1\n      calldatasize\n      sub\n      dup2\n      add\n      swap1\n      tag_7\n      swap2\n      swap1\n      tag_8\n      jump\t// in\n    tag_7:\n      tag_9\n      jump\t// in\n    tag_6:\n      mload(0x40)\n      tag_10\n      swap2\n      swap1\n      tag_11\n      jump\t// in\n    tag_10:\n      mload(0x40)\n      dup1\n      swap2\n      sub\n      swap1\n      return\n        /* \"contracts/traceability.sol\":3784:3915  function getProductDetails(bytes32 hashKey) public view returns (ProductDetails memory) {... */\n    tag_4:\n      tag_12\n      0x04\n      dup1\n      calldatasize\n      sub\n      dup2\n      add\n      swap1\n      tag_13\n      swap2\n      swap1\n      tag_14\n      jump\t// in\n    tag_13:\n      tag_15\n      jump\t// in\n    tag_12:\n      mload(0x40)\n      tag_16\n      swap2\n      swap1\n      tag_17\n      jump\t// in\n    tag_16:\n      mload(0x40)\n      dup1\n      swap2\n      sub\n      swap1\n      return\n        /* \"contracts/traceability.sol\":611:1740  function addProduct(... */\n    tag_5:\n      tag_18\n      0x04\n      dup1\n      calldatasize\n      sub\n      dup2\n      add\n      swap1\n      tag_19\n      swap2\n      swap1\n      tag_20\n      jump\t// in\n    tag_19:\n      tag_21\n      jump\t// in\n    tag_18:\n      mload(0x40)\n      tag_22\n      swap2\n      swap1\n      tag_11\n      jump\t// in\n    tag_22:\n      mload(0x40)\n      dup1\n      swap2\n      sub\n      swap1\n      return\n        /* \"contracts/traceability.sol\":1781:3745  function updateProductDetails(... */\n    tag_9:\n        /* \"contracts/traceability.sol\":1953:1960  bytes32 */\n      0x00\n        /* \"contracts/traceability.sol\":1969:1999  ProductDetails storage product */\n      dup1\n        /* \"contracts/traceability.sol\":2002:2010  products */\n      0x00\n        /* \"contracts/traceability.sol\":2002:2023  products[_oldHashKey] */\n      dup1\n        /* \"contracts/traceability.sol\":2011:2022  _oldHashKey */\n      dup8\n        /* \"contracts/traceability.sol\":2002:2023  products[_oldHashKey] */\n      dup2\n      mstore\n      0x20\n      add\n      swap1\n      dup2\n      mstore\n      0x20\n      add\n      0x00\n      keccak256\n        /* \"contracts/traceability.sol\":1969:2023  ProductDetails storage product = products[_oldHashKey] */\n      swap1\n      pop\n        /* \"contracts/traceability.sol\":2060:2061  0 */\n      0x00\n        /* \"contracts/traceability.sol\":2038:2045  product */\n      dup2\n        /* \"contracts/traceability.sol\":2038:2056  product.contractID */\n      0x00\n      add\n      sload\n        /* \"contracts/traceability.sol\":2038:2061  product.contractID != 0 */\n      sub\n        /* \"contracts/traceability.sol\":2030:2088  require(product.contractID != 0, \"Product does not exist\") */\n      tag_24\n      jumpi\n      mload(0x40)\n      0x08c379a000000000000000000000000000000000000000000000000000000000\n      dup2\n      mstore\n      0x04\n      add\n      tag_25\n      swap1\n      tag_26\n      jump\t// in\n    tag_25:\n      mload(0x40)\n      dup1\n      swap2\n      sub\n      swap1\n      revert\n    tag_24:\n        /* \"contracts/traceability.sol\":2103:2121  bytes32 newHashKey */\n      0x00\n        /* \"contracts/traceability.sol\":2160:2161  0 */\n      dup1\n        /* \"contracts/traceability.sol\":2138:2149  _newQuality */\n      dup6\n        /* \"contracts/traceability.sol\":2132:2157  bytes(_newQuality).length */\n      mload\n        /* \"contracts/traceability.sol\":2132:2161  bytes(_newQuality).length > 0 */\n      gt\n        /* \"contracts/traceability.sol\":2132:2195  bytes(_newQuality).length > 0 && bytes(_newQuantity).length > 0 */\n      dup1\n      iszero\n      tag_27\n      jumpi\n      pop\n        /* \"contracts/traceability.sol\":2194:2195  0 */\n      0x00\n        /* \"contracts/traceability.sol\":2171:2183  _newQuantity */\n      dup5\n        /* \"contracts/traceability.sol\":2165:2191  bytes(_newQuantity).length */\n      mload\n        /* \"contracts/traceability.sol\":2165:2195  bytes(_newQuantity).length > 0 */\n      gt\n        /* \"contracts/traceability.sol\":2132:2195  bytes(_newQuality).length > 0 && bytes(_newQuantity).length > 0 */\n    tag_27:\n        /* \"contracts/traceability.sol\":2128:2831  if (bytes(_newQuality).length > 0 && bytes(_newQuantity).length > 0) {... */\n      iszero\n      tag_28\n      jumpi\n        /* \"contracts/traceability.sol\":2262:2273  _contractID */\n      dup6\n        /* \"contracts/traceability.sol\":2288:2299  _oldHashKey */\n      dup8\n        /* \"contracts/traceability.sol\":2314:2326  _newQuantity */\n      dup6\n        /* \"contracts/traceability.sol\":2341:2352  _newQuality */\n      dup8\n        /* \"contracts/traceability.sol\":2231:2363  abi.encodePacked(... */\n      add(0x20, mload(0x40))\n      tag_29\n      swap5\n      swap4\n      swap3\n      swap2\n      swap1\n      tag_30\n      jump\t// in\n    tag_29:\n      mload(0x40)\n      0x20\n      dup2\n      dup4\n      sub\n      sub\n      dup2\n      mstore\n      swap1\n      0x40\n      mstore\n        /* \"contracts/traceability.sol\":2221:2364  keccak256(abi.encodePacked(... */\n      dup1\n      mload\n      swap1\n      0x20\n      add\n      keccak256\n        /* \"contracts/traceability.sol\":2208:2364  newHashKey = keccak256(abi.encodePacked(... */\n      swap1\n      pop\n        /* \"contracts/traceability.sol\":2128:2831  if (bytes(_newQuality).length > 0 && bytes(_newQuantity).length > 0) {... */\n      jump(tag_31)\n    tag_28:\n        /* \"contracts/traceability.sol\":2410:2411  0 */\n      0x00\n        /* \"contracts/traceability.sol\":2388:2399  _newQuality */\n      dup6\n        /* \"contracts/traceability.sol\":2382:2407  bytes(_newQuality).length */\n      mload\n        /* \"contracts/traceability.sol\":2382:2411  bytes(_newQuality).length > 0 */\n      gt\n        /* \"contracts/traceability.sol\":2378:2831  if (bytes(_newQuality).length > 0) {... */\n      iszero\n      tag_32\n      jumpi\n        /* \"contracts/traceability.sol\":2478:2489  _contractID */\n      dup6\n        /* \"contracts/traceability.sol\":2504:2515  _oldHashKey */\n      dup8\n        /* \"contracts/traceability.sol\":2530:2541  _newQuality */\n      dup7\n        /* \"contracts/traceability.sol\":2447:2552  abi.encodePacked(... */\n      add(0x20, mload(0x40))\n      tag_33\n      swap4\n      swap3\n      swap2\n      swap1\n      tag_34\n      jump\t// in\n    tag_33:\n      mload(0x40)\n      0x20\n      dup2\n      dup4\n      sub\n      sub\n      dup2\n      mstore\n      swap1\n      0x40\n      mstore\n        /* \"contracts/traceability.sol\":2437:2553  keccak256(abi.encodePacked(... */\n      dup1\n      mload\n      swap1\n      0x20\n      add\n      keccak256\n        /* \"contracts/traceability.sol\":2424:2553  newHashKey = keccak256(abi.encodePacked(... */\n      swap1\n      pop\n        /* \"contracts/traceability.sol\":2378:2831  if (bytes(_newQuality).length > 0) {... */\n      jump(tag_35)\n    tag_32:\n        /* \"contracts/traceability.sol\":2600:2601  0 */\n      0x00\n        /* \"contracts/traceability.sol\":2577:2589  _newQuantity */\n      dup5\n        /* \"contracts/traceability.sol\":2571:2597  bytes(_newQuantity).length */\n      mload\n        /* \"contracts/traceability.sol\":2571:2601  bytes(_newQuantity).length > 0 */\n      gt\n        /* \"contracts/traceability.sol\":2567:2831  if (bytes(_newQuantity).length > 0) {... */\n      iszero\n      tag_36\n      jumpi\n        /* \"contracts/traceability.sol\":2668:2679  _contractID */\n      dup6\n        /* \"contracts/traceability.sol\":2694:2705  _oldHashKey */\n      dup8\n        /* \"contracts/traceability.sol\":2720:2732  _newQuantity */\n      dup6\n        /* \"contracts/traceability.sol\":2637:2743  abi.encodePacked(... */\n      add(0x20, mload(0x40))\n      tag_37\n      swap4\n      swap3\n      swap2\n      swap1\n      tag_34\n      jump\t// in\n    tag_37:\n      mload(0x40)\n      0x20\n      dup2\n      dup4\n      sub\n      sub\n      dup2\n      mstore\n      swap1\n      0x40\n      mstore\n        /* \"contracts/traceability.sol\":2627:2744  keccak256(abi.encodePacked(... */\n      dup1\n      mload\n      swap1\n      0x20\n      add\n      keccak256\n        /* \"contracts/traceability.sol\":2614:2744  newHashKey = keccak256(abi.encodePacked(... */\n      swap1\n      pop\n        /* \"contracts/traceability.sol\":2567:2831  if (bytes(_newQuantity).length > 0) {... */\n      jump(tag_38)\n    tag_36:\n        /* \"contracts/traceability.sol\":2769:2823  revert(\"Either quality or quantity should be updated\") */\n      mload(0x40)\n      0x08c379a000000000000000000000000000000000000000000000000000000000\n      dup2\n      mstore\n      0x04\n      add\n      tag_39\n      swap1\n      tag_40\n      jump\t// in\n    tag_39:\n      mload(0x40)\n      dup1\n      swap2\n      sub\n      swap1\n      revert\n        /* \"contracts/traceability.sol\":2567:2831  if (bytes(_newQuantity).length > 0) {... */\n    tag_38:\n        /* \"contracts/traceability.sol\":2378:2831  if (bytes(_newQuality).length > 0) {... */\n    tag_35:\n        /* \"contracts/traceability.sol\":2128:2831  if (bytes(_newQuality).length > 0 && bytes(_newQuantity).length > 0) {... */\n    tag_31:\n        /* \"contracts/traceability.sol\":2892:2893  0 */\n      0x00\n        /* \"contracts/traceability.sol\":2857:2865  products */\n      dup1\n        /* \"contracts/traceability.sol\":2857:2877  products[newHashKey] */\n      0x00\n        /* \"contracts/traceability.sol\":2866:2876  newHashKey */\n      dup4\n        /* \"contracts/traceability.sol\":2857:2877  products[newHashKey] */\n      dup2\n      mstore\n      0x20\n      add\n      swap1\n      dup2\n      mstore\n      0x20\n      add\n      0x00\n      keccak256\n        /* \"contracts/traceability.sol\":2857:2888  products[newHashKey].contractID */\n      0x00\n      add\n      sload\n        /* \"contracts/traceability.sol\":2857:2893  products[newHashKey].contractID == 0 */\n      eq\n        /* \"contracts/traceability.sol\":2839:2965  require(... */\n      tag_41\n      jumpi\n      mload(0x40)\n      0x08c379a000000000000000000000000000000000000000000000000000000000\n      dup2\n      mstore\n      0x04\n      add\n      tag_42\n      swap1\n      tag_43\n      jump\t// in\n    tag_42:\n      mload(0x40)\n      dup1\n      swap2\n      sub\n      swap1\n      revert\n    tag_41:\n        /* \"contracts/traceability.sol\":2974:3007  ProductDetails storage newProduct */\n      0x00\n        /* \"contracts/traceability.sol\":3010:3018  products */\n      dup1\n        /* \"contracts/traceability.sol\":3010:3030  products[newHashKey] */\n      0x00\n        /* \"contracts/traceability.sol\":3019:3029  newHashKey */\n      dup4\n        /* \"contracts/traceability.sol\":3010:3030  products[newHashKey] */\n      dup2\n      mstore\n      0x20\n      add\n      swap1\n      dup2\n      mstore\n      0x20\n      add\n      0x00\n      keccak256\n        /* \"contracts/traceability.sol\":2974:3030  ProductDetails storage newProduct = products[newHashKey] */\n      swap1\n      pop\n        /* \"contracts/traceability.sol\":3061:3068  product */\n      dup3\n        /* \"contracts/traceability.sol\":3061:3079  product.contractID */\n      0x00\n      add\n      sload\n        /* \"contracts/traceability.sol\":3037:3047  newProduct */\n      dup2\n        /* \"contracts/traceability.sol\":3037:3058  newProduct.contractID */\n      0x00\n      add\n        /* \"contracts/traceability.sol\":3037:3079  newProduct.contractID = product.contractID */\n      dup2\n      swap1\n      sstore\n      pop\n        /* \"contracts/traceability.sol\":3111:3118  product */\n      dup3\n        /* \"contracts/traceability.sol\":3111:3130  product.productName */\n      0x01\n      add\n        /* \"contracts/traceability.sol\":3086:3096  newProduct */\n      dup2\n        /* \"contracts/traceability.sol\":3086:3108  newProduct.productName */\n      0x01\n      add\n        /* \"contracts/traceability.sol\":3086:3130  newProduct.productName = product.productName */\n      swap1\n      dup2\n      tag_44\n      swap2\n      swap1\n      tag_45\n      jump\t// in\n    tag_44:\n      pop\n        /* \"contracts/traceability.sol\":3188:3189  0 */\n      0x00\n        /* \"contracts/traceability.sol\":3165:3177  _newQuantity */\n      dup6\n        /* \"contracts/traceability.sol\":3159:3185  bytes(_newQuantity).length */\n      mload\n        /* \"contracts/traceability.sol\":3159:3189  bytes(_newQuantity).length > 0 */\n      gt\n        /* \"contracts/traceability.sol\":3159:3223  bytes(_newQuantity).length > 0 ? _newQuantity : product.quantity */\n      tag_46\n      jumpi\n        /* \"contracts/traceability.sol\":3207:3214  product */\n      dup3\n        /* \"contracts/traceability.sol\":3207:3223  product.quantity */\n      0x02\n      add\n        /* \"contracts/traceability.sol\":3159:3223  bytes(_newQuantity).length > 0 ? _newQuantity : product.quantity */\n      dup1\n      sload\n      tag_47\n      swap1\n      tag_48\n      jump\t// in\n    tag_47:\n      dup1\n      0x1f\n      add\n      0x20\n      dup1\n      swap2\n      div\n      mul\n      0x20\n      add\n      mload(0x40)\n      swap1\n      dup2\n      add\n      0x40\n      mstore\n      dup1\n      swap3\n      swap2\n      swap1\n      dup2\n      dup2\n      mstore\n      0x20\n      add\n      dup3\n      dup1\n      sload\n      tag_49\n      swap1\n      tag_48\n      jump\t// in\n    tag_49:\n      dup1\n      iszero\n      tag_50\n      jumpi\n      dup1\n      0x1f\n      lt\n      tag_51\n      jumpi\n      0x0100\n      dup1\n      dup4\n      sload\n      div\n      mul\n      dup4\n      mstore\n      swap2\n      0x20\n      add\n      swap2\n      jump(tag_50)\n    tag_51:\n      dup3\n      add\n      swap2\n      swap1\n      0x00\n      mstore\n      keccak256(0x00, 0x20)\n      swap1\n    tag_52:\n      dup2\n      sload\n      dup2\n      mstore\n      swap1\n      0x01\n      add\n      swap1\n      0x20\n      add\n      dup1\n      dup4\n      gt\n      tag_52\n      jumpi\n      dup3\n      swap1\n      sub\n      0x1f\n      and\n      dup3\n      add\n      swap2\n    tag_50:\n      pop\n      pop\n      pop\n      pop\n      pop\n      jump(tag_53)\n    tag_46:\n        /* \"contracts/traceability.sol\":3192:3204  _newQuantity */\n      dup5\n        /* \"contracts/traceability.sol\":3159:3223  bytes(_newQuantity).length > 0 ? _newQuantity : product.quantity */\n    tag_53:\n        /* \"contracts/traceability.sol\":3137:3147  newProduct */\n      dup2\n        /* \"contracts/traceability.sol\":3137:3156  newProduct.quantity */\n      0x02\n      add\n        /* \"contracts/traceability.sol\":3137:3223  newProduct.quantity = bytes(_newQuantity).length > 0 ? _newQuantity : product.quantity */\n      swap1\n      dup2\n      tag_54\n      swap2\n      swap1\n      tag_55\n      jump\t// in\n    tag_54:\n      pop\n        /* \"contracts/traceability.sol\":3279:3280  0 */\n      0x00\n        /* \"contracts/traceability.sol\":3257:3268  _newQuality */\n      dup7\n        /* \"contracts/traceability.sol\":3251:3276  bytes(_newQuality).length */\n      mload\n        /* \"contracts/traceability.sol\":3251:3280  bytes(_newQuality).length > 0 */\n      gt\n        /* \"contracts/traceability.sol\":3251:3312  bytes(_newQuality).length > 0 ? _newQuality : product.quality */\n      tag_56\n      jumpi\n        /* \"contracts/traceability.sol\":3297:3304  product */\n      dup3\n        /* \"contracts/traceability.sol\":3297:3312  product.quality */\n      0x03\n      add\n        /* \"contracts/traceability.sol\":3251:3312  bytes(_newQuality).length > 0 ? _newQuality : product.quality */\n      dup1\n      sload\n      tag_57\n      swap1\n      tag_48\n      jump\t// in\n    tag_57:\n      dup1\n      0x1f\n      add\n      0x20\n      dup1\n      swap2\n      div\n      mul\n      0x20\n      add\n      mload(0x40)\n      swap1\n      dup2\n      add\n      0x40\n      mstore\n      dup1\n      swap3\n      swap2\n      swap1\n      dup2\n      dup2\n      mstore\n      0x20\n      add\n      dup3\n      dup1\n      sload\n      tag_58\n      swap1\n      tag_48\n      jump\t// in\n    tag_58:\n      dup1\n      iszero\n      tag_59\n      jumpi\n      dup1\n      0x1f\n      lt\n      tag_60\n      jumpi\n      0x0100\n      dup1\n      dup4\n      sload\n      div\n      mul\n      dup4\n      mstore\n      swap2\n      0x20\n      add\n      swap2\n      jump(tag_59)\n    tag_60:\n      dup3\n      add\n      swap2\n      swap1\n      0x00\n      mstore\n      keccak256(0x00, 0x20)\n      swap1\n    tag_61:\n      dup2\n      sload\n      dup2\n      mstore\n      swap1\n      0x01\n      add\n      swap1\n      0x20\n      add\n      dup1\n      dup4\n      gt\n      tag_61\n      jumpi\n      dup3\n      swap1\n      sub\n      0x1f\n      and\n      dup3\n      add\n      swap2\n    tag_59:\n      pop\n      pop\n      pop\n      pop\n      pop\n      jump(tag_62)\n    tag_56:\n        /* \"contracts/traceability.sol\":3283:3294  _newQuality */\n      dup6\n        /* \"contracts/traceability.sol\":3251:3312  bytes(_newQuality).length > 0 ? _newQuality : product.quality */\n    tag_62:\n        /* \"contracts/traceability.sol\":3230:3240  newProduct */\n      dup2\n        /* \"contracts/traceability.sol\":3230:3248  newProduct.quality */\n      0x03\n      add\n        /* \"contracts/traceability.sol\":3230:3312  newProduct.quality = bytes(_newQuality).length > 0 ? _newQuality : product.quality */\n      swap1\n      dup2\n      tag_63\n      swap2\n      swap1\n      tag_55\n      jump\t// in\n    tag_63:\n      pop\n        /* \"contracts/traceability.sol\":3341:3348  product */\n      dup3\n        /* \"contracts/traceability.sol\":3341:3357  product.farmerId */\n      0x04\n      add\n      sload\n        /* \"contracts/traceability.sol\":3319:3329  newProduct */\n      dup2\n        /* \"contracts/traceability.sol\":3319:3338  newProduct.farmerId */\n      0x04\n      add\n        /* \"contracts/traceability.sol\":3319:3357  newProduct.farmerId = product.farmerId */\n      dup2\n      swap1\n      sstore\n      pop\n        /* \"contracts/traceability.sol\":3388:3395  product */\n      dup3\n        /* \"contracts/traceability.sol\":3388:3406  product.farmerName */\n      0x05\n      add\n        /* \"contracts/traceability.sol\":3364:3374  newProduct */\n      dup2\n        /* \"contracts/traceability.sol\":3364:3385  newProduct.farmerName */\n      0x05\n      add\n        /* \"contracts/traceability.sol\":3364:3406  newProduct.farmerName = product.farmerName */\n      swap1\n      dup2\n      tag_64\n      swap2\n      swap1\n      tag_45\n      jump\t// in\n    tag_64:\n      pop\n        /* \"contracts/traceability.sol\":3439:3446  product */\n      dup3\n        /* \"contracts/traceability.sol\":3439:3459  product.offTakerName */\n      0x08\n      add\n        /* \"contracts/traceability.sol\":3413:3423  newProduct */\n      dup2\n        /* \"contracts/traceability.sol\":3413:3436  newProduct.offTakerName */\n      0x08\n      add\n        /* \"contracts/traceability.sol\":3413:3459  newProduct.offTakerName = product.offTakerName */\n      swap1\n      dup2\n      tag_65\n      swap2\n      swap1\n      tag_45\n      jump\t// in\n    tag_65:\n      pop\n        /* \"contracts/traceability.sol\":3494:3501  product */\n      dup3\n        /* \"contracts/traceability.sol\":3494:3516  product.pickupLocation */\n      0x06\n      add\n        /* \"contracts/traceability.sol\":3466:3476  newProduct */\n      dup2\n        /* \"contracts/traceability.sol\":3466:3491  newProduct.pickupLocation */\n      0x06\n      add\n        /* \"contracts/traceability.sol\":3466:3516  newProduct.pickupLocation = product.pickupLocation */\n      swap1\n      dup2\n      tag_66\n      swap2\n      swap1\n      tag_45\n      jump\t// in\n    tag_66:\n      pop\n        /* \"contracts/traceability.sol\":3552:3559  product */\n      dup3\n        /* \"contracts/traceability.sol\":3552:3575  product.deliveryAddress */\n      0x07\n      add\n        /* \"contracts/traceability.sol\":3523:3533  newProduct */\n      dup2\n        /* \"contracts/traceability.sol\":3523:3549  newProduct.deliveryAddress */\n      0x07\n      add\n        /* \"contracts/traceability.sol\":3523:3575  newProduct.deliveryAddress = product.deliveryAddress */\n      swap1\n      dup2\n      tag_67\n      swap2\n      swap1\n      tag_45\n      jump\t// in\n    tag_67:\n      pop\n        /* \"contracts/traceability.sol\":3606:3613  product */\n      dup3\n        /* \"contracts/traceability.sol\":3606:3624  product.bagNumbers */\n      0x09\n      add\n        /* \"contracts/traceability.sol\":3582:3592  newProduct */\n      dup2\n        /* \"contracts/traceability.sol\":3582:3603  newProduct.bagNumbers */\n      0x09\n      add\n        /* \"contracts/traceability.sol\":3582:3624  newProduct.bagNumbers = product.bagNumbers */\n      swap1\n      dup1\n      sload\n      tag_68\n      swap3\n      swap2\n      swap1\n      tag_69\n      jump\t// in\n    tag_68:\n      pop\n        /* \"contracts/traceability.sol\":3658:3665  product */\n      dup3\n        /* \"contracts/traceability.sol\":3658:3679  product.bagQuantities */\n      0x0a\n      add\n        /* \"contracts/traceability.sol\":3631:3641  newProduct */\n      dup2\n        /* \"contracts/traceability.sol\":3631:3655  newProduct.bagQuantities */\n      0x0a\n      add\n        /* \"contracts/traceability.sol\":3631:3679  newProduct.bagQuantities = product.bagQuantities */\n      swap1\n      dup1\n      sload\n      tag_70\n      swap3\n      swap2\n      swap1\n      tag_69\n      jump\t// in\n    tag_70:\n      pop\n        /* \"contracts/traceability.sol\":3706:3716  newHashKey */\n      dup2\n        /* \"contracts/traceability.sol\":3693:3717  ProductAdded(newHashKey) */\n      0x6c2de183f2a2faf4876f357e3c75bf6e6e7aa4dd120e8b5e1bdb2901e085f69c\n      mload(0x40)\n      mload(0x40)\n      dup1\n      swap2\n      sub\n      swap1\n      log2\n        /* \"contracts/traceability.sol\":3731:3741  newHashKey */\n      dup2\n        /* \"contracts/traceability.sol\":3724:3741  return newHashKey */\n      swap4\n      pop\n      pop\n      pop\n      pop\n        /* \"contracts/traceability.sol\":1781:3745  function updateProductDetails(... */\n      swap5\n      swap4\n      pop\n      pop\n      pop\n      pop\n      jump\t// out\n        /* \"contracts/traceability.sol\":3784:3915  function getProductDetails(bytes32 hashKey) public view returns (ProductDetails memory) {... */\n    tag_15:\n        /* \"contracts/traceability.sol\":3849:3870  ProductDetails memory */\n      tag_71\n      tag_72\n      jump\t// in\n    tag_71:\n        /* \"contracts/traceability.sol\":3890:3898  products */\n      0x00\n        /* \"contracts/traceability.sol\":3890:3907  products[hashKey] */\n      dup1\n        /* \"contracts/traceability.sol\":3899:3906  hashKey */\n      dup4\n        /* \"contracts/traceability.sol\":3890:3907  products[hashKey] */\n      dup2\n      mstore\n      0x20\n      add\n      swap1\n      dup2\n      mstore\n      0x20\n      add\n      0x00\n      keccak256\n        /* \"contracts/traceability.sol\":3883:3907  return products[hashKey] */\n      mload(0x40)\n      dup1\n      0x0160\n      add\n      0x40\n      mstore\n      swap1\n      dup2\n      0x00\n      dup3\n      add\n      sload\n      dup2\n      mstore\n      0x20\n      add\n      0x01\n      dup3\n      add\n      dup1\n      sload\n      tag_74\n      swap1\n      tag_48\n      jump\t// in\n    tag_74:\n      dup1\n      0x1f\n      add\n      0x20\n      dup1\n      swap2\n      div\n      mul\n      0x20\n      add\n      mload(0x40)\n      swap1\n      dup2\n      add\n      0x40\n      mstore\n      dup1\n      swap3\n      swap2\n      swap1\n      dup2\n      dup2\n      mstore\n      0x20\n      add\n      dup3\n      dup1\n      sload\n      tag_75\n      swap1\n      tag_48\n      jump\t// in\n    tag_75:\n      dup1\n      iszero\n      tag_76\n      jumpi\n      dup1\n      0x1f\n      lt\n      tag_77\n      jumpi\n      0x0100\n      dup1\n      dup4\n      sload\n      div\n      mul\n      dup4\n      mstore\n      swap2\n      0x20\n      add\n      swap2\n      jump(tag_76)\n    tag_77:\n      dup3\n      add\n      swap2\n      swap1\n      0x00\n      mstore\n      keccak256(0x00, 0x20)\n      swap1\n    tag_78:\n      dup2\n      sload\n      dup2\n      mstore\n      swap1\n      0x01\n      add\n      swap1\n      0x20\n      add\n      dup1\n      dup4\n      gt\n      tag_78\n      jumpi\n      dup3\n      swap1\n      sub\n      0x1f\n      and\n      dup3\n      add\n      swap2\n    tag_76:\n      pop\n      pop\n      pop\n      pop\n      pop\n      dup2\n      mstore\n      0x20\n      add\n      0x02\n      dup3\n      add\n      dup1\n      sload\n      tag_79\n      swap1\n      tag_48\n      jump\t// in\n    tag_79:\n      dup1\n      0x1f\n      add\n      0x20\n      dup1\n      swap2\n      div\n      mul\n      0x20\n      add\n      mload(0x40)\n      swap1\n      dup2\n      add\n      0x40\n      mstore\n      dup1\n      swap3\n      swap2\n      swap1\n      dup2\n      dup2\n      mstore\n      0x20\n      add\n      dup3\n      dup1\n      sload\n      tag_80\n      swap1\n      tag_48\n      jump\t// in\n    tag_80:\n      dup1\n      iszero\n      tag_81\n      jumpi\n      dup1\n      0x1f\n      lt\n      tag_82\n      jumpi\n      0x0100\n      dup1\n      dup4\n      sload\n      div\n      mul\n      dup4\n      mstore\n      swap2\n      0x20\n      add\n      swap2\n      jump(tag_81)\n    tag_82:\n      dup3\n      add\n      swap2\n      swap1\n      0x00\n      mstore\n      keccak256(0x00, 0x20)\n      swap1\n    tag_83:\n      dup2\n      sload\n      dup2\n      mstore\n      swap1\n      0x01\n      add\n      swap1\n      0x20\n      add\n      dup1\n      dup4\n      gt\n      tag_83\n      jumpi\n      dup3\n      swap1\n      sub\n      0x1f\n      and\n      dup3\n      add\n      swap2\n    tag_81:\n      pop\n      pop\n      pop\n      pop\n      pop\n      dup2\n      mstore\n      0x20\n      add\n      0x03\n      dup3\n      add\n      dup1\n      sload\n      tag_84\n      swap1\n      tag_48\n      jump\t// in\n    tag_84:\n      dup1\n      0x1f\n      add\n      0x20\n      dup1\n      swap2\n      div\n      mul\n      0x20\n      add\n      mload(0x40)\n      swap1\n      dup2\n      add\n      0x40\n      mstore\n      dup1\n      swap3\n      swap2\n      swap1\n      dup2\n      dup2\n      mstore\n      0x20\n      add\n      dup3\n      dup1\n      sload\n      tag_85\n      swap1\n      tag_48\n      jump\t// in\n    tag_85:\n      dup1\n      iszero\n      tag_86\n      jumpi\n      dup1\n      0x1f\n      lt\n      tag_87\n      jumpi\n      0x0100\n      dup1\n      dup4\n      sload\n      div\n      mul\n      dup4\n      mstore\n      swap2\n      0x20\n      add\n      swap2\n      jump(tag_86)\n    tag_87:\n      dup3\n      add\n      swap2\n      swap1\n      0x00\n      mstore\n      keccak256(0x00, 0x20)\n      swap1\n    tag_88:\n      dup2\n      sload\n      dup2\n      mstore\n      swap1\n      0x01\n      add\n      swap1\n      0x20\n      add\n      dup1\n      dup4\n      gt\n      tag_88\n      jumpi\n      dup3\n      swap1\n      sub\n      0x1f\n      and\n      dup3\n      add\n      swap2\n    tag_86:\n      pop\n      pop\n      pop\n      pop\n      pop\n      dup2\n      mstore\n      0x20\n      add\n      0x04\n      dup3\n      add\n      sload\n      dup2\n      mstore\n      0x20\n      add\n      0x05\n      dup3\n      add\n      dup1\n      sload\n      tag_89\n      swap1\n      tag_48\n      jump\t// in\n    tag_89:\n      dup1\n      0x1f\n      add\n      0x20\n      dup1\n      swap2\n      div\n      mul\n      0x20\n      add\n      mload(0x40)\n      swap1\n      dup2\n      add\n      0x40\n      mstore\n      dup1\n      swap3\n      swap2\n      swap1\n      dup2\n      dup2\n      mstore\n      0x20\n      add\n      dup3\n      dup1\n      sload\n      tag_90\n      swap1\n      tag_48\n      jump\t// in\n    tag_90:\n      dup1\n      iszero\n      tag_91\n      jumpi\n      dup1\n      0x1f\n      lt\n      tag_92\n      jumpi\n      0x0100\n      dup1\n      dup4\n      sload\n      div\n      mul\n      dup4\n      mstore\n      swap2\n      0x20\n      add\n      swap2\n      jump(tag_91)\n    tag_92:\n      dup3\n      add\n      swap2\n      swap1\n      0x00\n      mstore\n      keccak256(0x00, 0x20)\n      swap1\n    tag_93:\n      dup2\n      sload\n      dup2\n      mstore\n      swap1\n      0x01\n      add\n      swap1\n      0x20\n      add\n      dup1\n      dup4\n      gt\n      tag_93\n      jumpi\n      dup3\n      swap1\n      sub\n      0x1f\n      and\n      dup3\n      add\n      swap2\n    tag_91:\n      pop\n      pop\n      pop\n      pop\n      pop\n      dup2\n      mstore\n      0x20\n      add\n      0x06\n      dup3\n      add\n      dup1\n      sload\n      tag_94\n      swap1\n      tag_48\n      jump\t// in\n    tag_94:\n      dup1\n      0x1f\n      add\n      0x20\n      dup1\n      swap2\n      div\n      mul\n      0x20\n      add\n      mload(0x40)\n      swap1\n      dup2\n      add\n      0x40\n      mstore\n      dup1\n      swap3\n      swap2\n      swap1\n      dup2\n      dup2\n      mstore\n      0x20\n      add\n      dup3\n      dup1\n      sload\n      tag_95\n      swap1\n      tag_48\n      jump\t// in\n    tag_95:\n      dup1\n      iszero\n      tag_96\n      jumpi\n      dup1\n      0x1f\n      lt\n      tag_97\n      jumpi\n      0x0100\n      dup1\n      dup4\n      sload\n      div\n      mul\n      dup4\n      mstore\n      swap2\n      0x20\n      add\n      swap2\n      jump(tag_96)\n    tag_97:\n      dup3\n      add\n      swap2\n      swap1\n      0x00\n      mstore\n      keccak256(0x00, 0x20)\n      swap1\n    tag_98:\n      dup2\n      sload\n      dup2\n      mstore\n      swap1\n      0x01\n      add\n      swap1\n      0x20\n      add\n      dup1\n      dup4\n      gt\n      tag_98\n      jumpi\n      dup3\n      swap1\n      sub\n      0x1f\n      and\n      dup3\n      add\n      swap2\n    tag_96:\n      pop\n      pop\n      pop\n      pop\n      pop\n      dup2\n      mstore\n      0x20\n      add\n      0x07\n      dup3\n      add\n      dup1\n      sload\n      tag_99\n      swap1\n      tag_48\n      jump\t// in\n    tag_99:\n      dup1\n      0x1f\n      add\n      0x20\n      dup1\n      swap2\n      div\n      mul\n      0x20\n      add\n      mload(0x40)\n      swap1\n      dup2\n      add\n      0x40\n      mstore\n      dup1\n      swap3\n      swap2\n      swap1\n      dup2\n      dup2\n      mstore\n      0x20\n      add\n      dup3\n      dup1\n      sload\n      tag_100\n      swap1\n      tag_48\n      jump\t// in\n    tag_100:\n      dup1\n      iszero\n      tag_101\n      jumpi\n      dup1\n      0x1f\n      lt\n      tag_102\n      jumpi\n      0x0100\n      dup1\n      dup4\n      sload\n      div\n      mul\n      dup4\n      mstore\n      swap2\n      0x20\n      add\n      swap2\n      jump(tag_101)\n    tag_102:\n      dup3\n      add\n      swap2\n      swap1\n      0x00\n      mstore\n      keccak256(0x00, 0x20)\n      swap1\n    tag_103:\n      dup2\n      sload\n      dup2\n      mstore\n      swap1\n      0x01\n      add\n      swap1\n      0x20\n      add\n      dup1\n      dup4\n      gt\n      tag_103\n      jumpi\n      dup3\n      swap1\n      sub\n      0x1f\n      and\n      dup3\n      add\n      swap2\n    tag_101:\n      pop\n      pop\n      pop\n      pop\n      pop\n      dup2\n      mstore\n      0x20\n      add\n      0x08\n      dup3\n      add\n      dup1\n      sload\n      tag_104\n      swap1\n      tag_48\n      jump\t// in\n    tag_104:\n      dup1\n      0x1f\n      add\n      0x20\n      dup1\n      swap2\n      div\n      mul\n      0x20\n      add\n      mload(0x40)\n      swap1\n      dup2\n      add\n      0x40\n      mstore\n      dup1\n      swap3\n      swap2\n      swap1\n      dup2\n      dup2\n      mstore\n      0x20\n      add\n      dup3\n      dup1\n      sload\n      tag_105\n      swap1\n      tag_48\n      jump\t// in\n    tag_105:\n      dup1\n      iszero\n      tag_106\n      jumpi\n      dup1\n      0x1f\n      lt\n      tag_107\n      jumpi\n      0x0100\n      dup1\n      dup4\n      sload\n      div\n      mul\n      dup4\n      mstore\n      swap2\n      0x20\n      add\n      swap2\n      jump(tag_106)\n    tag_107:\n      dup3\n      add\n      swap2\n      swap1\n      0x00\n      mstore\n      keccak256(0x00, 0x20)\n      swap1\n    tag_108:\n      dup2\n      sload\n      dup2\n      mstore\n      swap1\n      0x01\n      add\n      swap1\n      0x20\n      add\n      dup1\n      dup4\n      gt\n      tag_108\n      jumpi\n      dup3\n      swap1\n      sub\n      0x1f\n      and\n      dup3\n      add\n      swap2\n    tag_106:\n      pop\n      pop\n      pop\n      pop\n      pop\n      dup2\n      mstore\n      0x20\n      add\n      0x09\n      dup3\n      add\n      dup1\n      sload\n      dup1\n      0x20\n      mul\n      0x20\n      add\n      mload(0x40)\n      swap1\n      dup2\n      add\n      0x40\n      mstore\n      dup1\n      swap3\n      swap2\n      swap1\n      dup2\n      dup2\n      mstore\n      0x20\n      add\n      0x00\n      swap1\n    tag_109:\n      dup3\n      dup3\n      lt\n      iszero\n      tag_110\n      jumpi\n      dup4\n      dup3\n      swap1\n      0x00\n      mstore\n      keccak256(0x00, 0x20)\n      add\n      dup1\n      sload\n      tag_112\n      swap1\n      tag_48\n      jump\t// in\n    tag_112:\n      dup1\n      0x1f\n      add\n      0x20\n      dup1\n      swap2\n      div\n      mul\n      0x20\n      add\n      mload(0x40)\n      swap1\n      dup2\n      add\n      0x40\n      mstore\n      dup1\n      swap3\n      swap2\n      swap1\n      dup2\n      dup2\n      mstore\n      0x20\n      add\n      dup3\n      dup1\n      sload\n      tag_113\n      swap1\n      tag_48\n      jump\t// in\n    tag_113:\n      dup1\n      iszero\n      tag_114\n      jumpi\n      dup1\n      0x1f\n      lt\n      tag_115\n      jumpi\n      0x0100\n      dup1\n      dup4\n      sload\n      div\n      mul\n      dup4\n      mstore\n      swap2\n      0x20\n      add\n      swap2\n      jump(tag_114)\n    tag_115:\n      dup3\n      add\n      swap2\n      swap1\n      0x00\n      mstore\n      keccak256(0x00, 0x20)\n      swap1\n    tag_116:\n      dup2\n      sload\n      dup2\n      mstore\n      swap1\n      0x01\n      add\n      swap1\n      0x20\n      add\n      dup1\n      dup4\n      gt\n      tag_116\n      jumpi\n      dup3\n      swap1\n      sub\n      0x1f\n      and\n      dup3\n      add\n      swap2\n    tag_114:\n      pop\n      pop\n      pop\n      pop\n      pop\n      dup2\n      mstore\n      0x20\n      add\n      swap1\n      0x01\n      add\n      swap1\n      jump(tag_109)\n    tag_110:\n      pop\n      pop\n      pop\n      pop\n      dup2\n      mstore\n      0x20\n      add\n      0x0a\n      dup3\n      add\n      dup1\n      sload\n      dup1\n      0x20\n      mul\n      0x20\n      add\n      mload(0x40)\n      swap1\n      dup2\n      add\n      0x40\n      mstore\n      dup1\n      swap3\n      swap2\n      swap1\n      dup2\n      dup2\n      mstore\n      0x20\n      add\n      0x00\n      swap1\n    tag_117:\n      dup3\n      dup3\n      lt\n      iszero\n      tag_118\n      jumpi\n      dup4\n      dup3\n      swap1\n      0x00\n      mstore\n      keccak256(0x00, 0x20)\n      add\n      dup1\n      sload\n      tag_120\n      swap1\n      tag_48\n      jump\t// in\n    tag_120:\n      dup1\n      0x1f\n      add\n      0x20\n      dup1\n      swap2\n      div\n      mul\n      0x20\n      add\n      mload(0x40)\n      swap1\n      dup2\n      add\n      0x40\n      mstore\n      dup1\n      swap3\n      swap2\n      swap1\n      dup2\n      dup2\n      mstore\n      0x20\n      add\n      dup3\n      dup1\n      sload\n      tag_121\n      swap1\n      tag_48\n      jump\t// in\n    tag_121:\n      dup1\n      iszero\n      tag_122\n      jumpi\n      dup1\n      0x1f\n      lt\n      tag_123\n      jumpi\n      0x0100\n      dup1\n      dup4\n      sload\n      div\n      mul\n      dup4\n      mstore\n      swap2\n      0x20\n      add\n      swap2\n      jump(tag_122)\n    tag_123:\n      dup3\n      add\n      swap2\n      swap1\n      0x00\n      mstore\n      keccak256(0x00, 0x20)\n      swap1\n    tag_124:\n      dup2\n      sload\n      dup2\n      mstore\n      swap1\n      0x01\n      add\n      swap1\n      0x20\n      add\n      dup1\n      dup4\n      gt\n      tag_124\n      jumpi\n      dup3\n      swap1\n      sub\n      0x1f\n      and\n      dup3\n      add\n      swap2\n    tag_122:\n      pop\n      pop\n      pop\n      pop\n      pop\n      dup2\n      mstore\n      0x20\n      add\n      swap1\n      0x01\n      add\n      swap1\n      jump(tag_117)\n    tag_118:\n      pop\n      pop\n      pop\n      pop\n      dup2\n      mstore\n      pop\n      pop\n      swap1\n      pop\n        /* \"contracts/traceability.sol\":3784:3915  function getProductDetails(bytes32 hashKey) public view returns (ProductDetails memory) {... */\n      swap2\n      swap1\n      pop\n      jump\t// out\n        /* \"contracts/traceability.sol\":611:1740  function addProduct(... */\n    tag_21:\n        /* \"contracts/traceability.sol\":1050:1057  bytes32 */\n      0x00\n        /* \"contracts/traceability.sol\":1070:1085  bytes32 hashKey */\n      dup1\n        /* \"contracts/traceability.sol\":1115:1126  _contractID */\n      dup13\n        /* \"contracts/traceability.sol\":1128:1140  _productName */\n      dup13\n        /* \"contracts/traceability.sol\":1142:1151  _quantity */\n      dup13\n        /* \"contracts/traceability.sol\":1153:1161  _quality */\n      dup13\n        /* \"contracts/traceability.sol\":1163:1172  _farmerId */\n      dup13\n        /* \"contracts/traceability.sol\":1174:1185  _farmerName */\n      dup13\n        /* \"contracts/traceability.sol\":1187:1202  _pickupLocation */\n      dup13\n        /* \"contracts/traceability.sol\":1204:1220  _deliveryAddress */\n      dup13\n        /* \"contracts/traceability.sol\":1222:1235  _offTakerName */\n      dup13\n        /* \"contracts/traceability.sol\":1098:1236  abi.encodePacked(_contractID, _productName, _quantity, _quality, _farmerId, _farmerName, _pickupLocation, _deliveryAddress, _offTakerName) */\n      add(0x20, mload(0x40))\n      tag_126\n      swap10\n      swap9\n      swap8\n      swap7\n      swap6\n      swap5\n      swap4\n      swap3\n      swap2\n      swap1\n      tag_127\n      jump\t// in\n    tag_126:\n      mload(0x40)\n      0x20\n      dup2\n      dup4\n      sub\n      sub\n      dup2\n      mstore\n      swap1\n      0x40\n      mstore\n        /* \"contracts/traceability.sol\":1088:1237  keccak256(abi.encodePacked(_contractID, _productName, _quantity, _quality, _farmerId, _farmerName, _pickupLocation, _deliveryAddress, _offTakerName)) */\n      dup1\n      mload\n      swap1\n      0x20\n      add\n      keccak256\n        /* \"contracts/traceability.sol\":1070:1237  bytes32 hashKey = keccak256(abi.encodePacked(_contractID, _productName, _quantity, _quality, _farmerId, _farmerName, _pickupLocation, _deliveryAddress, _offTakerName)) */\n      swap1\n      pop\n        /* \"contracts/traceability.sol\":1288:1289  0 */\n      0x00\n        /* \"contracts/traceability.sol\":1256:1264  products */\n      dup1\n        /* \"contracts/traceability.sol\":1256:1273  products[hashKey] */\n      0x00\n        /* \"contracts/traceability.sol\":1265:1272  hashKey */\n      dup4\n        /* \"contracts/traceability.sol\":1256:1273  products[hashKey] */\n      dup2\n      mstore\n      0x20\n      add\n      swap1\n      dup2\n      mstore\n      0x20\n      add\n      0x00\n      keccak256\n        /* \"contracts/traceability.sol\":1256:1284  products[hashKey].contractID */\n      0x00\n      add\n      sload\n        /* \"contracts/traceability.sol\":1256:1289  products[hashKey].contractID == 0 */\n      eq\n        /* \"contracts/traceability.sol\":1248:1316  require(products[hashKey].contractID == 0, \"Product already exists\") */\n      tag_128\n      jumpi\n      mload(0x40)\n      0x08c379a000000000000000000000000000000000000000000000000000000000\n      dup2\n      mstore\n      0x04\n      add\n      tag_129\n      swap1\n      tag_130\n      jump\t// in\n    tag_129:\n      mload(0x40)\n      dup1\n      swap2\n      sub\n      swap1\n      revert\n    tag_128:\n        /* \"contracts/traceability.sol\":1349:1668  ProductDetails(... */\n      mload(0x40)\n      dup1\n      0x0160\n      add\n      0x40\n      mstore\n      dup1\n        /* \"contracts/traceability.sol\":1378:1389  _contractID */\n      dup15\n        /* \"contracts/traceability.sol\":1349:1668  ProductDetails(... */\n      dup2\n      mstore\n      0x20\n      add\n        /* \"contracts/traceability.sol\":1404:1416  _productName */\n      dup14\n        /* \"contracts/traceability.sol\":1349:1668  ProductDetails(... */\n      dup2\n      mstore\n      0x20\n      add\n        /* \"contracts/traceability.sol\":1431:1440  _quantity */\n      dup13\n        /* \"contracts/traceability.sol\":1349:1668  ProductDetails(... */\n      dup2\n      mstore\n      0x20\n      add\n        /* \"contracts/traceability.sol\":1455:1463  _quality */\n      dup12\n        /* \"contracts/traceability.sol\":1349:1668  ProductDetails(... */\n      dup2\n      mstore\n      0x20\n      add\n        /* \"contracts/traceability.sol\":1478:1487  _farmerId */\n      dup11\n        /* \"contracts/traceability.sol\":1349:1668  ProductDetails(... */\n      dup2\n      mstore\n      0x20\n      add\n        /* \"contracts/traceability.sol\":1502:1513  _farmerName */\n      dup10\n        /* \"contracts/traceability.sol\":1349:1668  ProductDetails(... */\n      dup2\n      mstore\n      0x20\n      add\n        /* \"contracts/traceability.sol\":1528:1543  _pickupLocation */\n      dup9\n        /* \"contracts/traceability.sol\":1349:1668  ProductDetails(... */\n      dup2\n      mstore\n      0x20\n      add\n        /* \"contracts/traceability.sol\":1558:1574  _deliveryAddress */\n      dup8\n        /* \"contracts/traceability.sol\":1349:1668  ProductDetails(... */\n      dup2\n      mstore\n      0x20\n      add\n        /* \"contracts/traceability.sol\":1589:1602  _offTakerName */\n      dup7\n        /* \"contracts/traceability.sol\":1349:1668  ProductDetails(... */\n      dup2\n      mstore\n      0x20\n      add\n        /* \"contracts/traceability.sol\":1617:1628  _bagNumbers */\n      dup6\n        /* \"contracts/traceability.sol\":1349:1668  ProductDetails(... */\n      dup2\n      mstore\n      0x20\n      add\n        /* \"contracts/traceability.sol\":1643:1657  _bagQuantities */\n      dup5\n        /* \"contracts/traceability.sol\":1349:1668  ProductDetails(... */\n      dup2\n      mstore\n      pop\n        /* \"contracts/traceability.sol\":1329:1337  products */\n      0x00\n        /* \"contracts/traceability.sol\":1329:1346  products[hashKey] */\n      dup1\n        /* \"contracts/traceability.sol\":1338:1345  hashKey */\n      dup4\n        /* \"contracts/traceability.sol\":1329:1346  products[hashKey] */\n      dup2\n      mstore\n      0x20\n      add\n      swap1\n      dup2\n      mstore\n      0x20\n      add\n      0x00\n      keccak256\n        /* \"contracts/traceability.sol\":1329:1668  products[hashKey] = ProductDetails(... */\n      0x00\n      dup3\n      add\n      mload\n      dup2\n      0x00\n      add\n      sstore\n      0x20\n      dup3\n      add\n      mload\n      dup2\n      0x01\n      add\n      swap1\n      dup2\n      tag_131\n      swap2\n      swap1\n      tag_55\n      jump\t// in\n    tag_131:\n      pop\n      0x40\n      dup3\n      add\n      mload\n      dup2\n      0x02\n      add\n      swap1\n      dup2\n      tag_132\n      swap2\n      swap1\n      tag_55\n      jump\t// in\n    tag_132:\n      pop\n      0x60\n      dup3\n      add\n      mload\n      dup2\n      0x03\n      add\n      swap1\n      dup2\n      tag_133\n      swap2\n      swap1\n      tag_55\n      jump\t// in\n    tag_133:\n      pop\n      0x80\n      dup3\n      add\n      mload\n      dup2\n      0x04\n      add\n      sstore\n      0xa0\n      dup3\n      add\n      mload\n      dup2\n      0x05\n      add\n      swap1\n      dup2\n      tag_134\n      swap2\n      swap1\n      tag_55\n      jump\t// in\n    tag_134:\n      pop\n      0xc0\n      dup3\n      add\n      mload\n      dup2\n      0x06\n      add\n      swap1\n      dup2\n      tag_135\n      swap2\n      swap1\n      tag_55\n      jump\t// in\n    tag_135:\n      pop\n      0xe0\n      dup3\n      add\n      mload\n      dup2\n      0x07\n      add\n      swap1\n      dup2\n      tag_136\n      swap2\n      swap1\n      tag_55\n      jump\t// in\n    tag_136:\n      pop\n      0x0100\n      dup3\n      add\n      mload\n      dup2\n      0x08\n      add\n      swap1\n      dup2\n      tag_137\n      swap2\n      swap1\n      tag_55\n      jump\t// in\n    tag_137:\n      pop\n      0x0120\n      dup3\n      add\n      mload\n      dup2\n      0x09\n      add\n      swap1\n      dup1\n      mload\n      swap1\n      0x20\n      add\n      swap1\n      tag_138\n      swap3\n      swap2\n      swap1\n      tag_139\n      jump\t// in\n    tag_138:\n      pop\n      0x0140\n      dup3\n      add\n      mload\n      dup2\n      0x0a\n      add\n      swap1\n      dup1\n      mload\n      swap1\n      0x20\n      add\n      swap1\n      tag_140\n      swap3\n      swap2\n      swap1\n      tag_139\n      jump\t// in\n    tag_140:\n      pop\n      swap1\n      pop\n      pop\n        /* \"contracts/traceability.sol\":1699:1706  hashKey */\n      dup1\n        /* \"contracts/traceability.sol\":1686:1707  ProductAdded(hashKey) */\n      0x6c2de183f2a2faf4876f357e3c75bf6e6e7aa4dd120e8b5e1bdb2901e085f69c\n      mload(0x40)\n      mload(0x40)\n      dup1\n      swap2\n      sub\n      swap1\n      log2\n        /* \"contracts/traceability.sol\":1725:1732  hashKey */\n      dup1\n        /* \"contracts/traceability.sol\":1718:1732  return hashKey */\n      swap2\n      pop\n      pop\n        /* \"contracts/traceability.sol\":611:1740  function addProduct(... */\n      swap12\n      swap11\n      pop\n      pop\n      pop\n      pop\n      pop\n      pop\n      pop\n      pop\n      pop\n      pop\n      pop\n      jump\t// out\n    tag_69:\n      dup3\n      dup1\n      sload\n      dup3\n      dup3\n      sstore\n      swap1\n      0x00\n      mstore\n      keccak256(0x00, 0x20)\n      swap1\n      dup2\n      add\n      swap3\n      dup3\n      iszero\n      tag_141\n      jumpi\n      0x00\n      mstore\n      keccak256(0x00, 0x20)\n      swap2\n      dup3\n      add\n    tag_142:\n      dup3\n      dup2\n      gt\n      iszero\n      tag_143\n      jumpi\n      dup3\n      dup3\n      swap1\n      dup2\n      tag_144\n      swap2\n      swap1\n      tag_145\n      jump\t// in\n    tag_144:\n      pop\n      swap2\n      0x01\n      add\n      swap2\n      swap1\n      0x01\n      add\n      swap1\n      jump(tag_142)\n    tag_143:\n    tag_141:\n      pop\n      swap1\n      pop\n      tag_146\n      swap2\n      swap1\n      tag_147\n      jump\t// in\n    tag_146:\n      pop\n      swap1\n      jump\t// out\n    tag_72:\n      mload(0x40)\n      dup1\n      0x0160\n      add\n      0x40\n      mstore\n      dup1\n      0x00\n      dup2\n      mstore\n      0x20\n      add\n      0x60\n      dup2\n      mstore\n      0x20\n      add\n      0x60\n      dup2\n      mstore\n      0x20\n      add\n      0x60\n      dup2\n      mstore\n      0x20\n      add\n      0x00\n      dup2\n      mstore\n      0x20\n      add\n      0x60\n      dup2\n      mstore\n      0x20\n      add\n      0x60\n      dup2\n      mstore\n      0x20\n      add\n      0x60\n      dup2\n      mstore\n      0x20\n      add\n      0x60\n      dup2\n      mstore\n      0x20\n      add\n      0x60\n      dup2\n      mstore\n      0x20\n      add\n      0x60\n      dup2\n      mstore\n      pop\n      swap1\n      jump\t// out\n    tag_139:\n      dup3\n      dup1\n      sload\n      dup3\n      dup3\n      sstore\n      swap1\n      0x00\n      mstore\n      keccak256(0x00, 0x20)\n      swap1\n      dup2\n      add\n      swap3\n      dup3\n      iszero\n      tag_148\n      jumpi\n      swap2\n      0x20\n      mul\n      dup3\n      add\n    tag_149:\n      dup3\n      dup2\n      gt\n      iszero\n      tag_150\n      jumpi\n      dup3\n      mload\n      dup3\n      swap1\n      dup2\n      tag_151\n      swap2\n      swap1\n      tag_55\n      jump\t// in\n    tag_151:\n      pop\n      swap2\n      0x20\n      add\n      swap2\n      swap1\n      0x01\n      add\n      swap1\n      jump(tag_149)\n    tag_150:\n    tag_148:\n      pop\n      swap1\n      pop\n      tag_152\n      swap2\n      swap1\n      tag_147\n      jump\t// in\n    tag_152:\n      pop\n      swap1\n      jump\t// out\n    tag_147:\n    tag_153:\n      dup1\n      dup3\n      gt\n      iszero\n      tag_154\n      jumpi\n      0x00\n      dup2\n      dup2\n      tag_155\n      swap2\n      swap1\n      tag_156\n      jump\t// in\n    tag_155:\n      pop\n      0x01\n      add\n      jump(tag_153)\n    tag_154:\n      pop\n      swap1\n      jump\t// out\n    tag_156:\n      pop\n      dup1\n      sload\n      tag_157\n      swap1\n      tag_48\n      jump\t// in\n    tag_157:\n      0x00\n      dup3\n      sstore\n      dup1\n      0x1f\n      lt\n      tag_159\n      jumpi\n      pop\n      jump(tag_158)\n    tag_159:\n      0x1f\n      add\n      0x20\n      swap1\n      div\n      swap1\n      0x00\n      mstore\n      keccak256(0x00, 0x20)\n      swap1\n      dup2\n      add\n      swap1\n      tag_160\n      swap2\n      swap1\n      tag_161\n      jump\t// in\n    tag_160:\n    tag_158:\n      pop\n      jump\t// out\n    tag_161:\n    tag_162:\n      dup1\n      dup3\n      gt\n      iszero\n      tag_163\n      jumpi\n      0x00\n      dup2\n      0x00\n      swap1\n      sstore\n      pop\n      0x01\n      add\n      jump(tag_162)\n    tag_163:\n      pop\n      swap1\n      jump\t// out\n        /* \"#utility.yul\":7:82   */\n    tag_164:\n        /* \"#utility.yul\":40:46   */\n      0x00\n        /* \"#utility.yul\":73:75   */\n      0x40\n        /* \"#utility.yul\":67:76   */\n      mload\n        /* \"#utility.yul\":57:76   */\n      swap1\n      pop\n        /* \"#utility.yul\":7:82   */\n      swap1\n      jump\t// out\n        /* \"#utility.yul\":88:205   */\n    tag_165:\n        /* \"#utility.yul\":197:198   */\n      0x00\n        /* \"#utility.yul\":194:195   */\n      dup1\n        /* \"#utility.yul\":187:199   */\n      revert\n        /* \"#utility.yul\":211:328   */\n    tag_166:\n        /* \"#utility.yul\":320:321   */\n      0x00\n        /* \"#utility.yul\":317:318   */\n      dup1\n        /* \"#utility.yul\":310:322   */\n      revert\n        /* \"#utility.yul\":334:411   */\n    tag_167:\n        /* \"#utility.yul\":371:378   */\n      0x00\n        /* \"#utility.yul\":400:405   */\n      dup2\n        /* \"#utility.yul\":389:405   */\n      swap1\n      pop\n        /* \"#utility.yul\":334:411   */\n      swap2\n      swap1\n      pop\n      jump\t// out\n        /* \"#utility.yul\":417:539   */\n    tag_168:\n        /* \"#utility.yul\":490:514   */\n      tag_240\n        /* \"#utility.yul\":508:513   */\n      dup2\n        /* \"#utility.yul\":490:514   */\n      tag_167\n      jump\t// in\n    tag_240:\n        /* \"#utility.yul\":483:488   */\n      dup2\n        /* \"#utility.yul\":480:515   */\n      eq\n        /* \"#utility.yul\":470:533   */\n      tag_241\n      jumpi\n        /* \"#utility.yul\":529:530   */\n      0x00\n        /* \"#utility.yul\":526:527   */\n      dup1\n        /* \"#utility.yul\":519:531   */\n      revert\n        /* \"#utility.yul\":470:533   */\n    tag_241:\n        /* \"#utility.yul\":417:539   */\n      pop\n      jump\t// out\n        /* \"#utility.yul\":545:684   */\n    tag_169:\n        /* \"#utility.yul\":591:596   */\n      0x00\n        /* \"#utility.yul\":629:635   */\n      dup2\n        /* \"#utility.yul\":616:636   */\n      calldataload\n        /* \"#utility.yul\":607:636   */\n      swap1\n      pop\n        /* \"#utility.yul\":645:678   */\n      tag_243\n        /* \"#utility.yul\":672:677   */\n      dup2\n        /* \"#utility.yul\":645:678   */\n      tag_168\n      jump\t// in\n    tag_243:\n        /* \"#utility.yul\":545:684   */\n      swap3\n      swap2\n      pop\n      pop\n      jump\t// out\n        /* \"#utility.yul\":690:807   */\n    tag_170:\n        /* \"#utility.yul\":799:800   */\n      0x00\n        /* \"#utility.yul\":796:797   */\n      dup1\n        /* \"#utility.yul\":789:801   */\n      revert\n        /* \"#utility.yul\":813:930   */\n    tag_171:\n        /* \"#utility.yul\":922:923   */\n      0x00\n        /* \"#utility.yul\":919:920   */\n      dup1\n        /* \"#utility.yul\":912:924   */\n      revert\n        /* \"#utility.yul\":936:1038   */\n    tag_172:\n        /* \"#utility.yul\":977:983   */\n      0x00\n        /* \"#utility.yul\":1028:1030   */\n      0x1f\n        /* \"#utility.yul\":1024:1031   */\n      not\n        /* \"#utility.yul\":1019:1021   */\n      0x1f\n        /* \"#utility.yul\":1012:1017   */\n      dup4\n        /* \"#utility.yul\":1008:1022   */\n      add\n        /* \"#utility.yul\":1004:1032   */\n      and\n        /* \"#utility.yul\":994:1032   */\n      swap1\n      pop\n        /* \"#utility.yul\":936:1038   */\n      swap2\n      swap1\n      pop\n      jump\t// out\n        /* \"#utility.yul\":1044:1224   */\n    tag_173:\n        /* \"#utility.yul\":1092:1169   */\n      0x4e487b7100000000000000000000000000000000000000000000000000000000\n        /* \"#utility.yul\":1089:1090   */\n      0x00\n        /* \"#utility.yul\":1082:1170   */\n      mstore\n        /* \"#utility.yul\":1189:1193   */\n      0x41\n        /* \"#utility.yul\":1186:1187   */\n      0x04\n        /* \"#utility.yul\":1179:1194   */\n      mstore\n        /* \"#utility.yul\":1213:1217   */\n      0x24\n        /* \"#utility.yul\":1210:1211   */\n      0x00\n        /* \"#utility.yul\":1203:1218   */\n      revert\n        /* \"#utility.yul\":1230:1511   */\n    tag_174:\n        /* \"#utility.yul\":1313:1340   */\n      tag_249\n        /* \"#utility.yul\":1335:1339   */\n      dup3\n        /* \"#utility.yul\":1313:1340   */\n      tag_172\n      jump\t// in\n    tag_249:\n        /* \"#utility.yul\":1305:1311   */\n      dup2\n        /* \"#utility.yul\":1301:1341   */\n      add\n        /* \"#utility.yul\":1443:1449   */\n      dup2\n        /* \"#utility.yul\":1431:1441   */\n      dup2\n        /* \"#utility.yul\":1428:1450   */\n      lt\n        /* \"#utility.yul\":1407:1425   */\n      0xffffffffffffffff\n        /* \"#utility.yul\":1395:1405   */\n      dup3\n        /* \"#utility.yul\":1392:1426   */\n      gt\n        /* \"#utility.yul\":1389:1451   */\n      or\n        /* \"#utility.yul\":1386:1474   */\n      iszero\n      tag_250\n      jumpi\n        /* \"#utility.yul\":1454:1472   */\n      tag_251\n      tag_173\n      jump\t// in\n    tag_251:\n        /* \"#utility.yul\":1386:1474   */\n    tag_250:\n        /* \"#utility.yul\":1494:1504   */\n      dup1\n        /* \"#utility.yul\":1490:1492   */\n      0x40\n        /* \"#utility.yul\":1483:1505   */\n      mstore\n        /* \"#utility.yul\":1273:1511   */\n      pop\n        /* \"#utility.yul\":1230:1511   */\n      pop\n      pop\n      jump\t// out\n        /* \"#utility.yul\":1517:1646   */\n    tag_175:\n        /* \"#utility.yul\":1551:1557   */\n      0x00\n        /* \"#utility.yul\":1578:1598   */\n      tag_253\n      tag_164\n      jump\t// in\n    tag_253:\n        /* \"#utility.yul\":1568:1598   */\n      swap1\n      pop\n        /* \"#utility.yul\":1607:1640   */\n      tag_254\n        /* \"#utility.yul\":1635:1639   */\n      dup3\n        /* \"#utility.yul\":1627:1633   */\n      dup3\n        /* \"#utility.yul\":1607:1640   */\n      tag_174\n      jump\t// in\n    tag_254:\n        /* \"#utility.yul\":1517:1646   */\n      swap2\n      swap1\n      pop\n      jump\t// out\n        /* \"#utility.yul\":1652:1960   */\n    tag_176:\n        /* \"#utility.yul\":1714:1718   */\n      0x00\n        /* \"#utility.yul\":1804:1822   */\n      0xffffffffffffffff\n        /* \"#utility.yul\":1796:1802   */\n      dup3\n        /* \"#utility.yul\":1793:1823   */\n      gt\n        /* \"#utility.yul\":1790:1846   */\n      iszero\n      tag_256\n      jumpi\n        /* \"#utility.yul\":1826:1844   */\n      tag_257\n      tag_173\n      jump\t// in\n    tag_257:\n        /* \"#utility.yul\":1790:1846   */\n    tag_256:\n        /* \"#utility.yul\":1864:1893   */\n      tag_258\n        /* \"#utility.yul\":1886:1892   */\n      dup3\n        /* \"#utility.yul\":1864:1893   */\n      tag_172\n      jump\t// in\n    tag_258:\n        /* \"#utility.yul\":1856:1893   */\n      swap1\n      pop\n        /* \"#utility.yul\":1948:1952   */\n      0x20\n        /* \"#utility.yul\":1942:1946   */\n      dup2\n        /* \"#utility.yul\":1938:1953   */\n      add\n        /* \"#utility.yul\":1930:1953   */\n      swap1\n      pop\n        /* \"#utility.yul\":1652:1960   */\n      swap2\n      swap1\n      pop\n      jump\t// out\n        /* \"#utility.yul\":1966:2112   */\n    tag_177:\n        /* \"#utility.yul\":2063:2069   */\n      dup3\n        /* \"#utility.yul\":2058:2061   */\n      dup2\n        /* \"#utility.yul\":2053:2056   */\n      dup4\n        /* \"#utility.yul\":2040:2070   */\n      calldatacopy\n        /* \"#utility.yul\":2104:2105   */\n      0x00\n        /* \"#utility.yul\":2095:2101   */\n      dup4\n        /* \"#utility.yul\":2090:2093   */\n      dup4\n        /* \"#utility.yul\":2086:2102   */\n      add\n        /* \"#utility.yul\":2079:2106   */\n      mstore\n        /* \"#utility.yul\":1966:2112   */\n      pop\n      pop\n      pop\n      jump\t// out\n        /* \"#utility.yul\":2118:2543   */\n    tag_178:\n        /* \"#utility.yul\":2196:2201   */\n      0x00\n        /* \"#utility.yul\":2221:2287   */\n      tag_261\n        /* \"#utility.yul\":2237:2286   */\n      tag_262\n        /* \"#utility.yul\":2279:2285   */\n      dup5\n        /* \"#utility.yul\":2237:2286   */\n      tag_176\n      jump\t// in\n    tag_262:\n        /* \"#utility.yul\":2221:2287   */\n      tag_175\n      jump\t// in\n    tag_261:\n        /* \"#utility.yul\":2212:2287   */\n      swap1\n      pop\n        /* \"#utility.yul\":2310:2316   */\n      dup3\n        /* \"#utility.yul\":2303:2308   */\n      dup2\n        /* \"#utility.yul\":2296:2317   */\n      mstore\n        /* \"#utility.yul\":2348:2352   */\n      0x20\n        /* \"#utility.yul\":2341:2346   */\n      dup2\n        /* \"#utility.yul\":2337:2353   */\n      add\n        /* \"#utility.yul\":2386:2389   */\n      dup5\n        /* \"#utility.yul\":2377:2383   */\n      dup5\n        /* \"#utility.yul\":2372:2375   */\n      dup5\n        /* \"#utility.yul\":2368:2384   */\n      add\n        /* \"#utility.yul\":2365:2390   */\n      gt\n        /* \"#utility.yul\":2362:2474   */\n      iszero\n      tag_263\n      jumpi\n        /* \"#utility.yul\":2393:2472   */\n      tag_264\n      tag_171\n      jump\t// in\n    tag_264:\n        /* \"#utility.yul\":2362:2474   */\n    tag_263:\n        /* \"#utility.yul\":2483:2537   */\n      tag_265\n        /* \"#utility.yul\":2530:2536   */\n      dup5\n        /* \"#utility.yul\":2525:2528   */\n      dup3\n        /* \"#utility.yul\":2520:2523   */\n      dup6\n        /* \"#utility.yul\":2483:2537   */\n      tag_177\n      jump\t// in\n    tag_265:\n        /* \"#utility.yul\":2202:2543   */\n      pop\n        /* \"#utility.yul\":2118:2543   */\n      swap4\n      swap3\n      pop\n      pop\n      pop\n      jump\t// out\n        /* \"#utility.yul\":2563:2903   */\n    tag_179:\n        /* \"#utility.yul\":2619:2624   */\n      0x00\n        /* \"#utility.yul\":2668:2671   */\n      dup3\n        /* \"#utility.yul\":2661:2665   */\n      0x1f\n        /* \"#utility.yul\":2653:2659   */\n      dup4\n        /* \"#utility.yul\":2649:2666   */\n      add\n        /* \"#utility.yul\":2645:2672   */\n      slt\n        /* \"#utility.yul\":2635:2757   */\n      tag_267\n      jumpi\n        /* \"#utility.yul\":2676:2755   */\n      tag_268\n      tag_170\n      jump\t// in\n    tag_268:\n        /* \"#utility.yul\":2635:2757   */\n    tag_267:\n        /* \"#utility.yul\":2793:2799   */\n      dup2\n        /* \"#utility.yul\":2780:2800   */\n      calldataload\n        /* \"#utility.yul\":2818:2897   */\n      tag_269\n        /* \"#utility.yul\":2893:2896   */\n      dup5\n        /* \"#utility.yul\":2885:2891   */\n      dup3\n        /* \"#utility.yul\":2878:2882   */\n      0x20\n        /* \"#utility.yul\":2870:2876   */\n      dup7\n        /* \"#utility.yul\":2866:2883   */\n      add\n        /* \"#utility.yul\":2818:2897   */\n      tag_178\n      jump\t// in\n    tag_269:\n        /* \"#utility.yul\":2809:2897   */\n      swap2\n      pop\n        /* \"#utility.yul\":2625:2903   */\n      pop\n        /* \"#utility.yul\":2563:2903   */\n      swap3\n      swap2\n      pop\n      pop\n      jump\t// out\n        /* \"#utility.yul\":2909:4214   */\n    tag_8:\n        /* \"#utility.yul\":3025:3031   */\n      0x00\n        /* \"#utility.yul\":3033:3039   */\n      dup1\n        /* \"#utility.yul\":3041:3047   */\n      0x00\n        /* \"#utility.yul\":3049:3055   */\n      dup1\n        /* \"#utility.yul\":3098:3101   */\n      0x80\n        /* \"#utility.yul\":3086:3095   */\n      dup6\n        /* \"#utility.yul\":3077:3084   */\n      dup8\n        /* \"#utility.yul\":3073:3096   */\n      sub\n        /* \"#utility.yul\":3069:3102   */\n      slt\n        /* \"#utility.yul\":3066:3186   */\n      iszero\n      tag_271\n      jumpi\n        /* \"#utility.yul\":3105:3184   */\n      tag_272\n      tag_165\n      jump\t// in\n    tag_272:\n        /* \"#utility.yul\":3066:3186   */\n    tag_271:\n        /* \"#utility.yul\":3225:3226   */\n      0x00\n        /* \"#utility.yul\":3250:3303   */\n      tag_273\n        /* \"#utility.yul\":3295:3302   */\n      dup8\n        /* \"#utility.yul\":3286:3292   */\n      dup3\n        /* \"#utility.yul\":3275:3284   */\n      dup9\n        /* \"#utility.yul\":3271:3293   */\n      add\n        /* \"#utility.yul\":3250:3303   */\n      tag_169\n      jump\t// in\n    tag_273:\n        /* \"#utility.yul\":3240:3303   */\n      swap5\n      pop\n        /* \"#utility.yul\":3196:3313   */\n      pop\n        /* \"#utility.yul\":3380:3382   */\n      0x20\n        /* \"#utility.yul\":3369:3378   */\n      dup6\n        /* \"#utility.yul\":3365:3383   */\n      add\n        /* \"#utility.yul\":3352:3384   */\n      calldataload\n        /* \"#utility.yul\":3411:3429   */\n      0xffffffffffffffff\n        /* \"#utility.yul\":3403:3409   */\n      dup2\n        /* \"#utility.yul\":3400:3430   */\n      gt\n        /* \"#utility.yul\":3397:3514   */\n      iszero\n      tag_274\n      jumpi\n        /* \"#utility.yul\":3433:3512   */\n      tag_275\n      tag_166\n      jump\t// in\n    tag_275:\n        /* \"#utility.yul\":3397:3514   */\n    tag_274:\n        /* \"#utility.yul\":3538:3601   */\n      tag_276\n        /* \"#utility.yul\":3593:3600   */\n      dup8\n        /* \"#utility.yul\":3584:3590   */\n      dup3\n        /* \"#utility.yul\":3573:3582   */\n      dup9\n        /* \"#utility.yul\":3569:3591   */\n      add\n        /* \"#utility.yul\":3538:3601   */\n      tag_179\n      jump\t// in\n    tag_276:\n        /* \"#utility.yul\":3528:3601   */\n      swap4\n      pop\n        /* \"#utility.yul\":3323:3611   */\n      pop\n        /* \"#utility.yul\":3678:3680   */\n      0x40\n        /* \"#utility.yul\":3667:3676   */\n      dup6\n        /* \"#utility.yul\":3663:3681   */\n      add\n        /* \"#utility.yul\":3650:3682   */\n      calldataload\n        /* \"#utility.yul\":3709:3727   */\n      0xffffffffffffffff\n        /* \"#utility.yul\":3701:3707   */\n      dup2\n        /* \"#utility.yul\":3698:3728   */\n      gt\n        /* \"#utility.yul\":3695:3812   */\n      iszero\n      tag_277\n      jumpi\n        /* \"#utility.yul\":3731:3810   */\n      tag_278\n      tag_166\n      jump\t// in\n    tag_278:\n        /* \"#utility.yul\":3695:3812   */\n    tag_277:\n        /* \"#utility.yul\":3836:3899   */\n      tag_279\n        /* \"#utility.yul\":3891:3898   */\n      dup8\n        /* \"#utility.yul\":3882:3888   */\n      dup3\n        /* \"#utility.yul\":3871:3880   */\n      dup9\n        /* \"#utility.yul\":3867:3889   */\n      add\n        /* \"#utility.yul\":3836:3899   */\n      tag_179\n      jump\t// in\n    tag_279:\n        /* \"#utility.yul\":3826:3899   */\n      swap3\n      pop\n        /* \"#utility.yul\":3621:3909   */\n      pop\n        /* \"#utility.yul\":3976:3978   */\n      0x60\n        /* \"#utility.yul\":3965:3974   */\n      dup6\n        /* \"#utility.yul\":3961:3979   */\n      add\n        /* \"#utility.yul\":3948:3980   */\n      calldataload\n        /* \"#utility.yul\":4007:4025   */\n      0xffffffffffffffff\n        /* \"#utility.yul\":3999:4005   */\n      dup2\n        /* \"#utility.yul\":3996:4026   */\n      gt\n        /* \"#utility.yul\":3993:4110   */\n      iszero\n      tag_280\n      jumpi\n        /* \"#utility.yul\":4029:4108   */\n      tag_281\n      tag_166\n      jump\t// in\n    tag_281:\n        /* \"#utility.yul\":3993:4110   */\n    tag_280:\n        /* \"#utility.yul\":4134:4197   */\n      tag_282\n        /* \"#utility.yul\":4189:4196   */\n      dup8\n        /* \"#utility.yul\":4180:4186   */\n      dup3\n        /* \"#utility.yul\":4169:4178   */\n      dup9\n        /* \"#utility.yul\":4165:4187   */\n      add\n        /* \"#utility.yul\":4134:4197   */\n      tag_179\n      jump\t// in\n    tag_282:\n        /* \"#utility.yul\":4124:4197   */\n      swap2\n      pop\n        /* \"#utility.yul\":3919:4207   */\n      pop\n        /* \"#utility.yul\":2909:4214   */\n      swap3\n      swap6\n      swap2\n      swap5\n      pop\n      swap3\n      pop\n      jump\t// out\n        /* \"#utility.yul\":4220:4338   */\n    tag_180:\n        /* \"#utility.yul\":4307:4331   */\n      tag_284\n        /* \"#utility.yul\":4325:4330   */\n      dup2\n        /* \"#utility.yul\":4307:4331   */\n      tag_167\n      jump\t// in\n    tag_284:\n        /* \"#utility.yul\":4302:4305   */\n      dup3\n        /* \"#utility.yul\":4295:4332   */\n      mstore\n        /* \"#utility.yul\":4220:4338   */\n      pop\n      pop\n      jump\t// out\n        /* \"#utility.yul\":4344:4566   */\n    tag_11:\n        /* \"#utility.yul\":4437:4441   */\n      0x00\n        /* \"#utility.yul\":4475:4477   */\n      0x20\n        /* \"#utility.yul\":4464:4473   */\n      dup3\n        /* \"#utility.yul\":4460:4478   */\n      add\n        /* \"#utility.yul\":4452:4478   */\n      swap1\n      pop\n        /* \"#utility.yul\":4488:4559   */\n      tag_286\n        /* \"#utility.yul\":4556:4557   */\n      0x00\n        /* \"#utility.yul\":4545:4554   */\n      dup4\n        /* \"#utility.yul\":4541:4558   */\n      add\n        /* \"#utility.yul\":4532:4538   */\n      dup5\n        /* \"#utility.yul\":4488:4559   */\n      tag_180\n      jump\t// in\n    tag_286:\n        /* \"#utility.yul\":4344:4566   */\n      swap3\n      swap2\n      pop\n      pop\n      jump\t// out\n        /* \"#utility.yul\":4572:4901   */\n    tag_14:\n        /* \"#utility.yul\":4631:4637   */\n      0x00\n        /* \"#utility.yul\":4680:4682   */\n      0x20\n        /* \"#utility.yul\":4668:4677   */\n      dup3\n        /* \"#utility.yul\":4659:4666   */\n      dup5\n        /* \"#utility.yul\":4655:4678   */\n      sub\n        /* \"#utility.yul\":4651:4683   */\n      slt\n        /* \"#utility.yul\":4648:4767   */\n      iszero\n      tag_288\n      jumpi\n        /* \"#utility.yul\":4686:4765   */\n      tag_289\n      tag_165\n      jump\t// in\n    tag_289:\n        /* \"#utility.yul\":4648:4767   */\n    tag_288:\n        /* \"#utility.yul\":4806:4807   */\n      0x00\n        /* \"#utility.yul\":4831:4884   */\n      tag_290\n        /* \"#utility.yul\":4876:4883   */\n      dup5\n        /* \"#utility.yul\":4867:4873   */\n      dup3\n        /* \"#utility.yul\":4856:4865   */\n      dup6\n        /* \"#utility.yul\":4852:4874   */\n      add\n        /* \"#utility.yul\":4831:4884   */\n      tag_169\n      jump\t// in\n    tag_290:\n        /* \"#utility.yul\":4821:4884   */\n      swap2\n      pop\n        /* \"#utility.yul\":4777:4894   */\n      pop\n        /* \"#utility.yul\":4572:4901   */\n      swap3\n      swap2\n      pop\n      pop\n      jump\t// out\n        /* \"#utility.yul\":4907:4984   */\n    tag_181:\n        /* \"#utility.yul\":4944:4951   */\n      0x00\n        /* \"#utility.yul\":4973:4978   */\n      dup2\n        /* \"#utility.yul\":4962:4978   */\n      swap1\n      pop\n        /* \"#utility.yul\":4907:4984   */\n      swap2\n      swap1\n      pop\n      jump\t// out\n        /* \"#utility.yul\":4990:5098   */\n    tag_182:\n        /* \"#utility.yul\":5067:5091   */\n      tag_293\n        /* \"#utility.yul\":5085:5090   */\n      dup2\n        /* \"#utility.yul\":5067:5091   */\n      tag_181\n      jump\t// in\n    tag_293:\n        /* \"#utility.yul\":5062:5065   */\n      dup3\n        /* \"#utility.yul\":5055:5092   */\n      mstore\n        /* \"#utility.yul\":4990:5098   */\n      pop\n      pop\n      jump\t// out\n        /* \"#utility.yul\":5104:5203   */\n    tag_183:\n        /* \"#utility.yul\":5156:5162   */\n      0x00\n        /* \"#utility.yul\":5190:5195   */\n      dup2\n        /* \"#utility.yul\":5184:5196   */\n      mload\n        /* \"#utility.yul\":5174:5196   */\n      swap1\n      pop\n        /* \"#utility.yul\":5104:5203   */\n      swap2\n      swap1\n      pop\n      jump\t// out\n        /* \"#utility.yul\":5209:5368   */\n    tag_184:\n        /* \"#utility.yul\":5283:5294   */\n      0x00\n        /* \"#utility.yul\":5317:5323   */\n      dup3\n        /* \"#utility.yul\":5312:5315   */\n      dup3\n        /* \"#utility.yul\":5305:5324   */\n      mstore\n        /* \"#utility.yul\":5357:5361   */\n      0x20\n        /* \"#utility.yul\":5352:5355   */\n      dup3\n        /* \"#utility.yul\":5348:5362   */\n      add\n        /* \"#utility.yul\":5333:5362   */\n      swap1\n      pop\n        /* \"#utility.yul\":5209:5368   */\n      swap3\n      swap2\n      pop\n      pop\n      jump\t// out\n        /* \"#utility.yul\":5374:5620   */\n    tag_185:\n        /* \"#utility.yul\":5455:5456   */\n      0x00\n        /* \"#utility.yul\":5465:5578   */\n    tag_297:\n        /* \"#utility.yul\":5479:5485   */\n      dup4\n        /* \"#utility.yul\":5476:5477   */\n      dup2\n        /* \"#utility.yul\":5473:5486   */\n      lt\n        /* \"#utility.yul\":5465:5578   */\n      iszero\n      tag_299\n      jumpi\n        /* \"#utility.yul\":5564:5565   */\n      dup1\n        /* \"#utility.yul\":5559:5562   */\n      dup3\n        /* \"#utility.yul\":5555:5566   */\n      add\n        /* \"#utility.yul\":5549:5567   */\n      mload\n        /* \"#utility.yul\":5545:5546   */\n      dup2\n        /* \"#utility.yul\":5540:5543   */\n      dup5\n        /* \"#utility.yul\":5536:5547   */\n      add\n        /* \"#utility.yul\":5529:5568   */\n      mstore\n        /* \"#utility.yul\":5501:5503   */\n      0x20\n        /* \"#utility.yul\":5498:5499   */\n      dup2\n        /* \"#utility.yul\":5494:5504   */\n      add\n        /* \"#utility.yul\":5489:5504   */\n      swap1\n      pop\n        /* \"#utility.yul\":5465:5578   */\n      jump(tag_297)\n    tag_299:\n        /* \"#utility.yul\":5612:5613   */\n      0x00\n        /* \"#utility.yul\":5603:5609   */\n      dup5\n        /* \"#utility.yul\":5598:5601   */\n      dup5\n        /* \"#utility.yul\":5594:5610   */\n      add\n        /* \"#utility.yul\":5587:5614   */\n      mstore\n        /* \"#utility.yul\":5436:5620   */\n      pop\n        /* \"#utility.yul\":5374:5620   */\n      pop\n      pop\n      pop\n      jump\t// out\n        /* \"#utility.yul\":5626:5983   */\n    tag_186:\n        /* \"#utility.yul\":5704:5707   */\n      0x00\n        /* \"#utility.yul\":5732:5771   */\n      tag_301\n        /* \"#utility.yul\":5765:5770   */\n      dup3\n        /* \"#utility.yul\":5732:5771   */\n      tag_183\n      jump\t// in\n    tag_301:\n        /* \"#utility.yul\":5787:5848   */\n      tag_302\n        /* \"#utility.yul\":5841:5847   */\n      dup2\n        /* \"#utility.yul\":5836:5839   */\n      dup6\n        /* \"#utility.yul\":5787:5848   */\n      tag_184\n      jump\t// in\n    tag_302:\n        /* \"#utility.yul\":5780:5848   */\n      swap4\n      pop\n        /* \"#utility.yul\":5857:5922   */\n      tag_303\n        /* \"#utility.yul\":5915:5921   */\n      dup2\n        /* \"#utility.yul\":5910:5913   */\n      dup6\n        /* \"#utility.yul\":5903:5907   */\n      0x20\n        /* \"#utility.yul\":5896:5901   */\n      dup7\n        /* \"#utility.yul\":5892:5908   */\n      add\n        /* \"#utility.yul\":5857:5922   */\n      tag_185\n      jump\t// in\n    tag_303:\n        /* \"#utility.yul\":5947:5976   */\n      tag_304\n        /* \"#utility.yul\":5969:5975   */\n      dup2\n        /* \"#utility.yul\":5947:5976   */\n      tag_172\n      jump\t// in\n    tag_304:\n        /* \"#utility.yul\":5942:5945   */\n      dup5\n        /* \"#utility.yul\":5938:5977   */\n      add\n        /* \"#utility.yul\":5931:5977   */\n      swap2\n      pop\n        /* \"#utility.yul\":5708:5983   */\n      pop\n        /* \"#utility.yul\":5626:5983   */\n      swap3\n      swap2\n      pop\n      pop\n      jump\t// out\n        /* \"#utility.yul\":5989:6113   */\n    tag_187:\n        /* \"#utility.yul\":6066:6072   */\n      0x00\n        /* \"#utility.yul\":6100:6105   */\n      dup2\n        /* \"#utility.yul\":6094:6106   */\n      mload\n        /* \"#utility.yul\":6084:6106   */\n      swap1\n      pop\n        /* \"#utility.yul\":5989:6113   */\n      swap2\n      swap1\n      pop\n      jump\t// out\n        /* \"#utility.yul\":6119:6303   */\n    tag_188:\n        /* \"#utility.yul\":6218:6229   */\n      0x00\n        /* \"#utility.yul\":6252:6258   */\n      dup3\n        /* \"#utility.yul\":6247:6250   */\n      dup3\n        /* \"#utility.yul\":6240:6259   */\n      mstore\n        /* \"#utility.yul\":6292:6296   */\n      0x20\n        /* \"#utility.yul\":6287:6290   */\n      dup3\n        /* \"#utility.yul\":6283:6297   */\n      add\n        /* \"#utility.yul\":6268:6297   */\n      swap1\n      pop\n        /* \"#utility.yul\":6119:6303   */\n      swap3\n      swap2\n      pop\n      pop\n      jump\t// out\n        /* \"#utility.yul\":6309:6451   */\n    tag_189:\n        /* \"#utility.yul\":6386:6390   */\n      0x00\n        /* \"#utility.yul\":6409:6412   */\n      dup2\n        /* \"#utility.yul\":6401:6412   */\n      swap1\n      pop\n        /* \"#utility.yul\":6439:6443   */\n      0x20\n        /* \"#utility.yul\":6434:6437   */\n      dup3\n        /* \"#utility.yul\":6430:6444   */\n      add\n        /* \"#utility.yul\":6422:6444   */\n      swap1\n      pop\n        /* \"#utility.yul\":6309:6451   */\n      swap2\n      swap1\n      pop\n      jump\t// out\n        /* \"#utility.yul\":6457:6653   */\n    tag_190:\n        /* \"#utility.yul\":6546:6556   */\n      0x00\n        /* \"#utility.yul\":6581:6647   */\n      tag_309\n        /* \"#utility.yul\":6643:6646   */\n      dup4\n        /* \"#utility.yul\":6635:6641   */\n      dup4\n        /* \"#utility.yul\":6581:6647   */\n      tag_186\n      jump\t// in\n    tag_309:\n        /* \"#utility.yul\":6567:6647   */\n      swap1\n      pop\n        /* \"#utility.yul\":6457:6653   */\n      swap3\n      swap2\n      pop\n      pop\n      jump\t// out\n        /* \"#utility.yul\":6659:6782   */\n    tag_191:\n        /* \"#utility.yul\":6739:6743   */\n      0x00\n        /* \"#utility.yul\":6771:6775   */\n      0x20\n        /* \"#utility.yul\":6766:6769   */\n      dup3\n        /* \"#utility.yul\":6762:6776   */\n      add\n        /* \"#utility.yul\":6754:6776   */\n      swap1\n      pop\n        /* \"#utility.yul\":6659:6782   */\n      swap2\n      swap1\n      pop\n      jump\t// out\n        /* \"#utility.yul\":6816:7787   */\n    tag_192:\n        /* \"#utility.yul\":6945:6948   */\n      0x00\n        /* \"#utility.yul\":6974:7038   */\n      tag_312\n        /* \"#utility.yul\":7032:7037   */\n      dup3\n        /* \"#utility.yul\":6974:7038   */\n      tag_187\n      jump\t// in\n    tag_312:\n        /* \"#utility.yul\":7054:7140   */\n      tag_313\n        /* \"#utility.yul\":7133:7139   */\n      dup2\n        /* \"#utility.yul\":7128:7131   */\n      dup6\n        /* \"#utility.yul\":7054:7140   */\n      tag_188\n      jump\t// in\n    tag_313:\n        /* \"#utility.yul\":7047:7140   */\n      swap4\n      pop\n        /* \"#utility.yul\":7166:7169   */\n      dup4\n        /* \"#utility.yul\":7211:7215   */\n      0x20\n        /* \"#utility.yul\":7203:7209   */\n      dup3\n        /* \"#utility.yul\":7199:7216   */\n      mul\n        /* \"#utility.yul\":7194:7197   */\n      dup6\n        /* \"#utility.yul\":7190:7217   */\n      add\n        /* \"#utility.yul\":7241:7307   */\n      tag_314\n        /* \"#utility.yul\":7301:7306   */\n      dup6\n        /* \"#utility.yul\":7241:7307   */\n      tag_189\n      jump\t// in\n    tag_314:\n        /* \"#utility.yul\":7330:7337   */\n      dup1\n        /* \"#utility.yul\":7361:7362   */\n      0x00\n        /* \"#utility.yul\":7346:7742   */\n    tag_315:\n        /* \"#utility.yul\":7371:7377   */\n      dup6\n        /* \"#utility.yul\":7368:7369   */\n      dup2\n        /* \"#utility.yul\":7365:7378   */\n      lt\n        /* \"#utility.yul\":7346:7742   */\n      iszero\n      tag_317\n      jumpi\n        /* \"#utility.yul\":7442:7451   */\n      dup5\n        /* \"#utility.yul\":7436:7440   */\n      dup5\n        /* \"#utility.yul\":7432:7452   */\n      sub\n        /* \"#utility.yul\":7427:7430   */\n      dup10\n        /* \"#utility.yul\":7420:7453   */\n      mstore\n        /* \"#utility.yul\":7493:7499   */\n      dup2\n        /* \"#utility.yul\":7487:7500   */\n      mload\n        /* \"#utility.yul\":7521:7605   */\n      tag_318\n        /* \"#utility.yul\":7600:7604   */\n      dup6\n        /* \"#utility.yul\":7585:7598   */\n      dup3\n        /* \"#utility.yul\":7521:7605   */\n      tag_190\n      jump\t// in\n    tag_318:\n        /* \"#utility.yul\":7513:7605   */\n      swap5\n      pop\n        /* \"#utility.yul\":7628:7698   */\n      tag_319\n        /* \"#utility.yul\":7691:7697   */\n      dup4\n        /* \"#utility.yul\":7628:7698   */\n      tag_191\n      jump\t// in\n    tag_319:\n        /* \"#utility.yul\":7618:7698   */\n      swap3\n      pop\n        /* \"#utility.yul\":7727:7731   */\n      0x20\n        /* \"#utility.yul\":7722:7725   */\n      dup11\n        /* \"#utility.yul\":7718:7732   */\n      add\n        /* \"#utility.yul\":7711:7732   */\n      swap10\n      pop\n        /* \"#utility.yul\":7406:7742   */\n      pop\n        /* \"#utility.yul\":7393:7394   */\n      0x01\n        /* \"#utility.yul\":7390:7391   */\n      dup2\n        /* \"#utility.yul\":7386:7395   */\n      add\n        /* \"#utility.yul\":7381:7395   */\n      swap1\n      pop\n        /* \"#utility.yul\":7346:7742   */\n      jump(tag_315)\n    tag_317:\n        /* \"#utility.yul\":7350:7364   */\n      pop\n        /* \"#utility.yul\":7758:7762   */\n      dup3\n        /* \"#utility.yul\":7751:7762   */\n      swap8\n      pop\n        /* \"#utility.yul\":7778:7781   */\n      dup8\n        /* \"#utility.yul\":7771:7781   */\n      swap6\n      pop\n        /* \"#utility.yul\":6950:7787   */\n      pop\n      pop\n      pop\n      pop\n      pop\n        /* \"#utility.yul\":6816:7787   */\n      swap3\n      swap2\n      pop\n      pop\n      jump\t// out\n        /* \"#utility.yul\":7889:10827   */\n    tag_193:\n        /* \"#utility.yul\":8018:8021   */\n      0x00\n        /* \"#utility.yul\":8054:8060   */\n      0x0160\n        /* \"#utility.yul\":8049:8052   */\n      dup4\n        /* \"#utility.yul\":8045:8061   */\n      add\n        /* \"#utility.yul\":8149:8153   */\n      0x00\n        /* \"#utility.yul\":8142:8147   */\n      dup4\n        /* \"#utility.yul\":8138:8154   */\n      add\n        /* \"#utility.yul\":8132:8155   */\n      mload\n        /* \"#utility.yul\":8168:8231   */\n      tag_321\n        /* \"#utility.yul\":8225:8229   */\n      0x00\n        /* \"#utility.yul\":8220:8223   */\n      dup7\n        /* \"#utility.yul\":8216:8230   */\n      add\n        /* \"#utility.yul\":8202:8214   */\n      dup3\n        /* \"#utility.yul\":8168:8231   */\n      tag_182\n      jump\t// in\n    tag_321:\n        /* \"#utility.yul\":8071:8241   */\n      pop\n        /* \"#utility.yul\":8330:8334   */\n      0x20\n        /* \"#utility.yul\":8323:8328   */\n      dup4\n        /* \"#utility.yul\":8319:8335   */\n      add\n        /* \"#utility.yul\":8313:8336   */\n      mload\n        /* \"#utility.yul\":8383:8386   */\n      dup5\n        /* \"#utility.yul\":8377:8381   */\n      dup3\n        /* \"#utility.yul\":8373:8387   */\n      sub\n        /* \"#utility.yul\":8366:8370   */\n      0x20\n        /* \"#utility.yul\":8361:8364   */\n      dup7\n        /* \"#utility.yul\":8357:8371   */\n      add\n        /* \"#utility.yul\":8350:8388   */\n      mstore\n        /* \"#utility.yul\":8409:8482   */\n      tag_322\n        /* \"#utility.yul\":8477:8481   */\n      dup3\n        /* \"#utility.yul\":8463:8475   */\n      dup3\n        /* \"#utility.yul\":8409:8482   */\n      tag_186\n      jump\t// in\n    tag_322:\n        /* \"#utility.yul\":8401:8482   */\n      swap2\n      pop\n        /* \"#utility.yul\":8251:8493   */\n      pop\n        /* \"#utility.yul\":8579:8583   */\n      0x40\n        /* \"#utility.yul\":8572:8577   */\n      dup4\n        /* \"#utility.yul\":8568:8584   */\n      add\n        /* \"#utility.yul\":8562:8585   */\n      mload\n        /* \"#utility.yul\":8632:8635   */\n      dup5\n        /* \"#utility.yul\":8626:8630   */\n      dup3\n        /* \"#utility.yul\":8622:8636   */\n      sub\n        /* \"#utility.yul\":8615:8619   */\n      0x40\n        /* \"#utility.yul\":8610:8613   */\n      dup7\n        /* \"#utility.yul\":8606:8620   */\n      add\n        /* \"#utility.yul\":8599:8637   */\n      mstore\n        /* \"#utility.yul\":8658:8731   */\n      tag_323\n        /* \"#utility.yul\":8726:8730   */\n      dup3\n        /* \"#utility.yul\":8712:8724   */\n      dup3\n        /* \"#utility.yul\":8658:8731   */\n      tag_186\n      jump\t// in\n    tag_323:\n        /* \"#utility.yul\":8650:8731   */\n      swap2\n      pop\n        /* \"#utility.yul\":8503:8742   */\n      pop\n        /* \"#utility.yul\":8827:8831   */\n      0x60\n        /* \"#utility.yul\":8820:8825   */\n      dup4\n        /* \"#utility.yul\":8816:8832   */\n      add\n        /* \"#utility.yul\":8810:8833   */\n      mload\n        /* \"#utility.yul\":8880:8883   */\n      dup5\n        /* \"#utility.yul\":8874:8878   */\n      dup3\n        /* \"#utility.yul\":8870:8884   */\n      sub\n        /* \"#utility.yul\":8863:8867   */\n      0x60\n        /* \"#utility.yul\":8858:8861   */\n      dup7\n        /* \"#utility.yul\":8854:8868   */\n      add\n        /* \"#utility.yul\":8847:8885   */\n      mstore\n        /* \"#utility.yul\":8906:8979   */\n      tag_324\n        /* \"#utility.yul\":8974:8978   */\n      dup3\n        /* \"#utility.yul\":8960:8972   */\n      dup3\n        /* \"#utility.yul\":8906:8979   */\n      tag_186\n      jump\t// in\n    tag_324:\n        /* \"#utility.yul\":8898:8979   */\n      swap2\n      pop\n        /* \"#utility.yul\":8752:8990   */\n      pop\n        /* \"#utility.yul\":9076:9080   */\n      0x80\n        /* \"#utility.yul\":9069:9074   */\n      dup4\n        /* \"#utility.yul\":9065:9081   */\n      add\n        /* \"#utility.yul\":9059:9082   */\n      mload\n        /* \"#utility.yul\":9095:9158   */\n      tag_325\n        /* \"#utility.yul\":9152:9156   */\n      0x80\n        /* \"#utility.yul\":9147:9150   */\n      dup7\n        /* \"#utility.yul\":9143:9157   */\n      add\n        /* \"#utility.yul\":9129:9141   */\n      dup3\n        /* \"#utility.yul\":9095:9158   */\n      tag_182\n      jump\t// in\n    tag_325:\n        /* \"#utility.yul\":9000:9168   */\n      pop\n        /* \"#utility.yul\":9256:9260   */\n      0xa0\n        /* \"#utility.yul\":9249:9254   */\n      dup4\n        /* \"#utility.yul\":9245:9261   */\n      add\n        /* \"#utility.yul\":9239:9262   */\n      mload\n        /* \"#utility.yul\":9309:9312   */\n      dup5\n        /* \"#utility.yul\":9303:9307   */\n      dup3\n        /* \"#utility.yul\":9299:9313   */\n      sub\n        /* \"#utility.yul\":9292:9296   */\n      0xa0\n        /* \"#utility.yul\":9287:9290   */\n      dup7\n        /* \"#utility.yul\":9283:9297   */\n      add\n        /* \"#utility.yul\":9276:9314   */\n      mstore\n        /* \"#utility.yul\":9335:9408   */\n      tag_326\n        /* \"#utility.yul\":9403:9407   */\n      dup3\n        /* \"#utility.yul\":9389:9401   */\n      dup3\n        /* \"#utility.yul\":9335:9408   */\n      tag_186\n      jump\t// in\n    tag_326:\n        /* \"#utility.yul\":9327:9408   */\n      swap2\n      pop\n        /* \"#utility.yul\":9178:9419   */\n      pop\n        /* \"#utility.yul\":9511:9515   */\n      0xc0\n        /* \"#utility.yul\":9504:9509   */\n      dup4\n        /* \"#utility.yul\":9500:9516   */\n      add\n        /* \"#utility.yul\":9494:9517   */\n      mload\n        /* \"#utility.yul\":9564:9567   */\n      dup5\n        /* \"#utility.yul\":9558:9562   */\n      dup3\n        /* \"#utility.yul\":9554:9568   */\n      sub\n        /* \"#utility.yul\":9547:9551   */\n      0xc0\n        /* \"#utility.yul\":9542:9545   */\n      dup7\n        /* \"#utility.yul\":9538:9552   */\n      add\n        /* \"#utility.yul\":9531:9569   */\n      mstore\n        /* \"#utility.yul\":9590:9663   */\n      tag_327\n        /* \"#utility.yul\":9658:9662   */\n      dup3\n        /* \"#utility.yul\":9644:9656   */\n      dup3\n        /* \"#utility.yul\":9590:9663   */\n      tag_186\n      jump\t// in\n    tag_327:\n        /* \"#utility.yul\":9582:9663   */\n      swap2\n      pop\n        /* \"#utility.yul\":9429:9674   */\n      pop\n        /* \"#utility.yul\":9767:9771   */\n      0xe0\n        /* \"#utility.yul\":9760:9765   */\n      dup4\n        /* \"#utility.yul\":9756:9772   */\n      add\n        /* \"#utility.yul\":9750:9773   */\n      mload\n        /* \"#utility.yul\":9820:9823   */\n      dup5\n        /* \"#utility.yul\":9814:9818   */\n      dup3\n        /* \"#utility.yul\":9810:9824   */\n      sub\n        /* \"#utility.yul\":9803:9807   */\n      0xe0\n        /* \"#utility.yul\":9798:9801   */\n      dup7\n        /* \"#utility.yul\":9794:9808   */\n      add\n        /* \"#utility.yul\":9787:9825   */\n      mstore\n        /* \"#utility.yul\":9846:9919   */\n      tag_328\n        /* \"#utility.yul\":9914:9918   */\n      dup3\n        /* \"#utility.yul\":9900:9912   */\n      dup3\n        /* \"#utility.yul\":9846:9919   */\n      tag_186\n      jump\t// in\n    tag_328:\n        /* \"#utility.yul\":9838:9919   */\n      swap2\n      pop\n        /* \"#utility.yul\":9684:9930   */\n      pop\n        /* \"#utility.yul\":10020:10026   */\n      0x0100\n        /* \"#utility.yul\":10013:10018   */\n      dup4\n        /* \"#utility.yul\":10009:10027   */\n      add\n        /* \"#utility.yul\":10003:10028   */\n      mload\n        /* \"#utility.yul\":10077:10080   */\n      dup5\n        /* \"#utility.yul\":10071:10075   */\n      dup3\n        /* \"#utility.yul\":10067:10081   */\n      sub\n        /* \"#utility.yul\":10058:10064   */\n      0x0100\n        /* \"#utility.yul\":10053:10056   */\n      dup7\n        /* \"#utility.yul\":10049:10065   */\n      add\n        /* \"#utility.yul\":10042:10082   */\n      mstore\n        /* \"#utility.yul\":10103:10176   */\n      tag_329\n        /* \"#utility.yul\":10171:10175   */\n      dup3\n        /* \"#utility.yul\":10157:10169   */\n      dup3\n        /* \"#utility.yul\":10103:10176   */\n      tag_186\n      jump\t// in\n    tag_329:\n        /* \"#utility.yul\":10095:10176   */\n      swap2\n      pop\n        /* \"#utility.yul\":9940:10187   */\n      pop\n        /* \"#utility.yul\":10275:10281   */\n      0x0120\n        /* \"#utility.yul\":10268:10273   */\n      dup4\n        /* \"#utility.yul\":10264:10282   */\n      add\n        /* \"#utility.yul\":10258:10283   */\n      mload\n        /* \"#utility.yul\":10332:10335   */\n      dup5\n        /* \"#utility.yul\":10326:10330   */\n      dup3\n        /* \"#utility.yul\":10322:10336   */\n      sub\n        /* \"#utility.yul\":10313:10319   */\n      0x0120\n        /* \"#utility.yul\":10308:10311   */\n      dup7\n        /* \"#utility.yul\":10304:10320   */\n      add\n        /* \"#utility.yul\":10297:10337   */\n      mstore\n        /* \"#utility.yul\":10358:10481   */\n      tag_330\n        /* \"#utility.yul\":10476:10480   */\n      dup3\n        /* \"#utility.yul\":10462:10474   */\n      dup3\n        /* \"#utility.yul\":10358:10481   */\n      tag_192\n      jump\t// in\n    tag_330:\n        /* \"#utility.yul\":10350:10481   */\n      swap2\n      pop\n        /* \"#utility.yul\":10197:10492   */\n      pop\n        /* \"#utility.yul\":10583:10589   */\n      0x0140\n        /* \"#utility.yul\":10576:10581   */\n      dup4\n        /* \"#utility.yul\":10572:10590   */\n      add\n        /* \"#utility.yul\":10566:10591   */\n      mload\n        /* \"#utility.yul\":10640:10643   */\n      dup5\n        /* \"#utility.yul\":10634:10638   */\n      dup3\n        /* \"#utility.yul\":10630:10644   */\n      sub\n        /* \"#utility.yul\":10621:10627   */\n      0x0140\n        /* \"#utility.yul\":10616:10619   */\n      dup7\n        /* \"#utility.yul\":10612:10628   */\n      add\n        /* \"#utility.yul\":10605:10645   */\n      mstore\n        /* \"#utility.yul\":10666:10789   */\n      tag_331\n        /* \"#utility.yul\":10784:10788   */\n      dup3\n        /* \"#utility.yul\":10770:10782   */\n      dup3\n        /* \"#utility.yul\":10666:10789   */\n      tag_192\n      jump\t// in\n    tag_331:\n        /* \"#utility.yul\":10658:10789   */\n      swap2\n      pop\n        /* \"#utility.yul\":10502:10800   */\n      pop\n        /* \"#utility.yul\":10817:10821   */\n      dup1\n        /* \"#utility.yul\":10810:10821   */\n      swap2\n      pop\n        /* \"#utility.yul\":8023:10827   */\n      pop\n        /* \"#utility.yul\":7889:10827   */\n      swap3\n      swap2\n      pop\n      pop\n      jump\t// out\n        /* \"#utility.yul\":10833:11226   */\n    tag_17:\n        /* \"#utility.yul\":10986:10990   */\n      0x00\n        /* \"#utility.yul\":11024:11026   */\n      0x20\n        /* \"#utility.yul\":11013:11022   */\n      dup3\n        /* \"#utility.yul\":11009:11027   */\n      add\n        /* \"#utility.yul\":11001:11027   */\n      swap1\n      pop\n        /* \"#utility.yul\":11073:11082   */\n      dup2\n        /* \"#utility.yul\":11067:11071   */\n      dup2\n        /* \"#utility.yul\":11063:11083   */\n      sub\n        /* \"#utility.yul\":11059:11060   */\n      0x00\n        /* \"#utility.yul\":11048:11057   */\n      dup4\n        /* \"#utility.yul\":11044:11061   */\n      add\n        /* \"#utility.yul\":11037:11084   */\n      mstore\n        /* \"#utility.yul\":11101:11219   */\n      tag_333\n        /* \"#utility.yul\":11214:11218   */\n      dup2\n        /* \"#utility.yul\":11205:11211   */\n      dup5\n        /* \"#utility.yul\":11101:11219   */\n      tag_193\n      jump\t// in\n    tag_333:\n        /* \"#utility.yul\":11093:11219   */\n      swap1\n      pop\n        /* \"#utility.yul\":10833:11226   */\n      swap3\n      swap2\n      pop\n      pop\n      jump\t// out\n        /* \"#utility.yul\":11232:11354   */\n    tag_194:\n        /* \"#utility.yul\":11305:11329   */\n      tag_335\n        /* \"#utility.yul\":11323:11328   */\n      dup2\n        /* \"#utility.yul\":11305:11329   */\n      tag_181\n      jump\t// in\n    tag_335:\n        /* \"#utility.yul\":11298:11303   */\n      dup2\n        /* \"#utility.yul\":11295:11330   */\n      eq\n        /* \"#utility.yul\":11285:11348   */\n      tag_336\n      jumpi\n        /* \"#utility.yul\":11344:11345   */\n      0x00\n        /* \"#utility.yul\":11341:11342   */\n      dup1\n        /* \"#utility.yul\":11334:11346   */\n      revert\n        /* \"#utility.yul\":11285:11348   */\n    tag_336:\n        /* \"#utility.yul\":11232:11354   */\n      pop\n      jump\t// out\n        /* \"#utility.yul\":11360:11499   */\n    tag_195:\n        /* \"#utility.yul\":11406:11411   */\n      0x00\n        /* \"#utility.yul\":11444:11450   */\n      dup2\n        /* \"#utility.yul\":11431:11451   */\n      calldataload\n        /* \"#utility.yul\":11422:11451   */\n      swap1\n      pop\n        /* \"#utility.yul\":11460:11493   */\n      tag_338\n        /* \"#utility.yul\":11487:11492   */\n      dup2\n        /* \"#utility.yul\":11460:11493   */\n      tag_194\n      jump\t// in\n    tag_338:\n        /* \"#utility.yul\":11360:11499   */\n      swap3\n      swap2\n      pop\n      pop\n      jump\t// out\n        /* \"#utility.yul\":11505:11826   */\n    tag_196:\n        /* \"#utility.yul\":11592:11596   */\n      0x00\n        /* \"#utility.yul\":11682:11700   */\n      0xffffffffffffffff\n        /* \"#utility.yul\":11674:11680   */\n      dup3\n        /* \"#utility.yul\":11671:11701   */\n      gt\n        /* \"#utility.yul\":11668:11724   */\n      iszero\n      tag_340\n      jumpi\n        /* \"#utility.yul\":11704:11722   */\n      tag_341\n      tag_173\n      jump\t// in\n    tag_341:\n        /* \"#utility.yul\":11668:11724   */\n    tag_340:\n        /* \"#utility.yul\":11754:11758   */\n      0x20\n        /* \"#utility.yul\":11746:11752   */\n      dup3\n        /* \"#utility.yul\":11742:11759   */\n      mul\n        /* \"#utility.yul\":11734:11759   */\n      swap1\n      pop\n        /* \"#utility.yul\":11814:11818   */\n      0x20\n        /* \"#utility.yul\":11808:11812   */\n      dup2\n        /* \"#utility.yul\":11804:11819   */\n      add\n        /* \"#utility.yul\":11796:11819   */\n      swap1\n      pop\n        /* \"#utility.yul\":11505:11826   */\n      swap2\n      swap1\n      pop\n      jump\t// out\n        /* \"#utility.yul\":11832:11949   */\n    tag_197:\n        /* \"#utility.yul\":11941:11942   */\n      0x00\n        /* \"#utility.yul\":11938:11939   */\n      dup1\n        /* \"#utility.yul\":11931:11943   */\n      revert\n        /* \"#utility.yul\":11971:12916   */\n    tag_198:\n        /* \"#utility.yul\":12077:12082   */\n      0x00\n        /* \"#utility.yul\":12102:12193   */\n      tag_344\n        /* \"#utility.yul\":12118:12192   */\n      tag_345\n        /* \"#utility.yul\":12185:12191   */\n      dup5\n        /* \"#utility.yul\":12118:12192   */\n      tag_196\n      jump\t// in\n    tag_345:\n        /* \"#utility.yul\":12102:12193   */\n      tag_175\n      jump\t// in\n    tag_344:\n        /* \"#utility.yul\":12093:12193   */\n      swap1\n      pop\n        /* \"#utility.yul\":12213:12218   */\n      dup1\n        /* \"#utility.yul\":12242:12248   */\n      dup4\n        /* \"#utility.yul\":12235:12240   */\n      dup3\n        /* \"#utility.yul\":12228:12249   */\n      mstore\n        /* \"#utility.yul\":12276:12280   */\n      0x20\n        /* \"#utility.yul\":12269:12274   */\n      dup3\n        /* \"#utility.yul\":12265:12281   */\n      add\n        /* \"#utility.yul\":12258:12281   */\n      swap1\n      pop\n        /* \"#utility.yul\":12329:12333   */\n      0x20\n        /* \"#utility.yul\":12321:12327   */\n      dup5\n        /* \"#utility.yul\":12317:12334   */\n      mul\n        /* \"#utility.yul\":12309:12315   */\n      dup4\n        /* \"#utility.yul\":12305:12335   */\n      add\n        /* \"#utility.yul\":12358:12361   */\n      dup6\n        /* \"#utility.yul\":12350:12356   */\n      dup2\n        /* \"#utility.yul\":12347:12362   */\n      gt\n        /* \"#utility.yul\":12344:12466   */\n      iszero\n      tag_346\n      jumpi\n        /* \"#utility.yul\":12377:12456   */\n      tag_347\n      tag_197\n      jump\t// in\n    tag_347:\n        /* \"#utility.yul\":12344:12466   */\n    tag_346:\n        /* \"#utility.yul\":12492:12498   */\n      dup4\n        /* \"#utility.yul\":12475:12910   */\n    tag_348:\n        /* \"#utility.yul\":12509:12515   */\n      dup2\n        /* \"#utility.yul\":12504:12507   */\n      dup2\n        /* \"#utility.yul\":12501:12516   */\n      lt\n        /* \"#utility.yul\":12475:12910   */\n      iszero\n      tag_350\n      jumpi\n        /* \"#utility.yul\":12598:12601   */\n      dup1\n        /* \"#utility.yul\":12585:12602   */\n      calldataload\n        /* \"#utility.yul\":12634:12652   */\n      0xffffffffffffffff\n        /* \"#utility.yul\":12621:12632   */\n      dup2\n        /* \"#utility.yul\":12618:12653   */\n      gt\n        /* \"#utility.yul\":12615:12737   */\n      iszero\n      tag_351\n      jumpi\n        /* \"#utility.yul\":12656:12735   */\n      tag_352\n      tag_170\n      jump\t// in\n    tag_352:\n        /* \"#utility.yul\":12615:12737   */\n    tag_351:\n        /* \"#utility.yul\":12780:12791   */\n      dup1\n        /* \"#utility.yul\":12772:12778   */\n      dup7\n        /* \"#utility.yul\":12768:12792   */\n      add\n        /* \"#utility.yul\":12818:12865   */\n      tag_353\n        /* \"#utility.yul\":12861:12864   */\n      dup10\n        /* \"#utility.yul\":12849:12859   */\n      dup3\n        /* \"#utility.yul\":12818:12865   */\n      tag_179\n      jump\t// in\n    tag_353:\n        /* \"#utility.yul\":12813:12816   */\n      dup6\n        /* \"#utility.yul\":12806:12866   */\n      mstore\n        /* \"#utility.yul\":12895:12899   */\n      0x20\n        /* \"#utility.yul\":12890:12893   */\n      dup6\n        /* \"#utility.yul\":12886:12900   */\n      add\n        /* \"#utility.yul\":12879:12900   */\n      swap5\n      pop\n        /* \"#utility.yul\":12551:12910   */\n      pop\n      pop\n        /* \"#utility.yul\":12535:12539   */\n      0x20\n        /* \"#utility.yul\":12530:12533   */\n      dup2\n        /* \"#utility.yul\":12526:12540   */\n      add\n        /* \"#utility.yul\":12519:12540   */\n      swap1\n      pop\n        /* \"#utility.yul\":12475:12910   */\n      jump(tag_348)\n    tag_350:\n        /* \"#utility.yul\":12479:12500   */\n      pop\n        /* \"#utility.yul\":12083:12916   */\n      pop\n      pop\n        /* \"#utility.yul\":11971:12916   */\n      swap4\n      swap3\n      pop\n      pop\n      pop\n      jump\t// out\n        /* \"#utility.yul\":12938:13328   */\n    tag_199:\n        /* \"#utility.yul\":13019:13024   */\n      0x00\n        /* \"#utility.yul\":13068:13071   */\n      dup3\n        /* \"#utility.yul\":13061:13065   */\n      0x1f\n        /* \"#utility.yul\":13053:13059   */\n      dup4\n        /* \"#utility.yul\":13049:13066   */\n      add\n        /* \"#utility.yul\":13045:13072   */\n      slt\n        /* \"#utility.yul\":13035:13157   */\n      tag_355\n      jumpi\n        /* \"#utility.yul\":13076:13155   */\n      tag_356\n      tag_170\n      jump\t// in\n    tag_356:\n        /* \"#utility.yul\":13035:13157   */\n    tag_355:\n        /* \"#utility.yul\":13193:13199   */\n      dup2\n        /* \"#utility.yul\":13180:13200   */\n      calldataload\n        /* \"#utility.yul\":13218:13322   */\n      tag_357\n        /* \"#utility.yul\":13318:13321   */\n      dup5\n        /* \"#utility.yul\":13310:13316   */\n      dup3\n        /* \"#utility.yul\":13303:13307   */\n      0x20\n        /* \"#utility.yul\":13295:13301   */\n      dup7\n        /* \"#utility.yul\":13291:13308   */\n      add\n        /* \"#utility.yul\":13218:13322   */\n      tag_198\n      jump\t// in\n    tag_357:\n        /* \"#utility.yul\":13209:13322   */\n      swap2\n      pop\n        /* \"#utility.yul\":13025:13328   */\n      pop\n        /* \"#utility.yul\":12938:13328   */\n      swap3\n      swap2\n      pop\n      pop\n      jump\t// out\n        /* \"#utility.yul\":13334:16843   */\n    tag_20:\n        /* \"#utility.yul\":13623:13629   */\n      0x00\n        /* \"#utility.yul\":13631:13637   */\n      dup1\n        /* \"#utility.yul\":13639:13645   */\n      0x00\n        /* \"#utility.yul\":13647:13653   */\n      dup1\n        /* \"#utility.yul\":13655:13661   */\n      0x00\n        /* \"#utility.yul\":13663:13669   */\n      dup1\n        /* \"#utility.yul\":13671:13677   */\n      0x00\n        /* \"#utility.yul\":13679:13685   */\n      dup1\n        /* \"#utility.yul\":13687:13693   */\n      0x00\n        /* \"#utility.yul\":13695:13701   */\n      dup1\n        /* \"#utility.yul\":13703:13710   */\n      0x00\n        /* \"#utility.yul\":13753:13756   */\n      0x0160\n        /* \"#utility.yul\":13741:13750   */\n      dup13\n        /* \"#utility.yul\":13732:13739   */\n      dup15\n        /* \"#utility.yul\":13728:13751   */\n      sub\n        /* \"#utility.yul\":13724:13757   */\n      slt\n        /* \"#utility.yul\":13721:13841   */\n      iszero\n      tag_359\n      jumpi\n        /* \"#utility.yul\":13760:13839   */\n      tag_360\n      tag_165\n      jump\t// in\n    tag_360:\n        /* \"#utility.yul\":13721:13841   */\n    tag_359:\n        /* \"#utility.yul\":13880:13881   */\n      0x00\n        /* \"#utility.yul\":13905:13958   */\n      tag_361\n        /* \"#utility.yul\":13950:13957   */\n      dup15\n        /* \"#utility.yul\":13941:13947   */\n      dup3\n        /* \"#utility.yul\":13930:13939   */\n      dup16\n        /* \"#utility.yul\":13926:13948   */\n      add\n        /* \"#utility.yul\":13905:13958   */\n      tag_195\n      jump\t// in\n    tag_361:\n        /* \"#utility.yul\":13895:13958   */\n      swap12\n      pop\n        /* \"#utility.yul\":13851:13968   */\n      pop\n        /* \"#utility.yul\":14035:14037   */\n      0x20\n        /* \"#utility.yul\":14024:14033   */\n      dup13\n        /* \"#utility.yul\":14020:14038   */\n      add\n        /* \"#utility.yul\":14007:14039   */\n      calldataload\n        /* \"#utility.yul\":14066:14084   */\n      0xffffffffffffffff\n        /* \"#utility.yul\":14058:14064   */\n      dup2\n        /* \"#utility.yul\":14055:14085   */\n      gt\n        /* \"#utility.yul\":14052:14169   */\n      iszero\n      tag_362\n      jumpi\n        /* \"#utility.yul\":14088:14167   */\n      tag_363\n      tag_166\n      jump\t// in\n    tag_363:\n        /* \"#utility.yul\":14052:14169   */\n    tag_362:\n        /* \"#utility.yul\":14193:14256   */\n      tag_364\n        /* \"#utility.yul\":14248:14255   */\n      dup15\n        /* \"#utility.yul\":14239:14245   */\n      dup3\n        /* \"#utility.yul\":14228:14237   */\n      dup16\n        /* \"#utility.yul\":14224:14246   */\n      add\n        /* \"#utility.yul\":14193:14256   */\n      tag_179\n      jump\t// in\n    tag_364:\n        /* \"#utility.yul\":14183:14256   */\n      swap11\n      pop\n        /* \"#utility.yul\":13978:14266   */\n      pop\n        /* \"#utility.yul\":14333:14335   */\n      0x40\n        /* \"#utility.yul\":14322:14331   */\n      dup13\n        /* \"#utility.yul\":14318:14336   */\n      add\n        /* \"#utility.yul\":14305:14337   */\n      calldataload\n        /* \"#utility.yul\":14364:14382   */\n      0xffffffffffffffff\n        /* \"#utility.yul\":14356:14362   */\n      dup2\n        /* \"#utility.yul\":14353:14383   */\n      gt\n        /* \"#utility.yul\":14350:14467   */\n      iszero\n      tag_365\n      jumpi\n        /* \"#utility.yul\":14386:14465   */\n      tag_366\n      tag_166\n      jump\t// in\n    tag_366:\n        /* \"#utility.yul\":14350:14467   */\n    tag_365:\n        /* \"#utility.yul\":14491:14554   */\n      tag_367\n        /* \"#utility.yul\":14546:14553   */\n      dup15\n        /* \"#utility.yul\":14537:14543   */\n      dup3\n        /* \"#utility.yul\":14526:14535   */\n      dup16\n        /* \"#utility.yul\":14522:14544   */\n      add\n        /* \"#utility.yul\":14491:14554   */\n      tag_179\n      jump\t// in\n    tag_367:\n        /* \"#utility.yul\":14481:14554   */\n      swap10\n      pop\n        /* \"#utility.yul\":14276:14564   */\n      pop\n        /* \"#utility.yul\":14631:14633   */\n      0x60\n        /* \"#utility.yul\":14620:14629   */\n      dup13\n        /* \"#utility.yul\":14616:14634   */\n      add\n        /* \"#utility.yul\":14603:14635   */\n      calldataload\n        /* \"#utility.yul\":14662:14680   */\n      0xffffffffffffffff\n        /* \"#utility.yul\":14654:14660   */\n      dup2\n        /* \"#utility.yul\":14651:14681   */\n      gt\n        /* \"#utility.yul\":14648:14765   */\n      iszero\n      tag_368\n      jumpi\n        /* \"#utility.yul\":14684:14763   */\n      tag_369\n      tag_166\n      jump\t// in\n    tag_369:\n        /* \"#utility.yul\":14648:14765   */\n    tag_368:\n        /* \"#utility.yul\":14789:14852   */\n      tag_370\n        /* \"#utility.yul\":14844:14851   */\n      dup15\n        /* \"#utility.yul\":14835:14841   */\n      dup3\n        /* \"#utility.yul\":14824:14833   */\n      dup16\n        /* \"#utility.yul\":14820:14842   */\n      add\n        /* \"#utility.yul\":14789:14852   */\n      tag_179\n      jump\t// in\n    tag_370:\n        /* \"#utility.yul\":14779:14852   */\n      swap9\n      pop\n        /* \"#utility.yul\":14574:14862   */\n      pop\n        /* \"#utility.yul\":14901:14904   */\n      0x80\n        /* \"#utility.yul\":14928:14981   */\n      tag_371\n        /* \"#utility.yul\":14973:14980   */\n      dup15\n        /* \"#utility.yul\":14964:14970   */\n      dup3\n        /* \"#utility.yul\":14953:14962   */\n      dup16\n        /* \"#utility.yul\":14949:14971   */\n      add\n        /* \"#utility.yul\":14928:14981   */\n      tag_195\n      jump\t// in\n    tag_371:\n        /* \"#utility.yul\":14918:14981   */\n      swap8\n      pop\n        /* \"#utility.yul\":14872:14991   */\n      pop\n        /* \"#utility.yul\":15058:15061   */\n      0xa0\n        /* \"#utility.yul\":15047:15056   */\n      dup13\n        /* \"#utility.yul\":15043:15062   */\n      add\n        /* \"#utility.yul\":15030:15063   */\n      calldataload\n        /* \"#utility.yul\":15090:15108   */\n      0xffffffffffffffff\n        /* \"#utility.yul\":15082:15088   */\n      dup2\n        /* \"#utility.yul\":15079:15109   */\n      gt\n        /* \"#utility.yul\":15076:15193   */\n      iszero\n      tag_372\n      jumpi\n        /* \"#utility.yul\":15112:15191   */\n      tag_373\n      tag_166\n      jump\t// in\n    tag_373:\n        /* \"#utility.yul\":15076:15193   */\n    tag_372:\n        /* \"#utility.yul\":15217:15280   */\n      tag_374\n        /* \"#utility.yul\":15272:15279   */\n      dup15\n        /* \"#utility.yul\":15263:15269   */\n      dup3\n        /* \"#utility.yul\":15252:15261   */\n      dup16\n        /* \"#utility.yul\":15248:15270   */\n      add\n        /* \"#utility.yul\":15217:15280   */\n      tag_179\n      jump\t// in\n    tag_374:\n        /* \"#utility.yul\":15207:15280   */\n      swap7\n      pop\n        /* \"#utility.yul\":15001:15290   */\n      pop\n        /* \"#utility.yul\":15357:15360   */\n      0xc0\n        /* \"#utility.yul\":15346:15355   */\n      dup13\n        /* \"#utility.yul\":15342:15361   */\n      add\n        /* \"#utility.yul\":15329:15362   */\n      calldataload\n        /* \"#utility.yul\":15389:15407   */\n      0xffffffffffffffff\n        /* \"#utility.yul\":15381:15387   */\n      dup2\n        /* \"#utility.yul\":15378:15408   */\n      gt\n        /* \"#utility.yul\":15375:15492   */\n      iszero\n      tag_375\n      jumpi\n        /* \"#utility.yul\":15411:15490   */\n      tag_376\n      tag_166\n      jump\t// in\n    tag_376:\n        /* \"#utility.yul\":15375:15492   */\n    tag_375:\n        /* \"#utility.yul\":15516:15579   */\n      tag_377\n        /* \"#utility.yul\":15571:15578   */\n      dup15\n        /* \"#utility.yul\":15562:15568   */\n      dup3\n        /* \"#utility.yul\":15551:15560   */\n      dup16\n        /* \"#utility.yul\":15547:15569   */\n      add\n        /* \"#utility.yul\":15516:15579   */\n      tag_179\n      jump\t// in\n    tag_377:\n        /* \"#utility.yul\":15506:15579   */\n      swap6\n      pop\n        /* \"#utility.yul\":15300:15589   */\n      pop\n        /* \"#utility.yul\":15656:15659   */\n      0xe0\n        /* \"#utility.yul\":15645:15654   */\n      dup13\n        /* \"#utility.yul\":15641:15660   */\n      add\n        /* \"#utility.yul\":15628:15661   */\n      calldataload\n        /* \"#utility.yul\":15688:15706   */\n      0xffffffffffffffff\n        /* \"#utility.yul\":15680:15686   */\n      dup2\n        /* \"#utility.yul\":15677:15707   */\n      gt\n        /* \"#utility.yul\":15674:15791   */\n      iszero\n      tag_378\n      jumpi\n        /* \"#utility.yul\":15710:15789   */\n      tag_379\n      tag_166\n      jump\t// in\n    tag_379:\n        /* \"#utility.yul\":15674:15791   */\n    tag_378:\n        /* \"#utility.yul\":15815:15878   */\n      tag_380\n        /* \"#utility.yul\":15870:15877   */\n      dup15\n        /* \"#utility.yul\":15861:15867   */\n      dup3\n        /* \"#utility.yul\":15850:15859   */\n      dup16\n        /* \"#utility.yul\":15846:15868   */\n      add\n        /* \"#utility.yul\":15815:15878   */\n      tag_179\n      jump\t// in\n    tag_380:\n        /* \"#utility.yul\":15805:15878   */\n      swap5\n      pop\n        /* \"#utility.yul\":15599:15888   */\n      pop\n        /* \"#utility.yul\":15955:15958   */\n      0x0100\n        /* \"#utility.yul\":15944:15953   */\n      dup13\n        /* \"#utility.yul\":15940:15959   */\n      add\n        /* \"#utility.yul\":15927:15960   */\n      calldataload\n        /* \"#utility.yul\":15987:16005   */\n      0xffffffffffffffff\n        /* \"#utility.yul\":15979:15985   */\n      dup2\n        /* \"#utility.yul\":15976:16006   */\n      gt\n        /* \"#utility.yul\":15973:16090   */\n      iszero\n      tag_381\n      jumpi\n        /* \"#utility.yul\":16009:16088   */\n      tag_382\n      tag_166\n      jump\t// in\n    tag_382:\n        /* \"#utility.yul\":15973:16090   */\n    tag_381:\n        /* \"#utility.yul\":16114:16177   */\n      tag_383\n        /* \"#utility.yul\":16169:16176   */\n      dup15\n        /* \"#utility.yul\":16160:16166   */\n      dup3\n        /* \"#utility.yul\":16149:16158   */\n      dup16\n        /* \"#utility.yul\":16145:16167   */\n      add\n        /* \"#utility.yul\":16114:16177   */\n      tag_179\n      jump\t// in\n    tag_383:\n        /* \"#utility.yul\":16104:16177   */\n      swap4\n      pop\n        /* \"#utility.yul\":15898:16187   */\n      pop\n        /* \"#utility.yul\":16254:16257   */\n      0x0120\n        /* \"#utility.yul\":16243:16252   */\n      dup13\n        /* \"#utility.yul\":16239:16258   */\n      add\n        /* \"#utility.yul\":16226:16259   */\n      calldataload\n        /* \"#utility.yul\":16286:16304   */\n      0xffffffffffffffff\n        /* \"#utility.yul\":16278:16284   */\n      dup2\n        /* \"#utility.yul\":16275:16305   */\n      gt\n        /* \"#utility.yul\":16272:16389   */\n      iszero\n      tag_384\n      jumpi\n        /* \"#utility.yul\":16308:16387   */\n      tag_385\n      tag_166\n      jump\t// in\n    tag_385:\n        /* \"#utility.yul\":16272:16389   */\n    tag_384:\n        /* \"#utility.yul\":16413:16501   */\n      tag_386\n        /* \"#utility.yul\":16493:16500   */\n      dup15\n        /* \"#utility.yul\":16484:16490   */\n      dup3\n        /* \"#utility.yul\":16473:16482   */\n      dup16\n        /* \"#utility.yul\":16469:16491   */\n      add\n        /* \"#utility.yul\":16413:16501   */\n      tag_199\n      jump\t// in\n    tag_386:\n        /* \"#utility.yul\":16403:16501   */\n      swap3\n      pop\n        /* \"#utility.yul\":16197:16511   */\n      pop\n        /* \"#utility.yul\":16578:16581   */\n      0x0140\n        /* \"#utility.yul\":16567:16576   */\n      dup13\n        /* \"#utility.yul\":16563:16582   */\n      add\n        /* \"#utility.yul\":16550:16583   */\n      calldataload\n        /* \"#utility.yul\":16610:16628   */\n      0xffffffffffffffff\n        /* \"#utility.yul\":16602:16608   */\n      dup2\n        /* \"#utility.yul\":16599:16629   */\n      gt\n        /* \"#utility.yul\":16596:16713   */\n      iszero\n      tag_387\n      jumpi\n        /* \"#utility.yul\":16632:16711   */\n      tag_388\n      tag_166\n      jump\t// in\n    tag_388:\n        /* \"#utility.yul\":16596:16713   */\n    tag_387:\n        /* \"#utility.yul\":16738:16826   */\n      tag_389\n        /* \"#utility.yul\":16818:16825   */\n      dup15\n        /* \"#utility.yul\":16809:16815   */\n      dup3\n        /* \"#utility.yul\":16798:16807   */\n      dup16\n        /* \"#utility.yul\":16794:16816   */\n      add\n        /* \"#utility.yul\":16738:16826   */\n      tag_199\n      jump\t// in\n    tag_389:\n        /* \"#utility.yul\":16727:16826   */\n      swap2\n      pop\n        /* \"#utility.yul\":16521:16836   */\n      pop\n        /* \"#utility.yul\":13334:16843   */\n      swap3\n      swap6\n      swap9\n      swap12\n      pop\n      swap3\n      swap6\n      swap9\n      swap12\n      swap1\n      swap4\n      swap7\n      swap10\n      pop\n      jump\t// out\n        /* \"#utility.yul\":16849:17018   */\n    tag_200:\n        /* \"#utility.yul\":16933:16944   */\n      0x00\n        /* \"#utility.yul\":16967:16973   */\n      dup3\n        /* \"#utility.yul\":16962:16965   */\n      dup3\n        /* \"#utility.yul\":16955:16974   */\n      mstore\n        /* \"#utility.yul\":17007:17011   */\n      0x20\n        /* \"#utility.yul\":17002:17005   */\n      dup3\n        /* \"#utility.yul\":16998:17012   */\n      add\n        /* \"#utility.yul\":16983:17012   */\n      swap1\n      pop\n        /* \"#utility.yul\":16849:17018   */\n      swap3\n      swap2\n      pop\n      pop\n      jump\t// out\n        /* \"#utility.yul\":17024:17196   */\n    tag_201:\n        /* \"#utility.yul\":17164:17188   */\n      0x50726f6475637420646f6573206e6f7420657869737400000000000000000000\n        /* \"#utility.yul\":17160:17161   */\n      0x00\n        /* \"#utility.yul\":17152:17158   */\n      dup3\n        /* \"#utility.yul\":17148:17162   */\n      add\n        /* \"#utility.yul\":17141:17189   */\n      mstore\n        /* \"#utility.yul\":17024:17196   */\n      pop\n      jump\t// out\n        /* \"#utility.yul\":17202:17568   */\n    tag_202:\n        /* \"#utility.yul\":17344:17347   */\n      0x00\n        /* \"#utility.yul\":17365:17432   */\n      tag_393\n        /* \"#utility.yul\":17429:17431   */\n      0x16\n        /* \"#utility.yul\":17424:17427   */\n      dup4\n        /* \"#utility.yul\":17365:17432   */\n      tag_200\n      jump\t// in\n    tag_393:\n        /* \"#utility.yul\":17358:17432   */\n      swap2\n      pop\n        /* \"#utility.yul\":17441:17534   */\n      tag_394\n        /* \"#utility.yul\":17530:17533   */\n      dup3\n        /* \"#utility.yul\":17441:17534   */\n      tag_201\n      jump\t// in\n    tag_394:\n        /* \"#utility.yul\":17559:17561   */\n      0x20\n        /* \"#utility.yul\":17554:17557   */\n      dup3\n        /* \"#utility.yul\":17550:17562   */\n      add\n        /* \"#utility.yul\":17543:17562   */\n      swap1\n      pop\n        /* \"#utility.yul\":17202:17568   */\n      swap2\n      swap1\n      pop\n      jump\t// out\n        /* \"#utility.yul\":17574:17993   */\n    tag_26:\n        /* \"#utility.yul\":17740:17744   */\n      0x00\n        /* \"#utility.yul\":17778:17780   */\n      0x20\n        /* \"#utility.yul\":17767:17776   */\n      dup3\n        /* \"#utility.yul\":17763:17781   */\n      add\n        /* \"#utility.yul\":17755:17781   */\n      swap1\n      pop\n        /* \"#utility.yul\":17827:17836   */\n      dup2\n        /* \"#utility.yul\":17821:17825   */\n      dup2\n        /* \"#utility.yul\":17817:17837   */\n      sub\n        /* \"#utility.yul\":17813:17814   */\n      0x00\n        /* \"#utility.yul\":17802:17811   */\n      dup4\n        /* \"#utility.yul\":17798:17815   */\n      add\n        /* \"#utility.yul\":17791:17838   */\n      mstore\n        /* \"#utility.yul\":17855:17986   */\n      tag_396\n        /* \"#utility.yul\":17981:17985   */\n      dup2\n        /* \"#utility.yul\":17855:17986   */\n      tag_202\n      jump\t// in\n    tag_396:\n        /* \"#utility.yul\":17847:17986   */\n      swap1\n      pop\n        /* \"#utility.yul\":17574:17993   */\n      swap2\n      swap1\n      pop\n      jump\t// out\n        /* \"#utility.yul\":17999:18147   */\n    tag_203:\n        /* \"#utility.yul\":18101:18112   */\n      0x00\n        /* \"#utility.yul\":18138:18141   */\n      dup2\n        /* \"#utility.yul\":18123:18141   */\n      swap1\n      pop\n        /* \"#utility.yul\":17999:18147   */\n      swap3\n      swap2\n      pop\n      pop\n      jump\t// out\n        /* \"#utility.yul\":18153:18543   */\n    tag_204:\n        /* \"#utility.yul\":18259:18262   */\n      0x00\n        /* \"#utility.yul\":18287:18326   */\n      tag_399\n        /* \"#utility.yul\":18320:18325   */\n      dup3\n        /* \"#utility.yul\":18287:18326   */\n      tag_183\n      jump\t// in\n    tag_399:\n        /* \"#utility.yul\":18342:18431   */\n      tag_400\n        /* \"#utility.yul\":18424:18430   */\n      dup2\n        /* \"#utility.yul\":18419:18422   */\n      dup6\n        /* \"#utility.yul\":18342:18431   */\n      tag_203\n      jump\t// in\n    tag_400:\n        /* \"#utility.yul\":18335:18431   */\n      swap4\n      pop\n        /* \"#utility.yul\":18440:18505   */\n      tag_401\n        /* \"#utility.yul\":18498:18504   */\n      dup2\n        /* \"#utility.yul\":18493:18496   */\n      dup6\n        /* \"#utility.yul\":18486:18490   */\n      0x20\n        /* \"#utility.yul\":18479:18484   */\n      dup7\n        /* \"#utility.yul\":18475:18491   */\n      add\n        /* \"#utility.yul\":18440:18505   */\n      tag_185\n      jump\t// in\n    tag_401:\n        /* \"#utility.yul\":18530:18536   */\n      dup1\n        /* \"#utility.yul\":18525:18528   */\n      dup5\n        /* \"#utility.yul\":18521:18537   */\n      add\n        /* \"#utility.yul\":18514:18537   */\n      swap2\n      pop\n        /* \"#utility.yul\":18263:18543   */\n      pop\n        /* \"#utility.yul\":18153:18543   */\n      swap3\n      swap2\n      pop\n      pop\n      jump\t// out\n        /* \"#utility.yul\":18549:18628   */\n    tag_205:\n        /* \"#utility.yul\":18588:18595   */\n      0x00\n        /* \"#utility.yul\":18617:18622   */\n      dup2\n        /* \"#utility.yul\":18606:18622   */\n      swap1\n      pop\n        /* \"#utility.yul\":18549:18628   */\n      swap2\n      swap1\n      pop\n      jump\t// out\n        /* \"#utility.yul\":18634:18791   */\n    tag_206:\n        /* \"#utility.yul\":18739:18784   */\n      tag_404\n        /* \"#utility.yul\":18759:18783   */\n      tag_405\n        /* \"#utility.yul\":18777:18782   */\n      dup3\n        /* \"#utility.yul\":18759:18783   */\n      tag_167\n      jump\t// in\n    tag_405:\n        /* \"#utility.yul\":18739:18784   */\n      tag_205\n      jump\t// in\n    tag_404:\n        /* \"#utility.yul\":18734:18737   */\n      dup3\n        /* \"#utility.yul\":18727:18785   */\n      mstore\n        /* \"#utility.yul\":18634:18791   */\n      pop\n      pop\n      jump\t// out\n        /* \"#utility.yul\":18797:19533   */\n    tag_30:\n        /* \"#utility.yul\":19053:19056   */\n      0x00\n        /* \"#utility.yul\":19075:19170   */\n      tag_407\n        /* \"#utility.yul\":19166:19169   */\n      dup3\n        /* \"#utility.yul\":19157:19163   */\n      dup8\n        /* \"#utility.yul\":19075:19170   */\n      tag_204\n      jump\t// in\n    tag_407:\n        /* \"#utility.yul\":19068:19170   */\n      swap2\n      pop\n        /* \"#utility.yul\":19180:19255   */\n      tag_408\n        /* \"#utility.yul\":19251:19254   */\n      dup3\n        /* \"#utility.yul\":19242:19248   */\n      dup7\n        /* \"#utility.yul\":19180:19255   */\n      tag_206\n      jump\t// in\n    tag_408:\n        /* \"#utility.yul\":19280:19282   */\n      0x20\n        /* \"#utility.yul\":19275:19278   */\n      dup3\n        /* \"#utility.yul\":19271:19283   */\n      add\n        /* \"#utility.yul\":19264:19283   */\n      swap2\n      pop\n        /* \"#utility.yul\":19300:19395   */\n      tag_409\n        /* \"#utility.yul\":19391:19394   */\n      dup3\n        /* \"#utility.yul\":19382:19388   */\n      dup6\n        /* \"#utility.yul\":19300:19395   */\n      tag_204\n      jump\t// in\n    tag_409:\n        /* \"#utility.yul\":19293:19395   */\n      swap2\n      pop\n        /* \"#utility.yul\":19412:19507   */\n      tag_410\n        /* \"#utility.yul\":19503:19506   */\n      dup3\n        /* \"#utility.yul\":19494:19500   */\n      dup5\n        /* \"#utility.yul\":19412:19507   */\n      tag_204\n      jump\t// in\n    tag_410:\n        /* \"#utility.yul\":19405:19507   */\n      swap2\n      pop\n        /* \"#utility.yul\":19524:19527   */\n      dup2\n        /* \"#utility.yul\":19517:19527   */\n      swap1\n      pop\n        /* \"#utility.yul\":18797:19533   */\n      swap6\n      swap5\n      pop\n      pop\n      pop\n      pop\n      pop\n      jump\t// out\n        /* \"#utility.yul\":19539:20115   */\n    tag_34:\n        /* \"#utility.yul\":19747:19750   */\n      0x00\n        /* \"#utility.yul\":19769:19864   */\n      tag_412\n        /* \"#utility.yul\":19860:19863   */\n      dup3\n        /* \"#utility.yul\":19851:19857   */\n      dup7\n        /* \"#utility.yul\":19769:19864   */\n      tag_204\n      jump\t// in\n    tag_412:\n        /* \"#utility.yul\":19762:19864   */\n      swap2\n      pop\n        /* \"#utility.yul\":19874:19949   */\n      tag_413\n        /* \"#utility.yul\":19945:19948   */\n      dup3\n        /* \"#utility.yul\":19936:19942   */\n      dup6\n        /* \"#utility.yul\":19874:19949   */\n      tag_206\n      jump\t// in\n    tag_413:\n        /* \"#utility.yul\":19974:19976   */\n      0x20\n        /* \"#utility.yul\":19969:19972   */\n      dup3\n        /* \"#utility.yul\":19965:19977   */\n      add\n        /* \"#utility.yul\":19958:19977   */\n      swap2\n      pop\n        /* \"#utility.yul\":19994:20089   */\n      tag_414\n        /* \"#utility.yul\":20085:20088   */\n      dup3\n        /* \"#utility.yul\":20076:20082   */\n      dup5\n        /* \"#utility.yul\":19994:20089   */\n      tag_204\n      jump\t// in\n    tag_414:\n        /* \"#utility.yul\":19987:20089   */\n      swap2\n      pop\n        /* \"#utility.yul\":20106:20109   */\n      dup2\n        /* \"#utility.yul\":20099:20109   */\n      swap1\n      pop\n        /* \"#utility.yul\":19539:20115   */\n      swap5\n      swap4\n      pop\n      pop\n      pop\n      pop\n      jump\t// out\n        /* \"#utility.yul\":20121:20352   */\n    tag_207:\n        /* \"#utility.yul\":20261:20295   */\n      0x456974686572207175616c697479206f72207175616e746974792073686f756c\n        /* \"#utility.yul\":20257:20258   */\n      0x00\n        /* \"#utility.yul\":20249:20255   */\n      dup3\n        /* \"#utility.yul\":20245:20259   */\n      add\n        /* \"#utility.yul\":20238:20296   */\n      mstore\n        /* \"#utility.yul\":20330:20344   */\n      0x6420626520757064617465640000000000000000000000000000000000000000\n        /* \"#utility.yul\":20325:20327   */\n      0x20\n        /* \"#utility.yul\":20317:20323   */\n      dup3\n        /* \"#utility.yul\":20313:20328   */\n      add\n        /* \"#utility.yul\":20306:20345   */\n      mstore\n        /* \"#utility.yul\":20121:20352   */\n      pop\n      jump\t// out\n        /* \"#utility.yul\":20358:20724   */\n    tag_208:\n        /* \"#utility.yul\":20500:20503   */\n      0x00\n        /* \"#utility.yul\":20521:20588   */\n      tag_417\n        /* \"#utility.yul\":20585:20587   */\n      0x2c\n        /* \"#utility.yul\":20580:20583   */\n      dup4\n        /* \"#utility.yul\":20521:20588   */\n      tag_200\n      jump\t// in\n    tag_417:\n        /* \"#utility.yul\":20514:20588   */\n      swap2\n      pop\n        /* \"#utility.yul\":20597:20690   */\n      tag_418\n        /* \"#utility.yul\":20686:20689   */\n      dup3\n        /* \"#utility.yul\":20597:20690   */\n      tag_207\n      jump\t// in\n    tag_418:\n        /* \"#utility.yul\":20715:20717   */\n      0x40\n        /* \"#utility.yul\":20710:20713   */\n      dup3\n        /* \"#utility.yul\":20706:20718   */\n      add\n        /* \"#utility.yul\":20699:20718   */\n      swap1\n      pop\n        /* \"#utility.yul\":20358:20724   */\n      swap2\n      swap1\n      pop\n      jump\t// out\n        /* \"#utility.yul\":20730:21149   */\n    tag_40:\n        /* \"#utility.yul\":20896:20900   */\n      0x00\n        /* \"#utility.yul\":20934:20936   */\n      0x20\n        /* \"#utility.yul\":20923:20932   */\n      dup3\n        /* \"#utility.yul\":20919:20937   */\n      add\n        /* \"#utility.yul\":20911:20937   */\n      swap1\n      pop\n        /* \"#utility.yul\":20983:20992   */\n      dup2\n        /* \"#utility.yul\":20977:20981   */\n      dup2\n        /* \"#utility.yul\":20973:20993   */\n      sub\n        /* \"#utility.yul\":20969:20970   */\n      0x00\n        /* \"#utility.yul\":20958:20967   */\n      dup4\n        /* \"#utility.yul\":20954:20971   */\n      add\n        /* \"#utility.yul\":20947:20994   */\n      mstore\n        /* \"#utility.yul\":21011:21142   */\n      tag_420\n        /* \"#utility.yul\":21137:21141   */\n      dup2\n        /* \"#utility.yul\":21011:21142   */\n      tag_208\n      jump\t// in\n    tag_420:\n        /* \"#utility.yul\":21003:21142   */\n      swap1\n      pop\n        /* \"#utility.yul\":20730:21149   */\n      swap2\n      swap1\n      pop\n      jump\t// out\n        /* \"#utility.yul\":21155:21394   */\n    tag_209:\n        /* \"#utility.yul\":21295:21329   */\n      0x50726f647563742077697468206e6577207175616c69747920616e6420717561\n        /* \"#utility.yul\":21291:21292   */\n      0x00\n        /* \"#utility.yul\":21283:21289   */\n      dup3\n        /* \"#utility.yul\":21279:21293   */\n      add\n        /* \"#utility.yul\":21272:21330   */\n      mstore\n        /* \"#utility.yul\":21364:21386   */\n      0x6e7469747920616c726561647920657869737473000000000000000000000000\n        /* \"#utility.yul\":21359:21361   */\n      0x20\n        /* \"#utility.yul\":21351:21357   */\n      dup3\n        /* \"#utility.yul\":21347:21362   */\n      add\n        /* \"#utility.yul\":21340:21387   */\n      mstore\n        /* \"#utility.yul\":21155:21394   */\n      pop\n      jump\t// out\n        /* \"#utility.yul\":21400:21766   */\n    tag_210:\n        /* \"#utility.yul\":21542:21545   */\n      0x00\n        /* \"#utility.yul\":21563:21630   */\n      tag_423\n        /* \"#utility.yul\":21627:21629   */\n      0x34\n        /* \"#utility.yul\":21622:21625   */\n      dup4\n        /* \"#utility.yul\":21563:21630   */\n      tag_200\n      jump\t// in\n    tag_423:\n        /* \"#utility.yul\":21556:21630   */\n      swap2\n      pop\n        /* \"#utility.yul\":21639:21732   */\n      tag_424\n        /* \"#utility.yul\":21728:21731   */\n      dup3\n        /* \"#utility.yul\":21639:21732   */\n      tag_209\n      jump\t// in\n    tag_424:\n        /* \"#utility.yul\":21757:21759   */\n      0x40\n        /* \"#utility.yul\":21752:21755   */\n      dup3\n        /* \"#utility.yul\":21748:21760   */\n      add\n        /* \"#utility.yul\":21741:21760   */\n      swap1\n      pop\n        /* \"#utility.yul\":21400:21766   */\n      swap2\n      swap1\n      pop\n      jump\t// out\n        /* \"#utility.yul\":21772:22191   */\n    tag_43:\n        /* \"#utility.yul\":21938:21942   */\n      0x00\n        /* \"#utility.yul\":21976:21978   */\n      0x20\n        /* \"#utility.yul\":21965:21974   */\n      dup3\n        /* \"#utility.yul\":21961:21979   */\n      add\n        /* \"#utility.yul\":21953:21979   */\n      swap1\n      pop\n        /* \"#utility.yul\":22025:22034   */\n      dup2\n        /* \"#utility.yul\":22019:22023   */\n      dup2\n        /* \"#utility.yul\":22015:22035   */\n      sub\n        /* \"#utility.yul\":22011:22012   */\n      0x00\n        /* \"#utility.yul\":22000:22009   */\n      dup4\n        /* \"#utility.yul\":21996:22013   */\n      add\n        /* \"#utility.yul\":21989:22036   */\n      mstore\n        /* \"#utility.yul\":22053:22184   */\n      tag_426\n        /* \"#utility.yul\":22179:22183   */\n      dup2\n        /* \"#utility.yul\":22053:22184   */\n      tag_210\n      jump\t// in\n    tag_426:\n        /* \"#utility.yul\":22045:22184   */\n      swap1\n      pop\n        /* \"#utility.yul\":21772:22191   */\n      swap2\n      swap1\n      pop\n      jump\t// out\n        /* \"#utility.yul\":22197:22377   */\n    tag_211:\n        /* \"#utility.yul\":22245:22322   */\n      0x4e487b7100000000000000000000000000000000000000000000000000000000\n        /* \"#utility.yul\":22242:22243   */\n      0x00\n        /* \"#utility.yul\":22235:22323   */\n      mstore\n        /* \"#utility.yul\":22342:22346   */\n      0x22\n        /* \"#utility.yul\":22339:22340   */\n      0x04\n        /* \"#utility.yul\":22332:22347   */\n      mstore\n        /* \"#utility.yul\":22366:22370   */\n      0x24\n        /* \"#utility.yul\":22363:22364   */\n      0x00\n        /* \"#utility.yul\":22356:22371   */\n      revert\n        /* \"#utility.yul\":22383:22703   */\n    tag_48:\n        /* \"#utility.yul\":22427:22433   */\n      0x00\n        /* \"#utility.yul\":22464:22465   */\n      0x02\n        /* \"#utility.yul\":22458:22462   */\n      dup3\n        /* \"#utility.yul\":22454:22466   */\n      div\n        /* \"#utility.yul\":22444:22466   */\n      swap1\n      pop\n        /* \"#utility.yul\":22511:22512   */\n      0x01\n        /* \"#utility.yul\":22505:22509   */\n      dup3\n        /* \"#utility.yul\":22501:22513   */\n      and\n        /* \"#utility.yul\":22532:22550   */\n      dup1\n        /* \"#utility.yul\":22522:22603   */\n      tag_429\n      jumpi\n        /* \"#utility.yul\":22588:22592   */\n      0x7f\n        /* \"#utility.yul\":22580:22586   */\n      dup3\n        /* \"#utility.yul\":22576:22593   */\n      and\n        /* \"#utility.yul\":22566:22593   */\n      swap2\n      pop\n        /* \"#utility.yul\":22522:22603   */\n    tag_429:\n        /* \"#utility.yul\":22650:22652   */\n      0x20\n        /* \"#utility.yul\":22642:22648   */\n      dup3\n        /* \"#utility.yul\":22639:22653   */\n      lt\n        /* \"#utility.yul\":22619:22637   */\n      dup2\n        /* \"#utility.yul\":22616:22654   */\n      sub\n        /* \"#utility.yul\":22613:22697   */\n      tag_430\n      jumpi\n        /* \"#utility.yul\":22669:22687   */\n      tag_431\n      tag_211\n      jump\t// in\n    tag_431:\n        /* \"#utility.yul\":22613:22697   */\n    tag_430:\n        /* \"#utility.yul\":22434:22703   */\n      pop\n        /* \"#utility.yul\":22383:22703   */\n      swap2\n      swap1\n      pop\n      jump\t// out\n        /* \"#utility.yul\":22709:22862   */\n    tag_212:\n        /* \"#utility.yul\":22762:22768   */\n      0x00\n        /* \"#utility.yul\":22796:22801   */\n      dup2\n        /* \"#utility.yul\":22790:22802   */\n      sload\n        /* \"#utility.yul\":22780:22802   */\n      swap1\n      pop\n        /* \"#utility.yul\":22822:22855   */\n      tag_433\n        /* \"#utility.yul\":22848:22854   */\n      dup2\n        /* \"#utility.yul\":22822:22855   */\n      tag_48\n      jump\t// in\n    tag_433:\n        /* \"#utility.yul\":22812:22855   */\n      swap1\n      pop\n        /* \"#utility.yul\":22709:22862   */\n      swap2\n      swap1\n      pop\n      jump\t// out\n        /* \"#utility.yul\":22868:23009   */\n    tag_213:\n        /* \"#utility.yul\":22917:22921   */\n      0x00\n        /* \"#utility.yul\":22940:22943   */\n      dup2\n        /* \"#utility.yul\":22932:22943   */\n      swap1\n      pop\n        /* \"#utility.yul\":22963:22966   */\n      dup2\n        /* \"#utility.yul\":22960:22961   */\n      0x00\n        /* \"#utility.yul\":22953:22967   */\n      mstore\n        /* \"#utility.yul\":22997:23001   */\n      0x20\n        /* \"#utility.yul\":22994:22995   */\n      0x00\n        /* \"#utility.yul\":22984:23002   */\n      keccak256\n        /* \"#utility.yul\":22976:23002   */\n      swap1\n      pop\n        /* \"#utility.yul\":22868:23009   */\n      swap2\n      swap1\n      pop\n      jump\t// out\n        /* \"#utility.yul\":23015:23160   */\n    tag_214:\n        /* \"#utility.yul\":23068:23072   */\n      0x00\n        /* \"#utility.yul\":23091:23094   */\n      dup2\n        /* \"#utility.yul\":23083:23094   */\n      swap1\n      pop\n        /* \"#utility.yul\":23114:23117   */\n      dup2\n        /* \"#utility.yul\":23111:23112   */\n      0x00\n        /* \"#utility.yul\":23104:23118   */\n      mstore\n        /* \"#utility.yul\":23148:23152   */\n      0x20\n        /* \"#utility.yul\":23145:23146   */\n      0x00\n        /* \"#utility.yul\":23135:23153   */\n      keccak256\n        /* \"#utility.yul\":23127:23153   */\n      swap1\n      pop\n        /* \"#utility.yul\":23015:23160   */\n      swap2\n      swap1\n      pop\n      jump\t// out\n        /* \"#utility.yul\":23166:23259   */\n    tag_215:\n        /* \"#utility.yul\":23203:23209   */\n      0x00\n        /* \"#utility.yul\":23250:23252   */\n      0x20\n        /* \"#utility.yul\":23245:23247   */\n      0x1f\n        /* \"#utility.yul\":23238:23243   */\n      dup4\n        /* \"#utility.yul\":23234:23248   */\n      add\n        /* \"#utility.yul\":23230:23253   */\n      div\n        /* \"#utility.yul\":23220:23253   */\n      swap1\n      pop\n        /* \"#utility.yul\":23166:23259   */\n      swap2\n      swap1\n      pop\n      jump\t// out\n        /* \"#utility.yul\":23265:23372   */\n    tag_216:\n        /* \"#utility.yul\":23309:23317   */\n      0x00\n        /* \"#utility.yul\":23359:23364   */\n      dup3\n        /* \"#utility.yul\":23353:23357   */\n      dup3\n        /* \"#utility.yul\":23349:23365   */\n      shl\n        /* \"#utility.yul\":23328:23365   */\n      swap1\n      pop\n        /* \"#utility.yul\":23265:23372   */\n      swap3\n      swap2\n      pop\n      pop\n      jump\t// out\n        /* \"#utility.yul\":23378:23771   */\n    tag_217:\n        /* \"#utility.yul\":23447:23453   */\n      0x00\n        /* \"#utility.yul\":23497:23498   */\n      0x08\n        /* \"#utility.yul\":23485:23495   */\n      dup4\n        /* \"#utility.yul\":23481:23499   */\n      mul\n        /* \"#utility.yul\":23520:23617   */\n      tag_439\n        /* \"#utility.yul\":23550:23616   */\n      0xffffffffffffffffffffffffffffffffffffffffffffffffffffffffffffffff\n        /* \"#utility.yul\":23539:23548   */\n      dup3\n        /* \"#utility.yul\":23520:23617   */\n      tag_216\n      jump\t// in\n    tag_439:\n        /* \"#utility.yul\":23638:23677   */\n      tag_440\n        /* \"#utility.yul\":23668:23676   */\n      dup7\n        /* \"#utility.yul\":23657:23666   */\n      dup4\n        /* \"#utility.yul\":23638:23677   */\n      tag_216\n      jump\t// in\n    tag_440:\n        /* \"#utility.yul\":23626:23677   */\n      swap6\n      pop\n        /* \"#utility.yul\":23710:23714   */\n      dup1\n        /* \"#utility.yul\":23706:23715   */\n      not\n        /* \"#utility.yul\":23699:23704   */\n      dup5\n        /* \"#utility.yul\":23695:23716   */\n      and\n        /* \"#utility.yul\":23686:23716   */\n      swap4\n      pop\n        /* \"#utility.yul\":23759:23763   */\n      dup1\n        /* \"#utility.yul\":23749:23757   */\n      dup7\n        /* \"#utility.yul\":23745:23764   */\n      and\n        /* \"#utility.yul\":23738:23743   */\n      dup5\n        /* \"#utility.yul\":23735:23765   */\n      or\n        /* \"#utility.yul\":23725:23765   */\n      swap3\n      pop\n        /* \"#utility.yul\":23454:23771   */\n      pop\n      pop\n        /* \"#utility.yul\":23378:23771   */\n      swap4\n      swap3\n      pop\n      pop\n      pop\n      jump\t// out\n        /* \"#utility.yul\":23777:23837   */\n    tag_218:\n        /* \"#utility.yul\":23805:23808   */\n      0x00\n        /* \"#utility.yul\":23826:23831   */\n      dup2\n        /* \"#utility.yul\":23819:23831   */\n      swap1\n      pop\n        /* \"#utility.yul\":23777:23837   */\n      swap2\n      swap1\n      pop\n      jump\t// out\n        /* \"#utility.yul\":23843:23985   */\n    tag_219:\n        /* \"#utility.yul\":23893:23902   */\n      0x00\n        /* \"#utility.yul\":23926:23979   */\n      tag_443\n        /* \"#utility.yul\":23944:23978   */\n      tag_444\n        /* \"#utility.yul\":23953:23977   */\n      tag_445\n        /* \"#utility.yul\":23971:23976   */\n      dup5\n        /* \"#utility.yul\":23953:23977   */\n      tag_181\n      jump\t// in\n    tag_445:\n        /* \"#utility.yul\":23944:23978   */\n      tag_218\n      jump\t// in\n    tag_444:\n        /* \"#utility.yul\":23926:23979   */\n      tag_181\n      jump\t// in\n    tag_443:\n        /* \"#utility.yul\":23913:23979   */\n      swap1\n      pop\n        /* \"#utility.yul\":23843:23985   */\n      swap2\n      swap1\n      pop\n      jump\t// out\n        /* \"#utility.yul\":23991:24066   */\n    tag_220:\n        /* \"#utility.yul\":24034:24037   */\n      0x00\n        /* \"#utility.yul\":24055:24060   */\n      dup2\n        /* \"#utility.yul\":24048:24060   */\n      swap1\n      pop\n        /* \"#utility.yul\":23991:24066   */\n      swap2\n      swap1\n      pop\n      jump\t// out\n        /* \"#utility.yul\":24072:24341   */\n    tag_221:\n        /* \"#utility.yul\":24182:24221   */\n      tag_448\n        /* \"#utility.yul\":24213:24220   */\n      dup4\n        /* \"#utility.yul\":24182:24221   */\n      tag_219\n      jump\t// in\n    tag_448:\n        /* \"#utility.yul\":24243:24334   */\n      tag_449\n        /* \"#utility.yul\":24292:24333   */\n      tag_450\n        /* \"#utility.yul\":24316:24332   */\n      dup3\n        /* \"#utility.yul\":24292:24333   */\n      tag_220\n      jump\t// in\n    tag_450:\n        /* \"#utility.yul\":24284:24290   */\n      dup5\n        /* \"#utility.yul\":24277:24281   */\n      dup5\n        /* \"#utility.yul\":24271:24282   */\n      sload\n        /* \"#utility.yul\":24243:24334   */\n      tag_217\n      jump\t// in\n    tag_449:\n        /* \"#utility.yul\":24237:24241   */\n      dup3\n        /* \"#utility.yul\":24230:24335   */\n      sstore\n        /* \"#utility.yul\":24148:24341   */\n      pop\n        /* \"#utility.yul\":24072:24341   */\n      pop\n      pop\n      pop\n      jump\t// out\n        /* \"#utility.yul\":24347:24420   */\n    tag_222:\n        /* \"#utility.yul\":24392:24395   */\n      0x00\n        /* \"#utility.yul\":24347:24420   */\n      swap1\n      jump\t// out\n        /* \"#utility.yul\":24426:24615   */\n    tag_223:\n        /* \"#utility.yul\":24503:24535   */\n      tag_453\n      tag_222\n      jump\t// in\n    tag_453:\n        /* \"#utility.yul\":24544:24609   */\n      tag_454\n        /* \"#utility.yul\":24602:24608   */\n      dup2\n        /* \"#utility.yul\":24594:24600   */\n      dup5\n        /* \"#utility.yul\":24588:24592   */\n      dup5\n        /* \"#utility.yul\":24544:24609   */\n      tag_221\n      jump\t// in\n    tag_454:\n        /* \"#utility.yul\":24479:24615   */\n      pop\n        /* \"#utility.yul\":24426:24615   */\n      pop\n      pop\n      jump\t// out\n        /* \"#utility.yul\":24621:24807   */\n    tag_224:\n        /* \"#utility.yul\":24681:24801   */\n    tag_456:\n        /* \"#utility.yul\":24698:24701   */\n      dup2\n        /* \"#utility.yul\":24691:24696   */\n      dup2\n        /* \"#utility.yul\":24688:24702   */\n      lt\n        /* \"#utility.yul\":24681:24801   */\n      iszero\n      tag_458\n      jumpi\n        /* \"#utility.yul\":24752:24791   */\n      tag_459\n        /* \"#utility.yul\":24789:24790   */\n      0x00\n        /* \"#utility.yul\":24782:24787   */\n      dup3\n        /* \"#utility.yul\":24752:24791   */\n      tag_223\n      jump\t// in\n    tag_459:\n        /* \"#utility.yul\":24725:24726   */\n      0x01\n        /* \"#utility.yul\":24718:24723   */\n      dup2\n        /* \"#utility.yul\":24714:24727   */\n      add\n        /* \"#utility.yul\":24705:24727   */\n      swap1\n      pop\n        /* \"#utility.yul\":24681:24801   */\n      jump(tag_456)\n    tag_458:\n        /* \"#utility.yul\":24621:24807   */\n      pop\n      pop\n      jump\t// out\n        /* \"#utility.yul\":24813:25356   */\n    tag_225:\n        /* \"#utility.yul\":24914:24916   */\n      0x1f\n        /* \"#utility.yul\":24909:24912   */\n      dup3\n        /* \"#utility.yul\":24906:24917   */\n      gt\n        /* \"#utility.yul\":24903:25349   */\n      iszero\n      tag_461\n      jumpi\n        /* \"#utility.yul\":24948:24986   */\n      tag_462\n        /* \"#utility.yul\":24980:24985   */\n      dup2\n        /* \"#utility.yul\":24948:24986   */\n      tag_213\n      jump\t// in\n    tag_462:\n        /* \"#utility.yul\":25032:25061   */\n      tag_463\n        /* \"#utility.yul\":25050:25060   */\n      dup5\n        /* \"#utility.yul\":25032:25061   */\n      tag_215\n      jump\t// in\n    tag_463:\n        /* \"#utility.yul\":25022:25030   */\n      dup2\n        /* \"#utility.yul\":25018:25062   */\n      add\n        /* \"#utility.yul\":25215:25217   */\n      0x20\n        /* \"#utility.yul\":25203:25213   */\n      dup6\n        /* \"#utility.yul\":25200:25218   */\n      lt\n        /* \"#utility.yul\":25197:25246   */\n      iszero\n      tag_464\n      jumpi\n        /* \"#utility.yul\":25236:25244   */\n      dup2\n        /* \"#utility.yul\":25221:25244   */\n      swap1\n      pop\n        /* \"#utility.yul\":25197:25246   */\n    tag_464:\n        /* \"#utility.yul\":25259:25339   */\n      tag_465\n        /* \"#utility.yul\":25315:25337   */\n      tag_466\n        /* \"#utility.yul\":25333:25336   */\n      dup6\n        /* \"#utility.yul\":25315:25337   */\n      tag_215\n      jump\t// in\n    tag_466:\n        /* \"#utility.yul\":25305:25313   */\n      dup4\n        /* \"#utility.yul\":25301:25338   */\n      add\n        /* \"#utility.yul\":25288:25299   */\n      dup3\n        /* \"#utility.yul\":25259:25339   */\n      tag_224\n      jump\t// in\n    tag_465:\n        /* \"#utility.yul\":24918:25349   */\n      pop\n      pop\n        /* \"#utility.yul\":24903:25349   */\n    tag_461:\n        /* \"#utility.yul\":24813:25356   */\n      pop\n      pop\n      pop\n      jump\t// out\n        /* \"#utility.yul\":25362:25479   */\n    tag_226:\n        /* \"#utility.yul\":25416:25424   */\n      0x00\n        /* \"#utility.yul\":25466:25471   */\n      dup3\n        /* \"#utility.yul\":25460:25464   */\n      dup3\n        /* \"#utility.yul\":25456:25472   */\n      shr\n        /* \"#utility.yul\":25435:25472   */\n      swap1\n      pop\n        /* \"#utility.yul\":25362:25479   */\n      swap3\n      swap2\n      pop\n      pop\n      jump\t// out\n        /* \"#utility.yul\":25485:25654   */\n    tag_227:\n        /* \"#utility.yul\":25529:25535   */\n      0x00\n        /* \"#utility.yul\":25562:25613   */\n      tag_469\n        /* \"#utility.yul\":25610:25611   */\n      0x00\n        /* \"#utility.yul\":25606:25612   */\n      not\n        /* \"#utility.yul\":25598:25603   */\n      dup5\n        /* \"#utility.yul\":25595:25596   */\n      0x08\n        /* \"#utility.yul\":25591:25604   */\n      mul\n        /* \"#utility.yul\":25562:25613   */\n      tag_226\n      jump\t// in\n    tag_469:\n        /* \"#utility.yul\":25558:25614   */\n      not\n        /* \"#utility.yul\":25643:25647   */\n      dup1\n        /* \"#utility.yul\":25637:25641   */\n      dup4\n        /* \"#utility.yul\":25633:25648   */\n      and\n        /* \"#utility.yul\":25623:25648   */\n      swap2\n      pop\n        /* \"#utility.yul\":25536:25654   */\n      pop\n        /* \"#utility.yul\":25485:25654   */\n      swap3\n      swap2\n      pop\n      pop\n      jump\t// out\n        /* \"#utility.yul\":25659:25954   */\n    tag_228:\n        /* \"#utility.yul\":25735:25739   */\n      0x00\n        /* \"#utility.yul\":25881:25910   */\n      tag_471\n        /* \"#utility.yul\":25906:25909   */\n      dup4\n        /* \"#utility.yul\":25900:25904   */\n      dup4\n        /* \"#utility.yul\":25881:25910   */\n      tag_227\n      jump\t// in\n    tag_471:\n        /* \"#utility.yul\":25873:25910   */\n      swap2\n      pop\n        /* \"#utility.yul\":25943:25946   */\n      dup3\n        /* \"#utility.yul\":25940:25941   */\n      0x02\n        /* \"#utility.yul\":25936:25947   */\n      mul\n        /* \"#utility.yul\":25930:25934   */\n      dup3\n        /* \"#utility.yul\":25927:25948   */\n      or\n        /* \"#utility.yul\":25919:25948   */\n      swap1\n      pop\n        /* \"#utility.yul\":25659:25954   */\n      swap3\n      swap2\n      pop\n      pop\n      jump\t// out\n        /* \"#utility.yul\":25959:27422   */\n    tag_45:\n        /* \"#utility.yul\":26074:26077   */\n      dup2\n        /* \"#utility.yul\":26068:26072   */\n      dup2\n        /* \"#utility.yul\":26065:26078   */\n      sub\n        /* \"#utility.yul\":26062:26088   */\n      tag_473\n      jumpi\n        /* \"#utility.yul\":26081:26086   */\n      pop\n      pop\n      jump(tag_472)\n        /* \"#utility.yul\":26062:26088   */\n    tag_473:\n        /* \"#utility.yul\":26112:26150   */\n      tag_474\n        /* \"#utility.yul\":26146:26149   */\n      dup3\n        /* \"#utility.yul\":26112:26150   */\n      tag_212\n      jump\t// in\n    tag_474:\n        /* \"#utility.yul\":26215:26233   */\n      0xffffffffffffffff\n        /* \"#utility.yul\":26207:26213   */\n      dup2\n        /* \"#utility.yul\":26204:26234   */\n      gt\n        /* \"#utility.yul\":26201:26257   */\n      iszero\n      tag_475\n      jumpi\n        /* \"#utility.yul\":26237:26255   */\n      tag_476\n      tag_173\n      jump\t// in\n    tag_476:\n        /* \"#utility.yul\":26201:26257   */\n    tag_475:\n        /* \"#utility.yul\":26281:26319   */\n      tag_477\n        /* \"#utility.yul\":26313:26317   */\n      dup3\n        /* \"#utility.yul\":26307:26318   */\n      sload\n        /* \"#utility.yul\":26281:26319   */\n      tag_48\n      jump\t// in\n    tag_477:\n        /* \"#utility.yul\":26366:26433   */\n      tag_478\n        /* \"#utility.yul\":26426:26432   */\n      dup3\n        /* \"#utility.yul\":26418:26424   */\n      dup3\n        /* \"#utility.yul\":26412:26416   */\n      dup6\n        /* \"#utility.yul\":26366:26433   */\n      tag_225\n      jump\t// in\n    tag_478:\n        /* \"#utility.yul\":26460:26461   */\n      0x00\n        /* \"#utility.yul\":26489:26491   */\n      0x1f\n        /* \"#utility.yul\":26481:26487   */\n      dup4\n        /* \"#utility.yul\":26478:26492   */\n      gt\n        /* \"#utility.yul\":26506:26507   */\n      0x01\n        /* \"#utility.yul\":26501:27177   */\n      dup2\n      eq\n      tag_480\n      jumpi\n        /* \"#utility.yul\":27221:27222   */\n      0x00\n        /* \"#utility.yul\":27238:27244   */\n      dup5\n        /* \"#utility.yul\":27235:27312   */\n      iszero\n      tag_481\n      jumpi\n        /* \"#utility.yul\":27287:27296   */\n      dup3\n        /* \"#utility.yul\":27282:27285   */\n      dup8\n        /* \"#utility.yul\":27278:27297   */\n      add\n        /* \"#utility.yul\":27272:27298   */\n      sload\n        /* \"#utility.yul\":27263:27298   */\n      swap1\n      pop\n        /* \"#utility.yul\":27235:27312   */\n    tag_481:\n        /* \"#utility.yul\":27338:27405   */\n      tag_482\n        /* \"#utility.yul\":27398:27404   */\n      dup6\n        /* \"#utility.yul\":27391:27396   */\n      dup3\n        /* \"#utility.yul\":27338:27405   */\n      tag_228\n      jump\t// in\n    tag_482:\n        /* \"#utility.yul\":27332:27336   */\n      dup7\n        /* \"#utility.yul\":27325:27406   */\n      sstore\n        /* \"#utility.yul\":27194:27416   */\n      pop\n        /* \"#utility.yul\":26471:27416   */\n      jump(tag_479)\n        /* \"#utility.yul\":26501:27177   */\n    tag_480:\n        /* \"#utility.yul\":26553:26557   */\n      0x1f\n        /* \"#utility.yul\":26549:26558   */\n      not\n        /* \"#utility.yul\":26541:26547   */\n      dup5\n        /* \"#utility.yul\":26537:26559   */\n      and\n        /* \"#utility.yul\":26579:26619   */\n      tag_483\n        /* \"#utility.yul\":26615:26618   */\n      dup8\n        /* \"#utility.yul\":26579:26619   */\n      tag_214\n      jump\t// in\n    tag_483:\n        /* \"#utility.yul\":26572:26619   */\n      swap7\n      pop\n        /* \"#utility.yul\":26646:26683   */\n      tag_484\n        /* \"#utility.yul\":26678:26682   */\n      dup7\n        /* \"#utility.yul\":26646:26683   */\n      tag_213\n      jump\t// in\n    tag_484:\n        /* \"#utility.yul\":26705:26706   */\n      0x00\n        /* \"#utility.yul\":26719:26926   */\n    tag_485:\n        /* \"#utility.yul\":26733:26740   */\n      dup3\n        /* \"#utility.yul\":26730:26731   */\n      dup2\n        /* \"#utility.yul\":26727:26741   */\n      lt\n        /* \"#utility.yul\":26719:26926   */\n      iszero\n      tag_487\n      jumpi\n        /* \"#utility.yul\":26812:26821   */\n      dup5\n        /* \"#utility.yul\":26807:26810   */\n      dup10\n        /* \"#utility.yul\":26803:26822   */\n      add\n        /* \"#utility.yul\":26797:26823   */\n      sload\n        /* \"#utility.yul\":26789:26795   */\n      dup3\n        /* \"#utility.yul\":26782:26824   */\n      sstore\n        /* \"#utility.yul\":26863:26864   */\n      0x01\n        /* \"#utility.yul\":26855:26861   */\n      dup3\n        /* \"#utility.yul\":26851:26865   */\n      add\n        /* \"#utility.yul\":26841:26865   */\n      swap2\n      pop\n        /* \"#utility.yul\":26910:26911   */\n      0x01\n        /* \"#utility.yul\":26899:26908   */\n      dup6\n        /* \"#utility.yul\":26895:26912   */\n      add\n        /* \"#utility.yul\":26882:26912   */\n      swap5\n      pop\n        /* \"#utility.yul\":26756:26760   */\n      0x20\n        /* \"#utility.yul\":26753:26754   */\n      dup2\n        /* \"#utility.yul\":26749:26761   */\n      add\n        /* \"#utility.yul\":26744:26761   */\n      swap1\n      pop\n        /* \"#utility.yul\":26719:26926   */\n      jump(tag_485)\n    tag_487:\n        /* \"#utility.yul\":26954:26960   */\n      dup7\n        /* \"#utility.yul\":26945:26952   */\n      dup4\n        /* \"#utility.yul\":26942:26961   */\n      lt\n        /* \"#utility.yul\":26939:27118   */\n      iszero\n      tag_488\n      jumpi\n        /* \"#utility.yul\":27012:27021   */\n      dup5\n        /* \"#utility.yul\":27007:27010   */\n      dup10\n        /* \"#utility.yul\":27003:27022   */\n      add\n        /* \"#utility.yul\":26997:27023   */\n      sload\n        /* \"#utility.yul\":27055:27103   */\n      tag_489\n        /* \"#utility.yul\":27097:27101   */\n      0x1f\n        /* \"#utility.yul\":27089:27095   */\n      dup10\n        /* \"#utility.yul\":27085:27102   */\n      and\n        /* \"#utility.yul\":27074:27083   */\n      dup3\n        /* \"#utility.yul\":27055:27103   */\n      tag_227\n      jump\t// in\n    tag_489:\n        /* \"#utility.yul\":27047:27053   */\n      dup4\n        /* \"#utility.yul\":27040:27104   */\n      sstore\n        /* \"#utility.yul\":26962:27118   */\n      pop\n        /* \"#utility.yul\":26939:27118   */\n    tag_488:\n        /* \"#utility.yul\":27164:27165   */\n      0x01\n        /* \"#utility.yul\":27160:27161   */\n      0x02\n        /* \"#utility.yul\":27152:27158   */\n      dup9\n        /* \"#utility.yul\":27148:27162   */\n      mul\n        /* \"#utility.yul\":27144:27166   */\n      add\n        /* \"#utility.yul\":27138:27142   */\n      dup9\n        /* \"#utility.yul\":27131:27167   */\n      sstore\n        /* \"#utility.yul\":26508:27177   */\n      pop\n      pop\n      pop\n        /* \"#utility.yul\":26471:27416   */\n    tag_479:\n      pop\n        /* \"#utility.yul\":26052:27422   */\n      pop\n      pop\n      pop\n        /* \"#utility.yul\":25959:27422   */\n      pop\n      pop\n    tag_472:\n      jump\t// out\n        /* \"#utility.yul\":27428:28823   */\n    tag_55:\n        /* \"#utility.yul\":27545:27582   */\n      tag_491\n        /* \"#utility.yul\":27578:27581   */\n      dup3\n        /* \"#utility.yul\":27545:27582   */\n      tag_183\n      jump\t// in\n    tag_491:\n        /* \"#utility.yul\":27647:27665   */\n      0xffffffffffffffff\n        /* \"#utility.yul\":27639:27645   */\n      dup2\n        /* \"#utility.yul\":27636:27666   */\n      gt\n        /* \"#utility.yul\":27633:27689   */\n      iszero\n      tag_492\n      jumpi\n        /* \"#utility.yul\":27669:27687   */\n      tag_493\n      tag_173\n      jump\t// in\n    tag_493:\n        /* \"#utility.yul\":27633:27689   */\n    tag_492:\n        /* \"#utility.yul\":27713:27751   */\n      tag_494\n        /* \"#utility.yul\":27745:27749   */\n      dup3\n        /* \"#utility.yul\":27739:27750   */\n      sload\n        /* \"#utility.yul\":27713:27751   */\n      tag_48\n      jump\t// in\n    tag_494:\n        /* \"#utility.yul\":27798:27865   */\n      tag_495\n        /* \"#utility.yul\":27858:27864   */\n      dup3\n        /* \"#utility.yul\":27850:27856   */\n      dup3\n        /* \"#utility.yul\":27844:27848   */\n      dup6\n        /* \"#utility.yul\":27798:27865   */\n      tag_225\n      jump\t// in\n    tag_495:\n        /* \"#utility.yul\":27892:27893   */\n      0x00\n        /* \"#utility.yul\":27916:27920   */\n      0x20\n        /* \"#utility.yul\":27903:27920   */\n      swap1\n      pop\n        /* \"#utility.yul\":27948:27950   */\n      0x1f\n        /* \"#utility.yul\":27940:27946   */\n      dup4\n        /* \"#utility.yul\":27937:27951   */\n      gt\n        /* \"#utility.yul\":27965:27966   */\n      0x01\n        /* \"#utility.yul\":27960:28578   */\n      dup2\n      eq\n      tag_497\n      jumpi\n        /* \"#utility.yul\":28622:28623   */\n      0x00\n        /* \"#utility.yul\":28639:28645   */\n      dup5\n        /* \"#utility.yul\":28636:28713   */\n      iszero\n      tag_498\n      jumpi\n        /* \"#utility.yul\":28688:28697   */\n      dup3\n        /* \"#utility.yul\":28683:28686   */\n      dup8\n        /* \"#utility.yul\":28679:28698   */\n      add\n        /* \"#utility.yul\":28673:28699   */\n      mload\n        /* \"#utility.yul\":28664:28699   */\n      swap1\n      pop\n        /* \"#utility.yul\":28636:28713   */\n    tag_498:\n        /* \"#utility.yul\":28739:28806   */\n      tag_499\n        /* \"#utility.yul\":28799:28805   */\n      dup6\n        /* \"#utility.yul\":28792:28797   */\n      dup3\n        /* \"#utility.yul\":28739:28806   */\n      tag_228\n      jump\t// in\n    tag_499:\n        /* \"#utility.yul\":28733:28737   */\n      dup7\n        /* \"#utility.yul\":28726:28807   */\n      sstore\n        /* \"#utility.yul\":28595:28817   */\n      pop\n        /* \"#utility.yul\":27930:28817   */\n      jump(tag_496)\n        /* \"#utility.yul\":27960:28578   */\n    tag_497:\n        /* \"#utility.yul\":28012:28016   */\n      0x1f\n        /* \"#utility.yul\":28008:28017   */\n      not\n        /* \"#utility.yul\":28000:28006   */\n      dup5\n        /* \"#utility.yul\":27996:28018   */\n      and\n        /* \"#utility.yul\":28046:28083   */\n      tag_500\n        /* \"#utility.yul\":28078:28082   */\n      dup7\n        /* \"#utility.yul\":28046:28083   */\n      tag_213\n      jump\t// in\n    tag_500:\n        /* \"#utility.yul\":28105:28106   */\n      0x00\n        /* \"#utility.yul\":28119:28327   */\n    tag_501:\n        /* \"#utility.yul\":28133:28140   */\n      dup3\n        /* \"#utility.yul\":28130:28131   */\n      dup2\n        /* \"#utility.yul\":28127:28141   */\n      lt\n        /* \"#utility.yul\":28119:28327   */\n      iszero\n      tag_503\n      jumpi\n        /* \"#utility.yul\":28212:28221   */\n      dup5\n        /* \"#utility.yul\":28207:28210   */\n      dup10\n        /* \"#utility.yul\":28203:28222   */\n      add\n        /* \"#utility.yul\":28197:28223   */\n      mload\n        /* \"#utility.yul\":28189:28195   */\n      dup3\n        /* \"#utility.yul\":28182:28224   */\n      sstore\n        /* \"#utility.yul\":28263:28264   */\n      0x01\n        /* \"#utility.yul\":28255:28261   */\n      dup3\n        /* \"#utility.yul\":28251:28265   */\n      add\n        /* \"#utility.yul\":28241:28265   */\n      swap2\n      pop\n        /* \"#utility.yul\":28310:28312   */\n      0x20\n        /* \"#utility.yul\":28299:28308   */\n      dup6\n        /* \"#utility.yul\":28295:28313   */\n      add\n        /* \"#utility.yul\":28282:28313   */\n      swap5\n      pop\n        /* \"#utility.yul\":28156:28160   */\n      0x20\n        /* \"#utility.yul\":28153:28154   */\n      dup2\n        /* \"#utility.yul\":28149:28161   */\n      add\n        /* \"#utility.yul\":28144:28161   */\n      swap1\n      pop\n        /* \"#utility.yul\":28119:28327   */\n      jump(tag_501)\n    tag_503:\n        /* \"#utility.yul\":28355:28361   */\n      dup7\n        /* \"#utility.yul\":28346:28353   */\n      dup4\n        /* \"#utility.yul\":28343:28362   */\n      lt\n        /* \"#utility.yul\":28340:28519   */\n      iszero\n      tag_504\n      jumpi\n        /* \"#utility.yul\":28413:28422   */\n      dup5\n        /* \"#utility.yul\":28408:28411   */\n      dup10\n        /* \"#utility.yul\":28404:28423   */\n      add\n        /* \"#utility.yul\":28398:28424   */\n      mload\n        /* \"#utility.yul\":28456:28504   */\n      tag_505\n        /* \"#utility.yul\":28498:28502   */\n      0x1f\n        /* \"#utility.yul\":28490:28496   */\n      dup10\n        /* \"#utility.yul\":28486:28503   */\n      and\n        /* \"#utility.yul\":28475:28484   */\n      dup3\n        /* \"#utility.yul\":28456:28504   */\n      tag_227\n      jump\t// in\n    tag_505:\n        /* \"#utility.yul\":28448:28454   */\n      dup4\n        /* \"#utility.yul\":28441:28505   */\n      sstore\n        /* \"#utility.yul\":28363:28519   */\n      pop\n        /* \"#utility.yul\":28340:28519   */\n    tag_504:\n        /* \"#utility.yul\":28565:28566   */\n      0x01\n        /* \"#utility.yul\":28561:28562   */\n      0x02\n        /* \"#utility.yul\":28553:28559   */\n      dup9\n        /* \"#utility.yul\":28549:28563   */\n      mul\n        /* \"#utility.yul\":28545:28567   */\n      add\n        /* \"#utility.yul\":28539:28543   */\n      dup9\n        /* \"#utility.yul\":28532:28568   */\n      sstore\n        /* \"#utility.yul\":27967:28578   */\n      pop\n      pop\n      pop\n        /* \"#utility.yul\":27930:28817   */\n    tag_496:\n      pop\n        /* \"#utility.yul\":27520:28823   */\n      pop\n      pop\n      pop\n        /* \"#utility.yul\":27428:28823   */\n      pop\n      pop\n      jump\t// out\n        /* \"#utility.yul\":28829:28908   */\n    tag_229:\n        /* \"#utility.yul\":28868:28875   */\n      0x00\n        /* \"#utility.yul\":28897:28902   */\n      dup2\n        /* \"#utility.yul\":28886:28902   */\n      swap1\n      pop\n        /* \"#utility.yul\":28829:28908   */\n      swap2\n      swap1\n      pop\n      jump\t// out\n        /* \"#utility.yul\":28914:29071   */\n    tag_230:\n        /* \"#utility.yul\":29019:29064   */\n      tag_508\n        /* \"#utility.yul\":29039:29063   */\n      tag_509\n        /* \"#utility.yul\":29057:29062   */\n      dup3\n        /* \"#utility.yul\":29039:29063   */\n      tag_181\n      jump\t// in\n    tag_509:\n        /* \"#utility.yul\":29019:29064   */\n      tag_229\n      jump\t// in\n    tag_508:\n        /* \"#utility.yul\":29014:29017   */\n      dup3\n        /* \"#utility.yul\":29007:29065   */\n      mstore\n        /* \"#utility.yul\":28914:29071   */\n      pop\n      pop\n      jump\t// out\n        /* \"#utility.yul\":29077:30594   */\n    tag_127:\n        /* \"#utility.yul\":29553:29556   */\n      0x00\n        /* \"#utility.yul\":29568:29643   */\n      tag_511\n        /* \"#utility.yul\":29639:29642   */\n      dup3\n        /* \"#utility.yul\":29630:29636   */\n      dup13\n        /* \"#utility.yul\":29568:29643   */\n      tag_230\n      jump\t// in\n    tag_511:\n        /* \"#utility.yul\":29668:29670   */\n      0x20\n        /* \"#utility.yul\":29663:29666   */\n      dup3\n        /* \"#utility.yul\":29659:29671   */\n      add\n        /* \"#utility.yul\":29652:29671   */\n      swap2\n      pop\n        /* \"#utility.yul\":29688:29783   */\n      tag_512\n        /* \"#utility.yul\":29779:29782   */\n      dup3\n        /* \"#utility.yul\":29770:29776   */\n      dup12\n        /* \"#utility.yul\":29688:29783   */\n      tag_204\n      jump\t// in\n    tag_512:\n        /* \"#utility.yul\":29681:29783   */\n      swap2\n      pop\n        /* \"#utility.yul\":29800:29895   */\n      tag_513\n        /* \"#utility.yul\":29891:29894   */\n      dup3\n        /* \"#utility.yul\":29882:29888   */\n      dup11\n        /* \"#utility.yul\":29800:29895   */\n      tag_204\n      jump\t// in\n    tag_513:\n        /* \"#utility.yul\":29793:29895   */\n      swap2\n      pop\n        /* \"#utility.yul\":29912:30007   */\n      tag_514\n        /* \"#utility.yul\":30003:30006   */\n      dup3\n        /* \"#utility.yul\":29994:30000   */\n      dup10\n        /* \"#utility.yul\":29912:30007   */\n      tag_204\n      jump\t// in\n    tag_514:\n        /* \"#utility.yul\":29905:30007   */\n      swap2\n      pop\n        /* \"#utility.yul\":30017:30092   */\n      tag_515\n        /* \"#utility.yul\":30088:30091   */\n      dup3\n        /* \"#utility.yul\":30079:30085   */\n      dup9\n        /* \"#utility.yul\":30017:30092   */\n      tag_230\n      jump\t// in\n    tag_515:\n        /* \"#utility.yul\":30117:30119   */\n      0x20\n        /* \"#utility.yul\":30112:30115   */\n      dup3\n        /* \"#utility.yul\":30108:30120   */\n      add\n        /* \"#utility.yul\":30101:30120   */\n      swap2\n      pop\n        /* \"#utility.yul\":30137:30232   */\n      tag_516\n        /* \"#utility.yul\":30228:30231   */\n      dup3\n        /* \"#utility.yul\":30219:30225   */\n      dup8\n        /* \"#utility.yul\":30137:30232   */\n      tag_204\n      jump\t// in\n    tag_516:\n        /* \"#utility.yul\":30130:30232   */\n      swap2\n      pop\n        /* \"#utility.yul\":30249:30344   */\n      tag_517\n        /* \"#utility.yul\":30340:30343   */\n      dup3\n        /* \"#utility.yul\":30331:30337   */\n      dup7\n        /* \"#utility.yul\":30249:30344   */\n      tag_204\n      jump\t// in\n    tag_517:\n        /* \"#utility.yul\":30242:30344   */\n      swap2\n      pop\n        /* \"#utility.yul\":30361:30456   */\n      tag_518\n        /* \"#utility.yul\":30452:30455   */\n      dup3\n        /* \"#utility.yul\":30443:30449   */\n      dup6\n        /* \"#utility.yul\":30361:30456   */\n      tag_204\n      jump\t// in\n    tag_518:\n        /* \"#utility.yul\":30354:30456   */\n      swap2\n      pop\n        /* \"#utility.yul\":30473:30568   */\n      tag_519\n        /* \"#utility.yul\":30564:30567   */\n      dup3\n        /* \"#utility.yul\":30555:30561   */\n      dup5\n        /* \"#utility.yul\":30473:30568   */\n      tag_204\n      jump\t// in\n    tag_519:\n        /* \"#utility.yul\":30466:30568   */\n      swap2\n      pop\n        /* \"#utility.yul\":30585:30588   */\n      dup2\n        /* \"#utility.yul\":30578:30588   */\n      swap1\n      pop\n        /* \"#utility.yul\":29077:30594   */\n      swap11\n      swap10\n      pop\n      pop\n      pop\n      pop\n      pop\n      pop\n      pop\n      pop\n      pop\n      pop\n      jump\t// out\n        /* \"#utility.yul\":30600:30772   */\n    tag_231:\n        /* \"#utility.yul\":30740:30764   */\n      0x50726f6475637420616c72656164792065786973747300000000000000000000\n        /* \"#utility.yul\":30736:30737   */\n      0x00\n        /* \"#utility.yul\":30728:30734   */\n      dup3\n        /* \"#utility.yul\":30724:30738   */\n      add\n        /* \"#utility.yul\":30717:30765   */\n      mstore\n        /* \"#utility.yul\":30600:30772   */\n      pop\n      jump\t// out\n        /* \"#utility.yul\":30778:31144   */\n    tag_232:\n        /* \"#utility.yul\":30920:30923   */\n      0x00\n        /* \"#utility.yul\":30941:31008   */\n      tag_522\n        /* \"#utility.yul\":31005:31007   */\n      0x16\n        /* \"#utility.yul\":31000:31003   */\n      dup4\n        /* \"#utility.yul\":30941:31008   */\n      tag_200\n      jump\t// in\n    tag_522:\n        /* \"#utility.yul\":30934:31008   */\n      swap2\n      pop\n        /* \"#utility.yul\":31017:31110   */\n      tag_523\n        /* \"#utility.yul\":31106:31109   */\n      dup3\n        /* \"#utility.yul\":31017:31110   */\n      tag_231\n      jump\t// in\n    tag_523:\n        /* \"#utility.yul\":31135:31137   */\n      0x20\n        /* \"#utility.yul\":31130:31133   */\n      dup3\n        /* \"#utility.yul\":31126:31138   */\n      add\n        /* \"#utility.yul\":31119:31138   */\n      swap1\n      pop\n        /* \"#utility.yul\":30778:31144   */\n      swap2\n      swap1\n      pop\n      jump\t// out\n        /* \"#utility.yul\":31150:31569   */\n    tag_130:\n        /* \"#utility.yul\":31316:31320   */\n      0x00\n        /* \"#utility.yul\":31354:31356   */\n      0x20\n        /* \"#utility.yul\":31343:31352   */\n      dup3\n        /* \"#utility.yul\":31339:31357   */\n      add\n        /* \"#utility.yul\":31331:31357   */\n      swap1\n      pop\n        /* \"#utility.yul\":31403:31412   */\n      dup2\n        /* \"#utility.yul\":31397:31401   */\n      dup2\n        /* \"#utility.yul\":31393:31413   */\n      sub\n        /* \"#utility.yul\":31389:31390   */\n      0x00\n        /* \"#utility.yul\":31378:31387   */\n      dup4\n        /* \"#utility.yul\":31374:31391   */\n      add\n        /* \"#utility.yul\":31367:31414   */\n      mstore\n        /* \"#utility.yul\":31431:31562   */\n      tag_525\n        /* \"#utility.yul\":31557:31561   */\n      dup2\n        /* \"#utility.yul\":31431:31562   */\n      tag_232\n      jump\t// in\n    tag_525:\n        /* \"#utility.yul\":31423:31562   */\n      swap1\n      pop\n        /* \"#utility.yul\":31150:31569   */\n      swap2\n      swap1\n      pop\n      jump\t// out\n        /* \"#utility.yul\":31575:31724   */\n    tag_233:\n        /* \"#utility.yul\":31624:31630   */\n      0x00\n        /* \"#utility.yul\":31658:31663   */\n      dup2\n        /* \"#utility.yul\":31652:31664   */\n      sload\n        /* \"#utility.yul\":31642:31664   */\n      swap1\n      pop\n        /* \"#utility.yul\":31684:31717   */\n      tag_527\n        /* \"#utility.yul\":31710:31716   */\n      dup2\n        /* \"#utility.yul\":31684:31717   */\n      tag_48\n      jump\t// in\n    tag_527:\n        /* \"#utility.yul\":31674:31717   */\n      swap1\n      pop\n        /* \"#utility.yul\":31575:31724   */\n      swap2\n      swap1\n      pop\n      jump\t// out\n        /* \"#utility.yul\":31730:33181   */\n    tag_145:\n        /* \"#utility.yul\":31841:31844   */\n      dup2\n        /* \"#utility.yul\":31835:31839   */\n      dup2\n        /* \"#utility.yul\":31832:31845   */\n      sub\n        /* \"#utility.yul\":31829:31855   */\n      tag_529\n      jumpi\n        /* \"#utility.yul\":31848:31853   */\n      pop\n      pop\n      jump(tag_528)\n        /* \"#utility.yul\":31829:31855   */\n    tag_529:\n        /* \"#utility.yul\":31879:31913   */\n      tag_530\n        /* \"#utility.yul\":31909:31912   */\n      dup3\n        /* \"#utility.yul\":31879:31913   */\n      tag_233\n      jump\t// in\n    tag_530:\n        /* \"#utility.yul\":31978:31996   */\n      0xffffffffffffffff\n        /* \"#utility.yul\":31970:31976   */\n      dup2\n        /* \"#utility.yul\":31967:31997   */\n      gt\n        /* \"#utility.yul\":31964:32020   */\n      iszero\n      tag_531\n      jumpi\n        /* \"#utility.yul\":32000:32018   */\n      tag_532\n      tag_173\n      jump\t// in\n    tag_532:\n        /* \"#utility.yul\":31964:32020   */\n    tag_531:\n        /* \"#utility.yul\":32044:32082   */\n      tag_533\n        /* \"#utility.yul\":32076:32080   */\n      dup3\n        /* \"#utility.yul\":32070:32081   */\n      sload\n        /* \"#utility.yul\":32044:32082   */\n      tag_48\n      jump\t// in\n    tag_533:\n        /* \"#utility.yul\":32129:32196   */\n      tag_534\n        /* \"#utility.yul\":32189:32195   */\n      dup3\n        /* \"#utility.yul\":32181:32187   */\n      dup3\n        /* \"#utility.yul\":32175:32179   */\n      dup6\n        /* \"#utility.yul\":32129:32196   */\n      tag_225\n      jump\t// in\n    tag_534:\n        /* \"#utility.yul\":32223:32224   */\n      0x00\n        /* \"#utility.yul\":32252:32254   */\n      0x1f\n        /* \"#utility.yul\":32244:32250   */\n      dup4\n        /* \"#utility.yul\":32241:32255   */\n      gt\n        /* \"#utility.yul\":32269:32270   */\n      0x01\n        /* \"#utility.yul\":32264:32936   */\n      dup2\n      eq\n      tag_536\n      jumpi\n        /* \"#utility.yul\":32980:32981   */\n      0x00\n        /* \"#utility.yul\":32997:33003   */\n      dup5\n        /* \"#utility.yul\":32994:33071   */\n      iszero\n      tag_537\n      jumpi\n        /* \"#utility.yul\":33046:33055   */\n      dup3\n        /* \"#utility.yul\":33041:33044   */\n      dup8\n        /* \"#utility.yul\":33037:33056   */\n      add\n        /* \"#utility.yul\":33031:33057   */\n      sload\n        /* \"#utility.yul\":33022:33057   */\n      swap1\n      pop\n        /* \"#utility.yul\":32994:33071   */\n    tag_537:\n        /* \"#utility.yul\":33097:33164   */\n      tag_538\n        /* \"#utility.yul\":33157:33163   */\n      dup6\n        /* \"#utility.yul\":33150:33155   */\n      dup3\n        /* \"#utility.yul\":33097:33164   */\n      tag_228\n      jump\t// in\n    tag_538:\n        /* \"#utility.yul\":33091:33095   */\n      dup7\n        /* \"#utility.yul\":33084:33165   */\n      sstore\n        /* \"#utility.yul\":32953:33175   */\n      pop\n        /* \"#utility.yul\":32234:33175   */\n      jump(tag_535)\n        /* \"#utility.yul\":32264:32936   */\n    tag_536:\n        /* \"#utility.yul\":32316:32320   */\n      0x1f\n        /* \"#utility.yul\":32312:32321   */\n      not\n        /* \"#utility.yul\":32304:32310   */\n      dup5\n        /* \"#utility.yul\":32300:32322   */\n      and\n        /* \"#utility.yul\":32342:32378   */\n      tag_539\n        /* \"#utility.yul\":32374:32377   */\n      dup8\n        /* \"#utility.yul\":32342:32378   */\n      tag_213\n      jump\t// in\n    tag_539:\n        /* \"#utility.yul\":32335:32378   */\n      swap7\n      pop\n        /* \"#utility.yul\":32405:32442   */\n      tag_540\n        /* \"#utility.yul\":32437:32441   */\n      dup7\n        /* \"#utility.yul\":32405:32442   */\n      tag_213\n      jump\t// in\n    tag_540:\n        /* \"#utility.yul\":32464:32465   */\n      0x00\n        /* \"#utility.yul\":32478:32685   */\n    tag_541:\n        /* \"#utility.yul\":32492:32499   */\n      dup3\n        /* \"#utility.yul\":32489:32490   */\n      dup2\n        /* \"#utility.yul\":32486:32500   */\n      lt\n        /* \"#utility.yul\":32478:32685   */\n      iszero\n      tag_543\n      jumpi\n        /* \"#utility.yul\":32571:32580   */\n      dup5\n        /* \"#utility.yul\":32566:32569   */\n      dup10\n        /* \"#utility.yul\":32562:32581   */\n      add\n        /* \"#utility.yul\":32556:32582   */\n      sload\n        /* \"#utility.yul\":32548:32554   */\n      dup3\n        /* \"#utility.yul\":32541:32583   */\n      sstore\n        /* \"#utility.yul\":32622:32623   */\n      0x01\n        /* \"#utility.yul\":32614:32620   */\n      dup3\n        /* \"#utility.yul\":32610:32624   */\n      add\n        /* \"#utility.yul\":32600:32624   */\n      swap2\n      pop\n        /* \"#utility.yul\":32669:32670   */\n      0x01\n        /* \"#utility.yul\":32658:32667   */\n      dup6\n        /* \"#utility.yul\":32654:32671   */\n      add\n        /* \"#utility.yul\":32641:32671   */\n      swap5\n      pop\n        /* \"#utility.yul\":32515:32519   */\n      0x20\n        /* \"#utility.yul\":32512:32513   */\n      dup2\n        /* \"#utility.yul\":32508:32520   */\n      add\n        /* \"#utility.yul\":32503:32520   */\n      swap1\n      pop\n        /* \"#utility.yul\":32478:32685   */\n      jump(tag_541)\n    tag_543:\n        /* \"#utility.yul\":32713:32719   */\n      dup7\n        /* \"#utility.yul\":32704:32711   */\n      dup4\n        /* \"#utility.yul\":32701:32720   */\n      lt\n        /* \"#utility.yul\":32698:32877   */\n      iszero\n      tag_544\n      jumpi\n        /* \"#utility.yul\":32771:32780   */\n      dup5\n        /* \"#utility.yul\":32766:32769   */\n      dup10\n        /* \"#utility.yul\":32762:32781   */\n      add\n        /* \"#utility.yul\":32756:32782   */\n      sload\n        /* \"#utility.yul\":32814:32862   */\n      tag_545\n        /* \"#utility.yul\":32856:32860   */\n      0x1f\n        /* \"#utility.yul\":32848:32854   */\n      dup10\n        /* \"#utility.yul\":32844:32861   */\n      and\n        /* \"#utility.yul\":32833:32842   */\n      dup3\n        /* \"#utility.yul\":32814:32862   */\n      tag_227\n      jump\t// in\n    tag_545:\n        /* \"#utility.yul\":32806:32812   */\n      dup4\n        /* \"#utility.yul\":32799:32863   */\n      sstore\n        /* \"#utility.yul\":32721:32877   */\n      pop\n        /* \"#utility.yul\":32698:32877   */\n    tag_544:\n        /* \"#utility.yul\":32923:32924   */\n      0x01\n        /* \"#utility.yul\":32919:32920   */\n      0x02\n        /* \"#utility.yul\":32911:32917   */\n      dup9\n        /* \"#utility.yul\":32907:32921   */\n      mul\n        /* \"#utility.yul\":32903:32925   */\n      add\n        /* \"#utility.yul\":32897:32901   */\n      dup9\n        /* \"#utility.yul\":32890:32926   */\n      sstore\n        /* \"#utility.yul\":32271:32936   */\n      pop\n      pop\n      pop\n        /* \"#utility.yul\":32234:33175   */\n    tag_535:\n      pop\n        /* \"#utility.yul\":31819:33181   */\n      pop\n      pop\n      pop\n        /* \"#utility.yul\":31730:33181   */\n      pop\n      pop\n    tag_528:\n      jump\t// out\n\n    auxdata: 0xa2646970667358221220054680d5f4e7d7986a820db52f7d17d888e7fd35aadc9c68a6fbfca2cdfe2f6a64736f6c63430008120033\n}\n",
				"bytecode": {
					"linkReferences": {},
					"object": "608060405234801561001057600080fd5b50611f82806100206000396000f3fe608060405234801561001057600080fd5b50600436106100415760003560e01c8063a5d8ad9f14610046578063b74d3fb514610076578063dbda06f9146100a6575b600080fd5b610060600480360381019061005b919061101d565b6100d6565b60405161006d91906110e7565b60405180910390f35b610090600480360381019061008b9190611102565b6104eb565b60405161009d91906113b0565b60405180910390f35b6100c060048036038101906100bb91906114e4565b610adc565b6040516100cd91906110e7565b60405180910390f35b60008060008087815260200190815260200160002090506000816000015403610134576040517f08c379a000000000000000000000000000000000000000000000000000000000815260040161012b90611731565b60405180910390fd5b6000808551118015610147575060008451115b15610180578587858760405160200161016394939291906117ae565b604051602081830303815290604052805190602001209050610235565b6000855111156101bc5785878660405160200161019f939291906117f0565b604051602081830303815290604052805190602001209050610234565b6000845111156101f8578587856040516020016101db939291906117f0565b604051602081830303815290604052805190602001209050610233565b6040517f08c379a000000000000000000000000000000000000000000000000000000000815260040161022a90611897565b60405180910390fd5b5b5b6000806000838152602001908152602001600020600001541461028d576040517f08c379a000000000000000000000000000000000000000000000000000000000815260040161028490611929565b60405180910390fd5b6000806000838152602001908152602001600020905082600001548160000181905550826001018160010190816102c49190611b80565b506000855111610360578260020180546102dd90611978565b80601f016020809104026020016040519081016040528092919081815260200182805461030990611978565b80156103565780601f1061032b57610100808354040283529160200191610356565b820191906000526020600020905b81548152906001019060200180831161033957829003601f168201915b5050505050610362565b845b8160020190816103729190611c68565b50600086511161040e5782600301805461038b90611978565b80601f01602080910402602001604051908101604052809291908181526020018280546103b790611978565b80156104045780601f106103d957610100808354040283529160200191610404565b820191906000526020600020905b8154815290600101906020018083116103e757829003601f168201915b5050505050610410565b855b8160030190816104209190611c68565b5082600401548160040181905550826005018160050190816104429190611b80565b50826008018160080190816104579190611b80565b508260060181600601908161046c9190611b80565b50826007018160070190816104819190611b80565b508260090181600901908054610498929190610cfc565b5082600a0181600a019080546104af929190610cfc565b50817f6c2de183f2a2faf4876f357e3c75bf6e6e7aa4dd120e8b5e1bdb2901e085f69c60405160405180910390a2819350505050949350505050565b6104f3610d59565b600080838152602001908152602001600020604051806101600160405290816000820154815260200160018201805461052b90611978565b80601f016020809104026020016040519081016040528092919081815260200182805461055790611978565b80156105a45780601f10610579576101008083540402835291602001916105a4565b820191906000526020600020905b81548152906001019060200180831161058757829003601f168201915b505050505081526020016002820180546105bd90611978565b80601f01602080910402602001604051908101604052809291908181526020018280546105e990611978565b80156106365780601f1061060b57610100808354040283529160200191610636565b820191906000526020600020905b81548152906001019060200180831161061957829003601f168201915b5050505050815260200160038201805461064f90611978565b80601f016020809104026020016040519081016040528092919081815260200182805461067b90611978565b80156106c85780601f1061069d576101008083540402835291602001916106c8565b820191906000526020600020905b8154815290600101906020018083116106ab57829003601f168201915b50505050508152602001600482015481526020016005820180546106eb90611978565b80601f016020809104026020016040519081016040528092919081815260200182805461071790611978565b80156107645780601f1061073957610100808354040283529160200191610764565b820191906000526020600020905b81548152906001019060200180831161074757829003601f168201915b5050505050815260200160068201805461077d90611978565b80601f01602080910402602001604051908101604052809291908181526020018280546107a990611978565b80156107f65780601f106107cb576101008083540402835291602001916107f6565b820191906000526020600020905b8154815290600101906020018083116107d957829003601f168201915b5050505050815260200160078201805461080f90611978565b80601f016020809104026020016040519081016040528092919081815260200182805461083b90611978565b80156108885780601f1061085d57610100808354040283529160200191610888565b820191906000526020600020905b81548152906001019060200180831161086b57829003601f168201915b505050505081526020016008820180546108a190611978565b80601f01602080910402602001604051908101604052809291908181526020018280546108cd90611978565b801561091a5780601f106108ef5761010080835404028352916020019161091a565b820191906000526020600020905b8154815290600101906020018083116108fd57829003601f168201915b5050505050815260200160098201805480602002602001604051908101604052809291908181526020016000905b828210156109f457838290600052602060002001805461096790611978565b80601f016020809104026020016040519081016040528092919081815260200182805461099390611978565b80156109e05780601f106109b5576101008083540402835291602001916109e0565b820191906000526020600020905b8154815290600101906020018083116109c357829003601f168201915b505050505081526020019060010190610948565b505050508152602001600a8201805480602002602001604051908101604052809291908181526020016000905b82821015610acd578382906000526020600020018054610a4090611978565b80601f0160208091040260200160405190810160405280929190818152602001828054610a6c90611978565b8015610ab95780601f10610a8e57610100808354040283529160200191610ab9565b820191906000526020600020905b815481529060010190602001808311610a9c57829003601f168201915b505050505081526020019060010190610a21565b50505050815250509050919050565b6000808c8c8c8c8c8c8c8c8c604051602001610b0099989796959493929190611d5b565b60405160208183030381529060405280519060200120905060008060008381526020019081526020016000206000015414610b70576040517f08c379a0000000000000000000000000000000000000000000000000000000008152600401610b6790611e2e565b60405180910390fd5b6040518061016001604052808e81526020018d81526020018c81526020018b81526020018a815260200189815260200188815260200187815260200186815260200185815260200184815250600080838152602001908152602001600020600082015181600001556020820151816001019081610bed9190611c68565b506040820151816002019081610c039190611c68565b506060820151816003019081610c199190611c68565b506080820151816004015560a0820151816005019081610c399190611c68565b5060c0820151816006019081610c4f9190611c68565b5060e0820151816007019081610c659190611c68565b50610100820151816008019081610c7c9190611c68565b50610120820151816009019080519060200190610c9a929190610db3565b5061014082015181600a019080519060200190610cb8929190610db3565b50905050807f6c2de183f2a2faf4876f357e3c75bf6e6e7aa4dd120e8b5e1bdb2901e085f69c60405160405180910390a2809150509b9a5050505050505050505050565b828054828255906000526020600020908101928215610d485760005260206000209182015b82811115610d475782829081610d379190611e64565b5091600101919060010190610d21565b5b509050610d559190610e0c565b5090565b60405180610160016040528060008152602001606081526020016060815260200160608152602001600081526020016060815260200160608152602001606081526020016060815260200160608152602001606081525090565b828054828255906000526020600020908101928215610dfb579160200282015b82811115610dfa578251829081610dea9190611c68565b5091602001919060010190610dd3565b5b509050610e089190610e0c565b5090565b5b80821115610e2c5760008181610e239190610e30565b50600101610e0d565b5090565b508054610e3c90611978565b6000825580601f10610e4e5750610e6d565b601f016020900490600052602060002090810190610e6c9190610e70565b5b50565b5b80821115610e89576000816000905550600101610e71565b5090565b6000604051905090565b600080fd5b600080fd5b6000819050919050565b610eb481610ea1565b8114610ebf57600080fd5b50565b600081359050610ed181610eab565b92915050565b600080fd5b600080fd5b6000601f19601f8301169050919050565b7f4e487b7100000000000000000000000000000000000000000000000000000000600052604160045260246000fd5b610f2a82610ee1565b810181811067ffffffffffffffff82111715610f4957610f48610ef2565b5b80604052505050565b6000610f5c610e8d565b9050610f688282610f21565b919050565b600067ffffffffffffffff821115610f8857610f87610ef2565b5b610f9182610ee1565b9050602081019050919050565b82818337600083830152505050565b6000610fc0610fbb84610f6d565b610f52565b905082815260208101848484011115610fdc57610fdb610edc565b5b610fe7848285610f9e565b509392505050565b600082601f83011261100457611003610ed7565b5b8135611014848260208601610fad565b91505092915050565b6000806000806080858703121561103757611036610e97565b5b600061104587828801610ec2565b945050602085013567ffffffffffffffff81111561106657611065610e9c565b5b61107287828801610fef565b935050604085013567ffffffffffffffff81111561109357611092610e9c565b5b61109f87828801610fef565b925050606085013567ffffffffffffffff8111156110c0576110bf610e9c565b5b6110cc87828801610fef565b91505092959194509250565b6110e181610ea1565b82525050565b60006020820190506110fc60008301846110d8565b92915050565b60006020828403121561111857611117610e97565b5b600061112684828501610ec2565b91505092915050565b6000819050919050565b6111428161112f565b82525050565b600081519050919050565b600082825260208201905092915050565b60005b83811015611182578082015181840152602081019050611167565b60008484015250505050565b600061119982611148565b6111a38185611153565b93506111b3818560208601611164565b6111bc81610ee1565b840191505092915050565b600081519050919050565b600082825260208201905092915050565b6000819050602082019050919050565b60006111ff838361118e565b905092915050565b6000602082019050919050565b600061121f826111c7565b61122981856111d2565b93508360208202850161123b856111e3565b8060005b85811015611277578484038952815161125885826111f3565b945061126383611207565b925060208a0199505060018101905061123f565b50829750879550505050505092915050565b6000610160830160008301516112a26000860182611139565b50602083015184820360208601526112ba828261118e565b915050604083015184820360408601526112d4828261118e565b915050606083015184820360608601526112ee828261118e565b91505060808301516113036080860182611139565b5060a083015184820360a086015261131b828261118e565b91505060c083015184820360c0860152611335828261118e565b91505060e083015184820360e086015261134f828261118e565b91505061010083015184820361010086015261136b828261118e565b9150506101208301518482036101208601526113878282611214565b9150506101408301518482036101408601526113a38282611214565b9150508091505092915050565b600060208201905081810360008301526113ca8184611289565b905092915050565b6113db8161112f565b81146113e657600080fd5b50565b6000813590506113f8816113d2565b92915050565b600067ffffffffffffffff82111561141957611418610ef2565b5b602082029050602081019050919050565b600080fd5b600061144261143d846113fe565b610f52565b905080838252602082019050602084028301858111156114655761146461142a565b5b835b818110156114ac57803567ffffffffffffffff81111561148a57611489610ed7565b5b8086016114978982610fef565b85526020850194505050602081019050611467565b5050509392505050565b600082601f8301126114cb576114ca610ed7565b5b81356114db84826020860161142f565b91505092915050565b60008060008060008060008060008060006101608c8e03121561150a57611509610e97565b5b60006115188e828f016113e9565b9b505060208c013567ffffffffffffffff81111561153957611538610e9c565b5b6115458e828f01610fef565b9a505060408c013567ffffffffffffffff81111561156657611565610e9c565b5b6115728e828f01610fef565b99505060608c013567ffffffffffffffff81111561159357611592610e9c565b5b61159f8e828f01610fef565b98505060806115b08e828f016113e9565b97505060a08c013567ffffffffffffffff8111156115d1576115d0610e9c565b5b6115dd8e828f01610fef565b96505060c08c013567ffffffffffffffff8111156115fe576115fd610e9c565b5b61160a8e828f01610fef565b95505060e08c013567ffffffffffffffff81111561162b5761162a610e9c565b5b6116378e828f01610fef565b9450506101008c013567ffffffffffffffff81111561165957611658610e9c565b5b6116658e828f01610fef565b9350506101208c013567ffffffffffffffff81111561168757611686610e9c565b5b6116938e828f016114b6565b9250506101408c013567ffffffffffffffff8111156116b5576116b4610e9c565b5b6116c18e828f016114b6565b9150509295989b509295989b9093969950565b600082825260208201905092915050565b7f50726f6475637420646f6573206e6f7420657869737400000000000000000000600082015250565b600061171b6016836116d4565b9150611726826116e5565b602082019050919050565b6000602082019050818103600083015261174a8161170e565b9050919050565b600081905092915050565b600061176782611148565b6117718185611751565b9350611781818560208601611164565b80840191505092915050565b6000819050919050565b6117a86117a382610ea1565b61178d565b82525050565b60006117ba828761175c565b91506117c68286611797565b6020820191506117d6828561175c565b91506117e2828461175c565b915081905095945050505050565b60006117fc828661175c565b91506118088285611797565b602082019150611818828461175c565b9150819050949350505050565b7f456974686572207175616c697479206f72207175616e746974792073686f756c60008201527f6420626520757064617465640000000000000000000000000000000000000000602082015250565b6000611881602c836116d4565b915061188c82611825565b604082019050919050565b600060208201905081810360008301526118b081611874565b9050919050565b7f50726f647563742077697468206e6577207175616c69747920616e642071756160008201527f6e7469747920616c726561647920657869737473000000000000000000000000602082015250565b60006119136034836116d4565b915061191e826118b7565b604082019050919050565b6000602082019050818103600083015261194281611906565b9050919050565b7f4e487b7100000000000000000000000000000000000000000000000000000000600052602260045260246000fd5b6000600282049050600182168061199057607f821691505b6020821081036119a3576119a2611949565b5b50919050565b6000815490506119b881611978565b9050919050565b60008190508160005260206000209050919050565b60008190508160005260206000209050919050565b60006020601f8301049050919050565b600082821b905092915050565b600060088302611a367fffffffffffffffffffffffffffffffffffffffffffffffffffffffffffffffff826119f9565b611a4086836119f9565b95508019841693508086168417925050509392505050565b6000819050919050565b6000611a7d611a78611a738461112f565b611a58565b61112f565b9050919050565b6000819050919050565b611a9783611a62565b611aab611aa382611a84565b848454611a06565b825550505050565b600090565b611ac0611ab3565b611acb818484611a8e565b505050565b5b81811015611aef57611ae4600082611ab8565b600181019050611ad1565b5050565b601f821115611b3457611b05816119bf565b611b0e846119e9565b81016020851015611b1d578190505b611b31611b29856119e9565b830182611ad0565b50505b505050565b600082821c905092915050565b6000611b5760001984600802611b39565b1980831691505092915050565b6000611b708383611b46565b9150826002028217905092915050565b818103611b8e575050611c66565b611b97826119a9565b67ffffffffffffffff811115611bb057611baf610ef2565b5b611bba8254611978565b611bc5828285611af3565b6000601f831160018114611bf45760008415611be2578287015490505b611bec8582611b64565b865550611c5f565b601f198416611c02876119d4565b9650611c0d866119bf565b60005b82811015611c3557848901548255600182019150600185019450602081019050611c10565b86831015611c525784890154611c4e601f891682611b46565b8355505b6001600288020188555050505b5050505050505b565b611c7182611148565b67ffffffffffffffff811115611c8a57611c89610ef2565b5b611c948254611978565b611c9f828285611af3565b600060209050601f831160018114611cd25760008415611cc0578287015190505b611cca8582611b64565b865550611d32565b601f198416611ce0866119bf565b60005b82811015611d0857848901518255600182019150602085019450602081019050611ce3565b86831015611d255784890151611d21601f891682611b46565b8355505b6001600288020188555050505b505050505050565b6000819050919050565b611d55611d508261112f565b611d3a565b82525050565b6000611d67828c611d44565b602082019150611d77828b61175c565b9150611d83828a61175c565b9150611d8f828961175c565b9150611d9b8288611d44565b602082019150611dab828761175c565b9150611db7828661175c565b9150611dc3828561175c565b9150611dcf828461175c565b91508190509a9950505050505050505050565b7f50726f6475637420616c72656164792065786973747300000000000000000000600082015250565b6000611e186016836116d4565b9150611e2382611de2565b602082019050919050565b60006020820190508181036000830152611e4781611e0b565b9050919050565b600081549050611e5d81611978565b9050919050565b818103611e72575050611f4a565b611e7b82611e4e565b67ffffffffffffffff811115611e9457611e93610ef2565b5b611e9e8254611978565b611ea9828285611af3565b6000601f831160018114611ed85760008415611ec6578287015490505b611ed08582611b64565b865550611f43565b601f198416611ee6876119bf565b9650611ef1866119bf565b60005b82811015611f1957848901548255600182019150600185019450602081019050611ef4565b86831015611f365784890154611f32601f891682611b46565b8355505b6001600288020188555050505b5050505050505b56fea2646970667358221220054680d5f4e7d7986a820db52f7d17d888e7fd35aadc9c68a6fbfca2cdfe2f6a64736f6c63430008120033",
					"opcodes": "PUSH1 0x80 PUSH1 0x40 MSTORE CALLVALUE DUP1 ISZERO PUSH2 0x10 JUMPI PUSH1 0x0 DUP1 REVERT JUMPDEST POP PUSH2 0x1F82 DUP1 PUSH2 0x20 PUSH1 0x0 CODECOPY PUSH1 0x0 RETURN INVALID PUSH1 0x80 PUSH1 0x40 MSTORE CALLVALUE DUP1 ISZERO PUSH2 0x10 JUMPI PUSH1 0x0 DUP1 REVERT JUMPDEST POP PUSH1 0x4 CALLDATASIZE LT PUSH2 0x41 JUMPI PUSH1 0x0 CALLDATALOAD PUSH1 0xE0 SHR DUP1 PUSH4 0xA5D8AD9F EQ PUSH2 0x46 JUMPI DUP1 PUSH4 0xB74D3FB5 EQ PUSH2 0x76 JUMPI DUP1 PUSH4 0xDBDA06F9 EQ PUSH2 0xA6 JUMPI JUMPDEST PUSH1 0x0 DUP1 REVERT JUMPDEST PUSH2 0x60 PUSH1 0x4 DUP1 CALLDATASIZE SUB DUP2 ADD SWAP1 PUSH2 0x5B SWAP2 SWAP1 PUSH2 0x101D JUMP JUMPDEST PUSH2 0xD6 JUMP JUMPDEST PUSH1 0x40 MLOAD PUSH2 0x6D SWAP2 SWAP1 PUSH2 0x10E7 JUMP JUMPDEST PUSH1 0x40 MLOAD DUP1 SWAP2 SUB SWAP1 RETURN JUMPDEST PUSH2 0x90 PUSH1 0x4 DUP1 CALLDATASIZE SUB DUP2 ADD SWAP1 PUSH2 0x8B SWAP2 SWAP1 PUSH2 0x1102 JUMP JUMPDEST PUSH2 0x4EB JUMP JUMPDEST PUSH1 0x40 MLOAD PUSH2 0x9D SWAP2 SWAP1 PUSH2 0x13B0 JUMP JUMPDEST PUSH1 0x40 MLOAD DUP1 SWAP2 SUB SWAP1 RETURN JUMPDEST PUSH2 0xC0 PUSH1 0x4 DUP1 CALLDATASIZE SUB DUP2 ADD SWAP1 PUSH2 0xBB SWAP2 SWAP1 PUSH2 0x14E4 JUMP JUMPDEST PUSH2 0xADC JUMP JUMPDEST PUSH1 0x40 MLOAD PUSH2 0xCD SWAP2 SWAP1 PUSH2 0x10E7 JUMP JUMPDEST PUSH1 0x40 MLOAD DUP1 SWAP2 SUB SWAP1 RETURN JUMPDEST PUSH1 0x0 DUP1 PUSH1 0x0 DUP1 DUP8 DUP2 MSTORE PUSH1 0x20 ADD SWAP1 DUP2 MSTORE PUSH1 0x20 ADD PUSH1 0x0 KECCAK256 SWAP1 POP PUSH1 0x0 DUP2 PUSH1 0x0 ADD SLOAD SUB PUSH2 0x134 JUMPI PUSH1 0x40 MLOAD PUSH32 0x8C379A000000000000000000000000000000000000000000000000000000000 DUP2 MSTORE PUSH1 0x4 ADD PUSH2 0x12B SWAP1 PUSH2 0x1731 JUMP JUMPDEST PUSH1 0x40 MLOAD DUP1 SWAP2 SUB SWAP1 REVERT JUMPDEST PUSH1 0x0 DUP1 DUP6 MLOAD GT DUP1 ISZERO PUSH2 0x147 JUMPI POP PUSH1 0x0 DUP5 MLOAD GT JUMPDEST ISZERO PUSH2 0x180 JUMPI DUP6 DUP8 DUP6 DUP8 PUSH1 0x40 MLOAD PUSH1 0x20 ADD PUSH2 0x163 SWAP5 SWAP4 SWAP3 SWAP2 SWAP1 PUSH2 0x17AE JUMP JUMPDEST PUSH1 0x40 MLOAD PUSH1 0x20 DUP2 DUP4 SUB SUB DUP2 MSTORE SWAP1 PUSH1 0x40 MSTORE DUP1 MLOAD SWAP1 PUSH1 0x20 ADD KECCAK256 SWAP1 POP PUSH2 0x235 JUMP JUMPDEST PUSH1 0x0 DUP6 MLOAD GT ISZERO PUSH2 0x1BC JUMPI DUP6 DUP8 DUP7 PUSH1 0x40 MLOAD PUSH1 0x20 ADD PUSH2 0x19F SWAP4 SWAP3 SWAP2 SWAP1 PUSH2 0x17F0 JUMP JUMPDEST PUSH1 0x40 MLOAD PUSH1 0x20 DUP2 DUP4 SUB SUB DUP2 MSTORE SWAP1 PUSH1 0x40 MSTORE DUP1 MLOAD SWAP1 PUSH1 0x20 ADD KECCAK256 SWAP1 POP PUSH2 0x234 JUMP JUMPDEST PUSH1 0x0 DUP5 MLOAD GT ISZERO PUSH2 0x1F8 JUMPI DUP6 DUP8 DUP6 PUSH1 0x40 MLOAD PUSH1 0x20 ADD PUSH2 0x1DB SWAP4 SWAP3 SWAP2 SWAP1 PUSH2 0x17F0 JUMP JUMPDEST PUSH1 0x40 MLOAD PUSH1 0x20 DUP2 DUP4 SUB SUB DUP2 MSTORE SWAP1 PUSH1 0x40 MSTORE DUP1 MLOAD SWAP1 PUSH1 0x20 ADD KECCAK256 SWAP1 POP PUSH2 0x233 JUMP JUMPDEST PUSH1 0x40 MLOAD PUSH32 0x8C379A000000000000000000000000000000000000000000000000000000000 DUP2 MSTORE PUSH1 0x4 ADD PUSH2 0x22A SWAP1 PUSH2 0x1897 JUMP JUMPDEST PUSH1 0x40 MLOAD DUP1 SWAP2 SUB SWAP1 REVERT JUMPDEST JUMPDEST JUMPDEST PUSH1 0x0 DUP1 PUSH1 0x0 DUP4 DUP2 MSTORE PUSH1 0x20 ADD SWAP1 DUP2 MSTORE PUSH1 0x20 ADD PUSH1 0x0 KECCAK256 PUSH1 0x0 ADD SLOAD EQ PUSH2 0x28D JUMPI PUSH1 0x40 MLOAD PUSH32 0x8C379A000000000000000000000000000000000000000000000000000000000 DUP2 MSTORE PUSH1 0x4 ADD PUSH2 0x284 SWAP1 PUSH2 0x1929 JUMP JUMPDEST PUSH1 0x40 MLOAD DUP1 SWAP2 SUB SWAP1 REVERT JUMPDEST PUSH1 0x0 DUP1 PUSH1 0x0 DUP4 DUP2 MSTORE PUSH1 0x20 ADD SWAP1 DUP2 MSTORE PUSH1 0x20 ADD PUSH1 0x0 KECCAK256 SWAP1 POP DUP3 PUSH1 0x0 ADD SLOAD DUP2 PUSH1 0x0 ADD DUP2 SWAP1 SSTORE POP DUP3 PUSH1 0x1 ADD DUP2 PUSH1 0x1 ADD SWAP1 DUP2 PUSH2 0x2C4 SWAP2 SWAP1 PUSH2 0x1B80 JUMP JUMPDEST POP PUSH1 0x0 DUP6 MLOAD GT PUSH2 0x360 JUMPI DUP3 PUSH1 0x2 ADD DUP1 SLOAD PUSH2 0x2DD SWAP1 PUSH2 0x1978 JUMP JUMPDEST DUP1 PUSH1 0x1F ADD PUSH1 0x20 DUP1 SWAP2 DIV MUL PUSH1 0x20 ADD PUSH1 0x40 MLOAD SWAP1 DUP2 ADD PUSH1 0x40 MSTORE DUP1 SWAP3 SWAP2 SWAP1 DUP2 DUP2 MSTORE PUSH1 0x20 ADD DUP3 DUP1 SLOAD PUSH2 0x309 SWAP1 PUSH2 0x1978 JUMP JUMPDEST DUP1 ISZERO PUSH2 0x356 JUMPI DUP1 PUSH1 0x1F LT PUSH2 0x32B JUMPI PUSH2 0x100 DUP1 DUP4 SLOAD DIV MUL DUP4 MSTORE SWAP2 PUSH1 0x20 ADD SWAP2 PUSH2 0x356 JUMP JUMPDEST DUP3 ADD SWAP2 SWAP1 PUSH1 0x0 MSTORE PUSH1 0x20 PUSH1 0x0 KECCAK256 SWAP1 JUMPDEST DUP2 SLOAD DUP2 MSTORE SWAP1 PUSH1 0x1 ADD SWAP1 PUSH1 0x20 ADD DUP1 DUP4 GT PUSH2 0x339 JUMPI DUP3 SWAP1 SUB PUSH1 0x1F AND DUP3 ADD SWAP2 JUMPDEST POP POP POP POP POP PUSH2 0x362 JUMP JUMPDEST DUP5 JUMPDEST DUP2 PUSH1 0x2 ADD SWAP1 DUP2 PUSH2 0x372 SWAP2 SWAP1 PUSH2 0x1C68 JUMP JUMPDEST POP PUSH1 0x0 DUP7 MLOAD GT PUSH2 0x40E JUMPI DUP3 PUSH1 0x3 ADD DUP1 SLOAD PUSH2 0x38B SWAP1 PUSH2 0x1978 JUMP JUMPDEST DUP1 PUSH1 0x1F ADD PUSH1 0x20 DUP1 SWAP2 DIV MUL PUSH1 0x20 ADD PUSH1 0x40 MLOAD SWAP1 DUP2 ADD PUSH1 0x40 MSTORE DUP1 SWAP3 SWAP2 SWAP1 DUP2 DUP2 MSTORE PUSH1 0x20 ADD DUP3 DUP1 SLOAD PUSH2 0x3B7 SWAP1 PUSH2 0x1978 JUMP JUMPDEST DUP1 ISZERO PUSH2 0x404 JUMPI DUP1 PUSH1 0x1F LT PUSH2 0x3D9 JUMPI PUSH2 0x100 DUP1 DUP4 SLOAD DIV MUL DUP4 MSTORE SWAP2 PUSH1 0x20 ADD SWAP2 PUSH2 0x404 JUMP JUMPDEST DUP3 ADD SWAP2 SWAP1 PUSH1 0x0 MSTORE PUSH1 0x20 PUSH1 0x0 KECCAK256 SWAP1 JUMPDEST DUP2 SLOAD DUP2 MSTORE SWAP1 PUSH1 0x1 ADD SWAP1 PUSH1 0x20 ADD DUP1 DUP4 GT PUSH2 0x3E7 JUMPI DUP3 SWAP1 SUB PUSH1 0x1F AND DUP3 ADD SWAP2 JUMPDEST POP POP POP POP POP PUSH2 0x410 JUMP JUMPDEST DUP6 JUMPDEST DUP2 PUSH1 0x3 ADD SWAP1 DUP2 PUSH2 0x420 SWAP2 SWAP1 PUSH2 0x1C68 JUMP JUMPDEST POP DUP3 PUSH1 0x4 ADD SLOAD DUP2 PUSH1 0x4 ADD DUP2 SWAP1 SSTORE POP DUP3 PUSH1 0x5 ADD DUP2 PUSH1 0x5 ADD SWAP1 DUP2 PUSH2 0x442 SWAP2 SWAP1 PUSH2 0x1B80 JUMP JUMPDEST POP DUP3 PUSH1 0x8 ADD DUP2 PUSH1 0x8 ADD SWAP1 DUP2 PUSH2 0x457 SWAP2 SWAP1 PUSH2 0x1B80 JUMP JUMPDEST POP DUP3 PUSH1 0x6 ADD DUP2 PUSH1 0x6 ADD SWAP1 DUP2 PUSH2 0x46C SWAP2 SWAP1 PUSH2 0x1B80 JUMP JUMPDEST POP DUP3 PUSH1 0x7 ADD DUP2 PUSH1 0x7 ADD SWAP1 DUP2 PUSH2 0x481 SWAP2 SWAP1 PUSH2 0x1B80 JUMP JUMPDEST POP DUP3 PUSH1 0x9 ADD DUP2 PUSH1 0x9 ADD SWAP1 DUP1 SLOAD PUSH2 0x498 SWAP3 SWAP2 SWAP1 PUSH2 0xCFC JUMP JUMPDEST POP DUP3 PUSH1 0xA ADD DUP2 PUSH1 0xA ADD SWAP1 DUP1 SLOAD PUSH2 0x4AF SWAP3 SWAP2 SWAP1 PUSH2 0xCFC JUMP JUMPDEST POP DUP2 PUSH32 0x6C2DE183F2A2FAF4876F357E3C75BF6E6E7AA4DD120E8B5E1BDB2901E085F69C PUSH1 0x40 MLOAD PUSH1 0x40 MLOAD DUP1 SWAP2 SUB SWAP1 LOG2 DUP2 SWAP4 POP POP POP POP SWAP5 SWAP4 POP POP POP POP JUMP JUMPDEST PUSH2 0x4F3 PUSH2 0xD59 JUMP JUMPDEST PUSH1 0x0 DUP1 DUP4 DUP2 MSTORE PUSH1 0x20 ADD SWAP1 DUP2 MSTORE PUSH1 0x20 ADD PUSH1 0x0 KECCAK256 PUSH1 0x40 MLOAD DUP1 PUSH2 0x160 ADD PUSH1 0x40 MSTORE SWAP1 DUP2 PUSH1 0x0 DUP3 ADD SLOAD DUP2 MSTORE PUSH1 0x20 ADD PUSH1 0x1 DUP3 ADD DUP1 SLOAD PUSH2 0x52B SWAP1 PUSH2 0x1978 JUMP JUMPDEST DUP1 PUSH1 0x1F ADD PUSH1 0x20 DUP1 SWAP2 DIV MUL PUSH1 0x20 ADD PUSH1 0x40 MLOAD SWAP1 DUP2 ADD PUSH1 0x40 MSTORE DUP1 SWAP3 SWAP2 SWAP1 DUP2 DUP2 MSTORE PUSH1 0x20 ADD DUP3 DUP1 SLOAD PUSH2 0x557 SWAP1 PUSH2 0x1978 JUMP JUMPDEST DUP1 ISZERO PUSH2 0x5A4 JUMPI DUP1 PUSH1 0x1F LT PUSH2 0x579 JUMPI PUSH2 0x100 DUP1 DUP4 SLOAD DIV MUL DUP4 MSTORE SWAP2 PUSH1 0x20 ADD SWAP2 PUSH2 0x5A4 JUMP JUMPDEST DUP3 ADD SWAP2 SWAP1 PUSH1 0x0 MSTORE PUSH1 0x20 PUSH1 0x0 KECCAK256 SWAP1 JUMPDEST DUP2 SLOAD DUP2 MSTORE SWAP1 PUSH1 0x1 ADD SWAP1 PUSH1 0x20 ADD DUP1 DUP4 GT PUSH2 0x587 JUMPI DUP3 SWAP1 SUB PUSH1 0x1F AND DUP3 ADD SWAP2 JUMPDEST POP POP POP POP POP DUP2 MSTORE PUSH1 0x20 ADD PUSH1 0x2 DUP3 ADD DUP1 SLOAD PUSH2 0x5BD SWAP1 PUSH2 0x1978 JUMP JUMPDEST DUP1 PUSH1 0x1F ADD PUSH1 0x20 DUP1 SWAP2 DIV MUL PUSH1 0x20 ADD PUSH1 0x40 MLOAD SWAP1 DUP2 ADD PUSH1 0x40 MSTORE DUP1 SWAP3 SWAP2 SWAP1 DUP2 DUP2 MSTORE PUSH1 0x20 ADD DUP3 DUP1 SLOAD PUSH2 0x5E9 SWAP1 PUSH2 0x1978 JUMP JUMPDEST DUP1 ISZERO PUSH2 0x636 JUMPI DUP1 PUSH1 0x1F LT PUSH2 0x60B JUMPI PUSH2 0x100 DUP1 DUP4 SLOAD DIV MUL DUP4 MSTORE SWAP2 PUSH1 0x20 ADD SWAP2 PUSH2 0x636 JUMP JUMPDEST DUP3 ADD SWAP2 SWAP1 PUSH1 0x0 MSTORE PUSH1 0x20 PUSH1 0x0 KECCAK256 SWAP1 JUMPDEST DUP2 SLOAD DUP2 MSTORE SWAP1 PUSH1 0x1 ADD SWAP1 PUSH1 0x20 ADD DUP1 DUP4 GT PUSH2 0x619 JUMPI DUP3 SWAP1 SUB PUSH1 0x1F AND DUP3 ADD SWAP2 JUMPDEST POP POP POP POP POP DUP2 MSTORE PUSH1 0x20 ADD PUSH1 0x3 DUP3 ADD DUP1 SLOAD PUSH2 0x64F SWAP1 PUSH2 0x1978 JUMP JUMPDEST DUP1 PUSH1 0x1F ADD PUSH1 0x20 DUP1 SWAP2 DIV MUL PUSH1 0x20 ADD PUSH1 0x40 MLOAD SWAP1 DUP2 ADD PUSH1 0x40 MSTORE DUP1 SWAP3 SWAP2 SWAP1 DUP2 DUP2 MSTORE PUSH1 0x20 ADD DUP3 DUP1 SLOAD PUSH2 0x67B SWAP1 PUSH2 0x1978 JUMP JUMPDEST DUP1 ISZERO PUSH2 0x6C8 JUMPI DUP1 PUSH1 0x1F LT PUSH2 0x69D JUMPI PUSH2 0x100 DUP1 DUP4 SLOAD DIV MUL DUP4 MSTORE SWAP2 PUSH1 0x20 ADD SWAP2 PUSH2 0x6C8 JUMP JUMPDEST DUP3 ADD SWAP2 SWAP1 PUSH1 0x0 MSTORE PUSH1 0x20 PUSH1 0x0 KECCAK256 SWAP1 JUMPDEST DUP2 SLOAD DUP2 MSTORE SWAP1 PUSH1 0x1 ADD SWAP1 PUSH1 0x20 ADD DUP1 DUP4 GT PUSH2 0x6AB JUMPI DUP3 SWAP1 SUB PUSH1 0x1F AND DUP3 ADD SWAP2 JUMPDEST POP POP POP POP POP DUP2 MSTORE PUSH1 0x20 ADD PUSH1 0x4 DUP3 ADD SLOAD DUP2 MSTORE PUSH1 0x20 ADD PUSH1 0x5 DUP3 ADD DUP1 SLOAD PUSH2 0x6EB SWAP1 PUSH2 0x1978 JUMP JUMPDEST DUP1 PUSH1 0x1F ADD PUSH1 0x20 DUP1 SWAP2 DIV MUL PUSH1 0x20 ADD PUSH1 0x40 MLOAD SWAP1 DUP2 ADD PUSH1 0x40 MSTORE DUP1 SWAP3 SWAP2 SWAP1 DUP2 DUP2 MSTORE PUSH1 0x20 ADD DUP3 DUP1 SLOAD PUSH2 0x717 SWAP1 PUSH2 0x1978 JUMP JUMPDEST DUP1 ISZERO PUSH2 0x764 JUMPI DUP1 PUSH1 0x1F LT PUSH2 0x739 JUMPI PUSH2 0x100 DUP1 DUP4 SLOAD DIV MUL DUP4 MSTORE SWAP2 PUSH1 0x20 ADD SWAP2 PUSH2 0x764 JUMP JUMPDEST DUP3 ADD SWAP2 SWAP1 PUSH1 0x0 MSTORE PUSH1 0x20 PUSH1 0x0 KECCAK256 SWAP1 JUMPDEST DUP2 SLOAD DUP2 MSTORE SWAP1 PUSH1 0x1 ADD SWAP1 PUSH1 0x20 ADD DUP1 DUP4 GT PUSH2 0x747 JUMPI DUP3 SWAP1 SUB PUSH1 0x1F AND DUP3 ADD SWAP2 JUMPDEST POP POP POP POP POP DUP2 MSTORE PUSH1 0x20 ADD PUSH1 0x6 DUP3 ADD DUP1 SLOAD PUSH2 0x77D SWAP1 PUSH2 0x1978 JUMP JUMPDEST DUP1 PUSH1 0x1F ADD PUSH1 0x20 DUP1 SWAP2 DIV MUL PUSH1 0x20 ADD PUSH1 0x40 MLOAD SWAP1 DUP2 ADD PUSH1 0x40 MSTORE DUP1 SWAP3 SWAP2 SWAP1 DUP2 DUP2 MSTORE PUSH1 0x20 ADD DUP3 DUP1 SLOAD PUSH2 0x7A9 SWAP1 PUSH2 0x1978 JUMP JUMPDEST DUP1 ISZERO PUSH2 0x7F6 JUMPI DUP1 PUSH1 0x1F LT PUSH2 0x7CB JUMPI PUSH2 0x100 DUP1 DUP4 SLOAD DIV MUL DUP4 MSTORE SWAP2 PUSH1 0x20 ADD SWAP2 PUSH2 0x7F6 JUMP JUMPDEST DUP3 ADD SWAP2 SWAP1 PUSH1 0x0 MSTORE PUSH1 0x20 PUSH1 0x0 KECCAK256 SWAP1 JUMPDEST DUP2 SLOAD DUP2 MSTORE SWAP1 PUSH1 0x1 ADD SWAP1 PUSH1 0x20 ADD DUP1 DUP4 GT PUSH2 0x7D9 JUMPI DUP3 SWAP1 SUB PUSH1 0x1F AND DUP3 ADD SWAP2 JUMPDEST POP POP POP POP POP DUP2 MSTORE PUSH1 0x20 ADD PUSH1 0x7 DUP3 ADD DUP1 SLOAD PUSH2 0x80F SWAP1 PUSH2 0x1978 JUMP JUMPDEST DUP1 PUSH1 0x1F ADD PUSH1 0x20 DUP1 SWAP2 DIV MUL PUSH1 0x20 ADD PUSH1 0x40 MLOAD SWAP1 DUP2 ADD PUSH1 0x40 MSTORE DUP1 SWAP3 SWAP2 SWAP1 DUP2 DUP2 MSTORE PUSH1 0x20 ADD DUP3 DUP1 SLOAD PUSH2 0x83B SWAP1 PUSH2 0x1978 JUMP JUMPDEST DUP1 ISZERO PUSH2 0x888 JUMPI DUP1 PUSH1 0x1F LT PUSH2 0x85D JUMPI PUSH2 0x100 DUP1 DUP4 SLOAD DIV MUL DUP4 MSTORE SWAP2 PUSH1 0x20 ADD SWAP2 PUSH2 0x888 JUMP JUMPDEST DUP3 ADD SWAP2 SWAP1 PUSH1 0x0 MSTORE PUSH1 0x20 PUSH1 0x0 KECCAK256 SWAP1 JUMPDEST DUP2 SLOAD DUP2 MSTORE SWAP1 PUSH1 0x1 ADD SWAP1 PUSH1 0x20 ADD DUP1 DUP4 GT PUSH2 0x86B JUMPI DUP3 SWAP1 SUB PUSH1 0x1F AND DUP3 ADD SWAP2 JUMPDEST POP POP POP POP POP DUP2 MSTORE PUSH1 0x20 ADD PUSH1 0x8 DUP3 ADD DUP1 SLOAD PUSH2 0x8A1 SWAP1 PUSH2 0x1978 JUMP JUMPDEST DUP1 PUSH1 0x1F ADD PUSH1 0x20 DUP1 SWAP2 DIV MUL PUSH1 0x20 ADD PUSH1 0x40 MLOAD SWAP1 DUP2 ADD PUSH1 0x40 MSTORE DUP1 SWAP3 SWAP2 SWAP1 DUP2 DUP2 MSTORE PUSH1 0x20 ADD DUP3 DUP1 SLOAD PUSH2 0x8CD SWAP1 PUSH2 0x1978 JUMP JUMPDEST DUP1 ISZERO PUSH2 0x91A JUMPI DUP1 PUSH1 0x1F LT PUSH2 0x8EF JUMPI PUSH2 0x100 DUP1 DUP4 SLOAD DIV MUL DUP4 MSTORE SWAP2 PUSH1 0x20 ADD SWAP2 PUSH2 0x91A JUMP JUMPDEST DUP3 ADD SWAP2 SWAP1 PUSH1 0x0 MSTORE PUSH1 0x20 PUSH1 0x0 KECCAK256 SWAP1 JUMPDEST DUP2 SLOAD DUP2 MSTORE SWAP1 PUSH1 0x1 ADD SWAP1 PUSH1 0x20 ADD DUP1 DUP4 GT PUSH2 0x8FD JUMPI DUP3 SWAP1 SUB PUSH1 0x1F AND DUP3 ADD SWAP2 JUMPDEST POP POP POP POP POP DUP2 MSTORE PUSH1 0x20 ADD PUSH1 0x9 DUP3 ADD DUP1 SLOAD DUP1 PUSH1 0x20 MUL PUSH1 0x20 ADD PUSH1 0x40 MLOAD SWAP1 DUP2 ADD PUSH1 0x40 MSTORE DUP1 SWAP3 SWAP2 SWAP1 DUP2 DUP2 MSTORE PUSH1 0x20 ADD PUSH1 0x0 SWAP1 JUMPDEST DUP3 DUP3 LT ISZERO PUSH2 0x9F4 JUMPI DUP4 DUP3 SWAP1 PUSH1 0x0 MSTORE PUSH1 0x20 PUSH1 0x0 KECCAK256 ADD DUP1 SLOAD PUSH2 0x967 SWAP1 PUSH2 0x1978 JUMP JUMPDEST DUP1 PUSH1 0x1F ADD PUSH1 0x20 DUP1 SWAP2 DIV MUL PUSH1 0x20 ADD PUSH1 0x40 MLOAD SWAP1 DUP2 ADD PUSH1 0x40 MSTORE DUP1 SWAP3 SWAP2 SWAP1 DUP2 DUP2 MSTORE PUSH1 0x20 ADD DUP3 DUP1 SLOAD PUSH2 0x993 SWAP1 PUSH2 0x1978 JUMP JUMPDEST DUP1 ISZERO PUSH2 0x9E0 JUMPI DUP1 PUSH1 0x1F LT PUSH2 0x9B5 JUMPI PUSH2 0x100 DUP1 DUP4 SLOAD DIV MUL DUP4 MSTORE SWAP2 PUSH1 0x20 ADD SWAP2 PUSH2 0x9E0 JUMP JUMPDEST DUP3 ADD SWAP2 SWAP1 PUSH1 0x0 MSTORE PUSH1 0x20 PUSH1 0x0 KECCAK256 SWAP1 JUMPDEST DUP2 SLOAD DUP2 MSTORE SWAP1 PUSH1 0x1 ADD SWAP1 PUSH1 0x20 ADD DUP1 DUP4 GT PUSH2 0x9C3 JUMPI DUP3 SWAP1 SUB PUSH1 0x1F AND DUP3 ADD SWAP2 JUMPDEST POP POP POP POP POP DUP2 MSTORE PUSH1 0x20 ADD SWAP1 PUSH1 0x1 ADD SWAP1 PUSH2 0x948 JUMP JUMPDEST POP POP POP POP DUP2 MSTORE PUSH1 0x20 ADD PUSH1 0xA DUP3 ADD DUP1 SLOAD DUP1 PUSH1 0x20 MUL PUSH1 0x20 ADD PUSH1 0x40 MLOAD SWAP1 DUP2 ADD PUSH1 0x40 MSTORE DUP1 SWAP3 SWAP2 SWAP1 DUP2 DUP2 MSTORE PUSH1 0x20 ADD PUSH1 0x0 SWAP1 JUMPDEST DUP3 DUP3 LT ISZERO PUSH2 0xACD JUMPI DUP4 DUP3 SWAP1 PUSH1 0x0 MSTORE PUSH1 0x20 PUSH1 0x0 KECCAK256 ADD DUP1 SLOAD PUSH2 0xA40 SWAP1 PUSH2 0x1978 JUMP JUMPDEST DUP1 PUSH1 0x1F ADD PUSH1 0x20 DUP1 SWAP2 DIV MUL PUSH1 0x20 ADD PUSH1 0x40 MLOAD SWAP1 DUP2 ADD PUSH1 0x40 MSTORE DUP1 SWAP3 SWAP2 SWAP1 DUP2 DUP2 MSTORE PUSH1 0x20 ADD DUP3 DUP1 SLOAD PUSH2 0xA6C SWAP1 PUSH2 0x1978 JUMP JUMPDEST DUP1 ISZERO PUSH2 0xAB9 JUMPI DUP1 PUSH1 0x1F LT PUSH2 0xA8E JUMPI PUSH2 0x100 DUP1 DUP4 SLOAD DIV MUL DUP4 MSTORE SWAP2 PUSH1 0x20 ADD SWAP2 PUSH2 0xAB9 JUMP JUMPDEST DUP3 ADD SWAP2 SWAP1 PUSH1 0x0 MSTORE PUSH1 0x20 PUSH1 0x0 KECCAK256 SWAP1 JUMPDEST DUP2 SLOAD DUP2 MSTORE SWAP1 PUSH1 0x1 ADD SWAP1 PUSH1 0x20 ADD DUP1 DUP4 GT PUSH2 0xA9C JUMPI DUP3 SWAP1 SUB PUSH1 0x1F AND DUP3 ADD SWAP2 JUMPDEST POP POP POP POP POP DUP2 MSTORE PUSH1 0x20 ADD SWAP1 PUSH1 0x1 ADD SWAP1 PUSH2 0xA21 JUMP JUMPDEST POP POP POP POP DUP2 MSTORE POP POP SWAP1 POP SWAP2 SWAP1 POP JUMP JUMPDEST PUSH1 0x0 DUP1 DUP13 DUP13 DUP13 DUP13 DUP13 DUP13 DUP13 DUP13 DUP13 PUSH1 0x40 MLOAD PUSH1 0x20 ADD PUSH2 0xB00 SWAP10 SWAP9 SWAP8 SWAP7 SWAP6 SWAP5 SWAP4 SWAP3 SWAP2 SWAP1 PUSH2 0x1D5B JUMP JUMPDEST PUSH1 0x40 MLOAD PUSH1 0x20 DUP2 DUP4 SUB SUB DUP2 MSTORE SWAP1 PUSH1 0x40 MSTORE DUP1 MLOAD SWAP1 PUSH1 0x20 ADD KECCAK256 SWAP1 POP PUSH1 0x0 DUP1 PUSH1 0x0 DUP4 DUP2 MSTORE PUSH1 0x20 ADD SWAP1 DUP2 MSTORE PUSH1 0x20 ADD PUSH1 0x0 KECCAK256 PUSH1 0x0 ADD SLOAD EQ PUSH2 0xB70 JUMPI PUSH1 0x40 MLOAD PUSH32 0x8C379A000000000000000000000000000000000000000000000000000000000 DUP2 MSTORE PUSH1 0x4 ADD PUSH2 0xB67 SWAP1 PUSH2 0x1E2E JUMP JUMPDEST PUSH1 0x40 MLOAD DUP1 SWAP2 SUB SWAP1 REVERT JUMPDEST PUSH1 0x40 MLOAD DUP1 PUSH2 0x160 ADD PUSH1 0x40 MSTORE DUP1 DUP15 DUP2 MSTORE PUSH1 0x20 ADD DUP14 DUP2 MSTORE PUSH1 0x20 ADD DUP13 DUP2 MSTORE PUSH1 0x20 ADD DUP12 DUP2 MSTORE PUSH1 0x20 ADD DUP11 DUP2 MSTORE PUSH1 0x20 ADD DUP10 DUP2 MSTORE PUSH1 0x20 ADD DUP9 DUP2 MSTORE PUSH1 0x20 ADD DUP8 DUP2 MSTORE PUSH1 0x20 ADD DUP7 DUP2 MSTORE PUSH1 0x20 ADD DUP6 DUP2 MSTORE PUSH1 0x20 ADD DUP5 DUP2 MSTORE POP PUSH1 0x0 DUP1 DUP4 DUP2 MSTORE PUSH1 0x20 ADD SWAP1 DUP2 MSTORE PUSH1 0x20 ADD PUSH1 0x0 KECCAK256 PUSH1 0x0 DUP3 ADD MLOAD DUP2 PUSH1 0x0 ADD SSTORE PUSH1 0x20 DUP3 ADD MLOAD DUP2 PUSH1 0x1 ADD SWAP1 DUP2 PUSH2 0xBED SWAP2 SWAP1 PUSH2 0x1C68 JUMP JUMPDEST POP PUSH1 0x40 DUP3 ADD MLOAD DUP2 PUSH1 0x2 ADD SWAP1 DUP2 PUSH2 0xC03 SWAP2 SWAP1 PUSH2 0x1C68 JUMP JUMPDEST POP PUSH1 0x60 DUP3 ADD MLOAD DUP2 PUSH1 0x3 ADD SWAP1 DUP2 PUSH2 0xC19 SWAP2 SWAP1 PUSH2 0x1C68 JUMP JUMPDEST POP PUSH1 0x80 DUP3 ADD MLOAD DUP2 PUSH1 0x4 ADD SSTORE PUSH1 0xA0 DUP3 ADD MLOAD DUP2 PUSH1 0x5 ADD SWAP1 DUP2 PUSH2 0xC39 SWAP2 SWAP1 PUSH2 0x1C68 JUMP JUMPDEST POP PUSH1 0xC0 DUP3 ADD MLOAD DUP2 PUSH1 0x6 ADD SWAP1 DUP2 PUSH2 0xC4F SWAP2 SWAP1 PUSH2 0x1C68 JUMP JUMPDEST POP PUSH1 0xE0 DUP3 ADD MLOAD DUP2 PUSH1 0x7 ADD SWAP1 DUP2 PUSH2 0xC65 SWAP2 SWAP1 PUSH2 0x1C68 JUMP JUMPDEST POP PUSH2 0x100 DUP3 ADD MLOAD DUP2 PUSH1 0x8 ADD SWAP1 DUP2 PUSH2 0xC7C SWAP2 SWAP1 PUSH2 0x1C68 JUMP JUMPDEST POP PUSH2 0x120 DUP3 ADD MLOAD DUP2 PUSH1 0x9 ADD SWAP1 DUP1 MLOAD SWAP1 PUSH1 0x20 ADD SWAP1 PUSH2 0xC9A SWAP3 SWAP2 SWAP1 PUSH2 0xDB3 JUMP JUMPDEST POP PUSH2 0x140 DUP3 ADD MLOAD DUP2 PUSH1 0xA ADD SWAP1 DUP1 MLOAD SWAP1 PUSH1 0x20 ADD SWAP1 PUSH2 0xCB8 SWAP3 SWAP2 SWAP1 PUSH2 0xDB3 JUMP JUMPDEST POP SWAP1 POP POP DUP1 PUSH32 0x6C2DE183F2A2FAF4876F357E3C75BF6E6E7AA4DD120E8B5E1BDB2901E085F69C PUSH1 0x40 MLOAD PUSH1 0x40 MLOAD DUP1 SWAP2 SUB SWAP1 LOG2 DUP1 SWAP2 POP POP SWAP12 SWAP11 POP POP POP POP POP POP POP POP POP POP POP JUMP JUMPDEST DUP3 DUP1 SLOAD DUP3 DUP3 SSTORE SWAP1 PUSH1 0x0 MSTORE PUSH1 0x20 PUSH1 0x0 KECCAK256 SWAP1 DUP2 ADD SWAP3 DUP3 ISZERO PUSH2 0xD48 JUMPI PUSH1 0x0 MSTORE PUSH1 0x20 PUSH1 0x0 KECCAK256 SWAP2 DUP3 ADD JUMPDEST DUP3 DUP2 GT ISZERO PUSH2 0xD47 JUMPI DUP3 DUP3 SWAP1 DUP2 PUSH2 0xD37 SWAP2 SWAP1 PUSH2 0x1E64 JUMP JUMPDEST POP SWAP2 PUSH1 0x1 ADD SWAP2 SWAP1 PUSH1 0x1 ADD SWAP1 PUSH2 0xD21 JUMP JUMPDEST JUMPDEST POP SWAP1 POP PUSH2 0xD55 SWAP2 SWAP1 PUSH2 0xE0C JUMP JUMPDEST POP SWAP1 JUMP JUMPDEST PUSH1 0x40 MLOAD DUP1 PUSH2 0x160 ADD PUSH1 0x40 MSTORE DUP1 PUSH1 0x0 DUP2 MSTORE PUSH1 0x20 ADD PUSH1 0x60 DUP2 MSTORE PUSH1 0x20 ADD PUSH1 0x60 DUP2 MSTORE PUSH1 0x20 ADD PUSH1 0x60 DUP2 MSTORE PUSH1 0x20 ADD PUSH1 0x0 DUP2 MSTORE PUSH1 0x20 ADD PUSH1 0x60 DUP2 MSTORE PUSH1 0x20 ADD PUSH1 0x60 DUP2 MSTORE PUSH1 0x20 ADD PUSH1 0x60 DUP2 MSTORE PUSH1 0x20 ADD PUSH1 0x60 DUP2 MSTORE PUSH1 0x20 ADD PUSH1 0x60 DUP2 MSTORE PUSH1 0x20 ADD PUSH1 0x60 DUP2 MSTORE POP SWAP1 JUMP JUMPDEST DUP3 DUP1 SLOAD DUP3 DUP3 SSTORE SWAP1 PUSH1 0x0 MSTORE PUSH1 0x20 PUSH1 0x0 KECCAK256 SWAP1 DUP2 ADD SWAP3 DUP3 ISZERO PUSH2 0xDFB JUMPI SWAP2 PUSH1 0x20 MUL DUP3 ADD JUMPDEST DUP3 DUP2 GT ISZERO PUSH2 0xDFA JUMPI DUP3 MLOAD DUP3 SWAP1 DUP2 PUSH2 0xDEA SWAP2 SWAP1 PUSH2 0x1C68 JUMP JUMPDEST POP SWAP2 PUSH1 0x20 ADD SWAP2 SWAP1 PUSH1 0x1 ADD SWAP1 PUSH2 0xDD3 JUMP JUMPDEST JUMPDEST POP SWAP1 POP PUSH2 0xE08 SWAP2 SWAP1 PUSH2 0xE0C JUMP JUMPDEST POP SWAP1 JUMP JUMPDEST JUMPDEST DUP1 DUP3 GT ISZERO PUSH2 0xE2C JUMPI PUSH1 0x0 DUP2 DUP2 PUSH2 0xE23 SWAP2 SWAP1 PUSH2 0xE30 JUMP JUMPDEST POP PUSH1 0x1 ADD PUSH2 0xE0D JUMP JUMPDEST POP SWAP1 JUMP JUMPDEST POP DUP1 SLOAD PUSH2 0xE3C SWAP1 PUSH2 0x1978 JUMP JUMPDEST PUSH1 0x0 DUP3 SSTORE DUP1 PUSH1 0x1F LT PUSH2 0xE4E JUMPI POP PUSH2 0xE6D JUMP JUMPDEST PUSH1 0x1F ADD PUSH1 0x20 SWAP1 DIV SWAP1 PUSH1 0x0 MSTORE PUSH1 0x20 PUSH1 0x0 KECCAK256 SWAP1 DUP2 ADD SWAP1 PUSH2 0xE6C SWAP2 SWAP1 PUSH2 0xE70 JUMP JUMPDEST JUMPDEST POP JUMP JUMPDEST JUMPDEST DUP1 DUP3 GT ISZERO PUSH2 0xE89 JUMPI PUSH1 0x0 DUP2 PUSH1 0x0 SWAP1 SSTORE POP PUSH1 0x1 ADD PUSH2 0xE71 JUMP JUMPDEST POP SWAP1 JUMP JUMPDEST PUSH1 0x0 PUSH1 0x40 MLOAD SWAP1 POP SWAP1 JUMP JUMPDEST PUSH1 0x0 DUP1 REVERT JUMPDEST PUSH1 0x0 DUP1 REVERT JUMPDEST PUSH1 0x0 DUP2 SWAP1 POP SWAP2 SWAP1 POP JUMP JUMPDEST PUSH2 0xEB4 DUP2 PUSH2 0xEA1 JUMP JUMPDEST DUP2 EQ PUSH2 0xEBF JUMPI PUSH1 0x0 DUP1 REVERT JUMPDEST POP JUMP JUMPDEST PUSH1 0x0 DUP2 CALLDATALOAD SWAP1 POP PUSH2 0xED1 DUP2 PUSH2 0xEAB JUMP JUMPDEST SWAP3 SWAP2 POP POP JUMP JUMPDEST PUSH1 0x0 DUP1 REVERT JUMPDEST PUSH1 0x0 DUP1 REVERT JUMPDEST PUSH1 0x0 PUSH1 0x1F NOT PUSH1 0x1F DUP4 ADD AND SWAP1 POP SWAP2 SWAP1 POP JUMP JUMPDEST PUSH32 0x4E487B7100000000000000000000000000000000000000000000000000000000 PUSH1 0x0 MSTORE PUSH1 0x41 PUSH1 0x4 MSTORE PUSH1 0x24 PUSH1 0x0 REVERT JUMPDEST PUSH2 0xF2A DUP3 PUSH2 0xEE1 JUMP JUMPDEST DUP2 ADD DUP2 DUP2 LT PUSH8 0xFFFFFFFFFFFFFFFF DUP3 GT OR ISZERO PUSH2 0xF49 JUMPI PUSH2 0xF48 PUSH2 0xEF2 JUMP JUMPDEST JUMPDEST DUP1 PUSH1 0x40 MSTORE POP POP POP JUMP JUMPDEST PUSH1 0x0 PUSH2 0xF5C PUSH2 0xE8D JUMP JUMPDEST SWAP1 POP PUSH2 0xF68 DUP3 DUP3 PUSH2 0xF21 JUMP JUMPDEST SWAP2 SWAP1 POP JUMP JUMPDEST PUSH1 0x0 PUSH8 0xFFFFFFFFFFFFFFFF DUP3 GT ISZERO PUSH2 0xF88 JUMPI PUSH2 0xF87 PUSH2 0xEF2 JUMP JUMPDEST JUMPDEST PUSH2 0xF91 DUP3 PUSH2 0xEE1 JUMP JUMPDEST SWAP1 POP PUSH1 0x20 DUP2 ADD SWAP1 POP SWAP2 SWAP1 POP JUMP JUMPDEST DUP3 DUP2 DUP4 CALLDATACOPY PUSH1 0x0 DUP4 DUP4 ADD MSTORE POP POP POP JUMP JUMPDEST PUSH1 0x0 PUSH2 0xFC0 PUSH2 0xFBB DUP5 PUSH2 0xF6D JUMP JUMPDEST PUSH2 0xF52 JUMP JUMPDEST SWAP1 POP DUP3 DUP2 MSTORE PUSH1 0x20 DUP2 ADD DUP5 DUP5 DUP5 ADD GT ISZERO PUSH2 0xFDC JUMPI PUSH2 0xFDB PUSH2 0xEDC JUMP JUMPDEST JUMPDEST PUSH2 0xFE7 DUP5 DUP3 DUP6 PUSH2 0xF9E JUMP JUMPDEST POP SWAP4 SWAP3 POP POP POP JUMP JUMPDEST PUSH1 0x0 DUP3 PUSH1 0x1F DUP4 ADD SLT PUSH2 0x1004 JUMPI PUSH2 0x1003 PUSH2 0xED7 JUMP JUMPDEST JUMPDEST DUP2 CALLDATALOAD PUSH2 0x1014 DUP5 DUP3 PUSH1 0x20 DUP7 ADD PUSH2 0xFAD JUMP JUMPDEST SWAP2 POP POP SWAP3 SWAP2 POP POP JUMP JUMPDEST PUSH1 0x0 DUP1 PUSH1 0x0 DUP1 PUSH1 0x80 DUP6 DUP8 SUB SLT ISZERO PUSH2 0x1037 JUMPI PUSH2 0x1036 PUSH2 0xE97 JUMP JUMPDEST JUMPDEST PUSH1 0x0 PUSH2 0x1045 DUP8 DUP3 DUP9 ADD PUSH2 0xEC2 JUMP JUMPDEST SWAP5 POP POP PUSH1 0x20 DUP6 ADD CALLDATALOAD PUSH8 0xFFFFFFFFFFFFFFFF DUP2 GT ISZERO PUSH2 0x1066 JUMPI PUSH2 0x1065 PUSH2 0xE9C JUMP JUMPDEST JUMPDEST PUSH2 0x1072 DUP8 DUP3 DUP9 ADD PUSH2 0xFEF JUMP JUMPDEST SWAP4 POP POP PUSH1 0x40 DUP6 ADD CALLDATALOAD PUSH8 0xFFFFFFFFFFFFFFFF DUP2 GT ISZERO PUSH2 0x1093 JUMPI PUSH2 0x1092 PUSH2 0xE9C JUMP JUMPDEST JUMPDEST PUSH2 0x109F DUP8 DUP3 DUP9 ADD PUSH2 0xFEF JUMP JUMPDEST SWAP3 POP POP PUSH1 0x60 DUP6 ADD CALLDATALOAD PUSH8 0xFFFFFFFFFFFFFFFF DUP2 GT ISZERO PUSH2 0x10C0 JUMPI PUSH2 0x10BF PUSH2 0xE9C JUMP JUMPDEST JUMPDEST PUSH2 0x10CC DUP8 DUP3 DUP9 ADD PUSH2 0xFEF JUMP JUMPDEST SWAP2 POP POP SWAP3 SWAP6 SWAP2 SWAP5 POP SWAP3 POP JUMP JUMPDEST PUSH2 0x10E1 DUP2 PUSH2 0xEA1 JUMP JUMPDEST DUP3 MSTORE POP POP JUMP JUMPDEST PUSH1 0x0 PUSH1 0x20 DUP3 ADD SWAP1 POP PUSH2 0x10FC PUSH1 0x0 DUP4 ADD DUP5 PUSH2 0x10D8 JUMP JUMPDEST SWAP3 SWAP2 POP POP JUMP JUMPDEST PUSH1 0x0 PUSH1 0x20 DUP3 DUP5 SUB SLT ISZERO PUSH2 0x1118 JUMPI PUSH2 0x1117 PUSH2 0xE97 JUMP JUMPDEST JUMPDEST PUSH1 0x0 PUSH2 0x1126 DUP5 DUP3 DUP6 ADD PUSH2 0xEC2 JUMP JUMPDEST SWAP2 POP POP SWAP3 SWAP2 POP POP JUMP JUMPDEST PUSH1 0x0 DUP2 SWAP1 POP SWAP2 SWAP1 POP JUMP JUMPDEST PUSH2 0x1142 DUP2 PUSH2 0x112F JUMP JUMPDEST DUP3 MSTORE POP POP JUMP JUMPDEST PUSH1 0x0 DUP2 MLOAD SWAP1 POP SWAP2 SWAP1 POP JUMP JUMPDEST PUSH1 0x0 DUP3 DUP3 MSTORE PUSH1 0x20 DUP3 ADD SWAP1 POP SWAP3 SWAP2 POP POP JUMP JUMPDEST PUSH1 0x0 JUMPDEST DUP4 DUP2 LT ISZERO PUSH2 0x1182 JUMPI DUP1 DUP3 ADD MLOAD DUP2 DUP5 ADD MSTORE PUSH1 0x20 DUP2 ADD SWAP1 POP PUSH2 0x1167 JUMP JUMPDEST PUSH1 0x0 DUP5 DUP5 ADD MSTORE POP POP POP POP JUMP JUMPDEST PUSH1 0x0 PUSH2 0x1199 DUP3 PUSH2 0x1148 JUMP JUMPDEST PUSH2 0x11A3 DUP2 DUP6 PUSH2 0x1153 JUMP JUMPDEST SWAP4 POP PUSH2 0x11B3 DUP2 DUP6 PUSH1 0x20 DUP7 ADD PUSH2 0x1164 JUMP JUMPDEST PUSH2 0x11BC DUP2 PUSH2 0xEE1 JUMP JUMPDEST DUP5 ADD SWAP2 POP POP SWAP3 SWAP2 POP POP JUMP JUMPDEST PUSH1 0x0 DUP2 MLOAD SWAP1 POP SWAP2 SWAP1 POP JUMP JUMPDEST PUSH1 0x0 DUP3 DUP3 MSTORE PUSH1 0x20 DUP3 ADD SWAP1 POP SWAP3 SWAP2 POP POP JUMP JUMPDEST PUSH1 0x0 DUP2 SWAP1 POP PUSH1 0x20 DUP3 ADD SWAP1 POP SWAP2 SWAP1 POP JUMP JUMPDEST PUSH1 0x0 PUSH2 0x11FF DUP4 DUP4 PUSH2 0x118E JUMP JUMPDEST SWAP1 POP SWAP3 SWAP2 POP POP JUMP JUMPDEST PUSH1 0x0 PUSH1 0x20 DUP3 ADD SWAP1 POP SWAP2 SWAP1 POP JUMP JUMPDEST PUSH1 0x0 PUSH2 0x121F DUP3 PUSH2 0x11C7 JUMP JUMPDEST PUSH2 0x1229 DUP2 DUP6 PUSH2 0x11D2 JUMP JUMPDEST SWAP4 POP DUP4 PUSH1 0x20 DUP3 MUL DUP6 ADD PUSH2 0x123B DUP6 PUSH2 0x11E3 JUMP JUMPDEST DUP1 PUSH1 0x0 JUMPDEST DUP6 DUP2 LT ISZERO PUSH2 0x1277 JUMPI DUP5 DUP5 SUB DUP10 MSTORE DUP2 MLOAD PUSH2 0x1258 DUP6 DUP3 PUSH2 0x11F3 JUMP JUMPDEST SWAP5 POP PUSH2 0x1263 DUP4 PUSH2 0x1207 JUMP JUMPDEST SWAP3 POP PUSH1 0x20 DUP11 ADD SWAP10 POP POP PUSH1 0x1 DUP2 ADD SWAP1 POP PUSH2 0x123F JUMP JUMPDEST POP DUP3 SWAP8 POP DUP8 SWAP6 POP POP POP POP POP POP SWAP3 SWAP2 POP POP JUMP JUMPDEST PUSH1 0x0 PUSH2 0x160 DUP4 ADD PUSH1 0x0 DUP4 ADD MLOAD PUSH2 0x12A2 PUSH1 0x0 DUP7 ADD DUP3 PUSH2 0x1139 JUMP JUMPDEST POP PUSH1 0x20 DUP4 ADD MLOAD DUP5 DUP3 SUB PUSH1 0x20 DUP7 ADD MSTORE PUSH2 0x12BA DUP3 DUP3 PUSH2 0x118E JUMP JUMPDEST SWAP2 POP POP PUSH1 0x40 DUP4 ADD MLOAD DUP5 DUP3 SUB PUSH1 0x40 DUP7 ADD MSTORE PUSH2 0x12D4 DUP3 DUP3 PUSH2 0x118E JUMP JUMPDEST SWAP2 POP POP PUSH1 0x60 DUP4 ADD MLOAD DUP5 DUP3 SUB PUSH1 0x60 DUP7 ADD MSTORE PUSH2 0x12EE DUP3 DUP3 PUSH2 0x118E JUMP JUMPDEST SWAP2 POP POP PUSH1 0x80 DUP4 ADD MLOAD PUSH2 0x1303 PUSH1 0x80 DUP7 ADD DUP3 PUSH2 0x1139 JUMP JUMPDEST POP PUSH1 0xA0 DUP4 ADD MLOAD DUP5 DUP3 SUB PUSH1 0xA0 DUP7 ADD MSTORE PUSH2 0x131B DUP3 DUP3 PUSH2 0x118E JUMP JUMPDEST SWAP2 POP POP PUSH1 0xC0 DUP4 ADD MLOAD DUP5 DUP3 SUB PUSH1 0xC0 DUP7 ADD MSTORE PUSH2 0x1335 DUP3 DUP3 PUSH2 0x118E JUMP JUMPDEST SWAP2 POP POP PUSH1 0xE0 DUP4 ADD MLOAD DUP5 DUP3 SUB PUSH1 0xE0 DUP7 ADD MSTORE PUSH2 0x134F DUP3 DUP3 PUSH2 0x118E JUMP JUMPDEST SWAP2 POP POP PUSH2 0x100 DUP4 ADD MLOAD DUP5 DUP3 SUB PUSH2 0x100 DUP7 ADD MSTORE PUSH2 0x136B DUP3 DUP3 PUSH2 0x118E JUMP JUMPDEST SWAP2 POP POP PUSH2 0x120 DUP4 ADD MLOAD DUP5 DUP3 SUB PUSH2 0x120 DUP7 ADD MSTORE PUSH2 0x1387 DUP3 DUP3 PUSH2 0x1214 JUMP JUMPDEST SWAP2 POP POP PUSH2 0x140 DUP4 ADD MLOAD DUP5 DUP3 SUB PUSH2 0x140 DUP7 ADD MSTORE PUSH2 0x13A3 DUP3 DUP3 PUSH2 0x1214 JUMP JUMPDEST SWAP2 POP POP DUP1 SWAP2 POP POP SWAP3 SWAP2 POP POP JUMP JUMPDEST PUSH1 0x0 PUSH1 0x20 DUP3 ADD SWAP1 POP DUP2 DUP2 SUB PUSH1 0x0 DUP4 ADD MSTORE PUSH2 0x13CA DUP2 DUP5 PUSH2 0x1289 JUMP JUMPDEST SWAP1 POP SWAP3 SWAP2 POP POP JUMP JUMPDEST PUSH2 0x13DB DUP2 PUSH2 0x112F JUMP JUMPDEST DUP2 EQ PUSH2 0x13E6 JUMPI PUSH1 0x0 DUP1 REVERT JUMPDEST POP JUMP JUMPDEST PUSH1 0x0 DUP2 CALLDATALOAD SWAP1 POP PUSH2 0x13F8 DUP2 PUSH2 0x13D2 JUMP JUMPDEST SWAP3 SWAP2 POP POP JUMP JUMPDEST PUSH1 0x0 PUSH8 0xFFFFFFFFFFFFFFFF DUP3 GT ISZERO PUSH2 0x1419 JUMPI PUSH2 0x1418 PUSH2 0xEF2 JUMP JUMPDEST JUMPDEST PUSH1 0x20 DUP3 MUL SWAP1 POP PUSH1 0x20 DUP2 ADD SWAP1 POP SWAP2 SWAP1 POP JUMP JUMPDEST PUSH1 0x0 DUP1 REVERT JUMPDEST PUSH1 0x0 PUSH2 0x1442 PUSH2 0x143D DUP5 PUSH2 0x13FE JUMP JUMPDEST PUSH2 0xF52 JUMP JUMPDEST SWAP1 POP DUP1 DUP4 DUP3 MSTORE PUSH1 0x20 DUP3 ADD SWAP1 POP PUSH1 0x20 DUP5 MUL DUP4 ADD DUP6 DUP2 GT ISZERO PUSH2 0x1465 JUMPI PUSH2 0x1464 PUSH2 0x142A JUMP JUMPDEST JUMPDEST DUP4 JUMPDEST DUP2 DUP2 LT ISZERO PUSH2 0x14AC JUMPI DUP1 CALLDATALOAD PUSH8 0xFFFFFFFFFFFFFFFF DUP2 GT ISZERO PUSH2 0x148A JUMPI PUSH2 0x1489 PUSH2 0xED7 JUMP JUMPDEST JUMPDEST DUP1 DUP7 ADD PUSH2 0x1497 DUP10 DUP3 PUSH2 0xFEF JUMP JUMPDEST DUP6 MSTORE PUSH1 0x20 DUP6 ADD SWAP5 POP POP POP PUSH1 0x20 DUP2 ADD SWAP1 POP PUSH2 0x1467 JUMP JUMPDEST POP POP POP SWAP4 SWAP3 POP POP POP JUMP JUMPDEST PUSH1 0x0 DUP3 PUSH1 0x1F DUP4 ADD SLT PUSH2 0x14CB JUMPI PUSH2 0x14CA PUSH2 0xED7 JUMP JUMPDEST JUMPDEST DUP2 CALLDATALOAD PUSH2 0x14DB DUP5 DUP3 PUSH1 0x20 DUP7 ADD PUSH2 0x142F JUMP JUMPDEST SWAP2 POP POP SWAP3 SWAP2 POP POP JUMP JUMPDEST PUSH1 0x0 DUP1 PUSH1 0x0 DUP1 PUSH1 0x0 DUP1 PUSH1 0x0 DUP1 PUSH1 0x0 DUP1 PUSH1 0x0 PUSH2 0x160 DUP13 DUP15 SUB SLT ISZERO PUSH2 0x150A JUMPI PUSH2 0x1509 PUSH2 0xE97 JUMP JUMPDEST JUMPDEST PUSH1 0x0 PUSH2 0x1518 DUP15 DUP3 DUP16 ADD PUSH2 0x13E9 JUMP JUMPDEST SWAP12 POP POP PUSH1 0x20 DUP13 ADD CALLDATALOAD PUSH8 0xFFFFFFFFFFFFFFFF DUP2 GT ISZERO PUSH2 0x1539 JUMPI PUSH2 0x1538 PUSH2 0xE9C JUMP JUMPDEST JUMPDEST PUSH2 0x1545 DUP15 DUP3 DUP16 ADD PUSH2 0xFEF JUMP JUMPDEST SWAP11 POP POP PUSH1 0x40 DUP13 ADD CALLDATALOAD PUSH8 0xFFFFFFFFFFFFFFFF DUP2 GT ISZERO PUSH2 0x1566 JUMPI PUSH2 0x1565 PUSH2 0xE9C JUMP JUMPDEST JUMPDEST PUSH2 0x1572 DUP15 DUP3 DUP16 ADD PUSH2 0xFEF JUMP JUMPDEST SWAP10 POP POP PUSH1 0x60 DUP13 ADD CALLDATALOAD PUSH8 0xFFFFFFFFFFFFFFFF DUP2 GT ISZERO PUSH2 0x1593 JUMPI PUSH2 0x1592 PUSH2 0xE9C JUMP JUMPDEST JUMPDEST PUSH2 0x159F DUP15 DUP3 DUP16 ADD PUSH2 0xFEF JUMP JUMPDEST SWAP9 POP POP PUSH1 0x80 PUSH2 0x15B0 DUP15 DUP3 DUP16 ADD PUSH2 0x13E9 JUMP JUMPDEST SWAP8 POP POP PUSH1 0xA0 DUP13 ADD CALLDATALOAD PUSH8 0xFFFFFFFFFFFFFFFF DUP2 GT ISZERO PUSH2 0x15D1 JUMPI PUSH2 0x15D0 PUSH2 0xE9C JUMP JUMPDEST JUMPDEST PUSH2 0x15DD DUP15 DUP3 DUP16 ADD PUSH2 0xFEF JUMP JUMPDEST SWAP7 POP POP PUSH1 0xC0 DUP13 ADD CALLDATALOAD PUSH8 0xFFFFFFFFFFFFFFFF DUP2 GT ISZERO PUSH2 0x15FE JUMPI PUSH2 0x15FD PUSH2 0xE9C JUMP JUMPDEST JUMPDEST PUSH2 0x160A DUP15 DUP3 DUP16 ADD PUSH2 0xFEF JUMP JUMPDEST SWAP6 POP POP PUSH1 0xE0 DUP13 ADD CALLDATALOAD PUSH8 0xFFFFFFFFFFFFFFFF DUP2 GT ISZERO PUSH2 0x162B JUMPI PUSH2 0x162A PUSH2 0xE9C JUMP JUMPDEST JUMPDEST PUSH2 0x1637 DUP15 DUP3 DUP16 ADD PUSH2 0xFEF JUMP JUMPDEST SWAP5 POP POP PUSH2 0x100 DUP13 ADD CALLDATALOAD PUSH8 0xFFFFFFFFFFFFFFFF DUP2 GT ISZERO PUSH2 0x1659 JUMPI PUSH2 0x1658 PUSH2 0xE9C JUMP JUMPDEST JUMPDEST PUSH2 0x1665 DUP15 DUP3 DUP16 ADD PUSH2 0xFEF JUMP JUMPDEST SWAP4 POP POP PUSH2 0x120 DUP13 ADD CALLDATALOAD PUSH8 0xFFFFFFFFFFFFFFFF DUP2 GT ISZERO PUSH2 0x1687 JUMPI PUSH2 0x1686 PUSH2 0xE9C JUMP JUMPDEST JUMPDEST PUSH2 0x1693 DUP15 DUP3 DUP16 ADD PUSH2 0x14B6 JUMP JUMPDEST SWAP3 POP POP PUSH2 0x140 DUP13 ADD CALLDATALOAD PUSH8 0xFFFFFFFFFFFFFFFF DUP2 GT ISZERO PUSH2 0x16B5 JUMPI PUSH2 0x16B4 PUSH2 0xE9C JUMP JUMPDEST JUMPDEST PUSH2 0x16C1 DUP15 DUP3 DUP16 ADD PUSH2 0x14B6 JUMP JUMPDEST SWAP2 POP POP SWAP3 SWAP6 SWAP9 SWAP12 POP SWAP3 SWAP6 SWAP9 SWAP12 SWAP1 SWAP4 SWAP7 SWAP10 POP JUMP JUMPDEST PUSH1 0x0 DUP3 DUP3 MSTORE PUSH1 0x20 DUP3 ADD SWAP1 POP SWAP3 SWAP2 POP POP JUMP JUMPDEST PUSH32 0x50726F6475637420646F6573206E6F7420657869737400000000000000000000 PUSH1 0x0 DUP3 ADD MSTORE POP JUMP JUMPDEST PUSH1 0x0 PUSH2 0x171B PUSH1 0x16 DUP4 PUSH2 0x16D4 JUMP JUMPDEST SWAP2 POP PUSH2 0x1726 DUP3 PUSH2 0x16E5 JUMP JUMPDEST PUSH1 0x20 DUP3 ADD SWAP1 POP SWAP2 SWAP1 POP JUMP JUMPDEST PUSH1 0x0 PUSH1 0x20 DUP3 ADD SWAP1 POP DUP2 DUP2 SUB PUSH1 0x0 DUP4 ADD MSTORE PUSH2 0x174A DUP2 PUSH2 0x170E JUMP JUMPDEST SWAP1 POP SWAP2 SWAP1 POP JUMP JUMPDEST PUSH1 0x0 DUP2 SWAP1 POP SWAP3 SWAP2 POP POP JUMP JUMPDEST PUSH1 0x0 PUSH2 0x1767 DUP3 PUSH2 0x1148 JUMP JUMPDEST PUSH2 0x1771 DUP2 DUP6 PUSH2 0x1751 JUMP JUMPDEST SWAP4 POP PUSH2 0x1781 DUP2 DUP6 PUSH1 0x20 DUP7 ADD PUSH2 0x1164 JUMP JUMPDEST DUP1 DUP5 ADD SWAP2 POP POP SWAP3 SWAP2 POP POP JUMP JUMPDEST PUSH1 0x0 DUP2 SWAP1 POP SWAP2 SWAP1 POP JUMP JUMPDEST PUSH2 0x17A8 PUSH2 0x17A3 DUP3 PUSH2 0xEA1 JUMP JUMPDEST PUSH2 0x178D JUMP JUMPDEST DUP3 MSTORE POP POP JUMP JUMPDEST PUSH1 0x0 PUSH2 0x17BA DUP3 DUP8 PUSH2 0x175C JUMP JUMPDEST SWAP2 POP PUSH2 0x17C6 DUP3 DUP7 PUSH2 0x1797 JUMP JUMPDEST PUSH1 0x20 DUP3 ADD SWAP2 POP PUSH2 0x17D6 DUP3 DUP6 PUSH2 0x175C JUMP JUMPDEST SWAP2 POP PUSH2 0x17E2 DUP3 DUP5 PUSH2 0x175C JUMP JUMPDEST SWAP2 POP DUP2 SWAP1 POP SWAP6 SWAP5 POP POP POP POP POP JUMP JUMPDEST PUSH1 0x0 PUSH2 0x17FC DUP3 DUP7 PUSH2 0x175C JUMP JUMPDEST SWAP2 POP PUSH2 0x1808 DUP3 DUP6 PUSH2 0x1797 JUMP JUMPDEST PUSH1 0x20 DUP3 ADD SWAP2 POP PUSH2 0x1818 DUP3 DUP5 PUSH2 0x175C JUMP JUMPDEST SWAP2 POP DUP2 SWAP1 POP SWAP5 SWAP4 POP POP POP POP JUMP JUMPDEST PUSH32 0x456974686572207175616C697479206F72207175616E746974792073686F756C PUSH1 0x0 DUP3 ADD MSTORE PUSH32 0x6420626520757064617465640000000000000000000000000000000000000000 PUSH1 0x20 DUP3 ADD MSTORE POP JUMP JUMPDEST PUSH1 0x0 PUSH2 0x1881 PUSH1 0x2C DUP4 PUSH2 0x16D4 JUMP JUMPDEST SWAP2 POP PUSH2 0x188C DUP3 PUSH2 0x1825 JUMP JUMPDEST PUSH1 0x40 DUP3 ADD SWAP1 POP SWAP2 SWAP1 POP JUMP JUMPDEST PUSH1 0x0 PUSH1 0x20 DUP3 ADD SWAP1 POP DUP2 DUP2 SUB PUSH1 0x0 DUP4 ADD MSTORE PUSH2 0x18B0 DUP2 PUSH2 0x1874 JUMP JUMPDEST SWAP1 POP SWAP2 SWAP1 POP JUMP JUMPDEST PUSH32 0x50726F647563742077697468206E6577207175616C69747920616E6420717561 PUSH1 0x0 DUP3 ADD MSTORE PUSH32 0x6E7469747920616C726561647920657869737473000000000000000000000000 PUSH1 0x20 DUP3 ADD MSTORE POP JUMP JUMPDEST PUSH1 0x0 PUSH2 0x1913 PUSH1 0x34 DUP4 PUSH2 0x16D4 JUMP JUMPDEST SWAP2 POP PUSH2 0x191E DUP3 PUSH2 0x18B7 JUMP JUMPDEST PUSH1 0x40 DUP3 ADD SWAP1 POP SWAP2 SWAP1 POP JUMP JUMPDEST PUSH1 0x0 PUSH1 0x20 DUP3 ADD SWAP1 POP DUP2 DUP2 SUB PUSH1 0x0 DUP4 ADD MSTORE PUSH2 0x1942 DUP2 PUSH2 0x1906 JUMP JUMPDEST SWAP1 POP SWAP2 SWAP1 POP JUMP JUMPDEST PUSH32 0x4E487B7100000000000000000000000000000000000000000000000000000000 PUSH1 0x0 MSTORE PUSH1 0x22 PUSH1 0x4 MSTORE PUSH1 0x24 PUSH1 0x0 REVERT JUMPDEST PUSH1 0x0 PUSH1 0x2 DUP3 DIV SWAP1 POP PUSH1 0x1 DUP3 AND DUP1 PUSH2 0x1990 JUMPI PUSH1 0x7F DUP3 AND SWAP2 POP JUMPDEST PUSH1 0x20 DUP3 LT DUP2 SUB PUSH2 0x19A3 JUMPI PUSH2 0x19A2 PUSH2 0x1949 JUMP JUMPDEST JUMPDEST POP SWAP2 SWAP1 POP JUMP JUMPDEST PUSH1 0x0 DUP2 SLOAD SWAP1 POP PUSH2 0x19B8 DUP2 PUSH2 0x1978 JUMP JUMPDEST SWAP1 POP SWAP2 SWAP1 POP JUMP JUMPDEST PUSH1 0x0 DUP2 SWAP1 POP DUP2 PUSH1 0x0 MSTORE PUSH1 0x20 PUSH1 0x0 KECCAK256 SWAP1 POP SWAP2 SWAP1 POP JUMP JUMPDEST PUSH1 0x0 DUP2 SWAP1 POP DUP2 PUSH1 0x0 MSTORE PUSH1 0x20 PUSH1 0x0 KECCAK256 SWAP1 POP SWAP2 SWAP1 POP JUMP JUMPDEST PUSH1 0x0 PUSH1 0x20 PUSH1 0x1F DUP4 ADD DIV SWAP1 POP SWAP2 SWAP1 POP JUMP JUMPDEST PUSH1 0x0 DUP3 DUP3 SHL SWAP1 POP SWAP3 SWAP2 POP POP JUMP JUMPDEST PUSH1 0x0 PUSH1 0x8 DUP4 MUL PUSH2 0x1A36 PUSH32 0xFFFFFFFFFFFFFFFFFFFFFFFFFFFFFFFFFFFFFFFFFFFFFFFFFFFFFFFFFFFFFFFF DUP3 PUSH2 0x19F9 JUMP JUMPDEST PUSH2 0x1A40 DUP7 DUP4 PUSH2 0x19F9 JUMP JUMPDEST SWAP6 POP DUP1 NOT DUP5 AND SWAP4 POP DUP1 DUP7 AND DUP5 OR SWAP3 POP POP POP SWAP4 SWAP3 POP POP POP JUMP JUMPDEST PUSH1 0x0 DUP2 SWAP1 POP SWAP2 SWAP1 POP JUMP JUMPDEST PUSH1 0x0 PUSH2 0x1A7D PUSH2 0x1A78 PUSH2 0x1A73 DUP5 PUSH2 0x112F JUMP JUMPDEST PUSH2 0x1A58 JUMP JUMPDEST PUSH2 0x112F JUMP JUMPDEST SWAP1 POP SWAP2 SWAP1 POP JUMP JUMPDEST PUSH1 0x0 DUP2 SWAP1 POP SWAP2 SWAP1 POP JUMP JUMPDEST PUSH2 0x1A97 DUP4 PUSH2 0x1A62 JUMP JUMPDEST PUSH2 0x1AAB PUSH2 0x1AA3 DUP3 PUSH2 0x1A84 JUMP JUMPDEST DUP5 DUP5 SLOAD PUSH2 0x1A06 JUMP JUMPDEST DUP3 SSTORE POP POP POP POP JUMP JUMPDEST PUSH1 0x0 SWAP1 JUMP JUMPDEST PUSH2 0x1AC0 PUSH2 0x1AB3 JUMP JUMPDEST PUSH2 0x1ACB DUP2 DUP5 DUP5 PUSH2 0x1A8E JUMP JUMPDEST POP POP POP JUMP JUMPDEST JUMPDEST DUP2 DUP2 LT ISZERO PUSH2 0x1AEF JUMPI PUSH2 0x1AE4 PUSH1 0x0 DUP3 PUSH2 0x1AB8 JUMP JUMPDEST PUSH1 0x1 DUP2 ADD SWAP1 POP PUSH2 0x1AD1 JUMP JUMPDEST POP POP JUMP JUMPDEST PUSH1 0x1F DUP3 GT ISZERO PUSH2 0x1B34 JUMPI PUSH2 0x1B05 DUP2 PUSH2 0x19BF JUMP JUMPDEST PUSH2 0x1B0E DUP5 PUSH2 0x19E9 JUMP JUMPDEST DUP2 ADD PUSH1 0x20 DUP6 LT ISZERO PUSH2 0x1B1D JUMPI DUP2 SWAP1 POP JUMPDEST PUSH2 0x1B31 PUSH2 0x1B29 DUP6 PUSH2 0x19E9 JUMP JUMPDEST DUP4 ADD DUP3 PUSH2 0x1AD0 JUMP JUMPDEST POP POP JUMPDEST POP POP POP JUMP JUMPDEST PUSH1 0x0 DUP3 DUP3 SHR SWAP1 POP SWAP3 SWAP2 POP POP JUMP JUMPDEST PUSH1 0x0 PUSH2 0x1B57 PUSH1 0x0 NOT DUP5 PUSH1 0x8 MUL PUSH2 0x1B39 JUMP JUMPDEST NOT DUP1 DUP4 AND SWAP2 POP POP SWAP3 SWAP2 POP POP JUMP JUMPDEST PUSH1 0x0 PUSH2 0x1B70 DUP4 DUP4 PUSH2 0x1B46 JUMP JUMPDEST SWAP2 POP DUP3 PUSH1 0x2 MUL DUP3 OR SWAP1 POP SWAP3 SWAP2 POP POP JUMP JUMPDEST DUP2 DUP2 SUB PUSH2 0x1B8E JUMPI POP POP PUSH2 0x1C66 JUMP JUMPDEST PUSH2 0x1B97 DUP3 PUSH2 0x19A9 JUMP JUMPDEST PUSH8 0xFFFFFFFFFFFFFFFF DUP2 GT ISZERO PUSH2 0x1BB0 JUMPI PUSH2 0x1BAF PUSH2 0xEF2 JUMP JUMPDEST JUMPDEST PUSH2 0x1BBA DUP3 SLOAD PUSH2 0x1978 JUMP JUMPDEST PUSH2 0x1BC5 DUP3 DUP3 DUP6 PUSH2 0x1AF3 JUMP JUMPDEST PUSH1 0x0 PUSH1 0x1F DUP4 GT PUSH1 0x1 DUP2 EQ PUSH2 0x1BF4 JUMPI PUSH1 0x0 DUP5 ISZERO PUSH2 0x1BE2 JUMPI DUP3 DUP8 ADD SLOAD SWAP1 POP JUMPDEST PUSH2 0x1BEC DUP6 DUP3 PUSH2 0x1B64 JUMP JUMPDEST DUP7 SSTORE POP PUSH2 0x1C5F JUMP JUMPDEST PUSH1 0x1F NOT DUP5 AND PUSH2 0x1C02 DUP8 PUSH2 0x19D4 JUMP JUMPDEST SWAP7 POP PUSH2 0x1C0D DUP7 PUSH2 0x19BF JUMP JUMPDEST PUSH1 0x0 JUMPDEST DUP3 DUP2 LT ISZERO PUSH2 0x1C35 JUMPI DUP5 DUP10 ADD SLOAD DUP3 SSTORE PUSH1 0x1 DUP3 ADD SWAP2 POP PUSH1 0x1 DUP6 ADD SWAP5 POP PUSH1 0x20 DUP2 ADD SWAP1 POP PUSH2 0x1C10 JUMP JUMPDEST DUP7 DUP4 LT ISZERO PUSH2 0x1C52 JUMPI DUP5 DUP10 ADD SLOAD PUSH2 0x1C4E PUSH1 0x1F DUP10 AND DUP3 PUSH2 0x1B46 JUMP JUMPDEST DUP4 SSTORE POP JUMPDEST PUSH1 0x1 PUSH1 0x2 DUP9 MUL ADD DUP9 SSTORE POP POP POP JUMPDEST POP POP POP POP POP POP JUMPDEST JUMP JUMPDEST PUSH2 0x1C71 DUP3 PUSH2 0x1148 JUMP JUMPDEST PUSH8 0xFFFFFFFFFFFFFFFF DUP2 GT ISZERO PUSH2 0x1C8A JUMPI PUSH2 0x1C89 PUSH2 0xEF2 JUMP JUMPDEST JUMPDEST PUSH2 0x1C94 DUP3 SLOAD PUSH2 0x1978 JUMP JUMPDEST PUSH2 0x1C9F DUP3 DUP3 DUP6 PUSH2 0x1AF3 JUMP JUMPDEST PUSH1 0x0 PUSH1 0x20 SWAP1 POP PUSH1 0x1F DUP4 GT PUSH1 0x1 DUP2 EQ PUSH2 0x1CD2 JUMPI PUSH1 0x0 DUP5 ISZERO PUSH2 0x1CC0 JUMPI DUP3 DUP8 ADD MLOAD SWAP1 POP JUMPDEST PUSH2 0x1CCA DUP6 DUP3 PUSH2 0x1B64 JUMP JUMPDEST DUP7 SSTORE POP PUSH2 0x1D32 JUMP JUMPDEST PUSH1 0x1F NOT DUP5 AND PUSH2 0x1CE0 DUP7 PUSH2 0x19BF JUMP JUMPDEST PUSH1 0x0 JUMPDEST DUP3 DUP2 LT ISZERO PUSH2 0x1D08 JUMPI DUP5 DUP10 ADD MLOAD DUP3 SSTORE PUSH1 0x1 DUP3 ADD SWAP2 POP PUSH1 0x20 DUP6 ADD SWAP5 POP PUSH1 0x20 DUP2 ADD SWAP1 POP PUSH2 0x1CE3 JUMP JUMPDEST DUP7 DUP4 LT ISZERO PUSH2 0x1D25 JUMPI DUP5 DUP10 ADD MLOAD PUSH2 0x1D21 PUSH1 0x1F DUP10 AND DUP3 PUSH2 0x1B46 JUMP JUMPDEST DUP4 SSTORE POP JUMPDEST PUSH1 0x1 PUSH1 0x2 DUP9 MUL ADD DUP9 SSTORE POP POP POP JUMPDEST POP POP POP POP POP POP JUMP JUMPDEST PUSH1 0x0 DUP2 SWAP1 POP SWAP2 SWAP1 POP JUMP JUMPDEST PUSH2 0x1D55 PUSH2 0x1D50 DUP3 PUSH2 0x112F JUMP JUMPDEST PUSH2 0x1D3A JUMP JUMPDEST DUP3 MSTORE POP POP JUMP JUMPDEST PUSH1 0x0 PUSH2 0x1D67 DUP3 DUP13 PUSH2 0x1D44 JUMP JUMPDEST PUSH1 0x20 DUP3 ADD SWAP2 POP PUSH2 0x1D77 DUP3 DUP12 PUSH2 0x175C JUMP JUMPDEST SWAP2 POP PUSH2 0x1D83 DUP3 DUP11 PUSH2 0x175C JUMP JUMPDEST SWAP2 POP PUSH2 0x1D8F DUP3 DUP10 PUSH2 0x175C JUMP JUMPDEST SWAP2 POP PUSH2 0x1D9B DUP3 DUP9 PUSH2 0x1D44 JUMP JUMPDEST PUSH1 0x20 DUP3 ADD SWAP2 POP PUSH2 0x1DAB DUP3 DUP8 PUSH2 0x175C JUMP JUMPDEST SWAP2 POP PUSH2 0x1DB7 DUP3 DUP7 PUSH2 0x175C JUMP JUMPDEST SWAP2 POP PUSH2 0x1DC3 DUP3 DUP6 PUSH2 0x175C JUMP JUMPDEST SWAP2 POP PUSH2 0x1DCF DUP3 DUP5 PUSH2 0x175C JUMP JUMPDEST SWAP2 POP DUP2 SWAP1 POP SWAP11 SWAP10 POP POP POP POP POP POP POP POP POP POP JUMP JUMPDEST PUSH32 0x50726F6475637420616C72656164792065786973747300000000000000000000 PUSH1 0x0 DUP3 ADD MSTORE POP JUMP JUMPDEST PUSH1 0x0 PUSH2 0x1E18 PUSH1 0x16 DUP4 PUSH2 0x16D4 JUMP JUMPDEST SWAP2 POP PUSH2 0x1E23 DUP3 PUSH2 0x1DE2 JUMP JUMPDEST PUSH1 0x20 DUP3 ADD SWAP1 POP SWAP2 SWAP1 POP JUMP JUMPDEST PUSH1 0x0 PUSH1 0x20 DUP3 ADD SWAP1 POP DUP2 DUP2 SUB PUSH1 0x0 DUP4 ADD MSTORE PUSH2 0x1E47 DUP2 PUSH2 0x1E0B JUMP JUMPDEST SWAP1 POP SWAP2 SWAP1 POP JUMP JUMPDEST PUSH1 0x0 DUP2 SLOAD SWAP1 POP PUSH2 0x1E5D DUP2 PUSH2 0x1978 JUMP JUMPDEST SWAP1 POP SWAP2 SWAP1 POP JUMP JUMPDEST DUP2 DUP2 SUB PUSH2 0x1E72 JUMPI POP POP PUSH2 0x1F4A JUMP JUMPDEST PUSH2 0x1E7B DUP3 PUSH2 0x1E4E JUMP JUMPDEST PUSH8 0xFFFFFFFFFFFFFFFF DUP2 GT ISZERO PUSH2 0x1E94 JUMPI PUSH2 0x1E93 PUSH2 0xEF2 JUMP JUMPDEST JUMPDEST PUSH2 0x1E9E DUP3 SLOAD PUSH2 0x1978 JUMP JUMPDEST PUSH2 0x1EA9 DUP3 DUP3 DUP6 PUSH2 0x1AF3 JUMP JUMPDEST PUSH1 0x0 PUSH1 0x1F DUP4 GT PUSH1 0x1 DUP2 EQ PUSH2 0x1ED8 JUMPI PUSH1 0x0 DUP5 ISZERO PUSH2 0x1EC6 JUMPI DUP3 DUP8 ADD SLOAD SWAP1 POP JUMPDEST PUSH2 0x1ED0 DUP6 DUP3 PUSH2 0x1B64 JUMP JUMPDEST DUP7 SSTORE POP PUSH2 0x1F43 JUMP JUMPDEST PUSH1 0x1F NOT DUP5 AND PUSH2 0x1EE6 DUP8 PUSH2 0x19BF JUMP JUMPDEST SWAP7 POP PUSH2 0x1EF1 DUP7 PUSH2 0x19BF JUMP JUMPDEST PUSH1 0x0 JUMPDEST DUP3 DUP2 LT ISZERO PUSH2 0x1F19 JUMPI DUP5 DUP10 ADD SLOAD DUP3 SSTORE PUSH1 0x1 DUP3 ADD SWAP2 POP PUSH1 0x1 DUP6 ADD SWAP5 POP PUSH1 0x20 DUP2 ADD SWAP1 POP PUSH2 0x1EF4 JUMP JUMPDEST DUP7 DUP4 LT ISZERO PUSH2 0x1F36 JUMPI DUP5 DUP10 ADD SLOAD PUSH2 0x1F32 PUSH1 0x1F DUP10 AND DUP3 PUSH2 0x1B46 JUMP JUMPDEST DUP4 SSTORE POP JUMPDEST PUSH1 0x1 PUSH1 0x2 DUP9 MUL ADD DUP9 SSTORE POP POP POP JUMPDEST POP POP POP POP POP POP JUMPDEST JUMP INVALID LOG2 PUSH5 0x6970667358 0x22 SLT KECCAK256 SDIV CHAINID DUP1 0xD5 DELEGATECALL 0xE7 0xD7 SWAP9 PUSH11 0x820DB52F7D17D888E7FD35 0xAA 0xDC SWAP13 PUSH9 0xA6FBFCA2CDFE2F6A64 PUSH20 0x6F6C634300081200330000000000000000000000 "
				},
				"gasEstimates": {
					"creation": {
						"codeDepositCost": "1613200",
						"executionCost": "1694",
						"totalCost": "1614894"
					},
					"external": {
						"addProduct(uint256,string,string,string,uint256,string,string,string,string,string[],string[])": "infinite",
						"getProductDetails(bytes32)": "infinite",
						"updateProductDetails(bytes32,string,string,string)": "infinite"
					}
				},
				"methodIdentifiers": {
					"addProduct(uint256,string,string,string,uint256,string,string,string,string,string[],string[])": "dbda06f9",
					"getProductDetails(bytes32)": "b74d3fb5",
					"updateProductDetails(bytes32,string,string,string)": "a5d8ad9f"
				}
			},
			"storageLayout": {
				"storage": [
					{
						"astId": 31,
						"contract": "contracts/traceability.sol:TraceabilityContract",
						"label": "products",
						"offset": 0,
						"slot": "0",
						"type": "t_mapping(t_bytes32,t_struct(ProductDetails)26_storage)"
					}
				],
				"types": {
					"t_array(t_string_storage)dyn_storage": {
						"base": "t_string_storage",
						"encoding": "dynamic_array",
						"label": "string[]",
						"numberOfBytes": "32"
					},
					"t_bytes32": {
						"encoding": "inplace",
						"label": "bytes32",
						"numberOfBytes": "32"
					},
					"t_mapping(t_bytes32,t_struct(ProductDetails)26_storage)": {
						"encoding": "mapping",
						"key": "t_bytes32",
						"label": "mapping(bytes32 => struct TraceabilityContract.ProductDetails)",
						"numberOfBytes": "32",
						"value": "t_struct(ProductDetails)26_storage"
					},
					"t_string_storage": {
						"encoding": "bytes",
						"label": "string",
						"numberOfBytes": "32"
					},
					"t_struct(ProductDetails)26_storage": {
						"encoding": "inplace",
						"label": "struct TraceabilityContract.ProductDetails",
						"members": [
							{
								"astId": 3,
								"contract": "contracts/traceability.sol:TraceabilityContract",
								"label": "contractID",
								"offset": 0,
								"slot": "0",
								"type": "t_uint256"
							},
							{
								"astId": 5,
								"contract": "contracts/traceability.sol:TraceabilityContract",
								"label": "productName",
								"offset": 0,
								"slot": "1",
								"type": "t_string_storage"
							},
							{
								"astId": 7,
								"contract": "contracts/traceability.sol:TraceabilityContract",
								"label": "quantity",
								"offset": 0,
								"slot": "2",
								"type": "t_string_storage"
							},
							{
								"astId": 9,
								"contract": "contracts/traceability.sol:TraceabilityContract",
								"label": "quality",
								"offset": 0,
								"slot": "3",
								"type": "t_string_storage"
							},
							{
								"astId": 11,
								"contract": "contracts/traceability.sol:TraceabilityContract",
								"label": "farmerId",
								"offset": 0,
								"slot": "4",
								"type": "t_uint256"
							},
							{
								"astId": 13,
								"contract": "contracts/traceability.sol:TraceabilityContract",
								"label": "farmerName",
								"offset": 0,
								"slot": "5",
								"type": "t_string_storage"
							},
							{
								"astId": 15,
								"contract": "contracts/traceability.sol:TraceabilityContract",
								"label": "pickupLocation",
								"offset": 0,
								"slot": "6",
								"type": "t_string_storage"
							},
							{
								"astId": 17,
								"contract": "contracts/traceability.sol:TraceabilityContract",
								"label": "deliveryAddress",
								"offset": 0,
								"slot": "7",
								"type": "t_string_storage"
							},
							{
								"astId": 19,
								"contract": "contracts/traceability.sol:TraceabilityContract",
								"label": "offTakerName",
								"offset": 0,
								"slot": "8",
								"type": "t_string_storage"
							},
							{
								"astId": 22,
								"contract": "contracts/traceability.sol:TraceabilityContract",
								"label": "bagNumbers",
								"offset": 0,
								"slot": "9",
								"type": "t_array(t_string_storage)dyn_storage"
							},
							{
								"astId": 25,
								"contract": "contracts/traceability.sol:TraceabilityContract",
								"label": "bagQuantities",
								"offset": 0,
								"slot": "10",
								"type": "t_array(t_string_storage)dyn_storage"
							}
						],
						"numberOfBytes": "352"
					},
					"t_uint256": {
						"encoding": "inplace",
						"label": "uint256",
						"numberOfBytes": "32"
					}
				}
			},
			"userdoc": {
				"kind": "user",
				"methods": {},
				"version": 1
			}
		}
	}
}