{
	"contracts/traceability.sol": {
		"TraceabilityContract": {
			"abi": [
				{
					"anonymous": false,
					"inputs": [
						{
							"indexed": true,
							"internalType": "bytes32",
							"name": "hashKey",
							"type": "bytes32"
						}
					],
					"name": "ProductAdded",
					"type": "event"
				},
				{
					"inputs": [
						{
							"internalType": "uint256",
							"name": "_productId",
							"type": "uint256"
						},
						{
							"internalType": "string",
							"name": "_productName",
							"type": "string"
						},
						{
							"internalType": "string",
							"name": "_quantity",
							"type": "string"
						},
						{
							"internalType": "string",
							"name": "_quality",
							"type": "string"
						},
						{
							"internalType": "uint256",
							"name": "_farmerId",
							"type": "uint256"
						},
						{
							"internalType": "string",
							"name": "_farmerName",
							"type": "string"
						},
						{
							"internalType": "string",
							"name": "_pickupLocation",
							"type": "string"
						},
						{
							"internalType": "string",
							"name": "_deliveryAddress",
							"type": "string"
						},
						{
							"internalType": "string",
							"name": "_offTakerName",
							"type": "string"
						},
						{
							"internalType": "string[]",
							"name": "_bagNumbers",
							"type": "string[]"
						},
						{
							"internalType": "string[]",
							"name": "_bagQuantities",
							"type": "string[]"
						}
					],
					"name": "addProduct",
					"outputs": [
						{
							"internalType": "bytes32",
							"name": "",
							"type": "bytes32"
						}
					],
					"stateMutability": "nonpayable",
					"type": "function"
				},
				{
					"inputs": [
						{
							"internalType": "bytes32",
							"name": "hashKey",
							"type": "bytes32"
						}
					],
					"name": "getProductDetails",
					"outputs": [
						{
							"components": [
								{
									"internalType": "uint256",
									"name": "productId",
									"type": "uint256"
								},
								{
									"internalType": "string",
									"name": "productName",
									"type": "string"
								},
								{
									"internalType": "string",
									"name": "quantity",
									"type": "string"
								},
								{
									"internalType": "string",
									"name": "quality",
									"type": "string"
								},
								{
									"internalType": "uint256",
									"name": "farmerId",
									"type": "uint256"
								},
								{
									"internalType": "string",
									"name": "farmerName",
									"type": "string"
								},
								{
									"internalType": "string",
									"name": "pickupLocation",
									"type": "string"
								},
								{
									"internalType": "string",
									"name": "deliveryAddress",
									"type": "string"
								},
								{
									"internalType": "string",
									"name": "offTakerName",
									"type": "string"
								},
								{
									"internalType": "string[]",
									"name": "bagNumbers",
									"type": "string[]"
								},
								{
									"internalType": "string[]",
									"name": "bagQuantities",
									"type": "string[]"
								}
							],
							"internalType": "struct TraceabilityContract.ProductDetails",
							"name": "",
							"type": "tuple"
						}
					],
					"stateMutability": "view",
					"type": "function"
				},
				{
					"inputs": [
						{
							"internalType": "bytes32",
							"name": "hashKey",
							"type": "bytes32"
						},
						{
							"internalType": "string",
							"name": "newQuantity",
							"type": "string"
						},
						{
							"internalType": "string",
							"name": "newQuality",
							"type": "string"
						}
					],
					"name": "updateProductDetails",
					"outputs": [],
					"stateMutability": "nonpayable",
					"type": "function"
				}
			],
			"devdoc": {
				"kind": "dev",
				"methods": {},
				"version": 1
			},
			"evm": {
				"assembly": "    /* \"contracts/traceability.sol\":60:2170  contract TraceabilityContract {... */\n  mstore(0x40, 0x80)\n  callvalue\n  dup1\n  iszero\n  tag_1\n  jumpi\n  0x00\n  dup1\n  revert\ntag_1:\n  pop\n  dataSize(sub_0)\n  dup1\n  dataOffset(sub_0)\n  0x00\n  codecopy\n  0x00\n  return\nstop\n\nsub_0: assembly {\n        /* \"contracts/traceability.sol\":60:2170  contract TraceabilityContract {... */\n      mstore(0x40, 0x80)\n      callvalue\n      dup1\n      iszero\n      tag_1\n      jumpi\n      0x00\n      dup1\n      revert\n    tag_1:\n      pop\n      jumpi(tag_2, lt(calldatasize, 0x04))\n      shr(0xe0, calldataload(0x00))\n      dup1\n      0xb4bc0b93\n      eq\n      tag_3\n      jumpi\n      dup1\n      0xb74d3fb5\n      eq\n      tag_4\n      jumpi\n      dup1\n      0xdbda06f9\n      eq\n      tag_5\n      jumpi\n    tag_2:\n      0x00\n      dup1\n      revert\n        /* \"contracts/traceability.sol\":1701:2028  function updateProductDetails(... */\n    tag_3:\n      tag_6\n      0x04\n      dup1\n      calldatasize\n      sub\n      dup2\n      add\n      swap1\n      tag_7\n      swap2\n      swap1\n      tag_8\n      jump\t// in\n    tag_7:\n      tag_9\n      jump\t// in\n    tag_6:\n      stop\n        /* \"contracts/traceability.sol\":2036:2167  function getProductDetails(bytes32 hashKey) public view returns (ProductDetails memory) {... */\n    tag_4:\n      tag_10\n      0x04\n      dup1\n      calldatasize\n      sub\n      dup2\n      add\n      swap1\n      tag_11\n      swap2\n      swap1\n      tag_12\n      jump\t// in\n    tag_11:\n      tag_13\n      jump\t// in\n    tag_10:\n      mload(0x40)\n      tag_14\n      swap2\n      swap1\n      tag_15\n      jump\t// in\n    tag_14:\n      mload(0x40)\n      dup1\n      swap2\n      sub\n      swap1\n      return\n        /* \"contracts/traceability.sol\":568:1693  function addProduct(... */\n    tag_5:\n      tag_16\n      0x04\n      dup1\n      calldatasize\n      sub\n      dup2\n      add\n      swap1\n      tag_17\n      swap2\n      swap1\n      tag_18\n      jump\t// in\n    tag_17:\n      tag_19\n      jump\t// in\n    tag_16:\n      mload(0x40)\n      tag_20\n      swap2\n      swap1\n      tag_21\n      jump\t// in\n    tag_20:\n      mload(0x40)\n      dup1\n      swap2\n      sub\n      swap1\n      return\n        /* \"contracts/traceability.sol\":1701:2028  function updateProductDetails(... */\n    tag_9:\n        /* \"contracts/traceability.sol\":1892:1893  0 */\n      0x00\n        /* \"contracts/traceability.sol\":1861:1869  products */\n      dup1\n        /* \"contracts/traceability.sol\":1861:1878  products[hashKey] */\n      0x00\n        /* \"contracts/traceability.sol\":1870:1877  hashKey */\n      dup6\n        /* \"contracts/traceability.sol\":1861:1878  products[hashKey] */\n      dup2\n      mstore\n      0x20\n      add\n      swap1\n      dup2\n      mstore\n      0x20\n      add\n      0x00\n      keccak256\n        /* \"contracts/traceability.sol\":1861:1888  products[hashKey].productId */\n      0x00\n      add\n      sload\n        /* \"contracts/traceability.sol\":1861:1893  products[hashKey].productId != 0 */\n      sub\n        /* \"contracts/traceability.sol\":1853:1920  require(products[hashKey].productId != 0, \"Product does not exist\") */\n      tag_23\n      jumpi\n      mload(0x40)\n      0x08c379a000000000000000000000000000000000000000000000000000000000\n      dup2\n      mstore\n      0x04\n      add\n      tag_24\n      swap1\n      tag_25\n      jump\t// in\n    tag_24:\n      mload(0x40)\n      dup1\n      swap2\n      sub\n      swap1\n      revert\n    tag_23:\n        /* \"contracts/traceability.sol\":1960:1971  newQuantity */\n      dup2\n        /* \"contracts/traceability.sol\":1931:1939  products */\n      0x00\n        /* \"contracts/traceability.sol\":1931:1948  products[hashKey] */\n      dup1\n        /* \"contracts/traceability.sol\":1940:1947  hashKey */\n      dup6\n        /* \"contracts/traceability.sol\":1931:1948  products[hashKey] */\n      dup2\n      mstore\n      0x20\n      add\n      swap1\n      dup2\n      mstore\n      0x20\n      add\n      0x00\n      keccak256\n        /* \"contracts/traceability.sol\":1931:1957  products[hashKey].quantity */\n      0x02\n      add\n        /* \"contracts/traceability.sol\":1931:1971  products[hashKey].quantity = newQuantity */\n      swap1\n      dup2\n      tag_26\n      swap2\n      swap1\n      tag_27\n      jump\t// in\n    tag_26:\n      pop\n        /* \"contracts/traceability.sol\":2010:2020  newQuality */\n      dup1\n        /* \"contracts/traceability.sol\":1982:1990  products */\n      0x00\n        /* \"contracts/traceability.sol\":1982:1999  products[hashKey] */\n      dup1\n        /* \"contracts/traceability.sol\":1991:1998  hashKey */\n      dup6\n        /* \"contracts/traceability.sol\":1982:1999  products[hashKey] */\n      dup2\n      mstore\n      0x20\n      add\n      swap1\n      dup2\n      mstore\n      0x20\n      add\n      0x00\n      keccak256\n        /* \"contracts/traceability.sol\":1982:2007  products[hashKey].quality */\n      0x03\n      add\n        /* \"contracts/traceability.sol\":1982:2020  products[hashKey].quality = newQuality */\n      swap1\n      dup2\n      tag_28\n      swap2\n      swap1\n      tag_27\n      jump\t// in\n    tag_28:\n      pop\n        /* \"contracts/traceability.sol\":1701:2028  function updateProductDetails(... */\n      pop\n      pop\n      pop\n      jump\t// out\n        /* \"contracts/traceability.sol\":2036:2167  function getProductDetails(bytes32 hashKey) public view returns (ProductDetails memory) {... */\n    tag_13:\n        /* \"contracts/traceability.sol\":2101:2122  ProductDetails memory */\n      tag_29\n      tag_30\n      jump\t// in\n    tag_29:\n        /* \"contracts/traceability.sol\":2142:2150  products */\n      0x00\n        /* \"contracts/traceability.sol\":2142:2159  products[hashKey] */\n      dup1\n        /* \"contracts/traceability.sol\":2151:2158  hashKey */\n      dup4\n        /* \"contracts/traceability.sol\":2142:2159  products[hashKey] */\n      dup2\n      mstore\n      0x20\n      add\n      swap1\n      dup2\n      mstore\n      0x20\n      add\n      0x00\n      keccak256\n        /* \"contracts/traceability.sol\":2135:2159  return products[hashKey] */\n      mload(0x40)\n      dup1\n      0x0160\n      add\n      0x40\n      mstore\n      swap1\n      dup2\n      0x00\n      dup3\n      add\n      sload\n      dup2\n      mstore\n      0x20\n      add\n      0x01\n      dup3\n      add\n      dup1\n      sload\n      tag_32\n      swap1\n      tag_33\n      jump\t// in\n    tag_32:\n      dup1\n      0x1f\n      add\n      0x20\n      dup1\n      swap2\n      div\n      mul\n      0x20\n      add\n      mload(0x40)\n      swap1\n      dup2\n      add\n      0x40\n      mstore\n      dup1\n      swap3\n      swap2\n      swap1\n      dup2\n      dup2\n      mstore\n      0x20\n      add\n      dup3\n      dup1\n      sload\n      tag_34\n      swap1\n      tag_33\n      jump\t// in\n    tag_34:\n      dup1\n      iszero\n      tag_35\n      jumpi\n      dup1\n      0x1f\n      lt\n      tag_36\n      jumpi\n      0x0100\n      dup1\n      dup4\n      sload\n      div\n      mul\n      dup4\n      mstore\n      swap2\n      0x20\n      add\n      swap2\n      jump(tag_35)\n    tag_36:\n      dup3\n      add\n      swap2\n      swap1\n      0x00\n      mstore\n      keccak256(0x00, 0x20)\n      swap1\n    tag_37:\n      dup2\n      sload\n      dup2\n      mstore\n      swap1\n      0x01\n      add\n      swap1\n      0x20\n      add\n      dup1\n      dup4\n      gt\n      tag_37\n      jumpi\n      dup3\n      swap1\n      sub\n      0x1f\n      and\n      dup3\n      add\n      swap2\n    tag_35:\n      pop\n      pop\n      pop\n      pop\n      pop\n      dup2\n      mstore\n      0x20\n      add\n      0x02\n      dup3\n      add\n      dup1\n      sload\n      tag_38\n      swap1\n      tag_33\n      jump\t// in\n    tag_38:\n      dup1\n      0x1f\n      add\n      0x20\n      dup1\n      swap2\n      div\n      mul\n      0x20\n      add\n      mload(0x40)\n      swap1\n      dup2\n      add\n      0x40\n      mstore\n      dup1\n      swap3\n      swap2\n      swap1\n      dup2\n      dup2\n      mstore\n      0x20\n      add\n      dup3\n      dup1\n      sload\n      tag_39\n      swap1\n      tag_33\n      jump\t// in\n    tag_39:\n      dup1\n      iszero\n      tag_40\n      jumpi\n      dup1\n      0x1f\n      lt\n      tag_41\n      jumpi\n      0x0100\n      dup1\n      dup4\n      sload\n      div\n      mul\n      dup4\n      mstore\n      swap2\n      0x20\n      add\n      swap2\n      jump(tag_40)\n    tag_41:\n      dup3\n      add\n      swap2\n      swap1\n      0x00\n      mstore\n      keccak256(0x00, 0x20)\n      swap1\n    tag_42:\n      dup2\n      sload\n      dup2\n      mstore\n      swap1\n      0x01\n      add\n      swap1\n      0x20\n      add\n      dup1\n      dup4\n      gt\n      tag_42\n      jumpi\n      dup3\n      swap1\n      sub\n      0x1f\n      and\n      dup3\n      add\n      swap2\n    tag_40:\n      pop\n      pop\n      pop\n      pop\n      pop\n      dup2\n      mstore\n      0x20\n      add\n      0x03\n      dup3\n      add\n      dup1\n      sload\n      tag_43\n      swap1\n      tag_33\n      jump\t// in\n    tag_43:\n      dup1\n      0x1f\n      add\n      0x20\n      dup1\n      swap2\n      div\n      mul\n      0x20\n      add\n      mload(0x40)\n      swap1\n      dup2\n      add\n      0x40\n      mstore\n      dup1\n      swap3\n      swap2\n      swap1\n      dup2\n      dup2\n      mstore\n      0x20\n      add\n      dup3\n      dup1\n      sload\n      tag_44\n      swap1\n      tag_33\n      jump\t// in\n    tag_44:\n      dup1\n      iszero\n      tag_45\n      jumpi\n      dup1\n      0x1f\n      lt\n      tag_46\n      jumpi\n      0x0100\n      dup1\n      dup4\n      sload\n      div\n      mul\n      dup4\n      mstore\n      swap2\n      0x20\n      add\n      swap2\n      jump(tag_45)\n    tag_46:\n      dup3\n      add\n      swap2\n      swap1\n      0x00\n      mstore\n      keccak256(0x00, 0x20)\n      swap1\n    tag_47:\n      dup2\n      sload\n      dup2\n      mstore\n      swap1\n      0x01\n      add\n      swap1\n      0x20\n      add\n      dup1\n      dup4\n      gt\n      tag_47\n      jumpi\n      dup3\n      swap1\n      sub\n      0x1f\n      and\n      dup3\n      add\n      swap2\n    tag_45:\n      pop\n      pop\n      pop\n      pop\n      pop\n      dup2\n      mstore\n      0x20\n      add\n      0x04\n      dup3\n      add\n      sload\n      dup2\n      mstore\n      0x20\n      add\n      0x05\n      dup3\n      add\n      dup1\n      sload\n      tag_48\n      swap1\n      tag_33\n      jump\t// in\n    tag_48:\n      dup1\n      0x1f\n      add\n      0x20\n      dup1\n      swap2\n      div\n      mul\n      0x20\n      add\n      mload(0x40)\n      swap1\n      dup2\n      add\n      0x40\n      mstore\n      dup1\n      swap3\n      swap2\n      swap1\n      dup2\n      dup2\n      mstore\n      0x20\n      add\n      dup3\n      dup1\n      sload\n      tag_49\n      swap1\n      tag_33\n      jump\t// in\n    tag_49:\n      dup1\n      iszero\n      tag_50\n      jumpi\n      dup1\n      0x1f\n      lt\n      tag_51\n      jumpi\n      0x0100\n      dup1\n      dup4\n      sload\n      div\n      mul\n      dup4\n      mstore\n      swap2\n      0x20\n      add\n      swap2\n      jump(tag_50)\n    tag_51:\n      dup3\n      add\n      swap2\n      swap1\n      0x00\n      mstore\n      keccak256(0x00, 0x20)\n      swap1\n    tag_52:\n      dup2\n      sload\n      dup2\n      mstore\n      swap1\n      0x01\n      add\n      swap1\n      0x20\n      add\n      dup1\n      dup4\n      gt\n      tag_52\n      jumpi\n      dup3\n      swap1\n      sub\n      0x1f\n      and\n      dup3\n      add\n      swap2\n    tag_50:\n      pop\n      pop\n      pop\n      pop\n      pop\n      dup2\n      mstore\n      0x20\n      add\n      0x06\n      dup3\n      add\n      dup1\n      sload\n      tag_53\n      swap1\n      tag_33\n      jump\t// in\n    tag_53:\n      dup1\n      0x1f\n      add\n      0x20\n      dup1\n      swap2\n      div\n      mul\n      0x20\n      add\n      mload(0x40)\n      swap1\n      dup2\n      add\n      0x40\n      mstore\n      dup1\n      swap3\n      swap2\n      swap1\n      dup2\n      dup2\n      mstore\n      0x20\n      add\n      dup3\n      dup1\n      sload\n      tag_54\n      swap1\n      tag_33\n      jump\t// in\n    tag_54:\n      dup1\n      iszero\n      tag_55\n      jumpi\n      dup1\n      0x1f\n      lt\n      tag_56\n      jumpi\n      0x0100\n      dup1\n      dup4\n      sload\n      div\n      mul\n      dup4\n      mstore\n      swap2\n      0x20\n      add\n      swap2\n      jump(tag_55)\n    tag_56:\n      dup3\n      add\n      swap2\n      swap1\n      0x00\n      mstore\n      keccak256(0x00, 0x20)\n      swap1\n    tag_57:\n      dup2\n      sload\n      dup2\n      mstore\n      swap1\n      0x01\n      add\n      swap1\n      0x20\n      add\n      dup1\n      dup4\n      gt\n      tag_57\n      jumpi\n      dup3\n      swap1\n      sub\n      0x1f\n      and\n      dup3\n      add\n      swap2\n    tag_55:\n      pop\n      pop\n      pop\n      pop\n      pop\n      dup2\n      mstore\n      0x20\n      add\n      0x07\n      dup3\n      add\n      dup1\n      sload\n      tag_58\n      swap1\n      tag_33\n      jump\t// in\n    tag_58:\n      dup1\n      0x1f\n      add\n      0x20\n      dup1\n      swap2\n      div\n      mul\n      0x20\n      add\n      mload(0x40)\n      swap1\n      dup2\n      add\n      0x40\n      mstore\n      dup1\n      swap3\n      swap2\n      swap1\n      dup2\n      dup2\n      mstore\n      0x20\n      add\n      dup3\n      dup1\n      sload\n      tag_59\n      swap1\n      tag_33\n      jump\t// in\n    tag_59:\n      dup1\n      iszero\n      tag_60\n      jumpi\n      dup1\n      0x1f\n      lt\n      tag_61\n      jumpi\n      0x0100\n      dup1\n      dup4\n      sload\n      div\n      mul\n      dup4\n      mstore\n      swap2\n      0x20\n      add\n      swap2\n      jump(tag_60)\n    tag_61:\n      dup3\n      add\n      swap2\n      swap1\n      0x00\n      mstore\n      keccak256(0x00, 0x20)\n      swap1\n    tag_62:\n      dup2\n      sload\n      dup2\n      mstore\n      swap1\n      0x01\n      add\n      swap1\n      0x20\n      add\n      dup1\n      dup4\n      gt\n      tag_62\n      jumpi\n      dup3\n      swap1\n      sub\n      0x1f\n      and\n      dup3\n      add\n      swap2\n    tag_60:\n      pop\n      pop\n      pop\n      pop\n      pop\n      dup2\n      mstore\n      0x20\n      add\n      0x08\n      dup3\n      add\n      dup1\n      sload\n      tag_63\n      swap1\n      tag_33\n      jump\t// in\n    tag_63:\n      dup1\n      0x1f\n      add\n      0x20\n      dup1\n      swap2\n      div\n      mul\n      0x20\n      add\n      mload(0x40)\n      swap1\n      dup2\n      add\n      0x40\n      mstore\n      dup1\n      swap3\n      swap2\n      swap1\n      dup2\n      dup2\n      mstore\n      0x20\n      add\n      dup3\n      dup1\n      sload\n      tag_64\n      swap1\n      tag_33\n      jump\t// in\n    tag_64:\n      dup1\n      iszero\n      tag_65\n      jumpi\n      dup1\n      0x1f\n      lt\n      tag_66\n      jumpi\n      0x0100\n      dup1\n      dup4\n      sload\n      div\n      mul\n      dup4\n      mstore\n      swap2\n      0x20\n      add\n      swap2\n      jump(tag_65)\n    tag_66:\n      dup3\n      add\n      swap2\n      swap1\n      0x00\n      mstore\n      keccak256(0x00, 0x20)\n      swap1\n    tag_67:\n      dup2\n      sload\n      dup2\n      mstore\n      swap1\n      0x01\n      add\n      swap1\n      0x20\n      add\n      dup1\n      dup4\n      gt\n      tag_67\n      jumpi\n      dup3\n      swap1\n      sub\n      0x1f\n      and\n      dup3\n      add\n      swap2\n    tag_65:\n      pop\n      pop\n      pop\n      pop\n      pop\n      dup2\n      mstore\n      0x20\n      add\n      0x09\n      dup3\n      add\n      dup1\n      sload\n      dup1\n      0x20\n      mul\n      0x20\n      add\n      mload(0x40)\n      swap1\n      dup2\n      add\n      0x40\n      mstore\n      dup1\n      swap3\n      swap2\n      swap1\n      dup2\n      dup2\n      mstore\n      0x20\n      add\n      0x00\n      swap1\n    tag_68:\n      dup3\n      dup3\n      lt\n      iszero\n      tag_69\n      jumpi\n      dup4\n      dup3\n      swap1\n      0x00\n      mstore\n      keccak256(0x00, 0x20)\n      add\n      dup1\n      sload\n      tag_71\n      swap1\n      tag_33\n      jump\t// in\n    tag_71:\n      dup1\n      0x1f\n      add\n      0x20\n      dup1\n      swap2\n      div\n      mul\n      0x20\n      add\n      mload(0x40)\n      swap1\n      dup2\n      add\n      0x40\n      mstore\n      dup1\n      swap3\n      swap2\n      swap1\n      dup2\n      dup2\n      mstore\n      0x20\n      add\n      dup3\n      dup1\n      sload\n      tag_72\n      swap1\n      tag_33\n      jump\t// in\n    tag_72:\n      dup1\n      iszero\n      tag_73\n      jumpi\n      dup1\n      0x1f\n      lt\n      tag_74\n      jumpi\n      0x0100\n      dup1\n      dup4\n      sload\n      div\n      mul\n      dup4\n      mstore\n      swap2\n      0x20\n      add\n      swap2\n      jump(tag_73)\n    tag_74:\n      dup3\n      add\n      swap2\n      swap1\n      0x00\n      mstore\n      keccak256(0x00, 0x20)\n      swap1\n    tag_75:\n      dup2\n      sload\n      dup2\n      mstore\n      swap1\n      0x01\n      add\n      swap1\n      0x20\n      add\n      dup1\n      dup4\n      gt\n      tag_75\n      jumpi\n      dup3\n      swap1\n      sub\n      0x1f\n      and\n      dup3\n      add\n      swap2\n    tag_73:\n      pop\n      pop\n      pop\n      pop\n      pop\n      dup2\n      mstore\n      0x20\n      add\n      swap1\n      0x01\n      add\n      swap1\n      jump(tag_68)\n    tag_69:\n      pop\n      pop\n      pop\n      pop\n      dup2\n      mstore\n      0x20\n      add\n      0x0a\n      dup3\n      add\n      dup1\n      sload\n      dup1\n      0x20\n      mul\n      0x20\n      add\n      mload(0x40)\n      swap1\n      dup2\n      add\n      0x40\n      mstore\n      dup1\n      swap3\n      swap2\n      swap1\n      dup2\n      dup2\n      mstore\n      0x20\n      add\n      0x00\n      swap1\n    tag_76:\n      dup3\n      dup3\n      lt\n      iszero\n      tag_77\n      jumpi\n      dup4\n      dup3\n      swap1\n      0x00\n      mstore\n      keccak256(0x00, 0x20)\n      add\n      dup1\n      sload\n      tag_79\n      swap1\n      tag_33\n      jump\t// in\n    tag_79:\n      dup1\n      0x1f\n      add\n      0x20\n      dup1\n      swap2\n      div\n      mul\n      0x20\n      add\n      mload(0x40)\n      swap1\n      dup2\n      add\n      0x40\n      mstore\n      dup1\n      swap3\n      swap2\n      swap1\n      dup2\n      dup2\n      mstore\n      0x20\n      add\n      dup3\n      dup1\n      sload\n      tag_80\n      swap1\n      tag_33\n      jump\t// in\n    tag_80:\n      dup1\n      iszero\n      tag_81\n      jumpi\n      dup1\n      0x1f\n      lt\n      tag_82\n      jumpi\n      0x0100\n      dup1\n      dup4\n      sload\n      div\n      mul\n      dup4\n      mstore\n      swap2\n      0x20\n      add\n      swap2\n      jump(tag_81)\n    tag_82:\n      dup3\n      add\n      swap2\n      swap1\n      0x00\n      mstore\n      keccak256(0x00, 0x20)\n      swap1\n    tag_83:\n      dup2\n      sload\n      dup2\n      mstore\n      swap1\n      0x01\n      add\n      swap1\n      0x20\n      add\n      dup1\n      dup4\n      gt\n      tag_83\n      jumpi\n      dup3\n      swap1\n      sub\n      0x1f\n      and\n      dup3\n      add\n      swap2\n    tag_81:\n      pop\n      pop\n      pop\n      pop\n      pop\n      dup2\n      mstore\n      0x20\n      add\n      swap1\n      0x01\n      add\n      swap1\n      jump(tag_76)\n    tag_77:\n      pop\n      pop\n      pop\n      pop\n      dup2\n      mstore\n      pop\n      pop\n      swap1\n      pop\n        /* \"contracts/traceability.sol\":2036:2167  function getProductDetails(bytes32 hashKey) public view returns (ProductDetails memory) {... */\n      swap2\n      swap1\n      pop\n      jump\t// out\n        /* \"contracts/traceability.sol\":568:1693  function addProduct(... */\n    tag_19:\n        /* \"contracts/traceability.sol\":1006:1013  bytes32 */\n      0x00\n        /* \"contracts/traceability.sol\":1026:1041  bytes32 hashKey */\n      dup1\n        /* \"contracts/traceability.sol\":1071:1081  _productId */\n      dup13\n        /* \"contracts/traceability.sol\":1083:1095  _productName */\n      dup13\n        /* \"contracts/traceability.sol\":1097:1106  _quantity */\n      dup13\n        /* \"contracts/traceability.sol\":1108:1116  _quality */\n      dup13\n        /* \"contracts/traceability.sol\":1118:1127  _farmerId */\n      dup13\n        /* \"contracts/traceability.sol\":1129:1140  _farmerName */\n      dup13\n        /* \"contracts/traceability.sol\":1142:1157  _pickupLocation */\n      dup13\n        /* \"contracts/traceability.sol\":1159:1175  _deliveryAddress */\n      dup13\n        /* \"contracts/traceability.sol\":1177:1190  _offTakerName */\n      dup13\n        /* \"contracts/traceability.sol\":1054:1191  abi.encodePacked(_productId, _productName, _quantity, _quality, _farmerId, _farmerName, _pickupLocation, _deliveryAddress, _offTakerName) */\n      add(0x20, mload(0x40))\n      tag_85\n      swap10\n      swap9\n      swap8\n      swap7\n      swap6\n      swap5\n      swap4\n      swap3\n      swap2\n      swap1\n      tag_86\n      jump\t// in\n    tag_85:\n      mload(0x40)\n      0x20\n      dup2\n      dup4\n      sub\n      sub\n      dup2\n      mstore\n      swap1\n      0x40\n      mstore\n        /* \"contracts/traceability.sol\":1044:1192  keccak256(abi.encodePacked(_productId, _productName, _quantity, _quality, _farmerId, _farmerName, _pickupLocation, _deliveryAddress, _offTakerName)) */\n      dup1\n      mload\n      swap1\n      0x20\n      add\n      keccak256\n        /* \"contracts/traceability.sol\":1026:1192  bytes32 hashKey = keccak256(abi.encodePacked(_productId, _productName, _quantity, _quality, _farmerId, _farmerName, _pickupLocation, _deliveryAddress, _offTakerName)) */\n      swap1\n      pop\n        /* \"contracts/traceability.sol\":1242:1243  0 */\n      0x00\n        /* \"contracts/traceability.sol\":1211:1219  products */\n      dup1\n        /* \"contracts/traceability.sol\":1211:1228  products[hashKey] */\n      0x00\n        /* \"contracts/traceability.sol\":1220:1227  hashKey */\n      dup4\n        /* \"contracts/traceability.sol\":1211:1228  products[hashKey] */\n      dup2\n      mstore\n      0x20\n      add\n      swap1\n      dup2\n      mstore\n      0x20\n      add\n      0x00\n      keccak256\n        /* \"contracts/traceability.sol\":1211:1238  products[hashKey].productId */\n      0x00\n      add\n      sload\n        /* \"contracts/traceability.sol\":1211:1243  products[hashKey].productId == 0 */\n      eq\n        /* \"contracts/traceability.sol\":1203:1270  require(products[hashKey].productId == 0, \"Product already exists\") */\n      tag_87\n      jumpi\n      mload(0x40)\n      0x08c379a000000000000000000000000000000000000000000000000000000000\n      dup2\n      mstore\n      0x04\n      add\n      tag_88\n      swap1\n      tag_89\n      jump\t// in\n    tag_88:\n      mload(0x40)\n      dup1\n      swap2\n      sub\n      swap1\n      revert\n    tag_87:\n        /* \"contracts/traceability.sol\":1303:1621  ProductDetails(... */\n      mload(0x40)\n      dup1\n      0x0160\n      add\n      0x40\n      mstore\n      dup1\n        /* \"contracts/traceability.sol\":1332:1342  _productId */\n      dup15\n        /* \"contracts/traceability.sol\":1303:1621  ProductDetails(... */\n      dup2\n      mstore\n      0x20\n      add\n        /* \"contracts/traceability.sol\":1357:1369  _productName */\n      dup14\n        /* \"contracts/traceability.sol\":1303:1621  ProductDetails(... */\n      dup2\n      mstore\n      0x20\n      add\n        /* \"contracts/traceability.sol\":1384:1393  _quantity */\n      dup13\n        /* \"contracts/traceability.sol\":1303:1621  ProductDetails(... */\n      dup2\n      mstore\n      0x20\n      add\n        /* \"contracts/traceability.sol\":1408:1416  _quality */\n      dup12\n        /* \"contracts/traceability.sol\":1303:1621  ProductDetails(... */\n      dup2\n      mstore\n      0x20\n      add\n        /* \"contracts/traceability.sol\":1431:1440  _farmerId */\n      dup11\n        /* \"contracts/traceability.sol\":1303:1621  ProductDetails(... */\n      dup2\n      mstore\n      0x20\n      add\n        /* \"contracts/traceability.sol\":1455:1466  _farmerName */\n      dup10\n        /* \"contracts/traceability.sol\":1303:1621  ProductDetails(... */\n      dup2\n      mstore\n      0x20\n      add\n        /* \"contracts/traceability.sol\":1481:1496  _pickupLocation */\n      dup9\n        /* \"contracts/traceability.sol\":1303:1621  ProductDetails(... */\n      dup2\n      mstore\n      0x20\n      add\n        /* \"contracts/traceability.sol\":1511:1527  _deliveryAddress */\n      dup8\n        /* \"contracts/traceability.sol\":1303:1621  ProductDetails(... */\n      dup2\n      mstore\n      0x20\n      add\n        /* \"contracts/traceability.sol\":1542:1555  _offTakerName */\n      dup7\n        /* \"contracts/traceability.sol\":1303:1621  ProductDetails(... */\n      dup2\n      mstore\n      0x20\n      add\n        /* \"contracts/traceability.sol\":1570:1581  _bagNumbers */\n      dup6\n        /* \"contracts/traceability.sol\":1303:1621  ProductDetails(... */\n      dup2\n      mstore\n      0x20\n      add\n        /* \"contracts/traceability.sol\":1596:1610  _bagQuantities */\n      dup5\n        /* \"contracts/traceability.sol\":1303:1621  ProductDetails(... */\n      dup2\n      mstore\n      pop\n        /* \"contracts/traceability.sol\":1283:1291  products */\n      0x00\n        /* \"contracts/traceability.sol\":1283:1300  products[hashKey] */\n      dup1\n        /* \"contracts/traceability.sol\":1292:1299  hashKey */\n      dup4\n        /* \"contracts/traceability.sol\":1283:1300  products[hashKey] */\n      dup2\n      mstore\n      0x20\n      add\n      swap1\n      dup2\n      mstore\n      0x20\n      add\n      0x00\n      keccak256\n        /* \"contracts/traceability.sol\":1283:1621  products[hashKey] = ProductDetails(... */\n      0x00\n      dup3\n      add\n      mload\n      dup2\n      0x00\n      add\n      sstore\n      0x20\n      dup3\n      add\n      mload\n      dup2\n      0x01\n      add\n      swap1\n      dup2\n      tag_90\n      swap2\n      swap1\n      tag_27\n      jump\t// in\n    tag_90:\n      pop\n      0x40\n      dup3\n      add\n      mload\n      dup2\n      0x02\n      add\n      swap1\n      dup2\n      tag_91\n      swap2\n      swap1\n      tag_27\n      jump\t// in\n    tag_91:\n      pop\n      0x60\n      dup3\n      add\n      mload\n      dup2\n      0x03\n      add\n      swap1\n      dup2\n      tag_92\n      swap2\n      swap1\n      tag_27\n      jump\t// in\n    tag_92:\n      pop\n      0x80\n      dup3\n      add\n      mload\n      dup2\n      0x04\n      add\n      sstore\n      0xa0\n      dup3\n      add\n      mload\n      dup2\n      0x05\n      add\n      swap1\n      dup2\n      tag_93\n      swap2\n      swap1\n      tag_27\n      jump\t// in\n    tag_93:\n      pop\n      0xc0\n      dup3\n      add\n      mload\n      dup2\n      0x06\n      add\n      swap1\n      dup2\n      tag_94\n      swap2\n      swap1\n      tag_27\n      jump\t// in\n    tag_94:\n      pop\n      0xe0\n      dup3\n      add\n      mload\n      dup2\n      0x07\n      add\n      swap1\n      dup2\n      tag_95\n      swap2\n      swap1\n      tag_27\n      jump\t// in\n    tag_95:\n      pop\n      0x0100\n      dup3\n      add\n      mload\n      dup2\n      0x08\n      add\n      swap1\n      dup2\n      tag_96\n      swap2\n      swap1\n      tag_27\n      jump\t// in\n    tag_96:\n      pop\n      0x0120\n      dup3\n      add\n      mload\n      dup2\n      0x09\n      add\n      swap1\n      dup1\n      mload\n      swap1\n      0x20\n      add\n      swap1\n      tag_97\n      swap3\n      swap2\n      swap1\n      tag_98\n      jump\t// in\n    tag_97:\n      pop\n      0x0140\n      dup3\n      add\n      mload\n      dup2\n      0x0a\n      add\n      swap1\n      dup1\n      mload\n      swap1\n      0x20\n      add\n      swap1\n      tag_99\n      swap3\n      swap2\n      swap1\n      tag_98\n      jump\t// in\n    tag_99:\n      pop\n      swap1\n      pop\n      pop\n        /* \"contracts/traceability.sol\":1652:1659  hashKey */\n      dup1\n        /* \"contracts/traceability.sol\":1639:1660  ProductAdded(hashKey) */\n      0x6c2de183f2a2faf4876f357e3c75bf6e6e7aa4dd120e8b5e1bdb2901e085f69c\n      mload(0x40)\n      mload(0x40)\n      dup1\n      swap2\n      sub\n      swap1\n      log2\n        /* \"contracts/traceability.sol\":1678:1685  hashKey */\n      dup1\n        /* \"contracts/traceability.sol\":1671:1685  return hashKey */\n      swap2\n      pop\n      pop\n        /* \"contracts/traceability.sol\":568:1693  function addProduct(... */\n      swap12\n      swap11\n      pop\n      pop\n      pop\n      pop\n      pop\n      pop\n      pop\n      pop\n      pop\n      pop\n      pop\n      jump\t// out\n    tag_30:\n      mload(0x40)\n      dup1\n      0x0160\n      add\n      0x40\n      mstore\n      dup1\n      0x00\n      dup2\n      mstore\n      0x20\n      add\n      0x60\n      dup2\n      mstore\n      0x20\n      add\n      0x60\n      dup2\n      mstore\n      0x20\n      add\n      0x60\n      dup2\n      mstore\n      0x20\n      add\n      0x00\n      dup2\n      mstore\n      0x20\n      add\n      0x60\n      dup2\n      mstore\n      0x20\n      add\n      0x60\n      dup2\n      mstore\n      0x20\n      add\n      0x60\n      dup2\n      mstore\n      0x20\n      add\n      0x60\n      dup2\n      mstore\n      0x20\n      add\n      0x60\n      dup2\n      mstore\n      0x20\n      add\n      0x60\n      dup2\n      mstore\n      pop\n      swap1\n      jump\t// out\n    tag_98:\n      dup3\n      dup1\n      sload\n      dup3\n      dup3\n      sstore\n      swap1\n      0x00\n      mstore\n      keccak256(0x00, 0x20)\n      swap1\n      dup2\n      add\n      swap3\n      dup3\n      iszero\n      tag_100\n      jumpi\n      swap2\n      0x20\n      mul\n      dup3\n      add\n    tag_101:\n      dup3\n      dup2\n      gt\n      iszero\n      tag_102\n      jumpi\n      dup3\n      mload\n      dup3\n      swap1\n      dup2\n      tag_103\n      swap2\n      swap1\n      tag_27\n      jump\t// in\n    tag_103:\n      pop\n      swap2\n      0x20\n      add\n      swap2\n      swap1\n      0x01\n      add\n      swap1\n      jump(tag_101)\n    tag_102:\n    tag_100:\n      pop\n      swap1\n      pop\n      tag_104\n      swap2\n      swap1\n      tag_105\n      jump\t// in\n    tag_104:\n      pop\n      swap1\n      jump\t// out\n    tag_105:\n    tag_106:\n      dup1\n      dup3\n      gt\n      iszero\n      tag_107\n      jumpi\n      0x00\n      dup2\n      dup2\n      tag_108\n      swap2\n      swap1\n      tag_109\n      jump\t// in\n    tag_108:\n      pop\n      0x01\n      add\n      jump(tag_106)\n    tag_107:\n      pop\n      swap1\n      jump\t// out\n    tag_109:\n      pop\n      dup1\n      sload\n      tag_110\n      swap1\n      tag_33\n      jump\t// in\n    tag_110:\n      0x00\n      dup3\n      sstore\n      dup1\n      0x1f\n      lt\n      tag_112\n      jumpi\n      pop\n      jump(tag_111)\n    tag_112:\n      0x1f\n      add\n      0x20\n      swap1\n      div\n      swap1\n      0x00\n      mstore\n      keccak256(0x00, 0x20)\n      swap1\n      dup2\n      add\n      swap1\n      tag_113\n      swap2\n      swap1\n      tag_114\n      jump\t// in\n    tag_113:\n    tag_111:\n      pop\n      jump\t// out\n    tag_114:\n    tag_115:\n      dup1\n      dup3\n      gt\n      iszero\n      tag_116\n      jumpi\n      0x00\n      dup2\n      0x00\n      swap1\n      sstore\n      pop\n      0x01\n      add\n      jump(tag_115)\n    tag_116:\n      pop\n      swap1\n      jump\t// out\n        /* \"#utility.yul\":7:82   */\n    tag_117:\n        /* \"#utility.yul\":40:46   */\n      0x00\n        /* \"#utility.yul\":73:75   */\n      0x40\n        /* \"#utility.yul\":67:76   */\n      mload\n        /* \"#utility.yul\":57:76   */\n      swap1\n      pop\n        /* \"#utility.yul\":7:82   */\n      swap1\n      jump\t// out\n        /* \"#utility.yul\":88:205   */\n    tag_118:\n        /* \"#utility.yul\":197:198   */\n      0x00\n        /* \"#utility.yul\":194:195   */\n      dup1\n        /* \"#utility.yul\":187:199   */\n      revert\n        /* \"#utility.yul\":211:328   */\n    tag_119:\n        /* \"#utility.yul\":320:321   */\n      0x00\n        /* \"#utility.yul\":317:318   */\n      dup1\n        /* \"#utility.yul\":310:322   */\n      revert\n        /* \"#utility.yul\":334:411   */\n    tag_120:\n        /* \"#utility.yul\":371:378   */\n      0x00\n        /* \"#utility.yul\":400:405   */\n      dup2\n        /* \"#utility.yul\":389:405   */\n      swap1\n      pop\n        /* \"#utility.yul\":334:411   */\n      swap2\n      swap1\n      pop\n      jump\t// out\n        /* \"#utility.yul\":417:539   */\n    tag_121:\n        /* \"#utility.yul\":490:514   */\n      tag_184\n        /* \"#utility.yul\":508:513   */\n      dup2\n        /* \"#utility.yul\":490:514   */\n      tag_120\n      jump\t// in\n    tag_184:\n        /* \"#utility.yul\":483:488   */\n      dup2\n        /* \"#utility.yul\":480:515   */\n      eq\n        /* \"#utility.yul\":470:533   */\n      tag_185\n      jumpi\n        /* \"#utility.yul\":529:530   */\n      0x00\n        /* \"#utility.yul\":526:527   */\n      dup1\n        /* \"#utility.yul\":519:531   */\n      revert\n        /* \"#utility.yul\":470:533   */\n    tag_185:\n        /* \"#utility.yul\":417:539   */\n      pop\n      jump\t// out\n        /* \"#utility.yul\":545:684   */\n    tag_122:\n        /* \"#utility.yul\":591:596   */\n      0x00\n        /* \"#utility.yul\":629:635   */\n      dup2\n        /* \"#utility.yul\":616:636   */\n      calldataload\n        /* \"#utility.yul\":607:636   */\n      swap1\n      pop\n        /* \"#utility.yul\":645:678   */\n      tag_187\n        /* \"#utility.yul\":672:677   */\n      dup2\n        /* \"#utility.yul\":645:678   */\n      tag_121\n      jump\t// in\n    tag_187:\n        /* \"#utility.yul\":545:684   */\n      swap3\n      swap2\n      pop\n      pop\n      jump\t// out\n        /* \"#utility.yul\":690:807   */\n    tag_123:\n        /* \"#utility.yul\":799:800   */\n      0x00\n        /* \"#utility.yul\":796:797   */\n      dup1\n        /* \"#utility.yul\":789:801   */\n      revert\n        /* \"#utility.yul\":813:930   */\n    tag_124:\n        /* \"#utility.yul\":922:923   */\n      0x00\n        /* \"#utility.yul\":919:920   */\n      dup1\n        /* \"#utility.yul\":912:924   */\n      revert\n        /* \"#utility.yul\":936:1038   */\n    tag_125:\n        /* \"#utility.yul\":977:983   */\n      0x00\n        /* \"#utility.yul\":1028:1030   */\n      0x1f\n        /* \"#utility.yul\":1024:1031   */\n      not\n        /* \"#utility.yul\":1019:1021   */\n      0x1f\n        /* \"#utility.yul\":1012:1017   */\n      dup4\n        /* \"#utility.yul\":1008:1022   */\n      add\n        /* \"#utility.yul\":1004:1032   */\n      and\n        /* \"#utility.yul\":994:1032   */\n      swap1\n      pop\n        /* \"#utility.yul\":936:1038   */\n      swap2\n      swap1\n      pop\n      jump\t// out\n        /* \"#utility.yul\":1044:1224   */\n    tag_126:\n        /* \"#utility.yul\":1092:1169   */\n      0x4e487b7100000000000000000000000000000000000000000000000000000000\n        /* \"#utility.yul\":1089:1090   */\n      0x00\n        /* \"#utility.yul\":1082:1170   */\n      mstore\n        /* \"#utility.yul\":1189:1193   */\n      0x41\n        /* \"#utility.yul\":1186:1187   */\n      0x04\n        /* \"#utility.yul\":1179:1194   */\n      mstore\n        /* \"#utility.yul\":1213:1217   */\n      0x24\n        /* \"#utility.yul\":1210:1211   */\n      0x00\n        /* \"#utility.yul\":1203:1218   */\n      revert\n        /* \"#utility.yul\":1230:1511   */\n    tag_127:\n        /* \"#utility.yul\":1313:1340   */\n      tag_193\n        /* \"#utility.yul\":1335:1339   */\n      dup3\n        /* \"#utility.yul\":1313:1340   */\n      tag_125\n      jump\t// in\n    tag_193:\n        /* \"#utility.yul\":1305:1311   */\n      dup2\n        /* \"#utility.yul\":1301:1341   */\n      add\n        /* \"#utility.yul\":1443:1449   */\n      dup2\n        /* \"#utility.yul\":1431:1441   */\n      dup2\n        /* \"#utility.yul\":1428:1450   */\n      lt\n        /* \"#utility.yul\":1407:1425   */\n      0xffffffffffffffff\n        /* \"#utility.yul\":1395:1405   */\n      dup3\n        /* \"#utility.yul\":1392:1426   */\n      gt\n        /* \"#utility.yul\":1389:1451   */\n      or\n        /* \"#utility.yul\":1386:1474   */\n      iszero\n      tag_194\n      jumpi\n        /* \"#utility.yul\":1454:1472   */\n      tag_195\n      tag_126\n      jump\t// in\n    tag_195:\n        /* \"#utility.yul\":1386:1474   */\n    tag_194:\n        /* \"#utility.yul\":1494:1504   */\n      dup1\n        /* \"#utility.yul\":1490:1492   */\n      0x40\n        /* \"#utility.yul\":1483:1505   */\n      mstore\n        /* \"#utility.yul\":1273:1511   */\n      pop\n        /* \"#utility.yul\":1230:1511   */\n      pop\n      pop\n      jump\t// out\n        /* \"#utility.yul\":1517:1646   */\n    tag_128:\n        /* \"#utility.yul\":1551:1557   */\n      0x00\n        /* \"#utility.yul\":1578:1598   */\n      tag_197\n      tag_117\n      jump\t// in\n    tag_197:\n        /* \"#utility.yul\":1568:1598   */\n      swap1\n      pop\n        /* \"#utility.yul\":1607:1640   */\n      tag_198\n        /* \"#utility.yul\":1635:1639   */\n      dup3\n        /* \"#utility.yul\":1627:1633   */\n      dup3\n        /* \"#utility.yul\":1607:1640   */\n      tag_127\n      jump\t// in\n    tag_198:\n        /* \"#utility.yul\":1517:1646   */\n      swap2\n      swap1\n      pop\n      jump\t// out\n        /* \"#utility.yul\":1652:1960   */\n    tag_129:\n        /* \"#utility.yul\":1714:1718   */\n      0x00\n        /* \"#utility.yul\":1804:1822   */\n      0xffffffffffffffff\n        /* \"#utility.yul\":1796:1802   */\n      dup3\n        /* \"#utility.yul\":1793:1823   */\n      gt\n        /* \"#utility.yul\":1790:1846   */\n      iszero\n      tag_200\n      jumpi\n        /* \"#utility.yul\":1826:1844   */\n      tag_201\n      tag_126\n      jump\t// in\n    tag_201:\n        /* \"#utility.yul\":1790:1846   */\n    tag_200:\n        /* \"#utility.yul\":1864:1893   */\n      tag_202\n        /* \"#utility.yul\":1886:1892   */\n      dup3\n        /* \"#utility.yul\":1864:1893   */\n      tag_125\n      jump\t// in\n    tag_202:\n        /* \"#utility.yul\":1856:1893   */\n      swap1\n      pop\n        /* \"#utility.yul\":1948:1952   */\n      0x20\n        /* \"#utility.yul\":1942:1946   */\n      dup2\n        /* \"#utility.yul\":1938:1953   */\n      add\n        /* \"#utility.yul\":1930:1953   */\n      swap1\n      pop\n        /* \"#utility.yul\":1652:1960   */\n      swap2\n      swap1\n      pop\n      jump\t// out\n        /* \"#utility.yul\":1966:2112   */\n    tag_130:\n        /* \"#utility.yul\":2063:2069   */\n      dup3\n        /* \"#utility.yul\":2058:2061   */\n      dup2\n        /* \"#utility.yul\":2053:2056   */\n      dup4\n        /* \"#utility.yul\":2040:2070   */\n      calldatacopy\n        /* \"#utility.yul\":2104:2105   */\n      0x00\n        /* \"#utility.yul\":2095:2101   */\n      dup4\n        /* \"#utility.yul\":2090:2093   */\n      dup4\n        /* \"#utility.yul\":2086:2102   */\n      add\n        /* \"#utility.yul\":2079:2106   */\n      mstore\n        /* \"#utility.yul\":1966:2112   */\n      pop\n      pop\n      pop\n      jump\t// out\n        /* \"#utility.yul\":2118:2543   */\n    tag_131:\n        /* \"#utility.yul\":2196:2201   */\n      0x00\n        /* \"#utility.yul\":2221:2287   */\n      tag_205\n        /* \"#utility.yul\":2237:2286   */\n      tag_206\n        /* \"#utility.yul\":2279:2285   */\n      dup5\n        /* \"#utility.yul\":2237:2286   */\n      tag_129\n      jump\t// in\n    tag_206:\n        /* \"#utility.yul\":2221:2287   */\n      tag_128\n      jump\t// in\n    tag_205:\n        /* \"#utility.yul\":2212:2287   */\n      swap1\n      pop\n        /* \"#utility.yul\":2310:2316   */\n      dup3\n        /* \"#utility.yul\":2303:2308   */\n      dup2\n        /* \"#utility.yul\":2296:2317   */\n      mstore\n        /* \"#utility.yul\":2348:2352   */\n      0x20\n        /* \"#utility.yul\":2341:2346   */\n      dup2\n        /* \"#utility.yul\":2337:2353   */\n      add\n        /* \"#utility.yul\":2386:2389   */\n      dup5\n        /* \"#utility.yul\":2377:2383   */\n      dup5\n        /* \"#utility.yul\":2372:2375   */\n      dup5\n        /* \"#utility.yul\":2368:2384   */\n      add\n        /* \"#utility.yul\":2365:2390   */\n      gt\n        /* \"#utility.yul\":2362:2474   */\n      iszero\n      tag_207\n      jumpi\n        /* \"#utility.yul\":2393:2472   */\n      tag_208\n      tag_124\n      jump\t// in\n    tag_208:\n        /* \"#utility.yul\":2362:2474   */\n    tag_207:\n        /* \"#utility.yul\":2483:2537   */\n      tag_209\n        /* \"#utility.yul\":2530:2536   */\n      dup5\n        /* \"#utility.yul\":2525:2528   */\n      dup3\n        /* \"#utility.yul\":2520:2523   */\n      dup6\n        /* \"#utility.yul\":2483:2537   */\n      tag_130\n      jump\t// in\n    tag_209:\n        /* \"#utility.yul\":2202:2543   */\n      pop\n        /* \"#utility.yul\":2118:2543   */\n      swap4\n      swap3\n      pop\n      pop\n      pop\n      jump\t// out\n        /* \"#utility.yul\":2563:2903   */\n    tag_132:\n        /* \"#utility.yul\":2619:2624   */\n      0x00\n        /* \"#utility.yul\":2668:2671   */\n      dup3\n        /* \"#utility.yul\":2661:2665   */\n      0x1f\n        /* \"#utility.yul\":2653:2659   */\n      dup4\n        /* \"#utility.yul\":2649:2666   */\n      add\n        /* \"#utility.yul\":2645:2672   */\n      slt\n        /* \"#utility.yul\":2635:2757   */\n      tag_211\n      jumpi\n        /* \"#utility.yul\":2676:2755   */\n      tag_212\n      tag_123\n      jump\t// in\n    tag_212:\n        /* \"#utility.yul\":2635:2757   */\n    tag_211:\n        /* \"#utility.yul\":2793:2799   */\n      dup2\n        /* \"#utility.yul\":2780:2800   */\n      calldataload\n        /* \"#utility.yul\":2818:2897   */\n      tag_213\n        /* \"#utility.yul\":2893:2896   */\n      dup5\n        /* \"#utility.yul\":2885:2891   */\n      dup3\n        /* \"#utility.yul\":2878:2882   */\n      0x20\n        /* \"#utility.yul\":2870:2876   */\n      dup7\n        /* \"#utility.yul\":2866:2883   */\n      add\n        /* \"#utility.yul\":2818:2897   */\n      tag_131\n      jump\t// in\n    tag_213:\n        /* \"#utility.yul\":2809:2897   */\n      swap2\n      pop\n        /* \"#utility.yul\":2625:2903   */\n      pop\n        /* \"#utility.yul\":2563:2903   */\n      swap3\n      swap2\n      pop\n      pop\n      jump\t// out\n        /* \"#utility.yul\":2909:3888   */\n    tag_8:\n        /* \"#utility.yul\":3006:3012   */\n      0x00\n        /* \"#utility.yul\":3014:3020   */\n      dup1\n        /* \"#utility.yul\":3022:3028   */\n      0x00\n        /* \"#utility.yul\":3071:3073   */\n      0x60\n        /* \"#utility.yul\":3059:3068   */\n      dup5\n        /* \"#utility.yul\":3050:3057   */\n      dup7\n        /* \"#utility.yul\":3046:3069   */\n      sub\n        /* \"#utility.yul\":3042:3074   */\n      slt\n        /* \"#utility.yul\":3039:3158   */\n      iszero\n      tag_215\n      jumpi\n        /* \"#utility.yul\":3077:3156   */\n      tag_216\n      tag_118\n      jump\t// in\n    tag_216:\n        /* \"#utility.yul\":3039:3158   */\n    tag_215:\n        /* \"#utility.yul\":3197:3198   */\n      0x00\n        /* \"#utility.yul\":3222:3275   */\n      tag_217\n        /* \"#utility.yul\":3267:3274   */\n      dup7\n        /* \"#utility.yul\":3258:3264   */\n      dup3\n        /* \"#utility.yul\":3247:3256   */\n      dup8\n        /* \"#utility.yul\":3243:3265   */\n      add\n        /* \"#utility.yul\":3222:3275   */\n      tag_122\n      jump\t// in\n    tag_217:\n        /* \"#utility.yul\":3212:3275   */\n      swap4\n      pop\n        /* \"#utility.yul\":3168:3285   */\n      pop\n        /* \"#utility.yul\":3352:3354   */\n      0x20\n        /* \"#utility.yul\":3341:3350   */\n      dup5\n        /* \"#utility.yul\":3337:3355   */\n      add\n        /* \"#utility.yul\":3324:3356   */\n      calldataload\n        /* \"#utility.yul\":3383:3401   */\n      0xffffffffffffffff\n        /* \"#utility.yul\":3375:3381   */\n      dup2\n        /* \"#utility.yul\":3372:3402   */\n      gt\n        /* \"#utility.yul\":3369:3486   */\n      iszero\n      tag_218\n      jumpi\n        /* \"#utility.yul\":3405:3484   */\n      tag_219\n      tag_119\n      jump\t// in\n    tag_219:\n        /* \"#utility.yul\":3369:3486   */\n    tag_218:\n        /* \"#utility.yul\":3510:3573   */\n      tag_220\n        /* \"#utility.yul\":3565:3572   */\n      dup7\n        /* \"#utility.yul\":3556:3562   */\n      dup3\n        /* \"#utility.yul\":3545:3554   */\n      dup8\n        /* \"#utility.yul\":3541:3563   */\n      add\n        /* \"#utility.yul\":3510:3573   */\n      tag_132\n      jump\t// in\n    tag_220:\n        /* \"#utility.yul\":3500:3573   */\n      swap3\n      pop\n        /* \"#utility.yul\":3295:3583   */\n      pop\n        /* \"#utility.yul\":3650:3652   */\n      0x40\n        /* \"#utility.yul\":3639:3648   */\n      dup5\n        /* \"#utility.yul\":3635:3653   */\n      add\n        /* \"#utility.yul\":3622:3654   */\n      calldataload\n        /* \"#utility.yul\":3681:3699   */\n      0xffffffffffffffff\n        /* \"#utility.yul\":3673:3679   */\n      dup2\n        /* \"#utility.yul\":3670:3700   */\n      gt\n        /* \"#utility.yul\":3667:3784   */\n      iszero\n      tag_221\n      jumpi\n        /* \"#utility.yul\":3703:3782   */\n      tag_222\n      tag_119\n      jump\t// in\n    tag_222:\n        /* \"#utility.yul\":3667:3784   */\n    tag_221:\n        /* \"#utility.yul\":3808:3871   */\n      tag_223\n        /* \"#utility.yul\":3863:3870   */\n      dup7\n        /* \"#utility.yul\":3854:3860   */\n      dup3\n        /* \"#utility.yul\":3843:3852   */\n      dup8\n        /* \"#utility.yul\":3839:3861   */\n      add\n        /* \"#utility.yul\":3808:3871   */\n      tag_132\n      jump\t// in\n    tag_223:\n        /* \"#utility.yul\":3798:3871   */\n      swap2\n      pop\n        /* \"#utility.yul\":3593:3881   */\n      pop\n        /* \"#utility.yul\":2909:3888   */\n      swap3\n      pop\n      swap3\n      pop\n      swap3\n      jump\t// out\n        /* \"#utility.yul\":3894:4223   */\n    tag_12:\n        /* \"#utility.yul\":3953:3959   */\n      0x00\n        /* \"#utility.yul\":4002:4004   */\n      0x20\n        /* \"#utility.yul\":3990:3999   */\n      dup3\n        /* \"#utility.yul\":3981:3988   */\n      dup5\n        /* \"#utility.yul\":3977:4000   */\n      sub\n        /* \"#utility.yul\":3973:4005   */\n      slt\n        /* \"#utility.yul\":3970:4089   */\n      iszero\n      tag_225\n      jumpi\n        /* \"#utility.yul\":4008:4087   */\n      tag_226\n      tag_118\n      jump\t// in\n    tag_226:\n        /* \"#utility.yul\":3970:4089   */\n    tag_225:\n        /* \"#utility.yul\":4128:4129   */\n      0x00\n        /* \"#utility.yul\":4153:4206   */\n      tag_227\n        /* \"#utility.yul\":4198:4205   */\n      dup5\n        /* \"#utility.yul\":4189:4195   */\n      dup3\n        /* \"#utility.yul\":4178:4187   */\n      dup6\n        /* \"#utility.yul\":4174:4196   */\n      add\n        /* \"#utility.yul\":4153:4206   */\n      tag_122\n      jump\t// in\n    tag_227:\n        /* \"#utility.yul\":4143:4206   */\n      swap2\n      pop\n        /* \"#utility.yul\":4099:4216   */\n      pop\n        /* \"#utility.yul\":3894:4223   */\n      swap3\n      swap2\n      pop\n      pop\n      jump\t// out\n        /* \"#utility.yul\":4229:4306   */\n    tag_133:\n        /* \"#utility.yul\":4266:4273   */\n      0x00\n        /* \"#utility.yul\":4295:4300   */\n      dup2\n        /* \"#utility.yul\":4284:4300   */\n      swap1\n      pop\n        /* \"#utility.yul\":4229:4306   */\n      swap2\n      swap1\n      pop\n      jump\t// out\n        /* \"#utility.yul\":4312:4420   */\n    tag_134:\n        /* \"#utility.yul\":4389:4413   */\n      tag_230\n        /* \"#utility.yul\":4407:4412   */\n      dup2\n        /* \"#utility.yul\":4389:4413   */\n      tag_133\n      jump\t// in\n    tag_230:\n        /* \"#utility.yul\":4384:4387   */\n      dup3\n        /* \"#utility.yul\":4377:4414   */\n      mstore\n        /* \"#utility.yul\":4312:4420   */\n      pop\n      pop\n      jump\t// out\n        /* \"#utility.yul\":4426:4525   */\n    tag_135:\n        /* \"#utility.yul\":4478:4484   */\n      0x00\n        /* \"#utility.yul\":4512:4517   */\n      dup2\n        /* \"#utility.yul\":4506:4518   */\n      mload\n        /* \"#utility.yul\":4496:4518   */\n      swap1\n      pop\n        /* \"#utility.yul\":4426:4525   */\n      swap2\n      swap1\n      pop\n      jump\t// out\n        /* \"#utility.yul\":4531:4690   */\n    tag_136:\n        /* \"#utility.yul\":4605:4616   */\n      0x00\n        /* \"#utility.yul\":4639:4645   */\n      dup3\n        /* \"#utility.yul\":4634:4637   */\n      dup3\n        /* \"#utility.yul\":4627:4646   */\n      mstore\n        /* \"#utility.yul\":4679:4683   */\n      0x20\n        /* \"#utility.yul\":4674:4677   */\n      dup3\n        /* \"#utility.yul\":4670:4684   */\n      add\n        /* \"#utility.yul\":4655:4684   */\n      swap1\n      pop\n        /* \"#utility.yul\":4531:4690   */\n      swap3\n      swap2\n      pop\n      pop\n      jump\t// out\n        /* \"#utility.yul\":4696:4942   */\n    tag_137:\n        /* \"#utility.yul\":4777:4778   */\n      0x00\n        /* \"#utility.yul\":4787:4900   */\n    tag_234:\n        /* \"#utility.yul\":4801:4807   */\n      dup4\n        /* \"#utility.yul\":4798:4799   */\n      dup2\n        /* \"#utility.yul\":4795:4808   */\n      lt\n        /* \"#utility.yul\":4787:4900   */\n      iszero\n      tag_236\n      jumpi\n        /* \"#utility.yul\":4886:4887   */\n      dup1\n        /* \"#utility.yul\":4881:4884   */\n      dup3\n        /* \"#utility.yul\":4877:4888   */\n      add\n        /* \"#utility.yul\":4871:4889   */\n      mload\n        /* \"#utility.yul\":4867:4868   */\n      dup2\n        /* \"#utility.yul\":4862:4865   */\n      dup5\n        /* \"#utility.yul\":4858:4869   */\n      add\n        /* \"#utility.yul\":4851:4890   */\n      mstore\n        /* \"#utility.yul\":4823:4825   */\n      0x20\n        /* \"#utility.yul\":4820:4821   */\n      dup2\n        /* \"#utility.yul\":4816:4826   */\n      add\n        /* \"#utility.yul\":4811:4826   */\n      swap1\n      pop\n        /* \"#utility.yul\":4787:4900   */\n      jump(tag_234)\n    tag_236:\n        /* \"#utility.yul\":4934:4935   */\n      0x00\n        /* \"#utility.yul\":4925:4931   */\n      dup5\n        /* \"#utility.yul\":4920:4923   */\n      dup5\n        /* \"#utility.yul\":4916:4932   */\n      add\n        /* \"#utility.yul\":4909:4936   */\n      mstore\n        /* \"#utility.yul\":4758:4942   */\n      pop\n        /* \"#utility.yul\":4696:4942   */\n      pop\n      pop\n      pop\n      jump\t// out\n        /* \"#utility.yul\":4948:5305   */\n    tag_138:\n        /* \"#utility.yul\":5026:5029   */\n      0x00\n        /* \"#utility.yul\":5054:5093   */\n      tag_238\n        /* \"#utility.yul\":5087:5092   */\n      dup3\n        /* \"#utility.yul\":5054:5093   */\n      tag_135\n      jump\t// in\n    tag_238:\n        /* \"#utility.yul\":5109:5170   */\n      tag_239\n        /* \"#utility.yul\":5163:5169   */\n      dup2\n        /* \"#utility.yul\":5158:5161   */\n      dup6\n        /* \"#utility.yul\":5109:5170   */\n      tag_136\n      jump\t// in\n    tag_239:\n        /* \"#utility.yul\":5102:5170   */\n      swap4\n      pop\n        /* \"#utility.yul\":5179:5244   */\n      tag_240\n        /* \"#utility.yul\":5237:5243   */\n      dup2\n        /* \"#utility.yul\":5232:5235   */\n      dup6\n        /* \"#utility.yul\":5225:5229   */\n      0x20\n        /* \"#utility.yul\":5218:5223   */\n      dup7\n        /* \"#utility.yul\":5214:5230   */\n      add\n        /* \"#utility.yul\":5179:5244   */\n      tag_137\n      jump\t// in\n    tag_240:\n        /* \"#utility.yul\":5269:5298   */\n      tag_241\n        /* \"#utility.yul\":5291:5297   */\n      dup2\n        /* \"#utility.yul\":5269:5298   */\n      tag_125\n      jump\t// in\n    tag_241:\n        /* \"#utility.yul\":5264:5267   */\n      dup5\n        /* \"#utility.yul\":5260:5299   */\n      add\n        /* \"#utility.yul\":5253:5299   */\n      swap2\n      pop\n        /* \"#utility.yul\":5030:5305   */\n      pop\n        /* \"#utility.yul\":4948:5305   */\n      swap3\n      swap2\n      pop\n      pop\n      jump\t// out\n        /* \"#utility.yul\":5311:5435   */\n    tag_139:\n        /* \"#utility.yul\":5388:5394   */\n      0x00\n        /* \"#utility.yul\":5422:5427   */\n      dup2\n        /* \"#utility.yul\":5416:5428   */\n      mload\n        /* \"#utility.yul\":5406:5428   */\n      swap1\n      pop\n        /* \"#utility.yul\":5311:5435   */\n      swap2\n      swap1\n      pop\n      jump\t// out\n        /* \"#utility.yul\":5441:5625   */\n    tag_140:\n        /* \"#utility.yul\":5540:5551   */\n      0x00\n        /* \"#utility.yul\":5574:5580   */\n      dup3\n        /* \"#utility.yul\":5569:5572   */\n      dup3\n        /* \"#utility.yul\":5562:5581   */\n      mstore\n        /* \"#utility.yul\":5614:5618   */\n      0x20\n        /* \"#utility.yul\":5609:5612   */\n      dup3\n        /* \"#utility.yul\":5605:5619   */\n      add\n        /* \"#utility.yul\":5590:5619   */\n      swap1\n      pop\n        /* \"#utility.yul\":5441:5625   */\n      swap3\n      swap2\n      pop\n      pop\n      jump\t// out\n        /* \"#utility.yul\":5631:5773   */\n    tag_141:\n        /* \"#utility.yul\":5708:5712   */\n      0x00\n        /* \"#utility.yul\":5731:5734   */\n      dup2\n        /* \"#utility.yul\":5723:5734   */\n      swap1\n      pop\n        /* \"#utility.yul\":5761:5765   */\n      0x20\n        /* \"#utility.yul\":5756:5759   */\n      dup3\n        /* \"#utility.yul\":5752:5766   */\n      add\n        /* \"#utility.yul\":5744:5766   */\n      swap1\n      pop\n        /* \"#utility.yul\":5631:5773   */\n      swap2\n      swap1\n      pop\n      jump\t// out\n        /* \"#utility.yul\":5779:5975   */\n    tag_142:\n        /* \"#utility.yul\":5868:5878   */\n      0x00\n        /* \"#utility.yul\":5903:5969   */\n      tag_246\n        /* \"#utility.yul\":5965:5968   */\n      dup4\n        /* \"#utility.yul\":5957:5963   */\n      dup4\n        /* \"#utility.yul\":5903:5969   */\n      tag_138\n      jump\t// in\n    tag_246:\n        /* \"#utility.yul\":5889:5969   */\n      swap1\n      pop\n        /* \"#utility.yul\":5779:5975   */\n      swap3\n      swap2\n      pop\n      pop\n      jump\t// out\n        /* \"#utility.yul\":5981:6104   */\n    tag_143:\n        /* \"#utility.yul\":6061:6065   */\n      0x00\n        /* \"#utility.yul\":6093:6097   */\n      0x20\n        /* \"#utility.yul\":6088:6091   */\n      dup3\n        /* \"#utility.yul\":6084:6098   */\n      add\n        /* \"#utility.yul\":6076:6098   */\n      swap1\n      pop\n        /* \"#utility.yul\":5981:6104   */\n      swap2\n      swap1\n      pop\n      jump\t// out\n        /* \"#utility.yul\":6138:7109   */\n    tag_144:\n        /* \"#utility.yul\":6267:6270   */\n      0x00\n        /* \"#utility.yul\":6296:6360   */\n      tag_249\n        /* \"#utility.yul\":6354:6359   */\n      dup3\n        /* \"#utility.yul\":6296:6360   */\n      tag_139\n      jump\t// in\n    tag_249:\n        /* \"#utility.yul\":6376:6462   */\n      tag_250\n        /* \"#utility.yul\":6455:6461   */\n      dup2\n        /* \"#utility.yul\":6450:6453   */\n      dup6\n        /* \"#utility.yul\":6376:6462   */\n      tag_140\n      jump\t// in\n    tag_250:\n        /* \"#utility.yul\":6369:6462   */\n      swap4\n      pop\n        /* \"#utility.yul\":6488:6491   */\n      dup4\n        /* \"#utility.yul\":6533:6537   */\n      0x20\n        /* \"#utility.yul\":6525:6531   */\n      dup3\n        /* \"#utility.yul\":6521:6538   */\n      mul\n        /* \"#utility.yul\":6516:6519   */\n      dup6\n        /* \"#utility.yul\":6512:6539   */\n      add\n        /* \"#utility.yul\":6563:6629   */\n      tag_251\n        /* \"#utility.yul\":6623:6628   */\n      dup6\n        /* \"#utility.yul\":6563:6629   */\n      tag_141\n      jump\t// in\n    tag_251:\n        /* \"#utility.yul\":6652:6659   */\n      dup1\n        /* \"#utility.yul\":6683:6684   */\n      0x00\n        /* \"#utility.yul\":6668:7064   */\n    tag_252:\n        /* \"#utility.yul\":6693:6699   */\n      dup6\n        /* \"#utility.yul\":6690:6691   */\n      dup2\n        /* \"#utility.yul\":6687:6700   */\n      lt\n        /* \"#utility.yul\":6668:7064   */\n      iszero\n      tag_254\n      jumpi\n        /* \"#utility.yul\":6764:6773   */\n      dup5\n        /* \"#utility.yul\":6758:6762   */\n      dup5\n        /* \"#utility.yul\":6754:6774   */\n      sub\n        /* \"#utility.yul\":6749:6752   */\n      dup10\n        /* \"#utility.yul\":6742:6775   */\n      mstore\n        /* \"#utility.yul\":6815:6821   */\n      dup2\n        /* \"#utility.yul\":6809:6822   */\n      mload\n        /* \"#utility.yul\":6843:6927   */\n      tag_255\n        /* \"#utility.yul\":6922:6926   */\n      dup6\n        /* \"#utility.yul\":6907:6920   */\n      dup3\n        /* \"#utility.yul\":6843:6927   */\n      tag_142\n      jump\t// in\n    tag_255:\n        /* \"#utility.yul\":6835:6927   */\n      swap5\n      pop\n        /* \"#utility.yul\":6950:7020   */\n      tag_256\n        /* \"#utility.yul\":7013:7019   */\n      dup4\n        /* \"#utility.yul\":6950:7020   */\n      tag_143\n      jump\t// in\n    tag_256:\n        /* \"#utility.yul\":6940:7020   */\n      swap3\n      pop\n        /* \"#utility.yul\":7049:7053   */\n      0x20\n        /* \"#utility.yul\":7044:7047   */\n      dup11\n        /* \"#utility.yul\":7040:7054   */\n      add\n        /* \"#utility.yul\":7033:7054   */\n      swap10\n      pop\n        /* \"#utility.yul\":6728:7064   */\n      pop\n        /* \"#utility.yul\":6715:6716   */\n      0x01\n        /* \"#utility.yul\":6712:6713   */\n      dup2\n        /* \"#utility.yul\":6708:6717   */\n      add\n        /* \"#utility.yul\":6703:6717   */\n      swap1\n      pop\n        /* \"#utility.yul\":6668:7064   */\n      jump(tag_252)\n    tag_254:\n        /* \"#utility.yul\":6672:6686   */\n      pop\n        /* \"#utility.yul\":7080:7084   */\n      dup3\n        /* \"#utility.yul\":7073:7084   */\n      swap8\n      pop\n        /* \"#utility.yul\":7100:7103   */\n      dup8\n        /* \"#utility.yul\":7093:7103   */\n      swap6\n      pop\n        /* \"#utility.yul\":6272:7109   */\n      pop\n      pop\n      pop\n      pop\n      pop\n        /* \"#utility.yul\":6138:7109   */\n      swap3\n      swap2\n      pop\n      pop\n      jump\t// out\n        /* \"#utility.yul\":7211:10148   */\n    tag_145:\n        /* \"#utility.yul\":7340:7343   */\n      0x00\n        /* \"#utility.yul\":7376:7382   */\n      0x0160\n        /* \"#utility.yul\":7371:7374   */\n      dup4\n        /* \"#utility.yul\":7367:7383   */\n      add\n        /* \"#utility.yul\":7470:7474   */\n      0x00\n        /* \"#utility.yul\":7463:7468   */\n      dup4\n        /* \"#utility.yul\":7459:7475   */\n      add\n        /* \"#utility.yul\":7453:7476   */\n      mload\n        /* \"#utility.yul\":7489:7552   */\n      tag_258\n        /* \"#utility.yul\":7546:7550   */\n      0x00\n        /* \"#utility.yul\":7541:7544   */\n      dup7\n        /* \"#utility.yul\":7537:7551   */\n      add\n        /* \"#utility.yul\":7523:7535   */\n      dup3\n        /* \"#utility.yul\":7489:7552   */\n      tag_134\n      jump\t// in\n    tag_258:\n        /* \"#utility.yul\":7393:7562   */\n      pop\n        /* \"#utility.yul\":7651:7655   */\n      0x20\n        /* \"#utility.yul\":7644:7649   */\n      dup4\n        /* \"#utility.yul\":7640:7656   */\n      add\n        /* \"#utility.yul\":7634:7657   */\n      mload\n        /* \"#utility.yul\":7704:7707   */\n      dup5\n        /* \"#utility.yul\":7698:7702   */\n      dup3\n        /* \"#utility.yul\":7694:7708   */\n      sub\n        /* \"#utility.yul\":7687:7691   */\n      0x20\n        /* \"#utility.yul\":7682:7685   */\n      dup7\n        /* \"#utility.yul\":7678:7692   */\n      add\n        /* \"#utility.yul\":7671:7709   */\n      mstore\n        /* \"#utility.yul\":7730:7803   */\n      tag_259\n        /* \"#utility.yul\":7798:7802   */\n      dup3\n        /* \"#utility.yul\":7784:7796   */\n      dup3\n        /* \"#utility.yul\":7730:7803   */\n      tag_138\n      jump\t// in\n    tag_259:\n        /* \"#utility.yul\":7722:7803   */\n      swap2\n      pop\n        /* \"#utility.yul\":7572:7814   */\n      pop\n        /* \"#utility.yul\":7900:7904   */\n      0x40\n        /* \"#utility.yul\":7893:7898   */\n      dup4\n        /* \"#utility.yul\":7889:7905   */\n      add\n        /* \"#utility.yul\":7883:7906   */\n      mload\n        /* \"#utility.yul\":7953:7956   */\n      dup5\n        /* \"#utility.yul\":7947:7951   */\n      dup3\n        /* \"#utility.yul\":7943:7957   */\n      sub\n        /* \"#utility.yul\":7936:7940   */\n      0x40\n        /* \"#utility.yul\":7931:7934   */\n      dup7\n        /* \"#utility.yul\":7927:7941   */\n      add\n        /* \"#utility.yul\":7920:7958   */\n      mstore\n        /* \"#utility.yul\":7979:8052   */\n      tag_260\n        /* \"#utility.yul\":8047:8051   */\n      dup3\n        /* \"#utility.yul\":8033:8045   */\n      dup3\n        /* \"#utility.yul\":7979:8052   */\n      tag_138\n      jump\t// in\n    tag_260:\n        /* \"#utility.yul\":7971:8052   */\n      swap2\n      pop\n        /* \"#utility.yul\":7824:8063   */\n      pop\n        /* \"#utility.yul\":8148:8152   */\n      0x60\n        /* \"#utility.yul\":8141:8146   */\n      dup4\n        /* \"#utility.yul\":8137:8153   */\n      add\n        /* \"#utility.yul\":8131:8154   */\n      mload\n        /* \"#utility.yul\":8201:8204   */\n      dup5\n        /* \"#utility.yul\":8195:8199   */\n      dup3\n        /* \"#utility.yul\":8191:8205   */\n      sub\n        /* \"#utility.yul\":8184:8188   */\n      0x60\n        /* \"#utility.yul\":8179:8182   */\n      dup7\n        /* \"#utility.yul\":8175:8189   */\n      add\n        /* \"#utility.yul\":8168:8206   */\n      mstore\n        /* \"#utility.yul\":8227:8300   */\n      tag_261\n        /* \"#utility.yul\":8295:8299   */\n      dup3\n        /* \"#utility.yul\":8281:8293   */\n      dup3\n        /* \"#utility.yul\":8227:8300   */\n      tag_138\n      jump\t// in\n    tag_261:\n        /* \"#utility.yul\":8219:8300   */\n      swap2\n      pop\n        /* \"#utility.yul\":8073:8311   */\n      pop\n        /* \"#utility.yul\":8397:8401   */\n      0x80\n        /* \"#utility.yul\":8390:8395   */\n      dup4\n        /* \"#utility.yul\":8386:8402   */\n      add\n        /* \"#utility.yul\":8380:8403   */\n      mload\n        /* \"#utility.yul\":8416:8479   */\n      tag_262\n        /* \"#utility.yul\":8473:8477   */\n      0x80\n        /* \"#utility.yul\":8468:8471   */\n      dup7\n        /* \"#utility.yul\":8464:8478   */\n      add\n        /* \"#utility.yul\":8450:8462   */\n      dup3\n        /* \"#utility.yul\":8416:8479   */\n      tag_134\n      jump\t// in\n    tag_262:\n        /* \"#utility.yul\":8321:8489   */\n      pop\n        /* \"#utility.yul\":8577:8581   */\n      0xa0\n        /* \"#utility.yul\":8570:8575   */\n      dup4\n        /* \"#utility.yul\":8566:8582   */\n      add\n        /* \"#utility.yul\":8560:8583   */\n      mload\n        /* \"#utility.yul\":8630:8633   */\n      dup5\n        /* \"#utility.yul\":8624:8628   */\n      dup3\n        /* \"#utility.yul\":8620:8634   */\n      sub\n        /* \"#utility.yul\":8613:8617   */\n      0xa0\n        /* \"#utility.yul\":8608:8611   */\n      dup7\n        /* \"#utility.yul\":8604:8618   */\n      add\n        /* \"#utility.yul\":8597:8635   */\n      mstore\n        /* \"#utility.yul\":8656:8729   */\n      tag_263\n        /* \"#utility.yul\":8724:8728   */\n      dup3\n        /* \"#utility.yul\":8710:8722   */\n      dup3\n        /* \"#utility.yul\":8656:8729   */\n      tag_138\n      jump\t// in\n    tag_263:\n        /* \"#utility.yul\":8648:8729   */\n      swap2\n      pop\n        /* \"#utility.yul\":8499:8740   */\n      pop\n        /* \"#utility.yul\":8832:8836   */\n      0xc0\n        /* \"#utility.yul\":8825:8830   */\n      dup4\n        /* \"#utility.yul\":8821:8837   */\n      add\n        /* \"#utility.yul\":8815:8838   */\n      mload\n        /* \"#utility.yul\":8885:8888   */\n      dup5\n        /* \"#utility.yul\":8879:8883   */\n      dup3\n        /* \"#utility.yul\":8875:8889   */\n      sub\n        /* \"#utility.yul\":8868:8872   */\n      0xc0\n        /* \"#utility.yul\":8863:8866   */\n      dup7\n        /* \"#utility.yul\":8859:8873   */\n      add\n        /* \"#utility.yul\":8852:8890   */\n      mstore\n        /* \"#utility.yul\":8911:8984   */\n      tag_264\n        /* \"#utility.yul\":8979:8983   */\n      dup3\n        /* \"#utility.yul\":8965:8977   */\n      dup3\n        /* \"#utility.yul\":8911:8984   */\n      tag_138\n      jump\t// in\n    tag_264:\n        /* \"#utility.yul\":8903:8984   */\n      swap2\n      pop\n        /* \"#utility.yul\":8750:8995   */\n      pop\n        /* \"#utility.yul\":9088:9092   */\n      0xe0\n        /* \"#utility.yul\":9081:9086   */\n      dup4\n        /* \"#utility.yul\":9077:9093   */\n      add\n        /* \"#utility.yul\":9071:9094   */\n      mload\n        /* \"#utility.yul\":9141:9144   */\n      dup5\n        /* \"#utility.yul\":9135:9139   */\n      dup3\n        /* \"#utility.yul\":9131:9145   */\n      sub\n        /* \"#utility.yul\":9124:9128   */\n      0xe0\n        /* \"#utility.yul\":9119:9122   */\n      dup7\n        /* \"#utility.yul\":9115:9129   */\n      add\n        /* \"#utility.yul\":9108:9146   */\n      mstore\n        /* \"#utility.yul\":9167:9240   */\n      tag_265\n        /* \"#utility.yul\":9235:9239   */\n      dup3\n        /* \"#utility.yul\":9221:9233   */\n      dup3\n        /* \"#utility.yul\":9167:9240   */\n      tag_138\n      jump\t// in\n    tag_265:\n        /* \"#utility.yul\":9159:9240   */\n      swap2\n      pop\n        /* \"#utility.yul\":9005:9251   */\n      pop\n        /* \"#utility.yul\":9341:9347   */\n      0x0100\n        /* \"#utility.yul\":9334:9339   */\n      dup4\n        /* \"#utility.yul\":9330:9348   */\n      add\n        /* \"#utility.yul\":9324:9349   */\n      mload\n        /* \"#utility.yul\":9398:9401   */\n      dup5\n        /* \"#utility.yul\":9392:9396   */\n      dup3\n        /* \"#utility.yul\":9388:9402   */\n      sub\n        /* \"#utility.yul\":9379:9385   */\n      0x0100\n        /* \"#utility.yul\":9374:9377   */\n      dup7\n        /* \"#utility.yul\":9370:9386   */\n      add\n        /* \"#utility.yul\":9363:9403   */\n      mstore\n        /* \"#utility.yul\":9424:9497   */\n      tag_266\n        /* \"#utility.yul\":9492:9496   */\n      dup3\n        /* \"#utility.yul\":9478:9490   */\n      dup3\n        /* \"#utility.yul\":9424:9497   */\n      tag_138\n      jump\t// in\n    tag_266:\n        /* \"#utility.yul\":9416:9497   */\n      swap2\n      pop\n        /* \"#utility.yul\":9261:9508   */\n      pop\n        /* \"#utility.yul\":9596:9602   */\n      0x0120\n        /* \"#utility.yul\":9589:9594   */\n      dup4\n        /* \"#utility.yul\":9585:9603   */\n      add\n        /* \"#utility.yul\":9579:9604   */\n      mload\n        /* \"#utility.yul\":9653:9656   */\n      dup5\n        /* \"#utility.yul\":9647:9651   */\n      dup3\n        /* \"#utility.yul\":9643:9657   */\n      sub\n        /* \"#utility.yul\":9634:9640   */\n      0x0120\n        /* \"#utility.yul\":9629:9632   */\n      dup7\n        /* \"#utility.yul\":9625:9641   */\n      add\n        /* \"#utility.yul\":9618:9658   */\n      mstore\n        /* \"#utility.yul\":9679:9802   */\n      tag_267\n        /* \"#utility.yul\":9797:9801   */\n      dup3\n        /* \"#utility.yul\":9783:9795   */\n      dup3\n        /* \"#utility.yul\":9679:9802   */\n      tag_144\n      jump\t// in\n    tag_267:\n        /* \"#utility.yul\":9671:9802   */\n      swap2\n      pop\n        /* \"#utility.yul\":9518:9813   */\n      pop\n        /* \"#utility.yul\":9904:9910   */\n      0x0140\n        /* \"#utility.yul\":9897:9902   */\n      dup4\n        /* \"#utility.yul\":9893:9911   */\n      add\n        /* \"#utility.yul\":9887:9912   */\n      mload\n        /* \"#utility.yul\":9961:9964   */\n      dup5\n        /* \"#utility.yul\":9955:9959   */\n      dup3\n        /* \"#utility.yul\":9951:9965   */\n      sub\n        /* \"#utility.yul\":9942:9948   */\n      0x0140\n        /* \"#utility.yul\":9937:9940   */\n      dup7\n        /* \"#utility.yul\":9933:9949   */\n      add\n        /* \"#utility.yul\":9926:9966   */\n      mstore\n        /* \"#utility.yul\":9987:10110   */\n      tag_268\n        /* \"#utility.yul\":10105:10109   */\n      dup3\n        /* \"#utility.yul\":10091:10103   */\n      dup3\n        /* \"#utility.yul\":9987:10110   */\n      tag_144\n      jump\t// in\n    tag_268:\n        /* \"#utility.yul\":9979:10110   */\n      swap2\n      pop\n        /* \"#utility.yul\":9823:10121   */\n      pop\n        /* \"#utility.yul\":10138:10142   */\n      dup1\n        /* \"#utility.yul\":10131:10142   */\n      swap2\n      pop\n        /* \"#utility.yul\":7345:10148   */\n      pop\n        /* \"#utility.yul\":7211:10148   */\n      swap3\n      swap2\n      pop\n      pop\n      jump\t// out\n        /* \"#utility.yul\":10154:10547   */\n    tag_15:\n        /* \"#utility.yul\":10307:10311   */\n      0x00\n        /* \"#utility.yul\":10345:10347   */\n      0x20\n        /* \"#utility.yul\":10334:10343   */\n      dup3\n        /* \"#utility.yul\":10330:10348   */\n      add\n        /* \"#utility.yul\":10322:10348   */\n      swap1\n      pop\n        /* \"#utility.yul\":10394:10403   */\n      dup2\n        /* \"#utility.yul\":10388:10392   */\n      dup2\n        /* \"#utility.yul\":10384:10404   */\n      sub\n        /* \"#utility.yul\":10380:10381   */\n      0x00\n        /* \"#utility.yul\":10369:10378   */\n      dup4\n        /* \"#utility.yul\":10365:10382   */\n      add\n        /* \"#utility.yul\":10358:10405   */\n      mstore\n        /* \"#utility.yul\":10422:10540   */\n      tag_270\n        /* \"#utility.yul\":10535:10539   */\n      dup2\n        /* \"#utility.yul\":10526:10532   */\n      dup5\n        /* \"#utility.yul\":10422:10540   */\n      tag_145\n      jump\t// in\n    tag_270:\n        /* \"#utility.yul\":10414:10540   */\n      swap1\n      pop\n        /* \"#utility.yul\":10154:10547   */\n      swap3\n      swap2\n      pop\n      pop\n      jump\t// out\n        /* \"#utility.yul\":10553:10675   */\n    tag_146:\n        /* \"#utility.yul\":10626:10650   */\n      tag_272\n        /* \"#utility.yul\":10644:10649   */\n      dup2\n        /* \"#utility.yul\":10626:10650   */\n      tag_133\n      jump\t// in\n    tag_272:\n        /* \"#utility.yul\":10619:10624   */\n      dup2\n        /* \"#utility.yul\":10616:10651   */\n      eq\n        /* \"#utility.yul\":10606:10669   */\n      tag_273\n      jumpi\n        /* \"#utility.yul\":10665:10666   */\n      0x00\n        /* \"#utility.yul\":10662:10663   */\n      dup1\n        /* \"#utility.yul\":10655:10667   */\n      revert\n        /* \"#utility.yul\":10606:10669   */\n    tag_273:\n        /* \"#utility.yul\":10553:10675   */\n      pop\n      jump\t// out\n        /* \"#utility.yul\":10681:10820   */\n    tag_147:\n        /* \"#utility.yul\":10727:10732   */\n      0x00\n        /* \"#utility.yul\":10765:10771   */\n      dup2\n        /* \"#utility.yul\":10752:10772   */\n      calldataload\n        /* \"#utility.yul\":10743:10772   */\n      swap1\n      pop\n        /* \"#utility.yul\":10781:10814   */\n      tag_275\n        /* \"#utility.yul\":10808:10813   */\n      dup2\n        /* \"#utility.yul\":10781:10814   */\n      tag_146\n      jump\t// in\n    tag_275:\n        /* \"#utility.yul\":10681:10820   */\n      swap3\n      swap2\n      pop\n      pop\n      jump\t// out\n        /* \"#utility.yul\":10826:11147   */\n    tag_148:\n        /* \"#utility.yul\":10913:10917   */\n      0x00\n        /* \"#utility.yul\":11003:11021   */\n      0xffffffffffffffff\n        /* \"#utility.yul\":10995:11001   */\n      dup3\n        /* \"#utility.yul\":10992:11022   */\n      gt\n        /* \"#utility.yul\":10989:11045   */\n      iszero\n      tag_277\n      jumpi\n        /* \"#utility.yul\":11025:11043   */\n      tag_278\n      tag_126\n      jump\t// in\n    tag_278:\n        /* \"#utility.yul\":10989:11045   */\n    tag_277:\n        /* \"#utility.yul\":11075:11079   */\n      0x20\n        /* \"#utility.yul\":11067:11073   */\n      dup3\n        /* \"#utility.yul\":11063:11080   */\n      mul\n        /* \"#utility.yul\":11055:11080   */\n      swap1\n      pop\n        /* \"#utility.yul\":11135:11139   */\n      0x20\n        /* \"#utility.yul\":11129:11133   */\n      dup2\n        /* \"#utility.yul\":11125:11140   */\n      add\n        /* \"#utility.yul\":11117:11140   */\n      swap1\n      pop\n        /* \"#utility.yul\":10826:11147   */\n      swap2\n      swap1\n      pop\n      jump\t// out\n        /* \"#utility.yul\":11153:11270   */\n    tag_149:\n        /* \"#utility.yul\":11262:11263   */\n      0x00\n        /* \"#utility.yul\":11259:11260   */\n      dup1\n        /* \"#utility.yul\":11252:11264   */\n      revert\n        /* \"#utility.yul\":11292:12237   */\n    tag_150:\n        /* \"#utility.yul\":11398:11403   */\n      0x00\n        /* \"#utility.yul\":11423:11514   */\n      tag_281\n        /* \"#utility.yul\":11439:11513   */\n      tag_282\n        /* \"#utility.yul\":11506:11512   */\n      dup5\n        /* \"#utility.yul\":11439:11513   */\n      tag_148\n      jump\t// in\n    tag_282:\n        /* \"#utility.yul\":11423:11514   */\n      tag_128\n      jump\t// in\n    tag_281:\n        /* \"#utility.yul\":11414:11514   */\n      swap1\n      pop\n        /* \"#utility.yul\":11534:11539   */\n      dup1\n        /* \"#utility.yul\":11563:11569   */\n      dup4\n        /* \"#utility.yul\":11556:11561   */\n      dup3\n        /* \"#utility.yul\":11549:11570   */\n      mstore\n        /* \"#utility.yul\":11597:11601   */\n      0x20\n        /* \"#utility.yul\":11590:11595   */\n      dup3\n        /* \"#utility.yul\":11586:11602   */\n      add\n        /* \"#utility.yul\":11579:11602   */\n      swap1\n      pop\n        /* \"#utility.yul\":11650:11654   */\n      0x20\n        /* \"#utility.yul\":11642:11648   */\n      dup5\n        /* \"#utility.yul\":11638:11655   */\n      mul\n        /* \"#utility.yul\":11630:11636   */\n      dup4\n        /* \"#utility.yul\":11626:11656   */\n      add\n        /* \"#utility.yul\":11679:11682   */\n      dup6\n        /* \"#utility.yul\":11671:11677   */\n      dup2\n        /* \"#utility.yul\":11668:11683   */\n      gt\n        /* \"#utility.yul\":11665:11787   */\n      iszero\n      tag_283\n      jumpi\n        /* \"#utility.yul\":11698:11777   */\n      tag_284\n      tag_149\n      jump\t// in\n    tag_284:\n        /* \"#utility.yul\":11665:11787   */\n    tag_283:\n        /* \"#utility.yul\":11813:11819   */\n      dup4\n        /* \"#utility.yul\":11796:12231   */\n    tag_285:\n        /* \"#utility.yul\":11830:11836   */\n      dup2\n        /* \"#utility.yul\":11825:11828   */\n      dup2\n        /* \"#utility.yul\":11822:11837   */\n      lt\n        /* \"#utility.yul\":11796:12231   */\n      iszero\n      tag_287\n      jumpi\n        /* \"#utility.yul\":11919:11922   */\n      dup1\n        /* \"#utility.yul\":11906:11923   */\n      calldataload\n        /* \"#utility.yul\":11955:11973   */\n      0xffffffffffffffff\n        /* \"#utility.yul\":11942:11953   */\n      dup2\n        /* \"#utility.yul\":11939:11974   */\n      gt\n        /* \"#utility.yul\":11936:12058   */\n      iszero\n      tag_288\n      jumpi\n        /* \"#utility.yul\":11977:12056   */\n      tag_289\n      tag_123\n      jump\t// in\n    tag_289:\n        /* \"#utility.yul\":11936:12058   */\n    tag_288:\n        /* \"#utility.yul\":12101:12112   */\n      dup1\n        /* \"#utility.yul\":12093:12099   */\n      dup7\n        /* \"#utility.yul\":12089:12113   */\n      add\n        /* \"#utility.yul\":12139:12186   */\n      tag_290\n        /* \"#utility.yul\":12182:12185   */\n      dup10\n        /* \"#utility.yul\":12170:12180   */\n      dup3\n        /* \"#utility.yul\":12139:12186   */\n      tag_132\n      jump\t// in\n    tag_290:\n        /* \"#utility.yul\":12134:12137   */\n      dup6\n        /* \"#utility.yul\":12127:12187   */\n      mstore\n        /* \"#utility.yul\":12216:12220   */\n      0x20\n        /* \"#utility.yul\":12211:12214   */\n      dup6\n        /* \"#utility.yul\":12207:12221   */\n      add\n        /* \"#utility.yul\":12200:12221   */\n      swap5\n      pop\n        /* \"#utility.yul\":11872:12231   */\n      pop\n      pop\n        /* \"#utility.yul\":11856:11860   */\n      0x20\n        /* \"#utility.yul\":11851:11854   */\n      dup2\n        /* \"#utility.yul\":11847:11861   */\n      add\n        /* \"#utility.yul\":11840:11861   */\n      swap1\n      pop\n        /* \"#utility.yul\":11796:12231   */\n      jump(tag_285)\n    tag_287:\n        /* \"#utility.yul\":11800:11821   */\n      pop\n        /* \"#utility.yul\":11404:12237   */\n      pop\n      pop\n        /* \"#utility.yul\":11292:12237   */\n      swap4\n      swap3\n      pop\n      pop\n      pop\n      jump\t// out\n        /* \"#utility.yul\":12259:12649   */\n    tag_151:\n        /* \"#utility.yul\":12340:12345   */\n      0x00\n        /* \"#utility.yul\":12389:12392   */\n      dup3\n        /* \"#utility.yul\":12382:12386   */\n      0x1f\n        /* \"#utility.yul\":12374:12380   */\n      dup4\n        /* \"#utility.yul\":12370:12387   */\n      add\n        /* \"#utility.yul\":12366:12393   */\n      slt\n        /* \"#utility.yul\":12356:12478   */\n      tag_292\n      jumpi\n        /* \"#utility.yul\":12397:12476   */\n      tag_293\n      tag_123\n      jump\t// in\n    tag_293:\n        /* \"#utility.yul\":12356:12478   */\n    tag_292:\n        /* \"#utility.yul\":12514:12520   */\n      dup2\n        /* \"#utility.yul\":12501:12521   */\n      calldataload\n        /* \"#utility.yul\":12539:12643   */\n      tag_294\n        /* \"#utility.yul\":12639:12642   */\n      dup5\n        /* \"#utility.yul\":12631:12637   */\n      dup3\n        /* \"#utility.yul\":12624:12628   */\n      0x20\n        /* \"#utility.yul\":12616:12622   */\n      dup7\n        /* \"#utility.yul\":12612:12629   */\n      add\n        /* \"#utility.yul\":12539:12643   */\n      tag_150\n      jump\t// in\n    tag_294:\n        /* \"#utility.yul\":12530:12643   */\n      swap2\n      pop\n        /* \"#utility.yul\":12346:12649   */\n      pop\n        /* \"#utility.yul\":12259:12649   */\n      swap3\n      swap2\n      pop\n      pop\n      jump\t// out\n        /* \"#utility.yul\":12655:16164   */\n    tag_18:\n        /* \"#utility.yul\":12944:12950   */\n      0x00\n        /* \"#utility.yul\":12952:12958   */\n      dup1\n        /* \"#utility.yul\":12960:12966   */\n      0x00\n        /* \"#utility.yul\":12968:12974   */\n      dup1\n        /* \"#utility.yul\":12976:12982   */\n      0x00\n        /* \"#utility.yul\":12984:12990   */\n      dup1\n        /* \"#utility.yul\":12992:12998   */\n      0x00\n        /* \"#utility.yul\":13000:13006   */\n      dup1\n        /* \"#utility.yul\":13008:13014   */\n      0x00\n        /* \"#utility.yul\":13016:13022   */\n      dup1\n        /* \"#utility.yul\":13024:13031   */\n      0x00\n        /* \"#utility.yul\":13074:13077   */\n      0x0160\n        /* \"#utility.yul\":13062:13071   */\n      dup13\n        /* \"#utility.yul\":13053:13060   */\n      dup15\n        /* \"#utility.yul\":13049:13072   */\n      sub\n        /* \"#utility.yul\":13045:13078   */\n      slt\n        /* \"#utility.yul\":13042:13162   */\n      iszero\n      tag_296\n      jumpi\n        /* \"#utility.yul\":13081:13160   */\n      tag_297\n      tag_118\n      jump\t// in\n    tag_297:\n        /* \"#utility.yul\":13042:13162   */\n    tag_296:\n        /* \"#utility.yul\":13201:13202   */\n      0x00\n        /* \"#utility.yul\":13226:13279   */\n      tag_298\n        /* \"#utility.yul\":13271:13278   */\n      dup15\n        /* \"#utility.yul\":13262:13268   */\n      dup3\n        /* \"#utility.yul\":13251:13260   */\n      dup16\n        /* \"#utility.yul\":13247:13269   */\n      add\n        /* \"#utility.yul\":13226:13279   */\n      tag_147\n      jump\t// in\n    tag_298:\n        /* \"#utility.yul\":13216:13279   */\n      swap12\n      pop\n        /* \"#utility.yul\":13172:13289   */\n      pop\n        /* \"#utility.yul\":13356:13358   */\n      0x20\n        /* \"#utility.yul\":13345:13354   */\n      dup13\n        /* \"#utility.yul\":13341:13359   */\n      add\n        /* \"#utility.yul\":13328:13360   */\n      calldataload\n        /* \"#utility.yul\":13387:13405   */\n      0xffffffffffffffff\n        /* \"#utility.yul\":13379:13385   */\n      dup2\n        /* \"#utility.yul\":13376:13406   */\n      gt\n        /* \"#utility.yul\":13373:13490   */\n      iszero\n      tag_299\n      jumpi\n        /* \"#utility.yul\":13409:13488   */\n      tag_300\n      tag_119\n      jump\t// in\n    tag_300:\n        /* \"#utility.yul\":13373:13490   */\n    tag_299:\n        /* \"#utility.yul\":13514:13577   */\n      tag_301\n        /* \"#utility.yul\":13569:13576   */\n      dup15\n        /* \"#utility.yul\":13560:13566   */\n      dup3\n        /* \"#utility.yul\":13549:13558   */\n      dup16\n        /* \"#utility.yul\":13545:13567   */\n      add\n        /* \"#utility.yul\":13514:13577   */\n      tag_132\n      jump\t// in\n    tag_301:\n        /* \"#utility.yul\":13504:13577   */\n      swap11\n      pop\n        /* \"#utility.yul\":13299:13587   */\n      pop\n        /* \"#utility.yul\":13654:13656   */\n      0x40\n        /* \"#utility.yul\":13643:13652   */\n      dup13\n        /* \"#utility.yul\":13639:13657   */\n      add\n        /* \"#utility.yul\":13626:13658   */\n      calldataload\n        /* \"#utility.yul\":13685:13703   */\n      0xffffffffffffffff\n        /* \"#utility.yul\":13677:13683   */\n      dup2\n        /* \"#utility.yul\":13674:13704   */\n      gt\n        /* \"#utility.yul\":13671:13788   */\n      iszero\n      tag_302\n      jumpi\n        /* \"#utility.yul\":13707:13786   */\n      tag_303\n      tag_119\n      jump\t// in\n    tag_303:\n        /* \"#utility.yul\":13671:13788   */\n    tag_302:\n        /* \"#utility.yul\":13812:13875   */\n      tag_304\n        /* \"#utility.yul\":13867:13874   */\n      dup15\n        /* \"#utility.yul\":13858:13864   */\n      dup3\n        /* \"#utility.yul\":13847:13856   */\n      dup16\n        /* \"#utility.yul\":13843:13865   */\n      add\n        /* \"#utility.yul\":13812:13875   */\n      tag_132\n      jump\t// in\n    tag_304:\n        /* \"#utility.yul\":13802:13875   */\n      swap10\n      pop\n        /* \"#utility.yul\":13597:13885   */\n      pop\n        /* \"#utility.yul\":13952:13954   */\n      0x60\n        /* \"#utility.yul\":13941:13950   */\n      dup13\n        /* \"#utility.yul\":13937:13955   */\n      add\n        /* \"#utility.yul\":13924:13956   */\n      calldataload\n        /* \"#utility.yul\":13983:14001   */\n      0xffffffffffffffff\n        /* \"#utility.yul\":13975:13981   */\n      dup2\n        /* \"#utility.yul\":13972:14002   */\n      gt\n        /* \"#utility.yul\":13969:14086   */\n      iszero\n      tag_305\n      jumpi\n        /* \"#utility.yul\":14005:14084   */\n      tag_306\n      tag_119\n      jump\t// in\n    tag_306:\n        /* \"#utility.yul\":13969:14086   */\n    tag_305:\n        /* \"#utility.yul\":14110:14173   */\n      tag_307\n        /* \"#utility.yul\":14165:14172   */\n      dup15\n        /* \"#utility.yul\":14156:14162   */\n      dup3\n        /* \"#utility.yul\":14145:14154   */\n      dup16\n        /* \"#utility.yul\":14141:14163   */\n      add\n        /* \"#utility.yul\":14110:14173   */\n      tag_132\n      jump\t// in\n    tag_307:\n        /* \"#utility.yul\":14100:14173   */\n      swap9\n      pop\n        /* \"#utility.yul\":13895:14183   */\n      pop\n        /* \"#utility.yul\":14222:14225   */\n      0x80\n        /* \"#utility.yul\":14249:14302   */\n      tag_308\n        /* \"#utility.yul\":14294:14301   */\n      dup15\n        /* \"#utility.yul\":14285:14291   */\n      dup3\n        /* \"#utility.yul\":14274:14283   */\n      dup16\n        /* \"#utility.yul\":14270:14292   */\n      add\n        /* \"#utility.yul\":14249:14302   */\n      tag_147\n      jump\t// in\n    tag_308:\n        /* \"#utility.yul\":14239:14302   */\n      swap8\n      pop\n        /* \"#utility.yul\":14193:14312   */\n      pop\n        /* \"#utility.yul\":14379:14382   */\n      0xa0\n        /* \"#utility.yul\":14368:14377   */\n      dup13\n        /* \"#utility.yul\":14364:14383   */\n      add\n        /* \"#utility.yul\":14351:14384   */\n      calldataload\n        /* \"#utility.yul\":14411:14429   */\n      0xffffffffffffffff\n        /* \"#utility.yul\":14403:14409   */\n      dup2\n        /* \"#utility.yul\":14400:14430   */\n      gt\n        /* \"#utility.yul\":14397:14514   */\n      iszero\n      tag_309\n      jumpi\n        /* \"#utility.yul\":14433:14512   */\n      tag_310\n      tag_119\n      jump\t// in\n    tag_310:\n        /* \"#utility.yul\":14397:14514   */\n    tag_309:\n        /* \"#utility.yul\":14538:14601   */\n      tag_311\n        /* \"#utility.yul\":14593:14600   */\n      dup15\n        /* \"#utility.yul\":14584:14590   */\n      dup3\n        /* \"#utility.yul\":14573:14582   */\n      dup16\n        /* \"#utility.yul\":14569:14591   */\n      add\n        /* \"#utility.yul\":14538:14601   */\n      tag_132\n      jump\t// in\n    tag_311:\n        /* \"#utility.yul\":14528:14601   */\n      swap7\n      pop\n        /* \"#utility.yul\":14322:14611   */\n      pop\n        /* \"#utility.yul\":14678:14681   */\n      0xc0\n        /* \"#utility.yul\":14667:14676   */\n      dup13\n        /* \"#utility.yul\":14663:14682   */\n      add\n        /* \"#utility.yul\":14650:14683   */\n      calldataload\n        /* \"#utility.yul\":14710:14728   */\n      0xffffffffffffffff\n        /* \"#utility.yul\":14702:14708   */\n      dup2\n        /* \"#utility.yul\":14699:14729   */\n      gt\n        /* \"#utility.yul\":14696:14813   */\n      iszero\n      tag_312\n      jumpi\n        /* \"#utility.yul\":14732:14811   */\n      tag_313\n      tag_119\n      jump\t// in\n    tag_313:\n        /* \"#utility.yul\":14696:14813   */\n    tag_312:\n        /* \"#utility.yul\":14837:14900   */\n      tag_314\n        /* \"#utility.yul\":14892:14899   */\n      dup15\n        /* \"#utility.yul\":14883:14889   */\n      dup3\n        /* \"#utility.yul\":14872:14881   */\n      dup16\n        /* \"#utility.yul\":14868:14890   */\n      add\n        /* \"#utility.yul\":14837:14900   */\n      tag_132\n      jump\t// in\n    tag_314:\n        /* \"#utility.yul\":14827:14900   */\n      swap6\n      pop\n        /* \"#utility.yul\":14621:14910   */\n      pop\n        /* \"#utility.yul\":14977:14980   */\n      0xe0\n        /* \"#utility.yul\":14966:14975   */\n      dup13\n        /* \"#utility.yul\":14962:14981   */\n      add\n        /* \"#utility.yul\":14949:14982   */\n      calldataload\n        /* \"#utility.yul\":15009:15027   */\n      0xffffffffffffffff\n        /* \"#utility.yul\":15001:15007   */\n      dup2\n        /* \"#utility.yul\":14998:15028   */\n      gt\n        /* \"#utility.yul\":14995:15112   */\n      iszero\n      tag_315\n      jumpi\n        /* \"#utility.yul\":15031:15110   */\n      tag_316\n      tag_119\n      jump\t// in\n    tag_316:\n        /* \"#utility.yul\":14995:15112   */\n    tag_315:\n        /* \"#utility.yul\":15136:15199   */\n      tag_317\n        /* \"#utility.yul\":15191:15198   */\n      dup15\n        /* \"#utility.yul\":15182:15188   */\n      dup3\n        /* \"#utility.yul\":15171:15180   */\n      dup16\n        /* \"#utility.yul\":15167:15189   */\n      add\n        /* \"#utility.yul\":15136:15199   */\n      tag_132\n      jump\t// in\n    tag_317:\n        /* \"#utility.yul\":15126:15199   */\n      swap5\n      pop\n        /* \"#utility.yul\":14920:15209   */\n      pop\n        /* \"#utility.yul\":15276:15279   */\n      0x0100\n        /* \"#utility.yul\":15265:15274   */\n      dup13\n        /* \"#utility.yul\":15261:15280   */\n      add\n        /* \"#utility.yul\":15248:15281   */\n      calldataload\n        /* \"#utility.yul\":15308:15326   */\n      0xffffffffffffffff\n        /* \"#utility.yul\":15300:15306   */\n      dup2\n        /* \"#utility.yul\":15297:15327   */\n      gt\n        /* \"#utility.yul\":15294:15411   */\n      iszero\n      tag_318\n      jumpi\n        /* \"#utility.yul\":15330:15409   */\n      tag_319\n      tag_119\n      jump\t// in\n    tag_319:\n        /* \"#utility.yul\":15294:15411   */\n    tag_318:\n        /* \"#utility.yul\":15435:15498   */\n      tag_320\n        /* \"#utility.yul\":15490:15497   */\n      dup15\n        /* \"#utility.yul\":15481:15487   */\n      dup3\n        /* \"#utility.yul\":15470:15479   */\n      dup16\n        /* \"#utility.yul\":15466:15488   */\n      add\n        /* \"#utility.yul\":15435:15498   */\n      tag_132\n      jump\t// in\n    tag_320:\n        /* \"#utility.yul\":15425:15498   */\n      swap4\n      pop\n        /* \"#utility.yul\":15219:15508   */\n      pop\n        /* \"#utility.yul\":15575:15578   */\n      0x0120\n        /* \"#utility.yul\":15564:15573   */\n      dup13\n        /* \"#utility.yul\":15560:15579   */\n      add\n        /* \"#utility.yul\":15547:15580   */\n      calldataload\n        /* \"#utility.yul\":15607:15625   */\n      0xffffffffffffffff\n        /* \"#utility.yul\":15599:15605   */\n      dup2\n        /* \"#utility.yul\":15596:15626   */\n      gt\n        /* \"#utility.yul\":15593:15710   */\n      iszero\n      tag_321\n      jumpi\n        /* \"#utility.yul\":15629:15708   */\n      tag_322\n      tag_119\n      jump\t// in\n    tag_322:\n        /* \"#utility.yul\":15593:15710   */\n    tag_321:\n        /* \"#utility.yul\":15734:15822   */\n      tag_323\n        /* \"#utility.yul\":15814:15821   */\n      dup15\n        /* \"#utility.yul\":15805:15811   */\n      dup3\n        /* \"#utility.yul\":15794:15803   */\n      dup16\n        /* \"#utility.yul\":15790:15812   */\n      add\n        /* \"#utility.yul\":15734:15822   */\n      tag_151\n      jump\t// in\n    tag_323:\n        /* \"#utility.yul\":15724:15822   */\n      swap3\n      pop\n        /* \"#utility.yul\":15518:15832   */\n      pop\n        /* \"#utility.yul\":15899:15902   */\n      0x0140\n        /* \"#utility.yul\":15888:15897   */\n      dup13\n        /* \"#utility.yul\":15884:15903   */\n      add\n        /* \"#utility.yul\":15871:15904   */\n      calldataload\n        /* \"#utility.yul\":15931:15949   */\n      0xffffffffffffffff\n        /* \"#utility.yul\":15923:15929   */\n      dup2\n        /* \"#utility.yul\":15920:15950   */\n      gt\n        /* \"#utility.yul\":15917:16034   */\n      iszero\n      tag_324\n      jumpi\n        /* \"#utility.yul\":15953:16032   */\n      tag_325\n      tag_119\n      jump\t// in\n    tag_325:\n        /* \"#utility.yul\":15917:16034   */\n    tag_324:\n        /* \"#utility.yul\":16059:16147   */\n      tag_326\n        /* \"#utility.yul\":16139:16146   */\n      dup15\n        /* \"#utility.yul\":16130:16136   */\n      dup3\n        /* \"#utility.yul\":16119:16128   */\n      dup16\n        /* \"#utility.yul\":16115:16137   */\n      add\n        /* \"#utility.yul\":16059:16147   */\n      tag_151\n      jump\t// in\n    tag_326:\n        /* \"#utility.yul\":16048:16147   */\n      swap2\n      pop\n        /* \"#utility.yul\":15842:16157   */\n      pop\n        /* \"#utility.yul\":12655:16164   */\n      swap3\n      swap6\n      swap9\n      swap12\n      pop\n      swap3\n      swap6\n      swap9\n      swap12\n      swap1\n      swap4\n      swap7\n      swap10\n      pop\n      jump\t// out\n        /* \"#utility.yul\":16170:16288   */\n    tag_152:\n        /* \"#utility.yul\":16257:16281   */\n      tag_328\n        /* \"#utility.yul\":16275:16280   */\n      dup2\n        /* \"#utility.yul\":16257:16281   */\n      tag_120\n      jump\t// in\n    tag_328:\n        /* \"#utility.yul\":16252:16255   */\n      dup3\n        /* \"#utility.yul\":16245:16282   */\n      mstore\n        /* \"#utility.yul\":16170:16288   */\n      pop\n      pop\n      jump\t// out\n        /* \"#utility.yul\":16294:16516   */\n    tag_21:\n        /* \"#utility.yul\":16387:16391   */\n      0x00\n        /* \"#utility.yul\":16425:16427   */\n      0x20\n        /* \"#utility.yul\":16414:16423   */\n      dup3\n        /* \"#utility.yul\":16410:16428   */\n      add\n        /* \"#utility.yul\":16402:16428   */\n      swap1\n      pop\n        /* \"#utility.yul\":16438:16509   */\n      tag_330\n        /* \"#utility.yul\":16506:16507   */\n      0x00\n        /* \"#utility.yul\":16495:16504   */\n      dup4\n        /* \"#utility.yul\":16491:16508   */\n      add\n        /* \"#utility.yul\":16482:16488   */\n      dup5\n        /* \"#utility.yul\":16438:16509   */\n      tag_152\n      jump\t// in\n    tag_330:\n        /* \"#utility.yul\":16294:16516   */\n      swap3\n      swap2\n      pop\n      pop\n      jump\t// out\n        /* \"#utility.yul\":16522:16691   */\n    tag_153:\n        /* \"#utility.yul\":16606:16617   */\n      0x00\n        /* \"#utility.yul\":16640:16646   */\n      dup3\n        /* \"#utility.yul\":16635:16638   */\n      dup3\n        /* \"#utility.yul\":16628:16647   */\n      mstore\n        /* \"#utility.yul\":16680:16684   */\n      0x20\n        /* \"#utility.yul\":16675:16678   */\n      dup3\n        /* \"#utility.yul\":16671:16685   */\n      add\n        /* \"#utility.yul\":16656:16685   */\n      swap1\n      pop\n        /* \"#utility.yul\":16522:16691   */\n      swap3\n      swap2\n      pop\n      pop\n      jump\t// out\n        /* \"#utility.yul\":16697:16869   */\n    tag_154:\n        /* \"#utility.yul\":16837:16861   */\n      0x50726f6475637420646f6573206e6f7420657869737400000000000000000000\n        /* \"#utility.yul\":16833:16834   */\n      0x00\n        /* \"#utility.yul\":16825:16831   */\n      dup3\n        /* \"#utility.yul\":16821:16835   */\n      add\n        /* \"#utility.yul\":16814:16862   */\n      mstore\n        /* \"#utility.yul\":16697:16869   */\n      pop\n      jump\t// out\n        /* \"#utility.yul\":16875:17241   */\n    tag_155:\n        /* \"#utility.yul\":17017:17020   */\n      0x00\n        /* \"#utility.yul\":17038:17105   */\n      tag_334\n        /* \"#utility.yul\":17102:17104   */\n      0x16\n        /* \"#utility.yul\":17097:17100   */\n      dup4\n        /* \"#utility.yul\":17038:17105   */\n      tag_153\n      jump\t// in\n    tag_334:\n        /* \"#utility.yul\":17031:17105   */\n      swap2\n      pop\n        /* \"#utility.yul\":17114:17207   */\n      tag_335\n        /* \"#utility.yul\":17203:17206   */\n      dup3\n        /* \"#utility.yul\":17114:17207   */\n      tag_154\n      jump\t// in\n    tag_335:\n        /* \"#utility.yul\":17232:17234   */\n      0x20\n        /* \"#utility.yul\":17227:17230   */\n      dup3\n        /* \"#utility.yul\":17223:17235   */\n      add\n        /* \"#utility.yul\":17216:17235   */\n      swap1\n      pop\n        /* \"#utility.yul\":16875:17241   */\n      swap2\n      swap1\n      pop\n      jump\t// out\n        /* \"#utility.yul\":17247:17666   */\n    tag_25:\n        /* \"#utility.yul\":17413:17417   */\n      0x00\n        /* \"#utility.yul\":17451:17453   */\n      0x20\n        /* \"#utility.yul\":17440:17449   */\n      dup3\n        /* \"#utility.yul\":17436:17454   */\n      add\n        /* \"#utility.yul\":17428:17454   */\n      swap1\n      pop\n        /* \"#utility.yul\":17500:17509   */\n      dup2\n        /* \"#utility.yul\":17494:17498   */\n      dup2\n        /* \"#utility.yul\":17490:17510   */\n      sub\n        /* \"#utility.yul\":17486:17487   */\n      0x00\n        /* \"#utility.yul\":17475:17484   */\n      dup4\n        /* \"#utility.yul\":17471:17488   */\n      add\n        /* \"#utility.yul\":17464:17511   */\n      mstore\n        /* \"#utility.yul\":17528:17659   */\n      tag_337\n        /* \"#utility.yul\":17654:17658   */\n      dup2\n        /* \"#utility.yul\":17528:17659   */\n      tag_155\n      jump\t// in\n    tag_337:\n        /* \"#utility.yul\":17520:17659   */\n      swap1\n      pop\n        /* \"#utility.yul\":17247:17666   */\n      swap2\n      swap1\n      pop\n      jump\t// out\n        /* \"#utility.yul\":17672:17852   */\n    tag_156:\n        /* \"#utility.yul\":17720:17797   */\n      0x4e487b7100000000000000000000000000000000000000000000000000000000\n        /* \"#utility.yul\":17717:17718   */\n      0x00\n        /* \"#utility.yul\":17710:17798   */\n      mstore\n        /* \"#utility.yul\":17817:17821   */\n      0x22\n        /* \"#utility.yul\":17814:17815   */\n      0x04\n        /* \"#utility.yul\":17807:17822   */\n      mstore\n        /* \"#utility.yul\":17841:17845   */\n      0x24\n        /* \"#utility.yul\":17838:17839   */\n      0x00\n        /* \"#utility.yul\":17831:17846   */\n      revert\n        /* \"#utility.yul\":17858:18178   */\n    tag_33:\n        /* \"#utility.yul\":17902:17908   */\n      0x00\n        /* \"#utility.yul\":17939:17940   */\n      0x02\n        /* \"#utility.yul\":17933:17937   */\n      dup3\n        /* \"#utility.yul\":17929:17941   */\n      div\n        /* \"#utility.yul\":17919:17941   */\n      swap1\n      pop\n        /* \"#utility.yul\":17986:17987   */\n      0x01\n        /* \"#utility.yul\":17980:17984   */\n      dup3\n        /* \"#utility.yul\":17976:17988   */\n      and\n        /* \"#utility.yul\":18007:18025   */\n      dup1\n        /* \"#utility.yul\":17997:18078   */\n      tag_340\n      jumpi\n        /* \"#utility.yul\":18063:18067   */\n      0x7f\n        /* \"#utility.yul\":18055:18061   */\n      dup3\n        /* \"#utility.yul\":18051:18068   */\n      and\n        /* \"#utility.yul\":18041:18068   */\n      swap2\n      pop\n        /* \"#utility.yul\":17997:18078   */\n    tag_340:\n        /* \"#utility.yul\":18125:18127   */\n      0x20\n        /* \"#utility.yul\":18117:18123   */\n      dup3\n        /* \"#utility.yul\":18114:18128   */\n      lt\n        /* \"#utility.yul\":18094:18112   */\n      dup2\n        /* \"#utility.yul\":18091:18129   */\n      sub\n        /* \"#utility.yul\":18088:18172   */\n      tag_341\n      jumpi\n        /* \"#utility.yul\":18144:18162   */\n      tag_342\n      tag_156\n      jump\t// in\n    tag_342:\n        /* \"#utility.yul\":18088:18172   */\n    tag_341:\n        /* \"#utility.yul\":17909:18178   */\n      pop\n        /* \"#utility.yul\":17858:18178   */\n      swap2\n      swap1\n      pop\n      jump\t// out\n        /* \"#utility.yul\":18184:18325   */\n    tag_157:\n        /* \"#utility.yul\":18233:18237   */\n      0x00\n        /* \"#utility.yul\":18256:18259   */\n      dup2\n        /* \"#utility.yul\":18248:18259   */\n      swap1\n      pop\n        /* \"#utility.yul\":18279:18282   */\n      dup2\n        /* \"#utility.yul\":18276:18277   */\n      0x00\n        /* \"#utility.yul\":18269:18283   */\n      mstore\n        /* \"#utility.yul\":18313:18317   */\n      0x20\n        /* \"#utility.yul\":18310:18311   */\n      0x00\n        /* \"#utility.yul\":18300:18318   */\n      keccak256\n        /* \"#utility.yul\":18292:18318   */\n      swap1\n      pop\n        /* \"#utility.yul\":18184:18325   */\n      swap2\n      swap1\n      pop\n      jump\t// out\n        /* \"#utility.yul\":18331:18424   */\n    tag_158:\n        /* \"#utility.yul\":18368:18374   */\n      0x00\n        /* \"#utility.yul\":18415:18417   */\n      0x20\n        /* \"#utility.yul\":18410:18412   */\n      0x1f\n        /* \"#utility.yul\":18403:18408   */\n      dup4\n        /* \"#utility.yul\":18399:18413   */\n      add\n        /* \"#utility.yul\":18395:18418   */\n      div\n        /* \"#utility.yul\":18385:18418   */\n      swap1\n      pop\n        /* \"#utility.yul\":18331:18424   */\n      swap2\n      swap1\n      pop\n      jump\t// out\n        /* \"#utility.yul\":18430:18537   */\n    tag_159:\n        /* \"#utility.yul\":18474:18482   */\n      0x00\n        /* \"#utility.yul\":18524:18529   */\n      dup3\n        /* \"#utility.yul\":18518:18522   */\n      dup3\n        /* \"#utility.yul\":18514:18530   */\n      shl\n        /* \"#utility.yul\":18493:18530   */\n      swap1\n      pop\n        /* \"#utility.yul\":18430:18537   */\n      swap3\n      swap2\n      pop\n      pop\n      jump\t// out\n        /* \"#utility.yul\":18543:18936   */\n    tag_160:\n        /* \"#utility.yul\":18612:18618   */\n      0x00\n        /* \"#utility.yul\":18662:18663   */\n      0x08\n        /* \"#utility.yul\":18650:18660   */\n      dup4\n        /* \"#utility.yul\":18646:18664   */\n      mul\n        /* \"#utility.yul\":18685:18782   */\n      tag_347\n        /* \"#utility.yul\":18715:18781   */\n      0xffffffffffffffffffffffffffffffffffffffffffffffffffffffffffffffff\n        /* \"#utility.yul\":18704:18713   */\n      dup3\n        /* \"#utility.yul\":18685:18782   */\n      tag_159\n      jump\t// in\n    tag_347:\n        /* \"#utility.yul\":18803:18842   */\n      tag_348\n        /* \"#utility.yul\":18833:18841   */\n      dup7\n        /* \"#utility.yul\":18822:18831   */\n      dup4\n        /* \"#utility.yul\":18803:18842   */\n      tag_159\n      jump\t// in\n    tag_348:\n        /* \"#utility.yul\":18791:18842   */\n      swap6\n      pop\n        /* \"#utility.yul\":18875:18879   */\n      dup1\n        /* \"#utility.yul\":18871:18880   */\n      not\n        /* \"#utility.yul\":18864:18869   */\n      dup5\n        /* \"#utility.yul\":18860:18881   */\n      and\n        /* \"#utility.yul\":18851:18881   */\n      swap4\n      pop\n        /* \"#utility.yul\":18924:18928   */\n      dup1\n        /* \"#utility.yul\":18914:18922   */\n      dup7\n        /* \"#utility.yul\":18910:18929   */\n      and\n        /* \"#utility.yul\":18903:18908   */\n      dup5\n        /* \"#utility.yul\":18900:18930   */\n      or\n        /* \"#utility.yul\":18890:18930   */\n      swap3\n      pop\n        /* \"#utility.yul\":18619:18936   */\n      pop\n      pop\n        /* \"#utility.yul\":18543:18936   */\n      swap4\n      swap3\n      pop\n      pop\n      pop\n      jump\t// out\n        /* \"#utility.yul\":18942:19002   */\n    tag_161:\n        /* \"#utility.yul\":18970:18973   */\n      0x00\n        /* \"#utility.yul\":18991:18996   */\n      dup2\n        /* \"#utility.yul\":18984:18996   */\n      swap1\n      pop\n        /* \"#utility.yul\":18942:19002   */\n      swap2\n      swap1\n      pop\n      jump\t// out\n        /* \"#utility.yul\":19008:19150   */\n    tag_162:\n        /* \"#utility.yul\":19058:19067   */\n      0x00\n        /* \"#utility.yul\":19091:19144   */\n      tag_351\n        /* \"#utility.yul\":19109:19143   */\n      tag_352\n        /* \"#utility.yul\":19118:19142   */\n      tag_353\n        /* \"#utility.yul\":19136:19141   */\n      dup5\n        /* \"#utility.yul\":19118:19142   */\n      tag_133\n      jump\t// in\n    tag_353:\n        /* \"#utility.yul\":19109:19143   */\n      tag_161\n      jump\t// in\n    tag_352:\n        /* \"#utility.yul\":19091:19144   */\n      tag_133\n      jump\t// in\n    tag_351:\n        /* \"#utility.yul\":19078:19144   */\n      swap1\n      pop\n        /* \"#utility.yul\":19008:19150   */\n      swap2\n      swap1\n      pop\n      jump\t// out\n        /* \"#utility.yul\":19156:19231   */\n    tag_163:\n        /* \"#utility.yul\":19199:19202   */\n      0x00\n        /* \"#utility.yul\":19220:19225   */\n      dup2\n        /* \"#utility.yul\":19213:19225   */\n      swap1\n      pop\n        /* \"#utility.yul\":19156:19231   */\n      swap2\n      swap1\n      pop\n      jump\t// out\n        /* \"#utility.yul\":19237:19506   */\n    tag_164:\n        /* \"#utility.yul\":19347:19386   */\n      tag_356\n        /* \"#utility.yul\":19378:19385   */\n      dup4\n        /* \"#utility.yul\":19347:19386   */\n      tag_162\n      jump\t// in\n    tag_356:\n        /* \"#utility.yul\":19408:19499   */\n      tag_357\n        /* \"#utility.yul\":19457:19498   */\n      tag_358\n        /* \"#utility.yul\":19481:19497   */\n      dup3\n        /* \"#utility.yul\":19457:19498   */\n      tag_163\n      jump\t// in\n    tag_358:\n        /* \"#utility.yul\":19449:19455   */\n      dup5\n        /* \"#utility.yul\":19442:19446   */\n      dup5\n        /* \"#utility.yul\":19436:19447   */\n      sload\n        /* \"#utility.yul\":19408:19499   */\n      tag_160\n      jump\t// in\n    tag_357:\n        /* \"#utility.yul\":19402:19406   */\n      dup3\n        /* \"#utility.yul\":19395:19500   */\n      sstore\n        /* \"#utility.yul\":19313:19506   */\n      pop\n        /* \"#utility.yul\":19237:19506   */\n      pop\n      pop\n      pop\n      jump\t// out\n        /* \"#utility.yul\":19512:19585   */\n    tag_165:\n        /* \"#utility.yul\":19557:19560   */\n      0x00\n        /* \"#utility.yul\":19512:19585   */\n      swap1\n      jump\t// out\n        /* \"#utility.yul\":19591:19780   */\n    tag_166:\n        /* \"#utility.yul\":19668:19700   */\n      tag_361\n      tag_165\n      jump\t// in\n    tag_361:\n        /* \"#utility.yul\":19709:19774   */\n      tag_362\n        /* \"#utility.yul\":19767:19773   */\n      dup2\n        /* \"#utility.yul\":19759:19765   */\n      dup5\n        /* \"#utility.yul\":19753:19757   */\n      dup5\n        /* \"#utility.yul\":19709:19774   */\n      tag_164\n      jump\t// in\n    tag_362:\n        /* \"#utility.yul\":19644:19780   */\n      pop\n        /* \"#utility.yul\":19591:19780   */\n      pop\n      pop\n      jump\t// out\n        /* \"#utility.yul\":19786:19972   */\n    tag_167:\n        /* \"#utility.yul\":19846:19966   */\n    tag_364:\n        /* \"#utility.yul\":19863:19866   */\n      dup2\n        /* \"#utility.yul\":19856:19861   */\n      dup2\n        /* \"#utility.yul\":19853:19867   */\n      lt\n        /* \"#utility.yul\":19846:19966   */\n      iszero\n      tag_366\n      jumpi\n        /* \"#utility.yul\":19917:19956   */\n      tag_367\n        /* \"#utility.yul\":19954:19955   */\n      0x00\n        /* \"#utility.yul\":19947:19952   */\n      dup3\n        /* \"#utility.yul\":19917:19956   */\n      tag_166\n      jump\t// in\n    tag_367:\n        /* \"#utility.yul\":19890:19891   */\n      0x01\n        /* \"#utility.yul\":19883:19888   */\n      dup2\n        /* \"#utility.yul\":19879:19892   */\n      add\n        /* \"#utility.yul\":19870:19892   */\n      swap1\n      pop\n        /* \"#utility.yul\":19846:19966   */\n      jump(tag_364)\n    tag_366:\n        /* \"#utility.yul\":19786:19972   */\n      pop\n      pop\n      jump\t// out\n        /* \"#utility.yul\":19978:20521   */\n    tag_168:\n        /* \"#utility.yul\":20079:20081   */\n      0x1f\n        /* \"#utility.yul\":20074:20077   */\n      dup3\n        /* \"#utility.yul\":20071:20082   */\n      gt\n        /* \"#utility.yul\":20068:20514   */\n      iszero\n      tag_369\n      jumpi\n        /* \"#utility.yul\":20113:20151   */\n      tag_370\n        /* \"#utility.yul\":20145:20150   */\n      dup2\n        /* \"#utility.yul\":20113:20151   */\n      tag_157\n      jump\t// in\n    tag_370:\n        /* \"#utility.yul\":20197:20226   */\n      tag_371\n        /* \"#utility.yul\":20215:20225   */\n      dup5\n        /* \"#utility.yul\":20197:20226   */\n      tag_158\n      jump\t// in\n    tag_371:\n        /* \"#utility.yul\":20187:20195   */\n      dup2\n        /* \"#utility.yul\":20183:20227   */\n      add\n        /* \"#utility.yul\":20380:20382   */\n      0x20\n        /* \"#utility.yul\":20368:20378   */\n      dup6\n        /* \"#utility.yul\":20365:20383   */\n      lt\n        /* \"#utility.yul\":20362:20411   */\n      iszero\n      tag_372\n      jumpi\n        /* \"#utility.yul\":20401:20409   */\n      dup2\n        /* \"#utility.yul\":20386:20409   */\n      swap1\n      pop\n        /* \"#utility.yul\":20362:20411   */\n    tag_372:\n        /* \"#utility.yul\":20424:20504   */\n      tag_373\n        /* \"#utility.yul\":20480:20502   */\n      tag_374\n        /* \"#utility.yul\":20498:20501   */\n      dup6\n        /* \"#utility.yul\":20480:20502   */\n      tag_158\n      jump\t// in\n    tag_374:\n        /* \"#utility.yul\":20470:20478   */\n      dup4\n        /* \"#utility.yul\":20466:20503   */\n      add\n        /* \"#utility.yul\":20453:20464   */\n      dup3\n        /* \"#utility.yul\":20424:20504   */\n      tag_167\n      jump\t// in\n    tag_373:\n        /* \"#utility.yul\":20083:20514   */\n      pop\n      pop\n        /* \"#utility.yul\":20068:20514   */\n    tag_369:\n        /* \"#utility.yul\":19978:20521   */\n      pop\n      pop\n      pop\n      jump\t// out\n        /* \"#utility.yul\":20527:20644   */\n    tag_169:\n        /* \"#utility.yul\":20581:20589   */\n      0x00\n        /* \"#utility.yul\":20631:20636   */\n      dup3\n        /* \"#utility.yul\":20625:20629   */\n      dup3\n        /* \"#utility.yul\":20621:20637   */\n      shr\n        /* \"#utility.yul\":20600:20637   */\n      swap1\n      pop\n        /* \"#utility.yul\":20527:20644   */\n      swap3\n      swap2\n      pop\n      pop\n      jump\t// out\n        /* \"#utility.yul\":20650:20819   */\n    tag_170:\n        /* \"#utility.yul\":20694:20700   */\n      0x00\n        /* \"#utility.yul\":20727:20778   */\n      tag_377\n        /* \"#utility.yul\":20775:20776   */\n      0x00\n        /* \"#utility.yul\":20771:20777   */\n      not\n        /* \"#utility.yul\":20763:20768   */\n      dup5\n        /* \"#utility.yul\":20760:20761   */\n      0x08\n        /* \"#utility.yul\":20756:20769   */\n      mul\n        /* \"#utility.yul\":20727:20778   */\n      tag_169\n      jump\t// in\n    tag_377:\n        /* \"#utility.yul\":20723:20779   */\n      not\n        /* \"#utility.yul\":20808:20812   */\n      dup1\n        /* \"#utility.yul\":20802:20806   */\n      dup4\n        /* \"#utility.yul\":20798:20813   */\n      and\n        /* \"#utility.yul\":20788:20813   */\n      swap2\n      pop\n        /* \"#utility.yul\":20701:20819   */\n      pop\n        /* \"#utility.yul\":20650:20819   */\n      swap3\n      swap2\n      pop\n      pop\n      jump\t// out\n        /* \"#utility.yul\":20824:21119   */\n    tag_171:\n        /* \"#utility.yul\":20900:20904   */\n      0x00\n        /* \"#utility.yul\":21046:21075   */\n      tag_379\n        /* \"#utility.yul\":21071:21074   */\n      dup4\n        /* \"#utility.yul\":21065:21069   */\n      dup4\n        /* \"#utility.yul\":21046:21075   */\n      tag_170\n      jump\t// in\n    tag_379:\n        /* \"#utility.yul\":21038:21075   */\n      swap2\n      pop\n        /* \"#utility.yul\":21108:21111   */\n      dup3\n        /* \"#utility.yul\":21105:21106   */\n      0x02\n        /* \"#utility.yul\":21101:21112   */\n      mul\n        /* \"#utility.yul\":21095:21099   */\n      dup3\n        /* \"#utility.yul\":21092:21113   */\n      or\n        /* \"#utility.yul\":21084:21113   */\n      swap1\n      pop\n        /* \"#utility.yul\":20824:21119   */\n      swap3\n      swap2\n      pop\n      pop\n      jump\t// out\n        /* \"#utility.yul\":21124:22519   */\n    tag_27:\n        /* \"#utility.yul\":21241:21278   */\n      tag_381\n        /* \"#utility.yul\":21274:21277   */\n      dup3\n        /* \"#utility.yul\":21241:21278   */\n      tag_135\n      jump\t// in\n    tag_381:\n        /* \"#utility.yul\":21343:21361   */\n      0xffffffffffffffff\n        /* \"#utility.yul\":21335:21341   */\n      dup2\n        /* \"#utility.yul\":21332:21362   */\n      gt\n        /* \"#utility.yul\":21329:21385   */\n      iszero\n      tag_382\n      jumpi\n        /* \"#utility.yul\":21365:21383   */\n      tag_383\n      tag_126\n      jump\t// in\n    tag_383:\n        /* \"#utility.yul\":21329:21385   */\n    tag_382:\n        /* \"#utility.yul\":21409:21447   */\n      tag_384\n        /* \"#utility.yul\":21441:21445   */\n      dup3\n        /* \"#utility.yul\":21435:21446   */\n      sload\n        /* \"#utility.yul\":21409:21447   */\n      tag_33\n      jump\t// in\n    tag_384:\n        /* \"#utility.yul\":21494:21561   */\n      tag_385\n        /* \"#utility.yul\":21554:21560   */\n      dup3\n        /* \"#utility.yul\":21546:21552   */\n      dup3\n        /* \"#utility.yul\":21540:21544   */\n      dup6\n        /* \"#utility.yul\":21494:21561   */\n      tag_168\n      jump\t// in\n    tag_385:\n        /* \"#utility.yul\":21588:21589   */\n      0x00\n        /* \"#utility.yul\":21612:21616   */\n      0x20\n        /* \"#utility.yul\":21599:21616   */\n      swap1\n      pop\n        /* \"#utility.yul\":21644:21646   */\n      0x1f\n        /* \"#utility.yul\":21636:21642   */\n      dup4\n        /* \"#utility.yul\":21633:21647   */\n      gt\n        /* \"#utility.yul\":21661:21662   */\n      0x01\n        /* \"#utility.yul\":21656:22274   */\n      dup2\n      eq\n      tag_387\n      jumpi\n        /* \"#utility.yul\":22318:22319   */\n      0x00\n        /* \"#utility.yul\":22335:22341   */\n      dup5\n        /* \"#utility.yul\":22332:22409   */\n      iszero\n      tag_388\n      jumpi\n        /* \"#utility.yul\":22384:22393   */\n      dup3\n        /* \"#utility.yul\":22379:22382   */\n      dup8\n        /* \"#utility.yul\":22375:22394   */\n      add\n        /* \"#utility.yul\":22369:22395   */\n      mload\n        /* \"#utility.yul\":22360:22395   */\n      swap1\n      pop\n        /* \"#utility.yul\":22332:22409   */\n    tag_388:\n        /* \"#utility.yul\":22435:22502   */\n      tag_389\n        /* \"#utility.yul\":22495:22501   */\n      dup6\n        /* \"#utility.yul\":22488:22493   */\n      dup3\n        /* \"#utility.yul\":22435:22502   */\n      tag_171\n      jump\t// in\n    tag_389:\n        /* \"#utility.yul\":22429:22433   */\n      dup7\n        /* \"#utility.yul\":22422:22503   */\n      sstore\n        /* \"#utility.yul\":22291:22513   */\n      pop\n        /* \"#utility.yul\":21626:22513   */\n      jump(tag_386)\n        /* \"#utility.yul\":21656:22274   */\n    tag_387:\n        /* \"#utility.yul\":21708:21712   */\n      0x1f\n        /* \"#utility.yul\":21704:21713   */\n      not\n        /* \"#utility.yul\":21696:21702   */\n      dup5\n        /* \"#utility.yul\":21692:21714   */\n      and\n        /* \"#utility.yul\":21742:21779   */\n      tag_390\n        /* \"#utility.yul\":21774:21778   */\n      dup7\n        /* \"#utility.yul\":21742:21779   */\n      tag_157\n      jump\t// in\n    tag_390:\n        /* \"#utility.yul\":21801:21802   */\n      0x00\n        /* \"#utility.yul\":21815:22023   */\n    tag_391:\n        /* \"#utility.yul\":21829:21836   */\n      dup3\n        /* \"#utility.yul\":21826:21827   */\n      dup2\n        /* \"#utility.yul\":21823:21837   */\n      lt\n        /* \"#utility.yul\":21815:22023   */\n      iszero\n      tag_393\n      jumpi\n        /* \"#utility.yul\":21908:21917   */\n      dup5\n        /* \"#utility.yul\":21903:21906   */\n      dup10\n        /* \"#utility.yul\":21899:21918   */\n      add\n        /* \"#utility.yul\":21893:21919   */\n      mload\n        /* \"#utility.yul\":21885:21891   */\n      dup3\n        /* \"#utility.yul\":21878:21920   */\n      sstore\n        /* \"#utility.yul\":21959:21960   */\n      0x01\n        /* \"#utility.yul\":21951:21957   */\n      dup3\n        /* \"#utility.yul\":21947:21961   */\n      add\n        /* \"#utility.yul\":21937:21961   */\n      swap2\n      pop\n        /* \"#utility.yul\":22006:22008   */\n      0x20\n        /* \"#utility.yul\":21995:22004   */\n      dup6\n        /* \"#utility.yul\":21991:22009   */\n      add\n        /* \"#utility.yul\":21978:22009   */\n      swap5\n      pop\n        /* \"#utility.yul\":21852:21856   */\n      0x20\n        /* \"#utility.yul\":21849:21850   */\n      dup2\n        /* \"#utility.yul\":21845:21857   */\n      add\n        /* \"#utility.yul\":21840:21857   */\n      swap1\n      pop\n        /* \"#utility.yul\":21815:22023   */\n      jump(tag_391)\n    tag_393:\n        /* \"#utility.yul\":22051:22057   */\n      dup7\n        /* \"#utility.yul\":22042:22049   */\n      dup4\n        /* \"#utility.yul\":22039:22058   */\n      lt\n        /* \"#utility.yul\":22036:22215   */\n      iszero\n      tag_394\n      jumpi\n        /* \"#utility.yul\":22109:22118   */\n      dup5\n        /* \"#utility.yul\":22104:22107   */\n      dup10\n        /* \"#utility.yul\":22100:22119   */\n      add\n        /* \"#utility.yul\":22094:22120   */\n      mload\n        /* \"#utility.yul\":22152:22200   */\n      tag_395\n        /* \"#utility.yul\":22194:22198   */\n      0x1f\n        /* \"#utility.yul\":22186:22192   */\n      dup10\n        /* \"#utility.yul\":22182:22199   */\n      and\n        /* \"#utility.yul\":22171:22180   */\n      dup3\n        /* \"#utility.yul\":22152:22200   */\n      tag_170\n      jump\t// in\n    tag_395:\n        /* \"#utility.yul\":22144:22150   */\n      dup4\n        /* \"#utility.yul\":22137:22201   */\n      sstore\n        /* \"#utility.yul\":22059:22215   */\n      pop\n        /* \"#utility.yul\":22036:22215   */\n    tag_394:\n        /* \"#utility.yul\":22261:22262   */\n      0x01\n        /* \"#utility.yul\":22257:22258   */\n      0x02\n        /* \"#utility.yul\":22249:22255   */\n      dup9\n        /* \"#utility.yul\":22245:22259   */\n      mul\n        /* \"#utility.yul\":22241:22263   */\n      add\n        /* \"#utility.yul\":22235:22239   */\n      dup9\n        /* \"#utility.yul\":22228:22264   */\n      sstore\n        /* \"#utility.yul\":21663:22274   */\n      pop\n      pop\n      pop\n        /* \"#utility.yul\":21626:22513   */\n    tag_386:\n      pop\n        /* \"#utility.yul\":21216:22519   */\n      pop\n      pop\n      pop\n        /* \"#utility.yul\":21124:22519   */\n      pop\n      pop\n      jump\t// out\n        /* \"#utility.yul\":22525:22604   */\n    tag_172:\n        /* \"#utility.yul\":22564:22571   */\n      0x00\n        /* \"#utility.yul\":22593:22598   */\n      dup2\n        /* \"#utility.yul\":22582:22598   */\n      swap1\n      pop\n        /* \"#utility.yul\":22525:22604   */\n      swap2\n      swap1\n      pop\n      jump\t// out\n        /* \"#utility.yul\":22610:22767   */\n    tag_173:\n        /* \"#utility.yul\":22715:22760   */\n      tag_398\n        /* \"#utility.yul\":22735:22759   */\n      tag_399\n        /* \"#utility.yul\":22753:22758   */\n      dup3\n        /* \"#utility.yul\":22735:22759   */\n      tag_133\n      jump\t// in\n    tag_399:\n        /* \"#utility.yul\":22715:22760   */\n      tag_172\n      jump\t// in\n    tag_398:\n        /* \"#utility.yul\":22710:22713   */\n      dup3\n        /* \"#utility.yul\":22703:22761   */\n      mstore\n        /* \"#utility.yul\":22610:22767   */\n      pop\n      pop\n      jump\t// out\n        /* \"#utility.yul\":22773:22921   */\n    tag_174:\n        /* \"#utility.yul\":22875:22886   */\n      0x00\n        /* \"#utility.yul\":22912:22915   */\n      dup2\n        /* \"#utility.yul\":22897:22915   */\n      swap1\n      pop\n        /* \"#utility.yul\":22773:22921   */\n      swap3\n      swap2\n      pop\n      pop\n      jump\t// out\n        /* \"#utility.yul\":22927:23317   */\n    tag_175:\n        /* \"#utility.yul\":23033:23036   */\n      0x00\n        /* \"#utility.yul\":23061:23100   */\n      tag_402\n        /* \"#utility.yul\":23094:23099   */\n      dup3\n        /* \"#utility.yul\":23061:23100   */\n      tag_135\n      jump\t// in\n    tag_402:\n        /* \"#utility.yul\":23116:23205   */\n      tag_403\n        /* \"#utility.yul\":23198:23204   */\n      dup2\n        /* \"#utility.yul\":23193:23196   */\n      dup6\n        /* \"#utility.yul\":23116:23205   */\n      tag_174\n      jump\t// in\n    tag_403:\n        /* \"#utility.yul\":23109:23205   */\n      swap4\n      pop\n        /* \"#utility.yul\":23214:23279   */\n      tag_404\n        /* \"#utility.yul\":23272:23278   */\n      dup2\n        /* \"#utility.yul\":23267:23270   */\n      dup6\n        /* \"#utility.yul\":23260:23264   */\n      0x20\n        /* \"#utility.yul\":23253:23258   */\n      dup7\n        /* \"#utility.yul\":23249:23265   */\n      add\n        /* \"#utility.yul\":23214:23279   */\n      tag_137\n      jump\t// in\n    tag_404:\n        /* \"#utility.yul\":23304:23310   */\n      dup1\n        /* \"#utility.yul\":23299:23302   */\n      dup5\n        /* \"#utility.yul\":23295:23311   */\n      add\n        /* \"#utility.yul\":23288:23311   */\n      swap2\n      pop\n        /* \"#utility.yul\":23037:23317   */\n      pop\n        /* \"#utility.yul\":22927:23317   */\n      swap3\n      swap2\n      pop\n      pop\n      jump\t// out\n        /* \"#utility.yul\":23323:24840   */\n    tag_86:\n        /* \"#utility.yul\":23799:23802   */\n      0x00\n        /* \"#utility.yul\":23814:23889   */\n      tag_406\n        /* \"#utility.yul\":23885:23888   */\n      dup3\n        /* \"#utility.yul\":23876:23882   */\n      dup13\n        /* \"#utility.yul\":23814:23889   */\n      tag_173\n      jump\t// in\n    tag_406:\n        /* \"#utility.yul\":23914:23916   */\n      0x20\n        /* \"#utility.yul\":23909:23912   */\n      dup3\n        /* \"#utility.yul\":23905:23917   */\n      add\n        /* \"#utility.yul\":23898:23917   */\n      swap2\n      pop\n        /* \"#utility.yul\":23934:24029   */\n      tag_407\n        /* \"#utility.yul\":24025:24028   */\n      dup3\n        /* \"#utility.yul\":24016:24022   */\n      dup12\n        /* \"#utility.yul\":23934:24029   */\n      tag_175\n      jump\t// in\n    tag_407:\n        /* \"#utility.yul\":23927:24029   */\n      swap2\n      pop\n        /* \"#utility.yul\":24046:24141   */\n      tag_408\n        /* \"#utility.yul\":24137:24140   */\n      dup3\n        /* \"#utility.yul\":24128:24134   */\n      dup11\n        /* \"#utility.yul\":24046:24141   */\n      tag_175\n      jump\t// in\n    tag_408:\n        /* \"#utility.yul\":24039:24141   */\n      swap2\n      pop\n        /* \"#utility.yul\":24158:24253   */\n      tag_409\n        /* \"#utility.yul\":24249:24252   */\n      dup3\n        /* \"#utility.yul\":24240:24246   */\n      dup10\n        /* \"#utility.yul\":24158:24253   */\n      tag_175\n      jump\t// in\n    tag_409:\n        /* \"#utility.yul\":24151:24253   */\n      swap2\n      pop\n        /* \"#utility.yul\":24263:24338   */\n      tag_410\n        /* \"#utility.yul\":24334:24337   */\n      dup3\n        /* \"#utility.yul\":24325:24331   */\n      dup9\n        /* \"#utility.yul\":24263:24338   */\n      tag_173\n      jump\t// in\n    tag_410:\n        /* \"#utility.yul\":24363:24365   */\n      0x20\n        /* \"#utility.yul\":24358:24361   */\n      dup3\n        /* \"#utility.yul\":24354:24366   */\n      add\n        /* \"#utility.yul\":24347:24366   */\n      swap2\n      pop\n        /* \"#utility.yul\":24383:24478   */\n      tag_411\n        /* \"#utility.yul\":24474:24477   */\n      dup3\n        /* \"#utility.yul\":24465:24471   */\n      dup8\n        /* \"#utility.yul\":24383:24478   */\n      tag_175\n      jump\t// in\n    tag_411:\n        /* \"#utility.yul\":24376:24478   */\n      swap2\n      pop\n        /* \"#utility.yul\":24495:24590   */\n      tag_412\n        /* \"#utility.yul\":24586:24589   */\n      dup3\n        /* \"#utility.yul\":24577:24583   */\n      dup7\n        /* \"#utility.yul\":24495:24590   */\n      tag_175\n      jump\t// in\n    tag_412:\n        /* \"#utility.yul\":24488:24590   */\n      swap2\n      pop\n        /* \"#utility.yul\":24607:24702   */\n      tag_413\n        /* \"#utility.yul\":24698:24701   */\n      dup3\n        /* \"#utility.yul\":24689:24695   */\n      dup6\n        /* \"#utility.yul\":24607:24702   */\n      tag_175\n      jump\t// in\n    tag_413:\n        /* \"#utility.yul\":24600:24702   */\n      swap2\n      pop\n        /* \"#utility.yul\":24719:24814   */\n      tag_414\n        /* \"#utility.yul\":24810:24813   */\n      dup3\n        /* \"#utility.yul\":24801:24807   */\n      dup5\n        /* \"#utility.yul\":24719:24814   */\n      tag_175\n      jump\t// in\n    tag_414:\n        /* \"#utility.yul\":24712:24814   */\n      swap2\n      pop\n        /* \"#utility.yul\":24831:24834   */\n      dup2\n        /* \"#utility.yul\":24824:24834   */\n      swap1\n      pop\n        /* \"#utility.yul\":23323:24840   */\n      swap11\n      swap10\n      pop\n      pop\n      pop\n      pop\n      pop\n      pop\n      pop\n      pop\n      pop\n      pop\n      jump\t// out\n        /* \"#utility.yul\":24846:25018   */\n    tag_176:\n        /* \"#utility.yul\":24986:25010   */\n      0x50726f6475637420616c72656164792065786973747300000000000000000000\n        /* \"#utility.yul\":24982:24983   */\n      0x00\n        /* \"#utility.yul\":24974:24980   */\n      dup3\n        /* \"#utility.yul\":24970:24984   */\n      add\n        /* \"#utility.yul\":24963:25011   */\n      mstore\n        /* \"#utility.yul\":24846:25018   */\n      pop\n      jump\t// out\n        /* \"#utility.yul\":25024:25390   */\n    tag_177:\n        /* \"#utility.yul\":25166:25169   */\n      0x00\n        /* \"#utility.yul\":25187:25254   */\n      tag_417\n        /* \"#utility.yul\":25251:25253   */\n      0x16\n        /* \"#utility.yul\":25246:25249   */\n      dup4\n        /* \"#utility.yul\":25187:25254   */\n      tag_153\n      jump\t// in\n    tag_417:\n        /* \"#utility.yul\":25180:25254   */\n      swap2\n      pop\n        /* \"#utility.yul\":25263:25356   */\n      tag_418\n        /* \"#utility.yul\":25352:25355   */\n      dup3\n        /* \"#utility.yul\":25263:25356   */\n      tag_176\n      jump\t// in\n    tag_418:\n        /* \"#utility.yul\":25381:25383   */\n      0x20\n        /* \"#utility.yul\":25376:25379   */\n      dup3\n        /* \"#utility.yul\":25372:25384   */\n      add\n        /* \"#utility.yul\":25365:25384   */\n      swap1\n      pop\n        /* \"#utility.yul\":25024:25390   */\n      swap2\n      swap1\n      pop\n      jump\t// out\n        /* \"#utility.yul\":25396:25815   */\n    tag_89:\n        /* \"#utility.yul\":25562:25566   */\n      0x00\n        /* \"#utility.yul\":25600:25602   */\n      0x20\n        /* \"#utility.yul\":25589:25598   */\n      dup3\n        /* \"#utility.yul\":25585:25603   */\n      add\n        /* \"#utility.yul\":25577:25603   */\n      swap1\n      pop\n        /* \"#utility.yul\":25649:25658   */\n      dup2\n        /* \"#utility.yul\":25643:25647   */\n      dup2\n        /* \"#utility.yul\":25639:25659   */\n      sub\n        /* \"#utility.yul\":25635:25636   */\n      0x00\n        /* \"#utility.yul\":25624:25633   */\n      dup4\n        /* \"#utility.yul\":25620:25637   */\n      add\n        /* \"#utility.yul\":25613:25660   */\n      mstore\n        /* \"#utility.yul\":25677:25808   */\n      tag_420\n        /* \"#utility.yul\":25803:25807   */\n      dup2\n        /* \"#utility.yul\":25677:25808   */\n      tag_177\n      jump\t// in\n    tag_420:\n        /* \"#utility.yul\":25669:25808   */\n      swap1\n      pop\n        /* \"#utility.yul\":25396:25815   */\n      swap2\n      swap1\n      pop\n      jump\t// out\n\n    auxdata: 0xa26469706673582212205ad893112e193afcac83c1889702a937cf497fe4fd81357a1adaa972f59b9d8e64736f6c63430008120033\n}\n",
				"bytecode": {
					"linkReferences": {},
					"object": "608060405234801561001057600080fd5b506117a2806100206000396000f3fe608060405234801561001057600080fd5b50600436106100415760003560e01c8063b4bc0b9314610046578063b74d3fb514610062578063dbda06f914610092575b600080fd5b610060600480360381019061005b9190610c3a565b6100c2565b005b61007c60048036038101906100779190610cc5565b610165565b6040516100899190610f73565b60405180910390f35b6100ac60048036038101906100a791906110a7565b610756565b6040516100b991906112a6565b60405180910390f35b6000806000858152602001908152602001600020600001540361011a576040517f08c379a00000000000000000000000000000000000000000000000000000000081526004016101119061131e565b60405180910390fd5b81600080858152602001908152602001600020600201908161013c919061154a565b5080600080858152602001908152602001600020600301908161015f919061154a565b50505050565b61016d610976565b60008083815260200190815260200160002060405180610160016040529081600082015481526020016001820180546101a59061136d565b80601f01602080910402602001604051908101604052809291908181526020018280546101d19061136d565b801561021e5780601f106101f35761010080835404028352916020019161021e565b820191906000526020600020905b81548152906001019060200180831161020157829003601f168201915b505050505081526020016002820180546102379061136d565b80601f01602080910402602001604051908101604052809291908181526020018280546102639061136d565b80156102b05780601f10610285576101008083540402835291602001916102b0565b820191906000526020600020905b81548152906001019060200180831161029357829003601f168201915b505050505081526020016003820180546102c99061136d565b80601f01602080910402602001604051908101604052809291908181526020018280546102f59061136d565b80156103425780601f1061031757610100808354040283529160200191610342565b820191906000526020600020905b81548152906001019060200180831161032557829003601f168201915b50505050508152602001600482015481526020016005820180546103659061136d565b80601f01602080910402602001604051908101604052809291908181526020018280546103919061136d565b80156103de5780601f106103b3576101008083540402835291602001916103de565b820191906000526020600020905b8154815290600101906020018083116103c157829003601f168201915b505050505081526020016006820180546103f79061136d565b80601f01602080910402602001604051908101604052809291908181526020018280546104239061136d565b80156104705780601f1061044557610100808354040283529160200191610470565b820191906000526020600020905b81548152906001019060200180831161045357829003601f168201915b505050505081526020016007820180546104899061136d565b80601f01602080910402602001604051908101604052809291908181526020018280546104b59061136d565b80156105025780601f106104d757610100808354040283529160200191610502565b820191906000526020600020905b8154815290600101906020018083116104e557829003601f168201915b5050505050815260200160088201805461051b9061136d565b80601f01602080910402602001604051908101604052809291908181526020018280546105479061136d565b80156105945780601f1061056957610100808354040283529160200191610594565b820191906000526020600020905b81548152906001019060200180831161057757829003601f168201915b5050505050815260200160098201805480602002602001604051908101604052809291908181526020016000905b8282101561066e5783829060005260206000200180546105e19061136d565b80601f016020809104026020016040519081016040528092919081815260200182805461060d9061136d565b801561065a5780601f1061062f5761010080835404028352916020019161065a565b820191906000526020600020905b81548152906001019060200180831161063d57829003601f168201915b5050505050815260200190600101906105c2565b505050508152602001600a8201805480602002602001604051908101604052809291908181526020016000905b828210156107475783829060005260206000200180546106ba9061136d565b80601f01602080910402602001604051908101604052809291908181526020018280546106e69061136d565b80156107335780601f1061070857610100808354040283529160200191610733565b820191906000526020600020905b81548152906001019060200180831161071657829003601f168201915b50505050508152602001906001019061069b565b50505050815250509050919050565b6000808c8c8c8c8c8c8c8c8c60405160200161077a99989796959493929190611679565b604051602081830303815290604052805190602001209050600080600083815260200190815260200160002060000154146107ea576040517f08c379a00000000000000000000000000000000000000000000000000000000081526004016107e19061174c565b60405180910390fd5b6040518061016001604052808e81526020018d81526020018c81526020018b81526020018a815260200189815260200188815260200187815260200186815260200185815260200184815250600080838152602001908152602001600020600082015181600001556020820151816001019081610867919061154a565b50604082015181600201908161087d919061154a565b506060820151816003019081610893919061154a565b506080820151816004015560a08201518160050190816108b3919061154a565b5060c08201518160060190816108c9919061154a565b5060e08201518160070190816108df919061154a565b506101008201518160080190816108f6919061154a565b506101208201518160090190805190602001906109149291906109d0565b5061014082015181600a0190805190602001906109329291906109d0565b50905050807f6c2de183f2a2faf4876f357e3c75bf6e6e7aa4dd120e8b5e1bdb2901e085f69c60405160405180910390a2809150509b9a5050505050505050505050565b60405180610160016040528060008152602001606081526020016060815260200160608152602001600081526020016060815260200160608152602001606081526020016060815260200160608152602001606081525090565b828054828255906000526020600020908101928215610a18579160200282015b82811115610a17578251829081610a07919061154a565b50916020019190600101906109f0565b5b509050610a259190610a29565b5090565b5b80821115610a495760008181610a409190610a4d565b50600101610a2a565b5090565b508054610a599061136d565b6000825580601f10610a6b5750610a8a565b601f016020900490600052602060002090810190610a899190610a8d565b5b50565b5b80821115610aa6576000816000905550600101610a8e565b5090565b6000604051905090565b600080fd5b600080fd5b6000819050919050565b610ad181610abe565b8114610adc57600080fd5b50565b600081359050610aee81610ac8565b92915050565b600080fd5b600080fd5b6000601f19601f8301169050919050565b7f4e487b7100000000000000000000000000000000000000000000000000000000600052604160045260246000fd5b610b4782610afe565b810181811067ffffffffffffffff82111715610b6657610b65610b0f565b5b80604052505050565b6000610b79610aaa565b9050610b858282610b3e565b919050565b600067ffffffffffffffff821115610ba557610ba4610b0f565b5b610bae82610afe565b9050602081019050919050565b82818337600083830152505050565b6000610bdd610bd884610b8a565b610b6f565b905082815260208101848484011115610bf957610bf8610af9565b5b610c04848285610bbb565b509392505050565b600082601f830112610c2157610c20610af4565b5b8135610c31848260208601610bca565b91505092915050565b600080600060608486031215610c5357610c52610ab4565b5b6000610c6186828701610adf565b935050602084013567ffffffffffffffff811115610c8257610c81610ab9565b5b610c8e86828701610c0c565b925050604084013567ffffffffffffffff811115610caf57610cae610ab9565b5b610cbb86828701610c0c565b9150509250925092565b600060208284031215610cdb57610cda610ab4565b5b6000610ce984828501610adf565b91505092915050565b6000819050919050565b610d0581610cf2565b82525050565b600081519050919050565b600082825260208201905092915050565b60005b83811015610d45578082015181840152602081019050610d2a565b60008484015250505050565b6000610d5c82610d0b565b610d668185610d16565b9350610d76818560208601610d27565b610d7f81610afe565b840191505092915050565b600081519050919050565b600082825260208201905092915050565b6000819050602082019050919050565b6000610dc28383610d51565b905092915050565b6000602082019050919050565b6000610de282610d8a565b610dec8185610d95565b935083602082028501610dfe85610da6565b8060005b85811015610e3a5784840389528151610e1b8582610db6565b9450610e2683610dca565b925060208a01995050600181019050610e02565b50829750879550505050505092915050565b600061016083016000830151610e656000860182610cfc565b5060208301518482036020860152610e7d8282610d51565b91505060408301518482036040860152610e978282610d51565b91505060608301518482036060860152610eb18282610d51565b9150506080830151610ec66080860182610cfc565b5060a083015184820360a0860152610ede8282610d51565b91505060c083015184820360c0860152610ef88282610d51565b91505060e083015184820360e0860152610f128282610d51565b915050610100830151848203610100860152610f2e8282610d51565b915050610120830151848203610120860152610f4a8282610dd7565b915050610140830151848203610140860152610f668282610dd7565b9150508091505092915050565b60006020820190508181036000830152610f8d8184610e4c565b905092915050565b610f9e81610cf2565b8114610fa957600080fd5b50565b600081359050610fbb81610f95565b92915050565b600067ffffffffffffffff821115610fdc57610fdb610b0f565b5b602082029050602081019050919050565b600080fd5b600061100561100084610fc1565b610b6f565b9050808382526020820190506020840283018581111561102857611027610fed565b5b835b8181101561106f57803567ffffffffffffffff81111561104d5761104c610af4565b5b80860161105a8982610c0c565b8552602085019450505060208101905061102a565b5050509392505050565b600082601f83011261108e5761108d610af4565b5b813561109e848260208601610ff2565b91505092915050565b60008060008060008060008060008060006101608c8e0312156110cd576110cc610ab4565b5b60006110db8e828f01610fac565b9b505060208c013567ffffffffffffffff8111156110fc576110fb610ab9565b5b6111088e828f01610c0c565b9a505060408c013567ffffffffffffffff81111561112957611128610ab9565b5b6111358e828f01610c0c565b99505060608c013567ffffffffffffffff81111561115657611155610ab9565b5b6111628e828f01610c0c565b98505060806111738e828f01610fac565b97505060a08c013567ffffffffffffffff81111561119457611193610ab9565b5b6111a08e828f01610c0c565b96505060c08c013567ffffffffffffffff8111156111c1576111c0610ab9565b5b6111cd8e828f01610c0c565b95505060e08c013567ffffffffffffffff8111156111ee576111ed610ab9565b5b6111fa8e828f01610c0c565b9450506101008c013567ffffffffffffffff81111561121c5761121b610ab9565b5b6112288e828f01610c0c565b9350506101208c013567ffffffffffffffff81111561124a57611249610ab9565b5b6112568e828f01611079565b9250506101408c013567ffffffffffffffff81111561127857611277610ab9565b5b6112848e828f01611079565b9150509295989b509295989b9093969950565b6112a081610abe565b82525050565b60006020820190506112bb6000830184611297565b92915050565b600082825260208201905092915050565b7f50726f6475637420646f6573206e6f7420657869737400000000000000000000600082015250565b60006113086016836112c1565b9150611313826112d2565b602082019050919050565b60006020820190508181036000830152611337816112fb565b9050919050565b7f4e487b7100000000000000000000000000000000000000000000000000000000600052602260045260246000fd5b6000600282049050600182168061138557607f821691505b6020821081036113985761139761133e565b5b50919050565b60008190508160005260206000209050919050565b60006020601f8301049050919050565b600082821b905092915050565b6000600883026114007fffffffffffffffffffffffffffffffffffffffffffffffffffffffffffffffff826113c3565b61140a86836113c3565b95508019841693508086168417925050509392505050565b6000819050919050565b600061144761144261143d84610cf2565b611422565b610cf2565b9050919050565b6000819050919050565b6114618361142c565b61147561146d8261144e565b8484546113d0565b825550505050565b600090565b61148a61147d565b611495818484611458565b505050565b5b818110156114b9576114ae600082611482565b60018101905061149b565b5050565b601f8211156114fe576114cf8161139e565b6114d8846113b3565b810160208510156114e7578190505b6114fb6114f3856113b3565b83018261149a565b50505b505050565b600082821c905092915050565b600061152160001984600802611503565b1980831691505092915050565b600061153a8383611510565b9150826002028217905092915050565b61155382610d0b565b67ffffffffffffffff81111561156c5761156b610b0f565b5b611576825461136d565b6115818282856114bd565b600060209050601f8311600181146115b457600084156115a2578287015190505b6115ac858261152e565b865550611614565b601f1984166115c28661139e565b60005b828110156115ea578489015182556001820191506020850194506020810190506115c5565b868310156116075784890151611603601f891682611510565b8355505b6001600288020188555050505b505050505050565b6000819050919050565b61163761163282610cf2565b61161c565b82525050565b600081905092915050565b600061165382610d0b565b61165d818561163d565b935061166d818560208601610d27565b80840191505092915050565b6000611685828c611626565b602082019150611695828b611648565b91506116a1828a611648565b91506116ad8289611648565b91506116b98288611626565b6020820191506116c98287611648565b91506116d58286611648565b91506116e18285611648565b91506116ed8284611648565b91508190509a9950505050505050505050565b7f50726f6475637420616c72656164792065786973747300000000000000000000600082015250565b60006117366016836112c1565b915061174182611700565b602082019050919050565b6000602082019050818103600083015261176581611729565b905091905056fea26469706673582212205ad893112e193afcac83c1889702a937cf497fe4fd81357a1adaa972f59b9d8e64736f6c63430008120033",
					"opcodes": "PUSH1 0x80 PUSH1 0x40 MSTORE CALLVALUE DUP1 ISZERO PUSH2 0x10 JUMPI PUSH1 0x0 DUP1 REVERT JUMPDEST POP PUSH2 0x17A2 DUP1 PUSH2 0x20 PUSH1 0x0 CODECOPY PUSH1 0x0 RETURN INVALID PUSH1 0x80 PUSH1 0x40 MSTORE CALLVALUE DUP1 ISZERO PUSH2 0x10 JUMPI PUSH1 0x0 DUP1 REVERT JUMPDEST POP PUSH1 0x4 CALLDATASIZE LT PUSH2 0x41 JUMPI PUSH1 0x0 CALLDATALOAD PUSH1 0xE0 SHR DUP1 PUSH4 0xB4BC0B93 EQ PUSH2 0x46 JUMPI DUP1 PUSH4 0xB74D3FB5 EQ PUSH2 0x62 JUMPI DUP1 PUSH4 0xDBDA06F9 EQ PUSH2 0x92 JUMPI JUMPDEST PUSH1 0x0 DUP1 REVERT JUMPDEST PUSH2 0x60 PUSH1 0x4 DUP1 CALLDATASIZE SUB DUP2 ADD SWAP1 PUSH2 0x5B SWAP2 SWAP1 PUSH2 0xC3A JUMP JUMPDEST PUSH2 0xC2 JUMP JUMPDEST STOP JUMPDEST PUSH2 0x7C PUSH1 0x4 DUP1 CALLDATASIZE SUB DUP2 ADD SWAP1 PUSH2 0x77 SWAP2 SWAP1 PUSH2 0xCC5 JUMP JUMPDEST PUSH2 0x165 JUMP JUMPDEST PUSH1 0x40 MLOAD PUSH2 0x89 SWAP2 SWAP1 PUSH2 0xF73 JUMP JUMPDEST PUSH1 0x40 MLOAD DUP1 SWAP2 SUB SWAP1 RETURN JUMPDEST PUSH2 0xAC PUSH1 0x4 DUP1 CALLDATASIZE SUB DUP2 ADD SWAP1 PUSH2 0xA7 SWAP2 SWAP1 PUSH2 0x10A7 JUMP JUMPDEST PUSH2 0x756 JUMP JUMPDEST PUSH1 0x40 MLOAD PUSH2 0xB9 SWAP2 SWAP1 PUSH2 0x12A6 JUMP JUMPDEST PUSH1 0x40 MLOAD DUP1 SWAP2 SUB SWAP1 RETURN JUMPDEST PUSH1 0x0 DUP1 PUSH1 0x0 DUP6 DUP2 MSTORE PUSH1 0x20 ADD SWAP1 DUP2 MSTORE PUSH1 0x20 ADD PUSH1 0x0 KECCAK256 PUSH1 0x0 ADD SLOAD SUB PUSH2 0x11A JUMPI PUSH1 0x40 MLOAD PUSH32 0x8C379A000000000000000000000000000000000000000000000000000000000 DUP2 MSTORE PUSH1 0x4 ADD PUSH2 0x111 SWAP1 PUSH2 0x131E JUMP JUMPDEST PUSH1 0x40 MLOAD DUP1 SWAP2 SUB SWAP1 REVERT JUMPDEST DUP2 PUSH1 0x0 DUP1 DUP6 DUP2 MSTORE PUSH1 0x20 ADD SWAP1 DUP2 MSTORE PUSH1 0x20 ADD PUSH1 0x0 KECCAK256 PUSH1 0x2 ADD SWAP1 DUP2 PUSH2 0x13C SWAP2 SWAP1 PUSH2 0x154A JUMP JUMPDEST POP DUP1 PUSH1 0x0 DUP1 DUP6 DUP2 MSTORE PUSH1 0x20 ADD SWAP1 DUP2 MSTORE PUSH1 0x20 ADD PUSH1 0x0 KECCAK256 PUSH1 0x3 ADD SWAP1 DUP2 PUSH2 0x15F SWAP2 SWAP1 PUSH2 0x154A JUMP JUMPDEST POP POP POP POP JUMP JUMPDEST PUSH2 0x16D PUSH2 0x976 JUMP JUMPDEST PUSH1 0x0 DUP1 DUP4 DUP2 MSTORE PUSH1 0x20 ADD SWAP1 DUP2 MSTORE PUSH1 0x20 ADD PUSH1 0x0 KECCAK256 PUSH1 0x40 MLOAD DUP1 PUSH2 0x160 ADD PUSH1 0x40 MSTORE SWAP1 DUP2 PUSH1 0x0 DUP3 ADD SLOAD DUP2 MSTORE PUSH1 0x20 ADD PUSH1 0x1 DUP3 ADD DUP1 SLOAD PUSH2 0x1A5 SWAP1 PUSH2 0x136D JUMP JUMPDEST DUP1 PUSH1 0x1F ADD PUSH1 0x20 DUP1 SWAP2 DIV MUL PUSH1 0x20 ADD PUSH1 0x40 MLOAD SWAP1 DUP2 ADD PUSH1 0x40 MSTORE DUP1 SWAP3 SWAP2 SWAP1 DUP2 DUP2 MSTORE PUSH1 0x20 ADD DUP3 DUP1 SLOAD PUSH2 0x1D1 SWAP1 PUSH2 0x136D JUMP JUMPDEST DUP1 ISZERO PUSH2 0x21E JUMPI DUP1 PUSH1 0x1F LT PUSH2 0x1F3 JUMPI PUSH2 0x100 DUP1 DUP4 SLOAD DIV MUL DUP4 MSTORE SWAP2 PUSH1 0x20 ADD SWAP2 PUSH2 0x21E JUMP JUMPDEST DUP3 ADD SWAP2 SWAP1 PUSH1 0x0 MSTORE PUSH1 0x20 PUSH1 0x0 KECCAK256 SWAP1 JUMPDEST DUP2 SLOAD DUP2 MSTORE SWAP1 PUSH1 0x1 ADD SWAP1 PUSH1 0x20 ADD DUP1 DUP4 GT PUSH2 0x201 JUMPI DUP3 SWAP1 SUB PUSH1 0x1F AND DUP3 ADD SWAP2 JUMPDEST POP POP POP POP POP DUP2 MSTORE PUSH1 0x20 ADD PUSH1 0x2 DUP3 ADD DUP1 SLOAD PUSH2 0x237 SWAP1 PUSH2 0x136D JUMP JUMPDEST DUP1 PUSH1 0x1F ADD PUSH1 0x20 DUP1 SWAP2 DIV MUL PUSH1 0x20 ADD PUSH1 0x40 MLOAD SWAP1 DUP2 ADD PUSH1 0x40 MSTORE DUP1 SWAP3 SWAP2 SWAP1 DUP2 DUP2 MSTORE PUSH1 0x20 ADD DUP3 DUP1 SLOAD PUSH2 0x263 SWAP1 PUSH2 0x136D JUMP JUMPDEST DUP1 ISZERO PUSH2 0x2B0 JUMPI DUP1 PUSH1 0x1F LT PUSH2 0x285 JUMPI PUSH2 0x100 DUP1 DUP4 SLOAD DIV MUL DUP4 MSTORE SWAP2 PUSH1 0x20 ADD SWAP2 PUSH2 0x2B0 JUMP JUMPDEST DUP3 ADD SWAP2 SWAP1 PUSH1 0x0 MSTORE PUSH1 0x20 PUSH1 0x0 KECCAK256 SWAP1 JUMPDEST DUP2 SLOAD DUP2 MSTORE SWAP1 PUSH1 0x1 ADD SWAP1 PUSH1 0x20 ADD DUP1 DUP4 GT PUSH2 0x293 JUMPI DUP3 SWAP1 SUB PUSH1 0x1F AND DUP3 ADD SWAP2 JUMPDEST POP POP POP POP POP DUP2 MSTORE PUSH1 0x20 ADD PUSH1 0x3 DUP3 ADD DUP1 SLOAD PUSH2 0x2C9 SWAP1 PUSH2 0x136D JUMP JUMPDEST DUP1 PUSH1 0x1F ADD PUSH1 0x20 DUP1 SWAP2 DIV MUL PUSH1 0x20 ADD PUSH1 0x40 MLOAD SWAP1 DUP2 ADD PUSH1 0x40 MSTORE DUP1 SWAP3 SWAP2 SWAP1 DUP2 DUP2 MSTORE PUSH1 0x20 ADD DUP3 DUP1 SLOAD PUSH2 0x2F5 SWAP1 PUSH2 0x136D JUMP JUMPDEST DUP1 ISZERO PUSH2 0x342 JUMPI DUP1 PUSH1 0x1F LT PUSH2 0x317 JUMPI PUSH2 0x100 DUP1 DUP4 SLOAD DIV MUL DUP4 MSTORE SWAP2 PUSH1 0x20 ADD SWAP2 PUSH2 0x342 JUMP JUMPDEST DUP3 ADD SWAP2 SWAP1 PUSH1 0x0 MSTORE PUSH1 0x20 PUSH1 0x0 KECCAK256 SWAP1 JUMPDEST DUP2 SLOAD DUP2 MSTORE SWAP1 PUSH1 0x1 ADD SWAP1 PUSH1 0x20 ADD DUP1 DUP4 GT PUSH2 0x325 JUMPI DUP3 SWAP1 SUB PUSH1 0x1F AND DUP3 ADD SWAP2 JUMPDEST POP POP POP POP POP DUP2 MSTORE PUSH1 0x20 ADD PUSH1 0x4 DUP3 ADD SLOAD DUP2 MSTORE PUSH1 0x20 ADD PUSH1 0x5 DUP3 ADD DUP1 SLOAD PUSH2 0x365 SWAP1 PUSH2 0x136D JUMP JUMPDEST DUP1 PUSH1 0x1F ADD PUSH1 0x20 DUP1 SWAP2 DIV MUL PUSH1 0x20 ADD PUSH1 0x40 MLOAD SWAP1 DUP2 ADD PUSH1 0x40 MSTORE DUP1 SWAP3 SWAP2 SWAP1 DUP2 DUP2 MSTORE PUSH1 0x20 ADD DUP3 DUP1 SLOAD PUSH2 0x391 SWAP1 PUSH2 0x136D JUMP JUMPDEST DUP1 ISZERO PUSH2 0x3DE JUMPI DUP1 PUSH1 0x1F LT PUSH2 0x3B3 JUMPI PUSH2 0x100 DUP1 DUP4 SLOAD DIV MUL DUP4 MSTORE SWAP2 PUSH1 0x20 ADD SWAP2 PUSH2 0x3DE JUMP JUMPDEST DUP3 ADD SWAP2 SWAP1 PUSH1 0x0 MSTORE PUSH1 0x20 PUSH1 0x0 KECCAK256 SWAP1 JUMPDEST DUP2 SLOAD DUP2 MSTORE SWAP1 PUSH1 0x1 ADD SWAP1 PUSH1 0x20 ADD DUP1 DUP4 GT PUSH2 0x3C1 JUMPI DUP3 SWAP1 SUB PUSH1 0x1F AND DUP3 ADD SWAP2 JUMPDEST POP POP POP POP POP DUP2 MSTORE PUSH1 0x20 ADD PUSH1 0x6 DUP3 ADD DUP1 SLOAD PUSH2 0x3F7 SWAP1 PUSH2 0x136D JUMP JUMPDEST DUP1 PUSH1 0x1F ADD PUSH1 0x20 DUP1 SWAP2 DIV MUL PUSH1 0x20 ADD PUSH1 0x40 MLOAD SWAP1 DUP2 ADD PUSH1 0x40 MSTORE DUP1 SWAP3 SWAP2 SWAP1 DUP2 DUP2 MSTORE PUSH1 0x20 ADD DUP3 DUP1 SLOAD PUSH2 0x423 SWAP1 PUSH2 0x136D JUMP JUMPDEST DUP1 ISZERO PUSH2 0x470 JUMPI DUP1 PUSH1 0x1F LT PUSH2 0x445 JUMPI PUSH2 0x100 DUP1 DUP4 SLOAD DIV MUL DUP4 MSTORE SWAP2 PUSH1 0x20 ADD SWAP2 PUSH2 0x470 JUMP JUMPDEST DUP3 ADD SWAP2 SWAP1 PUSH1 0x0 MSTORE PUSH1 0x20 PUSH1 0x0 KECCAK256 SWAP1 JUMPDEST DUP2 SLOAD DUP2 MSTORE SWAP1 PUSH1 0x1 ADD SWAP1 PUSH1 0x20 ADD DUP1 DUP4 GT PUSH2 0x453 JUMPI DUP3 SWAP1 SUB PUSH1 0x1F AND DUP3 ADD SWAP2 JUMPDEST POP POP POP POP POP DUP2 MSTORE PUSH1 0x20 ADD PUSH1 0x7 DUP3 ADD DUP1 SLOAD PUSH2 0x489 SWAP1 PUSH2 0x136D JUMP JUMPDEST DUP1 PUSH1 0x1F ADD PUSH1 0x20 DUP1 SWAP2 DIV MUL PUSH1 0x20 ADD PUSH1 0x40 MLOAD SWAP1 DUP2 ADD PUSH1 0x40 MSTORE DUP1 SWAP3 SWAP2 SWAP1 DUP2 DUP2 MSTORE PUSH1 0x20 ADD DUP3 DUP1 SLOAD PUSH2 0x4B5 SWAP1 PUSH2 0x136D JUMP JUMPDEST DUP1 ISZERO PUSH2 0x502 JUMPI DUP1 PUSH1 0x1F LT PUSH2 0x4D7 JUMPI PUSH2 0x100 DUP1 DUP4 SLOAD DIV MUL DUP4 MSTORE SWAP2 PUSH1 0x20 ADD SWAP2 PUSH2 0x502 JUMP JUMPDEST DUP3 ADD SWAP2 SWAP1 PUSH1 0x0 MSTORE PUSH1 0x20 PUSH1 0x0 KECCAK256 SWAP1 JUMPDEST DUP2 SLOAD DUP2 MSTORE SWAP1 PUSH1 0x1 ADD SWAP1 PUSH1 0x20 ADD DUP1 DUP4 GT PUSH2 0x4E5 JUMPI DUP3 SWAP1 SUB PUSH1 0x1F AND DUP3 ADD SWAP2 JUMPDEST POP POP POP POP POP DUP2 MSTORE PUSH1 0x20 ADD PUSH1 0x8 DUP3 ADD DUP1 SLOAD PUSH2 0x51B SWAP1 PUSH2 0x136D JUMP JUMPDEST DUP1 PUSH1 0x1F ADD PUSH1 0x20 DUP1 SWAP2 DIV MUL PUSH1 0x20 ADD PUSH1 0x40 MLOAD SWAP1 DUP2 ADD PUSH1 0x40 MSTORE DUP1 SWAP3 SWAP2 SWAP1 DUP2 DUP2 MSTORE PUSH1 0x20 ADD DUP3 DUP1 SLOAD PUSH2 0x547 SWAP1 PUSH2 0x136D JUMP JUMPDEST DUP1 ISZERO PUSH2 0x594 JUMPI DUP1 PUSH1 0x1F LT PUSH2 0x569 JUMPI PUSH2 0x100 DUP1 DUP4 SLOAD DIV MUL DUP4 MSTORE SWAP2 PUSH1 0x20 ADD SWAP2 PUSH2 0x594 JUMP JUMPDEST DUP3 ADD SWAP2 SWAP1 PUSH1 0x0 MSTORE PUSH1 0x20 PUSH1 0x0 KECCAK256 SWAP1 JUMPDEST DUP2 SLOAD DUP2 MSTORE SWAP1 PUSH1 0x1 ADD SWAP1 PUSH1 0x20 ADD DUP1 DUP4 GT PUSH2 0x577 JUMPI DUP3 SWAP1 SUB PUSH1 0x1F AND DUP3 ADD SWAP2 JUMPDEST POP POP POP POP POP DUP2 MSTORE PUSH1 0x20 ADD PUSH1 0x9 DUP3 ADD DUP1 SLOAD DUP1 PUSH1 0x20 MUL PUSH1 0x20 ADD PUSH1 0x40 MLOAD SWAP1 DUP2 ADD PUSH1 0x40 MSTORE DUP1 SWAP3 SWAP2 SWAP1 DUP2 DUP2 MSTORE PUSH1 0x20 ADD PUSH1 0x0 SWAP1 JUMPDEST DUP3 DUP3 LT ISZERO PUSH2 0x66E JUMPI DUP4 DUP3 SWAP1 PUSH1 0x0 MSTORE PUSH1 0x20 PUSH1 0x0 KECCAK256 ADD DUP1 SLOAD PUSH2 0x5E1 SWAP1 PUSH2 0x136D JUMP JUMPDEST DUP1 PUSH1 0x1F ADD PUSH1 0x20 DUP1 SWAP2 DIV MUL PUSH1 0x20 ADD PUSH1 0x40 MLOAD SWAP1 DUP2 ADD PUSH1 0x40 MSTORE DUP1 SWAP3 SWAP2 SWAP1 DUP2 DUP2 MSTORE PUSH1 0x20 ADD DUP3 DUP1 SLOAD PUSH2 0x60D SWAP1 PUSH2 0x136D JUMP JUMPDEST DUP1 ISZERO PUSH2 0x65A JUMPI DUP1 PUSH1 0x1F LT PUSH2 0x62F JUMPI PUSH2 0x100 DUP1 DUP4 SLOAD DIV MUL DUP4 MSTORE SWAP2 PUSH1 0x20 ADD SWAP2 PUSH2 0x65A JUMP JUMPDEST DUP3 ADD SWAP2 SWAP1 PUSH1 0x0 MSTORE PUSH1 0x20 PUSH1 0x0 KECCAK256 SWAP1 JUMPDEST DUP2 SLOAD DUP2 MSTORE SWAP1 PUSH1 0x1 ADD SWAP1 PUSH1 0x20 ADD DUP1 DUP4 GT PUSH2 0x63D JUMPI DUP3 SWAP1 SUB PUSH1 0x1F AND DUP3 ADD SWAP2 JUMPDEST POP POP POP POP POP DUP2 MSTORE PUSH1 0x20 ADD SWAP1 PUSH1 0x1 ADD SWAP1 PUSH2 0x5C2 JUMP JUMPDEST POP POP POP POP DUP2 MSTORE PUSH1 0x20 ADD PUSH1 0xA DUP3 ADD DUP1 SLOAD DUP1 PUSH1 0x20 MUL PUSH1 0x20 ADD PUSH1 0x40 MLOAD SWAP1 DUP2 ADD PUSH1 0x40 MSTORE DUP1 SWAP3 SWAP2 SWAP1 DUP2 DUP2 MSTORE PUSH1 0x20 ADD PUSH1 0x0 SWAP1 JUMPDEST DUP3 DUP3 LT ISZERO PUSH2 0x747 JUMPI DUP4 DUP3 SWAP1 PUSH1 0x0 MSTORE PUSH1 0x20 PUSH1 0x0 KECCAK256 ADD DUP1 SLOAD PUSH2 0x6BA SWAP1 PUSH2 0x136D JUMP JUMPDEST DUP1 PUSH1 0x1F ADD PUSH1 0x20 DUP1 SWAP2 DIV MUL PUSH1 0x20 ADD PUSH1 0x40 MLOAD SWAP1 DUP2 ADD PUSH1 0x40 MSTORE DUP1 SWAP3 SWAP2 SWAP1 DUP2 DUP2 MSTORE PUSH1 0x20 ADD DUP3 DUP1 SLOAD PUSH2 0x6E6 SWAP1 PUSH2 0x136D JUMP JUMPDEST DUP1 ISZERO PUSH2 0x733 JUMPI DUP1 PUSH1 0x1F LT PUSH2 0x708 JUMPI PUSH2 0x100 DUP1 DUP4 SLOAD DIV MUL DUP4 MSTORE SWAP2 PUSH1 0x20 ADD SWAP2 PUSH2 0x733 JUMP JUMPDEST DUP3 ADD SWAP2 SWAP1 PUSH1 0x0 MSTORE PUSH1 0x20 PUSH1 0x0 KECCAK256 SWAP1 JUMPDEST DUP2 SLOAD DUP2 MSTORE SWAP1 PUSH1 0x1 ADD SWAP1 PUSH1 0x20 ADD DUP1 DUP4 GT PUSH2 0x716 JUMPI DUP3 SWAP1 SUB PUSH1 0x1F AND DUP3 ADD SWAP2 JUMPDEST POP POP POP POP POP DUP2 MSTORE PUSH1 0x20 ADD SWAP1 PUSH1 0x1 ADD SWAP1 PUSH2 0x69B JUMP JUMPDEST POP POP POP POP DUP2 MSTORE POP POP SWAP1 POP SWAP2 SWAP1 POP JUMP JUMPDEST PUSH1 0x0 DUP1 DUP13 DUP13 DUP13 DUP13 DUP13 DUP13 DUP13 DUP13 DUP13 PUSH1 0x40 MLOAD PUSH1 0x20 ADD PUSH2 0x77A SWAP10 SWAP9 SWAP8 SWAP7 SWAP6 SWAP5 SWAP4 SWAP3 SWAP2 SWAP1 PUSH2 0x1679 JUMP JUMPDEST PUSH1 0x40 MLOAD PUSH1 0x20 DUP2 DUP4 SUB SUB DUP2 MSTORE SWAP1 PUSH1 0x40 MSTORE DUP1 MLOAD SWAP1 PUSH1 0x20 ADD KECCAK256 SWAP1 POP PUSH1 0x0 DUP1 PUSH1 0x0 DUP4 DUP2 MSTORE PUSH1 0x20 ADD SWAP1 DUP2 MSTORE PUSH1 0x20 ADD PUSH1 0x0 KECCAK256 PUSH1 0x0 ADD SLOAD EQ PUSH2 0x7EA JUMPI PUSH1 0x40 MLOAD PUSH32 0x8C379A000000000000000000000000000000000000000000000000000000000 DUP2 MSTORE PUSH1 0x4 ADD PUSH2 0x7E1 SWAP1 PUSH2 0x174C JUMP JUMPDEST PUSH1 0x40 MLOAD DUP1 SWAP2 SUB SWAP1 REVERT JUMPDEST PUSH1 0x40 MLOAD DUP1 PUSH2 0x160 ADD PUSH1 0x40 MSTORE DUP1 DUP15 DUP2 MSTORE PUSH1 0x20 ADD DUP14 DUP2 MSTORE PUSH1 0x20 ADD DUP13 DUP2 MSTORE PUSH1 0x20 ADD DUP12 DUP2 MSTORE PUSH1 0x20 ADD DUP11 DUP2 MSTORE PUSH1 0x20 ADD DUP10 DUP2 MSTORE PUSH1 0x20 ADD DUP9 DUP2 MSTORE PUSH1 0x20 ADD DUP8 DUP2 MSTORE PUSH1 0x20 ADD DUP7 DUP2 MSTORE PUSH1 0x20 ADD DUP6 DUP2 MSTORE PUSH1 0x20 ADD DUP5 DUP2 MSTORE POP PUSH1 0x0 DUP1 DUP4 DUP2 MSTORE PUSH1 0x20 ADD SWAP1 DUP2 MSTORE PUSH1 0x20 ADD PUSH1 0x0 KECCAK256 PUSH1 0x0 DUP3 ADD MLOAD DUP2 PUSH1 0x0 ADD SSTORE PUSH1 0x20 DUP3 ADD MLOAD DUP2 PUSH1 0x1 ADD SWAP1 DUP2 PUSH2 0x867 SWAP2 SWAP1 PUSH2 0x154A JUMP JUMPDEST POP PUSH1 0x40 DUP3 ADD MLOAD DUP2 PUSH1 0x2 ADD SWAP1 DUP2 PUSH2 0x87D SWAP2 SWAP1 PUSH2 0x154A JUMP JUMPDEST POP PUSH1 0x60 DUP3 ADD MLOAD DUP2 PUSH1 0x3 ADD SWAP1 DUP2 PUSH2 0x893 SWAP2 SWAP1 PUSH2 0x154A JUMP JUMPDEST POP PUSH1 0x80 DUP3 ADD MLOAD DUP2 PUSH1 0x4 ADD SSTORE PUSH1 0xA0 DUP3 ADD MLOAD DUP2 PUSH1 0x5 ADD SWAP1 DUP2 PUSH2 0x8B3 SWAP2 SWAP1 PUSH2 0x154A JUMP JUMPDEST POP PUSH1 0xC0 DUP3 ADD MLOAD DUP2 PUSH1 0x6 ADD SWAP1 DUP2 PUSH2 0x8C9 SWAP2 SWAP1 PUSH2 0x154A JUMP JUMPDEST POP PUSH1 0xE0 DUP3 ADD MLOAD DUP2 PUSH1 0x7 ADD SWAP1 DUP2 PUSH2 0x8DF SWAP2 SWAP1 PUSH2 0x154A JUMP JUMPDEST POP PUSH2 0x100 DUP3 ADD MLOAD DUP2 PUSH1 0x8 ADD SWAP1 DUP2 PUSH2 0x8F6 SWAP2 SWAP1 PUSH2 0x154A JUMP JUMPDEST POP PUSH2 0x120 DUP3 ADD MLOAD DUP2 PUSH1 0x9 ADD SWAP1 DUP1 MLOAD SWAP1 PUSH1 0x20 ADD SWAP1 PUSH2 0x914 SWAP3 SWAP2 SWAP1 PUSH2 0x9D0 JUMP JUMPDEST POP PUSH2 0x140 DUP3 ADD MLOAD DUP2 PUSH1 0xA ADD SWAP1 DUP1 MLOAD SWAP1 PUSH1 0x20 ADD SWAP1 PUSH2 0x932 SWAP3 SWAP2 SWAP1 PUSH2 0x9D0 JUMP JUMPDEST POP SWAP1 POP POP DUP1 PUSH32 0x6C2DE183F2A2FAF4876F357E3C75BF6E6E7AA4DD120E8B5E1BDB2901E085F69C PUSH1 0x40 MLOAD PUSH1 0x40 MLOAD DUP1 SWAP2 SUB SWAP1 LOG2 DUP1 SWAP2 POP POP SWAP12 SWAP11 POP POP POP POP POP POP POP POP POP POP POP JUMP JUMPDEST PUSH1 0x40 MLOAD DUP1 PUSH2 0x160 ADD PUSH1 0x40 MSTORE DUP1 PUSH1 0x0 DUP2 MSTORE PUSH1 0x20 ADD PUSH1 0x60 DUP2 MSTORE PUSH1 0x20 ADD PUSH1 0x60 DUP2 MSTORE PUSH1 0x20 ADD PUSH1 0x60 DUP2 MSTORE PUSH1 0x20 ADD PUSH1 0x0 DUP2 MSTORE PUSH1 0x20 ADD PUSH1 0x60 DUP2 MSTORE PUSH1 0x20 ADD PUSH1 0x60 DUP2 MSTORE PUSH1 0x20 ADD PUSH1 0x60 DUP2 MSTORE PUSH1 0x20 ADD PUSH1 0x60 DUP2 MSTORE PUSH1 0x20 ADD PUSH1 0x60 DUP2 MSTORE PUSH1 0x20 ADD PUSH1 0x60 DUP2 MSTORE POP SWAP1 JUMP JUMPDEST DUP3 DUP1 SLOAD DUP3 DUP3 SSTORE SWAP1 PUSH1 0x0 MSTORE PUSH1 0x20 PUSH1 0x0 KECCAK256 SWAP1 DUP2 ADD SWAP3 DUP3 ISZERO PUSH2 0xA18 JUMPI SWAP2 PUSH1 0x20 MUL DUP3 ADD JUMPDEST DUP3 DUP2 GT ISZERO PUSH2 0xA17 JUMPI DUP3 MLOAD DUP3 SWAP1 DUP2 PUSH2 0xA07 SWAP2 SWAP1 PUSH2 0x154A JUMP JUMPDEST POP SWAP2 PUSH1 0x20 ADD SWAP2 SWAP1 PUSH1 0x1 ADD SWAP1 PUSH2 0x9F0 JUMP JUMPDEST JUMPDEST POP SWAP1 POP PUSH2 0xA25 SWAP2 SWAP1 PUSH2 0xA29 JUMP JUMPDEST POP SWAP1 JUMP JUMPDEST JUMPDEST DUP1 DUP3 GT ISZERO PUSH2 0xA49 JUMPI PUSH1 0x0 DUP2 DUP2 PUSH2 0xA40 SWAP2 SWAP1 PUSH2 0xA4D JUMP JUMPDEST POP PUSH1 0x1 ADD PUSH2 0xA2A JUMP JUMPDEST POP SWAP1 JUMP JUMPDEST POP DUP1 SLOAD PUSH2 0xA59 SWAP1 PUSH2 0x136D JUMP JUMPDEST PUSH1 0x0 DUP3 SSTORE DUP1 PUSH1 0x1F LT PUSH2 0xA6B JUMPI POP PUSH2 0xA8A JUMP JUMPDEST PUSH1 0x1F ADD PUSH1 0x20 SWAP1 DIV SWAP1 PUSH1 0x0 MSTORE PUSH1 0x20 PUSH1 0x0 KECCAK256 SWAP1 DUP2 ADD SWAP1 PUSH2 0xA89 SWAP2 SWAP1 PUSH2 0xA8D JUMP JUMPDEST JUMPDEST POP JUMP JUMPDEST JUMPDEST DUP1 DUP3 GT ISZERO PUSH2 0xAA6 JUMPI PUSH1 0x0 DUP2 PUSH1 0x0 SWAP1 SSTORE POP PUSH1 0x1 ADD PUSH2 0xA8E JUMP JUMPDEST POP SWAP1 JUMP JUMPDEST PUSH1 0x0 PUSH1 0x40 MLOAD SWAP1 POP SWAP1 JUMP JUMPDEST PUSH1 0x0 DUP1 REVERT JUMPDEST PUSH1 0x0 DUP1 REVERT JUMPDEST PUSH1 0x0 DUP2 SWAP1 POP SWAP2 SWAP1 POP JUMP JUMPDEST PUSH2 0xAD1 DUP2 PUSH2 0xABE JUMP JUMPDEST DUP2 EQ PUSH2 0xADC JUMPI PUSH1 0x0 DUP1 REVERT JUMPDEST POP JUMP JUMPDEST PUSH1 0x0 DUP2 CALLDATALOAD SWAP1 POP PUSH2 0xAEE DUP2 PUSH2 0xAC8 JUMP JUMPDEST SWAP3 SWAP2 POP POP JUMP JUMPDEST PUSH1 0x0 DUP1 REVERT JUMPDEST PUSH1 0x0 DUP1 REVERT JUMPDEST PUSH1 0x0 PUSH1 0x1F NOT PUSH1 0x1F DUP4 ADD AND SWAP1 POP SWAP2 SWAP1 POP JUMP JUMPDEST PUSH32 0x4E487B7100000000000000000000000000000000000000000000000000000000 PUSH1 0x0 MSTORE PUSH1 0x41 PUSH1 0x4 MSTORE PUSH1 0x24 PUSH1 0x0 REVERT JUMPDEST PUSH2 0xB47 DUP3 PUSH2 0xAFE JUMP JUMPDEST DUP2 ADD DUP2 DUP2 LT PUSH8 0xFFFFFFFFFFFFFFFF DUP3 GT OR ISZERO PUSH2 0xB66 JUMPI PUSH2 0xB65 PUSH2 0xB0F JUMP JUMPDEST JUMPDEST DUP1 PUSH1 0x40 MSTORE POP POP POP JUMP JUMPDEST PUSH1 0x0 PUSH2 0xB79 PUSH2 0xAAA JUMP JUMPDEST SWAP1 POP PUSH2 0xB85 DUP3 DUP3 PUSH2 0xB3E JUMP JUMPDEST SWAP2 SWAP1 POP JUMP JUMPDEST PUSH1 0x0 PUSH8 0xFFFFFFFFFFFFFFFF DUP3 GT ISZERO PUSH2 0xBA5 JUMPI PUSH2 0xBA4 PUSH2 0xB0F JUMP JUMPDEST JUMPDEST PUSH2 0xBAE DUP3 PUSH2 0xAFE JUMP JUMPDEST SWAP1 POP PUSH1 0x20 DUP2 ADD SWAP1 POP SWAP2 SWAP1 POP JUMP JUMPDEST DUP3 DUP2 DUP4 CALLDATACOPY PUSH1 0x0 DUP4 DUP4 ADD MSTORE POP POP POP JUMP JUMPDEST PUSH1 0x0 PUSH2 0xBDD PUSH2 0xBD8 DUP5 PUSH2 0xB8A JUMP JUMPDEST PUSH2 0xB6F JUMP JUMPDEST SWAP1 POP DUP3 DUP2 MSTORE PUSH1 0x20 DUP2 ADD DUP5 DUP5 DUP5 ADD GT ISZERO PUSH2 0xBF9 JUMPI PUSH2 0xBF8 PUSH2 0xAF9 JUMP JUMPDEST JUMPDEST PUSH2 0xC04 DUP5 DUP3 DUP6 PUSH2 0xBBB JUMP JUMPDEST POP SWAP4 SWAP3 POP POP POP JUMP JUMPDEST PUSH1 0x0 DUP3 PUSH1 0x1F DUP4 ADD SLT PUSH2 0xC21 JUMPI PUSH2 0xC20 PUSH2 0xAF4 JUMP JUMPDEST JUMPDEST DUP2 CALLDATALOAD PUSH2 0xC31 DUP5 DUP3 PUSH1 0x20 DUP7 ADD PUSH2 0xBCA JUMP JUMPDEST SWAP2 POP POP SWAP3 SWAP2 POP POP JUMP JUMPDEST PUSH1 0x0 DUP1 PUSH1 0x0 PUSH1 0x60 DUP5 DUP7 SUB SLT ISZERO PUSH2 0xC53 JUMPI PUSH2 0xC52 PUSH2 0xAB4 JUMP JUMPDEST JUMPDEST PUSH1 0x0 PUSH2 0xC61 DUP7 DUP3 DUP8 ADD PUSH2 0xADF JUMP JUMPDEST SWAP4 POP POP PUSH1 0x20 DUP5 ADD CALLDATALOAD PUSH8 0xFFFFFFFFFFFFFFFF DUP2 GT ISZERO PUSH2 0xC82 JUMPI PUSH2 0xC81 PUSH2 0xAB9 JUMP JUMPDEST JUMPDEST PUSH2 0xC8E DUP7 DUP3 DUP8 ADD PUSH2 0xC0C JUMP JUMPDEST SWAP3 POP POP PUSH1 0x40 DUP5 ADD CALLDATALOAD PUSH8 0xFFFFFFFFFFFFFFFF DUP2 GT ISZERO PUSH2 0xCAF JUMPI PUSH2 0xCAE PUSH2 0xAB9 JUMP JUMPDEST JUMPDEST PUSH2 0xCBB DUP7 DUP3 DUP8 ADD PUSH2 0xC0C JUMP JUMPDEST SWAP2 POP POP SWAP3 POP SWAP3 POP SWAP3 JUMP JUMPDEST PUSH1 0x0 PUSH1 0x20 DUP3 DUP5 SUB SLT ISZERO PUSH2 0xCDB JUMPI PUSH2 0xCDA PUSH2 0xAB4 JUMP JUMPDEST JUMPDEST PUSH1 0x0 PUSH2 0xCE9 DUP5 DUP3 DUP6 ADD PUSH2 0xADF JUMP JUMPDEST SWAP2 POP POP SWAP3 SWAP2 POP POP JUMP JUMPDEST PUSH1 0x0 DUP2 SWAP1 POP SWAP2 SWAP1 POP JUMP JUMPDEST PUSH2 0xD05 DUP2 PUSH2 0xCF2 JUMP JUMPDEST DUP3 MSTORE POP POP JUMP JUMPDEST PUSH1 0x0 DUP2 MLOAD SWAP1 POP SWAP2 SWAP1 POP JUMP JUMPDEST PUSH1 0x0 DUP3 DUP3 MSTORE PUSH1 0x20 DUP3 ADD SWAP1 POP SWAP3 SWAP2 POP POP JUMP JUMPDEST PUSH1 0x0 JUMPDEST DUP4 DUP2 LT ISZERO PUSH2 0xD45 JUMPI DUP1 DUP3 ADD MLOAD DUP2 DUP5 ADD MSTORE PUSH1 0x20 DUP2 ADD SWAP1 POP PUSH2 0xD2A JUMP JUMPDEST PUSH1 0x0 DUP5 DUP5 ADD MSTORE POP POP POP POP JUMP JUMPDEST PUSH1 0x0 PUSH2 0xD5C DUP3 PUSH2 0xD0B JUMP JUMPDEST PUSH2 0xD66 DUP2 DUP6 PUSH2 0xD16 JUMP JUMPDEST SWAP4 POP PUSH2 0xD76 DUP2 DUP6 PUSH1 0x20 DUP7 ADD PUSH2 0xD27 JUMP JUMPDEST PUSH2 0xD7F DUP2 PUSH2 0xAFE JUMP JUMPDEST DUP5 ADD SWAP2 POP POP SWAP3 SWAP2 POP POP JUMP JUMPDEST PUSH1 0x0 DUP2 MLOAD SWAP1 POP SWAP2 SWAP1 POP JUMP JUMPDEST PUSH1 0x0 DUP3 DUP3 MSTORE PUSH1 0x20 DUP3 ADD SWAP1 POP SWAP3 SWAP2 POP POP JUMP JUMPDEST PUSH1 0x0 DUP2 SWAP1 POP PUSH1 0x20 DUP3 ADD SWAP1 POP SWAP2 SWAP1 POP JUMP JUMPDEST PUSH1 0x0 PUSH2 0xDC2 DUP4 DUP4 PUSH2 0xD51 JUMP JUMPDEST SWAP1 POP SWAP3 SWAP2 POP POP JUMP JUMPDEST PUSH1 0x0 PUSH1 0x20 DUP3 ADD SWAP1 POP SWAP2 SWAP1 POP JUMP JUMPDEST PUSH1 0x0 PUSH2 0xDE2 DUP3 PUSH2 0xD8A JUMP JUMPDEST PUSH2 0xDEC DUP2 DUP6 PUSH2 0xD95 JUMP JUMPDEST SWAP4 POP DUP4 PUSH1 0x20 DUP3 MUL DUP6 ADD PUSH2 0xDFE DUP6 PUSH2 0xDA6 JUMP JUMPDEST DUP1 PUSH1 0x0 JUMPDEST DUP6 DUP2 LT ISZERO PUSH2 0xE3A JUMPI DUP5 DUP5 SUB DUP10 MSTORE DUP2 MLOAD PUSH2 0xE1B DUP6 DUP3 PUSH2 0xDB6 JUMP JUMPDEST SWAP5 POP PUSH2 0xE26 DUP4 PUSH2 0xDCA JUMP JUMPDEST SWAP3 POP PUSH1 0x20 DUP11 ADD SWAP10 POP POP PUSH1 0x1 DUP2 ADD SWAP1 POP PUSH2 0xE02 JUMP JUMPDEST POP DUP3 SWAP8 POP DUP8 SWAP6 POP POP POP POP POP POP SWAP3 SWAP2 POP POP JUMP JUMPDEST PUSH1 0x0 PUSH2 0x160 DUP4 ADD PUSH1 0x0 DUP4 ADD MLOAD PUSH2 0xE65 PUSH1 0x0 DUP7 ADD DUP3 PUSH2 0xCFC JUMP JUMPDEST POP PUSH1 0x20 DUP4 ADD MLOAD DUP5 DUP3 SUB PUSH1 0x20 DUP7 ADD MSTORE PUSH2 0xE7D DUP3 DUP3 PUSH2 0xD51 JUMP JUMPDEST SWAP2 POP POP PUSH1 0x40 DUP4 ADD MLOAD DUP5 DUP3 SUB PUSH1 0x40 DUP7 ADD MSTORE PUSH2 0xE97 DUP3 DUP3 PUSH2 0xD51 JUMP JUMPDEST SWAP2 POP POP PUSH1 0x60 DUP4 ADD MLOAD DUP5 DUP3 SUB PUSH1 0x60 DUP7 ADD MSTORE PUSH2 0xEB1 DUP3 DUP3 PUSH2 0xD51 JUMP JUMPDEST SWAP2 POP POP PUSH1 0x80 DUP4 ADD MLOAD PUSH2 0xEC6 PUSH1 0x80 DUP7 ADD DUP3 PUSH2 0xCFC JUMP JUMPDEST POP PUSH1 0xA0 DUP4 ADD MLOAD DUP5 DUP3 SUB PUSH1 0xA0 DUP7 ADD MSTORE PUSH2 0xEDE DUP3 DUP3 PUSH2 0xD51 JUMP JUMPDEST SWAP2 POP POP PUSH1 0xC0 DUP4 ADD MLOAD DUP5 DUP3 SUB PUSH1 0xC0 DUP7 ADD MSTORE PUSH2 0xEF8 DUP3 DUP3 PUSH2 0xD51 JUMP JUMPDEST SWAP2 POP POP PUSH1 0xE0 DUP4 ADD MLOAD DUP5 DUP3 SUB PUSH1 0xE0 DUP7 ADD MSTORE PUSH2 0xF12 DUP3 DUP3 PUSH2 0xD51 JUMP JUMPDEST SWAP2 POP POP PUSH2 0x100 DUP4 ADD MLOAD DUP5 DUP3 SUB PUSH2 0x100 DUP7 ADD MSTORE PUSH2 0xF2E DUP3 DUP3 PUSH2 0xD51 JUMP JUMPDEST SWAP2 POP POP PUSH2 0x120 DUP4 ADD MLOAD DUP5 DUP3 SUB PUSH2 0x120 DUP7 ADD MSTORE PUSH2 0xF4A DUP3 DUP3 PUSH2 0xDD7 JUMP JUMPDEST SWAP2 POP POP PUSH2 0x140 DUP4 ADD MLOAD DUP5 DUP3 SUB PUSH2 0x140 DUP7 ADD MSTORE PUSH2 0xF66 DUP3 DUP3 PUSH2 0xDD7 JUMP JUMPDEST SWAP2 POP POP DUP1 SWAP2 POP POP SWAP3 SWAP2 POP POP JUMP JUMPDEST PUSH1 0x0 PUSH1 0x20 DUP3 ADD SWAP1 POP DUP2 DUP2 SUB PUSH1 0x0 DUP4 ADD MSTORE PUSH2 0xF8D DUP2 DUP5 PUSH2 0xE4C JUMP JUMPDEST SWAP1 POP SWAP3 SWAP2 POP POP JUMP JUMPDEST PUSH2 0xF9E DUP2 PUSH2 0xCF2 JUMP JUMPDEST DUP2 EQ PUSH2 0xFA9 JUMPI PUSH1 0x0 DUP1 REVERT JUMPDEST POP JUMP JUMPDEST PUSH1 0x0 DUP2 CALLDATALOAD SWAP1 POP PUSH2 0xFBB DUP2 PUSH2 0xF95 JUMP JUMPDEST SWAP3 SWAP2 POP POP JUMP JUMPDEST PUSH1 0x0 PUSH8 0xFFFFFFFFFFFFFFFF DUP3 GT ISZERO PUSH2 0xFDC JUMPI PUSH2 0xFDB PUSH2 0xB0F JUMP JUMPDEST JUMPDEST PUSH1 0x20 DUP3 MUL SWAP1 POP PUSH1 0x20 DUP2 ADD SWAP1 POP SWAP2 SWAP1 POP JUMP JUMPDEST PUSH1 0x0 DUP1 REVERT JUMPDEST PUSH1 0x0 PUSH2 0x1005 PUSH2 0x1000 DUP5 PUSH2 0xFC1 JUMP JUMPDEST PUSH2 0xB6F JUMP JUMPDEST SWAP1 POP DUP1 DUP4 DUP3 MSTORE PUSH1 0x20 DUP3 ADD SWAP1 POP PUSH1 0x20 DUP5 MUL DUP4 ADD DUP6 DUP2 GT ISZERO PUSH2 0x1028 JUMPI PUSH2 0x1027 PUSH2 0xFED JUMP JUMPDEST JUMPDEST DUP4 JUMPDEST DUP2 DUP2 LT ISZERO PUSH2 0x106F JUMPI DUP1 CALLDATALOAD PUSH8 0xFFFFFFFFFFFFFFFF DUP2 GT ISZERO PUSH2 0x104D JUMPI PUSH2 0x104C PUSH2 0xAF4 JUMP JUMPDEST JUMPDEST DUP1 DUP7 ADD PUSH2 0x105A DUP10 DUP3 PUSH2 0xC0C JUMP JUMPDEST DUP6 MSTORE PUSH1 0x20 DUP6 ADD SWAP5 POP POP POP PUSH1 0x20 DUP2 ADD SWAP1 POP PUSH2 0x102A JUMP JUMPDEST POP POP POP SWAP4 SWAP3 POP POP POP JUMP JUMPDEST PUSH1 0x0 DUP3 PUSH1 0x1F DUP4 ADD SLT PUSH2 0x108E JUMPI PUSH2 0x108D PUSH2 0xAF4 JUMP JUMPDEST JUMPDEST DUP2 CALLDATALOAD PUSH2 0x109E DUP5 DUP3 PUSH1 0x20 DUP7 ADD PUSH2 0xFF2 JUMP JUMPDEST SWAP2 POP POP SWAP3 SWAP2 POP POP JUMP JUMPDEST PUSH1 0x0 DUP1 PUSH1 0x0 DUP1 PUSH1 0x0 DUP1 PUSH1 0x0 DUP1 PUSH1 0x0 DUP1 PUSH1 0x0 PUSH2 0x160 DUP13 DUP15 SUB SLT ISZERO PUSH2 0x10CD JUMPI PUSH2 0x10CC PUSH2 0xAB4 JUMP JUMPDEST JUMPDEST PUSH1 0x0 PUSH2 0x10DB DUP15 DUP3 DUP16 ADD PUSH2 0xFAC JUMP JUMPDEST SWAP12 POP POP PUSH1 0x20 DUP13 ADD CALLDATALOAD PUSH8 0xFFFFFFFFFFFFFFFF DUP2 GT ISZERO PUSH2 0x10FC JUMPI PUSH2 0x10FB PUSH2 0xAB9 JUMP JUMPDEST JUMPDEST PUSH2 0x1108 DUP15 DUP3 DUP16 ADD PUSH2 0xC0C JUMP JUMPDEST SWAP11 POP POP PUSH1 0x40 DUP13 ADD CALLDATALOAD PUSH8 0xFFFFFFFFFFFFFFFF DUP2 GT ISZERO PUSH2 0x1129 JUMPI PUSH2 0x1128 PUSH2 0xAB9 JUMP JUMPDEST JUMPDEST PUSH2 0x1135 DUP15 DUP3 DUP16 ADD PUSH2 0xC0C JUMP JUMPDEST SWAP10 POP POP PUSH1 0x60 DUP13 ADD CALLDATALOAD PUSH8 0xFFFFFFFFFFFFFFFF DUP2 GT ISZERO PUSH2 0x1156 JUMPI PUSH2 0x1155 PUSH2 0xAB9 JUMP JUMPDEST JUMPDEST PUSH2 0x1162 DUP15 DUP3 DUP16 ADD PUSH2 0xC0C JUMP JUMPDEST SWAP9 POP POP PUSH1 0x80 PUSH2 0x1173 DUP15 DUP3 DUP16 ADD PUSH2 0xFAC JUMP JUMPDEST SWAP8 POP POP PUSH1 0xA0 DUP13 ADD CALLDATALOAD PUSH8 0xFFFFFFFFFFFFFFFF DUP2 GT ISZERO PUSH2 0x1194 JUMPI PUSH2 0x1193 PUSH2 0xAB9 JUMP JUMPDEST JUMPDEST PUSH2 0x11A0 DUP15 DUP3 DUP16 ADD PUSH2 0xC0C JUMP JUMPDEST SWAP7 POP POP PUSH1 0xC0 DUP13 ADD CALLDATALOAD PUSH8 0xFFFFFFFFFFFFFFFF DUP2 GT ISZERO PUSH2 0x11C1 JUMPI PUSH2 0x11C0 PUSH2 0xAB9 JUMP JUMPDEST JUMPDEST PUSH2 0x11CD DUP15 DUP3 DUP16 ADD PUSH2 0xC0C JUMP JUMPDEST SWAP6 POP POP PUSH1 0xE0 DUP13 ADD CALLDATALOAD PUSH8 0xFFFFFFFFFFFFFFFF DUP2 GT ISZERO PUSH2 0x11EE JUMPI PUSH2 0x11ED PUSH2 0xAB9 JUMP JUMPDEST JUMPDEST PUSH2 0x11FA DUP15 DUP3 DUP16 ADD PUSH2 0xC0C JUMP JUMPDEST SWAP5 POP POP PUSH2 0x100 DUP13 ADD CALLDATALOAD PUSH8 0xFFFFFFFFFFFFFFFF DUP2 GT ISZERO PUSH2 0x121C JUMPI PUSH2 0x121B PUSH2 0xAB9 JUMP JUMPDEST JUMPDEST PUSH2 0x1228 DUP15 DUP3 DUP16 ADD PUSH2 0xC0C JUMP JUMPDEST SWAP4 POP POP PUSH2 0x120 DUP13 ADD CALLDATALOAD PUSH8 0xFFFFFFFFFFFFFFFF DUP2 GT ISZERO PUSH2 0x124A JUMPI PUSH2 0x1249 PUSH2 0xAB9 JUMP JUMPDEST JUMPDEST PUSH2 0x1256 DUP15 DUP3 DUP16 ADD PUSH2 0x1079 JUMP JUMPDEST SWAP3 POP POP PUSH2 0x140 DUP13 ADD CALLDATALOAD PUSH8 0xFFFFFFFFFFFFFFFF DUP2 GT ISZERO PUSH2 0x1278 JUMPI PUSH2 0x1277 PUSH2 0xAB9 JUMP JUMPDEST JUMPDEST PUSH2 0x1284 DUP15 DUP3 DUP16 ADD PUSH2 0x1079 JUMP JUMPDEST SWAP2 POP POP SWAP3 SWAP6 SWAP9 SWAP12 POP SWAP3 SWAP6 SWAP9 SWAP12 SWAP1 SWAP4 SWAP7 SWAP10 POP JUMP JUMPDEST PUSH2 0x12A0 DUP2 PUSH2 0xABE JUMP JUMPDEST DUP3 MSTORE POP POP JUMP JUMPDEST PUSH1 0x0 PUSH1 0x20 DUP3 ADD SWAP1 POP PUSH2 0x12BB PUSH1 0x0 DUP4 ADD DUP5 PUSH2 0x1297 JUMP JUMPDEST SWAP3 SWAP2 POP POP JUMP JUMPDEST PUSH1 0x0 DUP3 DUP3 MSTORE PUSH1 0x20 DUP3 ADD SWAP1 POP SWAP3 SWAP2 POP POP JUMP JUMPDEST PUSH32 0x50726F6475637420646F6573206E6F7420657869737400000000000000000000 PUSH1 0x0 DUP3 ADD MSTORE POP JUMP JUMPDEST PUSH1 0x0 PUSH2 0x1308 PUSH1 0x16 DUP4 PUSH2 0x12C1 JUMP JUMPDEST SWAP2 POP PUSH2 0x1313 DUP3 PUSH2 0x12D2 JUMP JUMPDEST PUSH1 0x20 DUP3 ADD SWAP1 POP SWAP2 SWAP1 POP JUMP JUMPDEST PUSH1 0x0 PUSH1 0x20 DUP3 ADD SWAP1 POP DUP2 DUP2 SUB PUSH1 0x0 DUP4 ADD MSTORE PUSH2 0x1337 DUP2 PUSH2 0x12FB JUMP JUMPDEST SWAP1 POP SWAP2 SWAP1 POP JUMP JUMPDEST PUSH32 0x4E487B7100000000000000000000000000000000000000000000000000000000 PUSH1 0x0 MSTORE PUSH1 0x22 PUSH1 0x4 MSTORE PUSH1 0x24 PUSH1 0x0 REVERT JUMPDEST PUSH1 0x0 PUSH1 0x2 DUP3 DIV SWAP1 POP PUSH1 0x1 DUP3 AND DUP1 PUSH2 0x1385 JUMPI PUSH1 0x7F DUP3 AND SWAP2 POP JUMPDEST PUSH1 0x20 DUP3 LT DUP2 SUB PUSH2 0x1398 JUMPI PUSH2 0x1397 PUSH2 0x133E JUMP JUMPDEST JUMPDEST POP SWAP2 SWAP1 POP JUMP JUMPDEST PUSH1 0x0 DUP2 SWAP1 POP DUP2 PUSH1 0x0 MSTORE PUSH1 0x20 PUSH1 0x0 KECCAK256 SWAP1 POP SWAP2 SWAP1 POP JUMP JUMPDEST PUSH1 0x0 PUSH1 0x20 PUSH1 0x1F DUP4 ADD DIV SWAP1 POP SWAP2 SWAP1 POP JUMP JUMPDEST PUSH1 0x0 DUP3 DUP3 SHL SWAP1 POP SWAP3 SWAP2 POP POP JUMP JUMPDEST PUSH1 0x0 PUSH1 0x8 DUP4 MUL PUSH2 0x1400 PUSH32 0xFFFFFFFFFFFFFFFFFFFFFFFFFFFFFFFFFFFFFFFFFFFFFFFFFFFFFFFFFFFFFFFF DUP3 PUSH2 0x13C3 JUMP JUMPDEST PUSH2 0x140A DUP7 DUP4 PUSH2 0x13C3 JUMP JUMPDEST SWAP6 POP DUP1 NOT DUP5 AND SWAP4 POP DUP1 DUP7 AND DUP5 OR SWAP3 POP POP POP SWAP4 SWAP3 POP POP POP JUMP JUMPDEST PUSH1 0x0 DUP2 SWAP1 POP SWAP2 SWAP1 POP JUMP JUMPDEST PUSH1 0x0 PUSH2 0x1447 PUSH2 0x1442 PUSH2 0x143D DUP5 PUSH2 0xCF2 JUMP JUMPDEST PUSH2 0x1422 JUMP JUMPDEST PUSH2 0xCF2 JUMP JUMPDEST SWAP1 POP SWAP2 SWAP1 POP JUMP JUMPDEST PUSH1 0x0 DUP2 SWAP1 POP SWAP2 SWAP1 POP JUMP JUMPDEST PUSH2 0x1461 DUP4 PUSH2 0x142C JUMP JUMPDEST PUSH2 0x1475 PUSH2 0x146D DUP3 PUSH2 0x144E JUMP JUMPDEST DUP5 DUP5 SLOAD PUSH2 0x13D0 JUMP JUMPDEST DUP3 SSTORE POP POP POP POP JUMP JUMPDEST PUSH1 0x0 SWAP1 JUMP JUMPDEST PUSH2 0x148A PUSH2 0x147D JUMP JUMPDEST PUSH2 0x1495 DUP2 DUP5 DUP5 PUSH2 0x1458 JUMP JUMPDEST POP POP POP JUMP JUMPDEST JUMPDEST DUP2 DUP2 LT ISZERO PUSH2 0x14B9 JUMPI PUSH2 0x14AE PUSH1 0x0 DUP3 PUSH2 0x1482 JUMP JUMPDEST PUSH1 0x1 DUP2 ADD SWAP1 POP PUSH2 0x149B JUMP JUMPDEST POP POP JUMP JUMPDEST PUSH1 0x1F DUP3 GT ISZERO PUSH2 0x14FE JUMPI PUSH2 0x14CF DUP2 PUSH2 0x139E JUMP JUMPDEST PUSH2 0x14D8 DUP5 PUSH2 0x13B3 JUMP JUMPDEST DUP2 ADD PUSH1 0x20 DUP6 LT ISZERO PUSH2 0x14E7 JUMPI DUP2 SWAP1 POP JUMPDEST PUSH2 0x14FB PUSH2 0x14F3 DUP6 PUSH2 0x13B3 JUMP JUMPDEST DUP4 ADD DUP3 PUSH2 0x149A JUMP JUMPDEST POP POP JUMPDEST POP POP POP JUMP JUMPDEST PUSH1 0x0 DUP3 DUP3 SHR SWAP1 POP SWAP3 SWAP2 POP POP JUMP JUMPDEST PUSH1 0x0 PUSH2 0x1521 PUSH1 0x0 NOT DUP5 PUSH1 0x8 MUL PUSH2 0x1503 JUMP JUMPDEST NOT DUP1 DUP4 AND SWAP2 POP POP SWAP3 SWAP2 POP POP JUMP JUMPDEST PUSH1 0x0 PUSH2 0x153A DUP4 DUP4 PUSH2 0x1510 JUMP JUMPDEST SWAP2 POP DUP3 PUSH1 0x2 MUL DUP3 OR SWAP1 POP SWAP3 SWAP2 POP POP JUMP JUMPDEST PUSH2 0x1553 DUP3 PUSH2 0xD0B JUMP JUMPDEST PUSH8 0xFFFFFFFFFFFFFFFF DUP2 GT ISZERO PUSH2 0x156C JUMPI PUSH2 0x156B PUSH2 0xB0F JUMP JUMPDEST JUMPDEST PUSH2 0x1576 DUP3 SLOAD PUSH2 0x136D JUMP JUMPDEST PUSH2 0x1581 DUP3 DUP3 DUP6 PUSH2 0x14BD JUMP JUMPDEST PUSH1 0x0 PUSH1 0x20 SWAP1 POP PUSH1 0x1F DUP4 GT PUSH1 0x1 DUP2 EQ PUSH2 0x15B4 JUMPI PUSH1 0x0 DUP5 ISZERO PUSH2 0x15A2 JUMPI DUP3 DUP8 ADD MLOAD SWAP1 POP JUMPDEST PUSH2 0x15AC DUP6 DUP3 PUSH2 0x152E JUMP JUMPDEST DUP7 SSTORE POP PUSH2 0x1614 JUMP JUMPDEST PUSH1 0x1F NOT DUP5 AND PUSH2 0x15C2 DUP7 PUSH2 0x139E JUMP JUMPDEST PUSH1 0x0 JUMPDEST DUP3 DUP2 LT ISZERO PUSH2 0x15EA JUMPI DUP5 DUP10 ADD MLOAD DUP3 SSTORE PUSH1 0x1 DUP3 ADD SWAP2 POP PUSH1 0x20 DUP6 ADD SWAP5 POP PUSH1 0x20 DUP2 ADD SWAP1 POP PUSH2 0x15C5 JUMP JUMPDEST DUP7 DUP4 LT ISZERO PUSH2 0x1607 JUMPI DUP5 DUP10 ADD MLOAD PUSH2 0x1603 PUSH1 0x1F DUP10 AND DUP3 PUSH2 0x1510 JUMP JUMPDEST DUP4 SSTORE POP JUMPDEST PUSH1 0x1 PUSH1 0x2 DUP9 MUL ADD DUP9 SSTORE POP POP POP JUMPDEST POP POP POP POP POP POP JUMP JUMPDEST PUSH1 0x0 DUP2 SWAP1 POP SWAP2 SWAP1 POP JUMP JUMPDEST PUSH2 0x1637 PUSH2 0x1632 DUP3 PUSH2 0xCF2 JUMP JUMPDEST PUSH2 0x161C JUMP JUMPDEST DUP3 MSTORE POP POP JUMP JUMPDEST PUSH1 0x0 DUP2 SWAP1 POP SWAP3 SWAP2 POP POP JUMP JUMPDEST PUSH1 0x0 PUSH2 0x1653 DUP3 PUSH2 0xD0B JUMP JUMPDEST PUSH2 0x165D DUP2 DUP6 PUSH2 0x163D JUMP JUMPDEST SWAP4 POP PUSH2 0x166D DUP2 DUP6 PUSH1 0x20 DUP7 ADD PUSH2 0xD27 JUMP JUMPDEST DUP1 DUP5 ADD SWAP2 POP POP SWAP3 SWAP2 POP POP JUMP JUMPDEST PUSH1 0x0 PUSH2 0x1685 DUP3 DUP13 PUSH2 0x1626 JUMP JUMPDEST PUSH1 0x20 DUP3 ADD SWAP2 POP PUSH2 0x1695 DUP3 DUP12 PUSH2 0x1648 JUMP JUMPDEST SWAP2 POP PUSH2 0x16A1 DUP3 DUP11 PUSH2 0x1648 JUMP JUMPDEST SWAP2 POP PUSH2 0x16AD DUP3 DUP10 PUSH2 0x1648 JUMP JUMPDEST SWAP2 POP PUSH2 0x16B9 DUP3 DUP9 PUSH2 0x1626 JUMP JUMPDEST PUSH1 0x20 DUP3 ADD SWAP2 POP PUSH2 0x16C9 DUP3 DUP8 PUSH2 0x1648 JUMP JUMPDEST SWAP2 POP PUSH2 0x16D5 DUP3 DUP7 PUSH2 0x1648 JUMP JUMPDEST SWAP2 POP PUSH2 0x16E1 DUP3 DUP6 PUSH2 0x1648 JUMP JUMPDEST SWAP2 POP PUSH2 0x16ED DUP3 DUP5 PUSH2 0x1648 JUMP JUMPDEST SWAP2 POP DUP2 SWAP1 POP SWAP11 SWAP10 POP POP POP POP POP POP POP POP POP POP JUMP JUMPDEST PUSH32 0x50726F6475637420616C72656164792065786973747300000000000000000000 PUSH1 0x0 DUP3 ADD MSTORE POP JUMP JUMPDEST PUSH1 0x0 PUSH2 0x1736 PUSH1 0x16 DUP4 PUSH2 0x12C1 JUMP JUMPDEST SWAP2 POP PUSH2 0x1741 DUP3 PUSH2 0x1700 JUMP JUMPDEST PUSH1 0x20 DUP3 ADD SWAP1 POP SWAP2 SWAP1 POP JUMP JUMPDEST PUSH1 0x0 PUSH1 0x20 DUP3 ADD SWAP1 POP DUP2 DUP2 SUB PUSH1 0x0 DUP4 ADD MSTORE PUSH2 0x1765 DUP2 PUSH2 0x1729 JUMP JUMPDEST SWAP1 POP SWAP2 SWAP1 POP JUMP INVALID LOG2 PUSH5 0x6970667358 0x22 SLT KECCAK256 GAS 0xD8 SWAP4 GT 0x2E NOT GASPRICE 0xFC 0xAC DUP4 0xC1 DUP9 SWAP8 MUL 0xA9 CALLDATACOPY 0xCF 0x49 PUSH32 0xE4FD81357A1ADAA972F59B9D8E64736F6C634300081200330000000000000000 "
				},
				"gasEstimates": {
					"creation": {
						"codeDepositCost": "1210000",
						"executionCost": "1261",
						"totalCost": "1211261"
					},
					"external": {
						"addProduct(uint256,string,string,string,uint256,string,string,string,string,string[],string[])": "infinite",
						"getProductDetails(bytes32)": "infinite",
						"updateProductDetails(bytes32,string,string)": "infinite"
					}
				},
				"methodIdentifiers": {
					"addProduct(uint256,string,string,string,uint256,string,string,string,string,string[],string[])": "dbda06f9",
					"getProductDetails(bytes32)": "b74d3fb5",
					"updateProductDetails(bytes32,string,string)": "b4bc0b93"
				}
			},
			"storageLayout": {
				"storage": [
					{
						"astId": 31,
						"contract": "contracts/traceability.sol:TraceabilityContract",
						"label": "products",
						"offset": 0,
						"slot": "0",
						"type": "t_mapping(t_bytes32,t_struct(ProductDetails)26_storage)"
					}
				],
				"types": {
					"t_array(t_string_storage)dyn_storage": {
						"base": "t_string_storage",
						"encoding": "dynamic_array",
						"label": "string[]",
						"numberOfBytes": "32"
					},
					"t_bytes32": {
						"encoding": "inplace",
						"label": "bytes32",
						"numberOfBytes": "32"
					},
					"t_mapping(t_bytes32,t_struct(ProductDetails)26_storage)": {
						"encoding": "mapping",
						"key": "t_bytes32",
						"label": "mapping(bytes32 => struct TraceabilityContract.ProductDetails)",
						"numberOfBytes": "32",
						"value": "t_struct(ProductDetails)26_storage"
					},
					"t_string_storage": {
						"encoding": "bytes",
						"label": "string",
						"numberOfBytes": "32"
					},
					"t_struct(ProductDetails)26_storage": {
						"encoding": "inplace",
						"label": "struct TraceabilityContract.ProductDetails",
						"members": [
							{
								"astId": 3,
								"contract": "contracts/traceability.sol:TraceabilityContract",
								"label": "productId",
								"offset": 0,
								"slot": "0",
								"type": "t_uint256"
							},
							{
								"astId": 5,
								"contract": "contracts/traceability.sol:TraceabilityContract",
								"label": "productName",
								"offset": 0,
								"slot": "1",
								"type": "t_string_storage"
							},
							{
								"astId": 7,
								"contract": "contracts/traceability.sol:TraceabilityContract",
								"label": "quantity",
								"offset": 0,
								"slot": "2",
								"type": "t_string_storage"
							},
							{
								"astId": 9,
								"contract": "contracts/traceability.sol:TraceabilityContract",
								"label": "quality",
								"offset": 0,
								"slot": "3",
								"type": "t_string_storage"
							},
							{
								"astId": 11,
								"contract": "contracts/traceability.sol:TraceabilityContract",
								"label": "farmerId",
								"offset": 0,
								"slot": "4",
								"type": "t_uint256"
							},
							{
								"astId": 13,
								"contract": "contracts/traceability.sol:TraceabilityContract",
								"label": "farmerName",
								"offset": 0,
								"slot": "5",
								"type": "t_string_storage"
							},
							{
								"astId": 15,
								"contract": "contracts/traceability.sol:TraceabilityContract",
								"label": "pickupLocation",
								"offset": 0,
								"slot": "6",
								"type": "t_string_storage"
							},
							{
								"astId": 17,
								"contract": "contracts/traceability.sol:TraceabilityContract",
								"label": "deliveryAddress",
								"offset": 0,
								"slot": "7",
								"type": "t_string_storage"
							},
							{
								"astId": 19,
								"contract": "contracts/traceability.sol:TraceabilityContract",
								"label": "offTakerName",
								"offset": 0,
								"slot": "8",
								"type": "t_string_storage"
							},
							{
								"astId": 22,
								"contract": "contracts/traceability.sol:TraceabilityContract",
								"label": "bagNumbers",
								"offset": 0,
								"slot": "9",
								"type": "t_array(t_string_storage)dyn_storage"
							},
							{
								"astId": 25,
								"contract": "contracts/traceability.sol:TraceabilityContract",
								"label": "bagQuantities",
								"offset": 0,
								"slot": "10",
								"type": "t_array(t_string_storage)dyn_storage"
							}
						],
						"numberOfBytes": "352"
					},
					"t_uint256": {
						"encoding": "inplace",
						"label": "uint256",
						"numberOfBytes": "32"
					}
				}
			},
			"userdoc": {
				"kind": "user",
				"methods": {},
				"version": 1
			}
		}
	}
}